:06000000020069020E95EA
:03000B00022B8441
:03001300022B5D60
:03001B00022BA510
:03002300022D1497
:03002B00020ED7EB
:03003300022BA7F6
:03003B00022D157E
:03004300020100B7
:03004B00022399F4
:03005300020100A7
:03005B00022B5E17
:03006300022B5F0E
:0300C200020066D3
:03006600020F0C7A
:2001BE00AF82BF033B7800E2B4EE35786674F3F208742DF2902DF3E4937868F208E4F29089
:2001DE00E0001220E37D007EE090E6B57401F090E6B3EEF090E6B4EDF090E6A07480F02277
:2001FE007891EFF278007992E2F3902DE902273E786C7401F208E4F2087460F2786AE4F2E3
:20021E0008F2786F04F208E4F2787104F2758251122114E58260407801E2B4FF0280387856
:20023E0001E2B4C201227801E2B4C02B786C74C0F208743FF208E4F2786A740CF208E4F263
:20025E00786F7429F208E4F2787104F2758251122114E582600122903FC074F9F078667496
:20027E002DF208742EF278687410F208E4F2903FC11220E3903FD1E4F0A3F0A3F0A3F0227D
:20029E00903FC0E0FFBF4102800ABF4202800DBF431A8010903FC07410F08011903FC07473
:2002BE0020F08009903FC07430F0800122903EA17401F0787674A1F208743EF208E4F278F6
:2002DE00747407F208E4F2787904F208E4F2787B04F2787C7408F2787D74FFF2758251127D
:2002FE0021B4903EA174C0F0787674A1F208743EF208E4F27874F208F2787904F208E4F25C
:20031E00787B04F2787C7408F2787D74FFF27582511221B4903FC0E0903EA1F0787674A11A
:20033E00F208743EF208E4F278747405F208E4F2787904F208E4F2787B04F2787C7408F2DE
:20035E00787D74FFF27582511221B4787674A1F208743EF208E4F27874740CF208E4F278C3
:20037E007904F208E4F2787B04F2787C7408F2787D74FFF27582510221B478027442F20824
:20039E00742DF2902D52E493FD1DC2D575F002ED30E704B2D5F404A430D50AF42401C5F006
:2003BE00F43400C5F024D9F582742D35F0F583E493FCA3E493FD7804ECF208EDF27802E269
:2003DE00240CFA08E23400FB8A828B83E0FEA3E0FF903FC0E07C004206EC42078A828B83C0
:2003FE00EEF0EFA3F0903FC0E0C4540F2440FF7804E2F58208E2F583EFF07804E22401FEEF
:20041E0008E23400FF903FC0E0FD740F5D24308E828F83F07804E22403FE08E23400FF8EC1
:20043E00828F83786674C1F208743FF278687410F208E4F21220E3903FC0E0FFBFF9287849
:20045E0002E22408F58208E23400F58374B4F07404A3F07802E2240AF58208E23400F583A7
:20047E007413F07486A3F0227806E2540524FFE433F5821210C47806E2035401F5820210A7
:20049E00ACAF827806E24FF2020486AF827806E25207EF24FFE433F58222AF827806E25F98
:2004BE00600FEFF4FF7806E25FF212048675820122758200227807E2600790E6A07401F00A
:2004DE002278077401F222AF82BF00028026BF01028005BF021A800C758200C007121D128F
:2004FE00D0078010758201C007121D12D007800475820022788CEFF27808E4F27809F278DD
:20051E009614F27897F2902DE91229E275820122AF82788CE2B401028008788CE2B4020A47
:20053E0080047E0080087E01800475820022780AE2B4011B8F058DF005F0785674018002F8
:20055E0025E0D5F0FBF28E82C007121D71D007EF2408F8790AE3F27896EFF2780A7997E2AA
:20057E00F3902DE91229E275820122E5822408F9E390E740F090E6B57401F090E68AE4F013
:20059E0090E68B04F090E6A003F02290E6B8E0FFE4BF400104FE601390E6B9E0FDBDB00B33
:2005BE007807E4F290E6A07480F022E4BFC00104FD7006EE700302078A90E6B9E0FCE4BC32
:2005DE00A90104FB7008BC1002800302078AEF235401FE7F0090E6BA780DE0F2A3E008F210
:2005FE0090E6BE780FE0F2A3E008F27C00EB60057F5102069490E6BCE0FAA3E0FBC37403D7
:20061E009AE49B4071EA2A900629738006800A800E80127F517C06805D7F527C0880577FA2
:20063E00537C088051780DC3E2F5F0E495F008E2F5F0741095F0403E780FC3E2F5F0E4959C
:20065E00F008E2F5F0741095F0402B780D790FE3C5F0E225F0FA09E3C5F008E235F0FBC345
:20067E00E49A74109B400F7F517C06780DE22400F208E23470F27807E4F2EF700790E6A050
:20069E007401F022780FE2F5F008E245F0700122780FC3E2944008E294005009780FE2FA7B
:2006BE0008E2FB80047A407B00EE605190E6A0E020E1F9786C7440F20874E7F208E4F278BA
:2006DE006FEAF208E4F2780D796AE2F308E209F378717401F28F82122114E582700790E6B4
:2006FE00A07401F02290E6B57401F090E68AE4F090E68BEAF090E6A07480F0805790E6B57A
:20071E007401F090E68AE4F090E68BF090E6A07480F090E6A0E020E1F978767440F2087497
:20073E00E7F208E4F27879EAF208E4F2780D7974E2F308E209F3787B7401F2787CECF27868
:20075E007D74FFF28F821221B4E582700790E6A07401F0227B00780FE2C39AF208E29BF27C
:20077E00780DE22AF208E23BF20206A2ED7006EE700302082D90E6B9E0FCBC1302800302BB
:20079E00082DEF235401FC90E6BAE0FF90E6BEE0FAA3E0FB7807E4F28F82C004C003C00259
:2007BE001211DFE582D002D003D004605BEC603290E6A0E020E1F98A04781AECF290E7405B
:2007DE00C00412120EE582D004603D90E6B57401F090E68AE4F090E68BECF090E6A07480E2
:2007FE00F02290E6B57401F090E68AE4F090E68BF090E6A07480F090E6A0E020E1F9781BF7
:20081E00EAF290E74002123F90E6A07401F022ED604390E6B9E0FCBC123B90E6BEE0FBA3E1
:20083E00E0FCBB0130BC002D7807E4F290E6A0E020E1F990E7407806E2F090E6B57401F00D
:20085E0090E68AE4F090E68B04F090E6A003F07582010204B8EE700302095590E6B9E0FC26
:20087E00BC1102800302095590E6BCE0FBA3E0FC4B601EC007780BE22401FA08E23400FFEB
:20089E00EBB50206ECB507028005D007020955D0078B078C0690E6BEE0FDA3E0FA7807E440
:2008BE00F2EF4E702E758202C007C006C005C0021204B87884E4F278857410F208E4F290BF
:2008DE003FD575F00012239A1210D0D002D005D006D007ED4A6058C3ED9440EA9400500625
:2008FE008D038A0480047B407C0090E6B57401F090E68AE4F090E68BF090E6A07480F09022
:20091E00E6A0E020E1F97818EBF290E740C007C006C005C003C002121145D002D003D0057C
:20093E00D006D0077C00EDC39BFDEA9CFA80A4780BEFF208EEF222ED7006EE7003020A0A3C
:20095E0090E6B9E0FCBC18028003020A0A90E6BEE0FBA3E0FCBB1005BC00028003020A0A4A
:20097E00EF235401FC7807E4F2EC603690E6A0E020E1F9786674D5F208743FF27868741005
:20099E00F208E4F290E7401220E390E6B57401F090E68AE4F090E68B7410F090E6A07480BA
:2009BE00F0221211991211D6E582603975820212049F90E6B57401F090E68AE4F090E68B3F
:2009DE00F090E6A07480F090E6A0E020E1F978667440F20874E7F278687410F208E4F29082
:2009FE003FD50220E390E6A07401F022ED7006EE7003020AB390E6B9E0FCBC14028003023E
:200A1E000AB390E6BEE0FBA3E0FCBB0205BC00028003020AB3EF235401FC90E6BCE0FB78C3
:200A3E0007E4F2EC603890E6A0E020E1F978217440F20874E7F28B821213D5E5827007903E
:200A5E00E6A07401F02290E6B57401F090E68AE4F090E68B7402F090E6A07480F02290E60E
:200A7E00B57401F090E68AE4F090E68B7402F090E6A07480F090E6A0E020E1F9781D7440D0
:200A9E00F20874E7F28B821212D0E582700675820102049F22ED605790E6B9E0FCBC154F85
:200ABE0090E6BEE0FBA3E0FCBB0244BC004190E6BCE0FC7807E4F290E6A0E020E1F9783091
:200ADE007440F20874E7F28C821216F7E582700790E6A07401F02290E6B57401F090E68AC5
:200AFE00E4F090E68B7402F090E6A07480F022ED7006EE7003020BCE90E6B9E0FCBC160203
:200B1E008003020BCE90E6BEE0FBA3E0FCBB0405BC00028003020BCEEF235401FC90E6BC56
:200B3E00E0FB7807E4F2EC604490E6A0E020E1F9783E7440F20874E7F2784074022440F2B2
:200B5E00E434E708F28B821218F8E582700790E6A07401F02290E6B57401F090E68AE4F070
:200B7E0090E68B7404F090E6A07480F02290E6B57401F090E68AE4F090E68B7404F090E68F
:200B9E00A07480F090E6A0E020E1F978347440F20874E7F2783674022440F2E434E708F2A9
:200BBE008B82121767E582700675820102049F22ED604790E6B9E0FCBC173F90E6BEE0FB1E
:200BDE00A3E0FCBB0134BC00317807E4F290E6A0E020E1F978457401F290E740121A0D90B2
:200BFE00E6B57401F090E68AE4F090E68B04F090E6A003F07582040204B8EE602F90E6B9A0
:200C1E00E0FCBC192790E6BEE0FBA3E0FC4B701C90E6BAE0FBA3E04B24FFE433F582780770
:200C3E00E4F212127F90E6A07480F022ED7006EE7003020D2D90E6B9E0FCBC1A0280030299
:200C5E000D2D90E6BEE0FBA3E0FCBB0205BC00028003020D2DEF235401FC90E6BCE0FB7887
:200C7E0007E4F2EC603890E6A0E020E1F978277440F20874E7F28B8212156CE5827007905D
:200C9E00E6A07401F02290E6B57401F090E68AE4F090E68B7402F090E6A07480F02290E6CC
:200CBE00B57401F090E68AE4F090E68B7402F090E6A07480F090E6A0E020E1F97825744086
:200CDE00F20874E7F28B8212148FE582700675820102049F787674E5F208743FF208E4F2AF
:200CFE0078747431F208E4F278797404F208E4F2787B04F2787C7408F2787D74FFF27582A0
:200D1E00511221B4E582700675820102049F22ED7006EE7003020DFB90E6B9E0FEBE1B022B
:200D3E008003020DFB90E6BEE0FCA3E0FEBC0205BE00028003020DFBEF235401FF90E6BCCF
:200D5E00E0FE7807E4F2EF604E90E6A0E020E1F9903FC0E0FFBF3000401E78527440F20882
:200D7E0074E7F2785474012440F2E434E708F28E82121C53E582700790E6A07401F02290DC
:200D9E00E6B57401F090E68AE4F090E68B7402F090E6A07480F02290E6B57401F090E68A4E
:200DBE00E4F090E68B7402F090E6A07480F090E6A0E020E1F9903FC0E0FFBF3000401790AC
:200DDE00E7407850E0F290E7417851E0F28E82121C16E582700675820102049F22ED603B69
:200DFE0090E6B9E0FFBF0F3390E6BEE0FEA3E0FFBE0128BF00257807E4F290E6A0E020E11B
:200E1E00F990E7407401F090E6B5F090E68AE4F090E68B04F090E6A003F022ED605290E67B
:200E3E00B9E0FFBFC04A90E6BCE0FF7807E4F2BF043778667405F208742EF2902E0578684B
:200E5E00E493F2A3E49308F290E0001220E37E007FE090E6B57401F090E6B3EFF090E6B4D3
:200E7E00EEF090E6A07480F02290E6A07401F02290E6A07401F022C0E0C000C0D075D000EB
:200E9E0078117401F2D0D0D000D0E032903EA3E4F0A3F07811F275820412049F7845E4F25C
:200EBE00903EA2121A0D903EA2E0FF781D74A3F208743EF28F820212D053B0EFC2CAC2CFCE
:200EDE0032C0E0C082C08343B010D2CA5391EF90E65F74F3F0D083D082D0E032020EDF0287
:200EFE000EDF020EDF020EDF020EDF020EDF90E6007412F090E67A7401F012020E12029E16
:200F1E001203981210A01212701215C3121CA5122B6090E611E4F0122B6090E610E4F0758F
:200F3E00C801D2AD90E65EE043E0F3F0D2A8903FD1E0FCA3E0FDA3E0FEA3E0FFEC4D4E4F42
:200F5E00700302107B903FD17812E0F2A3E008F2A3E008F2A3E008F27D527816E4F208F2D3
:200F7E00758201C0051210B81210D0D0057812E2F5F008E242F008E242F008E245F07003DA
:200F9E000210527C807812C3E2948008E2940008E2940008E2940050047812E2FC786C7402
:200FBE0000F20874E0F208E4F2786FECF208E4F27816796AE2F308E209F378717401F28D49
:200FDE0082122114E582700875820112049F80647818ECF290E000C005C004121145D00417
:200FFE00D0058C027B007E007F007812E2C39AF208E29BF208E29EF208E29FF28C077B00C3
:20101E007816E22FF208E23BF27816E2F5F008E245F06003020F8B8D03EB04FDBD54028088
:20103E0003020F8B7D517816E22400F208E23470F2020F8B7812E2F5F008E242F008E242EA
:20105E00F008E245F070101211991211D6E582700675820112049F7582001210B81211D6DA
:20107E00E582600675820212049F7582011223EE7807E260031205A97811E260F3120EAAB0
:02109E0080EEE2
:202D42001201000200000040B720B19D0001010203020A06000200000008000009040000C7
:202D620000FFFFFF060904000102FFFFFF070904000102FFFFFF080904010000FFFFFF0614
:202D82000904010102FFFFFF07070502020002000705040200020007058602000200070554
:202DA20088020002000902000002010480FA5E2D672D8B2D992D792D822D922DA02D00007B
:202DC2000902000001020580FA5E2D702D8B2D992D0000A72DC22D3E2E522E652E792EB520
:202DE2002ED52EDE2EF32E422D542D02D52D08D92D12034D00530046005400310030003091
:202E020000C00028000000000104000100000000000000000157494E5553420000000000E9
:202E2200000000000000000000000039393939393939393939393939393939007768697444
:202E420065717561726B20726573656172636800476C6173676F7720446562756720546FBC
:202E62006F6C0058582D585858585858585858585858585858580050697065205020617425
:202E8200207B327835313242204550324F55542F455036494E7D2C2051206174207B32784D
:202EA20035313242204550344F55542F455038494E7D00506970652050206174207B34780B
:202EC20035313242204550324F55542F455036494E7D0044697361626C656400446F756287
:202EE2006C652D6275666665726564203531324200517561642D6275666665726564203545
:042F02003132420026
:2010A000740445B054C7F5B043B53C22E582600443B0082253B0F722E582600443B01022B9
:1010C00053B0EF22E582600443B0202253B0DF2208
:2010D000122B6090E601E053E0FCF0903FC0E0FFBF10028014BF2002800FBF30028012BF68
:2010F0003102800DBF3210800843B50253B0FD800643B2025380FD900001122CE453B2F7A1
:2011100043B31C4390105390F7903FC0E0FFBF10028014BF2002800FBF3002800FBF31023B
:20113000800ABF320A800543B00280034380029004B0022CE475AF0385829B85839A90E621
:201150007B7818E2F8E0A2E7C2949292D294A2E6C2949292D294A2E5C2949292D294A2E4FC
:20117000C2949292D294A2E3C2949292D294A2E2C2949292D294A2E1C2949292D294A2E0D1
:20119000C2949292D294D8BD227431C29400D294D5E0F853B3E3903FC0E0FFBF10028014DE
:2011B000BF2002800FBF30028013BF3102800EBF3213800990E601E043E023F02290E601F8
:2011D000E043E063F022E580A2E3E433F58222E5827819F2758210121ED4E5826019785A46
:2011F0007401F208E4F2903E1975F060121F08E582600475820122121EEC75820022AE826B
:20121000AF83758211121ED4E582601C7D00781A795FE2F309E4F38E828F838DF0121F8FA2
:20123000E582600475820122121EEC75820022AE82AF837D00781B795AE2F309E4F38E827A
:201250008F838DF0121F08E582600E121EECE5827003F5822275820122121EEC7582002203
:2012700074BE55B04480F5B043B5C153B07F22E582600453B07F2243B08022AF827E008F1F
:2012900005BD0102800ABF02028009BD031180087E0C800B7E0D8007781CE270027E48EE87
:2012B0007003F58222EE2EFE781CE24EF582121ED4E5827007121EEC75820022758201228C
:2012D000AF827E00781DE2F58208E2F583E0FCA3E0FDEF30E0027E01EF30E103430640EFA8
:2012F00030E013903FE5E0FAA3E0FBC3EA9CEB9D500475820022EF30E113903FE7E0FAA32B
:20131000E0FBC3EA9CEB9D500475820022EC4D7008EEF452B075820122C3EC9472ED9406B9
:201330004008747C9C74159D500475820022EC248EFCED34F9FD789DECF2E2F5F0EDC4C555
:20135000F0C4540F65F0C5F0540FC5F065F0F2C5F008F290010DC007C006122B85AC82AD86
:2013700083D006D007EDC4CCC4540F6CCC540FCC6CCCFD74E0C39CFC740F9DFB781FEBF2AF
:201390007820ECF2781CE4F28F82C00612128BE582D0067003F58222785A7402F208E4F276
:2013B000903E1F75F060121F08E5827007121EEC75820022121EECE5827003F58222EE4260
:2013D000B075820122AF82BF01028005BF020A80047E0180087E40800475820022EE55B017
:2013F00070117821E2F58208E2F583E4F0A3F075820122781C7401F28F8212128BE58270F5
:2014100003F58222785F7402F208E4F2903E2375F060121F8FE5827003F582227823E2FE9F
:201430007F007824E27C004207EC42067821E2FC08E2FDEEC4CFC4540F6FCF540FCF6FCFF2
:20145000FE789D74FFC39FF2E49E08F2900098C005C004122B857857740AF208E4F2121E66
:2014700047E5828583F0D004D0052472FE740635F0FF8C828D83EEF0EFA3F075820122AF94
:20149000827825E2FD08E2FE8D828E83E0FBA3E0FC4B6015C3EB9472EC94064008747C9B0F
:2014B00074159C50047582002275080675092F850882850983E493FA7003021568EA5F701E
:2014D0000302155A782174A5F208743EF28A82C007C006C005C004C0031213D5E582D0031F
:2014F000D004D005D006D0077003F58222C007903EA5E0FAA3E0FFC3EB9AEC9FD0075030BA
:20151000850882850983E493FA781DEDF208EEF28A82C007C006C005C004C0031212D0E510
:2015300082D003D004D005D006D0077003F58222850882850983A3E49325E0FA24E5F5822B
:20155000E4343FF583EBF0ECA3F074022508F508E43509F5090214BF75820122AF827E06EE
:201570007D2F8E038D048B828C83E493FA6040EFB5022F7827E2F51908E2F51A8E828D83E3
:20159000A3E49325E024E5F582E4343FF583E0FDA3E0FE851982851A83EDF0EEA3F07582D8
:1315B000012274022BFBE43CFC8B068C0580B775820022DB
:062F0600010002010000C1
:2015C30090E670E043E001F05388FE22A982E3FE7F0009E37C004207EC4206789DEFF2E2EB
:2015E300F5F0EEC4C5F0C4540F65F0C5F0540FC5F065F0F2C5F008F2900103122B85785738
:20160300740AF208E4F2021E47AE82AF83789DEEF208EFF290000A122B8578577403F20836
:201623007401F2121E47AE82E583C454F0CEC4CE6ECE54F0CE6EFF7829E2F9EFF309EEF3C6
:2016430022E5822582FFF582121ED4E5826048785A7401F208E4F2903E2A75F060121F08C1
:20166300E5826033EF3395E0FE4307018F82121ED4E5826022782BE2FD7E007F60782C7993
:201683005FE2F309E4F38D828E838FF0121F8FE582600475820122121EEC75820022E58253
:2016A300FF25E0F582121ED4E5826041785A7401F208E4F2903E2D75F060121F08E58260C9
:2016C3002C782EE2FD7E007F60782F795AE2F309E4F38D828E838FF0121F08E582600E120B
:2016E3001EECE5827003F5822275820122121EEC75820022AF827D0C7E2F8D038E048B8285
:201703008C83E493FA6059EFB502488D828E83A3E493FA782B7432F2782AE4F2782C74029E
:20172300F28A82121644E5827003F582227830E2F50A08E2F50B7582321215CF85820C859F
:20174300830D850A82850B83E50CF0E50DA3F07582012274022BFBE43CFC8B058C06809E5A
:2017630075820022AF827838E4F27839F2783A740FF2783BF4F2783C7403F2783DE4F27813
:2017830034E2F58208E2F583E0FDA3E0FEC3747C9D74159E401D7836E2FB08E2FC8B828C1B
:2017A30083E0F50EA3E0F50FC3747C950E7415950F500475820022ED4E700C747CB50E07D8
:2017C3007415B50F02803778297438F28D828E83C007C004C00312160CD003D0048B828CDF
:2017E30083E0FBA3E0FC7829743AF28B828C8312160CD007783D7414F2783D74D4F27D0CFA
:201803007E2F8D828E83E493FC70030218F4EC5F70030218EA74012DFBE43EFC8B828C836B
:20182300E493FA782E7438F2782D7403F2782F14F28A82C007C006C005C004C0031216A187
:20184300E582D003D004D005D006D0077003F582228B828C83E493FA782E743AF2782D74FD
:2018630004F2782F03F28A82C007C006C005C004C0031216A1E582D003D004D005D006D09C
:20188300077003F582228B828C83E493FA782E743CF2782D7401F2782FF28A82C007C0061F
:2018A300C005C004C0031216A1E582D003D004D005D006D0077003F582228B828C83E493E1
:2018C300FB782E743DF2782D7402F2782F14F28B82C007C006C0051216A1E582D005D006CD
:2018E300D0077003F5822274022DFDE43EFE02180575820122AF827D0C7E2F8D038E048BF5
:20190300828C83E493FA70030219FDEFB5020280030219EF74012DF510E43EF5118510821C
:20192300851183E493FD782B7444F2782A7402F2782C14F28D82121644E5827003F5822228
:201943007844E27021783EE2F58208E2F583E4F0A3F07840E2F58208E2F583747CF07415A1
:20196300A3F075820122851082851183E493FD782B7442F2782A7403F2782C14F28D8212F2
:201983001644E5827003F58222783EE2F51208E2F5137582421215CFAA82AE8385128285BC
:2019A3001383EAF0EEA3F0851082851183E493FE782B7442F2782A7404F2782C03F28E828E
:2019C300121644E5827003F582227840E2F51208E2F5137582421215CFAA82AE83851282ED
:2019E300851383EAF0EEA3F07582012274022BFBE43CFC8B058C0602190275820022E580DF
:201A03005401B40100E433F58222AF83E5827846F208EFF27846E2F58208E2F583E4F07C0E
:201A23000C7D2F8C828D83E4937003021B3274012CFAE43DFB8A828B83E493FF782B7448EE
:201A4300F2782A7401F2782CF28F82C005C004C003C002121644E582D002D003D004D005B2
:201A63007003F582227848E27003021B287849E4F27846E2F58208E2F583E0FF8C828D83F0
:201A8300E49342077846E2F58208E2F583EFF08A828B83E493FF782B7449F2782A7402F23F
:201AA300782C14F28F82C005C004C003C002121644E582D002D003D004D0057003F582222D
:201AC3007845E260308A828B83E493FA782E7448F2782D7401F2782FF28A82C005C00412A9
:201AE30016A1E582D004D0057003F582227849E24404F280067849E254FBF28C828D83A308
:201B0300E493FF782E7449F2782D7402F2782F14F28F82C005C0041216A1E582D004D005CA
:131B23007003F5822274022CFCE43DFD021A26758201228B
:062F0C0001540255000013
:201B3600AF827E008F05BD01028005BF020880047E2080027E21EE7003F58222EE2EFE786F
:201B56004AE24EF582121ED4E5827003F5822275820122AF82784AE4F28F82121B36E58249
:201B76006038785A7401F208E4F2903E4B75F060121F08E5826023785A7401F208E4F290F8
:201B96003E4C75F060121F08E582600E121EECE5827003F5822275820122121EEC75820016
:201BB60022AF82784AE4F28F82C007121B36E582D0076045785A7401F208E4F2903E4D755F
:201BD600F060121F08E5826030784A7401F28F82121B36E5826022784EE2FD08E2FE7F00DD
:201BF600785F7401F208E4F28D828E838FF0121F8FE582600475820122121EEC758200223A
:201C1600AF82784B7401F27851794CE2F38F82C007121B69E582D0077003F582227850E28E
:201C3600F4F2784B7403F27850794CE2F38F82121B69E5827003F5822275820122AF82783D
:201C56004D7401F27854794EE2F308E209F38F82C007121BB7E582D0077003F58222784DA1
:201C76007403F27852794EE2F308E209F38F82121BB7E5827003F582227852E2FE08E2FF9E
:0F1C96008E828F83E0F48E828F83F0758201221D
:201CA500122B6090E60B7403F0122B6090E6017480F0122B6090E6047480F0122B6090E694
:201CC50009E4F0122B6090E6027498F0122B6090E60374FEF0122B6090E670E043E080F0A3
:201CE500122B6090E618E053E0FEF0122B6090E619E053E0FEF0122B6090E61AE053E0FE48
:201D0500F0122B6090E61BE053E0FEF022E582FF60067E007D0080047E027D80122B609088
:201D2500E6047480F0122B6090E61274A04EF0122B6090E61374204DF0122B6090E61474C7
:201D4500E04EF0122B6090E61574604DF0EF60067D017E0080047D037E007856EDF28F8296
:201D6500121D71122B6090E604E4F022AF827856E25401606D122B6090E618E4F0122B6012
:201D850090E604E0FE7D0043060290E604EEF0122B6090E6497482F0122B6090E649748232
:201DA500F0EF6012122B6090E6497482F0122B6090E6497482F0122B6090E6187410F01298
:201DC5002B6090E61AE4F0122B6090E604E0FF7E0043070690E604EFF0122B6090E61A7451
:201DE50004F07856E254026058122B6090E619E4F0122B6090E604E0FF7E0043070490E6F4
:201E050004EFF0122B6090E6497484F0122B6090E6497484F0122B6090E6197410F0122B75
:201E25006090E61BE4F0122B6090E604E0FF7E0043070890E604EFF0122B6090E61B740413
:021E4500F02289
:201E4700AE82AF837C007D007B10EF235401FAEE2EFEEF33FFEC2CFCED33FDEA6003430434
:201E6700017857C3E2F5F0EC95F008E2F5F0ED95F040117857D3E29CF4B3FCB308E29DF40D
:0E1E8700FD430601EB14FB70C18E828F832297
:201E9500C007C000AF8290E678E020E00E7859E260F47859E4F2758200801F90E678E03057
:201EB500E2057582008013EF600D90E678E0FFA2E1E433F5828003758201D000D00722C05E
:201ED50007AF8290E6787480F090E679EFF0758201121E95D0072290E678E030E204758284
:201EF500002290E6787440F090E678E020E6F975820122C007C006C004C003C002C000AFED
:201F1500F0AE83E582785CF208EEF208EFF2785AE2F5F008E245F07005758201804F7B001E
:201F35007C00785AE2B5030708E2B50402802B785CE22BFA08E23CFE08E2FF8A828E838FB9
:201F5500F0122D19FA90E679F0758201121E95E58260070BBB00CB0C80C8785AE2B5030867
:201F750008E2B50403D38001C3E433F582D000D002D003D004D006D00722C007C006C00597
:201F9500C004C003C002C001C000AFF0AE83E5827861F208EEF208EFF2785FE2F5F008E207
:201FB50045F070067582010220D2785FE2B4010408E26002800690E6787420F090E679E0F0
:201FD5007B007C007864E4F208F27864795FE2F5F0E3B5F00C08E2F5F009E3B5F0030220B5
:201FF500AC758200121E95E58270030220BF7864E22402FD08E23400FE785FE2B50507082A
:20201500E2B506028002800690E6787420F07864E22401FD08E23400FE785FE2B505070814
:20203500E2B506028002803575AF03759AE6759B7890E67B7440F0E0ACE078617964E3C5B2
:20205500F0E225F0FD09E3C5F008E235F0FE08E2FF8D828E838FF0EC122B698025786179C8
:2020750064E3C5F0E225F0FD09E3C5F008E235F0FE08E2FF90E679E0FA8D828E838FF0124A
:202095002B697864E22401F208E23400F27864E2FB08E2FC021FDF90E678E030E205758237
:2020B50000801A90E678E020E6F9785FE2B5030808E2B50403D38001C3E433F582D000D040
:0E20D50001D002D003D004D005D006D00722DF
:2020E300AA82AB837866E2FC08E2FD7868E2FE08E2FFEE60010FEF601775AF078A9B8B9AFE
:112103008C9E8D9D90E67CE090E67BF0DEF6DFF422FB
:20211400C007C006C005C001C000AF827871E26012786BE2FE7872EEF2786AE2FE7873EE42
:20213400F28008786AE2FE7872EEF2EF2FFFF582121ED4E58260587871E2FDE23395E0FE7E
:20215400785A74012DF2E43E08F2903E7275F060121F08E5826038EF3395E0FE4307018F3D
:2021740082121ED4E5826027786F795FE2F308E209F3786CE2F58208E2F58308E2F5F012DD
:202194001F8FE5827004F582800B7582018006121EEC758200D000D001D005D006D00722CA
:2021B400C007C006C005C004C003C002C001C000AF82787EE4F208F2EF2FFFF582121ED460
:2021D400E5827003022369787CE2FC8CF005F07B017C008006EB2BFBEC33FCD5F0F7787EE4
:2021F4007979C3E3F5F0E295F009E3F5F008E295F04003022369787BE260127875E2FA784E
:2022140080EAF27874E2FA7881EAF280087874E2FA7880EAF2C003C004787BE2FAE233958D
:20223400E0FC785A74012AF2E43C08F2903E8075F060121F08E582D004D0037003022369D6
:20225400C0078B028C07789FEAF208EFF27874E2F58208E2F583C007C004C003C002C0012F
:20227400C000122BA9AD82AE83D000D001D002D003D004D0077882EAC39DF2EF9E08F2781E
:2022940079797EE3F5F0C3E295F0FE09E3F5F008E295F0FF7882C3E2F5F0EE95F008E2F5B5
:2022B400F0EF95F0D00750207879797EE3F5F0C3E295F0C0E009E3F5F008E295F0C0E0788D
:2022D40083D0E0F218D0E0F27876797EE3C5F0E225F0FA09E3C5F008E235F0FD08E2FE7890
:2022F40082795AE2F308E209F38A828D838EF0121F08E582605F121EECE5827004F58280D3
:20231400737E00787DE2600B787DC3E2F5F0EE95F0500C8F82121ED4E58270030E80E4784F
:202334007DE2B50605758200804A78747982E3C5F0E225F0F209E3C5F008E235F0F2787EA9
:202354007982E3C5F0E225F0F209E3C5F008E235F0F20221F2121EEC787E7979E2F5F0E388
:20237400B5F00C08E2F5F009E3B5F003D38001C3E433F582D000D001D002D003D004D005A1
:05239400D006D0072275
:06009800E478FFF6D8FD3C
:012399003211
:20239A00AFF0AE83E5827887F208EEF208EFF27887E2FA08E2FB08E2FC7885E2F51908E2AD
:2023BA00F51AAE19AF1A151974FFB51902151AEE4F60138A828B838CF07884E2122B69A357
:1423DA00AA82AB8380DC7887E2F58208E2F58308E2F5F0228E
:2023EE00AF82788BE4F2788CF2D2E890E668E043E008F090E65CE043E001F090E65D74012E
:20240E00F0D2AF90E680E020E10890E680E043E002F0EF600E90E680E043E008F090000A8B
:20242E00122CEE90E680E053E0F7F022AF82BF00028037BF01028036BF02028039BF0402EE
:20244E008038BF06028037BF08028036BF80028019BF8102801CBF8202801BBF8402801A44
:20246E00BF86028019BF881E801890E6A02290E6A12290E6A22290E6A32290E6A42290E6D9
:20248E00A52290E6A62290000022C020C0E0C0F0C082C083C007C006C005C004C003C00227
:2024AE00C001C000C0D075D000C08675860090E6B8E0FFE4BF800104FE601B90E6B9E0FDBD
:2024CE00BD061390E6BAE0FCA3E0F5827800ECF21201BE022716EF702790E6B9E0FDBD0954
:2024EE001F90E6BAE0F5821204E5E582600990E6A07480F002271690E6A07401F00227166A
:20250E00EE600E90E6B9E0FDBD0806122C440227168F05BD012F90E6B9E0FDBD0B2790E6C7
:20252E00BCE0FD90E6BA780AE0F28D8212052EE582600990E6A07480F002271690E6A07489
:20254E0001F0022716E4BF810104FD601490E6B9E0FCBC0A0C90E6BCE0F582120589022774
:20256E0016EF703790E6B9E0FCBC032F90E6BAE0FBA3E0FCBB0110BC000D788B7401F2908F
:20258E00E6A003F0022716BB0205BC0002800302271690E6A07480F0022716EE603590E601
:2025AE00B9E0702F788AE2FE788BE225E0FC420690E740EEF090E741E4F090E6B504F090F5
:2025CE00E68AE4F090E68B7402F090E6A07480F0022716ED602890E6B9E0702290E740E458
:2025EE00F090E741F090E6B504F090E68AE4F090E68B7402F090E6A07480F0022716BF02E1
:20260E000280030226C190E6B9E0FEBE03028008BE010280030226C190E6BAE0FDA3E0FE2B
:20262E004D600302271690E6BCE0F58212243AAD82AE83ED4E700302271690E6B9E0FCBC90
:20264E0003188D828E83E0FC4304018D828E83ECF090E6A07480F002271690E6BCE0F5824F
:20266E00C006C005122C32E582D005D00670030227168D828E83E0FC5304FE8D828E83EC30
:20268E00F090E6BCE0FDA3E0740F5DFB7C00530580E4C423CDC423541F6DCD541FCD6DCDD5
:2026AE00FEED4203EE420490E683EBF0E043E020F08055BF824C90E6B9E0704690E6BCE088
:2026CE00F58212243AAE82AF83EE4F603B8E828F83E0FE5306017F00EE4FB40100B3E43336
:2026EE00FF90E740F090E741E4F090E6B504F090E68AE4F090E68B7402F090E6A07480F046
:20270E00800690E6B81204D35391EF90E65D7401F0D086D0D0D000D001D002D003D004D023
:20272E0005D006D007D083D082D0F0D0E0D02032AE82AF837891E2B4012C7892E270278E63
:20274E00828F83E493FCA3E493FD7866ECF208EDF28C828D83E4937868F208E4F290E000F5
:20276E001220E30229C77891E2B4063C7892E270378E828F83A3A3E493FCA3E493FD4C7022
:20278E000790E6A07401F0228C028D037866EAF208EBF28C828D83E4937868F208E4F290F5
:2027AE00E0001220E30229C77891E2B4020280030228E58E828F83A3A3A3A3E493FD7892C3
:2027CE00C3E29D40030228E58E828F83A3A3A3A3A3E493FCA3E493FD7892E275F002A42C59
:2027EE00F582ED35F0F583E493FCA3E493FD74092CFAE43DFB7893EAF208EBF2087480F2C7
:20280E008C028D037866EAF208EBF28C828D83E4937868F208E4F290E000C005C00412207D
:20282E00E3D004D0058C828D83E4932400FCE434E0FD7893E2F51408E2F51508E2F5168CE9
:20284E00178D188514828515838516F0122D19FAA3122D19FB7866EAF208EBF28A828B83EA
:20286E00E4937868F208E4F2851782851883C005C0041220E3D004D00585148285158385E1
:20288E0016F0122D19FAA3122D19FB8A828B83E4932CFCE43DFD74022514F514E43515F52A
:2028AE00158514828515838516F0122D19FAA3122D194A708A90E002E0FAA3E0FB4A60032A
:2028CE000229C7ECC39400FCED94E0FD90E002ECF0EDA3F00229C77891E2B4030474018000
:2028EE0001E4FD60227892E2701D78667412F208742FF2902F12E4937868F208E4F290E092
:20290E00001220E30229C7ED70030229C07892E2FC7D0024FFFAED34FFFB74072EF582E4B6
:20292E003FF583C006C007E493FF7E00C3EA9FEB64808EF063F08095F0D007D0065073747C
:20294E00082EF582E43FF583E493FEA3E493FF1CBCFF011DEC2CFCED33FDEC2EF582ED3FB0
:20296E00F583E493FEA3E493FF90E0007402F090E00104F074012401FCE434E0FD8E828FDE
:20298E0083E493FB60330EBE00010F8C828D83EBF074012CFAE43DFB8A828B83E4F0042AF9
:2029AE00FCE43BFD90E000E0FB0B0B90E000EBF080CB90E6A07401F0227E007FE090E6B555
:2029CE007401F090E6B3EFF090E6B4EEF090E6A07480F022AE82AF83A3A3A3A3A3E493FC54
:2029EE00A3E493FD74042EFEE43FFF7898E4F28E828F83E493FA7898C3E29A400122C006FB
:202A0E00C0077898E275F002A42CF582ED35F0F583E493FBA3E493FA74092BFEE43AFF78F6
:202A2E0099EEF208EFF2087480F27F008B828A83A3A3A3A3A3E493FE788CE2B506028007D1
:202A4E00D007D006022B54D007D0067899E2F51908E2F51A08E2F51BC004C005851982856B
:202A6E001A83851BF0122D19FAA3122D19FD8A828D83A3E493F51C7404B51C028006D005E4
:202A8E00D0048047D005D004851982851A83851BF0122D19F51DA3122D19F51E851D8285F1
:202AAE001E83A3A3E493FA7896E2B50214851D82851E83A3A3A3E493FA7897E2B502028027
:202ACE00047A0080027A018A0780587405B51C53EF6050C004C005851982851A83851BF06D
:202AEE00122D19FAA3122D19FD8A828D83A3A3E493FD740F5DFA7B00530580E423CDC423C0
:202B0E00541F6DCD541FCD6DCD30E40244E0FCED4202EC420390E683EAF0E043E020F0D032
:202B2E0005D00474022519F519E4351AF51A851982851A83851BF0122D19FAA3122D19FB90
:0F2B4E004A6003022A667898E22401F20229FD08
:042F120004030904A7
:012B5D003245
:200076007900E94400601B7A00902F1678A775923EE493F2A308B800020592D9F4DAF27523
:0200960092FFD7
:012B5E003244
:012B5F003243
:030100000224983E
:03010400022D16B3
:03010800022C3096
:03010C00022D12AF
:03011000022D18A5
:03011400022D3C7D
:03011800022C2D89
:03011C000201B825
:03012000020EFAD2
:03012400020EFDCB
:03012800022C4165
:03012C00022D3B66
:03013000020F00BB
:03013400020F03B4
:03013800020F06AD
:03013C00020F09A6
:03014000022C3E50
:030144000201B8FD
:03014800022D3550
:03014C00022D364B
:03015000022D3746
:03015400022D3841
:03015800022D393C
:03015C00022D3A37
:03016000022D1756
:030164000201B8DD
:030168000201B8D9
:03016C000201B8D5
:03017000022C401E
:03017400022C4218
:03017800022C61F5
:03017C00022C63EF
:03018000022C430B
:03018400022C62E8
:03018800022C64E2
:03018C00022D132E
:03019000022BA897
:03019400022C2E0C
:03019800022C3105
:03019C00022C3DF5
:0301A000022C2C02
:0301A400022C2FFB
:0301A800022C3CEA
:0301AC00022C3FE3
:0301B000022BA679
:0301B400022D41D8
:0101B8003214
:092B60000000000000000000224A
:1B2B690020F71130F6138883A88220F509F6A8837583002280FEF280F5F0226B
:012B8400321E
:202B8500AA83AB828BF0903E9DE0A4F8A9F08AF0E0A429F98BF0A3E0A429F583888222222A
:012BA50032FD
:012BA60032FC
:012BA70032FB
:012BA80032FA
:202BA900AE82AF837D007C0078A0E2235401FB7035789FE225E0F208E233F2789FC3E2F5EF
:202BC900F0EE95F008E2F5F0EF95F05014789FE2F5F008E2C313C5F01318F2C5F008F28043
:202BE900050C8C0580C2789FC3E2F5F0EE95F008E2F5F0EF95F0400E789FD3E29EF4B3FE34
:202C0900B308E29FF4FF789FE2F5F008E2C313C5F01318F2C5F008F28D041DEC70C88E827B
:032C29008F832274
:012C2C003275
:20009E0078A1E84400600A790075923EE4F309D8FC7806E84400600C7901903EA1E4F0A3AB
:0400BE00D8FCD9FA97
:012C2D003274
:012C2E003273
:012C2F003272
:012C30003271
:012C31003270
:0A2C320090E6A07480F07582012284
:012C3C003265
:012C3D003264
:012C3E003263
:012C3F003262
:012C40003261
:012C41003260
:012C4200325F
:012C4300325E
:1D2C440090E740788CE2F090E6B57401F090E68AE4F090E68B04F090E6A003F02262
:012C61003240
:012C6200323F
:012C6300323E
:012C6400323D
:202C6500E583700BE58224FA400122B4001122E5826003D5E0FD0075E0FED583F674F9D53E
:202C8500E0FD22C007C006C001C000AE82AF83EE2EF8EF33F9EE28FEEF39FF90E600E0F808
:202CA500794C20E416C3EF13CE13CEFF795AE820E309C3EF13CE13CEFF7963E58124FAF82B
:202CC500E926C313C313F9C3EE99F582EF9400F583D000D001D006D007500122022C6574B7
:202CE50011C0E0122C88158122C007C006AE82AF837411C0E0EE4F600D1EBEFF011F900354
:0D2D0500E8122C8880EF1581D006D007223F
:012D1200328E
:012D1300328D
:012D1400328C
:012D1500328B
:012D1600328A
:012D17003289
:012D18003288
:0D006900758120122D3DE5826003020066C6
:1C2D190020F71430F6148883A88220F507E6A88375830022E280F7E49322E022C9
:012D3500326B
:012D3600326A
:012D37003269
:012D38003268
:012D39003267
:012D3A003266
:012D3B003265
:012D3C003264
:042D3D007582002279
:012D4100325F
:00000001FF
