:06000000020069020F5A24
:03000B000232B30B
:0300130002328C2A
:03001B000232D4DA
:0300230002358F14
:03002B00020FAB16
:0300330002342272
:03003B00023590FB
:03004300020100B7
:03004B00022ABEC8
:03005300020100A7
:03005B0002328DE1
:0300630002328ED8
:0300C200020066D3
:03006600020FE0A6
:2001BE00AF82BF033B7800E2B4EE357881746EF2743608F290366EE4937883F2E408F2904B
:2001DE00E0001228057D007EE090E6B57401F090E6B3EEF090E6B4EDF090E6A07480F0224D
:2001FE0078A8EFF2780079A9E2F3903664022E6A78877401F2E408F2746008F27885E4F2C8
:20021E0008F2788A04F2E408F2788C04F2758251122836E58260407801E2B4FF02803878F7
:20023E0001E2B4C201227801E2B4C02B788774C0F2743F08F2E408F27885740CF2E408F22D
:20025E00788A7429F2E408F2788C04F2758251122836E582600122903FC074F9F07881741C
:20027E00A8F2743608F278837410F2E408F2903FC1122805903FD1E4F0A3F0A3F0A3F022B5
:20029E00903FC0E0FFBF4102800ABF4202800DBF431A8010903FC07410F08011903FC07473
:2002BE0020F08009903FC07430F0800122903EC57401F0789174C5F2743E08F2E408F27893
:2002DE008F7407F2E408F2789404F2E408F2789604F278977408F2789874FFF275825112F6
:2002FE0028D3903EC574C0F0789174C5F2743E08F2E408F2788FF208F2789404F2E408F29D
:20031E00789604F278977408F2789874FFF27582511228D3903FC0E0903EC5F0789174C540
:20033E00F2743E08F2E408F2788F7405F2E408F2789404F2E408F2789604F278977408F272
:20035E00789874FFF27582511228D3789174C5F2743E08F2E408F2788F740CF2E408F27828
:20037E009404F2E408F2789604F278977408F2789874FFF27582510228D3780274BDF274AB
:20039E003508F29035CDE493FD1DC2D575F002ED30E704B2D5F404A430D50AF42401C5F0E7
:2003BE00F43400C5F02454F582743635F0F583E493FCA3E493FD7804ECF2ED08F27802E2E5
:2003DE00240CFA08E23400FB8A828B83E0FEA3E0FF903FC0E07C004206EC42078A828B83C0
:2003FE00EEF0EFA3F0903FC0E0C4540F2440FF7804E2F58208E2F583EFF07804E22401FEEF
:20041E0008E23400FF903FC0E0FD740F5D24308E828F83F07804E22403FE08E23400FF8EC1
:20043E00828F83788174C1F2743F08F278837410F2E408F2122805903FC0E0FFBFF92878E9
:20045E0002E22408F58208E23400F58374B4F07404A3F07802E2240AF58208E23400F583A7
:20047E007413F07486A3F0227806E25405600443B0202253B0DF22AF827806E24FF202040A
:20049E0086AF827806E25F600FEFF4FF7806E25FF212048675820122758200227807E26036
:2004BE000790E6A07401F02278077401F222AF82BF00028026BF01028005BF021A800C75B7
:2004DE008200C00712239CD0078010758201C00712239CD00780047582002278A7EFF27801
:2004FE0008E4F27809F278AD14F278AEF290366412310E75820122AF8278A7E2B40102804C
:20051E000878A7E2B4020F8006780BE4F2800B780B7401F2800475820022780AE2B4011EC7
:20053E008F068EF005F0786B7401800225E0D5F0FBF2780BE2F582C0071223FBD007EF2447
:20055E0008F8790AE3F278ADEFF2780A79AEE2F390366412310E75820122E5822408F9E39D
:20057E0090E740F090E6B57401F090E68AE4F090E68B04F090E6A003F02290E6B8E0FFE441
:20059E00BF400104FE601390E6B9E0FDBDB00B7807E4F290E6A07480F022E4BFC00104FD6E
:2005BE007006EE70030207A190E6B9E0FCE4BCA90104FB7008BC100280030207A1EF23546F
:2005DE0001FE7F0090E6BA780EE0F2A3E008F290E6BE7810E0F2A3E008F27C00EB60057F24
:2005FE005102068B90E6BCE0FAA3E0FBC374039AE49B4079EA2A900618738006800A800E90
:20061E0080127F517C0680657F527C08805F7F537C088059780EE2FA08E2FBC3E49A741084
:20063E009B404AC002C0037810E2FA08E2FBC3E49A74109BD003D0024033C002C003780E26
:20065E007910E3C5F0E225F0FA09E3C5F008E235F0FBC3E49A74109BD003D002400F7F519B
:20067E007C0674702BFB780EEAF2EB08F27807E4F2EF700790E6A07401F0227810E2F5F0E2
:20069E0008E245F07001227810E2FA08E2FBC3EA9440EB940040047A407B00EE605190E6B3
:2006BE00A0E020E1F978877440F274E708F2E408F2788AEAF2E408F2780E7985E2F308E2CB
:2006DE0009F3788C7401F28F82122836E582700790E6A07401F02290E6B57401F090E68A09
:2006FE00E4F090E68BEAF090E6A07480F0805790E6B57401F090E68AE4F090E68BF090E691
:20071E00A07480F090E6A0E020E1F978917440F274E708F2E408F27894EAF2E408F2780E19
:20073E00798FE2F308E209F378967401F27897ECF2789874FFF28F821228D3E58270079075
:20075E00E6A07401F022C0048A087509007810E2F50A08E2F50BE50AC39508FBE50B95096F
:20077E00FC7810EBF2EC08F2780EE2FA08E2FCE5082AFAE5093CFC780EEAF2EC08F2D00479
:20079E00020699ED7006EE700302084490E6B9E0FCBC13028003020844EF235401FC90E602
:2007BE00BAE0FF90E6BEE0FAA3E0FB7807E4F28F82C004C003C0021212B4E582D002D00363
:2007DE00D004605BEC603290E6A0E020E1F98A04781AECF290E740C0041212E3E582D00443
:2007FE00603D90E6B57401F090E68AE4F090E68BECF090E6A07480F02290E6B57401F090C1
:20081E00E68AE4F090E68BF090E6A07480F090E6A0E020E1F9781BEAF290E74002131490BC
:20083E00E6A07401F022ED605990E6B9E0FCBC125190E6BEE0FBA3E0FCBB0146BC004378B6
:20085E0007E4F290E6A0E020E1F91212B1E58260067B027C0080047B007C007806E2FAEB52
:20087E00420290E740EAF090E6B57401F090E68AE4F090E68B04F090E6A003F07582010229
:20089E00049FEE700302099490E6B9E0FCBC1102800302099490E6BCE0FBA3E0FC4B60273D
:2008BE00C007780CE2FA08E2FF74012AF50AE43FF50B8B028C07EAB50A06EFB50B02800544
:2008DE00D007020994D0078B078C0690E6BEE0FAA3E0FD7807E4F2EF4E7028789FE4F2786C
:2008FE00A07410F2E408F2903FD575F000C007C006C005C002122ABF1211A5D002D005D08F
:20091E0006D007EA4D60678A038D04C3EB9440EC940040047B407C0090E6B57401F090E63D
:20093E008AE4F090E68BF090E6A07480F090E6A0E020E1F97818EBF290E740C007C006C0EF
:20095E0005C003C00212121DD002D003D005D006D0078B0A750B008A088D09AB0AAC0BE5F9
:20097E0008C39BFBE5099CFC8B028C058095780CEFF2EE08F222ED7006EE7003020A409030
:20099E00E6B9E0FCBC18028003020A4090E6BEE0FBA3E0FCBB1005BC00028003020A40EF3F
:2009BE00235401FC7807E4F2EC603690E6A0E020E1F9788174D5F2743F08F278837410F28C
:2009DE00E408F290E74012280590E6B57401F090E68AE4F090E68B7410F090E6A07480F052
:2009FE0022121271E582603390E6B57401F090E68AE4F090E68BF090E6A07480F090E6A0C3
:200A1E00E020E1F978817440F274E708F278837410F2E408F2903FD502280590E6A074013D
:200A3E00F022ED7006EE7003020AE990E6B9E0FCBC14028003020AE990E6BEE0FBA3E0FCEA
:200A5E00BB0205BC00028003020AE9EF235401FC90E6BCE0FB7807E4F2EC603890E6A0E041
:200A7E0020E1F978217440F274E708F28B821214CEE582700790E6A07401F02290E6B574AF
:200A9E0001F090E68AE4F090E68B7402F090E6A07480F02290E6B57401F090E68AE4F090FC
:200ABE00E68B7402F090E6A07480F090E6A0E020E1F9781D7440F274E708F28B821213A5F0
:200ADE00E582700675820102049522ED607290E6B9E0FCBC156A90E6BEE0FBA3E0FCBB0216
:200AFE005FBC005C90E6BCE0FC7807E4F290E6A0E020E1F9903FC0E0FBBB32127846744033
:200B1E00F274E708F28C82121CA5AB828010782A7440F274E708F28C82121741AB82EB7035
:200B3E000790E6A07401F02290E6B57401F090E68AE4F090E68B7402F090E6A07480F0220C
:200B5E00ED7006EE7003020C6D90E6B9E0FCBC16028003020C6D90E6BEE0FBA3E0FCBB040E
:200B7E0005BC00028003020C6DEF235401FC90E6BCE0FB7807E4F2EC606B90E6A0E020E123
:200B9E00F9903FC0E0FCBC321E78537440F274E708F2785574022440F2E434E708F28B8262
:200BBE00121EB4AC82801C78387440F274E708F2783A74022440F2E434E708F28B8212190F
:200BDE004CAC82EC700790E6A07401F02290E6B57401F090E68AE4F090E68B7404F090E63A
:200BFE00A07480F02290E6B57401F090E68AE4F090E68B7404F090E6A07480F090E6A0E074
:200C1E0020E1F9903FC0E0FCBC321E784A7440F274E708F2784C74022440F2E434E708F2FF
:200C3E008B82121D18AC82801C782E7440F274E708F2783074022440F2E434E708F28B825D
:200C5E001217B1AC82EC700675820102049522ED606D90E6B9E0FCBC176590E6BEE0FBA3A8
:200C7E00E0FCBB015ABC00577807E4F2750A0190E6A0E020E1F9903FC0E0FCBC320D785A54
:200C9E007401F290E740122031800E783F7401F290E740121A6185820AE50A700790E6A038
:200CBE007401F02290E6B57401F090E68AE4F090E68B04F090E6A003F075820402049FEE9F
:200CDE00602F90E6B9E0FCBC192790E6BEE0FBA3E0FC4B701C90E6BAE0FBA3E04B24FFE41B
:200CFE0033F5827807E4F212135490E6A07480F022ED7006EE7003020DF290E6B9E0FCBCB6
:200D1E001A028003020DF290E6BEE0FBA3E0FCBB0205BC00028003020DF2EF235401FC9090
:200D3E00E6BCE0FB7807E4F2EC603890E6A0E020E1F978277440F274E708F28B821216710F
:200D5E00E582700790E6A07401F02290E6B57401F090E68AE4F090E68B7402F090E6A074A5
:200D7E0080F02290E6B57401F090E68AE4F090E68B7402F090E6A07480F090E6A0E020E107
:200D9E00F978257440F274E708F28B8212158CE5827006758201020495789174E5F2743F6D
:200DBE0008F2E408F2788F7431F2E408F278947404F2E408F2789604F278977408F27898DC
:200DDE0074FFF27582511228D3E582700675820102049522ED7006EE7003020EC090E6B9E6
:200DFE00E0FEBE1B028003020EC090E6BEE0FCA3E0FEBC0205BE00028003020EC0EF2354FC
:200E1E0001FF90E6BCE0FE7807E4F2EF604E90E6A0E020E1F9903FC0E0FFBF3000401E788F
:200E3E00677440F274E708F2786974012440F2E434E708F28E821222DDE582700790E6A078
:200E5E007401F02290E6B57401F090E68AE4F090E68B7402F090E6A07480F02290E6B57467
:200E7E0001F090E68AE4F090E68B7402F090E6A07480F090E6A0E020E1F9903FC0E0FFBF11
:200E9E003000401790E7407865E0F290E7417866E0F28E821222A0E5827006758201020420
:200EBE009522ED603B90E6B9E0FFBF0F3390E6BEE0FEA3E0FFBE0128BF00257807E4F29082
:200EDE00E6A0E020E1F990E7407401F090E6B5F090E68AE4F090E68B04F090E6A003F02269
:200EFE00ED605290E6B9E0FFBFC04A90E6BCE0FF7807E4F2BF043778817480F2743608F27B
:200F1E009036807883E493F2A3E49308F290E0001228057E007FE090E6B57401F090E6B3B0
:200F3E00EFF090E6B4EEF090E6A07480F02290E6A07401F02290E6A07401F022C2A832902A
:200F5E003EC7E4F0A3F0758204120495903FC0E0FFBF3208903EC6121FAF800A783FE4F26F
:200F7E00903EC6121A61903EC6E0FF781D74C7F2743E08F28F821213A5903FC0E0FFBF3217
:200F9E0009903EC6E0F58212209CD2A82253B0EFC2CAC2CF32C0E0C082C08343B010D2CAD0
:200FBE005391EF90E65F74F3F0D083D082D0E032020FB3020FB3020FB3020FB3020FB302B7
:200FDE000FB390E6007412F090E67A7401F012020E12029E120398121345903FC0E0FFBFD8
:200FFE00320F121BCEE582700B75820112049580031216C812119F12232F12328F90E6111F
:20101E00E4F012328F90E610E4F043B53443B00453B0CF75C801D2AD90E65EE043E0F3F045
:20103E00D2A8903FD1E0FCA3E0FDA3E0FEA3E0FFEC4D4E4F7003021176903FD17812E0F24B
:20105E00A3E008F2A3E008F2A3E008F27D527816E4F208F243B010C0051211A5D0057812DF
:20107E00E2F5F008E242F008E242F008E245F070030211537C807812C3E2948008E294009E
:20109E0008E2940008E2940050047812E2FC78877400F274E008F2E408F2788AECF2E4081D
:2010BE00F278167985E2F308E209F3788C7401F28D82122836E582700875820112049580ED
:2010DE00747818ECF290E000C005C00412121DD004D0058C027B007E007F007812E2C39A5E
:2010FE00F208E29BF208E29EF208E29FF28C037F007816E2FA08E2FEEB2AFAEF3EFE78164C
:20111E00EAF2EE08F27816E2F5F008E245F0600302107C8D03EB04FDBD5402800302107CE8
:20113E007D517816E2FA08E22470FB7816EAF2EB08F202107C7812E2F5F008E242F008E2AC
:20115E0042F008E245F0700D121271E582700675820112049553B0EF758201122B1A7807CE
:0E117E00E2600312059820A8F5120F5D80F0C4
:2035BD001201000200000040B720B19D0001010203020A0600020000000800000904000044
:2035DD0000FFFFFF060904000102FFFFFF070904000102FFFFFF080904010000FFFFFF0691
:2035FD000904010102FFFFFF070705020200020007050402000200070586020002000705D1
:20361D0088020002000902000002010480FAD935E23506361436F435FD350D361B360000DB
:20363D000902000001020580FAD935EB3506361436000022363D36B936CD36E036F43630FF
:20365D0037503759376E37BD35CF3502503608543612034D0053004600540031003000306A
:20367D0000C00028000000000104000100000000000000000157494E555342000000000066
:20369D000000000000000000000000393939393939393939393939393939390077686974C1
:2036BD0065717561726B20726573656172636800476C6173676F7720446562756720546F39
:2036DD006F6C0058582D5858585858585858585858585858585800506970652050206174A2
:2036FD00207B327835313242204550324F55542F455036494E7D2C2051206174207B3278CA
:20371D0035313242204550344F55542F455038494E7D00506970652050206174207B347887
:20373D0035313242204550324F55542F455036494E7D0044697361626C656400446F756203
:20375D006C652D6275666665726564203531324200517561642D62756666657265642035C1
:04377D0031324200A3
:20118C00E58030E30743B0087582012253B0F77582002243B50802118C12328F90E601E0D3
:2011AC0053E0FCF0903FC0E0FFBF10028014BF2002800FBF30028012BF3102800DBF3210BE
:2011CC00800843B50253B0FD800643B2025380FD90000112355F53B2F743B31C43901053B9
:2011EC0090F7903FC0E0FFBF10028014BF2002800FBF3002800FBF3102800ABF320A80059D
:20120C0043B00280034380029004B012355F02118C75AF0385829B85839A90E67B7818E22E
:20122C00F8E0A2E7C2949292D294A2E6C2949292D294A2E5C2949292D294A2E4C294929292
:20124C00D294A2E3C2949292D294A2E2C2949292D294A2E1C2949292D294A2E0C2949292F4
:20126C00D294D8BD227431C29400D294D5E0F853B3E3903FC0E0FFBF10028014BF2002801A
:20128C000FBF30028014BF3102800FBF3214800A90E601E043E023F0800890E601E043E00F
:2012AC0063F002118C02118CE5827819F27582101225F1E582601978757401F2E408F290D6
:2012CC003E1975F060122625E58260047582012212260975820022AE82AF837582111225A9
:2012EC00F1E582601C7D00781A797AE2F3E409F38E828F838DF01226ACE582600475820111
:20130C002212260975820022AE82AF837D00781B7975E2F3E409F38E828F838DF012262534
:19132C00E582600E122609E5827003F582227582012212260975820022AB
:2013450074BE55B04480F5B043B5C153B07F22E582600453B07F2243B08022AF827E008F49
:2013650005BD0102800ABF02028009BD031180087E0C800B7E0D8007781CE270027E48EEB1
:201385007003F58222EE2EFE781CE24EF5821225F1E582700712260975820022758201226D
:2013A500AF827E00781DE2F58208E2F583E0FCA3E0FDEF30E0027E01EF30E103430640EFD2
:2013C50030E013903FE5E0FAA3E0FBC3EA9CEB9D500475820022EF30E113903FE7E0FAA355
:2013E500E0FBC3EA9CEB9D500475820022EC4D700FEEF4FB52B0781FE4F27820F2021481AA
:201405008C028D03C3EA9472EB94064008747C9A74159B500475820022C006EA248EFAEBC7
:2014250034F9FB78B5EAF2E2F5F0EBC4C5F0C4540F65F0C5F0540FC5F065F0F2C5F008F20C
:2014450090010DC007C006C005C0041232B4AA82AB83D004D005D006D007EBC4CAC4540F8B
:201465006ACA540FCA6ACAFB74E0C39AFA740F9BFBFE781FEEF27820EAF2D006781CE4F2EA
:201485008F82C006C005C004121360E582D004D005D0067003F5822278757402F2E408F23D
:2014A500903E1F75F060122625E582700712260975820022122609E5827003F58222EC4DF3
:2014C5006003EE42B075820122AF82BF01028005BF020A80047E0180087E408004758200A3
:2014E50022EE55B070117821E2F58208E2F583E4F0A3F075820122781C7401F28F8212134B
:2015050060E5827003F58222787A7402F2E408F2903E2375F0601226ACE5827003F58222AE
:201525007823E2FE7F007824E27C004207EC42067821E2FC08E2FDEEC4CFC4540F6FCF549D
:201545000FCF6FCFFE74FFC39FFFE49EFE78B5EFF2EE08F2900098C005C0041232B478728F
:20156500740AF2E408F2122568E5828583F0D004D0052472FE740635F0FF8C828D83EEF043
:20158500EFA3F075820122AF827825E2FD08E2FE8D828E83E0FBA3E0FC4B601D8B0C8C0DA3
:2015A500C3E50C9472E50D9406400A747C950C7415950D500475820022750C81750D37852D
:2015C5000C82850D83E493FA700302166DEA5F700302165F782174C9F2743E08F28A82C087
:2015E50007C006C005C004C0031214CEE582D003D004D005D006D0077003F58222C00790E6
:201605003EC9E0FAA3E0FFC3EB9AEC9FD0075030850C82850D83E493FA781DEDF2EE08F243
:201625008A82C007C006C005C004C0031213A5E582D003D004D005D006D0077003F582225A
:20164500850C82850D83A3E49325E0FA24E5F582E4343FF583EBF0ECA3F07402250CF50CF3
:20166500E4350DF50D0215C475820122AF827E817D378E038D048B828C83E493FA6040EF26
:20168500B5022F7827E2F52E08E2F52F8E828D83A3E49325E024E5F582E4343FF583E0FD42
:2016A500A3E0FE852E82852F83EDF0EEA3F07582012274022BFBE43CFC8B068C0580B7753A
:0316C5008200227E
:063781000100020100003E
:2016C80090E670E043E001F05388FE22A982E3FE7F0009E37C004207EC4206EEC4CFC45424
:2016E8000F6FCF540FCF6FCFFE78B5EFF2EE08F29001031232B47872740AF2E408F2022546
:2017080068AE82AF8378B5EEF2EF08F290000A1232B478727403F2740108F2122568AE82DE
:20172800E583C454F0CEC4CE6ECE54F0CE6EFF7829E2F9EFF309EEF322AF827D877E378D35
:20174800038E048B828C83E493FA6059EFB502488D828E83A3E493FA786D742CF2786CE445
:20176800F2786E7402F28A821224B5E5827003F58222782AE2F50E08E2F50F75822C1216F7
:20178800D4858210858311850E82850F83E510F0E511A3F07582012274022BFBE43CFC8B46
:2017A800058C06809E75820022AF827832E4F27833F27834740FF27835F4F278367403F23A
:2017C8007837E4F2782EE2F58208E2F583E0FDA3E0FE8D038E04C3747C9B74159C4023C005
:2017E800077830E2FB08E2FC8B828C83E0FAA3E0FF8A128F13C3747C951274159513D00757
:20180800500475820022ED4E700C747CB512077415B51302803778297432F28D828E83C0BB
:2018280007C004C003121709D003D0048B828C83E0FBA3E0FC78297434F28B828C83121743
:2018480009D00778377414F2783774D4F27D877E378D828E83E493FC7003021948EC5F70B1
:201868000302193E74012DFBE43EFC8B828C83E493FA78707432F2786F7403F2787114F2FD
:201888008A82C007C006C005C004C00312250DE582D003D004D005D006D0077003F582227B
:2018A8008B828C83E493FA78707434F2786F7404F2787103F28A82C007C006C005C004C000
:2018C8000312250DE582D003D004D005D006D0077003F582228B828C83E493FA78707436FE
:2018E800F2786F7401F27871F28A82C007C006C005C004C00312250DE582D003D004D005B9
:20190800D006D0077003F582228B828C83E493FB78707437F2786F7402F2787114F28B82A8
:20192800C007C006C00512250DE582D005D006D0077003F5822274022DFDE43EFE021859E1
:2019480075820122AF827D877E378D038E048B828C83E493FA7003021A51EFB502028003C1
:20196800021A4374012DF514E43EF515851482851583E493FD786D743EF2786C7402F27830
:201988006E14F28D821224B5E5827003F58222783EE270217838E2F58208E2F583E4F0A353
:2019A800F0783AE2F58208E2F583747CF07415A3F075820122851482851583E493FD786D1B
:2019C800743CF2786C7403F2786E14F28D821224B5E5827003F582227838E2F51608E2F53B
:2019E8001775823C1216D4AA82AE83851682851783EAF0EEA3F0851482851583E493FE7880
:201A08006D743CF2786C7404F2786E03F28E821224B5E5827003F58222783AE2F51608E28F
:201A2800F51775823C1216D4AA82AE83851682851783EAF0EEA3F07582012274022BFBE4D5
:201A48003CFC8B058C0602195675820022E5805401B40100E433F58222AF83E5827840F238
:201A6800EF08F27840E2F58208E2F583E4F07C877D378C828D83E4937003021B8674012C2B
:201A8800FAE43DFB8A828B83E493FF786D7442F2786C7401F2786EF28F82C005C004C0038B
:201AA800C0021224B5E582D002D003D004D0057003F582227842E27003021B7C7843E4F277
:201AC8007840E2F58208E2F583E0FF8C828D83E49342077840E2F58208E2F583EFF08A8270
:201AE8008B83E493FF786D7443F2786C7402F2786E14F28F82C005C004C003C0021224B58A
:201B0800E582D002D003D004D0057003F58222783FE260308A828B83E493FA786D7442F2BB
:201B2800786C7401F2786EF28A82C005C0041224B5E582D004D0057003F582227843E244FD
:201B480004F280067843E254FBF28C828D83A3E493FF78707443F2786F7402F2787114F21D
:201B68008F82C005C00412250DE582D004D0057003F5822274022CFCE43DFD021A7A75821A
:021B8800012238
:0637870001540255000090
:201B8A00AF8278707444F2786F7412F27871E4F28F82C00712250DE582D0077003F58222F4
:201BAA00784474FFF278707444F2786F74D2F278717401F28F8212250DE5827003F5822231
:201BCA00758201227E8D7F378E828F83E49360378E828F83A3E493FCA3E493FD8C828D8383
:201BEA00E4F08E828F83A3A3A393F582C007C006121B8AE582D006D0077003F58222740416
:201C0A002EFEE43FFF80C175820122E582F904F8E2FF7E007D008D258E248F238E22E3FA36
:201C2A00E4FBFEFFE5224202E5234203E5244206E525420778B7EAF2EB08F2EE08F2EF08B3
:201C4A00F2900005E4F5F01232D6AC82AD83AEF0C313FFEE13FEED13FDEC13FCEFC313EE95
:201C6A0013ED13FDEC13F5828D8322AE82AF83EE2EF582EF33F583E5822582F582E58333F3
:201C8A00F58378727405F2E408F2122568AE82AF837845E2F9EEF309EFF322AF827D8D7E4F
:201CAA00378D038E048B828C83E493FA605CEFB5024B8D828E83A3A3A3E493FA786D74486C
:201CCA00F2786C7488F2786E7402F28A821224B5E5827003F582227846E2F52608E2F527BD
:201CEA00758248121C15858228858329852682852783E528F0E529A3F07582012274042B41
:201D0A00FBE43CFC8B058C06809B75820022AF82784EE4F2784FF2785074F8F27851747FE4
:201D2A00F2785274FFF2784AE2F58208E2F583E0FDA3E0FE8D038E04C3747C9B74159C40C8
:201D4A001DC007784CE2FB08E2FC8B828C83E0FAA3E0FFC3747C9A74159FD00750047582FF
:201D6A000022ED4E601E7845744EF28D828E83C007C004C003121C75D003D004D0077852B4
:201D8A00E254FEF28B828C83E0FDA3E0FE8D038E04BB7C05BC1502801678457450F28D8250
:201DAA008E83C007121C75D0077852E254FDF27D8D7E378D828E83E493FC7003021EB0EC57
:201DCA005F7003021EA674032DFBE43EFC8B828C83E493FA7870744EF2786F7458F27871ED
:201DEA007402F28A82C007C006C005C004C00312250DE582D003D004D005D006D007700345
:201E0A00F582228B828C83E493FA78707450F2786F7457F278717402F28A82C007C006C0A6
:201E2A0005C004C00312250DE582D003D004D005D006D0077003F582228B828C83E493FA9F
:201E4A0078707452F2786F74D2F278717401F28A82C007C006C005C004C00312250DE582D9
:201E6A00D003D004D005D006D0077003F582228B828C83E493FB78707452F2786F7403F2A5
:201E8A007871E4F28B82C007C006C00512250DE582D005D006D0077003F5822274042DFD3F
:201EAA00E43EFE021DBD75820122AF827D8D7E378D038E048B828C83E493FA7003021FAB24
:201ECA00EFB502028003021F9D74032DF52AE43EF52B852A82852B83E493FD786D7457F290
:201EEA00786C7458F2786E7402F28D821224B5E5827003F582227857E270147858E2700F15
:201F0A007853E2F58208E2F583E4F0A3F0801E7853E2F52C08E2F52D758257121C15AA8295
:201F2A00AE83852C82852D83EAF0EEA3F0852A82852B83E493FE786C7457F2786D7457F287
:201F4A00786E7402F28E821224B5E5827003F582227857E2FEBEF8197858E2FEBE7F1278C6
:201F6A0055E2F58208E2F583747CF07415A3F0801E7855E2F52C08E2F52D758257121C1540
:201F8A00AA82AE83852C82852D83EAF0EEA3F07582012274042BFBE43CFC8B058C06021E01
:201FAA00BE75820022AE82AF83E4F07C8D7D378C828D83E493606C8C828D83A3A3A3E4936E
:201FCA00FB786D7459F2786C7480F2786E23F28B82C007C006C005C0041224B5E582D0044A
:201FEA00D005D006D0077003F582227859E2540F60288E828F83E0FB8C828D83E4934203D4
:20200A008E828F83EBF08C828D83A3E493FAA3E493FB8A828B837859E2F074042CFCE43DF4
:20202A00FD808C75820122AE82AF83E4F07C8D7D378C828D83E493FB6057C00374012CF5E0
:20204A002EE43DF52F852E82852F83E493FAA3E493FB8A828B83E0FA540F7004D0038028CB
:20206A00D0038E828F83E0FA42038E828F83EBF0785AE26013852E82852F83E493FAA3E4BA
:20208A0093FB8A828B83E4F074042CFCE43DFD80A022AF827D8D7E378D828E83E493FC70C7
:2020AA00030221BCEC5F70030221B274032DFBE43EFC8B828C83E493FA786D745BF2786CCD
:2020CA007458F2786E7402F28A82C007C006C005C004C0031224B5E582D003D004D005D067
:2020EA0006D0077003F582228B828C83E493FA786D745DF2786C7457F2786E7402F28A82BD
:20210A00C007C006C005C004C0031224B5E582D003D004D005D006D0077003F582228B8248
:20212A008C83E493F582C007C006C005C004C003121B8AE582D003D004D005D006D0077008
:20214A0003F582228B828C83E493FA7870745BF2786F7458F278717402F28A82C007C00614
:20216A00C005C004C00312250DE582D003D004D005D006D0077003F582228B828C83E49396
:20218A00FB7870745DF2786F7457F278717402F28B82C007C006C00512250DE582D005D0EB
:1621AA0006D0077003F5822274042DFDE43EFE0220A27582012296
:0C378D0001CB3E4002CC3E410000000099
:2021C000AF827E008F05BD01028005BF020880047E2080027E21EE7003F58222EE2EFE78DF
:2021E0005FE24EF5821225F1E5827003F5822275820122AF82785FE4F28F821221C0E582DB
:20220000603878757401F2E408F2903E6075F060122625E582602378757401F2E408F290F8
:202220003E6175F060122625E582600E122609E5827003F582227582012212260975820002
:2022400022AF82785FE4F28F82C0071221C0E582D007604578757401F2E408F2903E6275F9
:20226000F060122625E5826030785F7401F28F821221C0E58260227863E2FD08E2FE7F006E
:20228000787A7401F2E408F28D828E838FF01226ACE5826004758201221226097582002245
:2022A000AF8278607401F278667961E2F38F82C0071221F3E582D0077003F582227865E21A
:2022C000F4F278607403F278657961E2F38F821221F3E5827003F5822275820122AF8278DE
:2022E000627401F278697963E2F308E209F38F82C007122241E582D0077003F5822278622C
:202300007403F278677963E2F308E209F38F82122241E5827003F582227867E2FE08E2FF3D
:0F2320008E828F83E0F48E828F83F0758201228C
:20232F0012328F90E60B7403F012328F90E6017480F012328F90E6047480F012328F90E62B
:20234F0009E4F012328F90E6027498F012328F90E60374FEF012328F90E670E043E080F070
:20236F0012328F90E618E053E0FEF012328F90E619E053E0FEF012328F90E61AE053E0FE15
:20238F00F012328F90E61BE053E0FEF022E582FF60067E007D0080047E027D8012328F908C
:2023AF00E6047480F012328F90E61274A04EF012328F90E61374204DF012328F90E6147495
:2023CF00E04EF012328F90E61574604DF0EF60067D017E0080047D037E00786BEDF28F82BB
:2023EF001223FB12328F90E604E4F022AF82786BE25401605F12328F90E618E4F012328F49
:20240F0090E604E043E002F012328F90E6497482F012328F90E6497482F0EF601212328F1A
:20242F0090E6497482F012328F90E6497482F012328F90E6187410F012328F90E61AE4F064
:20244F0012328F90E604E043E006F012328F90E61A7404F0786BE25402604A12328F90E64E
:20246F0019E4F012328F90E604E043E004F012328F90E6497484F012328F90E6497484F028
:20248F0012328F90E6197410F012328F90E61BE4F012328F90E604E043E008F012328F9074
:0624AF00E61B7404F0229C
:2024B500E5822582FFF5821225F1E582604378757401F2E408F2903E6C75F060122625E5DE
:2024D50082602E74014FF5821225F1E5826022786DE2FD7E007F60786E797AE2F3E409F3DC
:2024F5008D828E838FF01226ACE58260047582012212260975820022E582FF25E0F5821211
:2025150025F1E582604678757401F2E408F2903E6F75F060122625E58260317871E2601EB1
:202535007870E2FD7E007F6078717975E2F3E409F38D828E838FF0122625E582600E1226CD
:1325550009E5827003F58222758201221226097582002283
:20256800AE82AF837C007D007B10EF235401FAEE2EFEEF33FFEC2CFCED33FDEA600343040C
:20258800017872C3E2F5F0EC95F008E2F5F0ED95F040117872D3E29CF4B3FCB308E29DF4AF
:0B25A800FD430601DBC48E828F8322FE
:2025B300C007C000AF8290E678E020E00E7874E260F47874E4F2758200801E90E678E030FD
:2025D300E2057582008012EF600C90E678E0FF035401F5828003758201D000D00722C00776
:2025F300AF8290E6787480F090E679EFF07582011225B3D0072290E678E030E20475820041
:202613002290E6787440F090E678E020E6F975820122C007C006C004C003C002C000AFF0D7
:20263300AE83E5827877F2EE08F2EF08F27875E2F5F008E245F07005758201804F7B007C37
:20265300007875E2B5030708E2B50402802B7877E22BFA08E23CFE08E2FF8A828E838FF0EA
:20267300123594FA90E679F07582011225B3E58260070BBB00CB0C80C87875E2B503080867
:20269300E2B50403D38001C3E433F582D000D002D003D004D006D00722C007C006C005C0BA
:2026B30004C003C002C001C000AFF0AE83E582787CF2EE08F2EF08F2787AE2F5F008E24527
:2026D300F070067582010227F4787AE2FB08E2FCBB0109BC000690E6787420F090E679E0EF
:2026F3007B007C00787FE4F208F2787F797AE2F5F0E3B5F00C08E2F5F009E3B5F003022738
:20271300CE7582001225B3E58270030227E1787FE2FD08E2FE74022DFDE43EFE787AE2B50C
:20273300050708E2B506028002800690E6787420F0787FE2FD08E2FE0DBD00010E787AE2EE
:20275300B5050708E2B506028002803575AF03759AE6759B7890E67B7440F0E0ACE0787C2E
:20277300797FE3C5F0E225F0FD09E3C5F008E235F0FE08E2FF8D828E838FF0EC1232988044
:2027930025787C797FE3C5F0E225F0FD09E3C5F008E235F0FE08E2FF90E679E0FA8D828E8C
:2027B300838FF0123298787FE22401F208E23400F2787FE2FB08E2FC0226FD90E678E0304B
:2027D300E205758200801A90E678E020E6F9787AE2B5030808E2B50403D38001C3E433F544
:1227F30082D000D001D002D003D004D005D006D0072294
:20280500AA82AB837881E2FC08E2FD7883E2FE08E2FFEE60010FEF601775AF078A9B8B9A9E
:112825008C9E8D9D90E67CE090E67BF0DEF6DFF422D2
:20283600C007C006C005C001C000AF82788CE260127886E2FE788DEEF27885E2FE788EEE92
:20285600F280087885E2FE788DEEF2EF2FFFF5821225F1E5826055788CE2FDE23395E0FEE3
:202876000DBD00010E7875EDF2EE08F2903E8D75F060122625E582603374014FF5821225CC
:20289600F1E5826027788A797AE2F308E209F37887E2F58208E2F58308E2F5F01226ACE541
:2028B600827004F582800B7582018006122609758200D000D001D005D006D00722C007C088
:2028D60006C005C004C003C002C001C000AF827899E4F208F2EF2FFFF5821225F1E58270A8
:2028F60003022A8E7897E2FC8CF005F07B017C008006EB2BFBEC33FCD5F0F778997994C360
:20291600E3F5F0E295F009E3F5F008E295F04003022A8E7896E260127890E2FA789BEAF200
:20293600788FE2FA789CEAF28008788FE2FA789BEAF2C003C0047896E2FAE23395E0FC0A53
:20295600BA00010C7875EAF2EC08F2903E9B75F060122625E582D004D0037003022A8EC065
:2029760007788FE2F58208E2F5838B028C0778C3EAF2EF08F2C007C004C003C002C001C0C7
:2029960000123424AD82AE83D000D001D002D003D004D007EAC39DFAEF9EFF789DEAF2EFB6
:2029B60008F278947999E3F5F0C3E295F0FE09E3F5F008E295F0FF789DC3E2F5F0EE95F0A8
:2029D60008E2F5F0EF95F0D007502078947999E3F5F0C3E295F0C0E009E3F5F008E295F067
:2029F600C0E0789ED0E0F218D0E0F278917999E3C5F0E225F0FA09E3C5F008E235F0FD0856
:202A1600E2FE789D7975E2F308E209F38A828D838EF0122625E582605F122609E5827004C9
:202A3600F58280737E007898E2600B7898C3E2F5F0EE95F0500C8F821225F1E58270030EB1
:202A560080E47898E2B50605758200804A788F799DE3C5F0E225F0F209E3C5F008E235F03B
:202A7600F27899799DE3C5F0E225F0F209E3C5F008E235F0F202291112260978997994E287
:202A9600F5F0E3B5F00C08E2F5F009E3B5F003D38001C3E433F582D000D001D002D003D089
:082AB60004D005D006D0072270
:06009800E478FFF6D8FD3C
:012ABE0032E5
:202ABF00AFF0AE83E58278A2F2EE08F2EF08F278A0E2F52E08E2F52F78A0E2F5F008E245AA
:202ADF00F0602A78A2E2FA08E2FB08E2FC789FE2FFAD2EAE2F8A828B838CF0EF123298A3E8
:1B2AFF00AA82AB831DBDFF011EED4E70E878A2E2F58208E2F58308E2F5F02211
:202B1A00AF8278A6E4F278A7F2D2E890E668E043E008F090E65CE043E001F090E65D7401C4
:202B3A00F0D2AF90E680E020E10890E680E043E002F0EF600E90E680E043E008F090000A58
:202B5A0012356990E680E053E0F7F022AF82BF00028037BF01028036BF02028039BF040237
:202B7A008038BF06028037BF08028036BF80028019BF8102801CBF8202801BBF8402801A11
:202B9A00BF86028019BF881E801890E6A02290E6A12290E6A22290E6A32290E6A42290E6A6
:202BBA00A52290E6A62290000022C021C0E0C0F0C082C083C007C006C005C004C003C002F3
:202BDA00C001C000C0D075D000C08675860090E6B8E0FFE4BF800104FE601B90E6B9E0FD8A
:202BFA00BD061390E6BAE0FCA3E0F5827800ECF21201BE022E42EF702790E6B9E0FDBD09EE
:202C1A001F90E6BAE0F5821204CCE582600990E6A07480F0022E4290E6A07401F0022E42E9
:202C3A00EE600E90E6B9E0FDBD08061234BF022E428F05BD012F90E6B9E0FDBD0B2790E6DE
:202C5A00BCE0FD90E6BA780AE0F28D82120515E582600990E6A07480F0022E4290E6A0743C
:202C7A0001F0022E42E4BF810104FD601490E6B9E0FCBC0A0C90E6BCE0F582120578022E18
:202C9A0042EF703790E6B9E0FCBC032F90E6BAE0FBA3E0FCBB0110BC000D78A67401F29015
:202CBA00E6A003F0022E42BB0205BC00028003022E4290E6A07480F0022E42EE603590E635
:202CDA00B9E0702F78A5E2FE78A6E225E0FC420690E740EEF090E741E4F090E6B504F0908C
:202CFA00E68AE4F090E68B7402F090E6A07480F0022E42ED602890E6B9E0702290E740E4F2
:202D1A00F090E741F090E6B504F090E68AE4F090E68B7402F090E6A07480F0022E42BF027A
:202D3A00028003022DE790E6B9E0FEBE03028008BE01028003022DE790E6BAE0FDA3E0FE9E
:202D5A004D6003022E4290E6BCE0F582122B66AD82AE83ED4E7003022E4290E6B9E0FCBCC4
:202D7A0003188D828E83E0FC4304018D828E83ECF090E6A07480F0022E4290E6BCE0F582E9
:202D9A00C006C0051234ADE582D005D0067003022E428D828E83E0FC5304FE8D828E83EC47
:202DBA00F090E6BCE0FDA3E08D0453040F530580E4C423CDC423541F6DCD541FCD6DCDFE04
:202DDA0090E683ED4CF0E043E020F0805BBF825290E6B9E0704C90E6BCE0F582122B66AE91
:202DFA0082AF838E048F05EE4F603D8C828D83E0FC5304017F00EC4FB40100B39200E433E8
:202E1A00FF90E740F090E741E4F090E6B504F090E68AE4F090E68B7402F090E6A07480F012
:202E3A00800690E6B81204BA5391EF90E65D7401F0D086D0D0D000D001D002D003D004D009
:202E5A0005D006D007D083D082D0F0D0E0D02132AE82AF8378A8E2B4012C78A9E270278E01
:202E7A00828F83E493FCA3E493FD7881ECF2ED08F28C828D83E4937883F2E408F290E0008C
:202E9A001228050230F378A8E2B4063C78A9E270378E828F83A3A3E493FCA3E493FD4C7064
:202EBA000790E6A07401F0228C028D037881EAF2EB08F28C828D83E4937883F2E408F2908C
:202EDA00E0001228050230F378A8E2B4020280030230118E828F83A3A3A3A3E493FD78A9D1
:202EFA00C3E29D40030230118E828F83A3A3A3A3A3E493FCA3E493FD78A9E275F002A42CDB
:202F1A00F582ED35F0F583E493FCA3E493FD74092CFAE43DFB78AAEAF2EB08F2748008F27C
:202F3A008C028D037881EAF2EB08F28C828D83E4937883F2E408F290E000C005C00412280C
:202F5A0005D004D0058C828D83E4932400FCE434E0FD78AAE2F51808E2F51908E2F51A8C71
:202F7A001B8D1C851882851983851AF0123594FAA3123594FB7881EAF2EB08F28A828B8382
:202F9A00E4937883F2E408F2851B82851C83C005C004122805D004D0058518828519838559
:202FBA001AF0123594FAA3123594FB8A828B83E4932CFCE43DFD74022518F518E43519F5E1
:202FDA0019851882851983851AF0123594FAA31235944A708A90E002E0FAA3E0FB4A6003E1
:202FFA000230F3ECC39400FCED94E0FD90E002ECF0EDA3F00230F378A8E2B4030474018050
:20301A0001E4FD602278A9E2701D78817499F2743708F2903799E4937883F2E408F290E0F3
:20303A00001228050230F3ED70030230EC78A9E2FC7D0024FFFAED34FFFB74072EF582E4DC
:20305A003FF583C006C007E493FF7E00C3EA9FEB64808EF063F08095F0D007D00650737449
:20307A00082EF582E43FF583E493FEA3E493FF1CBCFF011DEC2CFCED33FDEC2EF582ED3F7D
:20309A00F583E493FEA3E493FF90E0007402F090E00104F074012401FCE434E0FD8E828FAB
:2030BA0083E493FB60330EBE00010F8C828D83EBF074012CFAE43DFB8A828B83E4F0042AC6
:2030DA00FCE43BFD90E000E0FB0B0B90E000EBF080CB90E6A07401F0227E007FE090E6B522
:2030FA007401F090E6B3EFF090E6B4EEF090E6A07480F022AE82AF83A3A3A3A3A3E493FC21
:20311A00A3E493FD74042EFEE43FFF78AFE4F28E828F83E493FA78AFC3E29A400122C00699
:20313A00C00778AFE275F002A42CF582ED35F0F583E493FBA3E493FA74092BFEE43AFF78AC
:20315A00B0EEF2EF08F2748008F2752E008B828A83A3A3A3A3A3E493FF78A7E2B50702804D
:20317A0007D007D006023283D007D00678B0E2F52F08E2F53008E2F531C004C005852F8211
:20319A008530838531F0123594FAA3123594FD8A828D83A3E493F5327404B532028006D0D3
:2031BA0005D004804FD005D004852F828530838531F0123594F533A3123594F534853382AC
:2031DA00853483A3A3E493FA78ADE2B50214853382853483A3A3A3E493FA78AEE2B502027F
:2031FA00800678B3E4F2800578B37401F278B3E2F52E80527405B5324DE52E6049C004C028
:20321A0005852F828530838531F0123594FAA3123594FD8A828D83A3A3E493FD740F5DFC79
:20323A00530580E423CDC423541F6DCD541FCD6DCD30E40244E0FA90E683ED4CF0E043E061
:20325A0020F0D005D0047402252FF52FE43530F530852F828530838531F0123594FAA312A1
:12327A003594FB4A600302319378AFE22401F20231298F
:043799000403090418
:01328C00320F
:200076007900E94400601B7A0090379D78CD75923EE493F2A308B800020592D9F4DAF2756E
:0200960092FFD7
:01328D00320E
:01328E00320D
:03010000022BC40B
:0301040002359130
:030108000234AB13
:03010C0002358D2C
:0301100002359322
:030114000235B7FA
:030118000234A806
:03011C000201B825
:03012000020FCEFD
:03012400020FD1F6
:030128000234BCE2
:03012C000235B6E3
:03013000020FD4E7
:03013400020FD7E0
:03013800020FDAD9
:03013C00020FDDD2
:030140000234B9CD
:030144000201B8FD
:030148000235B0CD
:03014C000235B1C8
:030150000235B2C3
:030154000235B3BE
:030158000235B4B9
:03015C000235B5B4
:03016000023592D3
:030164000201B8DD
:030168000201B8D9
:03016C000201B8D5
:030170000234BB9B
:030174000234BD95
:030178000234DC72
:03017C000234DE6C
:030180000234BE88
:030184000234DD65
:030188000234DF5F
:03018C0002358EAB
:0301900002342313
:030194000234A989
:030198000234AC82
:03019C000234B872
:0301A0000234A77F
:0301A4000234AA78
:0301A8000234B767
:0301AC000234BA60
:0301B0000232D543
:0301B4000235BC55
:0101B8003214
:09328F0000000000000000002214
:1B32980020F71130F6138883A88220F509F6A8837583002280FEF280F5F02235
:0132B30032E8
:2032B400AA83AB828BF0903EB5E0A4F8A9F08AF0E0A429F98BF0A3E0A429F58388822222DC
:0132D40032C7
:0132D50032C6
:2032D600AF82AE83ADF0FC78BBEFF2EE08F2ED08F2EC08F278BBE2FF78B9E28FF0A4FFAD1E
:2032F600F078C1EFF208EDF278BBE2FF78B7E28FF0A4FFADF078BFEFF208EDF278C2E2FFC9
:2033160078BEE2FE78B7E28EF0A42FFF78C2F278BDE2FE78B8E28EF0A42F78C2F278C1E235
:20333600FE08E2FF78BDE2FD78B7E28DF0A4ABF02EFEEB3FFF78C1EEF208EFF278BCE2FD45
:2033560078B8E28DF0A4ABF02EFEEB3FFF78C1EEF208EFF278BCE2FF78B9E28FF0A478BEB1
:20337600F278BCE2FF78B7E28FF0A4FFADF078BCEFF208EDF278BBE2FF78BAE28FF0A478A1
:20339600BAF278BBE2FF78B8E28FF0A4FFADF078B8EFF208EDF278B7E4F278BBF278BFE24B
:2033B600F52E08E2F52F08E2F53008E2F53178BBE2FA08E2FB08E2FE08E2FFEA252EF52E82
:2033D600EB352FF52FEE3530F530EF3531F53178BFE52EF208E52FF208E530F208E531F208
:2033F60078BFE208E208E208E278B7E2FC08E2FD08E2FE08E2FFEC252EFCED352FFDEE356F
:0C34160030FEEF35318C828D838EF02269
:013422003277
:013423003276
:20342400AE82AF837D007C0078C4E2235401FB703578C3E225E0F208E233F278C3C3E2F5FF
:20344400F0EE95F008E2F5F0EF95F0501478C3E2F5F008E2C313C5F01318F2C5F008F2809B
:20346400050C8C0580C278C3C3E2F5F0EE95F008E2F5F0EF95F0400E78C3D3E29EF4B3FE68
:20348400B308E29FF4FF78C3E2F5F008E2C313C5F01318F2C5F008F28D041DEC70C88E82D4
:0334A4008F8322F1
:0134A70032F2
:20009E0078C5E84400600A790075923EE4F309D8FC7808E84400600C7901903EC5E4F0A361
:0400BE00D8FCD9FA97
:0134A80032F1
:0134A90032F0
:0134AA0032EF
:0134AB0032EE
:0134AC0032ED
:0A34AD0090E6A07480F07582012201
:0134B70032E2
:0134B80032E1
:0134B90032E0
:0134BA0032DF
:0134BB0032DE
:0134BC0032DD
:0134BD0032DC
:0134BE0032DB
:1D34BF0090E74078A7E2F090E6B57401F090E68AE4F090E68B04F090E6A003F022C4
:0134DC0032BD
:0134DD0032BC
:0134DE0032BB
:0134DF0032BA
:2034E000E583700BE58224FA400122B4001122E5826003D5E0FD0075E0FED583F674F9D5BB
:20350000E0FD22C007C006C001C000AE82AF83EE2EF8EF33F9EE28FEEF39FF90E600E0F884
:20352000794C20E416C3EF13CE13CEFF795AE820E309C3EF13CE13CEFF7963E58124FAF8A7
:20354000E926C313C313F9C3EE99F582EF9400F583D000D001D006D0075001220234E074B0
:2035600011C0E0123503158122C007C006AE82AF837411C0E0EE4F600D1EBEFF011F90034C
:0D358000E812350380EF1581D006D0072238
:01358D00320B
:01358E00320A
:01358F003209
:013590003208
:013591003207
:013592003206
:013593003205
:0D0069007581341235B8E58260030200662F
:1C35940020F71430F6148883A88220F507E6A88375830022E280F7E49322E02246
:0135B00032E8
:0135B10032E7
:0135B20032E6
:0135B30032E5
:0135B40032E4
:0135B50032E3
:0135B60032E2
:0135B70032E1
:0435B80075820022F6
:0135BC0032DC
:00000001FF
