:06000000020069020F1E60
:03000B000232AD11
:0300130002328630
:03001B000232CEE0
:030023000235891A
:03002B00020F734E
:0300330002341C78
:03003B0002358A01
:03004300020100B7
:03004B00022AE6A0
:03005300020100A7
:03005B00023287E7
:03006300023288DE
:0500C200C2000200660F
:03006600020FAED8
:2001C000AF82BF033B7800E2B4EE35787C7468F2743608F2903668E493787EF2E408F2905F
:2001E000E00012282D7D007EE090E6B57401F090E6B3EEF090E6B4EDF090E6A07480F02223
:2002000078A3EFF2780079A4E2F390365E022E9878827401F2E408F2746008F27880E4F2B1
:2002200008F2788504F2E408F2788704F275825112285EE58260407801E2B4FF02803878D7
:2002400001E2B4C201227801E2B4C02B788274C0F2743F08F2E408F27880740CF2E408F235
:2002600078857440F2E408F2788704F275825112285EE582600122903FC074F9F0787C74EA
:20028000ACF2743608F2787E7410F2E408F2903FC112282D903FD1E4F0A3F0A3F0A3F0228C
:2002A000AF821FC2D575F002EF30E704B2D5F404A430D50AF42401C5F0F43400C5F0244E97
:2002C000F582743635F0F583E493FEA3E4938E82F583227EB77F35903FC0E0FDBDF902809A
:2002E0001C740C2EFCE43FFD903FC0E0FB7A004302028C828D83EBF0EAA3F0802074082E2D
:20030000F582E43FF58374B4F07404A3F0740A2EF582E43FF5837413F07486A3F0903FE92E
:20032000E0601E9035C5E493F5821202A0787C74E9F2743F08F2787E7416F2E408F21228B9
:200340002D903FFFE030E01E9035C6E493F5821202A0787C74BDF2743608F2787E7407F249
:20036000E408F212282D9035C7E493F5821202A0AE82AF83903FC0E0C4540F24408E828F0F
:2003800083F074012EFCE43FFD903FC0E0FB740F5B24308C828D83F074032EFEE43FFF8E2E
:2003A000828F83787C74C1F2743F08F2787E7410F2E408F202282D20000E7802E2540560FD
:2003C0000443B0202253B0DF22AF827802E24FF20203B7AF827802E25F600FEFF4FF78029F
:2003E000E25FF21203B7758201227582002230010A90E6A07401F07481F022D20122AF82E8
:20040000BF00028026BF01028005BF021A800C758200C0071223C4D0078010758201C007EA
:200420001223C4D00780047582002278A2EFF27803E4F27804F278A514F278A6F290365E3E
:2004400012312875820122AF8278A2E2B40102800878A2E2B4020F80067806E4F2800B780D
:20046000067401F28004758200227805E2B4011E8F068EF005F078667401800225E0D5F099
:20048000FBF27806E2F582C007122423D007EF2403F87905E3F278A5EFF2780579A6E2F3D1
:2004A00090365E12312875820122E5822403F9E390E740F090E6B57401F090E68AE4F0908E
:2004C000E68B04F090E6A003F02290E6B8E0FFE4BF400104FE601190E6B9E0FDBDB009C2E4
:2004E0000190E6A07480F022E4BFC00104FD7006EE70030206D890E6B9E0FCE4BCA901046A
:20050000FB7008BC100280030206D8EF235401FE7F0090E6BA7809E0F2A3E008F290E6BE1F
:20052000780BE0F2A3E008F27C00EB60057F510205BB90E6BCE0FAA3E0FBC374039AE49BAE
:200540004079EA2A900548738006800A800E80127F517C0680657F527C08805F7F537C088D
:2005600080597809E2FA08E2FBC3E49A74109B404AC002C003780BE2FA08E2FBC3E49A74F8
:20058000109BD003D0024033C002C0037809790BE3C5F0E225F0FA09E3C5F008E235F0FBDA
:2005A000C3E49A74109BD003D002400F7F517C0674702BFB7809EAF2EB08F2C201EF700A1D
:2005C00090E6A07401F07481F022780BE2F5F008E245F0700122780BE2FA08E2FBC3EA9418
:2005E00040EB940040047A407B00EE605490E6A0E020E1F978827440F274E708F2E408F25E
:200600007885EAF2E408F278097980E2F308E209F378877401F28F8212285EE582700A906E
:20062000E6A07401F07481F02290E6B57401F090E68AE4F090E68BEAF090E6A07480F0800F
:200640005A90E6B57401F090E68AE4F090E68BF090E6A07480F090E6A0E020E1F9788C7489
:2006600040F274E708F2E408F2788FEAF2E408F27809798AE2F308E209F378917401F2782D
:2006800092ECF2789374FFF28F821228FBE582700A90E6A07401F07481F022C0048A087506
:2006A0000900780BE2F50A08E2F50BE50AC39508FBE50B9509FC780BEBF2EC08F27809E266
:2006C000FA08E2FCE5082AFAE5093CFC7809EAF2EC08F2D0040205CAED7006EE700302074E
:2006E0007C90E6B9E0FCBC1302800302077CEF235401FC90E6BAE0FF90E6BEE0FAA3E0FB9C
:20070000C2018F82C004C003C0021212CEE582D002D003D004605BEC603290E6A0E020E1BA
:20072000F98A047815ECF290E740C0041212FDE582D004603D90E6B57401F090E68AE4F0EF
:2007400090E68BECF090E6A07480F02290E6B57401F090E68AE4F090E68BF090E6A0748041
:20076000F090E6A0E020E1F97816EAF290E74002132E90E6A07401F07481F022ED6057907F
:20078000E6B9E0FCBC124F90E6BEE0FBA3E0FCBB0144BC0041C20190E6A0E020E1F912125F
:2007A000CBE58260067B027C0080047B007C007802E2FAEB420290E740EAF090E6B5740177
:2007C000F090E68AE4F090E68B04F090E6A003F07582010203D3EE70030208C890E6B9E045
:2007E000FCBC110280030208C890E6BCE0FBA3E0FC4B6027C0077807E2FA08E2FF74012AD1
:20080000F50AE43FF50B8B028C07EAB50A06EFB50B028005D0070208C8D0078B078C06907D
:20082000E6BEE0FAA3E0FDC201EF4E7028789AE4F2789B7410F2E408F2903FD575F000C00A
:2008400007C006C005C002122AE71211B0D002D005D006D007EA4D60678A038D04C3EB949C
:2008600040EC940040047B407C0090E6B57401F090E68AE4F090E68BF090E6A07480F0905E
:20088000E6A0E020E1F97813EBF290E740C007C006C005C003C002121232D002D003D00532
:2008A000D006D0078B0A750B008A088D09AB0AAC0BE508C39BFBE5099CFC8B028C058095E3
:2008C0007807EFF2EE08F222ED7006EE700302097590E6B9E0FCBC1802800302097590E610
:2008E000BEE0FBA3E0FCBB1005BC00028003020975EF235401FCC201EC603690E6A0E02091
:20090000E1F9787C74D5F2743F08F2787E7410F2E408F290E74012282D90E6B57401F09099
:20092000E68AE4F090E68B7410F090E6A07480F022121286E582603390E6B57401F090E638
:200940008AE4F090E68BF090E6A07480F090E6A0E020E1F9787C7440F274E708F2787E7405
:2009600010F2E408F2903FD502282D90E6A07401F07481F022ED7006EE7003020A1F90E6B5
:20098000B9E0FCBC14028003020A1F90E6BEE0FBA3E0FCBB0205BC00028003020A1FEF2374
:2009A0005401FC90E6BCE0FBC201EC603B90E6A0E020E1F9781C7440F274E708F28B8212F1
:2009C00014F6E582700A90E6A07401F07481F02290E6B57401F090E68AE4F090E68B7402CF
:2009E000F090E6A07480F02290E6B57401F090E68AE4F090E68B7402F090E6A07480F09096
:200A0000E6A0E020E1F978187440F274E708F28B821213CDE58270067582010203C922ED3A
:200A2000607590E6B9E0FCBC156D90E6BEE0FBA3E0FCBB0262BC005F90E6BCE0FCC201906F
:200A4000E6A0E020E1F9903FC0E0FBBB3200401278417440F274E708F28C82121CCDAB82A3
:200A6000801078257440F274E708F28C82121769AB82EB700A90E6A07401F07481F022900A
:200A8000E6B57401F090E68AE4F090E68B7402F090E6A07480F022ED7006EE7003020BAB83
:200AA00090E6B9E0FCBC16028003020BAB90E6BEE0FBA3E0FCBB0405BC00028003020BABD1
:200AC000EF235401FC90E6BCE0FBC201EC607090E6A0E020E1F9903FC0E0FCBC3200401E80
:200AE000784E7440F274E708F2785074022440F2E434E708F28B82121EDCAC82801C78331A
:200B00007440F274E708F2783574022440F2E434E708F28B82121974AC82EC700A90E6A012
:200B20007401F07481F02290E6B57401F090E68AE4F090E68B7404F090E6A07480F02290D0
:200B4000E6B57401F090E68AE4F090E68B7404F090E6A07480F090E6A0E020E1F9903FC0DF
:200B6000E0FCBC3200401E78457440F274E708F2784774022440F2E434E708F28B82121DD5
:200B800040AC82801C78297440F274E708F2782B74022440F2E434E708F28B821217D9AC8C
:200BA00082EC70067582010203C922ED607090E6B9E0FCBC176890E6BEE0FBA3E0FCBB011C
:200BC0005DBC005AC201750A0190E6A0E020E1F9903FC0E0FCBC3200400D78557401F29005
:200BE000E740122059800E783A7401F290E740121A8985820AE50A700A90E6A07401F074C7
:200C000081F02290E6B57401F090E68AE4F090E68B04F090E6A003F07582040203D3EE60BE
:200C20002D90E6B9E0FCBC192590E6BEE0FBA3E0FC4B701A90E6BAE0FBA3E04B24FFE4330C
:200C4000F582C20112136E90E6A07480F022ED7006EE7003020D3290E6B9E0FCBC1A028043
:200C600003020D3290E6BEE0FBA3E0FCBB0205BC00028003020D32EF235401FC90E6BCE0E9
:200C8000FBC201EC603B90E6A0E020E1F978227440F274E708F28B82121699E582700A904B
:200CA000E6A07401F07481F02290E6B57401F090E68AE4F090E68B7402F090E6A07480F07D
:200CC0002290E6B57401F090E68AE4F090E68B7402F090E6A07480F090E6A0E020E1F978C5
:200CE000207440F274E708F28B821215B4E58270067582010203C9788C74E5F2743F08F252
:200D0000E408F2788A7431F2E408F2788F7404F2E408F2789104F278927408F2789374FF3A
:200D2000F27582511228FBE58270067582010203C922ED7006EE7003020E0190E6B9E0FC9F
:200D4000BC1B028003020E0190E6BEE0FBA3E0FCBB0205BC00028003020E01EF235401FC21
:200D600090E6BCE0FBC201EC605190E6A0E020E1F9903FC0E0FCBC3000401E78627440F2E1
:200D800074E708F2786474012440F2E434E708F28B82122305E582700A90E6A07401F07447
:200DA00081F02290E6B57401F090E68AE4F090E68B7402F090E6A07480F02290E6B5740119
:200DC000F090E68AE4F090E68B7402F090E6A07480F090E6A0E020E1F9903FC0E0FCBC30A7
:200DE00000401790E7407860E0F290E7417861E0F28B821222C8E58270067582010203C92C
:200E000022EE602F90E6B9E0FEBE1C2790E6BEE0FCA3E0FE4C701C90E6BCE0FEC201D20017
:200E200053B0C353060FEE2E25E042B090E6A07480F022ED603A90E6B9E0FEBE0F3290E64C
:200E4000BEE0FCA3E0FEBC0127BE0024C20190E6A0E020E1F990E7407402F090E6B514F0B2
:200E600090E68AE4F090E68B04F090E6A003F022ED604F90E6B9E0FEBEC04790E6BCE0FD01
:200E8000A3E0FEBD043CBE0039C201787C747AF2743608F290367A787EE493F2A3E49308E1
:200EA000F290E00012282D7D007EE090E6B57401F090E6B3EEF090E6B4EDF090E6A07480E6
:200EC000F022BFC14F90E6B9E0FFBFC04790E6BCE0FEA3E0FFBE053CBF0039C201787C74A9
:200EE000A2F2743608F29036A2787EE493F2A3E49308F290E00012282D7E007FE090E6B500
:200F00007401F090E6B3EFF090E6B4EEF090E6A07480F02290E6A07401F07481F022C2A854
:200F200032903EBDE4F0A3F07582041203C9903FC0E0FFBF32004008903EBC121FD7800AF1
:200F4000783AE4F2903EBC121A89903EBCE0FF781874BDF2743E08F28F821213CD903FC070
:200F6000E0FFBF32004009903EBCE0F5821220C4D2A82220000353B0EFC2CAC2CF32C0E0E1
:200F8000C082C08320000343B010D2CA5391EF90E65F74F3F0D083D082D0E032020F7E02F3
:200FA0000F7E020F7E020F7E020F7E020F7E90E6007412F090E67A7401F01202101202D31C
:200FC00012135F903FC0E0FFBF3200400F121BF6E582700B7582011203C980031216F01257
:200FE00011AA12235712328990E611E4F012328990E610E4F043B53443B00453B0CF75C829
:2010000001D2AD90E65EE043E0F3F0D2A8903FD1E0FCA3E0FDA3E0FEA3E0FFEC4D4E4F70D7
:2010200003021143903FD1780DE0F2A3E008F2A3E008F2A3E008F27D527811E4F208F2437E
:20104000B010C0051211B0D005780DE2F5F008E242F008E242F008E245F070030211207C9E
:2010600080780DC3E2948008E2940008E2940008E294005004780DE2FC78827400F274E0CD
:2010800008F2E408F27885ECF2E408F278117980E2F308E209F378877401F28D8212285E75
:2010A000E58270087582011203C980747813ECF290E000C005C004121232D004D0058C0298
:2010C0007B007E007F00780DE2C39AF208E29BF208E29EF208E29FF28C037F007811E2FA03
:2010E00008E2FEEB2AFAEF3EFE7811EAF2EE08F27811E2F5F008E245F060030210498D03C4
:20110000EB04FDBD540280030210497D517811E2FA08E22470FB7811EAF2EB08F2021049A1
:20112000780DE2F5F008E242F008E242F008E245F0700D121286E58270067582011203C932
:2011400053B0EF758201122B423001031204CA20A803120F212000F190E687E0702E90E603
:2011600084E0FFC313FF24FC40DFEF2F9011707380068009800C800F43B00480CC63B004D2
:1111800080C753B0FB80C263B00480BD43B00480B854
:2035B7001201000200000040B720B19D0000010203020A060002000000080000090400004B
:2035D70000FFFFFF060904000102FFFFFF070904000102FFFFFF080904010000FFFFFF0697
:2035F7000904010102FFFFFF070705020200020007050402000200070586020002000705D7
:2036170088020002000902000002010480FAD335DC3500360E36EE35F73507361536000011
:203637000902000001020580FAD335E53500360E3600001C363736C536DC3606371A37569A
:203657003776377F379437B735C935024A36084E3612034D00530046005400310030003016
:2036770000C00028000000000104000100000000000000000157494E55534200000000006C
:2036970000000000000000000000000A000000000105000000393939393939393939393990
:2036B700393939393900416E6F74686572007768697465717561726B2072657365617263BB
:2036D7006800000000476C6173676F7720496E74657266616365204578706C6F7265722055
:2036F70028676974206163613132643431290058582D585858585858585858585858585800
:20371700585800506970652050206174207B327835313242204550324F55542F45503649AE
:203737004E7D2C2051206174207B327835313242204550344F55542F455038494E7D0050B5
:203757006970652050206174207B347835313242204550324F55542F455036494E7D00445D
:20377700697361626C656400446F75626C652D627566666572656420353132420051756172
:10379700642D627566666572656420353132420054
:20119100E58030E30A20000343B0087582012220000353B0F77582002243B5080211911298
:2011B100328990E601E053E0FCF0903FC0E0FFBF10028019BF20028014BF30028017BF3128
:2011D100028012BF3202800DBF3310800843B50253B0FD800643B2025380FD900001123541
:2011F1005953B2F743B31C4390105390F7903FC0E0FFBF10028019BF20028014BF300280FC
:2012110014BF3102800FBF3202800ABF330A800543B00280034380029004B01235590211F6
:201231009175AF0385829B85839A90E67B7813E2F8E0A2E7C2949292D294A2E6C294929200
:20125100D294A2E5C2949292D294A2E4C2949292D294A2E3C2949292D294A2E2C2949292E7
:20127100D294A2E1C2949292D294A2E0C2949292D294D8BD227431C29400D294D5E0F8531A
:20129100B3E3903FC0E0FFBF10028019BF20028014BF30028019BF31028014BF3202800FC8
:2012B100BF3314800A90E601E043E023F0800890E601E043E063F0021191021191E5827884
:2012D10014F2758210122619E582601978707401F2E408F2903E1475F06012264DE582609F
:2012F100047582012212263175820022AE82AF83758211122619E582601C7D0078157975A7
:20131100E2F3E409F38E828F838DF01226D4E58260047582012212263175820022AE82AF16
:20133100837D0078167970E2F3E409F38E828F838DF012264DE582600E122631E582700334
:0E135100F58222758201221226317582002259
:20135F0074BE55B04480F5B043B5C153B07F22E582600453B07F2243B08022AF827E008F2F
:20137F0005BD0102800ABF02028017BD031F8016903FC0E0FFBF330050047E0C800F7E0ED7
:20139F00800B7E0D80077817E270027E48EE7003F58222EE2EFE7817E24EF582122619E568
:2013BF008270071226317582002275820122AF827E007818E2F58208E2F583E0FCA3E0FD23
:2013DF00EF30E0027E01EF30E103430640EF30E013903FE5E0FAA3E0FBC3EA9CEB9D50049F
:2013FF0075820022EF30E113903FE7E0FAA3E0FBC3EA9CEB9D500475820022EC4D700FEEB0
:20141F00F4FB52B0781AE4F2781BF20214A98C028D03C3EA9472EB94064008747C9A74155F
:20143F009B500475820022C006EA248EFAEB34F9FB78ACEAF2E2F5F0EBC4C5F0C4540F655F
:20145F00F0C5F0540FC5F065F0F2C5F008F290010DC007C006C005C0041232AEAA82AB83BA
:20147F00D004D005D006D007EBC4CAC4540F6ACA540FCA6ACAFB74E0C39AFA740F9BFBFE05
:20149F00781AEEF2781BEAF2D0067817E4F28F82C006C005C00412137AE582D004D005D032
:2014BF00067003F5822278707402F2E408F2903E1A75F06012264DE582700712263175825D
:2014DF000022122631E5827003F58222EC4D6003EE42B075820122AF82BF01028005BF0220
:2014FF000A80047E0180087E40800475820022EE55B07011781CE2F58208E2F583E4F0A3A3
:20151F00F07582012278177401F28F8212137AE5827003F5822278757402F2E408F2903E88
:20153F001E75F0601226D4E5827003F58222781EE2FE7F00781FE27C004207EC4206781C2F
:20155F00E2FC08E2FDEEC4CFC4540F6FCF540FCF6FCFFE74FFC39FFFE49EFE78ACEFF2EE0C
:20157F0008F2900098C005C0041232AE786D740AF2E408F2122590E5828583F0D004D005AD
:20159F002472FE740635F0FF8C828D83EEF0EFA3F075820122AF827820E2FD08E2FE8D82C3
:2015BF008E83E0FBA3E0FC4B601D8B0C8C0DC3E50C9472E50D9406400A747C950C7415956A
:2015DF000D500475820022750CA7750D37850C82850D83E493FA7003021695EA5F7003021A
:2015FF001687781C74BFF2743E08F28A82C007C006C005C004C0031214F6E582D003D004BB
:20161F00D005D006D0077003F58222C007903EBFE0FAA3E0FFC3EB9AEC9FD0075030850CB2
:20163F0082850D83E493FA7818EDF2EE08F28A82C007C006C005C004C0031213CDE582D01E
:20165F0003D004D005D006D0077003F58222850C82850D83A3E49325E0FA24E5F582E4342D
:20167F003FF583EBF0ECA3F07402250CF50CE4350DF50D0215EC75820122AF827EA77D3743
:20169F008E038D048B828C83E493FA6040EFB5022F7822E2F52E08E2F52F8E828D83A3E4B3
:2016BF009325E024E5F582E4343FF583E0FDA3E0FE852E82852F83EDF0EEA3F075820122E2
:1116DF0074022BFBE43CFC8B068C0580B775820022D0
:0637A70001000201000018
:2016F00090E670E043E001F05388FE22A982E3FE7F0009E37C004207EC4206EEC4CFC454FC
:201710000F6FCF540FCF6FCFFE78ACEFF2EE08F29001031232AE786D740AF2E408F2022531
:2017300090AE82AF8378ACEEF2EF08F290000A1232AE786D7403F2740108F2122590AE827A
:20175000E583C454F0CEC4CE6ECE54F0CE6EFF7824E2F9EFF309EEF322AF827DAD7E378DEC
:20177000038E048B828C83E493FA6059EFB502488D828E83A3E493FA78687427F27867E42C
:20179000F278697402F28A821224DDE5827003F582227825E2F50E08E2F50F7582271216B6
:2017B000FC858210858311850E82850F83E510F0E511A3F07582012274022BFBE43CFC8BF6
:2017D000058C06809E75820022AF82782DE4F2782EF2782F740FF27830F4F278317403F22B
:2017F0007832E4F27829E2F58208E2F583E0FDA3E0FE8D038E04C3747C9B74159C4023C0E7
:2018100007782BE2FB08E2FC8B828C83E0FAA3E0FF8A128F13C3747C951274159513D00733
:20183000500475820022ED4E700C747CB512077415B5130280377824742DF28D828E83C09D
:2018500007C004C003121731D003D0048B828C83E0FBA3E0FC7824742FF28B828C831217FD
:2018700031D00778327414F2783274D4F27DAD7E378D828E83E493FC7003021970EC5F701D
:201890000302196674012DFBE43EFC8B828C83E493FA786B742DF2786A7403F2786C14F2C1
:2018B0008A82C007C006C005C004C003122535E582D003D004D005D006D0077003F582222B
:2018D0008B828C83E493FA786B742FF2786A7404F2786C03F28A82C007C006C005C004C0EC
:2018F00003122535E582D003D004D005D006D0077003F582228B828C83E493FA786B7431B8
:20191000F2786A7401F2786CF28A82C007C006C005C004C003122535E582D003D004D00572
:20193000D006D0077003F582228B828C83E493FB786B7432F2786A7402F2786C14F28B8294
:20195000C007C006C005122535E582D005D006D0077003F5822274022DFDE43EFE02188169
:2019700075820122AF827DAD7E378D038E048B828C83E493FA7003021A79EFB5020280034B
:20199000021A6B74012DF514E43EF515851482851583E493FD78687439F278677402F278EF
:2019B0006914F28D821224DDE5827003F582227839E270217833E2F58208E2F583E4F0A312
:2019D000F07835E2F58208E2F583747CF07415A3F075820122851482851583E493FD7868FD
:2019F0007437F278677403F2786914F28D821224DDE5827003F582227833E2F51608E2F5FF
:201A1000177582371216FCAA82AE83851682851783EAF0EEA3F0851482851583E493FE7834
:201A3000687437F278677404F2786903F28E821224DDE5827003F582227835E2F51608E258
:201A5000F5177582371216FCAA82AE83851682851783EAF0EEA3F07582012274022BFBE48A
:201A70003CFC8B058C0602197E75820022E5805401B40100E433F58222AF83E582783BF2ED
:201A9000EF08F2783BE2F58208E2F583E4F07CAD7D378C828D83E4937003021BAE74012CBA
:201AB000FAE43DFB8A828B83E493FF7868743DF278677401F27869F28F82C005C004C00377
:201AD000C0021224DDE582D002D003D004D0057003F58222783DE27003021BA4783EE4F209
:201AF000783BE2F58208E2F583E0FF8C828D83E4934207783BE2F58208E2F583EFF08A8252
:201B10008B83E493FF7868743EF278677402F2786914F28F82C005C004C003C0021224DD4D
:201B3000E582D002D003D004D0057003F58222783AE260308A828B83E493FA7868743DF2A2
:201B500078677401F27869F28A82C005C0041224DDE582D004D0057003F58222783EE244BC
:201B700004F28006783EE254FBF28C828D83A3E493FF786B743EF2786A7402F2786C14F20E
:201B90008F82C005C004122535E582D004D0057003F5822274022CFCE43DFD021AA27582A2
:021BB000012210
:0637AD000154025500006A
:201BB200AF82786B743FF2786A7412F2786CE4F28F82C007122535E582D0077003F58222B8
:201BD200783F74FFF2786B743FF2786A74D2F2786C7401F28F82122535E5827003F58222FA
:201BF200758201227EB37F378E828F83E49360378E828F83A3E493FCA3E493FD8C828D8335
:201C1200E4F08E828F83A3A3A393F582C007C006121BB2E582D006D0077003F582227404C5
:201C32002EFEE43FFF80C175820122E582F904F8E2FF7E007D008D258E248F238E22E3FA0E
:201C5200E4FBFEFFE5224202E5234203E5244206E525420778AEEAF2EB08F2EE08F2EF0894
:201C7200F2900005E4F5F01232D0AC82AD83AEF0C313FFEE13FEED13FDEC13FCEFC313EE73
:201C920013ED13FDEC13F5828D8322AE82AF83EE2EF582EF33F583E5822582F582E58333CB
:201CB200F583786D7405F2E408F2122590AE82AF837840E2F9EEF309EFF322AF827DB37EE3
:201CD200378D038E048B828C83E493FA605CEFB5024B8D828E83A3A3A3E493FA786874434E
:201CF200F278677488F278697402F28A821224DDE5827003F582227841E2F52608E2F5277C
:201D1200758243121C3D858228858329852682852783E528F0E529A3F07582012274042BF5
:201D3200FBE43CFC8B058C06809B75820022AF827849E4F2784AF2784B74F8F2784C747FD0
:201D5200F2784D74FFF27845E2F58208E2F583E0FDA3E0FE8D038E04C3747C9B74159C40AA
:201D72001DC0077847E2FB08E2FC8B828C83E0FAA3E0FFC3747C9A74159FD00750047582DC
:201D92000022ED4E601E78407449F28D828E83C007C004C003121C9DD003D004D007784D73
:201DB200E254FEF28B828C83E0FDA3E0FE8D038E04BB7C05BC150280167840744BF28D8232
:201DD2008E83C007121C9DD007784DE254FDF27DB37E378D828E83E493FC7003021ED8ECBE
:201DF2005F7003021ECE74032DFBE43EFC8B828C83E493FA786B7449F2786A7458F2786CB1
:201E12007402F28A82C007C006C005C004C003122535E582D003D004D005D006D0077003F4
:201E3200F582228B828C83E493FA786B744BF2786A7457F2786C7402F28A82C007C006C092
:201E520005C004C003122535E582D003D004D005D006D0077003F582228B828C83E493FA4F
:201E7200786B744DF2786A74D2F2786C7401F28A82C007C006C005C004C003122535E5829D
:201E9200D003D004D005D006D0077003F582228B828C83E493FB786B744DF2786A7403F28C
:201EB200786CE4F28B82C007C006C005122535E582D005D006D0077003F5822274042DFDF4
:201ED200E43EFE021DE575820122AF827DB37E378D038E048B828C83E493FA7003021FD386
:201EF200EFB502028003021FC574032DF52AE43EF52B852A82852B83E493FD78687452F24A
:201F120078677458F278697402F28D821224DDE5827003F582227852E270147853E2700FD8
:201F3200784EE2F58208E2F583E4F0A3F0801E784EE2F52C08E2F52D758252121C3DAA8254
:201F5200AE83852C82852D83EAF0EEA3F0852A82852B83E493FE78677457F278687452F26E
:201F720078697402F28E821224DDE5827003F582227852E2FEBEF8197853E2FEBE7F127885
:201F920050E2F58208E2F583747CF07415A3F0801E7850E2F52C08E2F52D758252121C3DFF
:201FB200AA82AE83852C82852D83EAF0EEA3F07582012274042BFBE43CFC8B058C06021ED9
:201FD200E675820022AE82AF83E4F07CB37D378C828D83E493606C8C828D83A3A3A3E493F8
:201FF200FB78687454F278677480F2786923F28B82C007C006C005C0041224DDE582D0040E
:20201200D005D006D0077003F582227854E2540F60288E828F83E0FB8C828D83E4934203B0
:202032008E828F83EBF08C828D83A3E493FAA3E493FB8A828B837854E2F074042CFCE43DD1
:20205200FD808C75820122AE82AF83E4F07CB37D378C828D83E493FB6057C00374012CF592
:202072002EE43DF52F852E82852F83E493FAA3E493FB8A828B83E0FA540F7004D0038028A3
:20209200D0038E828F83E0FA42038E828F83EBF07855E26013852E82852F83E493FAA3E497
:2020B20093FB8A828B83E4F074042CFCE43DFD80A022AF827DB37E378D828E83E493FC7079
:2020D200030221E4EC5F70030221DA74032DFBE43EFC8B828C83E493FA78687456F2786764
:2020F2007458F278697402F28A82C007C006C005C004C0031224DDE582D003D004D005D01C
:2021120006D0077003F582228B828C83E493FA78687458F278677457F278697402F28A82A8
:20213200C007C006C005C004C0031224DDE582D003D004D005D006D0077003F582228B82F8
:202152008C83E493F582C007C006C005C004C003121BB2E582D003D004D005D006D00770B8
:2021720003F582228B828C83E493FA786B7456F2786A7458F2786C7402F28A82C007C00600
:20219200C005C004C003122535E582D003D004D005D006D0077003F582228B828C83E49346
:2021B200FB786B7458F2786A7457F2786C7402F28B82C007C006C005122535E582D005D0AF
:1621D20006D0077003F5822274042DFDE43EFE0220CA7582012246
:0C37B30001C13E4002C23E410000000087
:2021E800AF827E008F05BD01028005BF020880047E2080027E21EE7003F58222EE2EFE78B7
:202208005AE24EF582122619E5827003F5822275820122AF82785AE4F28F821221E8E5826B
:20222800603878707401F2E408F2903E5B75F06012264DE582602378707401F2E408F290B7
:202248003E5C75F06012264DE582600E122631E5827003F582227582012212263175820067
:2022680022AF82785AE4F28F82C0071221E8E582D007604578707401F2E408F2903E5D75B8
:20228800F06012264DE5826030785A7401F28F821221E8E5826022785EE2FD08E2FE7F0000
:2022A80078757401F2E408F28D828E838FF01226D4E58260047582012212263175820022D2
:2022C800AF82785B7401F27861795CE2F38F82C00712221BE582D0077003F582227860E2DD
:2022E800F4F2785B7403F27860795CE2F38F8212221BE5827003F5822275820122AF82789C
:202308005D7401F27864795EE2F308E209F38F82C007122269E582D0077003F58222785DEF
:202328007403F27862795EE2F308E209F38F82122269E5827003F582227862E2FE08E2FFFC
:0F2348008E828F83E0F48E828F83F07582012264
:2023570012328990E60B7403F012328990E6017480F012328990E6047480F012328990E61B
:2023770009E4F012328990E6027498F012328990E60374FEF012328990E670E043E080F05A
:2023970012328990E618E053E0FEF012328990E619E053E0FEF012328990E61AE053E0FEFF
:2023B700F012328990E61BE053E0FEF022E582FF60067E007D0080047E027D801232899070
:2023D700E6047480F012328990E61274A04EF012328990E61374204DF012328990E614747F
:2023F700E04EF012328990E61574604DF0EF60067D017E0080047D037E007866EDF28F829E
:2024170012242312328990E604E4F022AF827866E25401605F12328990E618E4F01232890E
:2024370090E604E043E002F012328990E6497482F012328990E6497482F0EF601212328904
:2024570090E6497482F012328990E6497482F012328990E6187410F012328990E61AE4F04E
:2024770012328990E604E043E006F012328990E61A7404F07866E25402604A12328990E63D
:2024970019E4F012328990E604E043E004F012328990E6497484F012328990E6497484F012
:2024B70012328990E6197410F012328990E61BE4F012328990E604E043E008F01232899064
:0624D700E61B7404F02274
:2024DD00E5822582FFF582122619E582604378707401F2E408F2903E6775F06012264DE56F
:2024FD0082602E74014FF582122619E58260227868E2FD7E007F6078697975E2F3E409F39A
:20251D008D828E838FF01226D4E58260047582012212263175820022E582FF25E0F5821298
:20253D002619E582604678707401F2E408F2903E6A75F06012264DE5826031786CE2601E47
:20255D00786BE2FD7E007F60786C7970E2F3E409F38D828E838FF012264DE582600E12268C
:13257D0031E5827003F5822275820122122631758200220B
:20259000AE82AF837C007D007B10EF235401FAEE2EFEEF33FFEC2CFCED33FDEA60034304E4
:2025B00001786DC3E2F5F0EC95F008E2F5F0ED95F04011786DD3E29CF4B3FCB308E29DF491
:0B25D000FD430601DBC48E828F8322D6
:2025DB00C007C000AF8290E678E020E00E786FE260F4786FE4F2758200801E90E678E030DF
:2025FB00E2057582008012EF600C90E678E0FF035401F5828003758201D000D00722C0074E
:20261B00AF8290E6787480F090E679EFF07582011225DBD0072290E678E030E204758200F0
:20263B002290E6787440F090E678E020E6F975820122C007C006C004C003C002C000AFF0AF
:20265B00AE83E5827872F2EE08F2EF08F27870E2F5F008E245F07005758201804F7B007C19
:20267B00007870E2B5030708E2B50402802B7872E22BFA08E23CFE08E2FF8A828E838FF0CC
:20269B0012358EFA90E679F07582011225DBE58260070BBB00CB0C80C87870E2B503080822
:2026BB00E2B50403D38001C3E433F582D000D002D003D004D006D00722C007C006C005C092
:2026DB0004C003C002C001C000AFF0AE83E5827877F2EE08F2EF08F27875E2F5F008E24509
:2026FB00F0700675820102281C7875E2FB08E2FCBB0109BC000690E6787420F090E679E0A3
:20271B007B007C00787AE4F208F2787A7975E2F5F0E3B5F00C08E2F5F009E3B5F00302271E
:20273B00F67582001225DBE5827003022809787AE2FD08E2FE74022DFDE43EFE7875E2B575
:20275B00050708E2B506028002800690E6787420F0787AE2FD08E2FE0DBD00010E7875E2D0
:20277B00B5050708E2B506028002803575AF03759AE6759B7890E67B7440F0E0ACE078770B
:20279B00797AE3C5F0E225F0FD09E3C5F008E235F0FE08E2FF8D828E838FF0EC1232928027
:2027BB00257877797AE3C5F0E225F0FD09E3C5F008E235F0FE08E2FF90E679E0FA8D828E6E
:2027DB00838FF0123292787AE22401F208E23400F2787AE2FB08E2FC02272590E678E0300A
:2027FB00E205758200801A90E678E020E6F97875E2B5030808E2B50403D38001C3E433F521
:12281B0082D000D001D002D003D004D005D006D007226B
:20282D00AA82AB83787CE2FC08E2FD787EE2FE08E2FFEE60010FEF601775AF078A9B8B9A80
:11284D008C9E8D9D90E67CE090E67BF0DEF6DFF422AA
:20285E00C007C006C005C001C000AF827887E260127881E2FE7888EEF27880E2FE7889EE83
:20287E00F280087880E2FE7888EEF2EF2FFFF582122619E58260557887E2FDE23395E0FEA1
:20289E000DBD00010E7870EDF2EE08F2903E8875F06012264DE582603374014FF582122685
:2028BE0019E582602778857975E2F308E209F37882E2F58208E2F58308E2F5F01226D4E5D8
:2028DE00827004F582800B7582018006122631758200D000D001D005D006D00722C007C038
:2028FE0006C005C004C003C002C001C000AF827894E4F208F2EF2FFFF582122619E582705C
:20291E0003022AB67892E2FC8CF005F07B017C008006EB2BFBEC33FCD5F0F77894798FC31E
:20293E00E3F5F0E295F009E3F5F008E295F04003022AB67891E26012788BE2FA7896EAF2BF
:20295E00788AE2FA7897EAF28008788AE2FA7896EAF2C003C0047891E2FAE23395E0FC0A44
:20297E00BA00010C7870EAF2EC08F2903E9675F06012264DE582D004D0037003022AB6C0F7
:20299E0007788AE2F58208E2F5838B028C0778BAEAF2EF08F2C007C004C003C002C001C0AD
:2029BE000012341EAD82AE83D000D001D002D003D004D007EAC39DFAEF9EFF7898EAF2EF99
:2029DE0008F2788F7994E3F5F0C3E295F0FE09E3F5F008E295F0FF7898C3E2F5F0EE95F08F
:2029FE0008E2F5F0EF95F0D0075020788F7994E3F5F0C3E295F0C0E009E3F5F008E295F049
:202A1E00C0E07899D0E0F218D0E0F2788C7994E3C5F0E225F0FA09E3C5F008E235F0FD083C
:202A3E00E2FE78987970E2F308E209F38A828D838EF012264DE582605F122631E58270045B
:202A5E00F58280737E007893E2600B7893C3E2F5F0EE95F0500C8F82122619E58270030E6A
:202A7E0080E47893E2B50605758200804A788A7998E3C5F0E225F0F209E3C5F008E235F022
:202A9E00F278947998E3C5F0E225F0F209E3C5F008E235F0F20229391226317894798FE223
:202ABE00F5F0E3B5F00C08E2F5F009E3B5F003D38001C3E433F582D000D001D002D003D061
:082ADE0004D005D006D0072248
:06009800E478FFF6D8FD3C
:012AE60032BD
:202AE700AFF0AE83E582789DF2EE08F2EF08F2789BE2F52E08E2F52F789BE2F5F008E24591
:202B0700F0602A789DE2FA08E2FB08E2FC789AE2FFAD2EAE2F8A828B838CF0EF123292A3CF
:1B2B2700AA82AB831DBDFF011EED4E70E8789DE2F58208E2F58308E2F5F022ED
:202B4200AF8278A1E4F278A2F2D2E890E668E043E008F090E65CE043E001F090E65D7401A6
:202B6200F0D2AF90E680E020E10890E680E043E002F0EF600E90E680E043E008F090000A30
:202B820012356390E680E053E0F7F022AF82BF00028037BF01028036BF02028039BF040215
:202BA2008038BF06028037BF08028036BF80028019BF8102801CBF8202801BBF8402801AE9
:202BC200BF86028019BF881E801890E6A02290E6A12290E6A22290E6A32290E6A42290E67E
:202BE200A52290E6A62290000022C021C0E0C0F0C082C083C007C006C005C004C003C002CB
:202C0200C001C000C0D075D000C08675860090E6B8E0FFE4BF800104FE601B90E6B9E0FD61
:202C2200BD061390E6BAE0FCA3E0F5827800ECF21201C0022E70EF702A90E6B9E0FDBD0992
:202C42002290E6BAE0F5821203FEE582600990E6A07480F0022E7090E6A07401F07481F0EC
:202C6200022E70EE600E90E6B9E0FDBD08061234B9022E708F05BD013290E6B9E0FDBD0B88
:202C82002A90E6BCE0FD90E6BA7805E0F28D82120447E582600990E6A07480F0022E709014
:202CA200E6A07401F07481F0022E70E4BF810104FD601490E6B9E0FCBC0A0C90E6BCE0F524
:202CC200821204AA022E70EF703790E6B9E0FCBC032F90E6BAE0FBA3E0FCBB0110BC000D62
:202CE20078A17401F290E6A003F0022E70BB0205BC00028003022E7090E6A07480F0022EDC
:202D020070EE603590E6B9E0702F78A0E2FE78A1E225E0FC420690E740EEF090E741E4F0B3
:202D220090E6B504F090E68AE4F090E68B7402F090E6A07480F0022E70ED602890E6B9E019
:202D4200702290E740E4F090E741F090E6B504F090E68AE4F090E68B7402F090E6A0748048
:202D6200F0022E70BF02028003022E1590E6B9E0FEBE03028008BE01028003022E1590E6DF
:202D8200BAE0FDA3E0FE4D6003022E7090E6BCE0F582122B8EAD82AE83ED4E7003022E70C7
:202DA20090E6B9E0FCBC03188D828E83E0FC4304018D828E83ECF090E6A07480F0022E7055
:202DC20090E6BCE0F582C006C0051234A7E582D005D0067003022E708D828E83E0FC530478
:202DE200FE8D828E83ECF090E6BCE0FDA3E08D0453040F530580E4C423CDC423541F6DCD4A
:202E0200541FCD6DCDFE90E683ED4CF0E043E020F0805BBF825290E6B9E0704C90E6BCE0B8
:202E2200F582122B8EAE82AF838E048F05EE4F603D8C828D83E0FC5304017F00EC4FB4012B
:202E420000B39202E433FF90E740F090E741E4F090E6B504F090E68AE4F090E68B7402F086
:202E620090E6A07480F0800690E6B81203EE5391EF90E65D7401F0D086D0D0D000D001D02D
:202E820002D003D004D005D006D007D083D082D0F0D0E0D02132AE82AF8378A3E2B4012C8D
:202EA20078A4E270278E828F83E493FCA3E493FD787CECF2ED08F28C828D83E493787EF299
:202EC200E408F290E00012282D02310D78A3E2B4063F78A4E2703A8E828F83A3A3E493FC82
:202EE200A3E493FD4C700A90E6A07401F07481F0228C028D03787CEAF2EB08F28C828D8380
:202F0200E493787EF2E408F290E00012282D02310D78A3E2B4020280030230288E828F83A7
:202F2200A3A3A3A3E493FD78A4C3E29D40030230288E828F83A3A3A3A3A3E493FCA3E493B6
:202F4200FD78A4E275F002A42CF582ED35F0F583E493FCA3E493FD74092CFFE43DFE8C025D
:202F62008D03787CEAF2EB08F28C828D83E493787EF2E408F290E000C007C006C005C00429
:202F820012282DD004D005D006D0078C828D83E493FC2400F518E434E0F5198F028E038503
:202FA200181A85191B8A828B83E493FCA3E493FD787CECF2ED08F28C828D83E493787EF24A
:202FC200E408F2851A82851B83C003C00212282DD002D0038A828B83E493FCA3E493FD8C0C
:202FE200828D83E4932518F518E43519F51974022AFAE43BFB8A828B83E493FCA3E4934C95
:20300200709D90E002E0FCA3E0FD4C600302310DE518C39400FCE51994E0FD90E002ECF0D7
:20302200EDA3F002310D78A3E2B4030474018001E4FD602278A4E2701D787C74BFF274376E
:2030420008F29037BFE493787EF2E408F290E00012282D02310DED700302310378A4E2FC0A
:203062007D0024FFFAED34FFFB74072EF582E43FF583C006C007E493FF7E00C3EA9FEB64C2
:20308200808EF063F08095F0D007D006507374082EF582E43FF583E493FEA3E493FF1CBC46
:2030A200FF011DEC2CFCED33FDEC2EF582ED3FF583E493FEA3E493FF90E0007402F090E0B7
:2030C2000104F074012401FCE434E0FD8E828F83E493FB60360EBE00010F8C828D83EBF06F
:2030E20074012CFAE43DFB8A828B83E4F0042AFCE43BFD90E000E0FB0B0B90E000EBF080B7
:20310200CB90E6A07401F07481F0227E007FE090E6B57401F090E6B3EFF090E6B4EEF09053
:20312200E6A07480F022AE82AF83A3A3A3A3A3E493FCA3E493FD74042EFEE43FFF78A7E41D
:20314200F28E828F83E493FA78A7C3E29A400122C006C00778A7E275F002A42CF582ED35C9
:20316200F0F583E493FAA3E493FF78A874092AF2E43F08F2752E008A828F83A3A3A3A3A395
:20318200E493FF78A2E2B507028007D007D00602327DD007D00678A8E2F52F08E2F530C076
:2031A20004C005852F82853083E493FAA3E493FD8A828D83A3E493F5317404B5310280060C
:2031C200D005D004804AD005D004852F82853083E493F532A3E493F533853282853383A36C
:2031E200A3E493FA78A5E2B50214853282853383A3A3A3E493FA78A6E2B50202800678AAC0
:20320200E4F2800578AA7401F278AAE2F52E804D7405B53148E52E6044C004C005852F82B7
:20322200853083E493FAA3E493FD8A828D83A3A3E493FD740F5DFC530580E423CDC4235433
:203242001F6DCD541FCD6DCD30E40244E0FA90E683ED4CF0E043E020F0D005D004740225EC
:203262002FF52FE43530F530852F82853083E493FAA3E493FB4A60030231A178A7E22401F0
:04328200F2023143E0
:0437BF0004030904F2
:013286003215
:200076007900E94400601B7A009037C378C375923EE493F2A308B800020592D9F4DAF27552
:0200960092FFD7
:013287003214
:013288003213
:03010000022BECE3
:0301040002358B36
:030108000234A519
:03010C0002358732
:0301100002358D28
:030114000235B100
:030118000234A20C
:03011C000201B825
:03012000020F9C2F
:03012400020F9F28
:030128000234B6E8
:03012C000235B0E9
:03013000020FA219
:03013400020FA512
:03013800020FA80B
:03013C00020FAB04
:030140000234B3D3
:030144000201B8FD
:030148000235AAD3
:03014C000235ABCE
:030150000235ACC9
:030154000235ADC4
:030158000235AEBF
:03015C000235AFBA
:0301600002358CD9
:030164000201B8DD
:030168000201B8D9
:03016C000201B8D5
:030170000234B5A1
:030174000234B79B
:030178000234D678
:03017C000234D872
:030180000234B88E
:030184000234D76B
:030188000234D965
:03018C00023588B1
:0301900002341D19
:030194000234A38F
:030198000234A688
:03019C000234B278
:0301A0000234A185
:0301A4000234A47E
:0301A8000234B16D
:0301AC000234B466
:0301B0000232CF49
:0301B4000235B65B
:0101B8003214
:093289000000000000000000221A
:1B32920020F71130F6138883A88220F509F6A8837583002280FEF280F5F0223B
:0132AD0032EE
:2032AE00AA83AB828BF0903EACE0A4F8A9F08AF0E0A429F98BF0A3E0A429F58388822222EB
:0132CE0032CD
:0132CF0032CC
:2032D000AF82AE83ADF0FC78B2EFF2EE08F2ED08F2EC08F278B2E2FF78B0E28FF0A4FFAD3F
:2032F000F078B8EFF208EDF278B2E2FF78AEE28FF0A4FFADF078B6EFF208EDF278B9E2FFFC
:2033100078B5E2FE78AEE28EF0A42FFF78B9F278B4E2FE78AFE28EF0A42F78B9F278B8E27A
:20333000FE08E2FF78B4E2FD78AEE28DF0A4ABF02EFEEB3FFF78B8EEF208EFF278B3E2FD6F
:2033500078AFE28DF0A4ABF02EFEEB3FFF78B8EEF208EFF278B3E2FF78B0E28FF0A478B5E4
:20337000F278B3E2FF78AEE28FF0A4FFADF078B3EFF208EDF278B2E2FF78B1E28FF0A478D4
:20339000B1F278B2E2FF78AFE28FF0A4FFADF078AFEFF208EDF278AEE4F278B2F278B6E290
:2033B000F52E08E2F52F08E2F53008E2F53178B2E2FA08E2FB08E2FE08E2FFEA252EF52E91
:2033D000EB352FF52FEE3530F530EF3531F53178B6E52EF208E52FF208E530F208E531F217
:2033F00078B6E208E208E208E278AEE2FC08E2FD08E2FE08E2FFEC252EFCED352FFDEE3587
:0C34100030FEEF35318C828D838EF0226F
:01341C00327D
:01341D00327C
:20341E00AE82AF837D007C0078BBE2235401FB703578BAE225E0F208E233F278BAC3E2F520
:20343E00F0EE95F008E2F5F0EF95F0501478BAE2F5F008E2C313C5F01318F2C5F008F280AA
:20345E00050C8C0580C278BAC3E2F5F0EE95F008E2F5F0EF95F0400E78BAD3E29EF4B3FE80
:20347E00B308E29FF4FF78BAE2F5F008E2C313C5F01318F2C5F008F28D041DEC70C88E82E3
:03349E008F8322F7
:0134A10032F8
:20009E0078BCE84400600A790075923EE4F309D8FC7807E84400600C7901903EBCE4F0A374
:0400BE00D8FCD9FA97
:0134A20032F7
:0134A30032F6
:0134A40032F5
:0134A50032F4
:0134A60032F3
:0A34A70090E6A07480F07582012207
:0134B10032E8
:0134B20032E7
:0134B30032E6
:0134B40032E5
:0134B50032E4
:0134B60032E3
:0134B70032E2
:0134B80032E1
:1D34B90090E74078A2E2F090E6B57401F090E68AE4F090E68B04F090E6A003F022CF
:0134D60032C3
:0134D70032C2
:0134D80032C1
:0134D90032C0
:2034DA00E583700BE58224FA400122B4001122E5826003D5E0FD0075E0FED583F674F9D5C1
:2034FA00E0FD22C007C006C001C000AE82AF83EE2EF8EF33F9EE28FEEF39FF90E600E0F88B
:20351A00794C20E416C3EF13CE13CEFF795AE820E309C3EF13CE13CEFF7963E58124FAF8AD
:20353A00E926C313C313F9C3EE99F582EF9400F583D000D001D006D0075001220234DA74BC
:20355A0011C0E01234FD158122C007C006AE82AF837411C0E0EE4F600D1EBEFF011F900359
:0D357A00E81234FD80EF1581D006D0072245
:013587003211
:013588003210
:01358900320F
:01358A00320E
:01358B00320D
:01358C00320C
:01358D00320B
:0D0069007581331235B2E582600302006636
:1C358E0020F71430F6148883A88220F507E6A88375830022E280F7E49322E0224C
:0135AA0032EE
:0135AB0032ED
:0135AC0032EC
:0135AD0032EB
:0135AE0032EA
:0135AF0032E9
:0135B00032E8
:0135B10032E7
:0435B20075820022FC
:0135B60032E2
:00000001FF
