:06000000020069020F2856
:03000B000232B707
:0300130002329026
:03001B000232D8D6
:030023000235940F
:03002B00020F7D44
:030033000234266E
:03003B00023595F6
:03004300020100B7
:03004B00022AF096
:03005300020100A7
:03005B00023291DD
:03006300023292D4
:0500C200C2000200660F
:03006600020FB8CE
:2001C000AF82BF033B7800E2B4EE35787C7473F2743608F2903673E493787EF2E408F29049
:2001E000E0001228377D007EE090E6B57401F090E6B3EEF090E6B4EDF090E6A07480F02219
:2002000078A3EFF2780079A4E2F3903669022EA278827401F2E408F2746008F27880E4F29C
:2002200008F2788504F2E408F2788704F2758251122868E58260407801E2B4FF02803878CD
:2002400001E2B4C201227801E2B4C02B788274C0F2743F08F2E408F27880740CF2E408F235
:2002600078857440F2E408F2788704F2758251122868E582600122903FC074F9F0787C74E0
:20028000B7F2743608F2787E7410F2E408F2903FC1122837903FD1E4F0A3F0A3F0A3F02277
:2002A0007EC27F35903FC0E0FDBDF902802C740C2EFCE43FFD8C828D83E0F508A3E0F50934
:2002C000903FC0E0FB7A00E5084203E50942028C828D83EBF0EAA3F0802074082EF582E4BB
:2002E0003FF58374B4F07404A3F0740A2EF582E43FF5837413F07486A3F0903FE9E0604B1F
:200300009035D0E493FF1FC2D575F002EF30E704B2D5F404A430D50AF42401C5F0F4340083
:20032000C5F02459F582743635F0F583E493FEA3E493FF8E828F83787C74E9F2743F08F22D
:20034000787E7417F2E408F21228379035D2E493FF1FC2D575F002EF30E704B2D5F404A484
:2003600030D50AF42401C5F0F43400C5F02459F582743635F0F583E493FEA3E493FF903F2B
:20038000C0E0C4540F24408E828F83F074012EFCE43FFD903FC0E0FB740F5B24308C828D2A
:2003A00083F074032EFEE43FFF8E828F83787C74C1F2743F08F2787E7410F2E408F20228A7
:2003C0003720000E7802E25405600443B0202253B0DF22AF827802E24FF20203C1AF827829
:2003E00002E25F600FEFF4FF7802E25FF21203C1758201227582002230010A90E6A07401ED
:20040000F07481F022D20122AF82BF00028026BF01028005BF021A800C758200C0071223B7
:20042000CED0078010758201C0071223CED00780047582002278A2EFF27803E4F27804F297
:2004400078A514F278A6F290366912313275820122AF8278A2E2B40102800878A2E2B4028D
:200460000F80067806E4F2800B78067401F28004758200227805E2B4011E8F068EF005F04C
:2004800078667401800225E0D5F0FBF27806E2F582C00712242DD007EF2403F87905E3F297
:2004A00078A5EFF2780579A6E2F390366912313275820122E5822403F9E390E740F090E688
:2004C000B57401F090E68AE4F090E68B04F090E6A003F02290E6B8E0FFE4BF400104FE60BB
:2004E0001190E6B9E0FDBDB009C20190E6A07480F022E4BFC00104FD7006EE70030206E264
:2005000090E6B9E0FCE4BCA90104FB7008BC100280030206E2EF235401FE7F0090E6BA7848
:2005200009E0F2A3E008F290E6BE780BE0F2A3E008F27C00EB60057F510205C590E6BCE0E3
:20054000FAA3E0FBC374039AE49B4079EA2A900552738006800A800E80127F517C06806542
:200560007F527C08805F7F537C0880597809E2FA08E2FBC3E49A74109B404AC002C00378EF
:200580000BE2FA08E2FBC3E49A74109BD003D0024033C002C0037809790BE3C5F0E225F0FE
:2005A000FA09E3C5F008E235F0FBC3E49A74109BD003D002400F7F517C0674702BFB780965
:2005C000EAF2EB08F2C201EF700A90E6A07401F07481F022780BE2F5F008E245F0700122B0
:2005E000780BE2FA08E2FBC3EA9440EB940040047A407B00EE605490E6A0E020E1F97882B2
:200600007440F274E708F2E408F27885EAF2E408F278097980E2F308E209F378877401F2AF
:200620008F82122868E582700A90E6A07401F07481F02290E6B57401F090E68AE4F090E6CA
:200640008BEAF090E6A07480F0805A90E6B57401F090E68AE4F090E68BF090E6A07480F012
:2006600090E6A0E020E1F9788C7440F274E708F2E408F2788FEAF2E408F27809798AE2F393
:2006800008E209F378917401F27892ECF2789374FFF28F82122905E582700A90E6A07401EF
:2006A000F07481F022C0048A0A750B00780BE2F50C08E2F50DE50CC3950AFBE50D950BFC3D
:2006C000780BEBF2EC08F27809E2FA08E2FCE50A2AFAE50B3CFC7809EAF2EC08F2D004023D
:2006E00005D4ED7006EE700302078690E6B9E0FCBC13028003020786EF235401FC90E6BA4D
:20070000E0FF90E6BEE0FAA3E0FBC2018F82C004C003C0021212D8E582D002D003D0046015
:200720005BEC603290E6A0E020E1F98A047815ECF290E740C004121307E582D004603D90E8
:20074000E6B57401F090E68AE4F090E68BECF090E6A07480F02290E6B57401F090E68AE458
:20076000F090E68BF090E6A07480F090E6A0E020E1F97816EAF290E74002133890E6A074B6
:2007800001F07481F022ED605790E6B9E0FCBC124F90E6BEE0FBA3E0FCBB0144BC0041C248
:2007A0000190E6A0E020E1F91212D5E58260067B027C0080047B007C007802E2FAEB420289
:2007C00090E740EAF090E6B57401F090E68AE4F090E68B04F090E6A003F07582010203DD4C
:2007E000EE70030208D290E6B9E0FCBC110280030208D290E6BCE0FBA3E0FC4B6027C0075E
:200800007807E2FA08E2FF74012AF50CE43FF50D8B028C07EAB50C06EFB50D028005D007EF
:200820000208D2D0078B078C0690E6BEE0FAA3E0FDC201EF4E7028789AE4F2789B7410F24A
:20084000E408F2903FD575F000C007C006C005C002122AF11211BAD002D005D006D007EA55
:200860004D60678A038D04C3EB9440EC940040047B407C0090E6B57401F090E68AE4F090D5
:20088000E68BF090E6A07480F090E6A0E020E1F97813EBF290E740C007C006C005C003C019
:2008A0000212123CD002D003D005D006D0078B0C750D008A0A8D0BAB0CAC0DE50AC39BFBB2
:2008C000E50B9CFC8B028C0580957807EFF2EE08F222ED7006EE700302097F90E6B9E0FC9A
:2008E000BC1802800302097F90E6BEE0FBA3E0FCBB1005BC0002800302097FEF235401FC89
:20090000C201EC603690E6A0E020E1F9787C74D5F2743F08F2787E7410F2E408F290E740C5
:2009200012283790E6B57401F090E68AE4F090E68B7410F090E6A07480F022121290E58236
:20094000603390E6B57401F090E68AE4F090E68BF090E6A07480F090E6A0E020E1F9787CD1
:200960007440F274E708F2787E7410F2E408F2903FD502283790E6A07401F07481F022EDBE
:200980007006EE7003020A2990E6B9E0FCBC14028003020A2990E6BEE0FBA3E0FCBB020566
:2009A000BC00028003020A29EF235401FC90E6BCE0FBC201EC603B90E6A0E020E1F9781C83
:2009C0007440F274E708F28B82121500E582700A90E6A07401F07481F02290E6B57401F0F5
:2009E00090E68AE4F090E68B7402F090E6A07480F02290E6B57401F090E68AE4F090E68B3B
:200A00007402F090E6A07480F090E6A0E020E1F978187440F274E708F28B821213D7E5828B
:200A200070067582010203D322ED607590E6B9E0FCBC156D90E6BEE0FBA3E0FCBB0262BCDA
:200A4000005F90E6BCE0FCC20190E6A0E020E1F9903FC0E0FBBB3200401278417440F274FA
:200A6000E708F28C82121CD7AB82801078257440F274E708F28C82121773AB82EB700A9061
:200A8000E6A07401F07481F02290E6B57401F090E68AE4F090E68B7402F090E6A07480F09F
:200AA00022ED7006EE7003020BB590E6B9E0FCBC16028003020BB590E6BEE0FBA3E0FCBB21
:200AC0000405BC00028003020BB5EF235401FC90E6BCE0FBC201EC607090E6A0E020E1F92B
:200AE000903FC0E0FCBC3200401E784E7440F274E708F2785074022440F2E434E708F28B66
:200B000082121EE6AC82801C78337440F274E708F2783574022440F2E434E708F28B82123C
:200B2000197EAC82EC700A90E6A07401F07481F02290E6B57401F090E68AE4F090E68B742F
:200B400004F090E6A07480F02290E6B57401F090E68AE4F090E68B7404F090E6A07480F0BE
:200B600090E6A0E020E1F9903FC0E0FCBC3200401E78457440F274E708F27847740224407D
:200B8000F2E434E708F28B82121D4AAC82801C78297440F274E708F2782B74022440F2E42B
:200BA00034E708F28B821217E3AC82EC70067582010203D322ED607090E6B9E0FCBC176882
:200BC00090E6BEE0FBA3E0FCBB015DBC005AC201750C0190E6A0E020E1F9903FC0E0FCBCFC
:200BE0003200400D78557401F290E740122063800E783A7401F290E740121A9385820CE5E1
:200C00000C700A90E6A07401F07481F02290E6B57401F090E68AE4F090E68B04F090E6A05D
:200C200003F07582040203DDEE602D90E6B9E0FCBC192590E6BEE0FBA3E0FC4B701A90E68B
:200C4000BAE0FBA3E04B24FFE433F582C20112137890E6A07480F022ED7006EE7003020D31
:200C60003C90E6B9E0FCBC1A028003020D3C90E6BEE0FBA3E0FCBB0205BC00028003020DE7
:200C80003CEF235401FC90E6BCE0FBC201EC603B90E6A0E020E1F978227440F274E708F2D9
:200CA0008B821216A3E582700A90E6A07401F07481F02290E6B57401F090E68AE4F090E61F
:200CC0008B7402F090E6A07480F02290E6B57401F090E68AE4F090E68B7402F090E6A074B2
:200CE00080F090E6A0E020E1F978207440F274E708F28B821215BEE5827006758201020335
:200D0000D3788C74E5F2743F08F2E408F2788A7431F2E408F2788F7404F2E408F278910453
:200D2000F278927408F2789374FFF2758251122905E58270067582010203D322ED7006EE31
:200D40007003020E0B90E6B9E0FCBC1B028003020E0B90E6BEE0FBA3E0FCBB0205BC000275
:200D60008003020E0BEF235401FC90E6BCE0FBC201EC605190E6A0E020E1F9903FC0E0FCAA
:200D8000BC3000401E78627440F274E708F2786474012440F2E434E708F28B8212230FE55E
:200DA00082700A90E6A07401F07481F02290E6B57401F090E68AE4F090E68B7402F090E674
:200DC000A07480F02290E6B57401F090E68AE4F090E68B7402F090E6A07480F090E6A0E0B2
:200DE00020E1F9903FC0E0FCBC3000401790E7407860E0F290E7417861E0F28B821222D274
:200E0000E58270067582010203D322EE602F90E6B9E0FEBE1C2790E6BEE0FCA3E0FE4C702B
:200E20001C90E6BCE0FEC201D20053B0C353060FEE2E25E042B090E6A07480F022ED603A0D
:200E400090E6B9E0FEBE0F3290E6BEE0FCA3E0FEBC0127BE0024C20190E6A0E020E1F990EC
:200E6000E7407402F090E6B514F090E68AE4F090E68B04F090E6A003F022ED604F90E6B9F7
:200E8000E0FEBEC04790E6BCE0FDA3E0FEBD043CBE0039C201787C7485F2743608F290361F
:200EA00085787EE493F2A3E49308F290E0001228377D007EE090E6B57401F090E6B3EEF0E7
:200EC00090E6B4EDF090E6A07480F022BFC14F90E6B9E0FFBFC04790E6BCE0FEA3E0FFBEFC
:200EE000053CBF0039C201787C74ADF2743608F29036AD787EE493F2A3E49308F290E000F5
:200F00001228377E007FE090E6B57401F090E6B3EFF090E6B4EEF090E6A07480F02290E651
:200F2000A07401F07481F022C2A832903EBDE4F0A3F07582041203D3903FC0E0FFBF3200D5
:200F40004008903EBC121FE1800A783AE4F2903EBC121A93903EBCE0FF781874BDF2743E84
:200F600008F28F821213D7903FC0E0FFBF32004009903EBCE0F5821220CED2A82220000322
:200F800053B0EFC2CAC2CF32C0E0C082C08320000343B010D2CA5391EF90E65F74F3F0D05A
:200FA00083D082D0E032020F88020F88020F88020F88020F88020F8890E6007412F090E682
:200FC0007A7401F01202101202A0121369903FC0E0FFBF3200400F121C00E582700B758217
:200FE000011203D380031216FA1211B412236112329390E611E4F012329390E610E4F04350
:20100000B53443B00453B0CF75C801D2AD90E65EE043E0F3F0D2A8903FD1E0FCA3E0FDA38E
:20102000E0FEA3E0FFEC4D4E4F700302114D903FD1780DE0F2A3E008F2A3E008F2A3E0082B
:20104000F27D527811E4F208F243B010C0051211BAD005780DE2F5F008E242F008E242F078
:2010600008E245F0700302112A7C80780DC3E2948008E2940008E2940008E2940050047821
:201080000DE2FC78827400F274E008F2E408F27885ECF2E408F278117980E2F308E209F3E3
:2010A00078877401F28D82122868E58270087582011203D380747813ECF290E000C005C008
:2010C0000412123CD004D0058C027B007E007F00780DE2C39AF208E29BF208E29EF208E26C
:2010E0009FF28C037F007811E2FA08E2FEEB2AFAEF3EFE7811EAF2EE08F27811E2F5F00825
:20110000E245F060030210538D03EB04FDBD540280030210537D517811E2FA08E22470FBCD
:201120007811EAF2EB08F2021053780DE2F5F008E242F008E242F008E245F0700D1212902C
:20114000E58270067582011203D353B0EF758201122B4C3001031204D420A803120F2B200A
:2011600000F190E687E0702E90E684E0FFC313FF24FC40DFEF2F90117A7380068009800CCF
:1B118000800F43B00480CC63B00480C753B0FB80C263B00480BD43B00480B861
:2035C2001201000200000040B720B19D0002010203020A060002000000080000090400003E
:2035E20000FFFFFF060904000102FFFFFF070904000102FFFFFF080904010000FFFFFF068C
:203602000904010102FFFFFF070705020200020007050402000200070586020002000705CB
:2036220088020002000902000002010480FADE35E7350B361936F9350236123620360000AD
:203642000902000001020580FADE35F0350B361936000027364236C836E0360A371E375A3A
:20366200377A3783379837C235D43502553608593612034D005300460054003100300030D3
:2036820000C00028000000000104000100000000000000000157494E555342000000000061
:2036A20000000000000000000000000A000000000105000000393939393939393939393985
:2036C2003939393939007768697465717561726B2072657365617263680000000000476C66
:2036E2006173676F7720496E74657266616365204578706C6F726572202867697420363370
:20370200323837653331290058582D58585858585858585858585858585858005069706529
:203722002050206174207B327835313242204550324F55542F455036494E7D2C20512061F8
:2037420074207B327835313242204550344F55542F455038494E7D00506970652050206164
:2037620074207B347835313242204550324F55542F455036494E7D0044697361626C6564AD
:2037820000446F75626C652D6275666665726564203531324200517561642D6275666665A2
:0937A200726564203531324200E9
:20119B00E58030E30A20000343B0087582012220000353B0F77582002243B50802119B1284
:2011BB00329390E601E053E0FCF0903FC0E0FFBF10028019BF20028014BF30028017BF3114
:2011DB00028012BF3202800DBF3310800843B50253B0FD800643B2025380FD900001123537
:2011FB006453B2F743B31C4390105390F7903FC0E0FFBF10028019BF20028014BF300280E7
:20121B0014BF3102800FBF3202800ABF330A800543B00280034380029004B01235640211E1
:20123B009B75AF0385829B85839A90E67B7813E2F8E0A2E7C2949292D294A2E6C2949292EC
:20125B00D294A2E5C2949292D294A2E4C2949292D294A2E3C2949292D294A2E2C2949292DD
:20127B00D294A2E1C2949292D294A2E0C2949292D294D8BD227431C29400D294D5E0F85310
:20129B00B3E3903FC0E0FFBF10028019BF20028014BF30028019BF31028014BF3202800FBE
:2012BB00BF3314800A90E601E043E023F0800890E601E043E063F002119B02119BE5827866
:2012DB0014F2758210122623E582601978707401F2E408F2903E1475F060122657E5826081
:2012FB00047582012212263B75820022AE82AF83758211122623E582601C7D007815797589
:20131B00E2F3E409F38E828F838DF01226DEE58260047582012212263B75820022AE82AFF8
:20133B00837D0078167970E2F3E409F38E828F838DF0122657E582600E12263BE582700316
:0E135B00F582227582012212263B7582002245
:2013690074BE55B04480F5B043B5C153B07F22E582600453B07F2243B08022AF827E008F25
:2013890005BD0102800ABF02028017BD031F8016903FC0E0FFBF330050047E0C800F7E0ECD
:2013A900800B7E0D80077817E270027E48EE7003F58222EE2EFE7817E24EF582122623E554
:2013C90082700712263B7582002275820122AF827E007818E2F58208E2F583E0FCA3E0FD0F
:2013E900EF30E0027E01EF30E103430640EF30E013903FE5E0FAA3E0FBC3EA9CEB9D500495
:2014090075820022EF30E113903FE7E0FAA3E0FBC3EA9CEB9D500475820022EC4D700FEEA5
:20142900F4FB52B0781AE4F2781BF20214B38C028D03C3EA9472EB94064008747C9A74154B
:201449009B500475820022C006EA248EFAEB34F9FB78ACEAF2E2F5F0EBC4C5F0C4540F6555
:20146900F0C5F0540FC5F065F0F2C5F008F290010DC007C006C005C0041232B8AA82AB83A6
:20148900D004D005D006D007EBC4CAC4540F6ACA540FCA6ACAFB74E0C39AFA740F9BFBFEFB
:2014A900781AEEF2781BEAF2D0067817E4F28F82C006C005C004121384E582D004D005D01E
:2014C900067003F5822278707402F2E408F2903E1A75F060122657E582700712263B75823F
:2014E900002212263BE5827003F58222EC4D6003EE42B075820122AF82BF01028005BF020C
:201509000A80047E0180087E40800475820022EE55B07011781CE2F58208E2F583E4F0A398
:20152900F07582012278177401F28F82121384E5827003F5822278757402F2E408F2903E74
:201549001E75F0601226DEE5827003F58222781EE2FE7F00781FE27C004207EC4206781C1B
:20156900E2FC08E2FDEEC4CFC4540F6FCF540FCF6FCFFE74FFC39FFFE49EFE78ACEFF2EE02
:2015890008F2900098C005C0041232B8786D740AF2E408F212259AE5828583F0D004D0058F
:2015A9002472FE740635F0FF8C828D83EEF0EFA3F075820122AF827820E2FD08E2FE8D82B9
:2015C9008E83E0FBA3E0FC4B601D8B0E8C0FC3E50E9472E50F9406400A747C950E74159556
:2015E9000F500475820022750EAB750F37850E82850F83E493FA700302169FEA5F700302F8
:201609001691781C74BFF2743E08F28A82C007C006C005C004C003121500E582D003D0049B
:20162900D005D006D0077003F58222C007903EBFE0FAA3E0FFC3EB9AEC9FD0075030850EA6
:2016490082850F83E493FA7818EDF2EE08F28A82C007C006C005C004C0031213D7E582D008
:2016690003D004D005D006D0077003F58222850E82850F83A3E49325E0FA24E5F582E4341F
:201689003FF583EBF0ECA3F07402250EF50EE4350FF50F0215F675820122AF827EAB7D3723
:2016A9008E038D048B828C83E493FA6040EFB5022F7822E2F52E08E2F52F8E828D83A3E4A9
:2016C9009325E024E5F582E4343FF583E0FDA3E0FE852E82852F83EDF0EEA3F075820122D8
:1116E90074022BFBE43CFC8B068C0580B775820022C6
:0637AB0001000201000014
:2016FA0090E670E043E001F05388FE22A982E3FE7F0009E37C004207EC4206EEC4CFC454F2
:20171A000F6FCF540FCF6FCFFE78ACEFF2EE08F29001031232B8786D740AF2E408F202251D
:20173A009AAE82AF8378ACEEF2EF08F290000A1232B8786D7403F2740108F212259AAE8252
:20175A00E583C454F0CEC4CE6ECE54F0CE6EFF7824E2F9EFF309EEF322AF827DB17E378DDE
:20177A00038E048B828C83E493FA6059EFB502488D828E83A3E493FA78687427F27867E422
:20179A00F278697402F28A821224E7E5827003F582227825E2F51008E2F51175822712179D
:2017BA0006858212858313851082851183E512F0E513A3F07582012274022BFBE43CFC8BD6
:2017DA00058C06809E75820022AF82782DE4F2782EF2782F740FF27830F4F278317403F221
:2017FA007832E4F27829E2F58208E2F583E0FDA3E0FE8D038E04C3747C9B74159C4023C0DD
:20181A0007782BE2FB08E2FC8B828C83E0FAA3E0FF8A148F15C3747C951474159515D00721
:20183A00500475820022ED4E700C747CB514077415B5150280377824742DF28D828E83C08F
:20185A0007C004C00312173BD003D0048B828C83E0FBA3E0FC7824742FF28B828C831217E9
:20187A003BD00778327414F2783274D4F27DB17E378D828E83E493FC700302197AEC5F70FB
:20189A000302197074012DFBE43EFC8B828C83E493FA786B742DF2786A7403F2786C14F2AD
:2018BA008A82C007C006C005C004C00312253FE582D003D004D005D006D0077003F5822217
:2018DA008B828C83E493FA786B742FF2786A7404F2786C03F28A82C007C006C005C004C0E2
:2018FA000312253FE582D003D004D005D006D0077003F582228B828C83E493FA786B7431A4
:20191A00F2786A7401F2786CF28A82C007C006C005C004C00312253FE582D003D004D0055E
:20193A00D006D0077003F582228B828C83E493FB786B7432F2786A7402F2786C14F28B828A
:20195A00C007C006C00512253FE582D005D006D0077003F5822274022DFDE43EFE02188B4B
:20197A0075820122AF827DB17E378D038E048B828C83E493FA7003021A83EFB50202800333
:20199A00021A7574012DF516E43EF517851682851783E493FD78687439F278677402F278D3
:2019BA006914F28D821224E7E5827003F582227839E270217833E2F58208E2F583E4F0A3FE
:2019DA00F07835E2F58208E2F583747CF07415A3F075820122851682851783E493FD7868EF
:2019FA007437F278677403F2786914F28D821224E7E5827003F582227833E2F51808E2F5E9
:201A1A0019758237121706AA82AE83851882851983EAF0EEA3F0851682851783E493FE7815
:201A3A00687437F278677404F2786903F28E821224E7E5827003F582227835E2F51808E242
:201A5A00F519758237121706AA82AE83851882851983EAF0EEA3F07582012274022BFBE46F
:201A7A003CFC8B058C0602198875820022E5805401B40100E433F58222AF83E582783BF2D9
:201A9A00EF08F2783BE2F58208E2F583E4F07CB17D378C828D83E4937003021BB874012CA2
:201ABA00FAE43DFB8A828B83E493FF7868743DF278677401F27869F28F82C005C004C0036D
:201ADA00C0021224E7E582D002D003D004D0057003F58222783DE27003021BAE783EE4F2EB
:201AFA00783BE2F58208E2F583E0FF8C828D83E4934207783BE2F58208E2F583EFF08A8248
:201B1A008B83E493FF7868743EF278677402F2786914F28F82C005C004C003C0021224E739
:201B3A00E582D002D003D004D0057003F58222783AE260308A828B83E493FA7868743DF298
:201B5A0078677401F27869F28A82C005C0041224E7E582D004D0057003F58222783EE244A8
:201B7A0004F28006783EE254FBF28C828D83A3E493FF786B743EF2786A7402F2786C14F204
:201B9A008F82C005C00412253FE582D004D0057003F5822274022CFCE43DFD021AAC758284
:021BBA00012206
:0637B10001540255000066
:201BBC00AF82786B743FF2786A7412F2786CE4F28F82C00712253FE582D0077003F58222A4
:201BDC00783F74FFF2786B743FF2786A74D2F2786C7401F28F8212253FE5827003F58222E6
:201BFC00758201227EB77F378E828F83E49360378E828F83A3E493FCA3E493FD8C828D8327
:201C1C00E4F08E828F83A3A3A393F582C007C006121BBCE582D006D0077003F582227404B1
:201C3C002EFEE43FFF80C175820122E582F904F8E2FF7E007D008D258E248F238E22E3FA04
:201C5C00E4FBFEFFE5224202E5234203E5244206E525420778AEEAF2EB08F2EE08F2EF088A
:201C7C00F2900005E4F5F01232DAAC82AD83AEF0C313FFEE13FEED13FDEC13FCEFC313EE5F
:201C9C0013ED13FDEC13F5828D8322AE82AF83EE2EF582EF33F583E5822582F582E58333C1
:201CBC00F583786D7405F2E408F212259AAE82AF837840E2F9EEF309EFF322AF827DB77ECB
:201CDC00378D038E048B828C83E493FA605CEFB5024B8D828E83A3A3A3E493FA7868744344
:201CFC00F278677488F278697402F28A821224E7E5827003F582227841E2F52608E2F52768
:201D1C00758243121C47858228858329852682852783E528F0E529A3F07582012274042BE1
:201D3C00FBE43CFC8B058C06809B75820022AF827849E4F2784AF2784B74F8F2784C747FC6
:201D5C00F2784D74FFF27845E2F58208E2F583E0FDA3E0FE8D038E04C3747C9B74159C40A0
:201D7C001DC0077847E2FB08E2FC8B828C83E0FAA3E0FFC3747C9A74159FD00750047582D2
:201D9C000022ED4E601E78407449F28D828E83C007C004C003121CA7D003D004D007784D5F
:201DBC00E254FEF28B828C83E0FDA3E0FE8D038E04BB7C05BC150280167840744BF28D8228
:201DDC008E83C007121CA7D007784DE254FDF27DB77E378D828E83E493FC7003021EE2EC9C
:201DFC005F7003021ED874032DFBE43EFC8B828C83E493FA786B7449F2786A7458F2786C9D
:201E1C007402F28A82C007C006C005C004C00312253FE582D003D004D005D006D0077003E0
:201E3C00F582228B828C83E493FA786B744BF2786A7457F2786C7402F28A82C007C006C088
:201E5C0005C004C00312253FE582D003D004D005D006D0077003F582228B828C83E493FA3B
:201E7C00786B744DF2786A74D2F2786C7401F28A82C007C006C005C004C00312253FE58289
:201E9C00D003D004D005D006D0077003F582228B828C83E493FB786B744DF2786A7403F282
:201EBC00786CE4F28B82C007C006C00512253FE582D005D006D0077003F5822274042DFDE0
:201EDC00E43EFE021DEF75820122AF827DB77E378D038E048B828C83E493FA7003021FDD64
:201EFC00EFB502028003021FCF74032DF52AE43EF52B852A82852B83E493FD78687452F236
:201F1C0078677458F278697402F28D821224E7E5827003F582227852E270147853E2700FC4
:201F3C00784EE2F58208E2F583E4F0A3F0801E784EE2F52C08E2F52D758252121C47AA8240
:201F5C00AE83852C82852D83EAF0EEA3F0852A82852B83E493FE78677457F278687452F264
:201F7C0078697402F28E821224E7E5827003F582227852E2FEBEF8197853E2FEBE7F127871
:201F9C0050E2F58208E2F583747CF07415A3F0801E7850E2F52C08E2F52D758252121C47EB
:201FBC00AA82AE83852C82852D83EAF0EEA3F07582012274042BFBE43CFC8B058C06021ECF
:201FDC00F075820022AE82AF83E4F07CB77D378C828D83E493606C8C828D83A3A3A3E493E0
:201FFC00FB78687454F278677480F2786923F28B82C007C006C005C0041224E7E582D004FA
:20201C00D005D006D0077003F582227854E2540F60288E828F83E0FB8C828D83E4934203A6
:20203C008E828F83EBF08C828D83A3E493FAA3E493FB8A828B837854E2F074042CFCE43DC7
:20205C00FD808C75820122AE82AF83E4F07CB77D378C828D83E493FB6057C00374012CF584
:20207C002EE43DF52F852E82852F83E493FAA3E493FB8A828B83E0FA540F7004D003802899
:20209C00D0038E828F83E0FA42038E828F83EBF07855E26013852E82852F83E493FAA3E48D
:2020BC0093FB8A828B83E4F074042CFCE43DFD80A022AF827DB77E378D828E83E493FC706B
:2020DC00030221EEEC5F70030221E474032DFBE43EFC8B828C83E493FA78687456F2786746
:2020FC007458F278697402F28A82C007C006C005C004C0031224E7E582D003D004D005D008
:20211C0006D0077003F582228B828C83E493FA78687458F278677457F278697402F28A829E
:20213C00C007C006C005C004C0031224E7E582D003D004D005D006D0077003F582228B82E4
:20215C008C83E493F582C007C006C005C004C003121BBCE582D003D004D005D006D00770A4
:20217C0003F582228B828C83E493FA786B7456F2786A7458F2786C7402F28A82C007C006F6
:20219C00C005C004C00312253FE582D003D004D005D006D0077003F582228B828C83E49332
:2021BC00FB786B7458F2786A7457F2786C7402F28B82C007C006C00512253FE582D005D09B
:1621DC0006D0077003F5822274042DFDE43EFE0220D47582012232
:0C37B70001C13E4002C23E410000000083
:2021F200AF827E008F05BD01028005BF020880047E2080027E21EE7003F58222EE2EFE78AD
:202212005AE24EF582122623E5827003F5822275820122AF82785AE4F28F821221F2E5824D
:20223200603878707401F2E408F2903E5B75F060122657E582602378707401F2E408F290A3
:202252003E5C75F060122657E582600E12263BE5827003F582227582012212263B7582003F
:2022720022AF82785AE4F28F82C0071221F2E582D007604578707401F2E408F2903E5D75A4
:20229200F060122657E5826030785A7401F28F821221F2E5826022785EE2FD08E2FE7F00E2
:2022B20078757401F2E408F28D828E838FF01226DEE58260047582012212263B75820022B4
:2022D200AF82785B7401F27861795CE2F38F82C007122225E582D0077003F582227860E2C9
:2022F200F4F2785B7403F27860795CE2F38F82122225E5827003F5822275820122AF827888
:202312005D7401F27864795EE2F308E209F38F82C007122273E582D0077003F58222785DDB
:202332007403F27862795EE2F308E209F38F82122273E5827003F582227862E2FE08E2FFE8
:0F2352008E828F83E0F48E828F83F0758201225A
:2023610012329390E60B7403F012329390E6017480F012329390E6047480F012329390E6E9
:2023810009E4F012329390E6027498F012329390E60374FEF012329390E670E043E080F032
:2023A10012329390E618E053E0FEF012329390E619E053E0FEF012329390E61AE053E0FED7
:2023C100F012329390E61BE053E0FEF022E582FF60067E007D0080047E027D801232939052
:2023E100E6047480F012329390E61274A04EF012329390E61374204DF012329390E6147457
:20240100E04EF012329390E61574604DF0EF60067D017E0080047D037E007866EDF28F8289
:2024210012242D12329390E604E4F022AF827866E25401605F12329390E618E4F0123293DC
:2024410090E604E043E002F012329390E6497482F012329390E6497482F0EF6012123293DC
:2024610090E6497482F012329390E6497482F012329390E6187410F012329390E61AE4F026
:2024810012329390E604E043E006F012329390E61A7404F07866E25402604A12329390E615
:2024A10019E4F012329390E604E043E004F012329390E6497484F012329390E6497484F0EA
:2024C10012329390E6197410F012329390E61BE4F012329390E604E043E008F01232939032
:0624E100E61B7404F0226A
:2024E700E5822582FFF582122623E582604378707401F2E408F2903E6775F060122657E551
:2025070082602E74014FF582122623E58260227868E2FD7E007F6078697975E2F3E409F385
:202527008D828E838FF01226DEE58260047582012212263B75820022E582FF25E0F582127A
:202547002623E582604678707401F2E408F2903E6A75F060122657E5826031786CE2601E29
:20256700786BE2FD7E007F60786C7970E2F3E409F38D828E838FF0122657E582600E122678
:132587003BE5827003F582227582012212263B75820022ED
:20259A00AE82AF837C007D007B10EF235401FAEE2EFEEF33FFEC2CFCED33FDEA60034304DA
:2025BA0001786DC3E2F5F0EC95F008E2F5F0ED95F04011786DD3E29CF4B3FCB308E29DF487
:0B25DA00FD430601DBC48E828F8322CC
:2025E500C007C000AF8290E678E020E00E786FE260F4786FE4F2758200801E90E678E030D5
:20260500E2057582008012EF600C90E678E0FF035401F5828003758201D000D00722C00743
:20262500AF8290E6787480F090E679EFF07582011225E5D0072290E678E030E204758200DC
:202645002290E6787440F090E678E020E6F975820122C007C006C004C003C002C000AFF0A5
:20266500AE83E5827872F2EE08F2EF08F27870E2F5F008E245F07005758201804F7B007C0F
:20268500007870E2B5030708E2B50402802B7872E22BFA08E23CFE08E2FF8A828E838FF0C2
:2026A500123599FA90E679F07582011225E5E58260070BBB00CB0C80C87870E2B503080803
:2026C500E2B50403D38001C3E433F582D000D002D003D004D006D00722C007C006C005C088
:2026E50004C003C002C001C000AFF0AE83E5827877F2EE08F2EF08F27875E2F5F008E245FF
:20270500F070067582010228267875E2FB08E2FCBB0109BC000690E6787420F090E679E08E
:202725007B007C00787AE4F208F2787A7975E2F5F0E3B5F00C08E2F5F009E3B5F003022813
:20274500007582001225E5E5827003022813787AE2FD08E2FE74022DFDE43EFE7875E2B54D
:20276500050708E2B506028002800690E6787420F0787AE2FD08E2FE0DBD00010E7875E2C6
:20278500B5050708E2B506028002803575AF03759AE6759B7890E67B7440F0E0ACE0787701
:2027A500797AE3C5F0E225F0FD09E3C5F008E235F0FE08E2FF8D828E838FF0EC12329C8013
:2027C500257877797AE3C5F0E225F0FD09E3C5F008E235F0FE08E2FF90E679E0FA8D828E64
:2027E500838FF012329C787AE22401F208E23400F2787AE2FB08E2FC02272F90E678E030EC
:20280500E205758200801A90E678E020E6F97875E2B5030808E2B50403D38001C3E433F516
:1228250082D000D001D002D003D004D005D006D0072261
:20283700AA82AB83787CE2FC08E2FD787EE2FE08E2FFEE60010FEF601775AF078A9B8B9A76
:112857008C9E8D9D90E67CE090E67BF0DEF6DFF422A0
:20286800C007C006C005C001C000AF827887E260127881E2FE7888EEF27880E2FE7889EE79
:20288800F280087880E2FE7888EEF2EF2FFFF582122623E58260557887E2FDE23395E0FE8D
:2028A8000DBD00010E7870EDF2EE08F2903E8875F060122657E582603374014FF582122671
:2028C80023E582602778857975E2F308E209F37882E2F58208E2F58308E2F5F01226DEE5BA
:2028E800827004F582800B758201800612263B758200D000D001D005D006D00722C007C024
:2029080006C005C004C003C002C001C000AF827894E4F208F2EF2FFFF582122623E5827047
:2029280003022AC07892E2FC8CF005F07B017C008006EB2BFBEC33FCD5F0F77894798FC30A
:20294800E3F5F0E295F009E3F5F008E295F04003022AC07891E26012788BE2FA7896EAF2AB
:20296800788AE2FA7897EAF28008788AE2FA7896EAF2C003C0047891E2FAE23395E0FC0A3A
:20298800BA00010C7870EAF2EC08F2903E9675F060122657E582D004D0037003022AC0C0D9
:2029A80007788AE2F58208E2F5838B028C0778BAEAF2EF08F2C007C004C003C002C001C0A3
:2029C80000123428AD82AE83D000D001D002D003D004D007EAC39DFAEF9EFF7898EAF2EF85
:2029E80008F2788F7994E3F5F0C3E295F0FE09E3F5F008E295F0FF7898C3E2F5F0EE95F085
:202A080008E2F5F0EF95F0D0075020788F7994E3F5F0C3E295F0C0E009E3F5F008E295F03E
:202A2800C0E07899D0E0F218D0E0F2788C7994E3C5F0E225F0FA09E3C5F008E235F0FD0832
:202A4800E2FE78987970E2F308E209F38A828D838EF0122657E582605F12263BE58270043D
:202A6800F58280737E007893E2600B7893C3E2F5F0EE95F0500C8F82122623E58270030E56
:202A880080E47893E2B50605758200804A788A7998E3C5F0E225F0F209E3C5F008E235F018
:202AA800F278947998E3C5F0E225F0F209E3C5F008E235F0F202294312263B7894798FE205
:202AC800F5F0E3B5F00C08E2F5F009E3B5F003D38001C3E433F582D000D001D002D003D057
:082AE80004D005D006D007223E
:06009800E478FFF6D8FD3C
:012AF00032B3
:202AF100AFF0AE83E582789DF2EE08F2EF08F2789BE2F52E08E2F52F789BE2F5F008E24587
:202B1100F0602A789DE2FA08E2FB08E2FC789AE2FFAD2EAE2F8A828B838CF0EF12329CA3BB
:1B2B3100AA82AB831DBDFF011EED4E70E8789DE2F58208E2F58308E2F5F022E3
:202B4C00AF8278A1E4F278A2F2D2E890E668E043E008F090E65CE043E001F090E65D74019C
:202B6C00F0D2AF90E680E020E10890E680E043E002F0EF600E90E680E043E008F090000A26
:202B8C0012356E90E680E053E0F7F022AF82BF00028037BF01028036BF02028039BF040200
:202BAC008038BF06028037BF08028036BF80028019BF8102801CBF8202801BBF8402801ADF
:202BCC00BF86028019BF881E801890E6A02290E6A12290E6A22290E6A32290E6A42290E674
:202BEC00A52290E6A62290000022C021C0E0C0F0C082C083C007C006C005C004C003C002C1
:202C0C00C001C000C0D075D000C08675860090E6B8E0FFE4BF800104FE601B90E6B9E0FD57
:202C2C00BD061390E6BAE0FCA3E0F5827800ECF21201C0022E7AEF702A90E6B9E0FDBD097E
:202C4C002290E6BAE0F582120408E582600990E6A07480F0022E7A90E6A07401F07481F0CD
:202C6C00022E7AEE600E90E6B9E0FDBD08061234C3022E7A8F05BD013290E6B9E0FDBD0B60
:202C8C002A90E6BCE0FD90E6BA7805E0F28D82120451E582600990E6A07480F0022E7A90F6
:202CAC00E6A07401F07481F0022E7AE4BF810104FD601490E6B9E0FCBC0A0C90E6BCE0F510
:202CCC00821204B4022E7AEF703790E6B9E0FCBC032F90E6BAE0FBA3E0FCBB0110BC000D44
:202CEC0078A17401F290E6A003F0022E7ABB0205BC00028003022E7A90E6A07480F0022EBE
:202D0C007AEE603590E6B9E0702F78A0E2FE78A1E225E0FC420690E740EEF090E741E4F09F
:202D2C0090E6B504F090E68AE4F090E6A07480F090E68B7402F0022E7AED602890E6B9E005
:202D4C00702290E740E4F090E741F090E6B504F090E68AE4F090E6A07480F090E68B74023E
:202D6C00F0022E7ABF02028003022E1F90E6B9E0FEBE03028008BE01028003022E1F90E6B7
:202D8C00BAE0FDA3E0FE4D6003022E7A90E6BCE0F582122B98AD82AE83ED4E7003022E7A9F
:202DAC0090E6B9E0FCBC03188D828E83E0FC4304018D828E83ECF090E6A07480F0022E7A41
:202DCC0090E6BCE0F582C006C0051234B1E582D005D0067003022E7A8D828E83E0FC53045A
:202DEC00FE8D828E83ECF090E6BCE0FDA3E08D0453040F530580E4C423CDC423541F6DCD40
:202E0C00541FCD6DCDFE90E683ED4CF0E043E020F0805BBF825290E6B9E0704C90E6BCE0AE
:202E2C00F582122B98AE82AF838E048F05EE4F603D8C828D83E0FC5304017F00EC4FB40117
:202E4C0000B39202E433FF90E740F090E741E4F090E6B504F090E68AE4F090E6A07480F0E9
:202E6C0090E68B7402F0800690E6B81203F85391EF90E65D7401F0D086D0D0D000D001D0AC
:202E8C0002D003D004D005D006D007D083D082D0F0D0E0D02132AE82AF8378A3E2B4012C83
:202EAC0078A4E270278E828F83E493FCA3E493FD787CECF2ED08F28C828D83E493787EF28F
:202ECC00E408F290E00012283702311778A3E2B4063F78A4E2703A8E828F83A3A3E493FC64
:202EEC00A3E493FD4C700A90E6A07401F07481F0228C028D03787CEAF2EB08F28C828D8376
:202F0C00E493787EF2E408F290E00012283702311778A3E2B4020280030230328E828F837F
:202F2C00A3A3A3A3E493FD78A4C3E29D40030230328E828F83A3A3A3A3A3E493FCA3E493A2
:202F4C00FD78A4E275F002A42CF582ED35F0F583E493FCA3E493FD74092CFFE43DFE8C0253
:202F6C008D03787CEAF2EB08F28C828D83E493787EF2E408F290E000C007C006C005C0041F
:202F8C00122837D004D005D006D0078C828D83E493FC2400F51AE434E0F51B8F028E0385EB
:202FAC001A1C851B1D8A828B83E493FCA3E493FD787CECF2ED08F28C828D83E493787EF238
:202FCC00E408F2851C82851D83C003C002122837D002D0038A828B83E493FCA3E493FD8CF4
:202FEC00828D83E493251AF51AE4351BF51B74022AFAE43BFB8A828B83E493FCA3E4934C83
:20300C00709D90E002E0FCA3E0FD4C6003023117E51AC39400FCE51B94E0FD90E002ECF0BF
:20302C00EDA3F002311778A3E2B4030474018001E4FD602278A4E2701D787C74C3F2743756
:20304C0008F29037C3E493787EF2E408F290E000122837023117ED700302310D78A4E2FCDE
:20306C007D0024FFFAED34FFFB74072EF582E43FF583C006C007E493FF7E00C3EA9FEB64B8
:20308C00808EF063F08095F0D007D006507374082EF582E43FF583E493FEA3E493FF1CBC3C
:2030AC00FF011DEC2CFCED33FDEC2EF582ED3FF583E493FEA3E493FF90E0007402F090E0AD
:2030CC000104F074012401FCE434E0FD8E828F83E493FB60360EBE00010F8C828D83EBF065
:2030EC0074012CFAE43DFB8A828B83E4F0042AFCE43BFD90E000E0FB0B0B90E000EBF080AD
:20310C00CB90E6A07401F07481F0227E007FE090E6B57401F090E6B3EFF090E6A07480F0E7
:20312C0090E6B4EEF022AE82AF83A3A3A3A3A3E493FCA3E493FD74042EFEE43FFF78A7E475
:20314C00F28E828F83E493FA78A7C3E29A400122C006C00778A7E275F002A42CF582ED35BF
:20316C00F0F583E493FAA3E493FF78A874092AF2E43F08F2752E008A828F83A3A3A3A3A38B
:20318C00E493FF78A2E2B507028007D007D006023287D007D00678A8E2F52F08E2F530C062
:2031AC0004C005852F82853083E493FAA3E493FD8A828D83A3E493F5317404B53102800602
:2031CC00D005D004804AD005D004852F82853083E493F532A3E493F533853282853383A362
:2031EC00A3E493FA78A5E2B50214853282853383A3A3A3E493FA78A6E2B50202800678AAB6
:20320C00E4F2800578AA7401F278AAE2F52E804D7405B53148E52E6044C004C005852F82AD
:20322C00853083E493FAA3E493FD8A828D83A3A3E493FD740F5DFC530580E423CDC4235429
:20324C001F6DCD541FCD6DCD30E40244E0FA90E683ED4CF0E043E020F0D005D004740225E2
:20326C002FF52FE43530F530852F82853083E493FAA3E493FB4A60030231AB78A7E22401DC
:04328C00F202314DCC
:0437C30004030904EE
:01329000320B
:200076007900E94400601B7A009037C778C375923EE493F2A308B800020592D9F4DAF2754E
:0200960092FFD7
:01329100320A
:013292003209
:03010000022BF6D9
:030104000235962B
:030108000234AF0F
:03010C0002359227
:030110000235981D
:030114000235BCF5
:030118000234AC02
:03011C000201B825
:03012000020FA625
:03012400020FA91E
:030128000234C0DE
:03012C000235BBDE
:03013000020FAC0F
:03013400020FAF08
:03013800020FB201
:03013C00020FB5FA
:030140000234BDC9
:030144000201B8FD
:030148000235B5C8
:03014C000235B6C3
:030150000235B7BE
:030154000235B8B9
:030158000235B9B4
:03015C000235BAAF
:03016000023597CE
:030164000201B8DD
:030168000201B8D9
:03016C000201B8D5
:030170000234BF97
:030174000234C191
:030178000234E16D
:03017C000234E367
:030180000234C284
:030184000234E260
:030188000234E45A
:03018C00023593A6
:030190000234270F
:030194000234AD85
:030198000234B07E
:03019C000234BC6E
:0301A0000234AB7B
:0301A4000234AE74
:0301A8000234BB63
:0301AC000234BE5C
:0301B0000232D93F
:0301B4000235C150
:0101B8003214
:0932930000000000000000002210
:1B329C0020F71130F6138883A88220F509F6A8837583002280FEF280F5F02231
:0132B70032E4
:2032B800AA83AB828BF0903EACE0A4F8A9F08AF0E0A429F98BF0A3E0A429F58388822222E1
:0132D80032C3
:0132D90032C2
:2032DA00AF82AE83ADF0FC78B2EFF2EE08F2ED08F2EC08F278B2E2FF78B0E28FF0A4FFAD35
:2032FA00F078B8EFF208EDF278B2E2FF78AEE28FF0A4FFADF078B6EFF208EDF278B9E2FFF2
:20331A0078B5E2FE78AEE28EF0A42FFF78B9F278B4E2FE78AFE28EF0A42F78B9F278B8E270
:20333A00FE08E2FF78B4E2FD78AEE28DF0A4ABF02EFEEB3FFF78B8EEF208EFF278B3E2FD65
:20335A0078AFE28DF0A4ABF02EFEEB3FFF78B8EEF208EFF278B3E2FF78B0E28FF0A478B5DA
:20337A00F278B3E2FF78AEE28FF0A4FFADF078B3EFF208EDF278B2E2FF78B1E28FF0A478CA
:20339A00B1F278B2E2FF78AFE28FF0A4FFADF078AFEFF208EDF278AEE4F278B2F278B6E286
:2033BA00F52E08E2F52F08E2F53008E2F53178B2E2FA08E2FB08E2FE08E2FFEA252EF52E87
:2033DA00EB352FF52FEE3530F530EF3531F53178B6E52EF208E52FF208E530F208E531F20D
:2033FA0078B6E208E208E208E278AEE2FC08E2FD08E2FE08E2FFEC252EFCED352FFDEE357D
:0C341A0030FEEF35318C828D838EF02265
:013426003273
:013427003272
:20342800AE82AF837D007C0078BBE2235401FB703578BAE225E0F208E233F278BAC3E2F516
:20344800F0EE95F008E2F5F0EF95F0501478BAE2F5F008E2C313C5F01318F2C5F008F280A0
:20346800050C8C0580C278BAC3E2F5F0EE95F008E2F5F0EF95F0400E78BAD3E29EF4B3FE76
:20348800B308E29FF4FF78BAE2F5F008E2C313C5F01318F2C5F008F28D041DEC70C88E82D9
:0334A8008F8322ED
:0134AB0032EE
:20009E0078BCE84400600A790075923EE4F309D8FC7807E84400600C7901903EBCE4F0A374
:0400BE00D8FCD9FA97
:0134AC0032ED
:0134AD0032EC
:0134AE0032EB
:0134AF0032EA
:0134B00032E9
:0A34B10090E6A07480F075820122FD
:0134BB0032DE
:0134BC0032DD
:0134BD0032DC
:0134BE0032DB
:0134BF0032DA
:0134C00032D9
:0134C10032D8
:0134C20032D7
:1E34C30090E74078A2E2F090E6B57401F090E68AE4F090E6A07480F090E68B23F022B4
:0134E10032B8
:0134E20032B7
:0134E30032B6
:0134E40032B5
:2034E500E583700BE58224FA400122B4001122E5826003D5E0FD0075E0FED583F674F9D5B6
:20350500E0FD22C007C006C001C000AE82AF83EE2EF8EF33F9EE28FEEF39FF90E600E0F87F
:20352500794C20E416C3EF13CE13CEFF795AE820E309C3EF13CE13CEFF7963E58124FAF8A2
:20354500E926C313C313F9C3EE99F582EF9400F583D000D001D006D0075001220234E574A6
:2035650011C0E0123508158122C007C006AE82AF837411C0E0EE4F600D1EBEFF011F900342
:0D358500E812350880EF1581D006D007222E
:013592003206
:013593003205
:013594003204
:013595003203
:013596003202
:013597003201
:013598003200
:0D0069007581331235BDE58260030200662B
:1C35990020F71430F6148883A88220F507E6A88375830022E280F7E49322E02241
:0135B50032E3
:0135B60032E2
:0135B70032E1
:0135B80032E0
:0135B90032DF
:0135BA0032DE
:0135BB0032DD
:0135BC0032DC
:0435BD0075820022F1
:0135C10032D7
:00000001FF
