:06000000020069020F7608
:03000B000232AB13
:0300130002328432
:03001B000232CCE2
:030023000235871C
:03002B00020FCBF6
:0300330002341A7A
:03003B0002358803
:03004300020100B7
:03004B00022B0085
:03005300020100A7
:03005B00023285E9
:03006300023286E0
:0500C200C2000200660F
:030066000210067F
:2001C000AF82BF033B7800E2B4EE3578807466F2743608F2903666E4937882F2E408F2905B
:2001E000E00012284A7D007EE090E6B57401F090E6B3EEF090E6B4EDF090E6A07480F02206
:2002000078ABEFF2780079ACE2F390365C022EA678867401F2E408F2746008F27884E4F28D
:2002200008F2788904F2E408F2788B04F275825112287BE58260407801E2B4FF02803878B2
:2002400001E2B4C201227801E2B4C02B788674C0F2743F08F2E408F27884740CF2E408F22D
:2002600078897429F2E408F2788B04F275825112287BE582600122903FC074F9F0788074D8
:20028000A0F2743608F278827410F2E408F2903FC112284A903FD1E4F0A3F0A3F0A3F02277
:2002A000903FC0E0FFBF4102800ABF4202800DBF431A8010903FC07410F08011903FC07471
:2002C00020F08009903FC07430F0800122903EC37401F0789074C3F2743E08F2E408F27896
:2002E0008E7407F2E408F2789304F2E408F2789504F278967408F2789774FFF275825112F9
:20030000291B903EC374C0F0789074C3F2743E08F2E408F2788EF208F2789304F2E408F258
:20032000789504F278967408F2789774FFF275825112291B903FC0E0903EC3F0789074C3FD
:20034000F2743E08F2E408F2788E7405F2E408F2789304F2E408F2789504F278967408F274
:20036000789774FFF275825112291B789074C3F2743E08F2E408F2788E740CF2E408F278E2
:200380009304F2E408F2789504F278967408F2789774FFF275825102291B780274B5F2746C
:2003A0003508F29035C5E493FD1DC2D575F002ED30E704B2D5F404A430D50AF42401C5F0ED
:2003C000F43400C5F0244CF582743635F0F583E493FCA3E493FD7804ECF2ED08F27802E2EB
:2003E000240CFA08E23400FB8A828B83E0FEA3E0FF903FC0E07C004206EC42078A828B83BE
:20040000EEF0EFA3F0903FC0E0C4540F2440FF7804E2F58208E2F583EFF07804E22401FEEC
:2004200008E23400FF903FC0E0FD740F5D24308E828F83F07804E22403FE08E23400FF8EBF
:20044000828F83788074C1F2743F08F278827410F2E408F212284A903FC0E0FFBFF92878A4
:2004600002E22408F58208E23400F58374B4F07404A3F07802E2240AF58208E23400F583A5
:200480007413F07486A3F02220000E7806E25405600443B0202253B0DF22AF827806E24FD2
:2004A000F2020488AF827806E25F600FEFF4FF7806E25FF2120488758201227582002230C9
:2004C000010790E6A07401F022D20122AF82BF00028026BF01028005BF021A800C75820045
:2004E000C0071223E5D0078010758201C0071223E5D00780047582002278A6EFF27807E405
:20050000F27808F278AD14F278AEF290365C12313075820122AF8278A6E2B401028008789D
:20052000A6E2B4020F8006780AE4F2800B780A7401F28004758200227809E2B4011E8F06B4
:200540008EF005F0786A7401800225E0D5F0FBF2780AE2F582C007122444D007EF2407F893
:200560007909E3F278ADEFF2780979AEE2F390365C12313075820122E5822407F9E390E70D
:2005800040F090E6B57401F090E68AE4F090E68B04F090E6A003F02290E6B8E0FFE4BF40B7
:2005A0000104FE601190E6B9E0FDBDB009C20190E6A07480F022E4BFC00104FD7006EE702D
:2005C0000302079D90E6B9E0FCE4BCA90104FB7008BC1002800302079DEF235401FE7F00CB
:2005E00090E6BA780DE0F2A3E008F290E6BE780FE0F2A3E008F27C00EB60057F51020689C0
:2006000090E6BCE0FAA3E0FBC374039AE49B4079EA2A900616738006800A800E80127F5111
:200620007C0680657F527C08805F7F537C088059780DE2FA08E2FBC3E49A74109B404AC000
:2006400002C003780FE2FA08E2FBC3E49A74109BD003D0024033C002C003780D790FE3C5DB
:20066000F0E225F0FA09E3C5F008E235F0FBC3E49A74109BD003D002400F7F517C06747064
:200680002BFB780DEAF2EB08F2C201EF700790E6A07401F022780FE2F5F008E245F070014A
:2006A00022780FE2FA08E2FBC3EA9440EB940040047A407B00EE605190E6A0E020E1F97850
:2006C000867440F274E708F2E408F27889EAF2E408F2780D7984E2F308E209F3788B74014B
:2006E000F28F8212287BE582700790E6A07401F02290E6B57401F090E68AE4F090E68BEA78
:20070000F090E6A07480F0805790E6B57401F090E68AE4F090E68BF090E6A07480F090E653
:20072000A0E020E1F978907440F274E708F2E408F27893EAF2E408F2780D798EE2F308E24E
:2007400009F378957401F27896ECF2789774FFF28F8212291BE582700790E6A07401F022E7
:20076000C0048A08750900780FE2F50A08E2F50BE50AC39508FBE50B9509FC780FEBF2EC2F
:2007800008F2780DE2FA08E2FCE5082AFAE5093CFC780DEAF2EC08F2D004020695ED7006C6
:2007A000EE700302083E90E6B9E0FCBC1302800302083EEF235401FC90E6BAE0FF90E6BE43
:2007C000E0FAA3E0FBC2018F82C004C003C0021212EFE582D002D003D004605BEC603290E8
:2007E000E6A0E020E1F98A047819ECF290E740C00412131EE582D004603D90E6B57401F076
:2008000090E68AE4F090E68BECF090E6A07480F02290E6B57401F090E68AE4F090E68BF0B6
:2008200090E6A07480F090E6A0E020E1F9781AEAF290E74002134F90E6A07401F022ED605B
:200840005790E6B9E0FCBC124F90E6BEE0FBA3E0FCBB0144BC0041C20190E6A0E020E1F9DB
:200860001212ECE58260067B027C0080047B007C007806E2FAEB420290E740EAF090E6B5E2
:200880007401F090E68AE4F090E68B04F090E6A003F07582010204A4EE700302098A90E613
:2008A000B9E0FCBC1102800302098A90E6BCE0FBA3E0FC4B6027C007780BE2FA08E2FF74DB
:2008C000012AF50AE43FF50B8B028C07EAB50A06EFB50B028005D00702098AD0078B078C65
:2008E0000690E6BEE0FAA3E0FDC201EF4E7028789EE4F2789F7410F2E408F2903FD575F06C
:2009000000C007C006C005C002122B011211D1D002D005D006D007EA4D60678A038D04C35E
:20092000EB9440EC940040047B407C0090E6B57401F090E68AE4F090E68BF090E6A074809E
:20094000F090E6A0E020E1F97817EBF290E740C007C006C005C003C002121253D002D003A1
:20096000D005D006D0078B0A750B008A088D09AB0AAC0BE508C39BFBE5099CFC8B028C0562
:200980008095780BEFF2EE08F222ED7006EE7003020A3490E6B9E0FCBC18028003020A342C
:2009A00090E6BEE0FBA3E0FCBB1005BC00028003020A34EF235401FCC201EC603690E6A09A
:2009C000E020E1F9788074D5F2743F08F278827410F2E408F290E74012284A90E6B5740134
:2009E000F090E68AE4F090E68B7410F090E6A07480F0221212A7E582603390E6B57401F04D
:200A000090E68AE4F090E68BF090E6A07480F090E6A0E020E1F978807440F274E708F278BC
:200A2000827410F2E408F2903FD502284A90E6A07401F022ED7006EE7003020ADB90E6B951
:200A4000E0FCBC14028003020ADB90E6BEE0FBA3E0FCBB0205BC00028003020ADBEF2354A0
:200A600001FC90E6BCE0FBC201EC603890E6A0E020E1F978207440F274E708F28B8212156E
:200A800017E582700790E6A07401F02290E6B57401F090E68AE4F090E68B7402F090E6A0E3
:200AA0007480F02290E6B57401F090E68AE4F090E68B7402F090E6A07480F090E6A0E02055
:200AC000E1F9781C7440F274E708F28B821213EEE582700675820102049A22ED607290E6C1
:200AE000B9E0FCBC156A90E6BEE0FBA3E0FCBB025FBC005C90E6BCE0FCC20190E6A0E0207D
:200B0000E1F9903FC0E0FBBB3200401278457440F274E708F28C82121CEEAB828010782912
:200B20007440F274E708F28C8212178AAB82EB700790E6A07401F02290E6B57401F090E6C7
:200B40008AE4F090E68B7402F090E6A07480F022ED7006EE7003020C6190E6B9E0FCBC16A4
:200B6000028003020C6190E6BEE0FBA3E0FCBB0405BC00028003020C61EF235401FC90E6A6
:200B8000BCE0FBC201EC606D90E6A0E020E1F9903FC0E0FCBC3200401E78527440F274E7D0
:200BA00008F2785474022440F2E434E708F28B82121EFDAC82801C78377440F274E708F2FC
:200BC000783974022440F2E434E708F28B82121995AC82EC700790E6A07401F02290E6B579
:200BE0007401F090E68AE4F090E68B7404F090E6A07480F02290E6B57401F090E68AE4F0D3
:200C000090E68B7404F090E6A07480F090E6A0E020E1F9903FC0E0FCBC3200401E78497495
:200C200040F274E708F2784B74022440F2E434E708F28B82121D61AC82801C782D7440F2F3
:200C400074E708F2782F74022440F2E434E708F28B821217FAAC82EC700675820102049A7B
:200C600022ED606D90E6B9E0FCBC176590E6BEE0FBA3E0FCBB015ABC0057C201750A0190CB
:200C8000E6A0E020E1F9903FC0E0FCBC3200400D78597401F290E74012207A800E783E74FB
:200CA00001F290E740121AAA85820AE50A700790E6A07401F02290E6B57401F090E68AE42C
:200CC000F090E68B04F090E6A003F07582040204A4EE602D90E6B9E0FCBC192590E6BEE0ED
:200CE000FBA3E0FC4B701A90E6BAE0FBA3E04B24FFE433F582C20112138F90E6A07480F0AA
:200D000022ED7006EE7003020DE290E6B9E0FCBC1A028003020DE290E6BEE0FBA3E0FCBB5C
:200D20000205BC00028003020DE2EF235401FC90E6BCE0FBC201EC603890E6A0E020E1F9D3
:200D400078267440F274E708F28B821216BAE582700790E6A07401F02290E6B57401F09070
:200D6000E68AE4F090E68B7402F090E6A07480F02290E6B57401F090E68AE4F090E68B74D3
:200D800002F090E6A07480F090E6A0E020E1F978247440F274E708F28B821215D5E5827000
:200DA0000675820102049A789074E5F2743F08F2E408F2788E7431F2E408F278937404F2C7
:200DC000E408F2789504F278967408F2789774FFF275825112291BE58270067582010204C9
:200DE0009A22ED7006EE7003020EAE90E6B9E0FCBC1B028003020EAE90E6BEE0FBA3E0FC02
:200E0000BB0205BC00028003020EAEEF235401FF90E6BCE0FCC201EF604E90E6A0E020E146
:200E2000F9903FC0E0FFBF3000401E78667440F274E708F2786874012440F2E434E708F281
:200E40008C82122326E582700790E6A07401F02290E6B57401F090E68AE4F090E68B7402D3
:200E6000F090E6A07480F02290E6B57401F090E68AE4F090E68B7402F090E6A07480F09011
:200E8000E6A0E020E1F9903FC0E0FFBF3000401790E7407864E0F290E7417865E0F28C8264
:200EA0001222E9E582700675820102049A22EE602F90E6B9E0FFBF1C2790E6BEE0FEA3E05C
:200EC000FF4E701C90E6BCE0FFC201D20053B0C353070FEF2F25E042B090E6A07480F02233
:200EE000ED603990E6B9E0FFBF0F3190E6BEE0FEA3E0FFBE0126BF0023C20190E6A0E0202B
:200F0000E1F990E7407401F090E6B5F090E68AE4F090E68B04F090E6A003F022ED6050909F
:200F2000E6B9E0FFBFC04890E6BCE0FFC201BF043778807478F2743608F29036787882E408
:200F400093F2A3E49308F290E00012284A7E007FE090E6B57401F090E6B3EFF090E6B4EE77
:200F6000F090E6A07480F02290E6A07401F02290E6A07401F022C2A832903EC5E4F0A3F095
:200F800075820412049A903FC0E0FFBF32004008903EC4121FF8800A783EE4F2903EC4128A
:200FA0001AAA903EC4E0FF781C74C5F2743E08F28F821213EE903FC0E0FFBF320040099035
:200FC0003EC4E0F5821220E5D2A82220000353B0EFC2CAC2CF32C0E0C082C0832000034316
:200FE000B010D2CA5391EF90E65F74F3F0D083D082D0E032020FD6020FD6020FD6020FD673
:20100000020FD6020FD690E6007412F090E67A7401F01202101202A012039A121380903FC6
:20102000C0E0FFBF3200400F121C17E582700B75820112049A80031217111211CB122378AA
:2010400012328790E611E4F012328790E610E4F043B53443B00453B0CF75C801D2AD90E61D
:201060005EE043E0F3F0D2A8903FD1E0FCA3E0FDA3E0FEA3E0FFEC4D4E4F700302119E9029
:201080003FD17811E0F2A3E008F2A3E008F2A3E008F27D527815E4F208F243B010C0051268
:2010A00011D1D0057811E2F5F008E242F008E242F008E245F0700302117B7C807811C3E2A7
:2010C000948008E2940008E2940008E2940050047811E2FC78867400F274E008F2E408F237
:2010E0007889ECF2E408F278157984E2F308E209F3788B7401F28D8212287BE5827008756C
:20110000820112049A80747817ECF290E000C005C004121253D004D0058C027B007E007F1C
:20112000007811E2C39AF208E29BF208E29EF208E29FF28C037F007815E2FA08E2FEEB2A15
:20114000FAEF3EFE7815EAF2EE08F27815E2F5F008E245F060030210A48D03EB04FDBD5400
:201160000280030210A47D517815E2FA08E22470FB7815EAF2EB08F20210A47811E2F5F030
:2011800008E242F008E242F008E245F0700D1212A7E582700675820112049A53B0EF758242
:1211A00001122B5C30010312059820A8F7120F7980F2F5
:2035B5001201000200000040B720B19D0001010203020A060002000000080000090400004C
:2035D50000FFFFFF060904000102FFFFFF070904000102FFFFFF080904010000FFFFFF0699
:2035F5000904010102FFFFFF070705020200020007050402000200070586020002000705D9
:2036150088020002000902000002010480FAD135DA35FE350C36EC35F53505361336000024
:203635000902000001020580FAD135E335FE350C3600001A363536B136C536D836EC362860
:2036550037483751376637B535C735024836084C3612034D005300460054003100300030AA
:2036750000C00028000000000104000100000000000000000157494E55534200000000006E
:203695000000000000000000000000393939393939393939393939393939390077686974C9
:2036B50065717561726B20726573656172636800476C6173676F7720446562756720546F41
:2036D5006F6C0058582D5858585858585858585858585858585800506970652050206174AA
:2036F500207B327835313242204550324F55542F455036494E7D2C2051206174207B3278D2
:2037150035313242204550344F55542F455038494E7D00506970652050206174207B34788F
:2037350035313242204550324F55542F455036494E7D0044697361626C656400446F75620B
:203755006C652D6275666665726564203531324200517561642D62756666657265642035C9
:0437750031324200AB
:2011B200E58030E30A20000343B0087582012220000353B0F77582002243B5080211B21256
:2011D200328790E601E053E0FCF0903FC0E0FFBF10028019BF20028014BF30028017BF3109
:2011F200028012BF3202800DBF3310800843B50253B0FD800643B2025380FD900001123520
:201212005753B2F743B31C4390105390F7903FC0E0FFBF10028019BF20028014BF300280DC
:2012320014BF3102800FBF3202800ABF330A800543B00280034380029004B01235570211D7
:20125200B275AF0385829B85839A90E67B7817E2F8E0A2E7C2949292D294A2E6C2949292BA
:20127200D294A2E5C2949292D294A2E4C2949292D294A2E3C2949292D294A2E2C2949292C6
:20129200D294A2E1C2949292D294A2E0C2949292D294D8BD227431C29400D294D5E0F853F9
:2012B200B3E3903FC0E0FFBF10028019BF20028014BF30028019BF31028014BF3202800FA7
:2012D200BF3314800A90E601E043E023F0800890E601E043E063F00211B20211B2E5827821
:2012F20018F275821012263BE582601978747401F2E408F2903E1875F06012266FE582602E
:20131200047582012212265375820022AE82AF8375821112263BE582601C7D007819797939
:20133200E2F3E409F38E828F838DF01226F6E58260047582012212265375820022AE82AFB1
:20135200837D00781A7974E2F3E409F38E828F838DF012266FE582600E122653E5827003C7
:0E137200F58222758201221226537582002216
:2013800074BE55B04480F5B043B5C153B07F22E582600453B07F2243B08022AF827E008F0E
:2013A00005BD0102800ABF02028017BD031F8016903FC0E0FFBF330050047E0C800F7E0EB6
:2013C000800B7E0D8007781BE270027E48EE7003F58222EE2EFE781BE24EF58212263BE51D
:2013E0008270071226537582002275820122AF827E00781CE2F58208E2F583E0FCA3E0FDDC
:20140000EF30E0027E01EF30E103430640EF30E013903FE5E0FAA3E0FBC3EA9CEB9D50047D
:2014200075820022EF30E113903FE7E0FAA3E0FBC3EA9CEB9D500475820022EC4D700FEE8E
:20144000F4FB52B0781EE4F2781FF20214CA8C028D03C3EA9472EB94064008747C9A741515
:201460009B500475820022C006EA248EFAEB34F9FB78B3EAF2E2F5F0EBC4C5F0C4540F6537
:20148000F0C5F0540FC5F065F0F2C5F008F290010DC007C006C005C0041232ACAA82AB839B
:2014A000D004D005D006D007EBC4CAC4540F6ACA540FCA6ACAFB74E0C39AFA740F9BFBFEE4
:2014C000781EEEF2781FEAF2D006781BE4F28F82C006C005C00412139BE582D004D005D0E4
:2014E000067003F5822278747402F2E408F2903E1E75F06012266FE58270071226537582F0
:201500000022122653E5827003F58222EC4D6003EE42B075820122AF82BF01028005BF02DC
:201520000A80047E0180087E40800475820022EE55B070117820E2F58208E2F583E4F0A37D
:20154000F075820122781B7401F28F8212139BE5827003F5822278797402F2E408F2903E3E
:201560002275F0601226F6E5827003F582227822E2FE7F007823E27C004207EC42067820DC
:20158000E2FC08E2FDEEC4CFC4540F6FCF540FCF6FCFFE74FFC39FFFE49EFE78B3EFF2EEE4
:2015A00008F2900098C005C0041232AC7871740AF2E408F21225B1E5828583F0D004D00569
:2015C0002472FE740635F0FF8C828D83EEF0EFA3F075820122AF827824E2FD08E2FE8D829E
:2015E0008E83E0FBA3E0FC4B601D8B0C8C0DC3E50C9472E50D9406400A747C950C74159549
:201600000D500475820022750C79750D37850C82850D83E493FA70030216B6EA5F70030205
:2016200016A8782074C7F2743E08F28A82C007C006C005C004C003121517E582D003D0044A
:20164000D005D006D0077003F58222C007903EC7E0FAA3E0FFC3EB9AEC9FD0075030850C89
:2016600082850D83E493FA781CEDF2EE08F28A82C007C006C005C004C0031213EEE582D0D8
:2016800003D004D005D006D0077003F58222850C82850D83A3E49325E0FA24E5F582E4340C
:2016A0003FF583EBF0ECA3F07402250CF50CE4350DF50D02160D75820122AF827E797D372E
:2016C0008E038D048B828C83E493FA6040EFB5022F7826E2F52E08E2F52F8E828D83A3E48E
:2016E0009325E024E5F582E4343FF583E0FDA3E0FE852E82852F83EDF0EEA3F075820122C1
:1117000074022BFBE43CFC8B068C0580B775820022AE
:0637790001000201000046
:2017110090E670E043E001F05388FE22A982E3FE7F0009E37C004207EC4206EEC4CFC454DA
:201731000F6FCF540FCF6FCFFE78B3EFF2EE08F29001031232AC7871740AF2E408F2022507
:20175100B1AE82AF8378B3EEF2EF08F290000A1232AC78717403F2740108F21225B1AE820E
:20177100E583C454F0CEC4CE6ECE54F0CE6EFF7828E2F9EFF309EEF322AF827D7F7E378DF5
:20179100038E048B828C83E493FA6059EFB502488D828E83A3E493FA786C742BF2786BE4FF
:2017B100F2786D7402F28A821224FEE5827003F582227829E2F50E08E2F50F75822B121767
:2017D1001D858210858311850E82850F83E510F0E511A3F07582012274022BFBE43CFC8BB4
:2017F100058C06809E75820022AF827831E4F27832F27833740FF27834F4F278357403F2F6
:201811007836E4F2782DE2F58208E2F583E0FDA3E0FE8D038E04C3747C9B74159C4023C0BD
:2018310007782FE2FB08E2FC8B828C83E0FAA3E0FF8A128F13C3747C951274159513D0070E
:20185100500475820022ED4E700C747CB512077415B51302803778287431F28D828E83C074
:2018710007C004C003121752D003D0048B828C83E0FBA3E0FC78287433F28B828C831217B3
:2018910052D00778367414F2783674D4F27D7F7E378D828E83E493FC7003021991EC5F70E0
:2018B1000302198774012DFBE43EFC8B828C83E493FA786F7431F2786E7403F2787014F26F
:2018D1008A82C007C006C005C004C003122556E582D003D004D005D006D0077003F58222E9
:2018F1008B828C83E493FA786F7433F2786E7404F2787003F28A82C007C006C005C004C0BB
:2019110003122556E582D003D004D005D006D0077003F582228B828C83E493FA786F74356D
:20193100F2786E7401F27870F28A82C007C006C005C004C003122556E582D003D004D00528
:20195100D006D0077003F582228B828C83E493FB786F7436F2786E7402F2787014F28B8263
:20197100C007C006C005122556E582D005D006D0077003F5822274022DFDE43EFE0218A206
:2019910075820122AF827D7F7E378D038E048B828C83E493FA7003021A9AEFB50202800337
:2019B100021A8C74012DF514E43EF515851482851583E493FD786C743DF2786B7402F278A1
:2019D1006D14F28D821224FEE5827003F58222783DE270217837E2F58208E2F583E4F0A3C4
:2019F100F07839E2F58208E2F583747CF07415A3F075820122851482851583E493FD786CD4
:201A1100743BF2786B7403F2786D14F28D821224FEE5827003F582227837E2F51608E2F5AC
:201A31001775823B12171DAA82AE83851682851783EAF0EEA3F0851482851583E493FE78ED
:201A51006C743BF2786B7404F2786D03F28E821224FEE5827003F582227839E2F51608E202
:201A7100F51775823B12171DAA82AE83851682851783EAF0EEA3F07582012274022BFBE443
:201A91003CFC8B058C0602199F75820022E5805401B40100E433F58222AF83E582783FF2A7
:201AB100EF08F2783FE2F58208E2F583E4F07C7F7D378C828D83E4937003021BCF74012CA2
:201AD100FAE43DFB8A828B83E493FF786C7441F2786B7401F2786DF28F82C005C004C00346
:201AF100C0021224FEE582D002D003D004D0057003F582227841E27003021BC57842E4F29E
:201B1100783FE2F58208E2F583E0FF8C828D83E4934207783FE2F58208E2F583EFF08A8228
:201B31008B83E493FF786C7442F2786B7402F2786D14F28F82C005C004C003C0021224FEFB
:201B5100E582D002D003D004D0057003F58222783EE260308A828B83E493FA786C7441F275
:201B7100786B7401F2786DF28A82C005C0041224FEE582D004D0057003F582227842E2446E
:201B910004F280067842E254FBF28C828D83A3E493FF786F7442F2786E7402F2787014F2D9
:201BB1008F82C005C004122556E582D004D0057003F5822274022CFCE43DFD021AC375823F
:021BD1000122EF
:06377F0001540255000098
:201BD300AF82786F7443F2786E7412F27870E4F28F82C007122556E582D0077003F5822266
:201BF300784374FFF2786F7443F2786E74D2F278707401F28F82122556E5827003F58222A4
:201C1300758201227E857F378E828F83E49360378E828F83A3E493FCA3E493FD8C828D8341
:201C3300E4F08E828F83A3A3A393F582C007C006121BD3E582D006D0077003F58222740483
:201C53002EFEE43FFF80C175820122E582F904F8E2FF7E007D008D258E248F238E22E3FAED
:201C7300E4FBFEFFE5224202E5234203E5244206E525420778B5EAF2EB08F2EE08F2EF086C
:201C9300F2900005E4F5F01232CEAC82AD83AEF0C313FFEE13FEED13FDEC13FCEFC313EE54
:201CB30013ED13FDEC13F5828D8322AE82AF83EE2EF582EF33F583E5822582F582E58333AA
:201CD300F58378717405F2E408F21225B1AE82AF837844E2F9EEF309EFF322AF827D857EC7
:201CF300378D038E048B828C83E493FA605CEFB5024B8D828E83A3A3A3E493FA786C744725
:201D1300F2786B7488F2786D7402F28A821224FEE5827003F582227845E2F52608E2F5272D
:201D3300758247121C5E858228858329852682852783E528F0E529A3F07582012274042BAF
:201D5300FBE43CFC8B058C06809B75820022AF82784DE4F2784EF2784F74F8F27850747F9F
:201D7300F2785174FFF27849E2F58208E2F583E0FDA3E0FE8D038E04C3747C9B74159C4081
:201D93001DC007784BE2FB08E2FC8B828C83E0FAA3E0FFC3747C9A74159FD00750047582B7
:201DB3000022ED4E601E7844744DF28D828E83C007C004C003121CBED003D004D007785125
:201DD300E254FEF28B828C83E0FDA3E0FE8D038E04BB7C05BC150280167844744FF28D8209
:201DF3008E83C007121CBED0077851E254FDF27D857E378D828E83E493FC7003021EF9EC85
:201E13005F7003021EEF74032DFBE43EFC8B828C83E493FA786F744DF2786E7458F278705E
:201E33007402F28A82C007C006C005C004C003122556E582D003D004D005D006D0077003B2
:201E5300F582228B828C83E493FA786F744FF2786E7457F278707402F28A82C007C006C061
:201E730005C004C003122556E582D003D004D005D006D0077003F582228B828C83E493FA0D
:201E9300786F7451F2786E74D2F278707401F28A82C007C006C005C004C003122556E5824B
:201EB300D003D004D005D006D0077003F582228B828C83E493FB786F7451F2786E7403F25F
:201ED3007870E4F28B82C007C006C005122556E582D005D006D0077003F5822274042DFDAE
:201EF300E43EFE021E0675820122AF827D857E378D038E048B828C83E493FA7003021FF450
:201F1300EFB502028003021FE674032DF52AE43EF52B852A82852B83E493FD786C7456F2FF
:201F3300786B7458F2786D7402F28D821224FEE5827003F582227856E270147857E2700F86
:201F53007852E2F58208E2F583E4F0A3F0801E7852E2F52C08E2F52D758256121C5EAA8206
:201F7300AE83852C82852D83EAF0EEA3F0852A82852B83E493FE786B7457F2786C7456F241
:201F9300786D7402F28E821224FEE5827003F582227856E2FEBEF8197857E2FEBE7F127837
:201FB30054E2F58208E2F583747CF07415A3F0801E7854E2F52C08E2F52D758256121C5EB1
:201FD300AA82AE83852C82852D83EAF0EEA3F07582012274042BFBE43CFC8B058C06021FB7
:201FF3000775820022AE82AF83E4F07C857D378C828D83E493606C8C828D83A3A3A3E493E4
:20201300FB786C7458F2786B7480F2786D23F28B82C007C006C005C0041224FEE582D004BB
:20203300D005D006D0077003F582227858E2540F60288E828F83E0FB8C828D83E49342038B
:202053008E828F83EBF08C828D83A3E493FAA3E493FB8A828B837858E2F074042CFCE43DAC
:20207300FD808C75820122AE82AF83E4F07C857D378C828D83E493FB6057C00374012CF59F
:202093002EE43DF52F852E82852F83E493FAA3E493FB8A828B83E0FA540F7004D003802882
:2020B300D0038E828F83E0FA42038E828F83EBF07859E26013852E82852F83E493FAA3E472
:2020D30093FB8A828B83E4F074042CFCE43DFD80A022AF827D857E378D828E83E493FC7086
:2020F30003022205EC5F70030221FB74032DFBE43EFC8B828C83E493FA786C745AF2786BF4
:202113007458F2786D7402F28A82C007C006C005C004C0031224FEE582D003D004D005D0D5
:2021330006D0077003F582228B828C83E493FA786C745CF2786B7457F2786D7402F28A8277
:20215300C007C006C005C004C0031224FEE582D003D004D005D006D0077003F582228B82B6
:202173008C83E493F582C007C006C005C004C003121BD3E582D003D004D005D006D0077076
:2021930003F582228B828C83E493FA786F745AF2786E7458F278707402F28A82C007C006CF
:2021B300C005C004C003122556E582D003D004D005D006D0077003F582228B828C83E49304
:2021D300FB786F745CF2786E7457F278707402F28B82C007C006C005122556E582D005D05D
:1621F30006D0077003F5822274042DFDE43EFE0220EB7582012204
:0C37850001C93E4002CA3E4100000000A5
:20220900AF827E008F05BD01028005BF020880047E2080027E21EE7003F58222EE2EFE7895
:202229005EE24EF58212263BE5827003F5822275820122AF82785EE4F28F82122209E582FE
:20224900603878747401F2E408F2903E5F75F06012266FE582602378747401F2E408F29068
:202269003E6075F06012266FE582600E122653E5827003F5822275820122122653758200DC
:2022890022AF82785EE4F28F82C007122209E582D007604578747401F2E408F2903E617569
:2022A900F06012266FE5826030785E7401F28F82122209E58260227862E2FD08E2FE7F0093
:2022C90078797401F2E408F28D828E838FF01226F6E5826004758201221226537582002269
:2022E900AF82785F7401F278657960E2F38F82C00712223CE582D0077003F582227864E28B
:20230900F4F2785F7403F278647960E2F38F8212223CE5827003F5822275820122AF82784D
:20232900617401F278687962E2F308E209F38F82C00712228AE582D0077003F5822278619D
:202349007403F278667962E2F308E209F38F8212228AE5827003F582227866E2FE08E2FFAE
:0F2369008E828F83E0F48E828F83F07582012243
:2023780012328790E60B7403F012328790E6017480F012328790E6047480F012328790E602
:2023980009E4F012328790E6027498F012328790E60374FEF012328790E670E043E080F03F
:2023B80012328790E618E053E0FEF012328790E619E053E0FEF012328790E61AE053E0FEE4
:2023D800F012328790E61BE053E0FEF022E582FF60067E007D0080047E027D801232879053
:2023F800E6047480F012328790E61274A04EF012328790E61374204DF012328790E6147464
:20241800E04EF012328790E61574604DF0EF60067D017E0080047D037E00786AEDF28F827A
:2024380012244412328790E604E4F022AF82786AE25401605F12328790E618E4F0123287CE
:2024580090E604E043E002F012328790E6497482F012328790E6497482F0EF6012123287E9
:2024780090E6497482F012328790E6497482F012328790E6187410F012328790E61AE4F033
:2024980012328790E604E043E006F012328790E61A7404F0786AE25402604A12328790E61E
:2024B80019E4F012328790E604E043E004F012328790E6497484F012328790E6497484F0F7
:2024D80012328790E6197410F012328790E61BE4F012328790E604E043E008F0123287904B
:0624F800E61B7404F02253
:2024FE00E5822582FFF58212263BE582604378747401F2E408F2903E6B75F06012266FE502
:20251E0082602E74014FF58212263BE5826022786CE2FD7E007F60786D7979E2F3E409F34A
:20253E008D828E838FF01226F6E58260047582012212265375820022E582FF25E0F5821233
:20255E00263BE582604678747401F2E408F2903E6E75F06012266FE58260317870E2601ED6
:20257E00786FE2FD7E007F6078707974E2F3E409F38D828E838FF012266FE582600E12263D
:13259E0053E5827003F582227582012212265375820022A6
:2025B100AE82AF837C007D007B10EF235401FAEE2EFEEF33FFEC2CFCED33FDEA60034304C3
:2025D100017871C3E2F5F0EC95F008E2F5F0ED95F040117871D3E29CF4B3FCB308E29DF468
:0B25F100FD430601DBC48E828F8322B5
:2025FC00C007C000AF8290E678E020E00E7873E260F47873E4F2758200801F90E678E030B5
:20261C00E2057582008013EF600D90E678E0FFA2E1E433F5828003758201D000D00722C0EF
:20263C0007AF8290E6787480F090E679EFF07582011225FCD0072290E678E030E2047582A7
:20265C00002290E6787440F090E678E020E6F975820122C007C006C004C003C002C000AF7E
:20267C00F0AE83E5827876F208EEF208EFF27874E2F5F008E245F07005758201804F7B007C
:20269C007C007874E2B5030708E2B50402802B7876E22BFA08E23CFE08E2FF8A828E838F17
:2026BC00F012358CFA90E679F07582011225FCE58260070BBB00CB0C80C87874E2B50308F6
:2026DC0008E2B50403D38001C3E433F582D000D002D003D004D006D00722C007C006C00529
:2026FC00C004C003C002C001C000AFF0AE83E582787BF208EEF208EFF27879E2F5F008E265
:20271C0045F070067582010228397879E2B4010408E26002800690E6787420F090E679E0F8
:20273C007B007C00787EE4F208F2787E7979E2F5F0E3B5F00C08E2F5F009E3B5F0030228F0
:20275C00137582001225FCE5827003022826787EE22402FD08E23400FE7879E2B505070843
:20277C00E2B506028002800690E6787420F0787EE22401FD08E23400FE7879E2B505070872
:20279C00E2B506028002803575AF03759AE6759B7890E67B7440F0E0ACE0787B797EE3C510
:2027BC00F0E225F0FD09E3C5F008E235F0FE08E2FF8D828E838FF0EC1232908025787B7912
:2027DC007EE3C5F0E225F0FD09E3C5F008E235F0FE08E2FF90E679E0FA8D828E838FF012C2
:2027FC003290787EE22401F208E23400F2787EE2FB08E2FC02274690E678E030E2057582F8
:20281C0000801A90E678E020E6F97879E2B5030808E2B50403D38001C3E433F582D000D0B7
:0E283C0001D002D003D004D005D006D0072270
:20284A00AA82AB837880E2FC08E2FD7882E2FE08E2FFEE60010FEF601775AF078A9B8B9A5B
:11286A008C9E8D9D90E67CE090E67BF0DEF6DFF4228D
:20287B00C007C006C005C001C000AF82788BE260127885E2FE788CEEF27884E2FE788DEE52
:20289B00F280087884E2FE788CEEF2EF2FFFF58212263BE5826058788BE2FDE23395E0FE53
:2028BB00787474012DF2E43E08F2903E8C75F06012266FE5826038EF3395E0FE4307018F2D
:2028DB008212263BE582602778897979E2F308E209F37886E2F58208E2F58308E2F5F012B2
:2028FB0026F6E5827004F582800B7582018006122653758200D000D001D005D006D007227F
:20291B00C007C006C005C004C003C002C001C000AF827898E4F208F2EF2FFFF58212263B68
:20293B00E5827003022AD07896E2FC8CF005F07B017C008006EB2BFBEC33FCD5F0F77898D3
:20295B007993C3E3F5F0E295F009E3F5F008E295F04003022AD07895E26012788FE2FA7823
:20297B009AEAF2788EE2FA789BEAF28008788EE2FA789AEAF2C003C0047895E2FAE2339583
:20299B00E0FC787474012AF2E43C08F2903E9A75F06012266FE582D004D0037003022AD058
:2029BB00C0078B028C0778C1EAF208EFF2788EE2F58208E2F583C007C004C003C002C00185
:2029DB00C00012341CAD82AE83D000D001D002D003D004D007789CEAC39DF2EF9E08F2781A
:2029FB00937998E3F5F0C3E295F0FE09E3F5F008E295F0FF789CC3E2F5F0EE95F008E2F5F9
:202A1B00F0EF95F0D007502078937998E3F5F0C3E295F0C0E009E3F5F008E295F0C0E078EA
:202A3B009DD0E0F218D0E0F278907998E3C5F0E225F0FA09E3C5F008E235F0FD08E2FE78D3
:202A5B009C7974E2F308E209F38A828D838EF012266FE582605F122653E5827004F5828053
:202A7B00737E007897E2600B7897C3E2F5F0EE95F0500C8F8212263BE58270030E80E4783E
:202A9B0097E2B50605758200804A788E799CE3C5F0E225F0F209E3C5F008E235F0F27898D3
:202ABB00799CE3C5F0E225F0F209E3C5F008E235F0F202295912265378987993E2F5F0E3EE
:202ADB00B5F00C08E2F5F009E3B5F003D38001C3E433F582D000D001D002D003D004D00533
:052AFB00D006D0072207
:06009800E478FFF6D8FD3C
:012B000032A2
:202B0100AFF0AE83E58278A1F2EE08F2EF08F2789FE2F52E08E2F52F789FE2F5F008E2456A
:202B2100F0602A78A1E2FA08E2FB08E2FC789EE2FFAD2EAE2F8A828B838CF0EF123290A3AF
:1B2B4100AA82AB831DBDFF011EED4E70E878A1E2F58208E2F58308E2F5F022CF
:202B5C00AF8278A5E4F278A6F2D2E890E668E043E008F090E65CE043E001F090E65D740184
:202B7C00F0D2AF90E680E020E10890E680E043E002F0EF600E90E680E043E008F090000A16
:202B9C0012356190E680E053E0F7F022AF82BF00028037BF01028036BF02028039BF0402FD
:202BBC008038BF06028037BF08028036BF80028019BF8102801CBF8202801BBF8402801ACF
:202BDC00BF86028019BF881E801890E6A02290E6A12290E6A22290E6A32290E6A42290E664
:202BFC00A52290E6A62290000022C021C0E0C0F0C082C083C007C006C005C004C003C002B1
:202C1C00C001C000C0D075D000C08675860090E6B8E0FFE4BF800104FE601B90E6B9E0FD47
:202C3C00BD061390E6BAE0FCA3E0F5827800ECF21201C0022E7EEF702790E6B9E0FDBD096D
:202C5C001F90E6BAE0F5821204CCE582600990E6A07480F0022E7E90E6A07401F0022E7E2F
:202C7C00EE600E90E6B9E0FDBD08061234B7022E7E8F05BD012F90E6B9E0FDBD0B2790E668
:202C9C00BCE0FD90E6BA7809E0F28D82120515E582600990E6A07480F0022E7E90E6A074BF
:202CBC0001F0022E7EE4BF810104FD601490E6B9E0FCBC0A0C90E6BCE0F582120578022E9A
:202CDC007EEF703790E6B9E0FCBC032F90E6BAE0FBA3E0FCBB0110BC000D78A57401F29098
:202CFC00E6A003F0022E7EBB0205BC00028003022E7E90E6A07480F0022E7EEE603590E63F
:202D1C00B9E0702F78A4E2FE78A5E225E0FC420690E740EEF090E741E4F090E6B504F0904B
:202D3C00E68AE4F090E68B7402F090E6A07480F0022E7EED602890E6B9E0702290E740E473
:202D5C00F090E741F090E6B504F090E68AE4F090E68B7402F090E6A07480F0022E7EBF02FC
:202D7C00028003022E2990E6B9E0FEBE03028008BE01028003022E2990E6BAE0FDA3E0FED6
:202D9C004D6003022E7E90E6BCE0F582122BA8AD82AE83ED4E7003022E7E90E6B9E0FCBCC8
:202DBC0003188D828E83E0FC4304018D828E83ECF090E6A07480F0022E7E90E6BCE0F5826B
:202DDC00C006C0051234A5E582D005D0067003022E7E8D828E83E0FC5304FE8D828E83ECD1
:202DFC00F090E6BCE0FDA3E08D0453040F530580E4C423CDC423541F6DCD541FCD6DCDFEC2
:202E1C0090E683ED4CF0E043E020F08055BF824C90E6B9E0704690E6BCE0F582122BA8AE1E
:202E3C0082AF83EE4F603B8E828F83E0FE5306017F00EE4FB40100B3E433FF90E740F0901F
:202E5C00E741E4F090E6B504F090E68AE4F090E68B7402F090E6A07480F0800690E6B81240
:202E7C0004BF5391EF90E65D7401F0D086D0D0D000D001D002D003D004D005D006D007D006
:202E9C0083D082D0F0D0E0D02132AE82AF8378ABE2B4012C78ACE270278E828F83E493FC34
:202EBC00A3E493FD7880ECF208EDF28C828D83E4937882F208E4F290E00012284A02311587
:202EDC0078ABE2B4063C78ACE270378E828F83A3A3E493FCA3E493FD4C700790E6A07401EE
:202EFC00F0228C028D037880EAF208EBF28C828D83E4937882F208E4F290E00012284A0278
:202F1C00311578ABE2B4020280030230338E828F83A3A3A3A3E493FD78ACC3E29D400302DD
:202F3C0030338E828F83A3A3A3A3A3E493FCA3E493FD78ACE275F002A42CF582ED35F0F57C
:202F5C0083E493FCA3E493FD74092CFFE43DFE8C028D037880EAF208EBF28C828D83E49315
:202F7C007882F208E4F290E000C007C006C005C00412284AD004D005D006D0078C828D83ED
:202F9C00E493FC2400F518E434E0F5198F028E0385181A85191B8A828B83E493FCA3E49332
:202FBC00FD7880ECF208EDF28C828D83E4937882F208E4F2851A82851B83C003C0021228D9
:202FDC004AD002D0038A828B83E493FCA3E493FD8C828D83E4932518F518E43519F51974AF
:202FFC00022AFAE43BFB8A828B83E493FCA3E4934C709D90E002E0FCA3E0FD4C60030231C5
:20301C0015E518C39400FCE51994E0FD90E002ECF0EDA3F002311578ABE2B40304740180F5
:20303C0001E4FD602278ACE2701D78807491F2087437F2903791E4937882F208E4F290E0E0
:20305C000012284A023115ED700302310E78ACE2FC7D0024FFFAED34FFFB74072EF582E42C
:20307C003FF583C006C007E493FF7E00C3EA9FEB64808EF063F08095F0D007D00650737427
:20309C00082EF582E43FF583E493FEA3E493FF1CBCFF011DEC2CFCED33FDEC2EF582ED3F5B
:2030BC00F583E493FEA3E493FF90E0007402F090E00104F074012401FCE434E0FD8E828F89
:2030DC0083E493FB60330EBE00010F8C828D83EBF074012CFAE43DFB8A828B83E4F0042AA4
:2030FC00FCE43BFD90E000E0FB0B0B90E000EBF080CB90E6A07401F0227E007FE090E6B500
:20311C007401F090E6B3EFF090E6B4EEF090E6A07480F022AE82AF83A3A3A3A3A3E493FCFE
:20313C00A3E493FD74042EFEE43FFF78AFE4F28E828F83E493FA78AFC3E29A400122C00677
:20315C00C00778AFE275F002A42CF582ED35F0F583E493FAA3E493FF78B074092AF2E43FDD
:20317C0008F27E008A828F83A3A3A3A3A3E493FF78A6E2B507028007D007D00602327BD087
:20319C0007D00678B0E2F52E08E2F52FC004C005852E82852F83E493FAA3E493FD8A828DE5
:2031BC0083A3E493F5307404B530028006D005D0048042D005D004852E82852F83E493F560
:2031DC0031A3E493F532853182853283A3A3E493FA78ADE2B50214853182853283A3A3A30B
:2031FC00E493FA78AEE2B5020280047A0080027A018A06804C7405B53047EE6044C004C06F
:20321C0005852E82852F83E493FAA3E493FD8A828D83A3A3E493FD740F5DFC530580E42308
:20323C00CDC423541F6DCD541FCD6DCD30E40244E0FA90E683ED4CF0E043E020F0D005D089
:20325C00047402252EF52EE4352FF52F852E82852F83E493FAA3E493FB4A60030231A87804
:08327C00AFE22401F202314B24
:043791000403090420
:013284003217
:200076007900E94400601B7A0090379578CB75923EE493F2A308B800020592D9F4DAF27578
:0200960092FFD7
:013285003216
:013286003215
:03010000022C06C8
:0301040002358938
:030108000234A31B
:03010C0002358534
:0301100002358B2A
:030114000235AF02
:030118000234A00E
:03011C000201B825
:03012000020FF4D7
:03012400020FF7D0
:030128000234B4EA
:03012C000235AEEB
:03013000020FFAC1
:03013400020FFDBA
:03013800021000B2
:03013C00021003AB
:030140000234B1D5
:030144000201B8FD
:030148000235A8D5
:03014C000235A9D0
:030150000235AACB
:030154000235ABC6
:030158000235ACC1
:03015C000235ADBC
:0301600002358ADB
:030164000201B8DD
:030168000201B8D9
:03016C000201B8D5
:030170000234B3A3
:030174000234B59D
:030178000234D47A
:03017C000234D674
:030180000234B690
:030184000234D56D
:030188000234D767
:03018C00023586B3
:0301900002341B1B
:030194000234A191
:030198000234A48A
:03019C000234B07A
:0301A00002349F87
:0301A4000234A280
:0301A8000234AF6F
:0301AC000234B268
:0301B0000232CD4B
:0301B4000235B45D
:0101B8003214
:093287000000000000000000221C
:1B32900020F71130F6138883A88220F509F6A8837583002280FEF280F5F0223D
:0132AB0032F0
:2032AC00AA83AB828BF0903EB3E0A4F8A9F08AF0E0A429F98BF0A3E0A429F58388822222E6
:0132CC0032CF
:0132CD0032CE
:2032CE00AF82AE83ADF0FC78B9EFF2EE08F2ED08F2EC08F278B9E2FF78B7E28FF0A4FFAD2C
:2032EE00F078BFEFF208EDF278B9E2FF78B5E28FF0A4FFADF078BDEFF208EDF278C0E2FFDB
:20330E0078BCE2FE78B5E28EF0A42FFF78C0F278BBE2FE78B6E28EF0A42F78C0F278BFE24B
:20332E00FE08E2FF78BBE2FD78B5E28DF0A4ABF02EFEEB3FFF78BFEEF208EFF278BAE2FD55
:20334E0078B6E28DF0A4ABF02EFEEB3FFF78BFEEF208EFF278BAE2FF78B7E28FF0A478BCC3
:20336E00F278BAE2FF78B5E28FF0A4FFADF078BAEFF208EDF278B9E2FF78B8E28FF0A478B3
:20338E00B8F278B9E2FF78B6E28FF0A4FFADF078B6EFF208EDF278B5E4F278B9F278BDE261
:2033AE00F52E08E2F52F08E2F53008E2F53178B9E2FA08E2FB08E2FE08E2FFEA252EF52E8C
:2033CE00EB352FF52FEE3530F530EF3531F53178BDE52EF208E52FF208E530F208E531F212
:2033EE0078BDE208E208E208E278B5E2FC08E2FD08E2FE08E2FFEC252EFCED352FFDEE357B
:0C340E0030FEEF35318C828D838EF02271
:01341A00327F
:01341B00327E
:20341C00AE82AF837D007C0078C2E2235401FB703578C1E225E0F208E233F278C1C3E2F50D
:20343C00F0EE95F008E2F5F0EF95F0501478C1E2F5F008E2C313C5F01318F2C5F008F280A5
:20345C00050C8C0580C278C1C3E2F5F0EE95F008E2F5F0EF95F0400E78C1D3E29EF4B3FE74
:20347C00B308E29FF4FF78C1E2F5F008E2C313C5F01318F2C5F008F28D041DEC70C88E82DE
:03349C008F8322F9
:01349F0032FA
:20009E0078C3E84400600A790075923EE4F309D8FC7808E84400600C7901903EC3E4F0A365
:0400BE00D8FCD9FA97
:0134A00032F9
:0134A10032F8
:0134A20032F7
:0134A30032F6
:0134A40032F5
:0A34A50090E6A07480F07582012209
:0134AF0032EA
:0134B00032E9
:0134B10032E8
:0134B20032E7
:0134B30032E6
:0134B40032E5
:0134B50032E4
:0134B60032E3
:1D34B70090E74078A6E2F090E6B57401F090E68AE4F090E68B04F090E6A003F022CD
:0134D40032C5
:0134D50032C4
:0134D60032C3
:0134D70032C2
:2034D800E583700BE58224FA400122B4001122E5826003D5E0FD0075E0FED583F674F9D5C3
:2034F800E0FD22C007C006C001C000AE82AF83EE2EF8EF33F9EE28FEEF39FF90E600E0F88D
:20351800794C20E416C3EF13CE13CEFF795AE820E309C3EF13CE13CEFF7963E58124FAF8AF
:20353800E926C313C313F9C3EE99F582EF9400F583D000D001D006D0075001220234D874C0
:2035580011C0E01234FB158122C007C006AE82AF837411C0E0EE4F600D1EBEFF011F90035D
:0D357800E81234FB80EF1581D006D0072249
:013585003213
:013586003212
:013587003211
:013588003210
:01358900320F
:01358A00320E
:01358B00320D
:0D0069007581321235B0E582600302006639
:1C358C0020F71430F6148883A88220F507E6A88375830022E280F7E49322E0224E
:0135A80032F0
:0135A90032EF
:0135AA0032EE
:0135AB0032ED
:0135AC0032EC
:0135AD0032EB
:0135AE0032EA
:0135AF0032E9
:0435B00075820022FE
:0135B40032E4
:00000001FF
