:06000000020069020FA9D5
:03000B00023315A8
:030013000232EEC8
:03001B0002333677
:030023000235F1B2
:03002B00020FFEC3
:0300330002348410
:03003B000235F299
:03004300020100B7
:03004B00022B6A1B
:03005300020100A7
:03005B000232EF7F
:030063000232F076
:0500C200C2000200660F
:030066000210394C
:2001C000AF82BF033B7800E2B4EE35787C74D0F2743608F29036D0E493787EF2E408F2908F
:2001E000E0001228B47D007EE090E6B57401F090E6B3EEF090E6B4EDF090E6A07480F0229C
:2002000078A7EFF2780079A8E2F39036C6022F1078827401F2E408F2746008F27880E4F2C8
:2002200008F2788504F2E408F2788704F27582511228E5E58260407801E2B4FF0280387850
:2002400001E2B4C201227801E2B4C02B788274C0F2743F08F2E408F27880740CF2E408F235
:2002600078857440F2E408F2788704F27582511228E5E582600122903FC074F9F0787C7463
:200280000AF2743708F2787E7410F2E408F2903FC11228B4903FD1E4F0A3F0A3F0A3F022A6
:2002A000903FC0E0FFBF4102800ABF4202800DBF431A8010903FC07410F08011903FC07471
:2002C00020F08009903FC07430F0800122903EBF7401F0788C74BFF2743E08F2E408F278A2
:2002E0008A7407F2E408F2788F04F2E408F2789104F278927408F2789374FFF2758251120D
:200300002985903EBF74C0F0788C74BFF2743E08F2E408F2788AF208F2788F04F2E408F202
:20032000789104F278927408F2789374FFF2758251122985903FC0E0903EBFF0788C74BFAB
:20034000F2743E08F2E408F2788A7405F2E408F2788F04F2E408F2789104F278927408F284
:20036000789374FFF2758251122985788C74BFF2743E08F2E408F2788A740CF2E408F27888
:200380008F04F2E408F2789104F278927408F2789374FFF27582510229857E1F7F36903FFA
:2003A000C0E0FDBDF902802C740C2EFCE43FFD8C828D83E0F508A3E0F509903FC0E0FB7A12
:2003C00000E5084203E50942028C828D83EBF0EAA3F0802074082EF582E43FF58374B4F0CF
:2003E0007404A3F0740A2EF582E43FF5837413F07486A3F0903FE9E0604B90362DE493FF84
:200400001FC2D575F002EF30E704B2D5F404A430D50AF42401C5F0F43400C5F024B6F58287
:20042000743635F0F583E493FEA3E493FF8E828F83787C74E9F2743F08F2787E7417F2E47E
:2004400008F21228B490362FE493FF1FC2D575F002EF30E704B2D5F404A430D50AF42401D7
:20046000C5F0F43400C5F024B6F582743635F0F583E493FEA3E493FF903FC0E0C4540F240A
:20048000408E828F83F074012EFCE43FFD903FC0E0FB740F5B24308C828D83F074032EFEFE
:2004A000E43FFF8E828F83787C74C1F2743F08F2787E7410F2E408F20228B420000E780260
:2004C000E25405600443B0202253B0DF22AF827802E24FF20204BBAF827802E25F600FEF6B
:2004E000F4FF7802E25FF21204BB758201227582002230010790E6A07401F022D20122AFDF
:2005000082BF00028026BF01028005BF021A800C758200C00712244FD0078010758201C0E2
:200520000712244FD00780047582002278A2EFF27803E4F27804F278A914F278AAF2903600
:20054000C612319A75820122AF8278A2E2B40102800878A2E2B4020F80067806E4F2800B4C
:2005600078067401F28004758200227805E2B4011E8F068EF005F078667401800225E0D510
:20058000F0FBF27806E2F582C0071224AED007EF2403F87905E3F278A9EFF2780579AAE240
:2005A000F39036C612319A75820122E5822403F9E390E740F090E6B57401F090E68AE4F050
:2005C00090E68B04F090E6A003F02290E6B8E0FFE4BF400104FE601190E6B9E0FDBDB00915
:2005E000C20190E6A07480F022E4BFC00104FD7006EE70030207D090E6B9E0FCE4BCA901B2
:2006000004FB7008BC100280030207D0EF235401FE7F0090E6BA7809E0F2A3E008F290E6DF
:20062000BE780BE0F2A3E008F27C00EB60057F510206BC90E6BCE0FAA3E0FBC374039AE488
:200640009B4079EA2A900649738006800A800E80127F517C0680657F527C08805F7F537CF7
:200660000880597809E2FA08E2FBC3E49A74109B404AC002C003780BE2FA08E2FBC3E49A63
:2006800074109BD003D0024033C002C0037809790BE3C5F0E225F0FA09E3C5F008E235F060
:2006A000FBC3E49A74109BD003D002400F7F517C0674702BFB7809EAF2EB08F2C201EF702B
:2006C0000790E6A07401F022780BE2F5F008E245F0700122780BE2FA08E2FBC3EA9440EBCA
:2006E000940040047A407B00EE605190E6A0E020E1F978827440F274E708F2E408F278858E
:20070000EAF2E408F278097980E2F308E209F378877401F28F821228E5E582700790E6A060
:200720007401F02290E6B57401F090E68AE4F090E68BEAF090E6A07480F0805790E6B57483
:2007400001F090E68AE4F090E68BF090E6A07480F090E6A0E020E1F9788C7440F274E708EC
:20076000F2E408F2788FEAF2E408F27809798AE2F308E209F378917401F27892ECF2789346
:2007800074FFF28F82122985E582700790E6A07401F022C0048A0A750B00780BE2F50C0862
:2007A000E2F50DE50CC3950AFBE50D950BFC780BEBF2EC08F27809E2FA08E2FCE50A2AFADD
:2007C000E50B3CFC7809EAF2EC08F2D0040206C8ED7006EE700302087190E6B9E0FCBC13F1
:2007E000028003020871EF235401FC90E6BAE0FF90E6BEE0FAA3E0FBC2018F82C004C003A0
:20080000C002121359E582D002D003D004605BEC603290E6A0E020E1F98A047815ECF29006
:20082000E740C004121388E582D004603D90E6B57401F090E68AE4F090E68BECF090E6A0F1
:200840007480F02290E6B57401F090E68AE4F090E68BF090E6A07480F090E6A0E020E1F953
:200860007816EAF290E7400213B990E6A07401F022ED605790E6B9E0FCBC124F90E6BEE00C
:20088000FBA3E0FCBB0144BC0041C20190E6A0E020E1F9121356E58260067B027C00800469
:2008A0007B007C007802E2FAEB420290E740EAF090E6B57401F090E68AE4F090E68B04F0D2
:2008C00090E6A003F07582010204D7EE70030209BD90E6B9E0FCBC110280030209BD90E676
:2008E000BCE0FBA3E0FC4B6027C0077807E2FA08E2FF74012AF50CE43FF50D8B028C07EA36
:20090000B50C06EFB50D028005D0070209BDD0078B078C0690E6BEE0FAA3E0FDC201EF4EB0
:200920007028789AE4F2789B7410F2E408F2903FD575F000C007C006C005C002122B6B12F9
:20094000123BD002D005D006D007EA4D60678A038D04C3EB9440EC940040047B407C0090CD
:20096000E6B57401F090E68AE4F090E68BF090E6A07480F090E6A0E020E1F97813EBF290D0
:20098000E740C007C006C005C003C0021212BDD002D003D005D006D0078B0C750D008A0AA4
:2009A0008D0BAB0CAC0DE50AC39BFBE50B9CFC8B028C0580957807EFF2EE08F222ED70065F
:2009C000EE7003020A6790E6B9E0FCBC18028003020A6790E6BEE0FBA3E0FCBB1005BC0052
:2009E000028003020A67EF235401FCC201EC603690E6A0E020E1F9787C74D5F2743F08F28B
:200A0000787E7410F2E408F290E7401228B490E6B57401F090E68AE4F090E68B7410F0907E
:200A2000E6A07480F022121311E582603390E6B57401F090E68AE4F090E68BF090E6A0741B
:200A400080F090E6A0E020E1F9787C7440F274E708F2787E7410F2E408F2903FD50228B47B
:200A600090E6A07401F022ED7006EE7003020B0E90E6B9E0FCBC14028003020B0E90E6BE4B
:200A8000E0FBA3E0FCBB0205BC00028003020B0EEF235401FC90E6BCE0FBC201EC60389097
:200AA000E6A0E020E1F9781C7440F274E708F28B82121581E582700790E6A07401F0229087
:200AC000E6B57401F090E68AE4F090E68B7402F090E6A07480F02290E6B57401F090E68A2F
:200AE000E4F090E68B7402F090E6A07480F090E6A0E020E1F978187440F274E708F28B8239
:200B0000121458E58270067582010204CD22ED607290E6B9E0FCBC156A90E6BEE0FBA3E0F6
:200B2000FCBB025FBC005C90E6BCE0FCC20190E6A0E020E1F9903FC0E0FBBB3200401278A3
:200B4000417440F274E708F28C82121D58AB82801078257440F274E708F28C821217F4AB99
:200B600082EB700790E6A07401F02290E6B57401F090E68AE4F090E68B7402F090E6A0749F
:200B800080F022ED7006EE7003020C9490E6B9E0FCBC16028003020C9490E6BEE0FBA3E0C7
:200BA000FCBB0405BC00028003020C94EF235401FC90E6BCE0FBC201EC606D90E6A0E02090
:200BC000E1F9903FC0E0FCBC3200401E784E7440F274E708F2785074022440F2E434E70828
:200BE000F28B82121F67AC82801C78337440F274E708F2783574022440F2E434E708F28BF1
:200C0000821219FFAC82EC700790E6A07401F02290E6B57401F090E68AE4F090E68B74041D
:200C2000F090E6A07480F02290E6B57401F090E68AE4F090E68B7404F090E6A07480F09051
:200C4000E6A0E020E1F9903FC0E0FCBC3200401E78457440F274E708F2784774022440F23A
:200C6000E434E708F28B82121DCBAC82801C78297440F274E708F2782B74022440F2E43487
:200C8000E708F28B82121864AC82EC70067582010204CD22ED606D90E6B9E0FCBC176590CE
:200CA000E6BEE0FBA3E0FCBB015ABC0057C201750C0190E6A0E020E1F9903FC0E0FCBC327F
:200CC00000400D78557401F290E7401220E4800E783A7401F290E740121B1485820CE50C23
:200CE000700790E6A07401F02290E6B57401F090E68AE4F090E68B04F090E6A003F0758287
:200D0000040204D7EE602D90E6B9E0FCBC192590E6BEE0FBA3E0FC4B701A90E6BAE0FBA361
:200D2000E04B24FFE433F582C2011213F990E6A07480F022ED7006EE7003020E1590E6B9C2
:200D4000E0FCBC1A028003020E1590E6BEE0FBA3E0FCBB0205BC00028003020E15EF23541B
:200D600001FC90E6BCE0FBC201EC603890E6A0E020E1F978227440F274E708F28B82121767
:200D800024E582700790E6A07401F02290E6B57401F090E68AE4F090E68B7402F090E6A0D3
:200DA0007480F02290E6B57401F090E68AE4F090E68B7402F090E6A07480F090E6A0E02052
:200DC000E1F978207440F274E708F28B8212163FE58270067582010204CD788C74E5F274C7
:200DE0003F08F2E408F2788A7431F2E408F2788F7404F2E408F2789104F278927408F27827
:200E00009374FFF2758251122985E58270067582010204CD22ED7006EE7003020EE190E6DD
:200E2000B9E0FCBC1B028003020EE190E6BEE0FBA3E0FCBB0205BC00028003020EE1EF233C
:200E40005401FF90E6BCE0FCC201EF604E90E6A0E020E1F9903FC0E0FFBF3000401E78624B
:200E60007440F274E708F2786474012440F2E434E708F28C82122390E582700790E6A0749C
:200E800001F02290E6B57401F090E68AE4F090E68B7402F090E6A07480F02290E6B57401B8
:200EA000F090E68AE4F090E68B7402F090E6A07480F090E6A0E020E1F9903FC0E0FFBF30C0
:200EC00000401790E7407860E0F290E7417861E0F28C82122353E58270067582010204CDB9
:200EE00022EE602F90E6B9E0FFBF1C2790E6BEE0FEA3E0FF4E701C90E6BCE0FFC201D2002F
:200F000053B0C353070FEF2F25E042B090E6A07480F022ED603990E6B9E0FFBF0F3190E668
:200F2000BEE0FEA3E0FFBE0126BF0023C20190E6A0E020E1F990E7407401F090E6B5F09052
:200F4000E68AE4F090E68B04F090E6A003F022ED605090E6B9E0FFBFC04890E6BCE0FFC2E8
:200F600001BF0437787C74E2F2743608F29036E2787EE493F2A3E49308F290E0001228B41D
:200F80007E007FE090E6B57401F090E6B3EFF090E6B4EEF090E6A07480F02290E6A074012D
:200FA000F02290E6A07401F022C2A832903EC1E4F0A3F07582041204CD903FC0E0FFBF32B3
:200FC000004008903EC0122062800A783AE4F2903EC0121B14903EC0E0FF781874C1F2742E
:200FE0003E08F28F82121458903FC0E0FFBF32004009903EC0E0F58212214FD2A82220005F
:201000000353B0EFC2CAC2CF32C0E0C082C08320000343B010D2CA5391EF90E65F74F3F0A6
:20102000D083D082D0E03202100902100902100902100902100902100990E6007412F0900B
:20104000E67A7401F01202101202A012039A1213EA903FC0E0FFBF3200400F121C81E58271
:20106000700B7582011204CD800312177B1212351223E21232F190E611E4F01232F190E648
:2010800010E4F043B53443B00453B0CF75C801D2AD90E65EE043E0F3F0D2A8903FD1E0FC0A
:2010A000A3E0FDA3E0FEA3E0FFEC4D4E4F70030211D1903FD1780DE0F2A3E008F2A3E00881
:2010C000F2A3E008F27D527811E4F208F243B010C00512123BD005780DE2F5F008E242F015
:2010E00008E242F008E245F070030211AE7C80780DC3E2948008E2940008E2940008E294CD
:20110000005004780DE2FC78827400F274E008F2E408F27885ECF2E408F278117980E2F37C
:2011200008E209F378877401F28D821228E5E58270087582011204CD80747813ECF290E0AE
:2011400000C005C0041212BDD004D0058C027B007E007F00780DE2C39AF208E29BF208E25F
:201160009EF208E29FF28C037F007811E2FA08E2FEEB2AFAEF3EFE7811EAF2EE08F27811F9
:20118000E2F5F008E245F060030210D78D03EB04FDBD540280030210D77D517811E2FA08E7
:2011A000E22470FB7811EAF2EB08F20210D7780DE2F5F008E242F008E242F008E245F07078
:2011C0000D121311E58270067582011204CD53B0EF758201122BC63001031205CB20A80346
:2011E000120FAC90E687E0702E90E684E0FFC313FF24FC40E2EF2F9011FB738006800980FB
:1C1200000C800F43B00480CF63B00480CA53B0FB80C563B00480C043B00480BBC4
:20361F001201000200000040B720B19D0001010203020A06000200000008000009040000E1
:20363F0000FFFFFF060904000102FFFFFF070904000102FFFFFF080904010000FFFFFF062E
:20365F000904010102FFFFFF0707050202000200070504020002000705860200020007056E
:20367F0088020002000902000002010480FA3B3644366836763656365F366F367D36000065
:20369F000902000001020580FA3B364D3668367636000084369F361B3733374E3762379E39
:2036BF0037BE37C737DC371F36313602B23608B63612034D00530046005400310030003034
:2036DF0000C00028000000000104000100000000000000000157494E555342000000000004
:2036FF0000000000000000000000003939393939393939393939393939393900776869745F
:20371F0065717561726B2072657365617263680000000000476C6173676F7720496E746510
:20373F007266616365204578706C6F7265720058582D58585858585858585858585858584B
:20375F00585800506970652050206174207B327835313242204550324F55542F4550364966
:20377F004E7D2C2051206174207B327835313242204550344F55542F455038494E7D00506D
:20379F006970652050206174207B347835313242204550324F55542F455036494E7D004415
:2037BF00697361626C656400446F75626C652D62756666657265642035313242005175612A
:1037DF00642D62756666657265642035313242000C
:20121C00E58030E30A20000343B0087582012220000353B0F77582002243B50802121C1280
:20123C0032F190E601E053E0FCF0903FC0E0FFBF10028019BF20028014BF30028017BF3134
:20125C00028012BF3202800DBF3310800843B50253B0FD800643B2025380FD9000011235B5
:20127C00C153B2F743B31C4390105390F7903FC0E0FFBF10028019BF20028014BF30028008
:20129C0014BF3102800FBF3202800ABF330A800543B00280034380029004B01235C1021202
:2012BC001C75AF0385829B85839A90E67B7813E2F8E0A2E7C2949292D294A2E6C2949292EA
:2012DC00D294A2E5C2949292D294A2E4C2949292D294A2E3C2949292D294A2E2C29492925C
:2012FC00D294A2E1C2949292D294A2E0C2949292D294D8BD227431C29400D294D5E0F8538F
:20131C00B3E3903FC0E0FFBF10028019BF20028014BF30028019BF31028014BF3202800F3C
:20133C00BF3314800A90E601E043E023F0800890E601E043E063F002121C02121CE58278E0
:20135C0014F27582101226A5E582601978707401F2E408F2903E1475F0601226D9E58260FB
:20137C0004758201221226BD75820022AE82AF837582111226A5E582601C7D007815797503
:20139C00E2F3E409F38E828F838DF0122760E5826004758201221226BD75820022AE82AF72
:2013BC00837D0078167970E2F3E409F38E828F838DF01226D9E582600E1226BDE582700391
:0E13DC00F58222758201221226BD7582002242
:2013EA0074BE55B04480F5B043B5C153B07F22E582600453B07F2243B08022AF827E008FA4
:20140A0005BD0102800ABF02028017BD031F8016903FC0E0FFBF330050047E0C800F7E0E4B
:20142A00800B7E0D80077817E270027E48EE7003F58222EE2EFE7817E24EF5821226A5E550
:20144A008270071226BD7582002275820122AF827E007818E2F58208E2F583E0FCA3E0FD0B
:20146A00EF30E0027E01EF30E103430640EF30E013903FE5E0FAA3E0FBC3EA9CEB9D500413
:20148A0075820022EF30E113903FE7E0FAA3E0FBC3EA9CEB9D500475820022EC4D700FEE24
:2014AA00F4FB52B0781AE4F2781BF20215348C028D03C3EA9472EB94064008747C9A741548
:2014CA009B500475820022C006EA248EFAEB34F9FB78AFEAF2E2F5F0EBC4C5F0C4540F65D1
:2014EA00F0C5F0540FC5F065F0F2C5F008F290010DC007C006C005C004123316AA82AB83C6
:20150A00D004D005D006D007EBC4CAC4540F6ACA540FCA6ACAFB74E0C39AFA740F9BFBFE79
:20152A00781AEEF2781BEAF2D0067817E4F28F82C006C005C004121405E582D004D005D01A
:20154A00067003F5822278707402F2E408F2903E1A75F0601226D9E58270071226BD7582B9
:20156A0000221226BDE5827003F58222EC4D6003EE42B075820122AF82BF01028005BF0208
:20158A000A80047E0180087E40800475820022EE55B07011781CE2F58208E2F583E4F0A317
:2015AA00F07582012278177401F28F82121405E5827003F5822278757402F2E408F2903E71
:2015CA001E75F060122760E5827003F58222781EE2FE7F00781FE27C004207EC4206781C17
:2015EA00E2FC08E2FDEEC4CFC4540F6FCF540FCF6FCFFE74FFC39FFFE49EFE78AFEFF2EE7E
:20160A0008F2900098C005C004123316786D740AF2E408F212261BE5828583F0D004D0052C
:20162A002472FE740635F0FF8C828D83EEF0EFA3F075820122AF827820E2FD08E2FE8D8237
:20164A008E83E0FBA3E0FC4B601D8B0E8C0FC3E50E9472E50F9406400A747C950E741595D4
:20166A000F500475820022750EEF750F37850E82850F83E493FA7003021720EA5F700302B0
:20168A001712781C74C3F2743E08F28A82C007C006C005C004C003121581E582D003D00413
:2016AA00D005D006D0077003F58222C007903EC3E0FAA3E0FFC3EB9AEC9FD0075030850E21
:2016CA0082850F83E493FA7818EDF2EE08F28A82C007C006C005C004C003121458E582D005
:2016EA0003D004D005D006D0077003F58222850E82850F83A3E49325E0FA24E5F582E4349E
:20170A003FF583EBF0ECA3F07402250EF50EE4350FF50F02167775820122AF827EEF7D37DB
:20172A008E038D048B828C83E493FA6040EFB5022F7822E2F52E08E2F52F8E828D83A3E427
:20174A009325E024E5F582E4343FF583E0FDA3E0FE852E82852F83EDF0EEA3F07582012256
:11176A0074022BFBE43CFC8B068C0580B77582002244
:0637EF00010002010000D0
:20177B0090E670E043E001F05388FE22A982E3FE7F0009E37C004207EC4206EEC4CFC45470
:20179B000F6FCF540FCF6FCFFE78AFEFF2EE08F2900103123316786D740AF2E408F2022639
:2017BB001BAE82AF8378AFEEF2EF08F290000A123316786D7403F2740108F212261BAE826C
:2017DB00E583C454F0CEC4CE6ECE54F0CE6EFF7824E2F9EFF309EEF322AF827DF57E378D19
:2017FB00038E048B828C83E493FA6059EFB502488D828E83A3E493FA78687427F27867E4A1
:20181B00F278697402F28A82122568E5827003F582227825E2F51008E2F511758227121799
:20183B0087858212858313851082851183E512F0E513A3F07582012274022BFBE43CFC8BD3
:20185B00058C06809E75820022AF82782DE4F2782EF2782F740FF27830F4F278317403F29F
:20187B007832E4F27829E2F58208E2F583E0FDA3E0FE8D038E04C3747C9B74159C4023C05B
:20189B0007782BE2FB08E2FC8B828C83E0FAA3E0FF8A148F15C3747C951474159515D007A0
:2018BB00500475820022ED4E700C747CB514077415B5150280377824742DF28D828E83C00E
:2018DB0007C004C0031217BCD003D0048B828C83E0FBA3E0FC7824742FF28B828C831217E7
:2018FB00BCD00778327414F2783274D4F27DF57E378D828E83E493FC70030219FBEC5F7034
:20191B00030219F174012DFBE43EFC8B828C83E493FA786B742DF2786A7403F2786C14F2AA
:20193B008A82C007C006C005C004C0031225C0E582D003D004D005D006D0077003F5822214
:20195B008B828C83E493FA786B742FF2786A7404F2786C03F28A82C007C006C005C004C060
:20197B00031225C0E582D003D004D005D006D0077003F582228B828C83E493FA786B7431A1
:20199B00F2786A7401F2786CF28A82C007C006C005C004C0031225C0E582D003D004D0055C
:2019BB00D006D0077003F582228B828C83E493FB786B7432F2786A7402F2786C14F28B8209
:2019DB00C007C006C0051225C0E582D005D006D0077003F5822274022DFDE43EFE02190CC7
:2019FB0075820122AF827DF57E378D038E048B828C83E493FA7003021B04EFB502028003EC
:201A1B00021AF674012DF516E43EF517851682851783E493FD78687439F278677402F278D0
:201A3B006914F28D82122568E5827003F582227839E270217833E2F58208E2F583E4F0A3FA
:201A5B00F07835E2F58208E2F583747CF07415A3F075820122851682851783E493FD78686D
:201A7B007437F278677403F2786914F28D82122568E5827003F582227833E2F51808E2F5E5
:201A9B0019758237121787AA82AE83851882851983EAF0EEA3F0851682851783E493FE7813
:201ABB00687437F278677404F2786903F28E82122568E5827003F582227835E2F51808E23F
:201ADB00F519758237121787AA82AE83851882851983EAF0EEA3F07582012274022BFBE46D
:201AFB003CFC8B058C06021A0975820022E5805401B40100E433F58222AF83E582783BF2D6
:201B1B00EF08F2783BE2F58208E2F583E4F07CF57D378C828D83E4937003021C3974012C5A
:201B3B00FAE43DFB8A828B83E493FF7868743DF278677401F27869F28F82C005C004C003EB
:201B5B00C002122568E582D002D003D004D0057003F58222783DE27003021C2F783EE4F265
:201B7B00783BE2F58208E2F583E0FF8C828D83E4934207783BE2F58208E2F583EFF08A82C6
:201B9B008B83E493FF7868743EF278677402F2786914F28F82C005C004C003C00212256836
:201BBB00E582D002D003D004D0057003F58222783AE260308A828B83E493FA7868743DF217
:201BDB0078677401F27869F28A82C005C004122568E582D004D0057003F58222783EE244A5
:201BFB0004F28006783EE254FBF28C828D83A3E493FF786B743EF2786A7402F2786C14F283
:201C1B008F82C005C0041225C0E582D004D0057003F5822274022CFCE43DFD021B2D7582FF
:021C3B00012284
:0637F50001540255000022
:201C3D00AF82786B743FF2786A7412F2786CE4F28F82C0071225C0E582D0077003F58222A1
:201C5D00783F74FFF2786B743FF2786A74D2F2786C7401F28F821225C0E5827003F58222E3
:201C7D00758201227EFB7F378E828F83E49360378E828F83A3E493FCA3E493FD8C828D8361
:201C9D00E4F08E828F83A3A3A393F582C007C006121C3DE582D006D0077003F582227404AE
:201CBD002EFEE43FFF80C175820122E582F904F8E2FF7E007D008D258E248F238E22E3FA83
:201CDD00E4FBFEFFE5224202E5234203E5244206E525420778B1EAF2EB08F2EE08F2EF0806
:201CFD00F2900005E4F5F0123338AC82AD83AEF0C313FFEE13FEED13FDEC13FCEFC313EE7F
:201D1D0013ED13FDEC13F5828D8322AE82AF83EE2EF582EF33F583E5822582F582E583333F
:201D3D00F583786D7405F2E408F212261BAE82AF837840E2F9EEF309EFF322AF827DFB7E83
:201D5D00378D038E048B828C83E493FA605CEFB5024B8D828E83A3A3A3E493FA78687443C2
:201D7D00F278677488F278697402F28A82122568E5827003F582227841E2F52608E2F52764
:201D9D00758243121CC8858228858329852682852783E528F0E529A3F07582012274042BDF
:201DBD00FBE43CFC8B058C06809B75820022AF827849E4F2784AF2784B74F8F2784C747F45
:201DDD00F2784D74FFF27845E2F58208E2F583E0FDA3E0FE8D038E04C3747C9B74159C401F
:201DFD001DC0077847E2FB08E2FC8B828C83E0FAA3E0FFC3747C9A74159FD0075004758251
:201E1D000022ED4E601E78407449F28D828E83C007C004C003121D28D003D004D007784D5B
:201E3D00E254FEF28B828C83E0FDA3E0FE8D038E04BB7C05BC150280167840744BF28D82A6
:201E5D008E83C007121D28D007784DE254FDF27DFB7E378D828E83E493FC7003021F63ECD2
:201E7D005F7003021F5974032DFBE43EFC8B828C83E493FA786B7449F2786A7458F2786C99
:201E9D007402F28A82C007C006C005C004C0031225C0E582D003D004D005D006D0077003DE
:201EBD00F582228B828C83E493FA786B744BF2786A7457F2786C7402F28A82C007C006C007
:201EDD0005C004C0031225C0E582D003D004D005D006D0077003F582228B828C83E493FA39
:201EFD00786B744DF2786A74D2F2786C7401F28A82C007C006C005C004C0031225C0E58287
:201F1D00D003D004D005D006D0077003F582228B828C83E493FB786B744DF2786A7403F200
:201F3D00786CE4F28B82C007C006C0051225C0E582D005D006D0077003F5822274042DFDDD
:201F5D00E43EFE021E7075820122AF827DFB7E378D038E048B828C83E493FA700302205E9A
:201F7D00EFB50202800302205074032DF52AE43EF52B852A82852B83E493FD78687452F232
:201F9D0078677458F278697402F28D82122568E5827003F582227852E270147853E2700FC1
:201FBD00784EE2F58208E2F583E4F0A3F0801E784EE2F52C08E2F52D758252121CC8AA823E
:201FDD00AE83852C82852D83EAF0EEA3F0852A82852B83E493FE78677457F278687452F2E3
:201FFD0078697402F28E82122568E5827003F582227852E2FEBEF8197853E2FEBE7F12786E
:20201D0050E2F58208E2F583747CF07415A3F0801E7850E2F52C08E2F52D758252121CC8E8
:20203D00AA82AE83852C82852D83EAF0EEA3F07582012274042BFBE43CFC8B058C06021F4C
:20205D007175820022AE82AF83E4F07CFB7D378C828D83E493606C8C828D83A3A3A3E49399
:20207D00FB78687454F278677480F2786923F28B82C007C006C005C004122568E582D004F6
:20209D00D005D006D0077003F582227854E2540F60288E828F83E0FB8C828D83E493420325
:2020BD008E828F83EBF08C828D83A3E493FAA3E493FB8A828B837854E2F074042CFCE43D46
:2020DD00FD808C75820122AE82AF83E4F07CFB7D378C828D83E493FB6057C00374012CF5BF
:2020FD002EE43DF52F852E82852F83E493FAA3E493FB8A828B83E0FA540F7004D003802818
:20211D00D0038E828F83E0FA42038E828F83EBF07855E26013852E82852F83E493FAA3E40B
:20213D0093FB8A828B83E4F074042CFCE43DFD80A022AF827DFB7E378D828E83E493FC70A5
:20215D000302226FEC5F700302226574032DFBE43EFC8B828C83E493FA78687456F27867C0
:20217D007458F278697402F28A82C007C006C005C004C003122568E582D003D004D005D004
:20219D0006D0077003F582228B828C83E493FA78687458F278677457F278697402F28A821D
:2021BD00C007C006C005C004C003122568E582D003D004D005D006D0077003F582228B82E1
:2021DD008C83E493F582C007C006C005C004C003121C3DE582D003D004D005D006D00770A1
:2021FD0003F582228B828C83E493FA786B7456F2786A7458F2786C7402F28A82C007C00675
:20221D00C005C004C0031225C0E582D003D004D005D006D0077003F582228B828C83E4932F
:20223D00FB786B7458F2786A7457F2786C7402F28B82C007C006C0051225C0E582D005D098
:16225D0006D0077003F5822274042DFDE43EFE022155758201222E
:0C37FB0001C53E4002C63E410000000037
:20227300AF827E008F05BD01028005BF020880047E2080027E21EE7003F58222EE2EFE782B
:202293005AE24EF5821226A5E5827003F5822275820122AF82785AE4F28F82122273E582C8
:2022B300603878707401F2E408F2903E5B75F0601226D9E582602378707401F2E408F290A0
:2022D3003E5C75F0601226D9E582600E1226BDE5827003F58222758201221226BD75820038
:2022F30022AF82785AE4F28F82C007122273E582D007604578707401F2E408F2903E5D75A1
:20231300F0601226D9E5826030785A7401F28F82122273E5826022785EE2FD08E2FE7F005C
:2023330078757401F2E408F28D828E838FF0122760E5826004758201221226BD758200222D
:20235300AF82785B7401F27861795CE2F38F82C0071222A6E582D0077003F582227860E2C6
:20237300F4F2785B7403F27860795CE2F38F821222A6E5827003F5822275820122AF827885
:202393005D7401F27864795EE2F308E209F38F82C0071222F4E582D0077003F58222785DD9
:2023B3007403F27862795EE2F308E209F38F821222F4E5827003F582227862E2FE08E2FFE6
:0F23D3008E828F83E0F48E828F83F075820122D9
:2023E2001232F190E60B7403F01232F190E6017480F01232F190E6047480F01232F190E6F0
:2024020009E4F01232F190E6027498F01232F190E60374FEF01232F190E670E043E080F096
:202422001232F190E618E053E0FEF01232F190E619E053E0FEF01232F190E61AE053E0FE3B
:20244200F01232F190E61BE053E0FEF022E582FF60067E007D0080047E027D801232F19014
:20246200E6047480F01232F190E61274A04EF01232F190E61374204DF01232F190E61474BB
:20248200E04EF01232F190E61574604DF0EF60067D017E0080047D037E007866EDF28F82AA
:2024A2001224AE1232F190E604E4F022AF827866E25401605F1232F190E618E4F01232F1C0
:2024C20090E604E043E002F01232F190E6497482F01232F190E6497482F0EF60121232F141
:2024E20090E6497482F01232F190E6497482F01232F190E6187410F01232F190E61AE4F08B
:202502001232F190E604E043E006F01232F190E61A7404F07866E25402604A1232F190E679
:2025220019E4F01232F190E604E043E004F01232F190E6497484F01232F190E6497484F04E
:202542001232F190E6197410F01232F190E61BE4F01232F190E604E043E008F01232F19038
:06256200E61B7404F022E8
:20256800E5822582FFF5821226A5E582604378707401F2E408F2903E6775F0601226D9E5CB
:2025880082602E74014FF5821226A5E58260227868E2FD7E007F6078697975E2F3E409F382
:2025A8008D828E838FF0122760E5826004758201221226BD75820022E582FF25E0F58212F4
:2025C80026A5E582604678707401F2E408F2903E6A75F0601226D9E5826031786CE2601EA4
:2025E800786BE2FD7E007F60786C7970E2F3E409F38D828E838FF01226D9E582600E122675
:13260800BDE5827003F58222758201221226BD7582002267
:20261B00AE82AF837C007D007B10EF235401FAEE2EFEEF33FFEC2CFCED33FDEA6003430458
:20263B0001786DC3E2F5F0EC95F008E2F5F0ED95F04011786DD3E29CF4B3FCB308E29DF405
:0B265B00FD430601DBC48E828F83224A
:20266600C007C000AF8290E678E020E00E786FE260F4786FE4F2758200801F90E678E03052
:20268600E2057582008013EF600D90E678E0FFA2E1E433F5828003758201D000D00722C085
:2026A60007AF8290E6787480F090E679EFF0758201122666D0072290E678E030E2047582D2
:2026C600002290E6787440F090E678E020E6F975820122C007C006C004C003C002C000AF14
:2026E600F0AE83E5827872F208EEF208EFF27870E2F5F008E245F07005758201804F7B001A
:202706007C007870E2B5030708E2B50402802B7872E22BFA08E23CFE08E2FF8A828E838FB4
:20272600F01235F6FA90E679F0758201122666E58260070BBB00CB0C80C87870E2B50308BA
:2027460008E2B50403D38001C3E433F582D000D002D003D004D006D00722C007C006C005BE
:20276600C004C003C002C001C000AFF0AE83E5827877F208EEF208EFF27875E2F5F008E202
:2027860045F070067582010228A37875E2B4010408E26002800690E6787420F090E679E028
:2027A6007B007C00787AE4F208F2787A7975E2F5F0E3B5F00C08E2F5F009E3B5F003022892
:2027C6007D758200122666E5827003022890787AE22402FD08E23400FE7875E2B5050708A2
:2027E600E2B506028002800690E6787420F0787AE22401FD08E23400FE7875E2B505070810
:20280600E2B506028002803575AF03759AE6759B7890E67B7440F0E0ACE07877797AE3C5AD
:20282600F0E225F0FD09E3C5F008E235F0FE08E2FF8D828E838FF0EC1232FA802578777941
:202846007AE3C5F0E225F0FD09E3C5F008E235F0FE08E2FF90E679E0FA8D828E838FF0125B
:2028660032FA787AE22401F208E23400F2787AE2FB08E2FC0227B090E678E030E2057582C1
:2028860000801A90E678E020E6F97875E2B5030808E2B50403D38001C3E433F582D000D051
:0E28A60001D002D003D004D005D006D0072206
:2028B400AA82AB83787CE2FC08E2FD787EE2FE08E2FFEE60010FEF601775AF078A9B8B9AF9
:1128D4008C9E8D9D90E67CE090E67BF0DEF6DFF42223
:2028E500C007C006C005C001C000AF827887E260127881E2FE7888EEF27880E2FE7889EEFC
:20290500F280087880E2FE7888EEF2EF2FFFF5821226A5E58260587887E2FDE23395E0FE8A
:20292500787074012DF2E43E08F2903E8875F0601226D9E5826038EF3395E0FE4307018F60
:20294500821226A5E582602778857975E2F308E209F37882E2F58208E2F58308E2F5F012E9
:202965002760E5827004F582800B75820180061226BD758200D000D001D005D006D007223F
:20298500C007C006C005C004C003C002C001C000AF827894E4F208F2EF2FFFF5821226A598
:2029A500E5827003022B3A7892E2FC8CF005F07B017C008006EB2BFBEC33FCD5F0F7789406
:2029C500798FC3E3F5F0E295F009E3F5F008E295F04003022B3A7891E26012788BE2FA785A
:2029E50096EAF2788AE2FA7897EAF28008788AE2FA7896EAF2C003C0047891E2FAE2339531
:202A0500E0FC787074012AF2E43C08F2903E9675F0601226D9E582D004D0037003022B3A20
:202A2500C0078B028C0778BDEAF208EFF2788AE2F58208E2F583C007C004C003C002C00122
:202A4500C000123486AD82AE83D000D001D002D003D004D0077898EAC39DF2EF9E08F27849
:202A65008F7994E3F5F0C3E295F0FE09E3F5F008E295F0FF7898C3E2F5F0EE95F008E2F59A
:202A8500F0EF95F0D0075020788F7994E3F5F0C3E295F0C0E009E3F5F008E295F0C0E07888
:202AA50099D0E0F218D0E0F2788C7994E3C5F0E225F0FA09E3C5F008E235F0FD08E2FE7875
:202AC500987970E2F308E209F38A828D838EF01226D9E582605F1226BDE5827004F582801D
:202AE500737E007893E2600B7893C3E2F5F0EE95F0500C8F821226A5E58270030E80E47872
:202B050093E2B50605758200804A788A7998E3C5F0E225F0F209E3C5F008E235F0F2789478
:202B25007998E3C5F0E225F0F209E3C5F008E235F0F20229C31226BD7894798FE2F5F0E3BB
:202B4500B5F00C08E2F5F009E3B5F003D38001C3E433F582D000D001D002D003D004D005C8
:052B6500D006D007229C
:06009800E478FFF6D8FD3C
:012B6A003238
:202B6B00AFF0AE83E582789DF2EE08F2EF08F2789BE2F52E08E2F52F789BE2F5F008E2450C
:202B8B00F0602A789DE2FA08E2FB08E2FC789AE2FFAD2EAE2F8A828B838CF0EF1232FAA3E3
:1B2BAB00AA82AB831DBDFF011EED4E70E8789DE2F58208E2F58308E2F5F02269
:202BC600AF8278A1E4F278A2F2D2E890E668E043E008F090E65CE043E001F090E65D740122
:202BE600F0D2AF90E680E020E10890E680E043E002F0EF600E90E680E043E008F090000AAC
:202C06001235CB90E680E053E0F7F022AF82BF00028037BF01028036BF02028039BF040228
:202C26008038BF06028037BF08028036BF80028019BF8102801CBF8202801BBF8402801A64
:202C4600BF86028019BF881E801890E6A02290E6A12290E6A22290E6A32290E6A42290E6F9
:202C6600A52290E6A62290000022C021C0E0C0F0C082C083C007C006C005C004C003C00246
:202C8600C001C000C0D075D000C08675860090E6B8E0FFE4BF800104FE601B90E6B9E0FDDD
:202CA600BD061390E6BAE0FCA3E0F5827800ECF21201C0022EE8EF702790E6B9E0FDBD0999
:202CC6001F90E6BAE0F5821204FFE582600990E6A07480F0022EE890E6A07401F0022EE8BE
:202CE600EE600E90E6B9E0FDBD0806123521022EE88F05BD012F90E6B9E0FDBD0B2790E629
:202D0600BCE0FD90E6BA7805E0F28D82120548E582600990E6A07480F0022EE890E6A074BB
:202D260001F0022EE8E4BF810104FD601490E6B9E0FCBC0A0C90E6BCE0F5821205AB022E92
:202D4600E8EF703790E6B9E0FCBC032F90E6BAE0FBA3E0FCBB0110BC000D78A17401F290C7
:202D6600E6A003F0022EE8BB0205BC00028003022EE890E6A07480F0022EE8EE603590E696
:202D8600B9E0702F78A0E2FE78A1E225E0FC420690E740EEF090E741E4F090E6B504F090E9
:202DA600E68AE4F090E68B7402F090E6A07480F0022EE8ED602890E6B9E0702290E740E49F
:202DC600F090E741F090E6B504F090E68AE4F090E68B7402F090E6A07480F0022EE8BF0228
:202DE600028003022E9390E6B9E0FEBE03028008BE01028003022E9390E6BAE0FDA3E0FE98
:202E06004D6003022EE890E6BCE0F582122C12AD82AE83ED4E7003022EE890E6B9E0FCBC1E
:202E260003188D828E83E0FC4304018D828E83ECF090E6A07480F0022EE890E6BCE0F58296
:202E4600C006C00512350FE582D005D0067003022EE88D828E83E0FC5304FE8D828E83EC91
:202E6600F090E6BCE0FDA3E08D0453040F530580E4C423CDC423541F6DCD541FCD6DCDFE57
:202E860090E683ED4CF0E043E020F08055BF824C90E6B9E0704690E6BCE0F582122C12AE49
:202EA60082AF83EE4F603B8E828F83E0FE5306017F00EE4FB40100B3E433FF90E740F090B5
:202EC600E741E4F090E6B504F090E68AE4F090E68B7402F090E6A07480F0800690E6B812D6
:202EE60004F25391EF90E65D7401F0D086D0D0D000D001D002D003D004D005D006D007D069
:202F060083D082D0F0D0E0D02132AE82AF8378A7E2B4012C78A8E270278E828F83E493FCD1
:202F2600A3E493FD787CECF208EDF28C828D83E493787EF208E4F290E0001228B402317F50
:202F460078A7E2B4063C78A8E270378E828F83A3A3E493FCA3E493FD4C700790E6A074018B
:202F6600F0228C028D03787CEAF208EBF28C828D83E493787EF208E4F290E0001228B402AB
:202F8600317F78A7E2B40202800302309D8E828F83A3A3A3A3E493FD78A8C3E29D400302A7
:202FA600309D8E828F83A3A3A3A3A3E493FCA3E493FD78A8E275F002A42CF582ED35F0F5AC
:202FC60083E493FCA3E493FD74092CFFE43DFE8C028D03787CEAF208EBF28C828D83E493AF
:202FE600787EF208E4F290E000C007C006C005C0041228B4D004D005D006D0078C828D831D
:20300600E493FC2400F51AE434E0F51B8F028E03851A1C851B1D8A828B83E493FCA3E493BB
:20302600FD787CECF208EDF28C828D83E493787EF208E4F2851C82851D83C003C002122872
:20304600B4D002D0038A828B83E493FCA3E493FD8C828D83E493251AF51AE4351BF51B74D2
:20306600022AFAE43BFB8A828B83E493FCA3E4934C709D90E002E0FCA3E0FD4C600302315A
:203086007FE51AC39400FCE51B94E0FD90E002ECF0EDA3F002317F78A7E2B40304740180B7
:2030A60001E4FD602278A8E2701D787C7407F2087438F2903807E493787EF208E4F290E094
:2030C600001228B402317FED700302317878A8E2FC7D0024FFFAED34FFFB74072EF582E488
:2030E6003FF583C006C007E493FF7E00C3EA9FEB64808EF063F08095F0D007D006507374BD
:20310600082EF582E43FF583E493FEA3E493FF1CBCFF011DEC2CFCED33FDEC2EF582ED3FF0
:20312600F583E493FEA3E493FF90E0007402F090E00104F074012401FCE434E0FD8E828F1E
:2031460083E493FB60330EBE00010F8C828D83EBF074012CFAE43DFB8A828B83E4F0042A39
:20316600FCE43BFD90E000E0FB0B0B90E000EBF080CB90E6A07401F0227E007FE090E6B595
:203186007401F090E6B3EFF090E6B4EEF090E6A07480F022AE82AF83A3A3A3A3A3E493FC94
:2031A600A3E493FD74042EFEE43FFF78ABE4F28E828F83E493FA78ABC3E29A400122C00615
:2031C600C00778ABE275F002A42CF582ED35F0F583E493FAA3E493FF78AC74092AF2E43F7B
:2031E60008F27E008A828F83A3A3A3A3A3E493FF78A2E2B507028007D007D0060232E5D0B7
:2032060007D00678ACE2F52E08E2F52FC004C005852E82852F83E493FAA3E493FD8A828D7E
:2032260083A3E493F5307404B530028006D005D0048042D005D004852E82852F83E493F5F5
:2032460031A3E493F532853182853283A3A3E493FA78A9E2B50214853182853283A3A3A3A4
:20326600E493FA78AAE2B5020280047A0080027A018A06804C7405B53047EE6044C004C008
:2032860005852E82852F83E493FAA3E493FD8A828D83A3A3E493FD740F5DFC530580E4239E
:2032A600CDC423541F6DCD541FCD6DCD30E40244E0FA90E683ED4CF0E043E020F0D005D01F
:2032C600047402252EF52EE4352FF52F852E82852F83E493FAA3E493FB4A6003023212782F
:0832E600ABE22401F20231B554
:0438070004030904A9
:0132EE0032AD
:200076007900E94400601B7A0090380B78C775923EE493F2A308B800020592D9F4DAF27505
:0200960092FFD7
:0132EF0032AC
:0132F00032AB
:03010000022C705E
:030104000235F3CE
:0301080002350DB0
:03010C000235EFCA
:030110000235F5C0
:0301140002361997
:0301180002350AA3
:03011C000201B825
:03012000021027A3
:0301240002102A9C
:0301280002351E7F
:03012C0002361880
:0301300002102D8D
:0301340002103086
:030138000210337F
:03013C0002103678
:0301400002351B6A
:030144000201B8FD
:030148000236126A
:03014C0002361365
:0301500002361460
:030154000236155B
:0301580002361656
:03015C0002361751
:030160000235F471
:030164000201B8DD
:030168000201B8D9
:03016C000201B8D5
:0301700002351D38
:0301740002351F32
:0301780002353E0F
:03017C0002354009
:0301800002352025
:0301840002353F02
:03018800023541FC
:03018C000235F049
:03019000023485B1
:0301940002350B26
:0301980002350E1F
:03019C0002351A0F
:0301A0000235091C
:0301A40002350C15
:0301A80002351904
:0301AC0002351CFD
:0301B000023337E0
:0301B40002361EF2
:0101B8003214
:0932F100000000000000000022B2
:1B32FA0020F71130F6138883A88220F509F6A8837583002280FEF280F5F022D3
:013315003285
:20331600AA83AB828BF0903EAFE0A4F8A9F08AF0E0A429F98BF0A3E0A429F583888222227F
:013336003264
:013337003263
:20333800AF82AE83ADF0FC78B5EFF2EE08F2ED08F2EC08F278B5E2FF78B3E28FF0A4FFADCD
:20335800F078BBEFF208EDF278B5E2FF78B1E28FF0A4FFADF078B9EFF208EDF278BCE2FF84
:2033780078B8E2FE78B1E28EF0A42FFF78BCF278B7E2FE78B2E28EF0A42F78BCF278BBE2FD
:20339800FE08E2FF78B7E2FD78B1E28DF0A4ABF02EFEEB3FFF78BBEEF208EFF278B6E2FDFB
:2033B80078B2E28DF0A4ABF02EFEEB3FFF78BBEEF208EFF278B6E2FF78B3E28FF0A478B86D
:2033D800F278B6E2FF78B1E28FF0A4FFADF078B6EFF208EDF278B5E2FF78B4E28FF0A4785D
:2033F800B4F278B5E2FF78B2E28FF0A4FFADF078B2EFF208EDF278B1E4F278B5F278B9E213
:20341800F52E08E2F52F08E2F53008E2F53178B5E2FA08E2FB08E2FE08E2FFEA252EF52E25
:20343800EB352FF52FEE3530F530EF3531F53178B9E52EF208E52FF208E530F208E531F2AB
:2034580078B9E208E208E208E278B1E2FC08E2FD08E2FE08E2FFEC252EFCED352FFDEE3518
:0C34780030FEEF35318C828D838EF02207
:013484003215
:013485003214
:20348600AE82AF837D007C0078BEE2235401FB703578BDE225E0F208E233F278BDC3E2F5AF
:2034A600F0EE95F008E2F5F0EF95F0501478BDE2F5F008E2C313C5F01318F2C5F008F2803F
:2034C600050C8C0580C278BDC3E2F5F0EE95F008E2F5F0EF95F0400E78BDD3E29EF4B3FE12
:2034E600B308E29FF4FF78BDE2F5F008E2C313C5F01318F2C5F008F28D041DEC70C88E8278
:033506008F83228E
:01350900328F
:20009E0078BFE84400600A790075923EE4F309D8FC7808E84400600C7901903EBFE4F0A36D
:0400BE00D8FCD9FA97
:01350A00328E
:01350B00328D
:01350C00328C
:01350D00328B
:01350E00328A
:0A350F0090E6A07480F0758201229E
:01351900327F
:01351A00327E
:01351B00327D
:01351C00327C
:01351D00327B
:01351E00327A
:01351F003279
:013520003278
:1D35210090E74078A2E2F090E6B57401F090E68AE4F090E68B04F090E6A003F02266
:01353E00325A
:01353F003259
:013540003258
:013541003257
:20354200E583700BE58224FA400122B4001122E5826003D5E0FD0075E0FED583F674F9D558
:20356200E0FD22C007C006C001C000AE82AF83EE2EF8EF33F9EE28FEEF39FF90E600E0F822
:20358200794C20E416C3EF13CE13CEFF795AE820E309C3EF13CE13CEFF7963E58124FAF845
:2035A200E926C313C313F9C3EE99F582EF9400F583D000D001D006D00750012202354274EB
:2035C20011C0E0123565158122C007C006AE82AF837411C0E0EE4F600D1EBEFF011F900388
:0D35E200E812356580EF1581D006D0072274
:0135EF0032A9
:0135F00032A8
:0135F10032A7
:0135F20032A6
:0135F30032A5
:0135F40032A4
:0135F50032A3
:0D00690075813212361AE5826003020066CE
:1C35F60020F71430F6148883A88220F507E6A88375830022E280F7E49322E022E4
:013612003285
:013613003284
:013614003283
:013615003282
:013616003281
:013617003280
:01361800327F
:01361900327E
:04361A007582002293
:01361E003279
:00000001FF
