:06000000020069020E5728
:03000B00022B378E
:03001300022B10AD
:03001B00022B585D
:03002300022CC7E5
:03002B00020E9929
:03003300022B5A43
:03003B00022CC8CC
:03004300020100B7
:03004B0002234C41
:03005300020100A7
:03005B00022B1164
:03006300022B125B
:0300C200020066D3
:03006600020ECEB9
:2001BE00AF82BF033B7800E2B4EE35786674A6F208742DF2902DA6E4937868F208E4F29023
:2001DE00E0001220967D007EE090E6B57401F090E6B3EEF090E6B4EDF090E6A07480F022C4
:2001FE007891EFF278007992E2F3902D9C0226F1786C7401F208E4F2087460F2786AE4F27E
:20021E0008F2786F04F208E4F2787104F27582511220C7E58260407801E2B4FF02803878A4
:20023E0001E2B4C201227801E2B4C02B786C74C0F208743FF208E4F2786A740CF208E4F263
:20025E00786F7429F208E4F2787104F27582511220C7E582600122903FC074F9F0786674E4
:20027E00E0F208742DF278687410F208E4F2903FC1122096903FD1E4F0A3F0A3F0A3F02218
:20029E00903FC0E0FFBF4102800ABF4202800DBF431A8010903FC07410F08011903FC07473
:2002BE0020F08009903FC07430F0800122903EA17401F0787674A1F208743EF208E4F278F6
:2002DE00747407F208E4F2787904F208E4F2787B04F2787C7408F2787D74FFF2758251127D
:2002FE002167903EA174C0F0787674A1F208743EF208E4F27874F208F2787904F208E4F2A9
:20031E00787B04F2787C7408F2787D74FFF2758251122167903FC0E0903EA1F0787674A167
:20033E00F208743EF208E4F278747405F208E4F2787904F208E4F2787B04F2787C7408F2DE
:20035E00787D74FFF2758251122167787674A1F208743EF208E4F27874740CF208E4F27810
:20037E007904F208E4F2787B04F2787C7408F2787D74FFF2758251022167780274F5F208BE
:20039E00742CF2902D05E493FD1DC2D575F002ED30E704B2D5F404A430D50AF42401C5F054
:2003BE00F43400C5F0248CF582742D35F0F583E493FCA3E493FD7804ECF208EDF27802E2B6
:2003DE00240CFA08E23400FB8A828B83E0FEA3E0FF903FC0E07C004206EC42078A828B83C0
:2003FE00EEF0EFA3F0903FC0E0C4540F2440FF7804E2F58208E2F583EFF07804E22401FEEF
:20041E0008E23400FF903FC0E0FD740F5D24308E828F83F07804E22403FE08E23400FF8EC1
:20043E00828F83786674C1F208743FF278687410F208E4F2122096903FC0E0FFBFF9287896
:20045E0002E22408F58208E23400F58374B4F07404A3F07802E2240AF58208E23400F583A7
:20047E007413F07486A3F0227806E2540524FFE433F5821210867806E2035401F5820210E5
:20049E006EAF827806E24FF2020486AF827806E25207EF24FFE433F58222AF827806E25FD6
:2004BE00600FEFF4FF7806E25FF212048675820122758200227807E2600790E6A07401F00A
:2004DE002278077401F222AF82BF00028026BF01028005BF021A800C758200C007121CC5DD
:2004FE00D0078010758201C007121CC5D007800475820022788CEFF27808E4F27809F2782B
:20051E009614F27897F2902D9C12299575820122AF82788CE2B401028008788CE2B4020AE1
:20053E0080047E0080087E01800475820022780AE2B4011B8F058DF005F0785674018002F8
:20055E0025E0D5F0FBF28E82C007121D24D007EF2408F8790AE3F27896EFF2780A7997E2F7
:20057E00F3902D9C12299575820122E5822408F9E390E740F090E6B57401F090E68AE4F0AD
:20059E0090E68B04F090E6A003F02290E6B8E0FFE4BF400104FE601390E6B9E0FDBDB00B33
:2005BE007807E4F290E6A07480F022E4BFC00104FD7006EE700302078A90E6B9E0FCE4BC32
:2005DE00A90104FB7008BC1002800302078AEF235401FE7F0090E6BA780DE0F2A3E008F210
:2005FE0090E6BE780FE0F2A3E008F27C00EB60057F5102069490E6BCE0FAA3E0FBC37403D7
:20061E009AE49B4071EA2A900629738006800A800E80127F517C06805D7F527C0880577FA2
:20063E00537C088051780DC3E2F5F0E495F008E2F5F0741095F0403E780FC3E2F5F0E4959C
:20065E00F008E2F5F0741095F0402B780D790FE3C5F0E225F0FA09E3C5F008E235F0FBC345
:20067E00E49A74109B400F7F517C06780DE22400F208E23470F27807E4F2EF700790E6A050
:20069E007401F022780FE2F5F008E245F0700122780FC3E2944008E294005009780FE2FA7B
:2006BE0008E2FB80047A407B00EE605190E6A0E020E1F9786C7440F20874E7F208E4F278BA
:2006DE006FEAF208E4F2780D796AE2F308E209F378717401F28F821220C7E582700790E602
:2006FE00A07401F02290E6B57401F090E68AE4F090E68BEAF090E6A07480F0805790E6B57A
:20071E007401F090E68AE4F090E68BF090E6A07480F090E6A0E020E1F978767440F2087497
:20073E00E7F208E4F27879EAF208E4F2780D7974E2F308E209F3787B7401F2787CECF27868
:20075E007D74FFF28F82122167E582700790E6A07401F0227B00780FE2C39AF208E29BF2C9
:20077E00780DE22AF208E23BF20206A2ED7006EE700302082D90E6B9E0FCBC1302800302BB
:20079E00082DEF235401FC90E6BAE0FF90E6BEE0FAA3E0FB7807E4F28F82C004C003C00259
:2007BE00121192E582D002D003D004605BEC603290E6A0E020E1F98A04781AECF290E740A8
:2007DE00C0041211C1E582D004603D90E6B57401F090E68AE4F090E68BECF090E6A0748030
:2007FE00F02290E6B57401F090E68AE4F090E68BF090E6A07480F090E6A0E020E1F9781BF7
:20081E00EAF290E7400211F290E6A07401F022ED604390E6B9E0FCBC123B90E6BEE0FBA32F
:20083E00E0FCBB0130BC002D7807E4F290E6A0E020E1F990E7407806E2F090E6B57401F00D
:20085E0090E68AE4F090E68B04F090E6A003F07582010204B8EE700302095590E6B9E0FC26
:20087E00BC1102800302095590E6BCE0FBA3E0FC4B601EC007780BE22401FA08E23400FFEB
:20089E00EBB50206ECB507028005D007020955D0078B078C0690E6BEE0FDA3E0FA7807E440
:2008BE00F2EF4E702E758202C007C006C005C0021204B87884E4F278857410F208E4F290BF
:2008DE003FD575F00012234D121092D002D005D006D007ED4A6058C3ED9440EA94005006B0
:2008FE008D038A0480047B407C0090E6B57401F090E68AE4F090E68BF090E6A07480F09022
:20091E00E6A0E020E1F97818EBF290E740C007C006C005C003C0021210FDD002D003D005C5
:20093E00D006D0077C00EDC39BFDEA9CFA80A4780BEFF208EEF222ED7006EE7003020A0A3C
:20095E0090E6B9E0FCBC18028003020A0A90E6BEE0FBA3E0FCBB1005BC00028003020A0A4A
:20097E00EF235401FC7807E4F2EC603690E6A0E020E1F9786674D5F208743FF27868741005
:20099E00F208E4F290E74012209690E6B57401F090E68AE4F090E68B7410F090E6A0748007
:2009BE00F022121151121189E582603975820212049F90E6B57401F090E68AE4F090E68BD4
:2009DE00F090E6A07480F090E6A0E020E1F978667440F20874E7F278687410F208E4F29082
:2009FE003FD502209690E6A07401F022ED7006EE7003020AB390E6B9E0FCBC14028003028B
:200A1E000AB390E6BEE0FBA3E0FCBB0205BC00028003020AB3EF235401FC90E6BCE0FB78C3
:200A3E0007E4F2EC603890E6A0E020E1F978217440F20874E7F28B82121388E5827007908B
:200A5E00E6A07401F02290E6B57401F090E68AE4F090E68B7402F090E6A07480F02290E60E
:200A7E00B57401F090E68AE4F090E68B7402F090E6A07480F090E6A0E020E1F9781D7440D0
:200A9E00F20874E7F28B82121283E582700675820102049F22ED605790E6B9E0FCBC154FD2
:200ABE0090E6BEE0FBA3E0FCBB0244BC004190E6BCE0FC7807E4F290E6A0E020E1F9783091
:200ADE007440F20874E7F28C821216AAE582700790E6A07401F02290E6B57401F090E68A12
:200AFE00E4F090E68B7402F090E6A07480F022ED7006EE7003020BCE90E6B9E0FCBC160203
:200B1E008003020BCE90E6BEE0FBA3E0FCBB0405BC00028003020BCEEF235401FC90E6BC56
:200B3E00E0FB7807E4F2EC604490E6A0E020E1F9783E7440F20874E7F2784074022440F2B2
:200B5E00E434E708F28B821218ABE582700790E6A07401F02290E6B57401F090E68AE4F0BD
:200B7E0090E68B7404F090E6A07480F02290E6B57401F090E68AE4F090E68B7404F090E68F
:200B9E00A07480F090E6A0E020E1F978347440F20874E7F2783674022440F2E434E708F2A9
:200BBE008B8212171AE582700675820102049F22ED604790E6B9E0FCBC173F90E6BEE0FB6B
:200BDE00A3E0FCBB0134BC00317807E4F290E6A0E020E1F978457401F290E7401219C09000
:200BFE00E6B57401F090E68AE4F090E68B04F090E6A003F07582040204B8EE602F90E6B9A0
:200C1E00E0FCBC192790E6BEE0FBA3E0FC4B701C90E6BAE0FBA3E04B24FFE433F582780770
:200C3E00E4F212123290E6A07480F022ED7006EE7003020D2D90E6B9E0FCBC1A02800302E6
:200C5E000D2D90E6BEE0FBA3E0FCBB0205BC00028003020D2DEF235401FC90E6BCE0FB7887
:200C7E0007E4F2EC603890E6A0E020E1F978277440F20874E7F28B8212151FE582700790AA
:200C9E00E6A07401F02290E6B57401F090E68AE4F090E68B7402F090E6A07480F02290E6CC
:200CBE00B57401F090E68AE4F090E68B7402F090E6A07480F090E6A0E020E1F97825744086
:200CDE00F20874E7F28B82121442E582700675820102049F787674E5F208743FF208E4F2FC
:200CFE0078747431F208E4F278797404F208E4F2787B04F2787C7408F2787D74FFF27582A0
:200D1E0051122167E582700675820102049F22ED7006EE7003020DFB90E6B9E0FEBE1B0278
:200D3E008003020DFB90E6BEE0FCA3E0FEBC0205BE00028003020DFBEF235401FF90E6BCCF
:200D5E00E0FE7807E4F2EF604E90E6A0E020E1F9903FC0E0FFBF3000401E78527440F20882
:200D7E0074E7F2785474012440F2E434E708F28E82121C06E582700790E6A07401F0229029
:200D9E00E6B57401F090E68AE4F090E68B7402F090E6A07480F02290E6B57401F090E68A4E
:200DBE00E4F090E68B7402F090E6A07480F090E6A0E020E1F9903FC0E0FFBF3000401790AC
:200DDE00E7407850E0F290E7417851E0F28E82121BC9E582700675820102049F22ED6052A0
:200DFE0090E6B9E0FFBFC04A90E6BCE0FF7807E4F2BF0437786674B8F208742DF2902DB892
:200E1E007868E493F2A3E49308F290E0001220967E007FE090E6B57401F090E6B3EFF0901A
:200E3E00E6B4EEF090E6A07480F02290E6A07401F02290E6A07401F022C0E0C000C0D07561
:200E5E00D00078117401F2D0D0D000D0E032903EA3E4F0A3F07811F275820412049F7845A2
:200E7E00E4F2903EA21219C0903EA2E0FF781D74A3F208743EF28F8202128353B0EFC2CA64
:200E9E00C2CF32C0E0C082C08343B010D2CA5391EF90E65F74F3F0D083D082D0E032020E17
:200EBE00A1020EA1020EA1020EA1020EA1020EA190E6007412F090E67A7401F012020E1289
:200EDE00029E120398121062121223121576121C58122B1390E611E4F0122B1390E610E454
:200EFE00F075C801D2AD90E65EE043E0F3F0D2A8903FD1E0FCA3E0FDA3E0FEA3E0FFEC4DBB
:200F1E004E4F700302103D903FD17812E0F2A3E008F2A3E008F2A3E008F27D527816E4F2AE
:200F3E0008F2758201C00512107A121092D0057812E2F5F008E242F008E242F008E245F00F
:200F5E0070030210147C807812C3E2948008E2940008E2940008E2940050047812E2FC78ED
:200F7E006C7400F20874E0F208E4F2786FECF208E4F27816796AE2F308E209F37871740128
:200F9E00F28D821220C7E582700875820112049F80647818ECF290E000C005C0041210FD43
:200FBE00D004D0058C027B007E007F007812E2C39AF208E29BF208E29EF208E29FF28C07AA
:200FDE007B007816E22FF208E23BF27816E2F5F008E245F06003020F4D8D03EB04FDBD540E
:200FFE00028003020F4D7D517816E22400F208E23470F2020F4D7812E2F5F008E242F00849
:20101E00E242F008E245F07010121151121189E582700675820112049F75820012107A12B0
:20103E001189E582600675820212049F7582011223A17807E260031205A97811E260F3125B
:04105E000E6C80EEA6
:202CF5001201000200000040B720B19D0001010203020A0600020000000800000904000015
:202D150000FFFFFF060904000102FFFFFF070904000102FFFFFF080904010000FFFFFF0661
:202D35000904010102FFFFFF070705020200020007050402000200070586020002000705A1
:202D550088020002000902000002010480FA112D1A2D3E2D4C2D2C2D352D452D532D000030
:202D75000902000001020580FA112D232D3E2D4C2D00005A2D752DF12D052E182E2C2E68BD
:202D95002E882E912EA62EF52C072D02882D088C2D12034D005300460054003100300030FA
:202DB50000C00028000000000104000100000000000000000157494E555342000000000037
:202DD500000000000000000000000039393939393939393939393939393939007768697492
:202DF50065717561726B20726573656172636800476C6173676F7720446562756720546F0A
:202E15006F6C0058582D585858585858585858585858585858580050697065205020617472
:202E3500207B327835313242204550324F55542F455036494E7D2C2051206174207B32789A
:202E550035313242204550344F55542F455038494E7D00506970652050206174207B347858
:202E750035313242204550324F55542F455036494E7D0044697361626C656400446F7562D4
:202E95006C652D6275666665726564203531324200517561642D6275666665726564203592
:042EB5003132420074
:20106200740445B054C7F5B043B53C22E582600443B0082253B0F722E582600443B01022F7
:1010820053B0EF22E582600443B0202253B0DF2246
:20109200122B1390E601E053E0FCF0903FC0E0FFBF1002800FBF2002800ABF3002800DBF02
:2010B2003110800843B50253B0FD800643B2025380FD900001122C9753B2F743B31C4390C7
:2010D200105390F7903FC0E0FFBF1002800FBF2002800ABF3002800ABF310A800543B002EC
:2010F20080034380029004B0022C9775AF0385829B85839A90E67B7818E2F8E0A2E7C29408
:201112009292D294A2E6C2949292D294A2E5C2949292D294A2E4C2949292D294A2E3C29423
:201132009292D294A2E2C2949292D294A2E1C2949292D294A2E0C2949292D294D8BD2274BF
:2011520031C29400D294D5E0F853B3E3903FC0E0FFBF1002800FBF2002800ABF3002800E42
:20117200BF3113800990E601E043E023F02290E601E043E063F022E580A2E3E433F5822299
:20119200E5827819F2758210121E87E5826019785A7401F208E4F2903E1975F060121EBB07
:2011B200E582600475820122121E9F75820022AE82AF83758211121E87E582601C7D007857
:2011D2001A795FE2F309E4F38E828F838DF0121F42E582600475820122121E9F7582002277
:2011F200AE82AF837D00781B795AE2F309E4F38E828F838DF0121EBBE582600E121E9FE5D0
:11121200827003F5822275820122121E9F758200223B
:2012230074BE55B04480F5B043B5C153B07F22E582600453B07F2243B08022AF827E008F6C
:2012430005BD0102800ABF02028009BD031180087E0C800B7E0D8007781CE270027E48EED4
:201263007003F58222EE2EFE781CE24EF582121E87E5827007121E9F758200227582012273
:20128300AF827E00781DE2F58208E2F583E0FCA3E0FDEF30E0027E01EF30E103430640EFF5
:2012A30030E013903FE5E0FAA3E0FBC3EA9CEB9D500475820022EF30E113903FE7E0FAA378
:2012C300E0FBC3EA9CEB9D500475820022EC4D7008EEF452B075820122C3EC9472ED940607
:2012E3004008747C9C74159D500475820022EC248EFCED34F9FD789DECF2E2F5F0EDC4C5A3
:20130300F0C4540F65F0C5F0540FC5F065F0F2C5F008F290010DC007C006122B38AC82AD20
:2013230083D006D007EDC4CCC4540F6CCC540FCC6CCCFD74E0C39CFC740F9DFB781FEBF2FC
:201343007820ECF2781CE4F28F82C00612123EE582D0067003F58222785A7402F208E4F210
:20136300903E1F75F060121EBBE5827007121E9F75820022121E9FE5827003F58222EE4295
:20138300B075820122AF82BF01028005BF020A80047E0180087E40800475820022EE55B064
:2013A30070117821E2F58208E2F583E4F0A3F075820122781C7401F28F8212123EE582708F
:2013C30003F58222785F7402F208E4F2903E2375F060121F42E5827003F582227823E2FE3A
:2013E3007F007824E27C004207EC42067821E2FC08E2FDEEC4CFC4540F6FCF540FCF6FCF40
:20140300FE789D74FFC39FF2E49E08F2900098C005C004122B387857740AF208E4F2121D01
:20142300FAE5828583F0D004D0052472FE740635F0FF8C828D83EEF0EFA3F075820122AF2E
:20144300827825E2FD08E2FE8D828E83E0FBA3E0FC4B6015C3EB9472EC94064008747C9B5C
:2014630074159C5004758200227508B975092E850882850983E493FA700302151BEA5F7006
:201483000302150D782174A5F208743EF28A82C007C006C005C004C003121388E582D00306
:2014A300D004D005D006D0077003F58222C007903EA5E0FAA3E0FFC3EB9AEC9FD007503007
:2014C300850882850983E493FA781DEDF208EEF28A82C007C006C005C004C003121283E5AB
:2014E30082D003D004D005D006D0077003F58222850882850983A3E49325E0FA24E5F58279
:20150300E4343FF583EBF0ECA3F074022508F508E43509F50902147275820122AF827EB9D5
:201523007D2E8E038D048B828C83E493FA6040EFB5022F7827E2F51908E2F51A8E828D8331
:20154300A3E49325E024E5F582E4343FF583E0FDA3E0FE851982851A83EDF0EEA3F0758225
:13156300012274022BFBE43CFC8B068C0580B77582002228
:062EB9000100020100000F
:2015760090E670E043E001F05388FE22A982E3FE7F0009E37C004207EC4206789DEFF2E238
:20159600F5F0EEC4C5F0C4540F65F0C5F0540FC5F065F0F2C5F008F2900103122B387857D2
:2015B600740AF208E4F2021DFAAE82AF83789DEEF208EFF290000A122B3878577403F2081F
:2015D6007401F2121DFAAE82E583C454F0CEC4CE6ECE54F0CE6EFF7829E2F9EFF309EEF362
:2015F60022E5822582FFF582121E87E5826048785A7401F208E4F2903E2A75F060121EBBAA
:20161600E5826033EF3395E0FE4307018F82121E87E5826022782BE2FD7E007F60782C792D
:201636005FE2F309E4F38D828E838FF0121F42E582600475820122121E9F75820022E5823A
:20165600FF25E0F582121E87E5826041785A7401F208E4F2903E2D75F060121EBBE58260B1
:201676002C782EE2FD7E007F60782F795AE2F309E4F38D828E838FF0121EBBE582600E12A6
:201696001E9FE5827003F5822275820122121E9F75820022AF827DBF7E2E8D038E048B82BA
:2016B6008C83E493FA6059EFB502488D828E83A3E493FA782B7432F2782AE4F2782C7402EC
:2016D600F28A821215F7E5827003F582227830E2F50A08E2F50B75823212158285820C8588
:2016F600830D850A82850B83E50CF0E50DA3F07582012274022BFBE43CFC8B058C06809EA8
:2017160075820022AF827838E4F27839F2783A740FF2783BF4F2783C7403F2783DE4F27860
:2017360034E2F58208E2F583E0FDA3E0FEC3747C9D74159E401D7836E2FB08E2FC8B828C68
:2017560083E0F50EA3E0F50FC3747C950E7415950F500475820022ED4E700C747CB50E0725
:201776007415B50F02803778297438F28D828E83C007C004C0031215BFD003D0048B828C7A
:2017960083E0FBA3E0FC7829743AF28B828C831215BFD007783D7414F2783D74D4F27DBFE2
:2017B6007E2E8D828E83E493FC70030218A7EC5F700302189D74012DFBE43EFC8B828C8354
:2017D600E493FA782E7438F2782D7403F2782F14F28A82C007C006C005C004C00312165422
:2017F600E582D003D004D005D006D0077003F582228B828C83E493FA782E743AF2782D744B
:2018160004F2782F03F28A82C007C006C005C004C003121654E582D003D004D005D006D036
:20183600077003F582228B828C83E493FA782E743CF2782D7401F2782FF28A82C007C0066C
:20185600C005C004C003121654E582D003D004D005D006D0077003F582228B828C83E4937B
:20187600FB782E743DF2782D7402F2782F14F28B82C007C006C005121654E582D005D00667
:20189600D0077003F5822274022DFDE43EFE0217B875820122AF827DBF7E2E8D038E048BDE
:2018B600828C83E493FA70030219B0EFB5020280030219A274012DF510E43EF51185108204
:2018D600851183E493FD782B7444F2782A7402F2782C14F28D821215F7E5827003F58222C4
:2018F6007844E27021783EE2F58208E2F583E4F0A3F07840E2F58208E2F583747CF07415EF
:20191600A3F075820122851082851183E493FD782B7442F2782A7403F2782C14F28D82123F
:2019360015F7E5827003F58222783EE2F51208E2F513758242121582AA82AE8385128285A4
:201956001383EAF0EEA3F0851082851183E493FE782B7442F2782A7404F2782C03F28E82DB
:201976001215F7E5827003F582227840E2F51208E2F513758242121582AA82AE83851282D5
:20199600851383EAF0EEA3F07582012274022BFBE43CFC8B058C060218B575820022E5807A
:2019B6005401B40100E433F58222AF83E5827846F208EFF27846E2F58208E2F583E4F07C5C
:2019D600BF7D2E8C828D83E4937003021AE574012CFAE43DFB8A828B83E493FF782B7448D8
:2019F600F2782A7401F2782CF28F82C005C004C003C0021215F7E582D002D003D004D0054E
:201A16007003F582227848E27003021ADB7849E4F27846E2F58208E2F583E0FF8C828D838B
:201A3600E49342077846E2F58208E2F583EFF08A828B83E493FF782B7449F2782A7402F28C
:201A5600782C14F28F82C005C004C003C0021215F7E582D002D003D004D0057003F58222C8
:201A76007845E260308A828B83E493FA782E7448F2782D7401F2782FF28A82C005C00412F6
:201A96001654E582D004D0057003F582227849E24404F280067849E254FBF28C828D83A3A2
:201AB600E493FF782E7449F2782D7402F2782F14F28F82C005C004121654E582D004D00565
:131AD6007003F5822274022CFCE43DFD0219D97582012227
:062EBF0001540255000061
:201AE900AF827E008F05BD01028005BF020880047E2080027E21EE7003F58222EE2EFE78BD
:201B09004AE24EF582121E87E5827003F5822275820122AF82784AE4F28F82121AE9E58231
:201B29006038785A7401F208E4F2903E4B75F060121EBBE5826023785A7401F208E4F29093
:201B49003E4C75F060121EBBE582600E121E9FE5827003F5822275820122121E9F7582004B
:201B690022AF82784AE4F28F82C007121AE9E582D0076045785A7401F208E4F2903E4D75FA
:201B8900F060121EBBE5826030784A7401F28F82121AE9E5826022784EE2FD08E2FE7F00C6
:201BA900785F7401F208E4F28D828E838FF0121F42E582600475820122121E9F7582002221
:201BC900AF82784B7401F27851794CE2F38F82C007121B1CE582D0077003F582227850E229
:201BE900F4F2784B7403F27850794CE2F38F82121B1CE5827003F5822275820122AF8278D8
:201C09004D7401F27854794EE2F308E209F38F82C007121B6AE582D0077003F58222784D3B
:201C29007403F27852794EE2F308E209F38F82121B6AE5827003F582227852E2FE08E2FF38
:0F1C49008E828F83E0F48E828F83F0758201226A
:201C5800122B1390E60B7403F0122B1390E6017480F0122B1390E6047480F0122B1390E615
:201C780009E4F0122B1390E6027498F0122B1390E60374FEF0122B1390E670E043E080F0D7
:201C9800122B1390E618E053E0FEF0122B1390E619E053E0FEF0122B1390E61AE053E0FE7C
:201CB800F0122B1390E61BE053E0FEF022E582FF60067E007D0080047E027D80122B139070
:201CD800E6047480F0122B1390E61274A04EF0122B1390E61374204DF0122B1390E61474FC
:201CF800E04EF0122B1390E61574604DF0EF60067D017E0080047D037E007856EDF28F8231
:201D1800121D24122B1390E604E4F022AF827856E25401606D122B1390E618E4F0122B1393
:201D380090E604E0FE7D0043060290E604EEF0122B1390E6497482F0122B1390E649748219
:201D5800F0EF6012122B1390E6497482F0122B1390E6497482F0122B1390E6187410F012CC
:201D78002B1390E61AE4F0122B1390E604E0FF7E0043070690E604EFF0122B1390E61A7485
:201D980004F07856E254026058122B1390E619E4F0122B1390E604E0FF7E0043070490E6DB
:201DB80004EFF0122B1390E6497484F0122B1390E6497484F0122B1390E6197410F0122BAA
:201DD8001390E61BE4F0122B1390E604E0FF7E0043070890E604EFF0122B1390E61B740448
:021DF800F022D7
:201DFA00AE82AF837C007D007B10EF235401FAEE2EFEEF33FFEC2CFCED33FDEA6003430482
:201E1A00017857C3E2F5F0EC95F008E2F5F0ED95F040117857D3E29CF4B3FCB308E29DF45A
:0E1E3A00FD430601EB14FB70C18E828F8322E4
:201E4800C007C000AF8290E678E020E00E7859E260F47859E4F2758200801F90E678E030A4
:201E6800E2057582008013EF600D90E678E0FFA2E1E433F5828003758201D000D00722C0AB
:201E880007AF8290E6787480F090E679EFF0758201121E48D0072290E678E030E20475821E
:201EA800002290E6787440F090E678E020E6F975820122C007C006C004C003C002C000AF3A
:201EC800F0AE83E582785CF208EEF208EFF2785AE2F5F008E245F07005758201804F7B006C
:201EE8007C00785AE2B5030708E2B50402802B785CE22BFA08E23CFE08E2FF8A828E838F07
:201F0800F0122CCCFA90E679F0758201121E48E58260070BBB00CB0C80C8785AE2B503084F
:201F280008E2B50403D38001C3E433F582D000D002D003D004D006D00722C007C006C005E4
:201F4800C004C003C002C001C000AFF0AE83E5827861F208EEF208EFF2785FE2F5F008E254
:201F680045F07006758201022085785FE2B4010408E26002800690E6787420F090E679E08A
:201F88007B007C007864E4F208F27864795FE2F5F0E3B5F00C08E2F5F009E3B5F003022002
:201FA8005F758200121E48E58270030220727864E22402FD08E23400FE785FE2B50507085E
:201FC800E2B506028002800690E6787420F07864E22401FD08E23400FE785FE2B505070862
:201FE800E2B506028002803575AF03759AE6759B7890E67B7440F0E0ACE078617964E3C500
:20200800F0E225F0FD09E3C5F008E235F0FE08E2FF8D828E838FF0EC122B1C802578617962
:2020280064E3C5F0E225F0FD09E3C5F008E235F0FE08E2FF90E679E0FA8D828E838FF01297
:202048002B1C7864E22401F208E23400F27864E2FB08E2FC021F9290E678E030E20575821E
:2020680000801A90E678E020E6F9785FE2B5030808E2B50403D38001C3E433F582D000D08D
:0E20880001D002D003D004D005D006D007222C
:20209600AA82AB837866E2FC08E2FD7868E2FE08E2FFEE60010FEF601775AF078A9B8B9A4B
:1120B6008C9E8D9D90E67CE090E67BF0DEF6DFF42249
:2020C700C007C006C005C001C000AF827871E26012786BE2FE7872EEF2786AE2FE7873EE90
:2020E700F28008786AE2FE7872EEF2EF2FFFF582121E87E58260587871E2FDE23395E0FE19
:20210700785A74012DF2E43E08F2903E7275F060121EBBE5826038EF3395E0FE4307018FD8
:2021270082121E87E5826027786F795FE2F308E209F3786CE2F58208E2F58308E2F5F01277
:202147001F42E5827004F582800B7582018006121E9F758200D000D001D005D006D00722B1
:20216700C007C006C005C004C003C002C001C000AF82787EE4F208F2EF2FFFF582121E87FA
:20218700E582700302231C787CE2FC8CF005F07B017C008006EB2BFBEC33FCD5F0F7787E7E
:2021A7007979C3E3F5F0E295F009E3F5F008E295F0400302231C787BE260127875E2FA78E8
:2021C70080EAF27874E2FA7881EAF280087874E2FA7880EAF2C003C004787BE2FAE23395DB
:2021E700E0FC785A74012AF2E43C08F2903E8075F060121EBBE582D004D003700302231CBF
:20220700C0078B028C07789FEAF208EFF27874E2F58208E2F583C007C004C003C002C0017C
:20222700C000122B5CAD82AE83D000D001D002D003D004D0077882EAC39DF2EF9E08F278B8
:2022470079797EE3F5F0C3E295F0FE09E3F5F008E295F0FF7882C3E2F5F0EE95F008E2F502
:20226700F0EF95F0D00750207879797EE3F5F0C3E295F0C0E009E3F5F008E295F0C0E078DA
:2022870083D0E0F218D0E0F27876797EE3C5F0E225F0FA09E3C5F008E235F0FD08E2FE78DD
:2022A70082795AE2F308E209F38A828D838EF0121EBBE582605F121E9FE5827004F58280BB
:2022C700737E00787DE2600B787DC3E2F5F0EE95F0500C8F82121E87E58270030E80E478EA
:2022E7007DE2B50605758200804A78747982E3C5F0E225F0F209E3C5F008E235F0F2787EF7
:202307007982E3C5F0E225F0F209E3C5F008E235F0F20221A5121E9F787E7979E2F5F0E36F
:20232700B5F00C08E2F5F009E3B5F003D38001C3E433F582D000D001D002D003D004D005EE
:05234700D006D00722C2
:06009800E478FFF6D8FD3C
:01234C00325E
:20234D00AFF0AE83E5827887F208EEF208EFF27887E2FA08E2FB08E2FC7885E2F51908E2FA
:20236D00F51AAE19AF1A151974FFB51902151AEE4F60138A828B838CF07884E2122B1CA3F1
:14238D00AA82AB8380DC7887E2F58208E2F58308E2F5F022DB
:2023A100AF82788BE4F2788CF2D2E890E668E043E008F090E65CE043E001F090E65D74017B
:2023C100F0D2AF90E680E020E10890E680E043E002F0EF600E90E680E043E008F090000AD9
:2023E100122CA190E680E053E0F7F022AF82BF00028037BF01028036BF02028039BF040289
:202401008038BF06028037BF08028036BF80028019BF8102801CBF8202801BBF8402801A91
:20242100BF86028019BF881E801890E6A02290E6A12290E6A22290E6A32290E6A42290E626
:20244100A52290E6A62290000022C020C0E0C0F0C082C083C007C006C005C004C003C00274
:20246100C001C000C0D075D000C08675860090E6B8E0FFE4BF800104FE601B90E6B9E0FD0A
:20248100BD061390E6BAE0FCA3E0F5827800ECF21201BE0226C9EF702790E6B9E0FDBD09EF
:2024A1001F90E6BAE0F5821204E5E582600990E6A07480F00226C990E6A07401F00226C953
:2024C100EE600E90E6B9E0FDBD0806122BF70226C98F05BD012F90E6B9E0FDBD0B2790E6B1
:2024E100BCE0FD90E6BA780AE0F28D8212052EE582600990E6A07480F00226C990E6A07425
:2025010001F00226C9E4BF810104FD601490E6B9E0FCBC0A0C90E6BCE0F582120589022610
:20252100C9EF703790E6B9E0FCBC032F90E6BAE0FBA3E0FCBB0110BC000D788B7401F29029
:20254100E6A003F00226C9BB0205BC000280030226C990E6A07480F00226C9EE603590E638
:20256100B9E0702F788AE2FE788BE225E0FC420690E740EEF090E741E4F090E6B504F09042
:20258100E68AE4F090E68B7402F090E6A07480F00226C9ED602890E6B9E0702290E740E4F3
:2025A100F090E741F090E6B504F090E68AE4F090E68B7402F090E6A07480F00226C9BF027C
:2025C10002800302267490E6B9E0FEBE03028008BE0102800302267490E6BAE0FDA3E0FE13
:2025E1004D60030226C990E6BCE0F5821223EDAD82AE83ED4E70030226C990E6B9E0FCBCC8
:2026010003188D828E83E0FC4304018D828E83ECF090E6A07480F00226C990E6BCE0F582EA
:20262100C006C005122BE5E582D005D00670030226C98D828E83E0FC5304FE8D828E83EC19
:20264100F090E6BCE0FDA3E0740F5DFB7C00530580E4C423CDC423541F6DCD541FCD6DCD22
:20266100FEED4203EE420490E683EBF0E043E020F08055BF824C90E6B9E0704690E6BCE0D5
:20268100F5821223EDAE82AF83EE4F603B8E828F83E0FE5306017F00EE4FB40100B3E433D1
:2026A100FF90E740F090E741E4F090E6B504F090E68AE4F090E68B7402F090E6A07480F093
:2026C100800690E6B81204D35391EF90E65D7401F0D086D0D0D000D001D002D003D004D071
:2026E10005D006D007D083D082D0F0D0E0D02032AE82AF837891E2B4012C7892E270278EB1
:20270100828F83E493FCA3E493FD7866ECF208EDF28C828D83E4937868F208E4F290E00042
:2027210012209602297A7891E2B4063C7892E270378E828F83A3A3E493FCA3E493FD4C7009
:202741000790E6A07401F0228C028D037866EAF208EBF28C828D83E4937868F208E4F29042
:20276100E00012209602297A7891E2B4020280030228988E828F83A3A3A3A3E493FD7892F7
:20278100C3E29D40030228988E828F83A3A3A3A3A3E493FCA3E493FD7892E275F002A42CF3
:2027A100F582ED35F0F583E493FCA3E493FD74092CFAE43DFB7893EAF208EBF2087480F214
:2027C1008C028D037866EAF208EBF28C828D83E4937868F208E4F290E000C005C0041220CB
:2027E10096D004D0058C828D83E4932400FCE434E0FD7893E2F51408E2F51508E2F5168C84
:20280100178D188514828515838516F0122CCCFAA3122CCCFB7866EAF208EBF28A828B83D3
:20282100E4937868F208E4F2851782851883C005C004122096D004D005851482851583857B
:2028410016F0122CCCFAA3122CCCFB8A828B83E4932CFCE43DFD74022514F514E43515F513
:20286100158514828515838516F0122CCCFAA3122CCC4A708A90E002E0FAA3E0FB4A600313
:2028810002297AECC39400FCED94E0FD90E002ECF0EDA3F002297A7891E2B40304740180E7
:2028A10001E4FD60227892E2701D786674C5F208742EF2902EC5E4937868F208E4F290E07B
:2028C1000012209602297AED70030229737892E2FC7D0024FFFAED34FFFB74072EF582E4EB
:2028E1003FF583C006C007E493FF7E00C3EA9FEB64808EF063F08095F0D007D006507374CA
:20290100082EF582E43FF583E493FEA3E493FF1CBCFF011DEC2CFCED33FDEC2EF582ED3FFD
:20292100F583E493FEA3E493FF90E0007402F090E00104F074012401FCE434E0FD8E828F2B
:2029410083E493FB60330EBE00010F8C828D83EBF074012CFAE43DFB8A828B83E4F0042A46
:20296100FCE43BFD90E000E0FB0B0B90E000EBF080CB90E6A07401F0227E007FE090E6B5A2
:202981007401F090E6B3EFF090E6B4EEF090E6A07480F022AE82AF83A3A3A3A3A3E493FCA1
:2029A100A3E493FD74042EFEE43FFF7898E4F28E828F83E493FA7898C3E29A400122C00648
:2029C100C0077898E275F002A42CF582ED35F0F583E493FBA3E493FA74092BFEE43AFF7844
:2029E10099EEF208EFF2087480F27F008B828A83A3A3A3A3A3E493FE788CE2B5060280071F
:202A0100D007D006022B07D007D0067899E2F51908E2F51A08E2F51BC004C0058519828505
:202A21001A83851BF0122CCCFAA3122CCCFD8A828D83A3E493F51C7404B51C028006D005CD
:202A4100D0048047D005D004851982851A83851BF0122CCCF51DA3122CCCF51E851D8285DA
:202A61001E83A3A3E493FA7896E2B50214851D82851E83A3A3A3E493FA7897E2B502028074
:202A8100047A0080027A018A0780587405B51C53EF6050C004C005851982851A83851BF0BA
:202AA100122CCCFAA3122CCCFD8A828D83A3A3E493FD740F5DFA7B00530580E423CDC423A9
:202AC100541F6DCD541FCD6DCD30E40244E0FCED4202EC420390E683EAF0E043E020F0D080
:202AE10005D00474022519F519E4351AF51A851982851A83851BF0122CCCFAA3122CCCFB7A
:0F2B01004A6003022A197898E22401F20229B0EF
:042EC50004030904F5
:012B10003292
:200076007900E94400601B7A00902EC978A775923EE493F2A308B800020592D9F4DAF27571
:0200960092FFD7
:012B11003291
:012B12003290
:0301000002244B8B
:03010400022CC901
:03010800022BE3E4
:03010C00022CC5FD
:03011000022CCBF3
:03011400022CEFCB
:03011800022BE0D7
:03011C000201B825
:03012000020EBC10
:03012400020EBF09
:03012800022BF4B3
:03012C00022CEEB4
:03013000020EC2FA
:03013400020EC5F3
:03013800020EC8EC
:03013C00020ECBE5
:03014000022BF19E
:030144000201B8FD
:03014800022CE89E
:03014C00022CE999
:03015000022CEA94
:03015400022CEB8F
:03015800022CEC8A
:03015C00022CED85
:03016000022CCAA4
:030164000201B8DD
:030168000201B8D9
:03016C000201B8D5
:03017000022BF36C
:03017400022BF566
:03017800022C1442
:03017C00022C163C
:03018000022BF659
:03018400022C1535
:03018800022C172F
:03018C00022CC67C
:03019000022B5BE4
:03019400022BE15A
:03019800022BE453
:03019C00022BF043
:0301A000022BDF50
:0301A400022BE249
:0301A800022BEF38
:0301AC00022BF231
:0301B000022B59C6
:0301B400022CF426
:0101B8003214
:092B130000000000000000002297
:1B2B1C0020F71130F6138883A88220F509F6A8837583002280FEF280F5F022B8
:012B3700326B
:202B3800AA83AB828BF0903E9DE0A4F8A9F08AF0E0A429F98BF0A3E0A429F5838882222277
:012B5800324A
:012B59003249
:012B5A003248
:012B5B003247
:202B5C00AE82AF837D007C0078A0E2235401FB7035789FE225E0F208E233F2789FC3E2F53C
:202B7C00F0EE95F008E2F5F0EF95F05014789FE2F5F008E2C313C5F01318F2C5F008F28090
:202B9C00050C8C0580C2789FC3E2F5F0EE95F008E2F5F0EF95F0400E789FD3E29EF4B3FE81
:202BBC00B308E29FF4FF789FE2F5F008E2C313C5F01318F2C5F008F28D041DEC70C88E82C9
:032BDC008F8322C2
:012BDF0032C3
:20009E0078A1E84400600A790075923EE4F309D8FC7806E84400600C7901903EA1E4F0A3AB
:0400BE00D8FCD9FA97
:012BE00032C2
:012BE10032C1
:012BE20032C0
:012BE30032BF
:012BE40032BE
:0A2BE50090E6A07480F075820122D2
:012BEF0032B3
:012BF00032B2
:012BF10032B1
:012BF20032B0
:012BF30032AF
:012BF40032AE
:012BF50032AD
:012BF60032AC
:1D2BF70090E740788CE2F090E6B57401F090E68AE4F090E68B04F090E6A003F022B0
:012C1400328D
:012C1500328C
:012C1600328B
:012C1700328A
:202C1800E583700BE58224FA400122B4001122E5826003D5E0FD0075E0FED583F674F9D58B
:202C3800E0FD22C007C006C001C000AE82AF83EE2EF8EF33F9EE28FEEF39FF90E600E0F855
:202C5800794C20E416C3EF13CE13CEFF795AE820E309C3EF13CE13CEFF7963E58124FAF878
:202C7800E926C313C313F9C3EE99F582EF9400F583D000D001D006D007500122022C187451
:202C980011C0E0122C3B158122C007C006AE82AF837411C0E0EE4F600D1EBEFF011F9003EE
:0D2CB800E8122C3B80EF1581D006D00722DA
:012CC50032DC
:012CC60032DB
:012CC70032DA
:012CC80032D9
:012CC90032D8
:012CCA0032D7
:012CCB0032D6
:0D006900758120122CF0E582600302006614
:1C2CCC0020F71430F6148883A88220F507E6A88375830022E280F7E49322E02217
:012CE80032B9
:012CE90032B8
:012CEA0032B7
:012CEB0032B6
:012CEC0032B5
:012CED0032B4
:012CEE0032B3
:012CEF0032B2
:042CF00075820022C7
:012CF40032AD
:00000001FF
