:06000000020069020EB0CF
:03000B0002323F7F
:030013000232189E
:03001B000232604E
:0300230002351B88
:03002B00020F05BC
:030033000233AEE7
:03003B0002351C6F
:03004300020100B7
:03004B00022A780E
:03005300020100A7
:03005B0002321955
:0300630002321A4C
:0500C200C2000200660F
:03006600020F4046
:2001C000AF82BF033B7800E2B4EE35787C74FAF2743508F29035FAE493787EF2E408F2903D
:2001E000E0001227BF7D007EE090E6B57401F090E6B3EEF090E6B4EDF090E6A07480F02292
:2002000078A3EFF2780079A4E2F39035F0022E2A78827401F2E408F2746008F27880E4F28E
:2002200008F2788504F2E408F2788704F27582511227F0E58260407801E2B4FF0280387846
:2002400001E2B4C201227801E2B4C02B788274C0F2743F08F2E408F27880740CF2E408F235
:2002600078857440F2E408F2788704F27582511227F0E582600122903FC074F9F0787C7459
:2002800034F2743608F2787E7410F2E408F2903FC11227BF903FD1E4F0A3F0A3F0A3F02273
:2002A0007E497F35903FC0E0FDBDF902802C740C2EFCE43FFD8C828D83E0F508A3E0F509AD
:2002C000903FC0E0FB7A00E5084203E50942028C828D83EBF0EAA3F0802074082EF582E4BB
:2002E0003FF58374B4F07404A3F0740A2EF582E43FF5837413F07486A3F0903FE9E0604B1F
:20030000903557E493FF1FC2D575F002EF30E704B2D5F404A430D50AF42401C5F0F43400FC
:20032000C5F024E0F582743535F0F583E493FEA3E493FF8E828F83787C74E9F2743F08F2A7
:20034000787E7417F2E408F21227BF903559E493FF1FC2D575F002EF30E704B2D5F404A476
:2003600030D50AF42401C5F0F43400C5F024E0F582743535F0F583E493FEA3E493FF903FA5
:20038000C0E0C4540F24408E828F83F074012EFCE43FFD903FC0E0FB740F5B24308C828D2A
:2003A00083F074032EFEE43FFF8E828F83787C74C1F2743F08F2787E7410F2E408F20227A8
:2003C000BF20000E7802E25405600443B0202253B0DF22AF827802E24FF20203C1AF8278A1
:2003E00002E25F600FEFF4FF7802E25FF21203C1758201227582002230010790E6A07401F0
:20040000F022D20122AF82BF00028026BF01028005BF021A800C758200C007122356D0076F
:200420008010758201C007122356D00780047582002278A2EFF27803E4F27804F278A51483
:20044000F278A6F29035F01230BA75820122AF8278A2E2B40102800878A2E2B4020F80061C
:200460007806E4F2800B78067401F28004758200227805E2B4011E8F068EF005F07866748F
:2004800001800225E0D5F0FBF27806E2F582C0071223B5D007EF2403F87905E3F278A5EF56
:2004A000F2780579A6E2F39035F01230BA75820122E5822403F9E390E740F090E6B574015D
:2004C000F090E68AE4F090E68B04F090E6A003F02290E6B8E0FFE4BF400104FE601190E65E
:2004E000B9E0FDBDB009C20190E6A07480F022E4BFC00104FD7006EE70030206D690E6B9C8
:20050000E0FCE4BCA90104FB7008BC100280030206D6EF235401FE7F0090E6BA7809E0F2A8
:20052000A3E008F290E6BE780BE0F2A3E008F27C00EB60057F510205C290E6BCE0FAA3E044
:20054000FBC374039AE49B4079EA2A90054F738006800A800E80127F517C0680657F527C75
:2005600008805F7F537C0880597809E2FA08E2FBC3E49A74109B404AC002C003780BE2FA55
:2005800008E2FBC3E49A74109BD003D0024033C002C0037809790BE3C5F0E225F0FA09E3FF
:2005A000C5F008E235F0FBC3E49A74109BD003D002400F7F517C0674702BFB7809EAF2EB84
:2005C00008F2C201EF700790E6A07401F022780BE2F5F008E245F0700122780BE2FA08E216
:2005E000FBC3EA9440EB940040047A407B00EE605190E6A0E020E1F978827440F274E708F5
:20060000F2E408F27885EAF2E408F278097980E2F308E209F378877401F28F821227F0E599
:2006200082700790E6A07401F02290E6B57401F090E68AE4F090E68BEAF090E6A07480F0EB
:20064000805790E6B57401F090E68AE4F090E68BF090E6A07480F090E6A0E020E1F9788C80
:200660007440F274E708F2E408F2788FEAF2E408F27809798AE2F308E209F378917401F231
:200680007892ECF2789374FFF28F8212288DE582700790E6A07401F022C0048A0A750B00D7
:2006A000780BE2F50C08E2F50DE50CC3950AFBE50D950BFC780BEBF2EC08F27809E2FA0861
:2006C000E2FCE50A2AFAE50B3CFC7809EAF2EC08F2D0040205CEED7006EE70030207779041
:2006E000E6B9E0FCBC13028003020777EF235401FC90E6BAE0FF90E6BEE0FAA3E0FBC201EA
:200700008F82C004C003C002121260E582D002D003D004605BEC603290E6A0E020E1F98A68
:20072000047815ECF290E740C00412128FE582D004603D90E6B57401F090E68AE4F090E66A
:200740008BECF090E6A07480F02290E6B57401F090E68AE4F090E68BF090E6A07480F09037
:20076000E6A0E020E1F97816EAF290E7400212C090E6A07401F022ED605790E6B9E0FCBC1C
:20078000124F90E6BEE0FBA3E0FCBB0144BC0041C20190E6A0E020E1F912125DE58260066C
:2007A0007B027C0080047B007C007802E2FAEB420290E740EAF090E6B57401F090E68AE43B
:2007C000F090E68B04F090E6A003F07582010203DDEE70030208C390E6B9E0FCBC110280C9
:2007E000030208C390E6BCE0FBA3E0FC4B6027C0077807E2FA08E2FF74012AF50CE43FF508
:200800000D8B028C07EAB50C06EFB50D028005D0070208C3D0078B078C0690E6BEE0FAA372
:20082000E0FDC201EF4E7028789AE4F2789B7410F2E408F2903FD575F000C007C006C00599
:20084000C002122A79121142D002D005D006D007EA4D60678A038D04C3EB9440EC9400400A
:20086000047B407C0090E6B57401F090E68AE4F090E68BF090E6A07480F090E6A0E020E1F7
:20088000F97813EBF290E740C007C006C005C003C0021211C4D002D003D005D006D0078BD0
:2008A0000C750D008A0A8D0BAB0CAC0DE50AC39BFBE50B9CFC8B028C0580957807EFF2EEBD
:2008C00008F222ED7006EE700302096D90E6B9E0FCBC1802800302096D90E6BEE0FBA3E052
:2008E000FCBB1005BC0002800302096DEF235401FCC201EC603690E6A0E020E1F9787C7473
:20090000D5F2743F08F2787E7410F2E408F290E7401227BF90E6B57401F090E68AE4F09076
:20092000E68B7410F090E6A07480F022121218E582603390E6B57401F090E68AE4F090E6A6
:200940008BF090E6A07480F090E6A0E020E1F9787C7440F274E708F2787E7410F2E408F2F9
:20096000903FD50227BF90E6A07401F022ED7006EE7003020A1490E6B9E0FCBC140280030A
:20098000020A1490E6BEE0FBA3E0FCBB0205BC00028003020A14EF235401FC90E6BCE0FB16
:2009A000C201EC603890E6A0E020E1F9781C7440F274E708F28B82121488E582700790E662
:2009C000A07401F02290E6B57401F090E68AE4F090E68B7402F090E6A07480F02290E6B5DE
:2009E0007401F090E68AE4F090E68B7402F090E6A07480F090E6A0E020E1F978187440F237
:200A000074E708F28B8212135FE58270067582010203D322ED607290E6B9E0FCBC156A908C
:200A2000E6BEE0FBA3E0FCBB025FBC005C90E6BCE0FCC20190E6A0E020E1F9903FC0E0FB59
:200A4000BB3200401278417440F274E708F28C82121C5FAB82801078257440F274E708F2B3
:200A60008C821216FBAB82EB700790E6A07401F02290E6B57401F090E68AE4F090E68B7440
:200A800002F090E6A07480F022ED7006EE7003020B9A90E6B9E0FCBC16028003020B9A9044
:200AA000E6BEE0FBA3E0FCBB0405BC00028003020B9AEF235401FC90E6BCE0FBC201EC600D
:200AC0006D90E6A0E020E1F9903FC0E0FCBC3200401E784E7440F274E708F27850740224DF
:200AE00040F2E434E708F28B82121E6EAC82801C78337440F274E708F2783574022440F237
:200B0000E434E708F28B82121906AC82EC700790E6A07401F02290E6B57401F090E68AE4FC
:200B2000F090E68B7404F090E6A07480F02290E6B57401F090E68AE4F090E68B7404F090E3
:200B4000E6A07480F090E6A0E020E1F9903FC0E0FCBC3200401E78457440F274E708F27854
:200B60004774022440F2E434E708F28B82121CD2AC82801C78297440F274E708F2782B74DF
:200B8000022440F2E434E708F28B8212176BAC82EC70067582010203D322ED606D90E6B9F8
:200BA000E0FCBC176590E6BEE0FBA3E0FCBB015ABC0057C201750C0190E6A0E020E1F990A5
:200BC0003FC0E0FCBC3200400D78557401F290E740121FEB800E783A7401F290E740121A6E
:200BE0001B85820CE50C700790E6A07401F02290E6B57401F090E68AE4F090E68B04F090D9
:200C0000E6A003F07582040203DDEE602D90E6B9E0FCBC192590E6BEE0FBA3E0FC4B701A9B
:200C200090E6BAE0FBA3E04B24FFE433F582C20112130090E6A07480F022ED7006EE700362
:200C4000020D1B90E6B9E0FCBC1A028003020D1B90E6BEE0FBA3E0FCBB0205BC0002800349
:200C6000020D1BEF235401FC90E6BCE0FBC201EC603890E6A0E020E1F978227440F274E708
:200C800008F28B8212162BE582700790E6A07401F02290E6B57401F090E68AE4F090E68B1A
:200CA0007402F090E6A07480F02290E6B57401F090E68AE4F090E68B7402F090E6A07480DD
:200CC000F090E6A0E020E1F978207440F274E708F28B82121546E58270067582010203D37A
:200CE000788C74E5F2743F08F2E408F2788A7431F2E408F2788F7404F2E408F2789104F255
:200D000078927408F2789374FFF275825112288DE58270067582010203D322ED7006EE704C
:200D200003020DE790E6B9E0FCBC1B028003020DE790E6BEE0FBA3E0FCBB0205BC000280CF
:200D400003020DE7EF235401FF90E6BCE0FCC201EF604E90E6A0E020E1F9903FC0E0FFBFA9
:200D60003000401E78627440F274E708F2786474012440F2E434E708F28C82122297E58230
:200D8000700790E6A07401F02290E6B57401F090E68AE4F090E68B7402F090E6A07480F07A
:200DA0002290E6B57401F090E68AE4F090E68B7402F090E6A07480F090E6A0E020E1F990CC
:200DC0003FC0E0FFBF3000401790E7407860E0F290E7417861E0F28C8212225AE5827006B2
:200DE0007582010203D322EE602F90E6B9E0FFBF1C2790E6BEE0FEA3E0FF4E701C90E6BCD4
:200E0000E0FFC201D20053B0C353070FEF2F25E042B090E6A07480F022ED603A90E6B9E068
:200E2000FFBF0F3290E6BEE0FEA3E0FFBE0127BF0024C20190E6A0E020E1F990E740740276
:200E4000F090E6B514F090E68AE4F090E68B04F090E6A003F022ED605090E6B9E0FFBFC055
:200E60004890E6BCE0FFC201BF0437787C740CF2743608F290360C787EE493F2A3E49308FF
:200E8000F290E0001227BF7E007FE090E6B57401F090E6B3EFF090E6B4EEF090E6A0748071
:200EA000F02290E6A07401F02290E6A07401F022C2A832903EBDE4F0A3F07582041203D375
:200EC000903FC0E0FFBF32004008903EBC121F69800A783AE4F2903EBC121A1B903EBCE0FA
:200EE000FF781874BDF2743E08F28F8212135F903FC0E0FFBF32004009903EBCE0F5821264
:200F00002056D2A82220000353B0EFC2CAC2CF32C0E0C082C08320000343B010D2CA539190
:200F2000EF90E65F74F3F0D083D082D0E032020F10020F10020F10020F10020F10020F1049
:200F400090E6007412F090E67A7401F01202101202A01212F1903FC0E0FFBF3200400F12A3
:200F60001B88E582700B7582011203D3800312168212113C1222E912321B90E611E4F01297
:200F8000321B90E610E4F043B53443B00453B0CF75C801D2AD90E65EE043E0F3F0D2A89034
:200FA0003FD1E0FCA3E0FDA3E0FEA3E0FFEC4D4E4F70030210D5903FD1780DE0F2A3E00810
:200FC000F2A3E008F2A3E008F27D527811E4F208F243B010C005121142D005780DE2F5F0AF
:200FE00008E242F008E242F008E245F070030210B27C80780DC3E2948008E2940008E2942D
:201000000008E294005004780DE2FC78827400F274E008F2E408F27885ECF2E408F27811CD
:201020007980E2F308E209F378877401F28D821227F0E58270087582011203D38074781320
:20104000ECF290E000C005C0041211C4D004D0058C027B007E007F00780DE2C39AF208E283
:201060009BF208E29EF208E29FF28C037F007811E2FA08E2FEEB2AFAEF3EFE7811EAF2EE06
:2010800008F27811E2F5F008E245F06003020FDB8D03EB04FDBD54028003020FDB7D517854
:2010A00011E2FA08E22470FB7811EAF2EB08F2020FDB780DE2F5F008E242F008E242F00808
:2010C000E245F0700D121218E58270067582011203D353B0EF758201122AD430010312043F
:2010E000D120A803120EB32000F190E687E0702E90E684E0FFC313FF24FC40DFEF2F901149
:20110000027380068009800C800F43B00480CC63B00480C753B0FB80C263B00480BD43B008
:031120000480B890
:203549001201000200000040B720B19D0002010203020A06000200000008000009040000B7
:2035690000FFFFFF060904000102FFFFFF070904000102FFFFFF080904010000FFFFFF0605
:203589000904010102FFFFFF07070502020002000705040200020007058602000200070545
:2035A90088020002000902000002010480FA65356E359235A035803589359935A7350000F4
:2035C9000902000001020580FA653577359235A0350000AE35C93545365D3678368C36C84C
:2035E90036E836F136063749355B3502DC3508E03512034D005300460054003100300030EC
:2036090000C00028000000000104000100000000000000000157494E5553420000000000DA
:20362900000000000000000000000039393939393939393939393939393939007768697435
:2036490065717561726B2072657365617263680000000000476C6173676F7720496E7465E7
:203669007266616365204578706C6F7265720058582D585858585858585858585858585822
:20368900585800506970652050206174207B327835313242204550324F55542F455036493D
:2036A9004E7D2C2051206174207B327835313242204550344F55542F455038494E7D005044
:2036C9006970652050206174207B347835313242204550324F55542F455036494E7D0044EC
:2036E900697361626C656400446F75626C652D627566666572656420353132420051756101
:10370900642D6275666665726564203531324200E2
:20112300E58030E30A20000343B0087582012220000353B0F77582002243B5080211231274
:20114300321B90E601E053E0FCF0903FC0E0FFBF10028019BF20028014BF30028017BF3104
:20116300028012BF3202800DBF3310800843B50253B0FD800643B2025380FD9000011234B0
:20118300EB53B2F743B31C4390105390F7903FC0E0FFBF10028019BF20028014BF300280D8
:2011A30014BF3102800FBF3202800ABF330A800543B00280034380029004B01234EB0211D4
:2011C3002375AF0385829B85839A90E67B7813E2F8E0A2E7C2949292D294A2E6C2949292DD
:2011E300D294A2E5C2949292D294A2E4C2949292D294A2E3C2949292D294A2E2C294929256
:20120300D294A2E1C2949292D294A2E0C2949292D294D8BD227431C29400D294D5E0F85388
:20122300B3E3903FC0E0FFBF10028019BF20028014BF30028019BF31028014BF3202800F36
:20124300BF3314800A90E601E043E023F0800890E601E043E063F0021123021123E58278CE
:2012630014F27582101225ABE582601978707401F2E408F2903E1475F0601225DFE58260EB
:2012830004758201221225C375820022AE82AF837582111225ABE582601C7D0078157975F3
:2012A300E2F3E409F38E828F838DF0122666E5826004758201221225C375820022AE82AF62
:2012C300837D0078167970E2F3E409F38E828F838DF01225DFE582600E1225C3E582700381
:0E12E300F58222758201221225C37582002237
:2012F10074BE55B04480F5B043B5C153B07F22E582600453B07F2243B08022AF827E008F9E
:2013110005BD0102800ABF02028017BD031F8016903FC0E0FFBF330050047E0C800F7E0E45
:20133100800B7E0D80077817E270027E48EE7003F58222EE2EFE7817E24EF5821225ABE545
:201351008270071225C37582002275820122AF827E007818E2F58208E2F583E0FCA3E0FD00
:20137100EF30E0027E01EF30E103430640EF30E013903FE5E0FAA3E0FBC3EA9CEB9D50040D
:2013910075820022EF30E113903FE7E0FAA3E0FBC3EA9CEB9D500475820022EC4D700FEE1E
:2013B100F4FB52B0781AE4F2781BF202143B8C028D03C3EA9472EB94064008747C9A74153C
:2013D1009B500475820022C006EA248EFAEB34F9FB78ACEAF2E2F5F0EBC4C5F0C4540F65CE
:2013F100F0C5F0540FC5F065F0F2C5F008F290010DC007C006C005C004123240AA82AB8397
:20141100D004D005D006D007EBC4CAC4540F6ACA540FCA6ACAFB74E0C39AFA740F9BFBFE73
:20143100781AEEF2781BEAF2D0067817E4F28F82C006C005C00412130CE582D004D005D00E
:20145100067003F5822278707402F2E408F2903E1A75F0601225DFE58270071225C37582A9
:2014710000221225C3E5827003F58222EC4D6003EE42B075820122AF82BF01028005BF02FD
:201491000A80047E0180087E40800475820022EE55B07011781CE2F58208E2F583E4F0A311
:2014B100F07582012278177401F28F8212130CE5827003F5822278757402F2E408F2903E65
:2014D1001E75F060122666E5827003F58222781EE2FE7F00781FE27C004207EC4206781C0C
:2014F100E2FC08E2FDEEC4CFC4540F6FCF540FCF6FCFFE74FFC39FFFE49EFE78ACEFF2EE7B
:2015110008F2900098C005C004123240786D740AF2E408F2122522E5828583F0D004D005F7
:201531002472FE740635F0FF8C828D83EEF0EFA3F075820122AF827820E2FD08E2FE8D8231
:201551008E83E0FBA3E0FC4B601D8B0E8C0FC3E50E9472E50F9406400A747C950E741595CE
:201571000F500475820022750E19750F37850E82850F83E493FA7003021627EA5F7003027A
:201591001619781C74BFF2743E08F28A82C007C006C005C004C003121488E582D003D00405
:2015B100D005D006D0077003F58222C007903EBFE0FAA3E0FFC3EB9AEC9FD0075030850E1F
:2015D10082850F83E493FA7818EDF2EE08F28A82C007C006C005C004C00312135FE582D0F9
:2015F10003D004D005D006D0077003F58222850E82850F83A3E49325E0FA24E5F582E43498
:201611003FF583EBF0ECA3F07402250EF50EE4350FF50F02157E75820122AF827E197D37A5
:201631008E038D048B828C83E493FA6040EFB5022F7822E2F52E08E2F52F8E828D83A3E421
:201651009325E024E5F582E4343FF583E0FDA3E0FE852E82852F83EDF0EEA3F07582012250
:1116710074022BFBE43CFC8B068C0580B7758200223E
:06371900010002010000A6
:2016820090E670E043E001F05388FE22A982E3FE7F0009E37C004207EC4206EEC4CFC4546A
:2016A2000F6FCF540FCF6FCFFE78ACEFF2EE08F2900103123240786D740AF2E408F202250E
:2016C20022AE82AF8378ACEEF2EF08F290000A123240786D7403F2740108F2122522AE8233
:2016E200E583C454F0CEC4CE6ECE54F0CE6EFF7824E2F9EFF309EEF322AF827D1F7E378DE9
:20170200038E048B828C83E493FA6059EFB502488D828E83A3E493FA78687427F27867E49A
:20172200F278697402F28A8212246FE5827003F582227825E2F51008E2F51175822712168E
:201742008E858212858313851082851183E512F0E513A3F07582012274022BFBE43CFC8BC6
:20176200058C06809E75820022AF82782DE4F2782EF2782F740FF27830F4F278317403F299
:201782007832E4F27829E2F58208E2F583E0FDA3E0FE8D038E04C3747C9B74159C4023C055
:2017A20007782BE2FB08E2FC8B828C83E0FAA3E0FF8A148F15C3747C951474159515D0079A
:2017C200500475820022ED4E700C747CB514077415B5150280377824742DF28D828E83C008
:2017E20007C004C0031216C3D003D0048B828C83E0FBA3E0FC7824742FF28B828C831216DC
:20180200C3D00778327414F2783274D4F27D1F7E378D828E83E493FC7003021902EC5F70F5
:20182200030218F874012DFBE43EFC8B828C83E493FA786B742DF2786A7403F2786C14F29E
:201842008A82C007C006C005C004C0031224C7E582D003D004D005D006D0077003F5822208
:201862008B828C83E493FA786B742FF2786A7404F2786C03F28A82C007C006C005C004C05A
:20188200031224C7E582D003D004D005D006D0077003F582228B828C83E493FA786B743195
:2018A200F2786A7401F2786CF28A82C007C006C005C004C0031224C7E582D003D004D00550
:2018C200D006D0077003F582228B828C83E493FB786B7432F2786A7402F2786C14F28B8203
:2018E200C007C006C0051224C7E582D005D006D0077003F5822274022DFDE43EFE021813B5
:2019020075820122AF827D1F7E378D038E048B828C83E493FA7003021A0BEFB502028003B5
:201922000219FD74012DF516E43EF517851682851783E493FD78687439F278677402F278C4
:201942006914F28D8212246FE5827003F582227839E270217833E2F58208E2F583E4F0A3EE
:20196200F07835E2F58208E2F583747CF07415A3F075820122851682851783E493FD786867
:201982007437F278677403F2786914F28D8212246FE5827003F582227833E2F51808E2F5D9
:2019A2001975823712168EAA82AE83851882851983EAF0EEA3F0851682851783E493FE7807
:2019C200687437F278677404F2786903F28E8212246FE5827003F582227835E2F51808E233
:2019E200F51975823712168EAA82AE83851882851983EAF0EEA3F07582012274022BFBE461
:201A02003CFC8B058C0602191075820022E5805401B40100E433F58222AF83E582783BF2C9
:201A2200EF08F2783BE2F58208E2F583E4F07C1F7D378C828D83E4937003021B4074012C24
:201A4200FAE43DFB8A828B83E493FF7868743DF278677401F27869F28F82C005C004C003E5
:201A6200C00212246FE582D002D003D004D0057003F58222783DE27003021B36783EE4F253
:201A8200783BE2F58208E2F583E0FF8C828D83E4934207783BE2F58208E2F583EFF08A82C0
:201AA2008B83E493FF7868743EF278677402F2786914F28F82C005C004C003C00212246F2A
:201AC200E582D002D003D004D0057003F58222783AE260308A828B83E493FA7868743DF211
:201AE20078677401F27869F28A82C005C00412246FE582D004D0057003F58222783EE24499
:201B020004F28006783EE254FBF28C828D83A3E493FF786B743EF2786A7402F2786C14F27C
:201B22008F82C005C0041224C7E582D004D0057003F5822274022CFCE43DFD021A347582ED
:021B420001227E
:06371F00015402550000F8
:201B4400AF82786B743FF2786A7412F2786CE4F28F82C0071224C7E582D0077003F5822295
:201B6400783F74FFF2786B743FF2786A74D2F2786C7401F28F821224C7E5827003F58222D7
:201B8400758201227E257F378E828F83E49360378E828F83A3E493FCA3E493FD8C828D8331
:201BA400E4F08E828F83A3A3A393F582C007C006121B44E582D006D0077003F582227404A2
:201BC4002EFEE43FFF80C175820122E582F904F8E2FF7E007D008D258E248F238E22E3FA7D
:201BE400E4FBFEFFE5224202E5234203E5244206E525420778AEEAF2EB08F2EE08F2EF0803
:201C0400F2900005E4F5F0123262AC82AD83AEF0C313FFEE13FEED13FDEC13FCEFC313EE4F
:201C240013ED13FDEC13F5828D8322AE82AF83EE2EF582EF33F583E5822582F582E5833339
:201C4400F583786D7405F2E408F2122522AE82AF837840E2F9EEF309EFF322AF827D257E4D
:201C6400378D038E048B828C83E493FA605CEFB5024B8D828E83A3A3A3E493FA78687443BC
:201C8400F278677488F278697402F28A8212246FE5827003F582227841E2F52608E2F52758
:201CA400758243121BCF858228858329852682852783E528F0E529A3F07582012274042BD3
:201CC400FBE43CFC8B058C06809B75820022AF827849E4F2784AF2784B74F8F2784C747F3F
:201CE400F2784D74FFF27845E2F58208E2F583E0FDA3E0FE8D038E04C3747C9B74159C4019
:201D04001DC0077847E2FB08E2FC8B828C83E0FAA3E0FFC3747C9A74159FD007500475824A
:201D24000022ED4E601E78407449F28D828E83C007C004C003121C2FD003D004D007784D4F
:201D4400E254FEF28B828C83E0FDA3E0FE8D038E04BB7C05BC150280167840744BF28D82A0
:201D64008E83C007121C2FD007784DE254FDF27D257E378D828E83E493FC7003021E6AEC96
:201D84005F7003021E6074032DFBE43EFC8B828C83E493FA786B7449F2786A7458F2786C8D
:201DA4007402F28A82C007C006C005C004C0031224C7E582D003D004D005D006D0077003D2
:201DC400F582228B828C83E493FA786B744BF2786A7457F2786C7402F28A82C007C006C001
:201DE40005C004C0031224C7E582D003D004D005D006D0077003F582228B828C83E493FA2D
:201E0400786B744DF2786A74D2F2786C7401F28A82C007C006C005C004C0031224C7E5827A
:201E2400D003D004D005D006D0077003F582228B828C83E493FB786B744DF2786A7403F2FA
:201E4400786CE4F28B82C007C006C0051224C7E582D005D006D0077003F5822274042DFDD1
:201E6400E43EFE021D7775820122AF827D257E378D038E048B828C83E493FA7003021F655E
:201E8400EFB502028003021F5774032DF52AE43EF52B852A82852B83E493FD78687452F226
:201EA40078677458F278697402F28D8212246FE5827003F582227852E270147853E2700FB5
:201EC400784EE2F58208E2F583E4F0A3F0801E784EE2F52C08E2F52D758252121BCFAA8232
:201EE400AE83852C82852D83EAF0EEA3F0852A82852B83E493FE78677457F278687452F2DD
:201F040078697402F28E8212246FE5827003F582227852E2FEBEF8197853E2FEBE7F127861
:201F240050E2F58208E2F583747CF07415A3F0801E7850E2F52C08E2F52D758252121BCFDC
:201F4400AA82AE83852C82852D83EAF0EEA3F07582012274042BFBE43CFC8B058C06021E47
:201F64007875820022AE82AF83E4F07C257D378C828D83E493606C8C828D83A3A3A3E49362
:201F8400FB78687454F278677480F2786923F28B82C007C006C005C00412246FE582D004EA
:201FA400D005D006D0077003F582227854E2540F60288E828F83E0FB8C828D83E49342031F
:201FC4008E828F83EBF08C828D83A3E493FAA3E493FB8A828B837854E2F074042CFCE43D40
:201FE400FD808C75820122AE82AF83E4F07C257D378C828D83E493FB6057C00374012CF58F
:202004002EE43DF52F852E82852F83E493FAA3E493FB8A828B83E0FA540F7004D003802811
:20202400D0038E828F83E0FA42038E828F83EBF07855E26013852E82852F83E493FAA3E405
:2020440093FB8A828B83E4F074042CFCE43DFD80A022AF827D257E378D828E83E493FC7075
:2020640003022176EC5F700302216C74032DFBE43EFC8B828C83E493FA78687456F27867AE
:202084007458F278697402F28A82C007C006C005C004C00312246FE582D003D004D005D0F8
:2020A40006D0077003F582228B828C83E493FA78687458F278677457F278697402F28A8217
:2020C400C007C006C005C004C00312246FE582D003D004D005D006D0077003F582228B82D5
:2020E4008C83E493F582C007C006C005C004C003121B44E582D003D004D005D006D0077095
:2021040003F582228B828C83E493FA786B7456F2786A7458F2786C7402F28A82C007C0066E
:20212400C005C004C0031224C7E582D003D004D005D006D0077003F582228B828C83E49323
:20214400FB786B7458F2786A7457F2786C7402F28B82C007C006C0051224C7E582D005D08C
:1621640006D0077003F5822274042DFDE43EFE02205C7582012222
:0C37250001C13E4002C23E410000000015
:20217A00AF827E008F05BD01028005BF020880047E2080027E21EE7003F58222EE2EFE7825
:20219A005AE24EF5821225ABE5827003F5822275820122AF82785AE4F28F8212217AE582B7
:2021BA00603878707401F2E408F2903E5B75F0601225DFE582602378707401F2E408F29095
:2021DA003E5C75F0601225DFE582600E1225C3E5827003F58222758201221225C375820023
:2021FA0022AF82785AE4F28F82C00712217AE582D007604578707401F2E408F2903E5D7595
:20221A00F0601225DFE5826030785A7401F28F8212217AE5826022785EE2FD08E2FE7F004B
:20223A0078757401F2E408F28D828E838FF0122666E5826004758201221225C3758200221D
:20225A00AF82785B7401F27861795CE2F38F82C0071221ADE582D0077003F582227860E2BA
:20227A00F4F2785B7403F27860795CE2F38F821221ADE5827003F5822275820122AF827879
:20229A005D7401F27864795EE2F308E209F38F82C0071221FBE582D0077003F58222785DCD
:2022BA007403F27862795EE2F308E209F38F821221FBE5827003F582227862E2FE08E2FFDA
:0F22DA008E828F83E0F48E828F83F075820122D3
:2022E90012321B90E60B7403F012321B90E6017480F012321B90E6047480F012321B90E642
:2023090009E4F012321B90E6027498F012321B90E60374FEF012321B90E670E043E080F012
:2023290012321B90E618E053E0FEF012321B90E619E053E0FEF012321B90E61AE053E0FEB7
:20234900F012321B90E61BE053E0FEF022E582FF60067E007D0080047E027D8012321B90BA
:20236900E6047480F012321B90E61274A04EF012321B90E61374204DF012321B90E6147437
:20238900E04EF012321B90E61574604DF0EF60067D017E0080047D037E007866EDF28F827A
:2023A9001223B512321B90E604E4F022AF827866E25401605F12321B90E618E4F012321B36
:2023C90090E604E043E002F012321B90E6497482F012321B90E6497482F0EF601212321BBD
:2023E90090E6497482F012321B90E6497482F012321B90E6187410F012321B90E61AE4F007
:2024090012321B90E604E043E006F012321B90E61A7404F07866E25402604A12321B90E6F5
:2024290019E4F012321B90E604E043E004F012321B90E6497484F012321B90E6497484F0CA
:2024490012321B90E6197410F012321B90E61BE4F012321B90E604E043E008F012321B908A
:06246900E61B7404F022E2
:20246F00E5822582FFF5821225ABE582604378707401F2E408F2903E6775F0601225DFE5BB
:20248F0082602E74014FF5821225ABE58260227868E2FD7E007F6078697975E2F3E409F377
:2024AF008D828E838FF0122666E5826004758201221225C375820022E582FF25E0F58212E4
:2024CF0025ABE582604678707401F2E408F2903E6A75F0601225DFE5826031786CE2601E94
:2024EF00786BE2FD7E007F60786C7970E2F3E409F38D828E838FF01225DFE582600E12256B
:13250F00C3E5827003F58222758201221225C37582002256
:20252200AE82AF837C007D007B10EF235401FAEE2EFEEF33FFEC2CFCED33FDEA6003430452
:2025420001786DC3E2F5F0EC95F008E2F5F0ED95F04011786DD3E29CF4B3FCB308E29DF4FF
:0B256200FD430601DBC48E828F832244
:20256D00C007C000AF8290E678E020E00E786FE260F4786FE4F2758200801E90E678E0304D
:20258D00E2057582008012EF600C90E678E0FF035401F5828003758201D000D00722C007BC
:2025AD00AF8290E6787480F090E679EFF075820112256DD0072290E678E030E204758200CD
:2025CD002290E6787440F090E678E020E6F975820122C007C006C004C003C002C000AFF01E
:2025ED00AE83E5827872F2EE08F2EF08F27870E2F5F008E245F07005758201804F7B007C88
:20260D00007870E2B5030708E2B50402802B7872E22BFA08E23CFE08E2FF8A828E838FF03A
:20262D00123520FA90E679F075820112256DE58260070BBB00CB0C80C87870E2B50308086C
:20264D00E2B50403D38001C3E433F582D000D002D003D004D006D00722C007C006C005C000
:20266D0004C003C002C001C000AFF0AE83E5827877F2EE08F2EF08F27875E2F5F008E24577
:20268D00F070067582010227AE7875E2FB08E2FCBB0109BC000690E6787420F090E679E080
:2026AD007B007C00787AE4F208F2787A7975E2F5F0E3B5F00C08E2F5F009E3B5F00302278D
:2026CD008875820012256DE582700302279B787AE2FD08E2FE74022DFDE43EFE7875E2B52F
:2026ED00050708E2B506028002800690E6787420F0787AE2FD08E2FE0DBD00010E7875E23F
:20270D00B5050708E2B506028002803575AF03759AE6759B7890E67B7440F0E0ACE0787779
:20272D00797AE3C5F0E225F0FD09E3C5F008E235F0FE08E2FF8D828E838FF0EC1232248003
:20274D00257877797AE3C5F0E225F0FD09E3C5F008E235F0FE08E2FF90E679E0FA8D828EDC
:20276D00838FF0123224787AE22401F208E23400F2787AE2FB08E2FC0226B790E678E03055
:20278D00E205758200801A90E678E020E6F97875E2B5030808E2B50403D38001C3E433F58F
:1227AD0082D000D001D002D003D004D005D006D00722DA
:2027BF00AA82AB83787CE2FC08E2FD787EE2FE08E2FFEE60010FEF601775AF078A9B8B9AEF
:1127DF008C9E8D9D90E67CE090E67BF0DEF6DFF42219
:2027F000C007C006C005C001C000AF827887E260127881E2FE7888EEF27880E2FE7889EEF2
:20281000F280087880E2FE7888EEF2EF2FFFF5821225ABE58260557887E2FDE23395E0FE7E
:202830000DBD00010E7870EDF2EE08F2903E8875F0601225DFE582603374014FF582122563
:20285000ABE582602778857975E2F308E209F37882E2F58208E2F58308E2F5F0122666E522
:20287000827004F582800B75820180061225C3758200D000D001D005D006D00722C007C015
:2028900006C005C004C003C002C001C000AF827894E4F208F2EF2FFFF5821225ABE5827039
:2028B00003022A487892E2FC8CF005F07B017C008006EB2BFBEC33FCD5F0F77894798FC3FB
:2028D000E3F5F0E295F009E3F5F008E295F04003022A487891E26012788BE2FA7896EAF29C
:2028F000788AE2FA7897EAF28008788AE2FA7896EAF2C003C0047891E2FAE23395E0FC0AB3
:20291000BA00010C7870EAF2EC08F2903E9675F0601225DFE582D004D0037003022A48C042
:2029300007788AE2F58208E2F5838B028C0778BAEAF2EF08F2C007C004C003C002C001C01B
:20295000001233B0AD82AE83D000D001D002D003D004D007EAC39DFAEF9EFF7898EAF2EF76
:2029700008F2788F7994E3F5F0C3E295F0FE09E3F5F008E295F0FF7898C3E2F5F0EE95F0FD
:2029900008E2F5F0EF95F0D0075020788F7994E3F5F0C3E295F0C0E009E3F5F008E295F0B7
:2029B000C0E07899D0E0F218D0E0F2788C7994E3C5F0E225F0FA09E3C5F008E235F0FD08AB
:2029D000E2FE78987970E2F308E209F38A828D838EF01225DFE582605F1225C3E5827004A8
:2029F000F58280737E007893E2600B7893C3E2F5F0EE95F0500C8F821225ABE58270030E48
:202A100080E47893E2B50605758200804A788A7998E3C5F0E225F0F209E3C5F008E235F090
:202A3000F278947998E3C5F0E225F0F209E3C5F008E235F0F20228CB1225C37894798FE26F
:202A5000F5F0E3B5F00C08E2F5F009E3B5F003D38001C3E433F582D000D001D002D003D0CF
:082A700004D005D006D00722B6
:06009800E478FFF6D8FD3C
:012A7800322B
:202A7900AFF0AE83E582789DF2EE08F2EF08F2789BE2F52E08E2F52F789BE2F5F008E245FF
:202A9900F0602A789DE2FA08E2FB08E2FC789AE2FFAD2EAE2F8A828B838CF0EF123224A3AC
:1B2AB900AA82AB831DBDFF011EED4E70E8789DE2F58208E2F58308E2F5F0225C
:202AD400AF8278A1E4F278A2F2D2E890E668E043E008F090E65CE043E001F090E65D740115
:202AF400F0D2AF90E680E020E10890E680E043E002F0EF600E90E680E043E008F090000A9F
:202B14001234F590E680E053E0F7F022AF82BF00028037BF01028036BF02028039BF0402F2
:202B34008038BF06028037BF08028036BF80028019BF8102801CBF8202801BBF8402801A57
:202B5400BF86028019BF881E801890E6A02290E6A12290E6A22290E6A32290E6A42290E6EC
:202B7400A52290E6A62290000022C021C0E0C0F0C082C083C007C006C005C004C003C00239
:202B9400C001C000C0D075D000C08675860090E6B8E0FFE4BF800104FE601B90E6B9E0FDD0
:202BB400BD061390E6BAE0FCA3E0F5827800ECF21201C0022E02EF702A90E6B9E0FDBD096F
:202BD4002290E6BAE0F582120405E582600990E6A07480F0022E0290E6A07401F07481F0C1
:202BF400022E02EE600E90E6B9E0FDBD080612344B022E028F05BD013290E6B9E0FDBD0B41
:202C14002A90E6BCE0FD90E6BA7805E0F28D8212044EE582600990E6A07480F0022E0290E9
:202C3400E6A07401F07481F0022E02E4BF810104FD601490E6B9E0FCBC0A0C90E6BCE0F500
:202C5400821204B1022E02EF703790E6B9E0FCBC032F90E6BAE0FBA3E0FCBB0110BC000D37
:202C740078A17401F290E6A003F0022E02BB0205BC00028003022E0290E6A07480F0022E26
:202C940002EE603590E6B9E0702F78A0E2FE78A1E225E0FC420690E740EEF090E741E4F090
:202CB40090E6B504F090E68AE4F090E68B7402F090E6A07480F0022E02ED602890E6B9E0F6
:202CD400702290E740E4F090E741F090E6B504F090E68AE4F090E68B7402F090E6A07480B7
:202CF400F0022E02BF02028003022DA790E6B9E0FEBE03028008BE01028003022DA790E69A
:202D1400BAE0FDA3E0FE4D6003022E0290E6BCE0F582122B20AD82AE83ED4E7003022E027F
:202D340090E6B9E0FCBC03188D828E83E0FC4304018D828E83ECF090E6A07480F0022E0231
:202D540090E6BCE0F582C006C005123439E582D005D0067003022E028D828E83E0FC5304C2
:202D7400FE8D828E83ECF090E6BCE0FDA3E08D0453040F530580E4C423CDC423541F6DCDB8
:202D9400541FCD6DCDFE90E683ED4CF0E043E020F0805BBF825290E6B9E0704C90E6BCE027
:202DB400F582122B20AE82AF838E048F05EE4F603D8C828D83E0FC5304017F00EC4FB40108
:202DD40000B39202E433FF90E740F090E741E4F090E6B504F090E68AE4F090E68B7402F0F5
:202DF40090E6A07480F0800690E6B81203F85391EF90E65D7401F0D086D0D0D000D001D092
:202E140002D003D004D005D006D007D083D082D0F0D0E0D02132AE82AF8378A3E2B4012CFB
:202E340078A4E270278E828F83E493FCA3E493FD787CECF2ED08F28C828D83E493787EF207
:202E5400E408F290E0001227BF02309F78A3E2B4063F78A4E2703A8E828F83A3A3E493FCCE
:202E7400A3E493FD4C700A90E6A07401F07481F0228C028D03787CEAF2EB08F28C828D83EE
:202E9400E493787EF2E408F290E0001227BF02309F78A3E2B402028003022FBA8E828F8363
:202EB400A3A3A3A3E493FD78A4C3E29D4003022FBA8E828F83A3A3A3A3A3E493FCA3E49394
:202ED400FD78A4E275F002A42CF582ED35F0F583E493FCA3E493FD74092CFFE43DFE8C02CC
:202EF4008D03787CEAF2EB08F28C828D83E493787EF2E408F290E000C007C006C005C00498
:202F14001227BFD004D005D006D0078C828D83E493FC2400F51AE434E0F51B8F028E0385DC
:202F34001A1C851B1D8A828B83E493FCA3E493FD787CECF2ED08F28C828D83E493787EF2B0
:202F5400E408F2851C82851D83C003C0021227BFD002D0038A828B83E493FCA3E493FD8CE5
:202F7400828D83E493251AF51AE4351BF51B74022AFAE43BFB8A828B83E493FCA3E4934CFB
:202F9400709D90E002E0FCA3E0FD4C600302309FE51AC39400FCE51B94E0FD90E002ECF0B1
:202FB400EDA3F002309F78A3E2B4030474018001E4FD602278A4E2701D787C7431F27437DA
:202FD40008F2903731E493787EF2E408F290E0001227BF02309FED700302309578A4E2FC54
:202FF4007D0024FFFAED34FFFB74072EF582E43FF583C006C007E493FF7E00C3EA9FEB6431
:20301400808EF063F08095F0D007D006507374082EF582E43FF583E493FEA3E493FF1CBCB4
:20303400FF011DEC2CFCED33FDEC2EF582ED3FF583E493FEA3E493FF90E0007402F090E025
:203054000104F074012401FCE434E0FD8E828F83E493FB60360EBE00010F8C828D83EBF0DD
:2030740074012CFAE43DFB8A828B83E4F0042AFCE43BFD90E000E0FB0B0B90E000EBF08025
:20309400CB90E6A07401F07481F0227E007FE090E6B57401F090E6B3EFF090E6B4EEF090C2
:2030B400E6A07480F022AE82AF83A3A3A3A3A3E493FCA3E493FD74042EFEE43FFF78A7E48C
:2030D400F28E828F83E493FA78A7C3E29A400122C006C00778A7E275F002A42CF582ED3538
:2030F400F0F583E493FAA3E493FF78A874092AF2E43F08F2752E008A828F83A3A3A3A3A304
:20311400E493FF78A2E2B507028007D007D00602320FD007D00678A8E2F52F08E2F530C052
:2031340004C005852F82853083E493FAA3E493FD8A828D83A3E493F5317404B5310280067A
:20315400D005D004804AD005D004852F82853083E493F532A3E493F533853282853383A3DA
:20317400A3E493FA78A5E2B50214853282853383A3A3A3E493FA78A6E2B50202800678AA2E
:20319400E4F2800578AA7401F278AAE2F52E804D7405B53148E52E6044C004C005852F8226
:2031B400853083E493FAA3E493FD8A828D83A3A3E493FD740F5DFC530580E423CDC42354A2
:2031D4001F6DCD541FCD6DCD30E40244E0FA90E683ED4CF0E043E020F0D005D0047402255B
:2031F4002FF52FE43530F530852F82853083E493FAA3E493FB4A600302313378A7E22401CD
:04321400F20230D5BD
:043731000403090480
:013218003283
:200076007900E94400601B7A0090373578C375923EE493F2A308B800020592D9F4DAF275E0
:0200960092FFD7
:013219003282
:01321A003281
:03010000022B7E51
:0301040002351DA4
:0301080002343787
:03010C00023519A0
:0301100002351F96
:030114000235436E
:030118000234347A
:03011C000201B825
:03012000020F2E9D
:03012400020F3196
:0301280002344856
:03012C0002354257
:03013000020F3487
:03013400020F3780
:03013800020F3A79
:03013C00020F3D72
:0301400002344541
:030144000201B8FD
:0301480002353C41
:03014C0002353D3C
:0301500002353E37
:0301540002353F32
:030158000235402D
:03015C0002354128
:0301600002351E47
:030164000201B8DD
:030168000201B8D9
:03016C000201B8D5
:030170000234470F
:0301740002344909
:03017800023468E6
:03017C0002346AE0
:0301800002344AFC
:03018400023469D9
:0301880002346BD3
:03018C0002351A1F
:030190000233AF88
:03019400023435FD
:03019800023438F6
:03019C00023444E6
:0301A000023433F3
:0301A400023436EC
:0301A800023443DB
:0301AC00023446D4
:0301B000023261B7
:0301B400023548C9
:0101B8003214
:09321B0000000000000000002288
:1B32240020F71130F6138883A88220F509F6A8837583002280FEF280F5F022A9
:01323F00325C
:20324000AA83AB828BF0903EACE0A4F8A9F08AF0E0A429F98BF0A3E0A429F5838882222259
:01326000323B
:01326100323A
:20326200AF82AE83ADF0FC78B2EFF2EE08F2ED08F2EC08F278B2E2FF78B0E28FF0A4FFADAD
:20328200F078B8EFF208EDF278B2E2FF78AEE28FF0A4FFADF078B6EFF208EDF278B9E2FF6A
:2032A20078B5E2FE78AEE28EF0A42FFF78B9F278B4E2FE78AFE28EF0A42F78B9F278B8E2E9
:2032C200FE08E2FF78B4E2FD78AEE28DF0A4ABF02EFEEB3FFF78B8EEF208EFF278B3E2FDDE
:2032E20078AFE28DF0A4ABF02EFEEB3FFF78B8EEF208EFF278B3E2FF78B0E28FF0A478B553
:20330200F278B3E2FF78AEE28FF0A4FFADF078B3EFF208EDF278B2E2FF78B1E28FF0A47842
:20332200B1F278B2E2FF78AFE28FF0A4FFADF078AFEFF208EDF278AEE4F278B2F278B6E2FE
:20334200F52E08E2F52F08E2F53008E2F53178B2E2FA08E2FB08E2FE08E2FFEA252EF52EFF
:20336200EB352FF52FEE3530F530EF3531F53178B6E52EF208E52FF208E530F208E531F285
:2033820078B6E208E208E208E278AEE2FC08E2FD08E2FE08E2FFEC252EFCED352FFDEE35F5
:0C33A20030FEEF35318C828D838EF022DE
:0133AE0032EC
:0133AF0032EB
:2033B000AE82AF837D007C0078BBE2235401FB703578BAE225E0F208E233F278BAC3E2F58F
:2033D000F0EE95F008E2F5F0EF95F0501478BAE2F5F008E2C313C5F01318F2C5F008F28019
:2033F000050C8C0580C278BAC3E2F5F0EE95F008E2F5F0EF95F0400E78BAD3E29EF4B3FEEF
:20341000B308E29FF4FF78BAE2F5F008E2C313C5F01318F2C5F008F28D041DEC70C88E8251
:033430008F832265
:013433003266
:20009E0078BCE84400600A790075923EE4F309D8FC7807E84400600C7901903EBCE4F0A374
:0400BE00D8FCD9FA97
:013434003265
:013435003264
:013436003263
:013437003262
:013438003261
:0A34390090E6A07480F07582012275
:013443003256
:013444003255
:013445003254
:013446003253
:013447003252
:013448003251
:013449003250
:01344A00324F
:1D344B0090E74078A2E2F090E6B57401F090E68AE4F090E68B04F090E6A003F0223D
:013468003231
:013469003230
:01346A00322F
:01346B00322E
:20346C00E583700BE58224FA400122B4001122E5826003D5E0FD0075E0FED583F674F9D52F
:20348C00E0FD22C007C006C001C000AE82AF83EE2EF8EF33F9EE28FEEF39FF90E600E0F8F9
:2034AC00794C20E416C3EF13CE13CEFF795AE820E309C3EF13CE13CEFF7963E58124FAF81C
:2034CC00E926C313C313F9C3EE99F582EF9400F583D000D001D006D00750012202346C7499
:2034EC0011C0E012348F158122C007C006AE82AF837411C0E0EE4F600D1EBEFF011F900336
:0D350C00E812348F80EF1581D006D0072221
:01351900327F
:01351A00327E
:01351B00327D
:01351C00327C
:01351D00327B
:01351E00327A
:01351F003279
:0D006900758133123544E5826003020066A4
:1C35200020F71430F6148883A88220F507E6A88375830022E280F7E49322E022BA
:01353C00325C
:01353D00325B
:01353E00325A
:01353F003259
:013540003258
:013541003257
:013542003256
:013543003255
:04354400758200226A
:013548003250
:00000001FF
