:06000000020069020F621C
:03000B000232DEE0
:030013000232B7FF
:03001B000232FFAF
:030023000235BAE9
:03002B00020FB70A
:0300330002344D47
:03003B000235BBD0
:03004300020100B7
:03004B00022AE99D
:03005300020100A7
:03005B000232B8B6
:030063000232B9AD
:0300C200020066D3
:03006600020FEC9A
:2001BE00AF82BF033B7800E2B4EE3578817499F2743608F2903699E4937883F2E408F290F5
:2001DE00E0001228307D007EE090E6B57401F090E6B3EEF090E6B4EDF090E6A07480F02222
:2001FE0078A8EFF2780079A9E2F390368F022E9578877401F2E408F2746008F27885E4F272
:20021E0008F2788A04F2E408F2788C04F2758251122861E58260407801E2B4FF02803878CC
:20023E0001E2B4C201227801E2B4C02B788774C0F2743F08F2E408F27885740CF2E408F22D
:20025E00788A7429F2E408F2788C04F2758251122861E582600122903FC074F9F0788174F1
:20027E00D3F2743608F278837410F2E408F2903FC1122830903FD1E4F0A3F0A3F0A3F0225F
:20029E00903FC0E0FFBF4102800ABF4202800DBF431A8010903FC07410F08011903FC07473
:2002BE0020F08009903FC07430F0800122903EC57401F0789174C5F2743E08F2E408F27893
:2002DE008F7407F2E408F2789404F2E408F2789604F278977408F2789874FFF275825112F6
:2002FE0028FE903EC574C0F0789174C5F2743E08F2E408F2788FF208F2789404F2E408F272
:20031E00789604F278977408F2789874FFF27582511228FE903FC0E0903EC5F0789174C515
:20033E00F2743E08F2E408F2788F7405F2E408F2789404F2E408F2789604F278977408F272
:20035E00789874FFF27582511228FE789174C5F2743E08F2E408F2788F740CF2E408F278FD
:20037E009404F2E408F2789604F278977408F2789874FFF27582510228FE780274E8F27455
:20039E003508F29035F8E493FD1DC2D575F002ED30E704B2D5F404A430D50AF42401C5F0BC
:2003BE00F43400C5F0247FF582743635F0F583E493FCA3E493FD7804ECF2ED08F27802E2BA
:2003DE00240CFA08E23400FB8A828B83E0FEA3E0FF903FC0E07C004206EC42078A828B83C0
:2003FE00EEF0EFA3F0903FC0E0C4540F2440FF7804E2F58208E2F583EFF07804E22401FEEF
:20041E0008E23400FF903FC0E0FD740F5D24308E828F83F07804E22403FE08E23400FF8EC1
:20043E00828F83788174C1F2743F08F278837410F2E408F2122830903FC0E0FFBFF92878BE
:20045E0002E22408F58208E23400F58374B4F07404A3F07802E2240AF58208E23400F583A7
:20047E007413F07486A3F0227806E25405600443B0202253B0DF22AF827806E24FF202040A
:20049E0086AF827806E25F600FEFF4FF7806E25FF212048675820122758200227807E26036
:2004BE000790E6A07401F02278077401F222AF82BF00028026BF01028005BF021A800C75B7
:2004DE008200C0071223C7D0078010758201C0071223C7D00780047582002278A7EFF278AB
:2004FE0008E4F27809F278AD14F278AEF290368F12313975820122AF8278A7E2B4010280F6
:20051E000878A7E2B4020F8006780BE4F2800B780B7401F2800475820022780AE2B4011EC7
:20053E008F068EF005F0786B7401800225E0D5F0FBF2780BE2F582C007122426D007EF241B
:20055E0008F8790AE3F278ADEFF2780A79AEE2F390368F12313975820122E5822408F9E347
:20057E0090E740F090E6B57401F090E68AE4F090E68B04F090E6A003F02290E6B8E0FFE441
:20059E00BF400104FE601390E6B9E0FDBDB00B7807E4F290E6A07480F022E4BFC00104FD6E
:2005BE007006EE70030207A190E6B9E0FCE4BCA90104FB7008BC100280030207A1EF23546F
:2005DE0001FE7F0090E6BA780EE0F2A3E008F290E6BE7810E0F2A3E008F27C00EB60057F24
:2005FE005102068B90E6BCE0FAA3E0FBC374039AE49B4079EA2A900618738006800A800E90
:20061E0080127F517C0680657F527C08805F7F537C088059780EE2FA08E2FBC3E49A741084
:20063E009B404AC002C0037810E2FA08E2FBC3E49A74109BD003D0024033C002C003780E26
:20065E007910E3C5F0E225F0FA09E3C5F008E235F0FBC3E49A74109BD003D002400F7F519B
:20067E007C0674702BFB780EEAF2EB08F27807E4F2EF700790E6A07401F0227810E2F5F0E2
:20069E0008E245F07001227810E2FA08E2FBC3EA9440EB940040047A407B00EE605190E6B3
:2006BE00A0E020E1F978877440F274E708F2E408F2788AEAF2E408F2780E7985E2F308E2CB
:2006DE0009F3788C7401F28F82122861E582700790E6A07401F02290E6B57401F090E68ADE
:2006FE00E4F090E68BEAF090E6A07480F0805790E6B57401F090E68AE4F090E68BF090E691
:20071E00A07480F090E6A0E020E1F978917440F274E708F2E408F27894EAF2E408F2780E19
:20073E00798FE2F308E209F378967401F27897ECF2789874FFF28F821228FEE5827007904A
:20075E00E6A07401F022C0048A087509007810E2F50A08E2F50BE50AC39508FBE50B95096F
:20077E00FC7810EBF2EC08F2780EE2FA08E2FCE5082AFAE5093CFC780EEAF2EC08F2D00479
:20079E00020699ED7006EE700302084490E6B9E0FCBC13028003020844EF235401FC90E602
:2007BE00BAE0FF90E6BEE0FAA3E0FB7807E4F28F82C004C003C0021212D1E582D002D00346
:2007DE00D004605BEC603290E6A0E020E1F98A04781AECF290E740C004121300E582D00425
:2007FE00603D90E6B57401F090E68AE4F090E68BECF090E6A07480F02290E6B57401F090C1
:20081E00E68AE4F090E68BF090E6A07480F090E6A0E020E1F9781BEAF290E740021331909F
:20083E00E6A07401F022ED605990E6B9E0FCBC125190E6BEE0FBA3E0FCBB0146BC004378B6
:20085E0007E4F290E6A0E020E1F91212CEE58260067B027C0080047B007C007806E2FAEB35
:20087E00420290E740EAF090E6B57401F090E68AE4F090E68B04F090E6A003F07582010229
:20089E00049FEE700302099490E6B9E0FCBC1102800302099490E6BCE0FBA3E0FC4B60273D
:2008BE00C007780CE2FA08E2FF74012AF50AE43FF50B8B028C07EAB50A06EFB50B02800544
:2008DE00D007020994D0078B078C0690E6BEE0FAA3E0FD7807E4F2EF4E7028789FE4F2786C
:2008FE00A07410F2E408F2903FD575F000C007C006C005C002122AEA1211B3D002D005D056
:20091E0006D007EA4D60678A038D04C3EB9440EC940040047B407C0090E6B57401F090E63D
:20093E008AE4F090E68BF090E6A07480F090E6A0E020E1F97818EBF290E740C007C006C0EF
:20095E0005C003C002121235D002D003D005D006D0078B0A750B008A088D09AB0AAC0BE5E1
:20097E0008C39BFBE5099CFC8B028C058095780CEFF2EE08F222ED7006EE7003020A409030
:20099E00E6B9E0FCBC18028003020A4090E6BEE0FBA3E0FCBB1005BC00028003020A40EF3F
:2009BE00235401FC7807E4F2EC603690E6A0E020E1F9788174D5F2743F08F278837410F28C
:2009DE00E408F290E74012283090E6B57401F090E68AE4F090E68B7410F090E6A07480F027
:2009FE0022121289E582603390E6B57401F090E68AE4F090E68BF090E6A07480F090E6A0AB
:200A1E00E020E1F978817440F274E708F278837410F2E408F2903FD502283090E6A0740112
:200A3E00F022ED7006EE7003020AE990E6B9E0FCBC14028003020AE990E6BEE0FBA3E0FCEA
:200A5E00BB0205BC00028003020AE9EF235401FC90E6BCE0FB7807E4F2EC603890E6A0E041
:200A7E0020E1F978217440F274E708F28B821214F9E582700790E6A07401F02290E6B57484
:200A9E0001F090E68AE4F090E68B7402F090E6A07480F02290E6B57401F090E68AE4F090FC
:200ABE00E68B7402F090E6A07480F090E6A0E020E1F9781D7440F274E708F28B821213D0C5
:200ADE00E582700675820102049522ED607490E6B9E0FCBC156C90E6BEE0FBA3E0FCBB0212
:200AFE0061BC005E90E6BCE0FC7807E4F290E6A0E020E1F9903FC0E0FBBB320040127846A3
:200B1E007440F274E708F28C82121CD0AB828010782A7440F274E708F28C8212176CAB8286
:200B3E00EB700790E6A07401F02290E6B57401F090E68AE4F090E68B7402F090E6A07480C3
:200B5E00F022ED7006EE7003020C7390E6B9E0FCBC16028003020C7390E6BEE0FBA3E0FCAF
:200B7E00BB0405BC00028003020C73EF235401FC90E6BCE0FB7807E4F2EC606D90E6A0E05D
:200B9E0020E1F9903FC0E0FCBC3200401E78537440F274E708F2785574022440F2E434E728
:200BBE0008F28B82121EDFAC82801C78387440F274E708F2783A74022440F2E434E708F215
:200BDE008B82121977AC82EC700790E6A07401F02290E6B57401F090E68AE4F090E68B7441
:200BFE0004F090E6A07480F02290E6B57401F090E68AE4F090E68B7404F090E6A07480F000
:200C1E0090E6A0E020E1F9903FC0E0FCBC3200401E784A7440F274E708F2784C74022440B4
:200C3E00F2E434E708F28B82121D43AC82801C782E7440F274E708F2783074022440F2E469
:200C5E0034E708F28B821217DCAC82EC700675820102049522ED606F90E6B9E0FCBC176709
:200C7E0090E6BEE0FBA3E0FCBB015CBC00597807E4F2750A0190E6A0E020E1F9903FC0E067
:200C9E00FCBC3200400D785A7401F290E74012205C800E783F7401F290E740121A8C85825F
:200CBE000AE50A700790E6A07401F02290E6B57401F090E68AE4F090E68B04F090E6A00397
:200CDE00F075820402049FEE602F90E6B9E0FCBC192790E6BEE0FBA3E0FC4B701C90E6BA4D
:200CFE00E0FBA3E04B24FFE433F5827807E4F212137190E6A07480F022ED7006EE700302AF
:200D1E000DFA90E6B9E0FCBC1A028003020DFA90E6BEE0FBA3E0FCBB0205BC0002800302AC
:200D3E000DFAEF235401FC90E6BCE0FB7807E4F2EC603890E6A0E020E1F978277440F2749C
:200D5E00E708F28B8212169CE582700790E6A07401F02290E6B57401F090E68AE4F090E66E
:200D7E008B7402F090E6A07480F02290E6B57401F090E68AE4F090E68B7402F090E6A074F3
:200D9E0080F090E6A0E020E1F978257440F274E708F28B821215B7E5827006758201020477
:200DBE0095789174E5F2743F08F2E408F2788F7431F2E408F278947404F2E408F2789604BF
:200DDE00F278977408F2789874FFF27582511228FEE582700675820102049522ED7006EEAE
:200DFE007003020EC890E6B9E0FEBE1B028003020EC890E6BEE0FCA3E0FEBC0205BE000233
:200E1E008003020EC8EF235401FF90E6BCE0FE7807E4F2EF604E90E6A0E020E1F9903FC072
:200E3E00E0FFBF3000401E78677440F274E708F2786974012440F2E434E708F28E821223A4
:200E5E0008E582700790E6A07401F02290E6B57401F090E68AE4F090E68B7402F090E6A010
:200E7E007480F02290E6B57401F090E68AE4F090E68B7402F090E6A07480F090E6A0E02073
:200E9E00E1F9903FC0E0FFBF3000401790E7407865E0F290E7417866E0F28E821222CBE5E4
:200EBE0082700675820102049522ED603B90E6B9E0FFBF0F3390E6BEE0FEA3E0FFBE012855
:200EDE00BF00257807E4F290E6A0E020E1F990E7407401F090E6B5F090E68AE4F090E68BBF
:200EFE0004F090E6A003F022ED605290E6B9E0FFBFC04A90E6BCE0FF7807E4F2BF04377867
:200F1E008174ABF2743608F29036AB7883E493F2A3E49308F290E0001228307E007FE0904D
:200F3E00E6B57401F090E6B3EFF090E6B4EEF090E6A07480F02290E6A07401F02290E6A0B4
:200F5E007401F022C2A832903EC7E4F0A3F0758204120495903FC0E0FFBF32004008903E39
:200F7E00C6121FDA800A783FE4F2903EC6121A8C903EC6E0FF781D74C7F2743E08F28F822D
:200F9E001213D0903FC0E0FFBF32004009903EC6E0F5821220C7D2A82253B0EFC2CAC2CF07
:200FBE0032C0E0C082C08343B010D2CA5391EF90E65F74F3F0D083D082D0E032020FBF02C5
:200FDE000FBF020FBF020FBF020FBF020FBF90E6007412F090E67A7401F012020E12029ED0
:200FFE00120398121362903FC0E0FFBF3200400F121BF9E582700B758201120495800312B1
:20101E0016F31211AD12235A1232BA90E611E4F01232BA90E610E4F043B53443B00453B073
:20103E00CF75C801D2AD90E65EE043E0F3F0D2A8903FD1E0FCA3E0FDA3E0FEA3E0FFEC4D9A
:20105E004E4F7003021184903FD17812E0F2A3E008F2A3E008F2A3E008F27D527816E4F225
:20107E0008F243B010C0051211B3D0057812E2F5F008E242F008E242F008E245F0700302C8
:20109E0011617C807812C3E2948008E2940008E2940008E2940050047812E2FC78877400D8
:2010BE00F274E008F2E408F2788AECF2E408F278167985E2F308E209F3788C7401F28D8275
:2010DE00122861E582700875820112049580747818ECF290E000C005C004121235D004D07D
:2010FE00058C027B007E007F007812E2C39AF208E29BF208E29EF208E29FF28C037F00781A
:20111E0016E2FA08E2FEEB2AFAEF3EFE7816EAF2EE08F27816E2F5F008E245F06003021062
:20113E008A8D03EB04FDBD5402800302108A7D517816E2FA08E22470FB7816EAF2EB08F259
:20115E0002108A7812E2F5F008E242F008E242F008E245F0700D121289E58270067582012E
:1C117E0012049553B0EF758201122B457807E2600312059820A8F5120F6580F018
:2035E8001201000200000040B720B19D0001010203020A0600020000000800000904000019
:2036080000FFFFFF060904000102FFFFFF070904000102FFFFFF080904010000FFFFFF0665
:203628000904010102FFFFFF070705020200020007050402000200070586020002000705A5
:2036480088020002000902000002010480FA04360D3631363F361F36283638364636000054
:203668000902000001020580FA0436163631363F3600004D366836E436F8360B371F375BF7
:20368800377B3784379937E835FA35027B36087F3612034D00530046005400310030003012
:2036A80000C00028000000000104000100000000000000000157494E55534200000000003B
:2036C800000000000000000000000039393939393939393939393939393939007768697496
:2036E80065717561726B20726573656172636800476C6173676F7720446562756720546F0E
:203708006F6C0058582D585858585858585858585858585858580050697065205020617476
:20372800207B327835313242204550324F55542F455036494E7D2C2051206174207B32789E
:2037480035313242204550344F55542F455038494E7D00506970652050206174207B34785C
:2037680035313242204550324F55542F455036494E7D0044697361626C656400446F7562D8
:203788006C652D6275666665726564203531324200517561642D6275666665726564203596
:0437A8003132420078
:20119A00E58030E30743B0087582012253B0F77582002243B50802119A1232BA90E601E08C
:2011BA0053E0FCF0903FC0E0FFBF10028019BF20028014BF30028017BF31028012BF3202AA
:2011DA00800DBF3310800843B50253B0FD800643B2025380FD90000112358A53B2F743B343
:2011FA001C4390105390F7903FC0E0FFBF10028019BF20028014BF30028014BF3102800FA9
:20121A00BF3202800ABF330A800543B00280034380029004B012358A02119A75AF03858289
:20123A009B85839A90E67B7818E2F8E0A2E7C2949292D294A2E6C2949292D294A2E5C2946E
:20125A009292D294A2E4C2949292D294A2E3C2949292D294A2E2C2949292D294A2E1C294E2
:20127A009292D294A2E0C2949292D294D8BD227431C29400D294D5E0F853B3E3903FC0E04B
:20129A00FFBF10028019BF20028014BF30028019BF31028014BF3202800FBF3314800A90A4
:2012BA00E601E043E023F0800890E601E043E063F002119A02119AE5827819F27582101265
:2012DA00261CE582601978757401F2E408F2903E1975F060122650E5826004758201221275
:2012FA00263475820022AE82AF8375821112261CE582601C7D00781A797AE2F3E409F38E7B
:20131A00828F838DF01226D7E58260047582012212263475820022AE82AF837D00781B793E
:20133A0075E2F3E409F38E828F838DF0122650E582600E122634E5827003F5822275820196
:08135A002212263475820022E4
:2013620074BE55B04480F5B043B5C153B07F22E582600453B07F2243B08022AF827E008F2C
:2013820005BD0102800ABF02028017BD031F8016903FC0E0FFBF330050047E0C800F7E0ED4
:2013A200800B7E0D8007781CE270027E48EE7003F58222EE2EFE781CE24EF58212261CE558
:2013C2008270071226347582002275820122AF827E00781DE2F58208E2F583E0FCA3E0FD18
:2013E200EF30E0027E01EF30E103430640EF30E013903FE5E0FAA3E0FBC3EA9CEB9D50049C
:2014020075820022EF30E113903FE7E0FAA3E0FBC3EA9CEB9D500475820022EC4D700FEEAC
:20142200F4FB52B0781FE4F27820F20214AC8C028D03C3EA9472EB94064008747C9A74154F
:201442009B500475820022C006EA248EFAEB34F9FB78B5EAF2E2F5F0EBC4C5F0C4540F6553
:20146200F0C5F0540FC5F065F0F2C5F008F290010DC007C006C005C0041232DFAA82AB8386
:20148200D004D005D006D007EBC4CAC4540F6ACA540FCA6ACAFB74E0C39AFA740F9BFBFE02
:2014A200781FEEF27820EAF2D006781CE4F28F82C006C005C00412137DE582D004D005D01D
:2014C200067003F5822278757402F2E408F2903E1F75F060122650E582700712263475824A
:2014E2000022122634E5827003F58222EC4D6003EE42B075820122AF82BF01028005BF021A
:201502000A80047E0180087E40800475820022EE55B070117821E2F58208E2F583E4F0A39A
:20152200F075820122781C7401F28F8212137DE5827003F58222787A7402F2E408F2903E78
:201542002375F0601226D7E5827003F582227823E2FE7F007824E27C004207EC4206782115
:20156200E2FC08E2FDEEC4CFC4540F6FCF540FCF6FCFFE74FFC39FFFE49EFE78B5EFF2EE00
:2015820008F2900098C005C0041232DF7872740AF2E408F2122593E5828583F0D004D00571
:2015A2002472FE740635F0FF8C828D83EEF0EFA3F075820122AF827825E2FD08E2FE8D82BB
:2015C2008E83E0FBA3E0FC4B601D8B0C8C0DC3E50C9472E50D9406400A747C950C74159567
:2015E2000D500475820022750CAC750D37850C82850D83E493FA7003021698EA5F7003020F
:20160200168A782174C9F2743E08F28A82C007C006C005C004C0031214F9E582D003D004A2
:20162200D005D006D0077003F58222C007903EC9E0FAA3E0FFC3EB9AEC9FD0075030850CA5
:2016420082850D83E493FA781DEDF2EE08F28A82C007C006C005C004C0031213D0E582D013
:2016620003D004D005D006D0077003F58222850C82850D83A3E49325E0FA24E5F582E4342A
:201682003FF583EBF0ECA3F07402250CF50CE4350DF50D0215EF75820122AF827EAC7D3738
:2016A2008E038D048B828C83E493FA6040EFB5022F7827E2F52E08E2F52F8E828D83A3E4AB
:2016C2009325E024E5F582E4343FF583E0FDA3E0FE852E82852F83EDF0EEA3F075820122DF
:1116E20074022BFBE43CFC8B068C0580B775820022CD
:0637AC0001000201000013
:2016F30090E670E043E001F05388FE22A982E3FE7F0009E37C004207EC4206EEC4CFC454F9
:201713000F6FCF540FCF6FCFFE78B5EFF2EE08F29001031232DF7872740AF2E408F20225EF
:2017330093AE82AF8378B5EEF2EF08F290000A1232DF78727403F2740108F2122593AE8232
:20175300E583C454F0CEC4CE6ECE54F0CE6EFF7829E2F9EFF309EEF322AF827DB27E378DDF
:20177300038E048B828C83E493FA6059EFB502488D828E83A3E493FA786D742CF2786CE41A
:20179300F2786E7402F28A821224E0E5827003F58222782AE2F50E08E2F50F75822C1216A1
:2017B300FF858210858311850E82850F83E510F0E511A3F07582012274022BFBE43CFC8BF0
:2017D300058C06809E75820022AF827832E4F27833F27834740FF27835F4F278367403F20F
:2017F3007837E4F2782EE2F58208E2F583E0FDA3E0FE8D038E04C3747C9B74159C4023C0DA
:20181300077830E2FB08E2FC8B828C83E0FAA3E0FF8A128F13C3747C951274159513D0072B
:20183300500475820022ED4E700C747CB512077415B51302803778297432F28D828E83C090
:2018530007C004C003121734D003D0048B828C83E0FBA3E0FC78297434F28B828C831217ED
:2018730034D00778377414F2783774D4F27DB27E378D828E83E493FC7003021973EC5F7005
:201893000302196974012DFBE43EFC8B828C83E493FA78707432F2786F7403F2787114F2A7
:2018B3008A82C007C006C005C004C003122538E582D003D004D005D006D0077003F5822225
:2018D3008B828C83E493FA78707434F2786F7404F2787103F28A82C007C006C005C004C0D5
:2018F30003122538E582D003D004D005D006D0077003F582228B828C83E493FA78707436A8
:20191300F2786F7401F27871F28A82C007C006C005C004C003122538E582D003D004D00562
:20193300D006D0077003F582228B828C83E493FB78707437F2786F7402F2787114F28B827D
:20195300C007C006C005122538E582D005D006D0077003F5822274022DFDE43EFE02188460
:2019730075820122AF827DB27E378D038E048B828C83E493FA7003021A7CEFB50202800340
:20199300021A6E74012DF514E43EF515851482851583E493FD786D743EF2786C7402F278DA
:2019B3006E14F28D821224E0E5827003F58222783EE270217838E2F58208E2F583E4F0A3FD
:2019D300F0783AE2F58208E2F583747CF07415A3F075820122851482851583E493FD786DF0
:2019F300743CF2786C7403F2786E14F28D821224E0E5827003F582227838E2F51608E2F5E5
:201A13001775823C1216FFAA82AE83851682851783EAF0EEA3F0851482851583E493FE7829
:201A33006D743CF2786C7404F2786E03F28E821224E0E5827003F58222783AE2F51608E239
:201A5300F51775823C1216FFAA82AE83851682851783EAF0EEA3F07582012274022BFBE47F
:201A73003CFC8B058C0602198175820022E5805401B40100E433F58222AF83E5827840F2E2
:201A9300EF08F27840E2F58208E2F583E4F07CB27D378C828D83E4937003021BB174012CAA
:201AB300FAE43DFB8A828B83E493FF786D7442F2786C7401F2786EF28F82C005C004C00360
:201AD300C0021224E0E582D002D003D004D0057003F582227842E27003021BA77843E4F2F6
:201AF3007840E2F58208E2F583E0FF8C828D83E49342077840E2F58208E2F583EFF08A8245
:201B13008B83E493FF786D7443F2786C7402F2786E14F28F82C005C004C003C0021224E033
:201B3300E582D002D003D004D0057003F58222783FE260308A828B83E493FA786D7442F290
:201B5300786C7401F2786EF28A82C005C0041224E0E582D004D0057003F582227843E244A7
:201B730004F280067843E254FBF28C828D83A3E493FF78707443F2786F7402F2787114F2F2
:201B93008F82C005C004122538E582D004D0057003F5822274022CFCE43DFD021AA5758299
:021BB30001220D
:0637B20001540255000065
:201BB500AF8278707444F2786F7412F27871E4F28F82C007122538E582D0077003F582229E
:201BD500784474FFF278707444F2786F74D2F278717401F28F82122538E5827003F58222DB
:201BF500758201227EB87F378E828F83E49360378E828F83A3E493FCA3E493FD8C828D832D
:201C1500E4F08E828F83A3A3A393F582C007C006121BB5E582D006D0077003F582227404BF
:201C35002EFEE43FFF80C175820122E582F904F8E2FF7E007D008D258E248F238E22E3FA0B
:201C5500E4FBFEFFE5224202E5234203E5244206E525420778B7EAF2EB08F2EE08F2EF0888
:201C7500F2900005E4F5F0123301AC82AD83AEF0C313FFEE13FEED13FDEC13FCEFC313EE3E
:201C950013ED13FDEC13F5828D8322AE82AF83EE2EF582EF33F583E5822582F582E58333C8
:201CB500F58378727405F2E408F2122593AE82AF837845E2F9EEF309EFF322AF827DB87ECE
:201CD500378D038E048B828C83E493FA605CEFB5024B8D828E83A3A3A3E493FA786D744841
:201CF500F2786C7488F2786E7402F28A821224E0E5827003F582227846E2F52608E2F52767
:201D1500758248121C40858228858329852682852783E528F0E529A3F07582012274042BEA
:201D3500FBE43CFC8B058C06809B75820022AF82784EE4F2784FF2785074F8F27851747FB9
:201D5500F2785274FFF2784AE2F58208E2F583E0FDA3E0FE8D038E04C3747C9B74159C409D
:201D75001DC007784CE2FB08E2FC8B828C83E0FAA3E0FFC3747C9A74159FD00750047582D4
:201D95000022ED4E601E7845744EF28D828E83C007C004C003121CA0D003D004D00778525E
:201DB500E254FEF28B828C83E0FDA3E0FE8D038E04BB7C05BC1502801678457450F28D8225
:201DD5008E83C007121CA0D0077852E254FDF27DB87E378D828E83E493FC7003021EDBECAB
:201DF5005F7003021ED174032DFBE43EFC8B828C83E493FA7870744EF2786F7458F2787197
:201E15007402F28A82C007C006C005C004C003122538E582D003D004D005D006D0077003EE
:201E3500F582228B828C83E493FA78707450F2786F7457F278717402F28A82C007C006C07B
:201E550005C004C003122538E582D003D004D005D006D0077003F582228B828C83E493FA49
:201E750078707452F2786F74D2F278717401F28A82C007C006C005C004C003122538E58283
:201E9500D003D004D005D006D0077003F582228B828C83E493FB78707452F2786F7403F27A
:201EB5007871E4F28B82C007C006C005122538E582D005D006D0077003F5822274042DFDE9
:201ED500E43EFE021DE875820122AF827DB87E378D038E048B828C83E493FA7003021FD678
:201EF500EFB502028003021FC874032DF52AE43EF52B852A82852B83E493FD786D7457F23A
:201F1500786C7458F2786E7402F28D821224E0E5827003F582227857E270147858E2700FBE
:201F35007853E2F58208E2F583E4F0A3F0801E7853E2F52C08E2F52D758257121C40AA823F
:201F5500AE83852C82852D83EAF0EEA3F0852A82852B83E493FE786C7457F2786D7457F25C
:201F7500786E7402F28E821224E0E5827003F582227857E2FEBEF8197858E2FEBE7F127870
:201F950055E2F58208E2F583747CF07415A3F0801E7855E2F52C08E2F52D758257121C40EA
:201FB500AA82AE83852C82852D83EAF0EEA3F07582012274042BFBE43CFC8B058C06021ED6
:201FD500E975820022AE82AF83E4F07CB87D378C828D83E493606C8C828D83A3A3A3E493ED
:201FF500FB786D7459F2786C7480F2786E23F28B82C007C006C005C0041224E0E582D004F4
:20201500D005D006D0077003F582227859E2540F60288E828F83E0FB8C828D83E4934203A8
:202035008E828F83EBF08C828D83A3E493FAA3E493FB8A828B837859E2F074042CFCE43DC9
:20205500FD808C75820122AE82AF83E4F07CB87D378C828D83E493FB6057C00374012CF58A
:202075002EE43DF52F852E82852F83E493FAA3E493FB8A828B83E0FA540F7004D0038028A0
:20209500D0038E828F83E0FA42038E828F83EBF0785AE26013852E82852F83E493FAA3E48F
:2020B50093FB8A828B83E4F074042CFCE43DFD80A022AF827DB87E378D828E83E493FC7071
:2020D500030221E7EC5F70030221DD74032DFBE43EFC8B828C83E493FA786D745BF2786C4C
:2020F5007458F2786E7402F28A82C007C006C005C004C0031224E0E582D003D004D005D011
:2021150006D0077003F582228B828C83E493FA786D745DF2786C7457F2786E7402F28A8291
:20213500C007C006C005C004C0031224E0E582D003D004D005D006D0077003F582228B82F2
:202155008C83E493F582C007C006C005C004C003121BB5E582D003D004D005D006D00770B2
:2021750003F582228B828C83E493FA7870745BF2786F7458F278717402F28A82C007C006E9
:20219500C005C004C003122538E582D003D004D005D006D0077003F582228B828C83E49340
:2021B500FB7870745DF2786F7457F278717402F28B82C007C006C005122538E582D005D095
:1621D50006D0077003F5822274042DFDE43EFE0220CD7582012240
:0C37B80001CB3E4002CC3E41000000006E
:2021EB00AF827E008F05BD01028005BF020880047E2080027E21EE7003F58222EE2EFE78B4
:20220B005FE24EF58212261CE5827003F5822275820122AF82785FE4F28F821221EBE58258
:20222B00603878757401F2E408F2903E6075F060122650E582602378757401F2E408F290A2
:20224B003E6175F060122650E582600E122634E5827003F582227582012212263475820056
:20226B0022AF82785FE4F28F82C0071221EBE582D007604578757401F2E408F2903E6275A3
:20228B00F060122650E5826030785F7401F28F821221EBE58260227863E2FD08E2FE7F00ED
:2022AB00787A7401F2E408F28D828E838FF01226D7E58260047582012212263475820022C4
:2022CB00AF8278607401F278667961E2F38F82C00712221EE582D0077003F582227865E2C3
:2022EB00F4F278607403F278657961E2F38F8212221EE5827003F5822275820122AF827887
:20230B00627401F278697963E2F308E209F38F82C00712226CE582D0077003F582227862D5
:20232B007403F278677963E2F308E209F38F8212226CE5827003F582227867E2FE08E2FFE7
:0F234B008E828F83E0F48E828F83F07582012261
:20235A001232BA90E60B7403F01232BA90E6017480F01232BA90E6047480F01232BA90E654
:20237A0009E4F01232BA90E6027498F01232BA90E60374FEF01232BA90E670E043E080F0C4
:20239A001232BA90E618E053E0FEF01232BA90E619E053E0FEF01232BA90E61AE053E0FE69
:2023BA00F01232BA90E61BE053E0FEF022E582FF60067E007D0080047E027D801232BA900B
:2023DA00E6047480F01232BA90E61274A04EF01232BA90E61374204DF01232BA90E61474E9
:2023FA00E04EF01232BA90E61574604DF0EF60067D017E0080047D037E00786BEDF28F8265
:20241A001224261232BA90E604E4F022AF82786BE25401605F1232BA90E618E4F01232BA70
:20243A0090E604E043E002F01232BA90E6497482F01232BA90E6497482F0EF60121232BA6E
:20245A0090E6497482F01232BA90E6497482F01232BA90E6187410F01232BA90E61AE4F0B8
:20247A001232BA90E604E043E006F01232BA90E61A7404F0786BE25402604A1232BA90E6A2
:20249A0019E4F01232BA90E604E043E004F01232BA90E6497484F01232BA90E6497484F07C
:2024BA001232BA90E6197410F01232BA90E61BE4F01232BA90E604E043E008F01232BA909D
:0624DA00E61B7404F02271
:2024E000E5822582FFF58212261CE582604378757401F2E408F2903E6C75F060122650E55C
:2025000082602E74014FF58212261CE5826022786DE2FD7E007F60786E797AE2F3E409F384
:202520008D828E838FF01226D7E58260047582012212263475820022E582FF25E0F582128F
:20254000261CE582604678757401F2E408F2903E6F75F060122650E58260317871E2601E2F
:202560007870E2FD7E007F6078717975E2F3E409F38D828E838FF0122650E582600E122677
:1325800034E5827003F58222758201221226347582002202
:20259300AE82AF837C007D007B10EF235401FAEE2EFEEF33FFEC2CFCED33FDEA60034304E1
:2025B300017872C3E2F5F0EC95F008E2F5F0ED95F040117872D3E29CF4B3FCB308E29DF484
:0B25D300FD430601DBC48E828F8322D3
:2025DE00C007C000AF8290E678E020E00E7874E260F47874E4F2758200801E90E678E030D2
:2025FE00E2057582008012EF600C90E678E0FF035401F5828003758201D000D00722C0074B
:20261E00AF8290E6787480F090E679EFF07582011225DED0072290E678E030E204758200EA
:20263E002290E6787440F090E678E020E6F975820122C007C006C004C003C002C000AFF0AC
:20265E00AE83E5827877F2EE08F2EF08F27875E2F5F008E245F07005758201804F7B007C0C
:20267E00007875E2B5030708E2B50402802B7877E22BFA08E23CFE08E2FF8A828E838FF0BF
:20269E001235BFFA90E679F07582011225DEE58260070BBB00CB0C80C87875E2B5030808E6
:2026BE00E2B50403D38001C3E433F582D000D002D003D004D006D00722C007C006C005C08F
:2026DE0004C003C002C001C000AFF0AE83E582787CF2EE08F2EF08F2787AE2F5F008E245FC
:2026FE00F0700675820102281F787AE2FB08E2FCBB0109BC000690E6787420F090E679E098
:20271E007B007C00787FE4F208F2787F797AE2F5F0E3B5F00C08E2F5F009E3B5F00302270C
:20273E00F97582001225DEE582700302280C787FE2FD08E2FE74022DFDE43EFE787AE2B55F
:20275E00050708E2B506028002800690E6787420F0787FE2FD08E2FE0DBD00010E787AE2C3
:20277E00B5050708E2B506028002803575AF03759AE6759B7890E67B7440F0E0ACE0787C03
:20279E00797FE3C5F0E225F0FD09E3C5F008E235F0FE08E2FF8D828E838FF0EC1232C380EE
:2027BE0025787C797FE3C5F0E225F0FD09E3C5F008E235F0FE08E2FF90E679E0FA8D828E61
:2027DE00838FF01232C3787FE22401F208E23400F2787FE2FB08E2FC02272890E678E030C9
:2027FE00E205758200801A90E678E020E6F9787AE2B5030808E2B50403D38001C3E433F519
:12281E0082D000D001D002D003D004D005D006D0072268
:20283000AA82AB837881E2FC08E2FD7883E2FE08E2FFEE60010FEF601775AF078A9B8B9A73
:112850008C9E8D9D90E67CE090E67BF0DEF6DFF422A7
:20286100C007C006C005C001C000AF82788CE260127886E2FE788DEEF27885E2FE788EEE67
:20288100F280087885E2FE788DEEF2EF2FFFF58212261CE5826055788CE2FDE23395E0FE8C
:2028A1000DBD00010E7875EDF2EE08F2903E8D75F060122650E582603374014FF582122675
:2028C1001CE5826027788A797AE2F308E209F37887E2F58208E2F58308E2F5F01226D7E5C0
:2028E100827004F582800B7582018006122634758200D000D001D005D006D00722C007C032
:2029010006C005C004C003C002C001C000AF827899E4F208F2EF2FFFF58212261CE5827050
:2029210003022AB97897E2FC8CF005F07B017C008006EB2BFBEC33FCD5F0F778997994C309
:20294100E3F5F0E295F009E3F5F008E295F04003022AB97896E260127890E2FA789BEAF2AA
:20296100788FE2FA789CEAF28008788FE2FA789BEAF2C003C0047896E2FAE23395E0FC0A28
:20298100BA00010C7875EAF2EC08F2903E9B75F060122650E582D004D0037003022AB9C0E4
:2029A10007788FE2F58208E2F5838B028C0778C3EAF2EF08F2C007C004C003C002C001C09C
:2029C1000012344FAD82AE83D000D001D002D003D004D007EAC39DFAEF9EFF789DEAF2EF60
:2029E10008F278947999E3F5F0C3E295F0FE09E3F5F008E295F0FF789DC3E2F5F0EE95F07D
:202A010008E2F5F0EF95F0D007502078947999E3F5F0C3E295F0C0E009E3F5F008E295F03B
:202A2100C0E0789ED0E0F218D0E0F278917999E3C5F0E225F0FA09E3C5F008E235F0FD082A
:202A4100E2FE789D7975E2F308E209F38A828D838EF0122650E582605F122634E582700448
:202A6100F58280737E007898E2600B7898C3E2F5F0EE95F0500C8F8212261CE58270030E5A
:202A810080E47898E2B50605758200804A788F799DE3C5F0E225F0F209E3C5F008E235F010
:202AA100F27899799DE3C5F0E225F0F209E3C5F008E235F0F202293C12263478997994E206
:202AC100F5F0E3B5F00C08E2F5F009E3B5F003D38001C3E433F582D000D001D002D003D05E
:082AE10004D005D006D0072245
:06009800E478FFF6D8FD3C
:012AE90032BA
:202AEA00AFF0AE83E58278A2F2EE08F2EF08F278A0E2F52E08E2F52F78A0E2F5F008E2457F
:202B0A00F0602A78A2E2FA08E2FB08E2FC789FE2FFAD2EAE2F8A828B838CF0EF1232C3A391
:1B2B2A00AA82AB831DBDFF011EED4E70E878A2E2F58208E2F58308E2F5F022E5
:202B4500AF8278A6E4F278A7F2D2E890E668E043E008F090E65CE043E001F090E65D740199
:202B6500F0D2AF90E680E020E10890E680E043E002F0EF600E90E680E043E008F090000A2D
:202B850012359490E680E053E0F7F022AF82BF00028037BF01028036BF02028039BF0402E1
:202BA5008038BF06028037BF08028036BF80028019BF8102801CBF8202801BBF8402801AE6
:202BC500BF86028019BF881E801890E6A02290E6A12290E6A22290E6A32290E6A42290E67B
:202BE500A52290E6A62290000022C021C0E0C0F0C082C083C007C006C005C004C003C002C8
:202C0500C001C000C0D075D000C08675860090E6B8E0FFE4BF800104FE601B90E6B9E0FD5E
:202C2500BD061390E6BAE0FCA3E0F5827800ECF21201BE022E6DEF702790E6B9E0FDBD0997
:202C45001F90E6BAE0F5821204CCE582600990E6A07480F0022E6D90E6A07401F0022E6D68
:202C6500EE600E90E6B9E0FDBD08061234EA022E6D8F05BD012F90E6B9E0FDBD0B2790E65D
:202C8500BCE0FD90E6BA780AE0F28D82120515E582600990E6A07480F0022E6D90E6A074E6
:202CA50001F0022E6DE4BF810104FD601490E6B9E0FCBC0A0C90E6BCE0F582120578022EC2
:202CC5006DEF703790E6B9E0FCBC032F90E6BAE0FBA3E0FCBB0110BC000D78A67401F290BF
:202CE500E6A003F0022E6DBB0205BC00028003022E6D90E6A07480F0022E6DEE603590E689
:202D0500B9E0702F78A5E2FE78A6E225E0FC420690E740EEF090E741E4F090E6B504F09060
:202D2500E68AE4F090E68B7402F090E6A07480F0022E6DED602890E6B9E0702290E740E49B
:202D4500F090E741F090E6B504F090E68AE4F090E68B7402F090E6A07480F0022E6DBF0224
:202D6500028003022E1290E6B9E0FEBE03028008BE01028003022E1290E6BAE0FDA3E0FE1B
:202D85004D6003022E6D90E6BCE0F582122B91AD82AE83ED4E7003022E6D90E6B9E0FCBC18
:202DA50003188D828E83E0FC4304018D828E83ECF090E6A07480F0022E6D90E6BCE0F58293
:202DC500C006C0051234D8E582D005D0067003022E6D8D828E83E0FC5304FE8D828E83ECC6
:202DE500F090E6BCE0FDA3E08D0453040F530580E4C423CDC423541F6DCD541FCD6DCDFED9
:202E050090E683ED4CF0E043E020F0805BBF825290E6B9E0704C90E6BCE0F582122B91AE3A
:202E250082AF838E048F05EE4F603D8C828D83E0FC5304017F00EC4FB40100B39200E433BC
:202E4500FF90E740F090E741E4F090E6B504F090E68AE4F090E68B7402F090E6A07480F0E7
:202E6500800690E6B81204BA5391EF90E65D7401F0D086D0D0D000D001D002D003D004D0DE
:202E850005D006D007D083D082D0F0D0E0D02132AE82AF8378A8E2B4012C78A9E270278ED6
:202EA500828F83E493FCA3E493FD7881ECF2ED08F28C828D83E4937883F2E408F290E00061
:202EC50012283002311E78A8E2B4063C78A9E270378E828F83A3A3E493FCA3E493FD4C70E2
:202EE5000790E6A07401F0228C028D037881EAF2EB08F28C828D83E4937883F2E408F29061
:202F0500E00012283002311E78A8E2B40202800302303C8E828F83A3A3A3A3E493FD78A923
:202F2500C3E29D400302303C8E828F83A3A3A3A3A3E493FCA3E493FD78A9E275F002A42C84
:202F4500F582ED35F0F583E493FCA3E493FD74092CFAE43DFB78AAEAF2EB08F2748008F251
:202F65008C028D037881EAF2EB08F28C828D83E4937883F2E408F290E000C005C0041228E1
:202F850030D004D0058C828D83E4932400FCE434E0FD78AAE2F51808E2F51908E2F51A8C1B
:202FA5001B8D1C851882851983851AF01235BFFAA31235BFFB7881EAF2EB08F28A828B8301
:202FC500E4937883F2E408F2851B82851C83C005C004122830D004D0058518828519838503
:202FE5001AF01235BFFAA31235BFFB8A828B83E4932CFCE43DFD74022518F518E43519F560
:2030050019851882851983851AF01235BFFAA31235BF4A708A90E002E0FAA3E0FB4A60035F
:2030250002311EECC39400FCED94E0FD90E002ECF0EDA3F002311E78A8E2B40304740180CC
:2030450001E4FD602278A9E2701D788174C4F2743708F29037C4E4937883F2E408F290E072
:203065000012283002311EED700302311778A9E2FC7D0024FFFAED34FFFB74072EF582E42E
:203085003FF583C006C007E493FF7E00C3EA9FEB64808EF063F08095F0D007D0065073741E
:2030A500082EF582E43FF583E493FEA3E493FF1CBCFF011DEC2CFCED33FDEC2EF582ED3F52
:2030C500F583E493FEA3E493FF90E0007402F090E00104F074012401FCE434E0FD8E828F80
:2030E50083E493FB60330EBE00010F8C828D83EBF074012CFAE43DFB8A828B83E4F0042A9B
:20310500FCE43BFD90E000E0FB0B0B90E000EBF080CB90E6A07401F0227E007FE090E6B5F6
:203125007401F090E6B3EFF090E6B4EEF090E6A07480F022AE82AF83A3A3A3A3A3E493FCF5
:20314500A3E493FD74042EFEE43FFF78AFE4F28E828F83E493FA78AFC3E29A400122C0066E
:20316500C00778AFE275F002A42CF582ED35F0F583E493FBA3E493FA74092BFEE43AFF7881
:20318500B0EEF2EF08F2748008F2752E008B828A83A3A3A3A3A3E493FF78A7E2B507028022
:2031A50007D007D0060232AED007D00678B0E2F52F08E2F53008E2F531C004C005852F82BB
:2031C5008530838531F01235BFFAA31235BFFD8A828D83A3E493F5327404B532028006D052
:2031E50005D004804FD005D004852F828530838531F01235BFF533A31235BFF5348533822B
:20320500853483A3A3E493FA78ADE2B50214853382853483A3A3A3E493FA78AEE2B5020253
:20322500800678B3E4F2800578B37401F278B3E2F52E80527405B5324DE52E6049C004C0FC
:2032450005852F828530838531F01235BFFAA31235BFFD8A828D83A3A3E493FD740F5DFCF8
:20326500530580E423CDC423541F6DCD541FCD6DCD30E40244E0FA90E683ED4CF0E043E036
:2032850020F0D005D0047402252FF52FE43530F530852F828530838531F01235BFFAA3124B
:1232A50035BFFB4A60030231BE78AFE22401F2023154E3
:0437C40004030904ED
:0132B70032E4
:200076007900E94400601B7A009037C878CD75923EE493F2A308B800020592D9F4DAF27543
:0200960092FFD7
:0132B80032E3
:0132B90032E2
:03010000022BEFE0
:030104000235BC05
:030108000234D6E8
:03010C000235B801
:030110000235BEF7
:030114000235E2CF
:030118000234D3DB
:03011C000201B825
:03012000020FDAF1
:03012400020FDDEA
:030128000234E7B7
:03012C000235E1B8
:03013000020FE0DB
:03013400020FE3D4
:03013800020FE6CD
:03013C00020FE9C6
:030140000234E4A2
:030144000201B8FD
:030148000235DBA2
:03014C000235DC9D
:030150000235DD98
:030154000235DE93
:030158000235DF8E
:03015C000235E089
:030160000235BDA8
:030164000201B8DD
:030168000201B8D9
:03016C000201B8D5
:030170000234E670
:030174000234E86A
:0301780002350746
:03017C0002350940
:030180000234E95D
:0301840002350839
:0301880002350A33
:03018C000235B980
:0301900002344EE8
:030194000234D45E
:030198000234D757
:03019C000234E347
:0301A0000234D254
:0301A4000234D54D
:0301A8000234E23C
:0301AC000234E535
:0301B00002330017
:0301B4000235E72A
:0101B8003214
:0932BA00000000000000000022E9
:1B32C30020F71130F6138883A88220F509F6A8837583002280FEF280F5F0220A
:0132DE0032BD
:2032DF00AA83AB828BF0903EB5E0A4F8A9F08AF0E0A429F98BF0A3E0A429F58388822222B1
:0132FF00329C
:01330000329A
:20330100AF82AE83ADF0FC78BBEFF2EE08F2ED08F2EC08F278BBE2FF78B9E28FF0A4FFADF2
:20332100F078C1EFF208EDF278BBE2FF78B7E28FF0A4FFADF078BFEFF208EDF278C2E2FF9D
:2033410078BEE2FE78B7E28EF0A42FFF78C2F278BDE2FE78B8E28EF0A42F78C2F278C1E20A
:20336100FE08E2FF78BDE2FD78B7E28DF0A4ABF02EFEEB3FFF78C1EEF208EFF278BCE2FD1A
:2033810078B8E28DF0A4ABF02EFEEB3FFF78C1EEF208EFF278BCE2FF78B9E28FF0A478BE86
:2033A100F278BCE2FF78B7E28FF0A4FFADF078BCEFF208EDF278BBE2FF78BAE28FF0A47876
:2033C100BAF278BBE2FF78B8E28FF0A4FFADF078B8EFF208EDF278B7E4F278BBF278BFE220
:2033E100F52E08E2F52F08E2F53008E2F53178BBE2FA08E2FB08E2FE08E2FFEA252EF52E57
:20340100EB352FF52FEE3530F530EF3531F53178BFE52EF208E52FF208E530F208E531F2DC
:2034210078BFE208E208E208E278B7E2FC08E2FD08E2FE08E2FFEC252EFCED352FFDEE3543
:0C34410030FEEF35318C828D838EF0223E
:01344D00324C
:01344E00324B
:20344F00AE82AF837D007C0078C4E2235401FB703578C3E225E0F208E233F278C3C3E2F5D4
:20346F00F0EE95F008E2F5F0EF95F0501478C3E2F5F008E2C313C5F01318F2C5F008F28070
:20348F00050C8C0580C278C3C3E2F5F0EE95F008E2F5F0EF95F0400E78C3D3E29EF4B3FE3D
:2034AF00B308E29FF4FF78C3E2F5F008E2C313C5F01318F2C5F008F28D041DEC70C88E82A9
:0334CF008F8322C6
:0134D20032C7
:20009E0078C5E84400600A790075923EE4F309D8FC7808E84400600C7901903EC5E4F0A361
:0400BE00D8FCD9FA97
:0134D30032C6
:0134D40032C5
:0134D50032C4
:0134D60032C3
:0134D70032C2
:0A34D80090E6A07480F075820122D6
:0134E20032B7
:0134E30032B6
:0134E40032B5
:0134E50032B4
:0134E60032B3
:0134E70032B2
:0134E80032B1
:0134E90032B0
:1D34EA0090E74078A7E2F090E6B57401F090E68AE4F090E68B04F090E6A003F02299
:013507003291
:013508003290
:01350900328F
:01350A00328E
:20350B00E583700BE58224FA400122B4001122E5826003D5E0FD0075E0FED583F674F9D58F
:20352B00E0FD22C007C006C001C000AE82AF83EE2EF8EF33F9EE28FEEF39FF90E600E0F859
:20354B00794C20E416C3EF13CE13CEFF795AE820E309C3EF13CE13CEFF7963E58124FAF87C
:20356B00E926C313C313F9C3EE99F582EF9400F583D000D001D006D00750012202350B7459
:20358B0011C0E012352E158122C007C006AE82AF837411C0E0EE4F600D1EBEFF011F9003F6
:0D35AB00E812352E80EF1581D006D00722E2
:0135B80032E0
:0135B90032DF
:0135BA0032DE
:0135BB0032DD
:0135BC0032DC
:0135BD0032DB
:0135BE0032DA
:0D0069007581341235E3E582600302006604
:1C35BF0020F71430F6148883A88220F507E6A88375830022E280F7E49322E0221B
:0135DB0032BD
:0135DC0032BC
:0135DD0032BB
:0135DE0032BA
:0135DF0032B9
:0135E00032B8
:0135E10032B7
:0135E20032B6
:0435E30075820022CB
:0135E70032B1
:00000001FF
