:06000000020069020FA9D5
:03000B000232DEE0
:030013000232B7FF
:03001B000232FFAF
:030023000235BAE9
:03002B00020FFEC3
:0300330002344D47
:03003B000235BBD0
:03004300020100B7
:03004B00022B3352
:03005300020100A7
:03005B000232B8B6
:030063000232B9AD
:0500C200C2000200660F
:030066000210394C
:2001C000AF82BF033B7800E2B4EE35787C7499F2743608F2903699E493787EF2E408F290FD
:2001E000E00012287D7D007EE090E6B57401F090E6B3EEF090E6B4EDF090E6A07480F022D3
:2002000078A7EFF2780079A8E2F390368F022ED978827401F2E408F2746008F27880E4F237
:2002200008F2788504F2E408F2788704F27582511228AEE58260407801E2B4FF0280387887
:2002400001E2B4C201227801E2B4C02B788274C0F2743F08F2E408F27880740CF2E408F235
:2002600078857440F2E408F2788704F27582511228AEE582600122903FC074F9F0787C749A
:20028000D3F2743608F2787E7410F2E408F2903FC112287D903FD1E4F0A3F0A3F0A3F02215
:2002A000903FC0E0FFBF4102800ABF4202800DBF431A8010903FC07410F08011903FC07471
:2002C00020F08009903FC07430F0800122903EBF7401F0788C74BFF2743E08F2E408F278A2
:2002E0008A7407F2E408F2788F04F2E408F2789104F278927408F2789374FFF2758251120D
:20030000294E903EBF74C0F0788C74BFF2743E08F2E408F2788AF208F2788F04F2E408F239
:20032000789104F278927408F2789374FFF275825112294E903FC0E0903EBFF0788C74BFE2
:20034000F2743E08F2E408F2788A7405F2E408F2788F04F2E408F2789104F278927408F284
:20036000789374FFF275825112294E788C74BFF2743E08F2E408F2788A740CF2E408F278BF
:200380008F04F2E408F2789104F278927408F2789374FFF275825102294E7EE87F35903F69
:2003A000C0E0FDBDF902802C740C2EFCE43FFD8C828D83E0F508A3E0F509903FC0E0FB7A12
:2003C00000E5084203E50942028C828D83EBF0EAA3F0802074082EF582E43FF58374B4F0CF
:2003E0007404A3F0740A2EF582E43FF5837413F07486A3F0903FE9E0604B9035F6E493FFBC
:200400001FC2D575F002EF30E704B2D5F404A430D50AF42401C5F0F43400C5F0247FF582BE
:20042000743635F0F583E493FEA3E493FF8E828F83787C74E9F2743F08F2787E7417F2E47E
:2004400008F212287D9035F8E493FF1FC2D575F002EF30E704B2D5F404A430D50AF4240146
:20046000C5F0F43400C5F0247FF582743635F0F583E493FEA3E493FF903FC0E0C4540F2441
:20048000408E828F83F074012EFCE43FFD903FC0E0FB740F5B24308C828D83F074032EFEFE
:2004A000E43FFF8E828F83787C74C1F2743F08F2787E7410F2E408F202287D20000E780297
:2004C000E25405600443B0202253B0DF22AF827802E24FF20204BBAF827802E25F600FEF6B
:2004E000F4FF7802E25FF21204BB758201227582002230010790E6A07401F022D20122AFDF
:2005000082BF00028026BF01028005BF021A800C758200C007122418D0078010758201C019
:2005200007122418D00780047582002278A2EFF27803E4F27804F278A914F278AAF2903637
:200540008F12316375820122AF8278A2E2B40102800878A2E2B4020F80067806E4F2800BBA
:2005600078067401F28004758200227805E2B4011E8F068EF005F078667401800225E0D510
:20058000F0FBF27806E2F582C007122477D007EF2403F87905E3F278A9EFF2780579AAE277
:2005A000F390368F12316375820122E5822403F9E390E740F090E6B57401F090E68AE4F0BE
:2005C00090E68B04F090E6A003F02290E6B8E0FFE4BF400104FE601190E6B9E0FDBDB00915
:2005E000C20190E6A07480F022E4BFC00104FD7006EE70030207D090E6B9E0FCE4BCA901B2
:2006000004FB7008BC100280030207D0EF235401FE7F0090E6BA7809E0F2A3E008F290E6DF
:20062000BE780BE0F2A3E008F27C00EB60057F510206BC90E6BCE0FAA3E0FBC374039AE488
:200640009B4079EA2A900649738006800A800E80127F517C0680657F527C08805F7F537CF7
:200660000880597809E2FA08E2FBC3E49A74109B404AC002C003780BE2FA08E2FBC3E49A63
:2006800074109BD003D0024033C002C0037809790BE3C5F0E225F0FA09E3C5F008E235F060
:2006A000FBC3E49A74109BD003D002400F7F517C0674702BFB7809EAF2EB08F2C201EF702B
:2006C0000790E6A07401F022780BE2F5F008E245F0700122780BE2FA08E2FBC3EA9440EBCA
:2006E000940040047A407B00EE605190E6A0E020E1F978827440F274E708F2E408F278858E
:20070000EAF2E408F278097980E2F308E209F378877401F28F821228AEE582700790E6A097
:200720007401F02290E6B57401F090E68AE4F090E68BEAF090E6A07480F0805790E6B57483
:2007400001F090E68AE4F090E68BF090E6A07480F090E6A0E020E1F9788C7440F274E708EC
:20076000F2E408F2788FEAF2E408F27809798AE2F308E209F378917401F27892ECF2789346
:2007800074FFF28F8212294EE582700790E6A07401F022C0048A0A750B00780BE2F50C0899
:2007A000E2F50DE50CC3950AFBE50D950BFC780BEBF2EC08F27809E2FA08E2FCE50A2AFADD
:2007C000E50B3CFC7809EAF2EC08F2D0040206C8ED7006EE700302087190E6B9E0FCBC13F1
:2007E000028003020871EF235401FC90E6BAE0FF90E6BEE0FAA3E0FBC2018F82C004C003A0
:20080000C002121322E582D002D003D004605BEC603290E6A0E020E1F98A047815ECF2903D
:20082000E740C004121351E582D004603D90E6B57401F090E68AE4F090E68BECF090E6A028
:200840007480F02290E6B57401F090E68AE4F090E68BF090E6A07480F090E6A0E020E1F953
:200860007816EAF290E74002138290E6A07401F022ED605790E6B9E0FCBC124F90E6BEE043
:20088000FBA3E0FCBB0144BC0041C20190E6A0E020E1F912131FE58260067B027C008004A0
:2008A0007B007C007802E2FAEB420290E740EAF090E6B57401F090E68AE4F090E68B04F0D2
:2008C00090E6A003F07582010204D7EE70030209BD90E6B9E0FCBC110280030209BD90E676
:2008E000BCE0FBA3E0FC4B6027C0077807E2FA08E2FF74012AF50CE43FF50D8B028C07EA36
:20090000B50C06EFB50D028005D0070209BDD0078B078C0690E6BEE0FAA3E0FDC201EF4EB0
:200920007028789AE4F2789B7410F2E408F2903FD575F000C007C006C005C002122B341230
:200940001204D002D005D006D007EA4D60678A038D04C3EB9440EC940040047B407C009004
:20096000E6B57401F090E68AE4F090E68BF090E6A07480F090E6A0E020E1F97813EBF290D0
:20098000E740C007C006C005C003C002121286D002D003D005D006D0078B0C750D008A0ADB
:2009A0008D0BAB0CAC0DE50AC39BFBE50B9CFC8B028C0580957807EFF2EE08F222ED70065F
:2009C000EE7003020A6790E6B9E0FCBC18028003020A6790E6BEE0FBA3E0FCBB1005BC0052
:2009E000028003020A67EF235401FCC201EC603690E6A0E020E1F9787C74D5F2743F08F28B
:200A0000787E7410F2E408F290E74012287D90E6B57401F090E68AE4F090E68B7410F090B5
:200A2000E6A07480F0221212DAE582603390E6B57401F090E68AE4F090E68BF090E6A07453
:200A400080F090E6A0E020E1F9787C7440F274E708F2787E7410F2E408F2903FD502287DB2
:200A600090E6A07401F022ED7006EE7003020B0E90E6B9E0FCBC14028003020B0E90E6BE4B
:200A8000E0FBA3E0FCBB0205BC00028003020B0EEF235401FC90E6BCE0FBC201EC60389097
:200AA000E6A0E020E1F9781C7440F274E708F28B8212154AE582700790E6A07401F02290BE
:200AC000E6B57401F090E68AE4F090E68B7402F090E6A07480F02290E6B57401F090E68A2F
:200AE000E4F090E68B7402F090E6A07480F090E6A0E020E1F978187440F274E708F28B8239
:200B0000121421E58270067582010204CD22ED607290E6B9E0FCBC156A90E6BEE0FBA3E02D
:200B2000FCBB025FBC005C90E6BCE0FCC20190E6A0E020E1F9903FC0E0FBBB3200401278A3
:200B4000417440F274E708F28C82121D21AB82801078257440F274E708F28C821217BDAB07
:200B600082EB700790E6A07401F02290E6B57401F090E68AE4F090E68B7402F090E6A0749F
:200B800080F022ED7006EE7003020C9490E6B9E0FCBC16028003020C9490E6BEE0FBA3E0C7
:200BA000FCBB0405BC00028003020C94EF235401FC90E6BCE0FBC201EC606D90E6A0E02090
:200BC000E1F9903FC0E0FCBC3200401E784E7440F274E708F2785074022440F2E434E70828
:200BE000F28B82121F30AC82801C78337440F274E708F2783574022440F2E434E708F28B28
:200C0000821219C8AC82EC700790E6A07401F02290E6B57401F090E68AE4F090E68B740454
:200C2000F090E6A07480F02290E6B57401F090E68AE4F090E68B7404F090E6A07480F09051
:200C4000E6A0E020E1F9903FC0E0FCBC3200401E78457440F274E708F2784774022440F23A
:200C6000E434E708F28B82121D94AC82801C78297440F274E708F2782B74022440F2E434BE
:200C8000E708F28B8212182DAC82EC70067582010204CD22ED606D90E6B9E0FCBC17659005
:200CA000E6BEE0FBA3E0FCBB015ABC0057C201750C0190E6A0E020E1F9903FC0E0FCBC327F
:200CC00000400D78557401F290E7401220AD800E783A7401F290E740121ADD85820CE50C92
:200CE000700790E6A07401F02290E6B57401F090E68AE4F090E68B04F090E6A003F0758287
:200D0000040204D7EE602D90E6B9E0FCBC192590E6BEE0FBA3E0FC4B701A90E6BAE0FBA361
:200D2000E04B24FFE433F582C2011213C290E6A07480F022ED7006EE7003020E1590E6B9F9
:200D4000E0FCBC1A028003020E1590E6BEE0FBA3E0FCBB0205BC00028003020E15EF23541B
:200D600001FC90E6BCE0FBC201EC603890E6A0E020E1F978227440F274E708F28B82121668
:200D8000EDE582700790E6A07401F02290E6B57401F090E68AE4F090E68B7402F090E6A00A
:200DA0007480F02290E6B57401F090E68AE4F090E68B7402F090E6A07480F090E6A0E02052
:200DC000E1F978207440F274E708F28B82121608E58270067582010204CD788C74E5F274FE
:200DE0003F08F2E408F2788A7431F2E408F2788F7404F2E408F2789104F278927408F27827
:200E00009374FFF275825112294EE58270067582010204CD22ED7006EE7003020EE190E614
:200E2000B9E0FCBC1B028003020EE190E6BEE0FBA3E0FCBB0205BC00028003020EE1EF233C
:200E40005401FF90E6BCE0FCC201EF604E90E6A0E020E1F9903FC0E0FFBF3000401E78624B
:200E60007440F274E708F2786474012440F2E434E708F28C82122359E582700790E6A074D3
:200E800001F02290E6B57401F090E68AE4F090E68B7402F090E6A07480F02290E6B57401B8
:200EA000F090E68AE4F090E68B7402F090E6A07480F090E6A0E020E1F9903FC0E0FFBF30C0
:200EC00000401790E7407860E0F290E7417861E0F28C8212231CE58270067582010204CDF0
:200EE00022EE602F90E6B9E0FFBF1C2790E6BEE0FEA3E0FF4E701C90E6BCE0FFC201D2002F
:200F000053B0C353070FEF2F25E042B090E6A07480F022ED603990E6B9E0FFBF0F3190E668
:200F2000BEE0FEA3E0FFBE0126BF0023C20190E6A0E020E1F990E7407401F090E6B5F09052
:200F4000E68AE4F090E68B04F090E6A003F022ED605090E6B9E0FFBFC04890E6BCE0FFC2E8
:200F600001BF0437787C74ABF2743608F29036AB787EE493F2A3E49308F290E00012287DC2
:200F80007E007FE090E6B57401F090E6B3EFF090E6B4EEF090E6A07480F02290E6A074012D
:200FA000F02290E6A07401F022C2A832903EC1E4F0A3F07582041204CD903FC0E0FFBF32B3
:200FC000004008903EC012202B800A783AE4F2903EC0121ADD903EC0E0FF781874C1F2749D
:200FE0003E08F28F82121421903FC0E0FFBF32004009903EC0E0F582122118D2A8222000CD
:201000000353B0EFC2CAC2CF32C0E0C082C08320000343B010D2CA5391EF90E65F74F3F0A6
:20102000D083D082D0E03202100902100902100902100902100902100990E6007412F0900B
:20104000E67A7401F01202101202A012039A1213B3903FC0E0FFBF3200400F121C4AE582DF
:20106000700B7582011204CD80031217441211FE1223AB1232BA90E611E4F01232BA90E65C
:2010800010E4F043B53443B00453B0CF75C801D2AD90E65EE043E0F3F0D2A8903FD1E0FC0A
:2010A000A3E0FDA3E0FEA3E0FFEC4D4E4F70030211D1903FD1780DE0F2A3E008F2A3E00881
:2010C000F2A3E008F27D527811E4F208F243B010C005121204D005780DE2F5F008E242F04C
:2010E00008E242F008E245F070030211AE7C80780DC3E2948008E2940008E2940008E294CD
:20110000005004780DE2FC78827400F274E008F2E408F27885ECF2E408F278117980E2F37C
:2011200008E209F378877401F28D821228AEE58270087582011204CD80747813ECF290E0E5
:2011400000C005C004121286D004D0058C027B007E007F00780DE2C39AF208E29BF208E296
:201160009EF208E29FF28C037F007811E2FA08E2FEEB2AFAEF3EFE7811EAF2EE08F27811F9
:20118000E2F5F008E245F060030210D78D03EB04FDBD540280030210D77D517811E2FA08E7
:2011A000E22470FB7811EAF2EB08F20210D7780DE2F5F008E242F008E242F008E245F07078
:2011C0000D1212DAE58270067582011204CD53B0EF758201122B8F3001031205CB20A8F7C1
:0511E000120FAC80F2CB
:2035E8001201000200000040B720B19D0001010203020A0600020000000800000904000019
:2036080000FFFFFF060904000102FFFFFF070904000102FFFFFF080904010000FFFFFF0665
:203628000904010102FFFFFF070705020200020007050402000200070586020002000705A5
:2036480088020002000902000002010480FA04360D3631363F361F36283638364636000054
:203668000902000001020580FA0436163631363F3600004D366836E436FC3617372B3767CF
:203688003787379037A537E835FA35027B36087F3612034D005300460054003100300030EE
:2036A80000C00028000000000104000100000000000000000157494E55534200000000003B
:2036C800000000000000000000000039393939393939393939393939393939007768697496
:2036E80065717561726B2072657365617263680000000000476C6173676F7720496E746548
:203708007266616365204578706C6F7265720058582D585858585858585858585858585882
:20372800585800506970652050206174207B327835313242204550324F55542F455036499D
:203748004E7D2C2051206174207B327835313242204550344F55542F455038494E7D0050A4
:203768006970652050206174207B347835313242204550324F55542F455036494E7D00444C
:20378800697361626C656400446F75626C652D627566666572656420353132420051756161
:1037A800642D627566666572656420353132420043
:2011E500E58030E30A20000343B0087582012220000353B0F77582002243B5080211E512F0
:2012050032BA90E601E053E0FCF0903FC0E0FFBF10028019BF20028014BF30028017BF31A2
:20122500028012BF3202800DBF3310800843B50253B0FD800643B2025380FD9000011235EC
:201245008A53B2F743B31C4390105390F7903FC0E0FFBF10028019BF20028014BF30028076
:2012650014BF3102800FBF3202800ABF330A800543B00280034380029004B012358A021171
:20128500E575AF0385829B85839A90E67B7813E2F8E0A2E7C2949292D294A2E6C294929258
:2012A500D294A2E5C2949292D294A2E4C2949292D294A2E3C2949292D294A2E2C294929293
:2012C500D294A2E1C2949292D294A2E0C2949292D294D8BD227431C29400D294D5E0F853C6
:2012E500B3E3903FC0E0FFBF10028019BF20028014BF30028019BF31028014BF3202800F74
:20130500BF3314800A90E601E043E023F0800890E601E043E063F00211E50211E5E5827887
:2013250014F275821012266EE582601978707401F2E408F2903E1475F0601226A2E58260A0
:20134500047582012212268675820022AE82AF8375821112266EE582601C7D0078157975A8
:20136500E2F3E409F38E828F838DF0122729E58260047582012212268675820022AE82AF17
:20138500837D0078167970E2F3E409F38E828F838DF01226A2E582600E122686E582700336
:0E13A500F582227582012212268675820022B0
:2013B30074BE55B04480F5B043B5C153B07F22E582600453B07F2243B08022AF827E008FDB
:2013D30005BD0102800ABF02028017BD031F8016903FC0E0FFBF330050047E0C800F7E0E83
:2013F300800B7E0D80077817E270027E48EE7003F58222EE2EFE7817E24EF58212266EE5BF
:201413008270071226867582002275820122AF827E007818E2F58208E2F583E0FCA3E0FD79
:20143300EF30E0027E01EF30E103430640EF30E013903FE5E0FAA3E0FBC3EA9CEB9D50044A
:2014530075820022EF30E113903FE7E0FAA3E0FBC3EA9CEB9D500475820022EC4D700FEE5B
:20147300F4FB52B0781AE4F2781BF20214FD8C028D03C3EA9472EB94064008747C9A7415B7
:201493009B500475820022C006EA248EFAEB34F9FB78AFEAF2E2F5F0EBC4C5F0C4540F6508
:2014B300F0C5F0540FC5F065F0F2C5F008F290010DC007C006C005C0041232DFAA82AB8335
:2014D300D004D005D006D007EBC4CAC4540F6ACA540FCA6ACAFB74E0C39AFA740F9BFBFEB1
:2014F300781AEEF2781BEAF2D0067817E4F28F82C006C005C0041213CEE582D004D005D08A
:20151300067003F5822278707402F2E408F2903E1A75F0601226A2E582700712268675825E
:201533000022122686E5827003F58222EC4D6003EE42B075820122AF82BF01028005BF0276
:201553000A80047E0180087E40800475820022EE55B07011781CE2F58208E2F583E4F0A34E
:20157300F07582012278177401F28F821213CEE5827003F5822278757402F2E408F2903EE0
:201593001E75F060122729E5827003F58222781EE2FE7F00781FE27C004207EC4206781C85
:2015B300E2FC08E2FDEEC4CFC4540F6FCF540FCF6FCFFE74FFC39FFFE49EFE78AFEFF2EEB5
:2015D30008F2900098C005C0041232DF786D740AF2E408F21225E4E5828583F0D004D005D4
:2015F3002472FE740635F0FF8C828D83EEF0EFA3F075820122AF827820E2FD08E2FE8D826F
:201613008E83E0FBA3E0FC4B601D8B0E8C0FC3E50E9472E50F9406400A747C950E7415950B
:201633000F500475820022750EB8750F37850E82850F83E493FA70030216E9EA5F70030256
:2016530016DB781C74C3F2743E08F28A82C007C006C005C004C00312154AE582D003D004B9
:20167300D005D006D0077003F58222C007903EC3E0FAA3E0FFC3EB9AEC9FD0075030850E58
:2016930082850F83E493FA7818EDF2EE08F28A82C007C006C005C004C003121421E582D073
:2016B30003D004D005D006D0077003F58222850E82850F83A3E49325E0FA24E5F582E434D5
:2016D3003FF583EBF0ECA3F07402250EF50EE4350FF50F02164075820122AF827EB87D3781
:2016F3008E038D048B828C83E493FA6040EFB5022F7822E2F52E08E2F52F8E828D83A3E45F
:201713009325E024E5F582E4343FF583E0FDA3E0FE852E82852F83EDF0EEA3F0758201228D
:1117330074022BFBE43CFC8B068C0580B7758200227B
:0637B80001000201000007
:2017440090E670E043E001F05388FE22A982E3FE7F0009E37C004207EC4206EEC4CFC454A7
:201764000F6FCF540FCF6FCFFE78AFEFF2EE08F29001031232DF786D740AF2E408F20225A9
:20178400E4AE82AF8378AFEEF2EF08F290000A1232DF786D7403F2740108F21225E4AE824A
:2017A400E583C454F0CEC4CE6ECE54F0CE6EFF7824E2F9EFF309EEF322AF827DBE7E378D87
:2017C400038E048B828C83E493FA6059EFB502488D828E83A3E493FA78687427F27867E4D8
:2017E400F278697402F28A82122531E5827003F582227825E2F51008E2F511758227121708
:2018040050858212858313851082851183E512F0E513A3F07582012274022BFBE43CFC8B41
:20182400058C06809E75820022AF82782DE4F2782EF2782F740FF27830F4F278317403F2D6
:201844007832E4F27829E2F58208E2F583E0FDA3E0FE8D038E04C3747C9B74159C4023C092
:2018640007782BE2FB08E2FC8B828C83E0FAA3E0FF8A148F15C3747C951474159515D007D7
:20188400500475820022ED4E700C747CB514077415B5150280377824742DF28D828E83C045
:2018A40007C004C003121785D003D0048B828C83E0FBA3E0FC7824742FF28B828C83121755
:2018C40085D00778327414F2783274D4F27DBE7E378D828E83E493FC70030219C4EC5F7010
:2018E400030219BA74012DFBE43EFC8B828C83E493FA786B742DF2786A7403F2786C14F219
:201904008A82C007C006C005C004C003122589E582D003D004D005D006D0077003F5822282
:201924008B828C83E493FA786B742FF2786A7404F2786C03F28A82C007C006C005C004C097
:2019440003122589E582D003D004D005D006D0077003F582228B828C83E493FA786B74310F
:20196400F2786A7401F2786CF28A82C007C006C005C004C003122589E582D003D004D005CA
:20198400D006D0077003F582228B828C83E493FB786B7432F2786A7402F2786C14F28B8240
:2019A400C007C006C005122589E582D005D006D0077003F5822274022DFDE43EFE0218D56D
:2019C40075820122AF827DBE7E378D038E048B828C83E493FA7003021ACDEFB50202800392
:2019E400021ABF74012DF516E43EF517851682851783E493FD78687439F278677402F2783F
:201A04006914F28D82122531E5827003F582227839E270217833E2F58208E2F583E4F0A368
:201A2400F07835E2F58208E2F583747CF07415A3F075820122851682851783E493FD7868A4
:201A44007437F278677403F2786914F28D82122531E5827003F582227833E2F51808E2F553
:201A640019758237121750AA82AE83851882851983EAF0EEA3F0851682851783E493FE7881
:201A8400687437F278677404F2786903F28E82122531E5827003F582227835E2F51808E2AD
:201AA400F519758237121750AA82AE83851882851983EAF0EEA3F07582012274022BFBE4DB
:201AC4003CFC8B058C060219D275820022E5805401B40100E433F58222AF83E582783BF245
:201AE400EF08F2783BE2F58208E2F583E4F07CBE7D378C828D83E4937003021C0274012C00
:201B0400FAE43DFB8A828B83E493FF7868743DF278677401F27869F28F82C005C004C00322
:201B2400C002122531E582D002D003D004D0057003F58222783DE27003021BF8783EE4F20B
:201B4400783BE2F58208E2F583E0FF8C828D83E4934207783BE2F58208E2F583EFF08A82FD
:201B64008B83E493FF7868743EF278677402F2786914F28F82C005C004C003C002122531A4
:201B8400E582D002D003D004D0057003F58222783AE260308A828B83E493FA7868743DF24E
:201BA40078677401F27869F28A82C005C004122531E582D004D0057003F58222783EE24413
:201BC40004F28006783EE254FBF28C828D83A3E493FF786B743EF2786A7402F2786C14F2BA
:201BE4008F82C005C004122589E582D004D0057003F5822274022CFCE43DFD021AF67582A6
:021C04000122BB
:0637BE0001540255000059
:201C0600AF82786B743FF2786A7412F2786CE4F28F82C007122589E582D0077003F582220F
:201C2600783F74FFF2786B743FF2786A74D2F2786C7401F28F82122589E5827003F5822251
:201C4600758201227EC47F378E828F83E49360378E828F83A3E493FCA3E493FD8C828D83CF
:201C6600E4F08E828F83A3A3A393F582C007C006121C06E582D006D0077003F5822274041C
:201C86002EFEE43FFF80C175820122E582F904F8E2FF7E007D008D258E248F238E22E3FABA
:201CA600E4FBFEFFE5224202E5234203E5244206E525420778B1EAF2EB08F2EE08F2EF083D
:201CC600F2900005E4F5F0123301AC82AD83AEF0C313FFEE13FEED13FDEC13FCEFC313EEED
:201CE60013ED13FDEC13F5828D8322AE82AF83EE2EF582EF33F583E5822582F582E5833377
:201D0600F583786D7405F2E408F21225E4AE82AF837840E2F9EEF309EFF322AF827DC47E29
:201D2600378D038E048B828C83E493FA605CEFB5024B8D828E83A3A3A3E493FA78687443F9
:201D4600F278677488F278697402F28A82122531E5827003F582227841E2F52608E2F527D2
:201D6600758243121C91858228858329852682852783E528F0E529A3F07582012274042B4D
:201D8600FBE43CFC8B058C06809B75820022AF827849E4F2784AF2784B74F8F2784C747F7C
:201DA600F2784D74FFF27845E2F58208E2F583E0FDA3E0FE8D038E04C3747C9B74159C4056
:201DC6001DC0077847E2FB08E2FC8B828C83E0FAA3E0FFC3747C9A74159FD0075004758288
:201DE6000022ED4E601E78407449F28D828E83C007C004C003121CF1D003D004D007784DCB
:201E0600E254FEF28B828C83E0FDA3E0FE8D038E04BB7C05BC150280167840744BF28D82DD
:201E26008E83C007121CF1D007784DE254FDF27DC47E378D828E83E493FC7003021F2CECAF
:201E46005F7003021F2274032DFBE43EFC8B828C83E493FA786B7449F2786A7458F2786C07
:201E66007402F28A82C007C006C005C004C003122589E582D003D004D005D006D00770034C
:201E8600F582228B828C83E493FA786B744BF2786A7457F2786C7402F28A82C007C006C03E
:201EA60005C004C003122589E582D003D004D005D006D0077003F582228B828C83E493FAA7
:201EC600786B744DF2786A74D2F2786C7401F28A82C007C006C005C004C003122589E582F5
:201EE600D003D004D005D006D0077003F582228B828C83E493FB786B744DF2786A7403F238
:201F0600786CE4F28B82C007C006C005122589E582D005D006D0077003F5822274042DFD4B
:201F2600E43EFE021E3975820122AF827DC47E378D038E048B828C83E493FA700302202776
:201F4600EFB50202800302201974032DF52AE43EF52B852A82852B83E493FD78687452F2A0
:201F660078677458F278697402F28D82122531E5827003F582227852E270147853E2700F2F
:201F8600784EE2F58208E2F583E4F0A3F0801E784EE2F52C08E2F52D758252121C91AA82AC
:201FA600AE83852C82852D83EAF0EEA3F0852A82852B83E493FE78677457F278687452F21A
:201FC60078697402F28E82122531E5827003F582227852E2FEBEF8197853E2FEBE7F1278DC
:201FE60050E2F58208E2F583747CF07415A3F0801E7850E2F52C08E2F52D758252121C9157
:20200600AA82AE83852C82852D83EAF0EEA3F07582012274042BFBE43CFC8B058C06021F83
:202026003A75820022AE82AF83E4F07CC47D378C828D83E493606C8C828D83A3A3A3E4933E
:20204600FB78687454F278677480F2786923F28B82C007C006C005C004122531E582D00464
:20206600D005D006D0077003F582227854E2540F60288E828F83E0FB8C828D83E49342035C
:202086008E828F83EBF08C828D83A3E493FAA3E493FB8A828B837854E2F074042CFCE43D7D
:2020A600FD808C75820122AE82AF83E4F07CC47D378C828D83E493FB6057C00374012CF52D
:2020C6002EE43DF52F852E82852F83E493FAA3E493FB8A828B83E0FA540F7004D00380284F
:2020E600D0038E828F83E0FA42038E828F83EBF07855E26013852E82852F83E493FAA3E443
:2021060093FB8A828B83E4F074042CFCE43DFD80A022AF827DC47E378D828E83E493FC7013
:2021260003022238EC5F700302222E74032DFBE43EFC8B828C83E493FA78687456F2786765
:202146007458F278697402F28A82C007C006C005C004C003122531E582D003D004D005D072
:2021660006D0077003F582228B828C83E493FA78687458F278677457F278697402F28A8254
:20218600C007C006C005C004C003122531E582D003D004D005D006D0077003F582228B824F
:2021A6008C83E493F582C007C006C005C004C003121C06E582D003D004D005D006D007700F
:2021C60003F582228B828C83E493FA786B7456F2786A7458F2786C7402F28A82C007C006AC
:2021E600C005C004C003122589E582D003D004D005D006D0077003F582228B828C83E4939E
:20220600FB786B7458F2786A7457F2786C7402F28B82C007C006C005122589E582D005D006
:1622260006D0077003F5822274042DFDE43EFE02211E758201229C
:0C37C40001C53E4002C63E41000000006E
:20223C00AF827E008F05BD01028005BF020880047E2080027E21EE7003F58222EE2EFE7862
:20225C005AE24EF58212266EE5827003F5822275820122AF82785AE4F28F8212223CE5826D
:20227C00603878707401F2E408F2903E5B75F0601226A2E582602378707401F2E408F2900E
:20229C003E5C75F0601226A2E582600E122686E5827003F582227582012212268675820014
:2022BC0022AF82785AE4F28F82C00712223CE582D007604578707401F2E408F2903E5D750F
:2022DC00F0601226A2E5826030785A7401F28F8212223CE5826022785EE2FD08E2FE7F0002
:2022FC0078757401F2E408F28D828E838FF0122729E58260047582012212268675820022D3
:20231C00AF82785B7401F27861795CE2F38F82C00712226FE582D0077003F582227860E234
:20233C00F4F2785B7403F27860795CE2F38F8212226FE5827003F5822275820122AF8278F3
:20235C005D7401F27864795EE2F308E209F38F82C0071222BDE582D0077003F58222785D47
:20237C007403F27862795EE2F308E209F38F821222BDE5827003F582227862E2FE08E2FF54
:0F239C008E828F83E0F48E828F83F07582012210
:2023AB001232BA90E60B7403F01232BA90E6017480F01232BA90E6047480F01232BA90E603
:2023CB0009E4F01232BA90E6027498F01232BA90E60374FEF01232BA90E670E043E080F073
:2023EB001232BA90E618E053E0FEF01232BA90E619E053E0FEF01232BA90E61AE053E0FE18
:20240B00F01232BA90E61BE053E0FEF022E582FF60067E007D0080047E027D801232BA90B9
:20242B00E6047480F01232BA90E61274A04EF01232BA90E61374204DF01232BA90E6147497
:20244B00E04EF01232BA90E61574604DF0EF60067D017E0080047D037E007866EDF28F8218
:20246B001224771232BA90E604E4F022AF827866E25401605F1232BA90E618E4F01232BAD3
:20248B0090E604E043E002F01232BA90E6497482F01232BA90E6497482F0EF60121232BA1D
:2024AB0090E6497482F01232BA90E6497482F01232BA90E6187410F01232BA90E61AE4F067
:2024CB001232BA90E604E043E006F01232BA90E61A7404F07866E25402604A1232BA90E656
:2024EB0019E4F01232BA90E604E043E004F01232BA90E6497484F01232BA90E6497484F02B
:20250B001232BA90E6197410F01232BA90E61BE4F01232BA90E604E043E008F01232BA904B
:06252B00E61B7404F0221F
:20253100E5822582FFF58212266EE582604378707401F2E408F2903E6775F0601226A2E570
:2025510082602E74014FF58212266EE58260227868E2FD7E007F6078697975E2F3E409F3F0
:202571008D828E838FF0122729E58260047582012212268675820022E582FF25E0F5821299
:20259100266EE582604678707401F2E408F2903E6A75F0601226A2E5826031786CE2601E49
:2025B100786BE2FD7E007F60786C7970E2F3E409F38D828E838FF01226A2E582600E1226E3
:1325D10086E5827003F5822275820122122686758200220D
:2025E400AE82AF837C007D007B10EF235401FAEE2EFEEF33FFEC2CFCED33FDEA6003430490
:2026040001786DC3E2F5F0EC95F008E2F5F0ED95F04011786DD3E29CF4B3FCB308E29DF43C
:0B262400FD430601DBC48E828F832281
:20262F00C007C000AF8290E678E020E00E786FE260F4786FE4F2758200801F90E678E03089
:20264F00E2057582008013EF600D90E678E0FFA2E1E433F5828003758201D000D00722C0BC
:20266F0007AF8290E6787480F090E679EFF075820112262FD0072290E678E030E204758240
:20268F00002290E6787440F090E678E020E6F975820122C007C006C004C003C002C000AF4B
:2026AF00F0AE83E5827872F208EEF208EFF27870E2F5F008E245F07005758201804F7B0051
:2026CF007C007870E2B5030708E2B50402802B7872E22BFA08E23CFE08E2FF8A828E838FEC
:2026EF00F01235BFFA90E679F075820112262FE58260070BBB00CB0C80C87870E2B5030860
:20270F0008E2B50403D38001C3E433F582D000D002D003D004D006D00722C007C006C005F5
:20272F00C004C003C002C001C000AFF0AE83E5827877F208EEF208EFF27875E2F5F008E239
:20274F0045F0700675820102286C7875E2B4010408E26002800690E6787420F090E679E096
:20276F007B007C00787AE4F208F2787A7975E2F5F0E3B5F00C08E2F5F009E3B5F0030228C9
:20278F004675820012262FE5827003022859787AE22402FD08E23400FE7875E2B50507087E
:2027AF00E2B506028002800690E6787420F0787AE22401FD08E23400FE7875E2B505070847
:2027CF00E2B506028002803575AF03759AE6759B7890E67B7440F0E0ACE07877797AE3C5E5
:2027EF00F0E225F0FD09E3C5F008E235F0FE08E2FF8D828E838FF0EC1232C38025787779B0
:20280F007AE3C5F0E225F0FD09E3C5F008E235F0FE08E2FF90E679E0FA8D828E838FF01292
:20282F0032C3787AE22401F208E23400F2787AE2FB08E2FC02277990E678E030E205758266
:20284F0000801A90E678E020E6F97875E2B5030808E2B50403D38001C3E433F582D000D088
:0E286F0001D002D003D004D005D006D007223D
:20287D00AA82AB83787CE2FC08E2FD787EE2FE08E2FFEE60010FEF601775AF078A9B8B9A30
:11289D008C9E8D9D90E67CE090E67BF0DEF6DFF4225A
:2028AE00C007C006C005C001C000AF827887E260127881E2FE7888EEF27880E2FE7889EE33
:2028CE00F280087880E2FE7888EEF2EF2FFFF58212266EE58260587887E2FDE23395E0FEF9
:2028EE00787074012DF2E43E08F2903E8875F0601226A2E5826038EF3395E0FE4307018FCF
:20290E008212266EE582602778857975E2F308E209F37882E2F58208E2F58308E2F5F01257
:20292E002729E5827004F582800B7582018006122686758200D000D001D005D006D00722E4
:20294E00C007C006C005C004C003C002C001C000AF827894E4F208F2EF2FFFF58212266E06
:20296E00E5827003022B037892E2FC8CF005F07B017C008006EB2BFBEC33FCD5F0F7789474
:20298E00798FC3E3F5F0E295F009E3F5F008E295F04003022B037891E26012788BE2FA78C8
:2029AE0096EAF2788AE2FA7897EAF28008788AE2FA7896EAF2C003C0047891E2FAE2339568
:2029CE00E0FC787074012AF2E43C08F2903E9675F0601226A2E582D004D0037003022B03C6
:2029EE00C0078B028C0778BDEAF208EFF2788AE2F58208E2F583C007C004C003C002C0015A
:202A0E00C00012344FAD82AE83D000D001D002D003D004D0077898EAC39DF2EF9E08F278B7
:202A2E008F7994E3F5F0C3E295F0FE09E3F5F008E295F0FF7898C3E2F5F0EE95F008E2F5D1
:202A4E00F0EF95F0D0075020788F7994E3F5F0C3E295F0C0E009E3F5F008E295F0C0E078BF
:202A6E0099D0E0F218D0E0F2788C7994E3C5F0E225F0FA09E3C5F008E235F0FD08E2FE78AC
:202A8E00987970E2F308E209F38A828D838EF01226A2E582605F122686E5827004F58280C2
:202AAE00737E007893E2600B7893C3E2F5F0EE95F0500C8F8212266EE58270030E80E478E0
:202ACE0093E2B50605758200804A788A7998E3C5F0E225F0F209E3C5F008E235F0F27894B0
:202AEE007998E3C5F0E225F0F209E3C5F008E235F0F202298C1226867894798FE2F5F0E361
:202B0E00B5F00C08E2F5F009E3B5F003D38001C3E433F582D000D001D002D003D004D005FF
:052B2E00D006D00722D3
:06009800E478FFF6D8FD3C
:012B3300326F
:202B3400AFF0AE83E582789DF2EE08F2EF08F2789BE2F52E08E2F52F789BE2F5F008E24543
:202B5400F0602A789DE2FA08E2FB08E2FC789AE2FFAD2EAE2F8A828B838CF0EF1232C3A351
:1B2B7400AA82AB831DBDFF011EED4E70E8789DE2F58208E2F58308E2F5F022A0
:202B8F00AF8278A1E4F278A2F2D2E890E668E043E008F090E65CE043E001F090E65D740159
:202BAF00F0D2AF90E680E020E10890E680E043E002F0EF600E90E680E043E008F090000AE3
:202BCF0012359490E680E053E0F7F022AF82BF00028037BF01028036BF02028039BF040297
:202BEF008038BF06028037BF08028036BF80028019BF8102801CBF8202801BBF8402801A9C
:202C0F00BF86028019BF881E801890E6A02290E6A12290E6A22290E6A32290E6A42290E630
:202C2F00A52290E6A62290000022C021C0E0C0F0C082C083C007C006C005C004C003C0027D
:202C4F00C001C000C0D075D000C08675860090E6B8E0FFE4BF800104FE601B90E6B9E0FD14
:202C6F00BD061390E6BAE0FCA3E0F5827800ECF21201C0022EB1EF702790E6B9E0FDBD0907
:202C8F001F90E6BAE0F5821204FFE582600990E6A07480F0022EB190E6A07401F0022EB163
:202CAF00EE600E90E6B9E0FDBD08061234EA022EB18F05BD012F90E6B9E0FDBD0B2790E6CF
:202CCF00BCE0FD90E6BA7805E0F28D82120548E582600990E6A07480F0022EB190E6A0742A
:202CEF0001F0022EB1E4BF810104FD601490E6B9E0FCBC0A0C90E6BCE0F5821205AB022E01
:202D0F00B1EF703790E6B9E0FCBC032F90E6BAE0FBA3E0FCBB0110BC000D78A17401F29035
:202D2F00E6A003F0022EB1BB0205BC00028003022EB190E6A07480F0022EB1EE603590E672
:202D4F00B9E0702F78A0E2FE78A1E225E0FC420690E740EEF090E741E4F090E6B504F09020
:202D6F00E68AE4F090E68B7402F090E6A07480F0022EB1ED602890E6B9E0702290E740E40D
:202D8F00F090E741F090E6B504F090E68AE4F090E68B7402F090E6A07480F0022EB1BF0296
:202DAF00028003022E5C90E6B9E0FEBE03028008BE01028003022E5C90E6BAE0FDA3E0FE3D
:202DCF004D6003022EB190E6BCE0F582122BDBAD82AE83ED4E7003022EB190E6B9E0FCBCFC
:202DEF0003188D828E83E0FC4304018D828E83ECF090E6A07480F0022EB190E6BCE0F58205
:202E0F00C006C0051234D8E582D005D0067003022EB18D828E83E0FC5304FE8D828E83EC37
:202E2F00F090E6BCE0FDA3E08D0453040F530580E4C423CDC423541F6DCD541FCD6DCDFE8E
:202E4F0090E683ED4CF0E043E020F08055BF824C90E6B9E0704690E6BCE0F582122BDBAEB8
:202E6F0082AF83EE4F603B8E828F83E0FE5306017F00EE4FB40100B3E433FF90E740F090EC
:202E8F00E741E4F090E6B504F090E68AE4F090E68B7402F090E6A07480F0800690E6B8120D
:202EAF0004F25391EF90E65D7401F0D086D0D0D000D001D002D003D004D005D006D007D0A0
:202ECF0083D082D0F0D0E0D02132AE82AF8378A7E2B4012C78A8E270278E828F83E493FC09
:202EEF00A3E493FD787CECF208EDF28C828D83E493787EF208E4F290E00012287D023148F6
:202F0F0078A7E2B4063C78A8E270378E828F83A3A3E493FCA3E493FD4C700790E6A07401C2
:202F2F00F0228C028D03787CEAF208EBF28C828D83E493787EF208E4F290E00012287D0219
:202F4F00314878A7E2B4020280030230668E828F83A3A3A3A3E493FD78A8C3E29D4003024C
:202F6F0030668E828F83A3A3A3A3A3E493FCA3E493FD78A8E275F002A42CF582ED35F0F51A
:202F8F0083E493FCA3E493FD74092CFFE43DFE8C028D03787CEAF208EBF28C828D83E493E6
:202FAF00787EF208E4F290E000C007C006C005C00412287DD004D005D006D0078C828D838B
:202FCF00E493FC2400F51AE434E0F51B8F028E03851A1C851B1D8A828B83E493FCA3E493F3
:202FEF00FD787CECF208EDF28C828D83E493787EF208E4F2851C82851D83C003C0021228AA
:20300F007DD002D0038A828B83E493FCA3E493FD8C828D83E493251AF51AE4351BF51B7440
:20302F00022AFAE43BFB8A828B83E493FCA3E4934C709D90E002E0FCA3E0FD4C6003023191
:20304F0048E51AC39400FCE51B94E0FD90E002ECF0EDA3F002314878A7E2B403047401805C
:20306F0001E4FD602278A8E2701D787C74D0F2087437F29037D0E493787EF208E4F290E03B
:20308F000012287D023148ED700302314178A8E2FC7D0024FFFAED34FFFB74072EF582E464
:2030AF003FF583C006C007E493FF7E00C3EA9FEB64808EF063F08095F0D007D006507374F4
:2030CF00082EF582E43FF583E493FEA3E493FF1CBCFF011DEC2CFCED33FDEC2EF582ED3F28
:2030EF00F583E493FEA3E493FF90E0007402F090E00104F074012401FCE434E0FD8E828F56
:20310F0083E493FB60330EBE00010F8C828D83EBF074012CFAE43DFB8A828B83E4F0042A70
:20312F00FCE43BFD90E000E0FB0B0B90E000EBF080CB90E6A07401F0227E007FE090E6B5CC
:20314F007401F090E6B3EFF090E6B4EEF090E6A07480F022AE82AF83A3A3A3A3A3E493FCCB
:20316F00A3E493FD74042EFEE43FFF78ABE4F28E828F83E493FA78ABC3E29A400122C0064C
:20318F00C00778ABE275F002A42CF582ED35F0F583E493FAA3E493FF78AC74092AF2E43FB2
:2031AF0008F27E008A828F83A3A3A3A3A3E493FF78A2E2B507028007D007D0060232AED025
:2031CF0007D00678ACE2F52E08E2F52FC004C005852E82852F83E493FAA3E493FD8A828DB6
:2031EF0083A3E493F5307404B530028006D005D0048042D005D004852E82852F83E493F52D
:20320F0031A3E493F532853182853283A3A3E493FA78A9E2B50214853182853283A3A3A3DB
:20322F00E493FA78AAE2B5020280047A0080027A018A06804C7405B53047EE6044C004C03F
:20324F0005852E82852F83E493FAA3E493FD8A828D83A3A3E493FD740F5DFC530580E423D5
:20326F00CDC423541F6DCD541FCD6DCD30E40244E0FA90E683ED4CF0E043E020F0D005D056
:20328F00047402252EF52EE4352FF52F852E82852F83E493FAA3E493FB4A60030231DB789E
:0832AF00ABE22401F202317EC2
:0437D00004030904E1
:0132B70032E4
:200076007900E94400601B7A009037D478C775923EE493F2A308B800020592D9F4DAF2753D
:0200960092FFD7
:0132B80032E3
:0132B90032E2
:03010000022C3995
:030104000235BC05
:030108000234D6E8
:03010C000235B801
:030110000235BEF7
:030114000235E2CF
:030118000234D3DB
:03011C000201B825
:03012000021027A3
:0301240002102A9C
:030128000234E7B7
:03012C000235E1B8
:0301300002102D8D
:0301340002103086
:030138000210337F
:03013C0002103678
:030140000234E4A2
:030144000201B8FD
:030148000235DBA2
:03014C000235DC9D
:030150000235DD98
:030154000235DE93
:030158000235DF8E
:03015C000235E089
:030160000235BDA8
:030164000201B8DD
:030168000201B8D9
:03016C000201B8D5
:030170000234E670
:030174000234E86A
:0301780002350746
:03017C0002350940
:030180000234E95D
:0301840002350839
:0301880002350A33
:03018C000235B980
:0301900002344EE8
:030194000234D45E
:030198000234D757
:03019C000234E347
:0301A0000234D254
:0301A4000234D54D
:0301A8000234E23C
:0301AC000234E535
:0301B00002330017
:0301B4000235E72A
:0101B8003214
:0932BA00000000000000000022E9
:1B32C30020F71130F6138883A88220F509F6A8837583002280FEF280F5F0220A
:0132DE0032BD
:2032DF00AA83AB828BF0903EAFE0A4F8A9F08AF0E0A429F98BF0A3E0A429F58388822222B7
:0132FF00329C
:01330000329A
:20330100AF82AE83ADF0FC78B5EFF2EE08F2ED08F2EC08F278B5E2FF78B3E28FF0A4FFAD04
:20332100F078BBEFF208EDF278B5E2FF78B1E28FF0A4FFADF078B9EFF208EDF278BCE2FFBB
:2033410078B8E2FE78B1E28EF0A42FFF78BCF278B7E2FE78B2E28EF0A42F78BCF278BBE234
:20336100FE08E2FF78B7E2FD78B1E28DF0A4ABF02EFEEB3FFF78BBEEF208EFF278B6E2FD32
:2033810078B2E28DF0A4ABF02EFEEB3FFF78BBEEF208EFF278B6E2FF78B3E28FF0A478B8A4
:2033A100F278B6E2FF78B1E28FF0A4FFADF078B6EFF208EDF278B5E2FF78B4E28FF0A47894
:2033C100B4F278B5E2FF78B2E28FF0A4FFADF078B2EFF208EDF278B1E4F278B5F278B9E24A
:2033E100F52E08E2F52F08E2F53008E2F53178B5E2FA08E2FB08E2FE08E2FFEA252EF52E5D
:20340100EB352FF52FEE3530F530EF3531F53178B9E52EF208E52FF208E530F208E531F2E2
:2034210078B9E208E208E208E278B1E2FC08E2FD08E2FE08E2FFEC252EFCED352FFDEE354F
:0C34410030FEEF35318C828D838EF0223E
:01344D00324C
:01344E00324B
:20344F00AE82AF837D007C0078BEE2235401FB703578BDE225E0F208E233F278BDC3E2F5E6
:20346F00F0EE95F008E2F5F0EF95F0501478BDE2F5F008E2C313C5F01318F2C5F008F28076
:20348F00050C8C0580C278BDC3E2F5F0EE95F008E2F5F0EF95F0400E78BDD3E29EF4B3FE49
:2034AF00B308E29FF4FF78BDE2F5F008E2C313C5F01318F2C5F008F28D041DEC70C88E82AF
:0334CF008F8322C6
:0134D20032C7
:20009E0078BFE84400600A790075923EE4F309D8FC7808E84400600C7901903EBFE4F0A36D
:0400BE00D8FCD9FA97
:0134D30032C6
:0134D40032C5
:0134D50032C4
:0134D60032C3
:0134D70032C2
:0A34D80090E6A07480F075820122D6
:0134E20032B7
:0134E30032B6
:0134E40032B5
:0134E50032B4
:0134E60032B3
:0134E70032B2
:0134E80032B1
:0134E90032B0
:1D34EA0090E74078A2E2F090E6B57401F090E68AE4F090E68B04F090E6A003F0229E
:013507003291
:013508003290
:01350900328F
:01350A00328E
:20350B00E583700BE58224FA400122B4001122E5826003D5E0FD0075E0FED583F674F9D58F
:20352B00E0FD22C007C006C001C000AE82AF83EE2EF8EF33F9EE28FEEF39FF90E600E0F859
:20354B00794C20E416C3EF13CE13CEFF795AE820E309C3EF13CE13CEFF7963E58124FAF87C
:20356B00E926C313C313F9C3EE99F582EF9400F583D000D001D006D00750012202350B7459
:20358B0011C0E012352E158122C007C006AE82AF837411C0E0EE4F600D1EBEFF011F9003F6
:0D35AB00E812352E80EF1581D006D00722E2
:0135B80032E0
:0135B90032DF
:0135BA0032DE
:0135BB0032DD
:0135BC0032DC
:0135BD0032DB
:0135BE0032DA
:0D0069007581321235E3E582600302006606
:1C35BF0020F71430F6148883A88220F507E6A88375830022E280F7E49322E0221B
:0135DB0032BD
:0135DC0032BC
:0135DD0032BB
:0135DE0032BA
:0135DF0032B9
:0135E00032B8
:0135E10032B7
:0135E20032B6
:0435E30075820022CB
:0135E70032B1
:00000001FF
