:06000000020069020E8DF2
:03000B00022B586D
:03001300022B318C
:03001B00022B793C
:03002300022CE8C4
:03002B00020ECFF3
:03003300022B7B22
:03003B00022CE9AB
:03004300020100B7
:03004B0002236D20
:03005300020100A7
:03005B00022B3243
:03006300022B333A
:0300C200020066D3
:03006600020F0482
:2001BE00AF82BF033B7800E2B4EE35786674C7F208742DF2902DC7E4937868F208E4F290E1
:2001DE00E0001220B77D007EE090E6B57401F090E6B3EEF090E6B4EDF090E6A07480F022A3
:2001FE007891EFF278007992E2F3902DBD022712786C7401F208E4F2087460F2786AE4F23B
:20021E0008F2786F04F208E4F2787104F27582511220E8E58260407801E2B4FF0280387883
:20023E0001E2B4C201227801E2B4C02B786C74C0F208743FF208E4F2786A740CF208E4F263
:20025E00786F7429F208E4F2787104F27582511220E8E582600122903FC074F9F0786674C3
:20027E0001F208742EF278687410F208E4F2903FC11220B7903FD1E4F0A3F0A3F0A3F022D5
:20029E00903FC0E0FFBF4102800ABF4202800DBF431A8010903FC07410F08011903FC07473
:2002BE0020F08009903FC07430F0800122903EA17401F0787674A1F208743EF208E4F278F6
:2002DE00747407F208E4F2787904F208E4F2787B04F2787C7408F2787D74FFF2758251127D
:2002FE002188903EA174C0F0787674A1F208743EF208E4F27874F208F2787904F208E4F288
:20031E00787B04F2787C7408F2787D74FFF2758251122188903FC0E0903EA1F0787674A146
:20033E00F208743EF208E4F278747405F208E4F2787904F208E4F2787B04F2787C7408F2DE
:20035E00787D74FFF2758251122188787674A1F208743EF208E4F27874740CF208E4F278EF
:20037E007904F208E4F2787B04F2787C7408F2787D74FFF275825102218878027416F2087C
:20039E00742DF2902D26E493FD1DC2D575F002ED30E704B2D5F404A430D50AF42401C5F032
:2003BE00F43400C5F024ADF582742D35F0F583E493FCA3E493FD7804ECF208EDF27802E295
:2003DE00240CFA08E23400FB8A828B83E0FEA3E0FF903FC0E07C004206EC42078A828B83C0
:2003FE00EEF0EFA3F0903FC0E0C4540F2440FF7804E2F58208E2F583EFF07804E22401FEEF
:20041E0008E23400FF903FC0E0FD740F5D24308E828F83F07804E22403FE08E23400FF8EC1
:20043E00828F83786674C1F208743FF278687410F208E4F21220B7903FC0E0FFBFF9287875
:20045E0002E22408F58208E23400F58374B4F07404A3F07802E2240AF58208E23400F583A7
:20047E007413F07486A3F0227806E25405600443B0202253B0DF22AF827806E24FF202040A
:20049E0086AF827806E25F600FEFF4FF7806E25FF212048675820122758200227807E26036
:2004BE000790E6A07401F02278077401F222AF82BF00028026BF01028005BF021A800C75B7
:2004DE008200C007121CE6D0078010758201C007121CE6D007800475820022788CEFF27896
:2004FE0008E4F27809F2789614F27897F2902DBD1229B675820122AF82788CE2B4010280A5
:20051E0008788CE2B4020A80047E0080087E01800475820022780AE2B4011B8F058DF0051F
:20053E00F078567401800225E0D5F0FBF28E82C007121D45D007EF2408F8790AE3F2789696
:20055E00EFF2780A7997E2F3902DBD1229B675820122E5822408F9E390E740F090E6B574FB
:20057E0001F090E68AE4F090E68B04F090E6A003F02290E6B8E0FFE4BF400104FE60139082
:20059E00E6B9E0FDBDB00B7807E4F290E6A07480F022E4BFC00104FD7006EE700302077122
:2005BE0090E6B9E0FCE4BCA90104FB7008BC10028003020771EF235401FE7F0090E6BA78FA
:2005DE000DE0F2A3E008F290E6BE780FE0F2A3E008F27C00EB60057F5102067B90E6BCE066
:2005FE00FAA3E0FBC374039AE49B4071EA2A900610738006800A800E80127F517C06805DD5
:20061E007F527C0880577F537C088051780DC3E2F5F0E495F008E2F5F0741095F0403E7823
:20063E000FC3E2F5F0E495F008E2F5F0741095F0402B780D790FE3C5F0E225F0FA09E3C510
:20065E00F008E235F0FBC3E49A74109B400F7F517C06780DE22400F208E23470F27807E421
:20067E00F2EF700790E6A07401F022780FE2F5F008E245F0700122780FC3E2944008E294E9
:20069E00005009780FE2FA08E2FB80047A407B00EE605190E6A0E020E1F9786C7440F208C1
:2006BE0074E7F208E4F2786FEAF208E4F2780D796AE2F308E209F378717401F28F8212209A
:2006DE00E8E582700790E6A07401F02290E6B57401F090E68AE4F090E68BEAF090E6A074D0
:2006FE0080F0805790E6B57401F090E68AE4F090E68BF090E6A07480F090E6A0E020E1F956
:20071E0078767440F20874E7F208E4F27879EAF208E4F2780D7974E2F308E209F3787B74B5
:20073E0001F2787CECF2787D74FFF28F82122188E582700790E6A07401F0227B00780FE251
:20075E00C39AF208E29BF2780DE22AF208E23BF2020689ED7006EE700302081490E6B9E099
:20077E00FCBC13028003020814EF235401FC90E6BAE0FF90E6BEE0FAA3E0FB7807E4F28F0B
:20079E0082C004C003C0021211B3E582D002D003D004605BEC603290E6A0E020E1F98A0403
:2007BE00781AECF290E740C0041211E2E582D004603D90E6B57401F090E68AE4F090E68BEE
:2007DE00ECF090E6A07480F02290E6B57401F090E68AE4F090E68BF090E6A07480F090E63E
:2007FE00A0E020E1F9781BEAF290E74002121390E6A07401F022ED606390E6B9E0FCBC12EE
:20081E005B90E6BEE0FBA3E0FCBB0150BC004D7807E4F290E6A0E020E1F91211B0E58260DD
:20083E00087508027509008005E4F508F5097806E2FA7C00E5084202E509420490E740EA55
:20085E00F090E6B57401F090E68AE4F090E68B04F090E6A003F075820102049FEE70030228
:20087E00095690E6B9E0FCBC1102800302095690E6BCE0FBA3E0FC4B601EC007780BE22498
:20089E0001FA08E23400FFEBB50206ECB507028005D007020956D0078B078C0690E6BEE004
:2008BE00FDA3E0FA7807E4F2EF4E70287884E4F278857410F208E4F2903FD575F000C00783
:2008DE00C006C005C00212236E1210A4D002D005D006D007ED4A6058C3ED9440EA940050AF
:2008FE00068D038A0480047B407C0090E6B57401F090E68AE4F090E68BF090E6A07480F0AC
:20091E0090E6A0E020E1F97818EBF290E740C007C006C005C003C00212111CD002D003D01A
:20093E0005D006D0077C00EDC39BFDEA9CFA80A4780BEFF208EEF222ED7006EE7003020A41
:20095E000290E6B9E0FCBC18028003020A0290E6BEE0FBA3E0FCBB1005BC00028003020A5A
:20097E0002EF235401FC7807E4F2EC603690E6A0E020E1F9786674D5F208743FF278687413
:20099E0010F208E4F290E7401220B790E6B57401F090E68AE4F090E68B7410F090E6A07456
:2009BE0080F022121170E582603390E6B57401F090E68AE4F090E68BF090E6A07480F0901B
:2009DE00E6A0E020E1F978667440F20874E7F278687410F208E4F2903FD50220B790E6A0F9
:2009FE007401F022ED7006EE7003020AAB90E6B9E0FCBC14028003020AAB90E6BEE0FBA30E
:200A1E00E0FCBB0205BC00028003020AABEF235401FC90E6BCE0FB7807E4F2EC603890E663
:200A3E00A0E020E1F978217440F20874E7F28B821213A9E582700790E6A07401F02290E6BE
:200A5E00B57401F090E68AE4F090E68B7402F090E6A07480F02290E6B57401F090E68AE493
:200A7E00F090E68B7402F090E6A07480F090E6A0E020E1F9781D7440F20874E7F28B821268
:200A9E0012A4E582700675820102049522ED605790E6B9E0FCBC154F90E6BEE0FBA3E0FC93
:200ABE00BB0244BC004190E6BCE0FC7807E4F290E6A0E020E1F978307440F20874E7F28C98
:200ADE00821216CBE582700790E6A07401F02290E6B57401F090E68AE4F090E68B7402F03D
:200AFE0090E6A07480F022ED7006EE7003020BC690E6B9E0FCBC16028003020BC690E6BEBC
:200B1E00E0FBA3E0FCBB0405BC00028003020BC6EF235401FC90E6BCE0FB7807E4F2EC6074
:200B3E004490E6A0E020E1F9783E7440F20874E7F2784074022440F2E434E708F28B821216
:200B5E0018CCE582700790E6A07401F02290E6B57401F090E68AE4F090E68B7404F090E6D5
:200B7E00A07480F02290E6B57401F090E68AE4F090E68B7404F090E6A07480F090E6A0E0F4
:200B9E0020E1F978347440F20874E7F2783674022440F2E434E708F28B8212173BE58270DB
:200BBE000675820102049522ED604790E6B9E0FCBC173F90E6BEE0FBA3E0FCBB0134BC0071
:200BDE00317807E4F290E6A0E020E1F978457401F290E7401219E190E6B57401F090E68A0A
:200BFE00E4F090E68B04F090E6A003F075820402049FEE602F90E6B9E0FCBC192790E6BEAD
:200C1E00E0FBA3E0FC4B701C90E6BAE0FBA3E04B24FFE433F5827807E4F212125390E6A019
:200C3E007480F022ED7006EE7003020D2590E6B9E0FCBC1A028003020D2590E6BEE0FBA34C
:200C5E00E0FCBB0205BC00028003020D25EF235401FC90E6BCE0FB7807E4F2EC603890E6A4
:200C7E00A0E020E1F978277440F20874E7F28B82121540E582700790E6A07401F02290E6DD
:200C9E00B57401F090E68AE4F090E68B7402F090E6A07480F02290E6B57401F090E68AE451
:200CBE00F090E68B7402F090E6A07480F090E6A0E020E1F978257440F20874E7F28B82121E
:200CDE001463E5827006758201020495787674E5F208743FF208E4F278747431F208E4F2EA
:200CFE0078797404F208E4F2787B04F2787C7408F2787D74FFF2758251122188E582700618
:200D1E0075820102049522ED7006EE7003020DF390E6B9E0FEBE1B028003020DF390E6BE99
:200D3E00E0FCA3E0FEBC0205BE00028003020DF3EF235401FF90E6BCE0FE7807E4F2EF6016
:200D5E004E90E6A0E020E1F9903FC0E0FFBF3000401E78527440F20874E7F2785474012452
:200D7E0040F2E434E708F28E82121C27E582700790E6A07401F02290E6B57401F090E68ABA
:200D9E00E4F090E68B7402F090E6A07480F02290E6B57401F090E68AE4F090E68B7402F013
:200DBE0090E6A07480F090E6A0E020E1F9903FC0E0FFBF3000401790E7407850E0F290E7AF
:200DDE00417851E0F28E82121BEAE582700675820102049522ED603B90E6B9E0FFBF0F33C9
:200DFE0090E6BEE0FEA3E0FFBE0128BF00257807E4F290E6A0E020E1F990E7407401F09085
:200E1E00E6B5F090E68AE4F090E68B04F090E6A003F022ED605290E6B9E0FFBFC04A90E649
:200E3E00BCE0FF7807E4F2BF0437786674D9F208742DF2902DD97868E493F2A3E49308F2FF
:200E5E0090E0001220B77E007FE090E6B57401F090E6B3EFF090E6B4EEF090E6A07480F0A4
:200E7E002290E6A07401F02290E6A07401F022C0E0C000C0D075D00078117401F2D0D0D063
:200E9E0000D0E032903EA3E4F0A3F07811F27582041204957845E4F2903EA21219E1903E7C
:200EBE00A2E0FF781D74A3F208743EF28F820212A453B0EFC2CAC2CF32C0E0C082C08343D7
:200EDE00B010D2CA5391EF90E65F74F3F0D083D082D0E032020ED7020ED7020ED7020ED776
:200EFE00020ED7020ED790E6007412F090E67A7401F012020E12029E1203981212441215B5
:200F1E009712109E121C79122B3490E611E4F0122B3490E610E4F043B53443B00453B0CF29
:200F3E0075C801D2AD90E65EE043E0F3F0D2A8903FD1E0FCA3E0FDA3E0FEA3E0FFEC4D4E1C
:200F5E004F7003021073903FD17812E0F2A3E008F2A3E008F2A3E008F27D527816E4F2087E
:200F7E00F243B010C0051210A4D0057812E2F5F008E242F008E242F008E245F070030210D1
:200F9E00507C807812C3E2948008E2940008E2940008E2940050047812E2FC786C7400F224
:200FBE000874E0F208E4F2786FECF208E4F27816796AE2F308E209F378717401F28D8212A7
:200FDE0020E8E582700875820112049580647818ECF290E000C005C00412111CD004D00536
:200FFE008C027B007E007F007812E2C39AF208E29BF208E29EF208E29FF28C077B0078160A
:20101E00E22FF208E23BF27816E2F5F008E245F06003020F898D03EB04FDBD540280030213
:20103E000F897D517816E22400F208E23470F2020F897812E2F5F008E242F008E242F008FB
:20105E00E245F0700D121170E582700675820112049553B0EF7582011223C27807E2600326
:0D107E001205907811E260F3120EA280EED0
:202D16001201000200000040B720B19D0001010203020A06000200000008000009040000F3
:202D360000FFFFFF060904000102FFFFFF070904000102FFFFFF080904010000FFFFFF0640
:202D56000904010102FFFFFF07070502020002000705040200020007058602000200070580
:202D760088020002000902000002010480FA322D3B2D5F2D6D2D4D2D562D662D742D000007
:202D96000902000001020580FA322D442D5F2D6D2D00007B2D962D122E262E392E4D2E8930
:202DB6002EA92EB22EC72E162D282D02A92D08AD2D12034D005300460054003100300030F1
:202DD60000C00028000000000104000100000000000000000157494E555342000000000016
:202DF600000000000000000000000039393939393939393939393939393939007768697471
:202E160065717561726B20726573656172636800476C6173676F7720446562756720546FE8
:202E36006F6C0058582D585858585858585858585858585858580050697065205020617451
:202E5600207B327835313242204550324F55542F455036494E7D2C2051206174207B327879
:202E760035313242204550344F55542F455038494E7D00506970652050206174207B347837
:202E960035313242204550324F55542F455036494E7D0044697361626C656400446F7562B3
:202EB6006C652D6275666665726564203531324200517561642D6275666665726564203571
:042ED6003132420053
:20108B00E58030E30743B0087582012253B0F77582002243B50802108B122B3490E601E039
:2010AB0053E0FCF0903FC0E0FFBF10028014BF2002800FBF30028012BF3102800DBF3210C0
:2010CB00800843B50253B0FD800643B2025380FD900001122CB853B2F743B31C439010536B
:2010EB0090F7903FC0E0FFBF10028014BF2002800FBF3002800FBF3102800ABF320A80059F
:20110B0043B00280034380029004B0122CB802108B75AF0385829B85839A90E67B7818E2E2
:20112B00F8E0A2E7C2949292D294A2E6C2949292D294A2E5C2949292D294A2E4C294929294
:20114B00D294A2E3C2949292D294A2E2C2949292D294A2E1C2949292D294A2E0C2949292F6
:20116B00D294D8BD227431C29400D294D5E0F853B3E3903FC0E0FFBF10028014BF2002801C
:20118B000FBF30028014BF3102800FBF3214800A90E601E043E023F0800890E601E043E011
:2011AB0063F002108B02108BE5827819F2758210121EA8E5826019785A7401F208E4F29047
:2011CB003E1975F060121EDCE582600475820122121EC075820022AE82AF83758211121E54
:2011EB00A8E582601C7D00781A795FE2F309E4F38E828F838DF0121F63E5826004758201C7
:20120B0022121EC075820022AE82AF837D00781B795AE2F309E4F38E828F838DF0121EDCF3
:19122B00E582600E121EC0E5827003F5822275820122121EC0758200224F
:2012440074BE55B04480F5B043B5C153B07F22E582600453B07F2243B08022AF827E008F4B
:2012640005BD0102800ABF02028009BD031180087E0C800B7E0D8007781CE270027E48EEB3
:201284007003F58222EE2EFE781CE24EF582121EA8E5827007121EC0758200227582012210
:2012A400AF827E00781DE2F58208E2F583E0FCA3E0FDEF30E0027E01EF30E103430640EFD4
:2012C40030E013903FE5E0FAA3E0FBC3EA9CEB9D500475820022EF30E113903FE7E0FAA357
:2012E400E0FBC3EA9CEB9D500475820022EC4D7008EEF452B075820122C3EC9472ED9406E6
:201304004008747C9C74159D500475820022EC248EFCED34F9FD789DECF2E2F5F0EDC4C581
:20132400F0C4540F65F0C5F0540FC5F065F0F2C5F008F290010DC007C006122B59AC82ADDE
:2013440083D006D007EDC4CCC4540F6CCC540FCC6CCCFD74E0C39CFC740F9DFB781FEBF2DB
:201364007820ECF2781CE4F28F82C00612125FE582D0067003F58222785A7402F208E4F2CE
:20138400903E1F75F060121EDCE5827007121EC075820022121EC0E5827003F58222EE4211
:2013A400B075820122AF82BF01028005BF020A80047E0180087E40800475820022EE55B043
:2013C40070117821E2F58208E2F583E4F0A3F075820122781C7401F28F8212125FE582704D
:2013E40003F58222785F7402F208E4F2903E2375F060121F63E5827003F582227823E2FEF8
:201404007F007824E27C004207EC42067821E2FC08E2FDEEC4CFC4540F6FCF540FCF6FCF1E
:20142400FE789D74FFC39FF2E49E08F2900098C005C004122B597857740AF208E4F2121EBE
:201444001BE5828583F0D004D0052472FE740635F0FF8C828D83EEF0EFA3F075820122AFEC
:20146400827825E2FD08E2FE8D828E83E0FBA3E0FC4B6015C3EB9472EC94064008747C9B3B
:2014840074159C500475820022750ADA750B2E850A82850B83E493FA700302153CEA5F709B
:2014A4000302152E782174A5F208743EF28A82C007C006C005C004C0031213A9E582D003A3
:2014C400D004D005D006D0077003F58222C007903EA5E0FAA3E0FFC3EB9AEC9FD0075030E6
:2014E400850A82850B83E493FA781DEDF208EEF28A82C007C006C005C004C0031212A4E565
:2015040082D003D004D005D006D0077003F58222850A82850B83A3E49325E0FA24E5F58253
:20152400E4343FF583EBF0ECA3F07402250AF50AE4350BF50B02149375820122AF827EDA6A
:201544007D2E8E038D048B828C83E493FA6040EFB5022F7827E2F52108E2F5228E828D8300
:20156400A3E49325E024E5F582E4343FF583E0FDA3E0FE852182852283EDF0EEA3F07582F4
:13158400012274022BFBE43CFC8B068C0580B77582002207
:062EDA00010002010000EE
:2015970090E670E043E001F05388FE22A982E3FE7F0009E37C004207EC4206789DEFF2E217
:2015B700F5F0EEC4C5F0C4540F65F0C5F0540FC5F065F0F2C5F008F2900103122B59785790
:2015D700740AF208E4F2021E1BAE82AF83789DEEF208EFF290000A122B5978577403F208BB
:2015F7007401F2121E1BAE82E583C454F0CEC4CE6ECE54F0CE6EFF7829E2F9EFF309EEF31F
:2016170022E5822582FFF582121EA8E5826048785A7401F208E4F2903E2A75F060121EDC46
:20163700E5826033EF3395E0FE4307018F82121EA8E5826022782BE2FD7E007F60782C79EB
:201657005FE2F309E4F38D828E838FF0121F63E582600475820122121EC075820022E582D7
:20167700FF25E0F582121EA8E5826041785A7401F208E4F2903E2D75F060121EDCE582604E
:201697002C782EE2FD7E007F60782F795AE2F309E4F38D828E838FF0121EDCE582600E1264
:2016B7001EC0E5827003F5822275820122121EC075820022AF827DE07E2E8D038E048B8236
:2016D7008C83E493FA6059EFB502488D828E83A3E493FA782B7432F2782AE4F2782C7402CB
:2016F700F28A82121618E5827003F582227830E2F50C08E2F50D7582321215A385820E851E
:20171700830F850C82850D83E50EF0E50FA3F07582012274022BFBE43CFC8B058C06809E7C
:2017370075820022AF827838E4F27839F2783A740FF2783BF4F2783C7403F2783DE4F2783F
:2017570034E2F58208E2F583E0FDA3E0FEC3747C9D74159E401D7836E2FB08E2FC8B828C47
:2017770083E0F510A3E0F511C3747C951074159511500475820022ED4E700C747CB51007FA
:201797007415B51102803778297438F28D828E83C007C004C0031215E0D003D0048B828C36
:2017B70083E0FBA3E0FC7829743AF28B828C831215E0D007783D7414F2783D74D4F27DE07F
:2017D7007E2E8D828E83E493FC70030218C8EC5F70030218BE74012DFBE43EFC8B828C83F1
:2017F700E493FA782E7438F2782D7403F2782F14F28A82C007C006C005C004C003121675E0
:20181700E582D003D004D005D006D0077003F582228B828C83E493FA782E743AF2782D7429
:2018370004F2782F03F28A82C007C006C005C004C003121675E582D003D004D005D006D0F4
:20185700077003F582228B828C83E493FA782E743CF2782D7401F2782FF28A82C007C0064B
:20187700C005C004C003121675E582D003D004D005D006D0077003F582228B828C83E49339
:20189700FB782E743DF2782D7402F2782F14F28B82C007C006C005121675E582D005D00625
:2018B700D0077003F5822274022DFDE43EFE0217D975820122AF827DE07E2E8D038E048B7B
:2018D700828C83E493FA70030219D1EFB5020280030219C374012DF512E43EF5138512829B
:2018F700851383E493FD782B7444F2782A7402F2782C14F28D82121618E5827003F582227F
:201917007844E27021783EE2F58208E2F583E4F0A3F07840E2F58208E2F583747CF07415CD
:20193700A3F075820122851282851383E493FD782B7442F2782A7403F2782C14F28D82121A
:201957001618E5827003F58222783EE2F51408E2F5157582421215A3AA82AE83851482853A
:201977001583EAF0EEA3F0851282851383E493FE782B7442F2782A7404F2782C03F28E82B4
:20199700121618E5827003F582227840E2F51408E2F5157582421215A3AA82AE838514826B
:2019B700851583EAF0EEA3F07582012274022BFBE43CFC8B058C060218D675820022E58036
:2019D7005401B40100E433F58222AF83E5827846F208EFF27846E2F58208E2F583E4F07C3B
:2019F700E07D2E8C828D83E4937003021B0674012CFAE43DFB8A828B83E493FF782B744874
:201A1700F2782A7401F2782CF28F82C005C004C003C002121618E582D002D003D004D0050A
:201A37007003F582227848E27003021AFC7849E4F27846E2F58208E2F583E0FF8C828D8349
:201A5700E49342077846E2F58208E2F583EFF08A828B83E493FF782B7449F2782A7402F26B
:201A7700782C14F28F82C005C004C003C002121618E582D002D003D004D0057003F5822285
:201A97007845E260308A828B83E493FA782E7448F2782D7401F2782FF28A82C005C00412D5
:201AB7001675E582D004D0057003F582227849E24404F280067849E254FBF28C828D83A360
:201AD700E493FF782E7449F2782D7402F2782F14F28F82C005C004121675E582D004D00523
:131AF7007003F5822274022CFCE43DFD0219FA75820122E5
:062EE00001540255000040
:201B0A00AF827E008F05BD01028005BF020880047E2080027E21EE7003F58222EE2EFE789B
:201B2A004AE24EF582121EA8E5827003F5822275820122AF82784AE4F28F82121B0AE582CD
:201B4A006038785A7401F208E4F2903E4B75F060121EDCE5826023785A7401F208E4F29051
:201B6A003E4C75F060121EDCE582600E121EC0E5827003F5822275820122121EC0758200C7
:201B8A0022AF82784AE4F28F82C007121B0AE582D0076045785A7401F208E4F2903E4D75B7
:201BAA00F060121EDCE5826030784A7401F28F82121B0AE5826022784EE2FD08E2FE7F0062
:201BCA00785F7401F208E4F28D828E838FF0121F63E582600475820122121EC075820022BE
:201BEA00AF82784B7401F27851794CE2F38F82C007121B3DE582D0077003F582227850E2E7
:201C0A00F4F2784B7403F27850794CE2F38F82121B3DE5827003F5822275820122AF827895
:201C2A004D7401F27854794EE2F308E209F38F82C007121B8BE582D0077003F58222784DF9
:201C4A007403F27852794EE2F308E209F38F82121B8BE5827003F582227852E2FE08E2FFF6
:0F1C6A008E828F83E0F48E828F83F07582012249
:201C7900122B3490E60B7403F0122B3490E6017480F0122B3490E6047480F0122B3490E670
:201C990009E4F0122B3490E6027498F0122B3490E60374FEF0122B3490E670E043E080F053
:201CB900122B3490E618E053E0FEF0122B3490E619E053E0FEF0122B3490E61AE053E0FEF8
:201CD900F0122B3490E61BE053E0FEF022E582FF60067E007D0080047E027D80122B34900D
:201CF900E6047480F0122B3490E61274A04EF0122B3490E61374204DF0122B3490E6147478
:201D1900E04EF0122B3490E61574604DF0EF60067D017E0080047D037E007856EDF28F82EE
:201D3900121D45122B3490E604E4F022AF827856E25401606D122B3490E618E4F0122B34EE
:201D590090E604E0FE7D0043060290E604EEF0122B3490E6497482F0122B3490E6497482B6
:201D7900F0EF6012122B3490E6497482F0122B3490E6497482F0122B3490E6187410F01248
:201D99002B3490E61AE4F0122B3490E604E0FF7E0043070690E604EFF0122B3490E61A7401
:201DB90004F07856E254026058122B3490E619E4F0122B3490E604E0FF7E0043070490E678
:201DD90004EFF0122B3490E6497484F0122B3490E6497484F0122B3490E6197410F0122B26
:201DF9003490E61BE4F0122B3490E604E0FF7E0043070890E604EFF0122B3490E61B7404C4
:021E1900F022B5
:201E1B00AE82AF837C007D007B10EF235401FAEE2EFEEF33FFEC2CFCED33FDEA6003430460
:201E3B00017857C3E2F5F0EC95F008E2F5F0ED95F040117857D3E29CF4B3FCB308E29DF439
:0E1E5B00FD430601EB14FB70C18E828F8322C3
:201E6900C007C000AF8290E678E020E00E7859E260F47859E4F2758200801F90E678E03083
:201E8900E2057582008013EF600D90E678E0FFA2E1E433F5828003758201D000D00722C08A
:201EA90007AF8290E6787480F090E679EFF0758201121E69D0072290E678E030E2047582DC
:201EC900002290E6787440F090E678E020E6F975820122C007C006C004C003C002C000AF19
:201EE900F0AE83E582785CF208EEF208EFF2785AE2F5F008E245F07005758201804F7B004B
:201F09007C00785AE2B5030708E2B50402802B785CE22BFA08E23CFE08E2FF8A828E838FE5
:201F2900F0122CEDFA90E679F0758201121E69E58260070BBB00CB0C80C8785AE2B50308EC
:201F490008E2B50403D38001C3E433F582D000D002D003D004D006D00722C007C006C005C3
:201F6900C004C003C002C001C000AFF0AE83E5827861F208EEF208EFF2785FE2F5F008E233
:201F890045F070067582010220A6785FE2B4010408E26002800690E6787420F090E679E048
:201FA9007B007C007864E4F208F27864795FE2F5F0E3B5F00C08E2F5F009E3B5F0030220E1
:201FC90080758200121E69E58270030220937864E22402FD08E23400FE785FE2B5050708DA
:201FE900E2B506028002800690E6787420F07864E22401FD08E23400FE785FE2B505070841
:20200900E2B506028002803575AF03759AE6759B7890E67B7440F0E0ACE078617964E3C5DE
:20202900F0E225F0FD09E3C5F008E235F0FE08E2FF8D828E838FF0EC122B3D802578617920
:2020490064E3C5F0E225F0FD09E3C5F008E235F0FE08E2FF90E679E0FA8D828E838FF01276
:202069002B3D7864E22401F208E23400F27864E2FB08E2FC021FB390E678E030E2057582BB
:2020890000801A90E678E020E6F9785FE2B5030808E2B50403D38001C3E433F582D000D06C
:0E20A90001D002D003D004D005D006D007220B
:2020B700AA82AB837866E2FC08E2FD7868E2FE08E2FFEE60010FEF601775AF078A9B8B9A2A
:1120D7008C9E8D9D90E67CE090E67BF0DEF6DFF42228
:2020E800C007C006C005C001C000AF827871E26012786BE2FE7872EEF2786AE2FE7873EE6F
:20210800F28008786AE2FE7872EEF2EF2FFFF582121EA8E58260587871E2FDE23395E0FED6
:20212800785A74012DF2E43E08F2903E7275F060121EDCE5826038EF3395E0FE4307018F96
:2021480082121EA8E5826027786F795FE2F308E209F3786CE2F58208E2F58308E2F5F01235
:202168001F63E5827004F582800B7582018006121EC0758200D000D001D005D006D007224E
:20218800C007C006C005C004C003C002C001C000AF82787EE4F208F2EF2FFFF582121EA8B8
:2021A800E582700302233D787CE2FC8CF005F07B017C008006EB2BFBEC33FCD5F0F7787E3C
:2021C8007979C3E3F5F0E295F009E3F5F008E295F0400302233D787BE260127875E2FA78A6
:2021E80080EAF27874E2FA7881EAF280087874E2FA7880EAF2C003C004787BE2FAE23395BA
:20220800E0FC785A74012AF2E43C08F2903E8075F060121EDCE582D004D003700302233D5B
:20222800C0078B028C07789FEAF208EFF27874E2F58208E2F583C007C004C003C002C0015B
:20224800C000122B7DAD82AE83D000D001D002D003D004D0077882EAC39DF2EF9E08F27876
:2022680079797EE3F5F0C3E295F0FE09E3F5F008E295F0FF7882C3E2F5F0EE95F008E2F5E1
:20228800F0EF95F0D00750207879797EE3F5F0C3E295F0C0E009E3F5F008E295F0C0E078B9
:2022A80083D0E0F218D0E0F27876797EE3C5F0E225F0FA09E3C5F008E235F0FD08E2FE78BC
:2022C80082795AE2F308E209F38A828D838EF0121EDCE582605F121EC0E5827004F5828058
:2022E800737E00787DE2600B787DC3E2F5F0EE95F0500C8F82121EA8E58270030E80E478A8
:202308007DE2B50605758200804A78747982E3C5F0E225F0F209E3C5F008E235F0F2787ED5
:202328007982E3C5F0E225F0F209E3C5F008E235F0F20221C6121EC0787E7979E2F5F0E30C
:20234800B5F00C08E2F5F009E3B5F003D38001C3E433F582D000D001D002D003D004D005CD
:05236800D006D00722A1
:06009800E478FFF6D8FD3C
:01236D00323D
:20236E00AFF0AE83E5827887F208EEF208EFF27887E2FA08E2FB08E2FC7885E2F52108E2D1
:20238E00F522AE21AF22152174FFB521021522EE4F60138A828B838CF07884E2122B3DA37F
:1423AE00AA82AB8380DC7887E2F58208E2F58308E2F5F022BA
:2023C200AF82788BE4F2788CF2D2E890E668E043E008F090E65CE043E001F090E65D74015A
:2023E200F0D2AF90E680E020E10890E680E043E002F0EF600E90E680E043E008F090000AB8
:20240200122CC290E680E053E0F7F022AF82BF00028037BF01028036BF02028039BF040246
:202422008038BF06028037BF08028036BF80028019BF8102801CBF8202801BBF8402801A70
:20244200BF86028019BF881E801890E6A02290E6A12290E6A22290E6A32290E6A42290E605
:20246200A52290E6A62290000022C020C0E0C0F0C082C083C007C006C005C004C003C00253
:20248200C001C000C0D075D000C08675860090E6B8E0FFE4BF800104FE601B90E6B9E0FDE9
:2024A200BD061390E6BAE0FCA3E0F5827800ECF21201BE0226EAEF702790E6B9E0FDBD09AD
:2024C2001F90E6BAE0F5821204CCE582600990E6A07480F00226EA90E6A07401F00226EA09
:2024E200EE600E90E6B9E0FDBD0806122C180226EA8F05BD012F90E6B9E0FDBD0B2790E64D
:20250200BCE0FD90E6BA780AE0F28D82120515E582600990E6A07480F00226EA90E6A074FB
:2025220001F00226EAE4BF810104FD601490E6B9E0FCBC0A0C90E6BCE0F5821205700226E7
:20254200EAEF703790E6B9E0FCBC032F90E6BAE0FBA3E0FCBB0110BC000D788B7401F290E7
:20256200E6A003F00226EABB0205BC000280030226EA90E6A07480F00226EAEE603590E6B4
:20258200B9E0702F788AE2FE788BE225E0FC420690E740EEF090E741E4F090E6B504F09021
:2025A200E68AE4F090E68B7402F090E6A07480F00226EAED602890E6B9E0702290E740E4B1
:2025C200F090E741F090E6B504F090E68AE4F090E68B7402F090E6A07480F00226EABF023A
:2025E20002800302269590E6B9E0FEBE03028008BE0102800302269590E6BAE0FDA3E0FEB0
:202602004D60030226EA90E6BCE0F58212240EAD82AE83ED4E70030226EA90E6B9E0FCBC42
:2026220003188D828E83E0FC4304018D828E83ECF090E6A07480F00226EA90E6BCE0F582A8
:20264200C006C005122C06E582D005D00670030226EA8D828E83E0FC5304FE8D828E83ECB5
:20266200F090E6BCE0FDA3E0740F5DFB7C00530580E4C423CDC423541F6DCD541FCD6DCD01
:20268200FEED4203EE420490E683EBF0E043E020F08055BF824C90E6B9E0704690E6BCE0B4
:2026A200F58212240EAE82AF83EE4F603B8E828F83E0FE5306017F00EE4FB40100B3E4338E
:2026C200FF90E740F090E741E4F090E6B504F090E68AE4F090E68B7402F090E6A07480F072
:2026E200800690E6B81204BA5391EF90E65D7401F0D086D0D0D000D001D002D003D004D069
:2027020005D006D007D083D082D0F0D0E0D02032AE82AF837891E2B4012C7892E270278E8F
:20272200828F83E493FCA3E493FD7866ECF208EDF28C828D83E4937868F208E4F290E00021
:202742001220B702299B7891E2B4063C7892E270378E828F83A3A3E493FCA3E493FD4C70A6
:202762000790E6A07401F0228C028D037866EAF208EBF28C828D83E4937868F208E4F29021
:20278200E0001220B702299B7891E2B4020280030228B98E828F83A3A3A3A3E493FD789273
:2027A200C3E29D40030228B98E828F83A3A3A3A3A3E493FCA3E493FD7892E275F002A42CB1
:2027C200F582ED35F0F583E493FCA3E493FD74092CFAE43DFB7893EAF208EBF2087480F2F3
:2027E2008C028D037866EAF208EBF28C828D83E4937868F208E4F290E000C005C0041220AA
:20280200B7D004D0058C828D83E4932400FCE434E0FD7893E2F51608E2F51708E2F5188C3B
:20282200198D1A8516828517838518F0122CEDFAA3122CEDFB7866EAF208EBF28A828B8366
:20284200E4937868F208E4F2851982851A83C005C0041220B7D004D0058516828517838531
:2028620018F0122CEDFAA3122CEDFB8A828B83E4932CFCE43DFD74022516F516E43517F5A8
:20288200178516828517838518F0122CEDFAA3122CED4A708A90E002E0FAA3E0FB4A6003A8
:2028A20002299BECC39400FCED94E0FD90E002ECF0EDA3F002299B7891E2B4030474018084
:2028C20001E4FD60227892E2701D786674E6F208742EF2902EE6E4937868F208E4F290E018
:2028E200001220B702299BED70030229947892E2FC7D0024FFFAED34FFFB74072EF582E467
:202902003FF583C006C007E493FF7E00C3EA9FEB64808EF063F08095F0D007D006507374A8
:20292200082EF582E43FF583E493FEA3E493FF1CBCFF011DEC2CFCED33FDEC2EF582ED3FDC
:20294200F583E493FEA3E493FF90E0007402F090E00104F074012401FCE434E0FD8E828F0A
:2029620083E493FB60330EBE00010F8C828D83EBF074012CFAE43DFB8A828B83E4F0042A25
:20298200FCE43BFD90E000E0FB0B0B90E000EBF080CB90E6A07401F0227E007FE090E6B581
:2029A2007401F090E6B3EFF090E6B4EEF090E6A07480F022AE82AF83A3A3A3A3A3E493FC80
:2029C200A3E493FD74042EFEE43FFF7898E4F28E828F83E493FA7898C3E29A400122C00627
:2029E200C0077898E275F002A42CF582ED35F0F583E493FBA3E493FA74092BFEE43AFF7823
:202A020099EEF208EFF2087480F27F008B828A83A3A3A3A3A3E493FE788CE2B506028007FD
:202A2200D007D006022B28D007D0067899E2F52108E2F52208E2F523C004C00585218285A3
:202A420022838523F0122CEDFAA3122CEDFD8A828D83A3E493F5247404B524028006D0054A
:202A6200D0048047D005D0048521828522838523F0122CEDF525A3122CEDF5268525828547
:202A82002683A3A3E493FA7896E2B50214852582852683A3A3A3E493FA7897E2B50202803B
:202AA200047A0080027A018A0780587405B52453EF6050C004C0058521828522838523F079
:202AC200122CEDFAA3122CEDFD8A828D83A3A3E493FD740F5DFA7B00530580E423CDC42346
:202AE200541F6DCD541FCD6DCD30E40244E0FCED4202EC420390E683EAF0E043E020F0D05F
:202B020005D00474022521F521E43522F5228521828522838523F0122CEDFAA3122CEDFBDE
:0F2B22004A6003022A3A7898E22401F20229D18C
:042EE60004030904D4
:012B31003271
:200076007900E94400601B7A00902EEA78A775923EE493F2A308B800020592D9F4DAF27550
:0200960092FFD7
:012B32003270
:012B3300326F
:0301000002246C6A
:03010400022CEAE0
:03010800022C04C2
:03010C00022CE6DC
:03011000022CECD2
:03011400022D10A9
:03011800022C01B5
:03011C000201B825
:03012000020EF2DA
:03012400020EF5D3
:03012800022C1591
:03012C00022D0F92
:03013000020EF8C4
:03013400020EFBBD
:03013800020EFEB6
:03013C00020F01AE
:03014000022C127C
:030144000201B8FD
:03014800022D097C
:03014C00022D0A77
:03015000022D0B72
:03015400022D0C6D
:03015800022D0D68
:03015C00022D0E63
:03016000022CEB83
:030164000201B8DD
:030168000201B8D9
:03016C000201B8D5
:03017000022C144A
:03017400022C1644
:03017800022C3521
:03017C00022C371B
:03018000022C1737
:03018400022C3614
:03018800022C380E
:03018C00022CE75B
:03019000022B7CC3
:03019400022C0238
:03019800022C0531
:03019C00022C1121
:0301A000022C002E
:0301A400022C0327
:0301A800022C1016
:0301AC00022C130F
:0301B000022B7AA5
:0301B400022D1504
:0101B8003214
:092B340000000000000000002276
:1B2B3D0020F71130F6138883A88220F509F6A8837583002280FEF280F5F02297
:012B5800324A
:202B5900AA83AB828BF0903E9DE0A4F8A9F08AF0E0A429F98BF0A3E0A429F5838882222256
:012B79003229
:012B7A003228
:012B7B003227
:012B7C003226
:202B7D00AE82AF837D007C0078A0E2235401FB7035789FE225E0F208E233F2789FC3E2F51B
:202B9D00F0EE95F008E2F5F0EF95F05014789FE2F5F008E2C313C5F01318F2C5F008F2806F
:202BBD00050C8C0580C2789FC3E2F5F0EE95F008E2F5F0EF95F0400E789FD3E29EF4B3FE60
:202BDD00B308E29FF4FF789FE2F5F008E2C313C5F01318F2C5F008F28D041DEC70C88E82A8
:032BFD008F8322A1
:012C000032A1
:20009E0078A1E84400600A790075923EE4F309D8FC7806E84400600C7901903EA1E4F0A3AB
:0400BE00D8FCD9FA97
:012C010032A0
:012C0200329F
:012C0300329E
:012C0400329D
:012C0500329C
:0A2C060090E6A07480F075820122B0
:012C10003291
:012C11003290
:012C1200328F
:012C1300328E
:012C1400328D
:012C1500328C
:012C1600328B
:012C1700328A
:1D2C180090E740788CE2F090E6B57401F090E68AE4F090E68B04F090E6A003F0228E
:012C3500326C
:012C3600326B
:012C3700326A
:012C38003269
:202C3900E583700BE58224FA400122B4001122E5826003D5E0FD0075E0FED583F674F9D56A
:202C5900E0FD22C007C006C001C000AE82AF83EE2EF8EF33F9EE28FEEF39FF90E600E0F834
:202C7900794C20E416C3EF13CE13CEFF795AE820E309C3EF13CE13CEFF7963E58124FAF857
:202C9900E926C313C313F9C3EE99F582EF9400F583D000D001D006D007500122022C39740F
:202CB90011C0E0122C5C158122C007C006AE82AF837411C0E0EE4F600D1EBEFF011F9003AC
:0D2CD900E8122C5C80EF1581D006D0072298
:012CE60032BB
:012CE70032BA
:012CE80032B9
:012CE90032B8
:012CEA0032B7
:012CEB0032B6
:012CEC0032B5
:0D006900758126122D11E5826003020066EC
:1C2CED0020F71430F6148883A88220F507E6A88375830022E280F7E49322E022F6
:012D09003297
:012D0A003296
:012D0B003295
:012D0C003294
:012D0D003293
:012D0E003292
:012D0F003291
:012D10003290
:042D110075820022A5
:012D1500328B
:00000001FF
