:060000000201CF020EB662
:03000B000232902E
:030013000232694D
:03001B000232B1FD
:0300230002356241
:03002B00020F0BB6
:030033000233F69F
:03003B0002356328
:03004300020100B7
:03004B00022AD1B5
:03005300020100A7
:03005B0002326A04
:0300630002326BFB
:100068000000E2FBEAF2802C0000E0FBEAF08024CA
:10007800E6B50202EBF62200E2B50202EBF222003C
:10008800E0B50202EBF02230F6E0A88220F5D3EAD0
:10009800C6F582228B822230F6E6A88220F5D98026
:1000A800CF020F44C000A88118C0D0B6001B18B6F4
:1000B80068004015B68F005010C0E0E65407B4063B
:0E00C800005004E654F8F6D0E0D0D0D000325C
:03010000022BD7F8
:030104000235645D
:0301080002347E40
:03010C0002356059
:030110000235664F
:0301140002358A27
:0301180002347B33
:03011C000201B825
:03012000020F3299
:03012400020F3592
:0301280002348F0F
:03012C0002358910
:03013000020F3883
:03013400020F3B7C
:03013800020F3E75
:03013C00020F416E
:0301400002348CFA
:030144000201B8FD
:03014800023583FA
:03014C00023584F5
:03015000023585F0
:03015400023586EB
:03015800023587E6
:03015C00023588E1
:0301600002356500
:030164000201B8DD
:030168000201B8D9
:03016C000201B8D5
:0301700002348EC8
:03017400023490C2
:030178000234AF9F
:03017C000234B199
:03018000023491B5
:030184000234B092
:030188000234B28C
:03018C00023561D8
:030190000233F740
:0301940002347CB6
:0301980002347FAF
:03019C0002348B9F
:0301A00002347AAC
:0301A40002347DA5
:0301A80002348A94
:0301AC0002348D8D
:0301B0000232B266
:0301B40002358B86
:0101B8003214
:1001CF0075813912358CE58260030200A97900E947
:1001DF004400601B7A0090372C78C975923EE493E7
:1001EF00F2A308B800020592D9F4DAF27592FFE48F
:1001FF0078FFF6D8FD78BFE84400600A7900759261
:10020F003EE4F309D8FC780AE84400600C790190C9
:10021F003EBFE4F0A3D8FCD9FAC2000200A9AF8216
:10022F00BF033B7800E2B4EE35787F745EF274362C
:10023F0008F290365EE4937881F2E408F290E000E1
:10024F001228377D007EE090E6B57401F090E6B39A
:10025F00EEF090E6B4EDF090E6A07480F02278A670
:10026F00EFF2780079A7E2F3903654022E7F78856B
:10027F007401F2E408F2746008F27883E4F208F291
:10028F00788804F2E408F2788A04F2758251122811
:10029F0068E58260407801E2B4FF0280387801E2BD
:1002AF00B4C201227801E2B4C02B788574C0F27415
:1002BF003F08F2E408F27883740CF2E408F27888CD
:1002CF007440F2E408F2788A04F2758251122868B9
:1002DF00E582600122903FC074F9F0787F74A2F23A
:1002EF00743608F278817410F2E408F2903FC1126C
:1002FF002837903FD1E4F0A3F0A3F0A3F022AF8210
:10030F001FC2D575F002EF30E704B2D5F404A43064
:10031F00D50AF42401C5F0F43400C5F0244EF5825B
:10032F00743635F0F583E493FEA3E4938E82F58360
:10033F0022903FC0E0FFBFF9028014903FC0E0FF62
:10034F007E0043060490359CEFF0EEA3F0801490EE
:10035F00359874B4F07404A3F090359A7413F07454
:10036F0086A3F0903FE9E0602190359EE493F582FB
:10037F0012030D787F742924C0F2E4343F08F27819
:10038F00817416F2E408F2122837903FFFE030E054
:10039F001E90359FE493F58212030D787F74B3F2AC
:1003AF00743608F278817407F2E408F21228379055
:1003BF0035A0E493F58212030DAE82AF83903FC058
:1003CF00E0C4540F24408E828F83F074012EFCE41E
:1003DF003FFD903FC0E0FB740F5B24308C828D8318
:1003EF00F08E828F83A3A3A3787F740124C0F2E4DD
:1003FF00343F08F278817410F2E408F202283720B3
:10040F00000C7802E254056003D2B522C2B522AFC8
:10041F00827802E24FF202040EAF827802E25F604E
:10042F000FEFF4FF7802E25FF212040E75820122E1
:10043F007582002230010A90E6A07401F07481F0F9
:10044F0022D20122AF82BF00028026BF01028005A7
:10045F00BF021A800C758200C0071223C7D0078015
:10046F0010758201C0071223C7D007800475820060
:10047F002278A5EFF27803E4F27804F27805F278A7
:10048F0006F27819F275820F1212DD78A874FFF256
:10049F0078A9F290365412310D75820122AF82780D
:1004AF00A5E2B40102800878A5E2B4022C8013788B
:1004BF0008E4F28FF005F004800225E0D5F0FBFE92
:1004CF00801B78087401F2EF2FF5F005F0740180AE
:1004DF000225E0D5F0FBFE8004758200227819E436
:1004EF00F28E82C007C0061212DDE582D006D00759
:1004FF007003F582227869EEF27808E2F582C00780
:10050F00C006122422D006D0077807E2B40115786E
:10051F0019EEF2758200C0071212DDE582D0077066
:10052F0003F58222EF2403F87907E3F278A8EFF2BC
:10053F00780779A9E2F390365412310D75820122B2
:10054F00E5822403F9E390E740F090E6B57401F0FB
:10055F0090E68AE4F090E68B04F090E6A003F02298
:10056F0090E6B8E0FF235401F508BFC0028008BF32
:10057F0040028003020EAAE508701190E6B9E0FF71
:10058F00BFB009C20190E6A07480F02290E6B9E0F6
:10059F00FFE4BFA90104FE7008BF10028003020729
:1005AF004A7F0090E6BA780BE0F2A3E008F290E6FB
:1005BF00BE780DE0F2A3E008F2EE60057F5102066F
:1005CF005190E6BCE0FDA3E0FEC374039DE49E40A2
:1005DF0071ED2D9005E67380068008800A800C7FF0
:1005EF0051805F7F52805B7F538057780BE2FD080D
:1005FF00E2FEC3E49D74109E4048C005C006780D0E
:10060F00E2FA08E2FEC3E49A74109ED006D00540C9
:10061F0031C005C006780B790DE3C5F0E225F0FA7D
:10062F0009E3C5F008E235F0FEC3E49A74109ED0DA
:10063F0006D005400D7F5174702EFE780BEDF2EE53
:10064F0008F2C201EF7003020EAA780DE2F5F0086E
:10065F00E245F0700122780DE2FA08E2FDC3EA9458
:10066F0040ED940040027A40E508604D90E6A0E02E
:10067F0020E1F978857440F274E708F2E408F27823
:10068F0088EAF2E408F2780B7983E2F308E209F3DF
:10069F00788A7401F28F82122868E5827003020E45
:1006AF00AA90E6B57401F090E68AE4F090E68BEA42
:1006BF00F090E6A07480F0805490E6B57401F0904D
:1006CF00E68AE4F090E68BF090E6A07480F090E676
:1006DF00A0E020E1F9788F7440F274E708F2E408A3
:1006EF00F27892EAF2E408F2780B798DE2F308E2FD
:1006FF0009F378947401F278957406F2789674FF82
:10070F00F28F821228F8E5827003020EAA780DE2AA
:10071F00FE08E2FD7C00EEC39AFEED9CFD780DEE27
:10072F00F2ED08F2780BE2FB08E2FEEA2BFAEC3E60
:10073F00FC780BEAF2EC08F2020659BF13028003B1
:10074F000207D490E6BAE0FE90E6BEE0FCA3E0FD1F
:10075F00C2018E82C005C00412124CE582D004D0B3
:10076F00057003020EAAE508603590E6A0E020E1CF
:10077F00F98C067817EEF290E740C00612127BE56F
:10078F0082D0067003020EAA90E6B57401F090E6CF
:10079F008AE4F090E68BEEF090E6A07480F0229061
:1007AF00E6B57401F090E68AE4F090E68BF090E6FF
:1007BF00A07480F090E6A0E020E1F97818ECF290B8
:1007CF00E7400212ACE508604BBF124890E6BEE06E
:1007DF00FDA3E0FEBD013DBE003AC20190E6A0E0E0
:1007EF0020E1F912111FE58260027402FE7802E225
:1007FF00FDEE420590E740EDF090E6B57401F09004
:10080F00E68AE4F090E68B04F090E6A003F07582A0
:10081F0001020428E5086003020901BF11028003E9
:10082F0002090190E6BCE0FDA3E0FE4D6023C00786
:10083F007809E2FB08E2FC0BBB00010C8D028E076E
:10084F00EAB50306EFB504028005D007020901D00F
:10085F00078E0790E6BEE0FBA3E0FCC201ED4F70F0
:10086F0027789DE4F2789E7410F2E408F2903FD559
:10087F00F5F0C007C005C004C003122AD21211340C
:10088F00D003D004D005D007EB4C605E8B028C06F2
:10089F00C3EA9440EE940040027A4090E6B57401AA
:1008AF00F090E68AE4F090E68BF090E6A07480F08A
:1008BF0090E6A0E020E1F97815EAF290E740C00752
:1008CF00C005C004C003C0021211ADD002D003D0C6
:1008DF0004D005D0078B098C0A7E00E509C39AFA6C
:1008EF00E50A9EFE8A038E04809E7809EDF2EF08DA
:1008FF00F222BF1802800302099790E6BEE0FDA323
:10090F00E0FEBD1005BE00028002807CC201E5083A
:10091F00603990E6A0E020E1F9787F741524C0F2E9
:10092F00E4343F08F278817410F2E408F290E74063
:10093F0012283790E6B57401F090E68AE4F090E65D
:10094F008B7410F090E6A07480F022121201E582F1
:10095F007003020EAA90E6B57401F090E68AE4F0F7
:10096F0090E68BF090E6A07480F090E6A0E020E196
:10097F00F9787F7440F274E708F278817410F2E42A
:10098F0008F2903FD5022837BF14028003020A27CE
:10099F0090E6BEE0FDA3E0FEBD0205BE00028002B0
:1009AF00807690E6BCE0FEC201E508603490E6A0D8
:1009BF00E020E1F9781F7440F274E708F28E82129A
:1009CF0014D6E5827003020EAA90E6B57401F0907A
:1009DF00E68AE4F090E68B7402F090E6A07480F063
:1009EF002290E6B57401F090E68AE4F090E68B74FD
:1009FF0002F090E6A07480F090E6A0E020E1F97894
:100A0F001B7440F274E708F28E821213B2E5827003
:100A1F000675820102041E22E5086069BF15669003
:100A2F00E6BEE0FDA3E0FEBD025BBE005890E6BC53
:100A3F00E0FEC20190E6A0E020E1F9903FC0E0FDAA
:100A4F00BD3200401278427440F274E708F28E8291
:100A5F00121CC2AD82801078287440F274E708F23D
:100A6F008E8212174EAD82ED7003020EAA90E6B57C
:100A7F007401F090E68AE4F090E68B7402F090E651
:100A8F00A07480F022BF16028003020B8F90E6BE87
:100A9F00E0FDA3E0FEBD0405BE00028003020B8F44
:100AAF0090E6BCE0FEC201E508606990E6A0E02098
:100ABF00E1F9903FC0E0FDBD3200401E784F744019
:100ACF00F274E708F2785174022440F2E434E70834
:100ADF00F28E82121ED1AD82801C78367440F27471
:100AEF00E708F2783874022440F2E434E708F28E13
:100AFF0082121959AD82ED7003020EAA90E6B574F9
:100B0F0001F090E68AE4F090E68B7404F090E6A092
:100B1F007480F02290E6B57401F090E68AE4F090CC
:100B2F00E68B7404F090E6A07480F090E6A0E020CD
:100B3F00E1F9903FC0E0FDBD3200401E78467440A1
:100B4F00F274E708F2784874022440F2E434E708BC
:100B5F00F28E82121D35AD82801C782C7440F27497
:100B6F00E708F2782E74022440F2E434E708F28E9C
:100B7F00821217BEAD82ED700675820102041E222D
:100B8F00E5086065BF176290E6BEE0FDA3E0FEBD1D
:100B9F000157BE0054C2017E0190E6A0E020E1F9AA
:100BAF00903FC0E0FDBD3200401178587401F290C3
:100BBF00E740C00612205ED006800D783D7401F22A
:100BCF0090E740121A6CAE82EE7003020EAA90E606
:100BDF00B57401F090E68AE4F090E68B04F090E6AD
:100BEF00A003F0758204020428E5087027BF1924BA
:100BFF0090E6BEE0FDA3E04D701A90E6BAE0FDA3CB
:100C0F00E04D24FFE433F582C20112135590E6A0A4
:100C1F007480F022BF1A028003020CEE90E6BEE051
:100C2F00FDA3E0FEBD0205BE00028003020CEE90A4
:100C3F00E6BCE0FEC201E508603490E6A0E020E1EA
:100C4F00F978257440F274E708F28E8212167EE569
:100C5F00827003020EAA90E6B57401F090E68AE462
:100C6F00F090E68B7402F090E6A07480F02290E68C
:100C7F00B57401F090E68AE4F090E68B7402F09080
:100C8F00E6A07480F090E6A0E020E1F978237440AC
:100C9F00F274E708F28E82121594E582700675825F
:100CAF000102041E788F74E5F2743F08F2E408F233
:100CBF00788D7431F2E408F278927404F2E408F259
:100CCF00789404F278957408F2789674FFF275822E
:100CDF00511228F8E582700675820102041E22BFA8
:100CEF001B028003020DA790E6BEE0FDA3E0FEBD50
:100CFF000205BE00028003020DA790E6BCE0FEC213
:100D0F0001E508604D90E6A0E020E1F9903FC0E0DA
:100D1F00FDBD30005003020EAA78657440F274E7EF
:100D2F0008F2786774012440F2E434E708F28E8207
:100D3F00122308E5827003020EAA90E6B57401F043
:100D4F0090E68AE4F090E68B7402F090E6A074804F
:100D5F00F02290E6B57401F090E68AE4F090E68B0D
:100D6F007402F090E6A07480F090E6A0E020E1F924
:100D7F00903FC0E0FDBD3000401790E7407863E042
:100D8F00F290E7417864E0F28E821222CBE5827016
:100D9F000675820102041E22E5087029BF1C2690E9
:100DAF00E6BEE0FDA3E04D701C90E6BCE0FEC20184
:100DBF00D20053B0C353060FEE2E25E042B090E69B
:100DCF00A07480F022E5086036BF0F3390E6BEE0D6
:100DDF00FDA3E0FEBD0128BE0025C20190E6A0E004
:100DEF0020E1F990E7407404F090E6B57401F090BB
:100DFF00E68AE4F090E68B04F090E6A003F022E59B
:100E0F0008604ABFC04790E6BCE0FDA3E0FEBD040A
:100E1F003CBE0039C201787F7470F2743608F290CC
:100E2F0036707881E493F2A3E49308F290E0001215
:100E3F0028377D007EE090E6B57401F090E6B3EEC2
:100E4F00F090E6B4EDF090E6A07480F022E5086033
:100E5F004ABFC04790E6BCE0FEA3E0FFBE053CBF23
:100E6F000039C201787F7498F2743608F290369880
:100E7F007881E493F2A3E49308F290E0001228370C
:100E8F007E007FE090E6B57401F090E6B3EFF0904E
:100E9F00E6B4EEF090E6A07480F022C20190E6A0D6
:100EAF007401F07481F022C2A832903EC0E4F0A326
:100EBF00F075820412041E903FC0E0FFBF32004065
:100ECF0008903EBF121FB3800A783DE4F2903EBFF8
:100EDF00121A6C903EBFE0FF781B74C0F2743E088C
:100EEF00F28F821213B2903FC0E0FFBF3200400971
:100EFF00903EBFE0F5821220C7D2A822200002C286
:100F0F00B4C2CAC2CF32C0E0C082C083200002D2B6
:100F1F00B4D2CA5391EF90E65F74F3F0D083D082CE
:100F2F00D0E032020F15020F15020F15020F150236
:100F3F000F15020F1590E6007412F090E67A740107
:100F4F00F012027D120340121349903FC0E0FFBF21
:100F5F003200400F121BF4E582700B7582011204F0
:100F6F001E80031216D512111912235A12326C90C9
:100F7F00E611E4F012326C90E610E4F043B534D28F
:100F8F00B253B0CF75C801D2AD90E65EE043E0F347
:100F9F00F0D2A8903FD1E0FCA3E0FDA3E0FEA3E0D8
:100FAF00FFEC4D4E4F70030210D4903FD1780FE0FD
:100FBF00F2A3E008F2A3E008F2A3E008F27D527872
:100FCF0013E4F208F2D2B4C005121134D005780F31
:100FDF00E2F5F008E242F008E242F008E245F07074
:100FEF00030210B27C80780FC3E2948008E2940071
:100FFF0008E2940008E294005004780FE2FC788530
:10100F007400F274E008F2E408F27888ECF2E40875
:10101F00F278137983E2F308E209F3788A7401F224
:10102F008D82122868E582700875820112041E8075
:10103F00727815ECF290E000C005C0041211ADD02B
:10104F0004D0058C027B007E007F00780FE2C39AEC
:10105F00F208E29BF208E29EF208E29FF28C03781C
:10106F0013E2FA08E2FFEB2AFAEE3FFF7813EAF2F7
:10107F00EF08F27813E2F5F008E245F06003020F93
:10108F00DD8D03EB04FDBD54028003020FDD7D51A6
:10109F007813E2FA08E22470FB7813EAF2EB08F215
:1010AF00020FDD780FE2F5F008E242F008E242F0BD
:1010BF0008E245F0700D121201E58270067582018B
:1010CF0012041EC2B4758201122B2D3001031205BA
:1010DF006F20A803120EB92000F190E687E070266A
:1010EF0090E684E0FFC313FF24FC40DFEF2F901145
:1010FF0001738006800C80068008D2B280CDC2B208
:10110F0080C9B2B280C5D2B280C143B50802111FE7
:10111F00308309200002D2B375820122200002C25F
:10112F00B375820022903FC0E0FFBF10028019BF4D
:10113F0020028014BF3002801EBF31028019BF32DF
:10114F00028014BF333A800F43B502C2B190000141
:10115F00123532D2B18029903EC3E4F0A3F0781B50
:10116F0074C3F2743E08F27582031213B29000FA40
:10117F0012353C43B202C281900001123532D28146
:10118F0012326C90E601E053E0FCF053B2F743B338
:10119F001CD294C2939004B012353202111F75AF56
:1011AF000385829B85839A90E67B7815E2F8E0A20F
:1011BF00E7C2949292D294A2E6C2949292D294A24F
:1011CF00E5C2949292D294A2E4C2949292D294A243
:1011DF00E3C2949292D294A2E2C2949292D294A237
:1011EF00E1C2949292D294A2E0C2949292D294D8F5
:1011FF00BD227431C29400D294D5E0F853B3E3907A
:10120F003FC0E0FFBF10028019BF20028014BF3023
:10121F00028019BF31028014BF3202800FBF331416
:10122F00800A90E601E043E023F0800890E601E0B9
:10123F0043E063F0903EC2740FF002111FE5827815
:10124F0016F275821012261FE582601978737401E9
:10125F00F2E408F2903E1675F060122658E58260AF
:10126F00047582012212263775820022AE82AF8367
:10127F0075821112261FE582601C7D007817797820
:10128F00E2F3E409F38E828F838DF01226DEE5827E
:10129F0060047582012212263775820022AE82AF5A
:1012AF00837D0078187973E2F3E409F38E828F83DC
:1012BF008DF0122658E582600E122637E5827003F4
:1012CF00F582227582012212263775820022AF82A3
:1012DF00C00712111FE582D007700475820122EF3B
:1012EF006025903EC2E04FF075820112124CE582EC
:1012FF007003F5822278187401F2903EC21212AC7C
:10130F00E5827003F582227819E2602A7819E2F4F7
:10131F00FF903EC2E05FF075820112124CE58270C1
:10132F0003F5822278187401F2903EC21212ACE5D6
:10133F00827003F5822275820122C2B0C2B6D2B783
:10134F0043B5C1C2B722E5826003C2B722D2B7222A
:10135F00AF827E008F05BD0102800ABF0202801797
:10136F00BD031F8016903FC0E0FFBF330050047EC7
:10137F000C800F7E0E800B7E0D8007781AE27002B4
:10138F007E48EE7003F58222EE2EFE781AE24EF5BD
:10139F008212261FE582700712263775820022758A
:1013AF00820122AF827E00781BE2F58208E2F5838C
:1013BF00E0FCA3E0FDEF30E0027E01EF30E10343FC
:1013CF000640EF30E013903FE5E0FAA3E0FBC3EAFD
:1013DF009CEB9D500475820022EF30E113903FE7A4
:1013EF00E0FAA3E0FBC3EA9CEB9D50047582002258
:1013FF00EC4D700DEEF452B0781DE4F2781EF280D1
:10140F00798C028D03C3EA9472EB94064008747CC6
:10141F009A74159B500475820022C006EA248EFA36
:10142F00EB34F9FB78AFEAF2E2F5F0EBC4C5F0C4A8
:10143F00540F65F0C5F0540FC5F065F0F2C5F00814
:10144F00F290010DC007C006C005C004123291AA68
:10145F0082AB83D004D005D006D007EBC4CAC454E6
:10146F000F6ACA540FCA6ACAFB74E0C39AFA740FA0
:10147F009B781DF2781EEAF2D006781AE4F28F827A
:10148F00C006C005C00412135FE582D004D005D09A
:10149F00067003F5822278737402F2E408F2903E2C
:1014AF001D75F060122658E5827007122637758277
:1014BF000022122637E5827003F58222EC4D60037D
:1014CF00EE42B075820122AF82BF01028005BF02DA
:1014DF000A80047E0180087E40800475820022EE1F
:1014EF0055B07011781FE2F58208E2F583E4F0A39E
:1014FF00F075820122781A7401F28F8212135FE560
:10150F00827003F5822278787402F2E408F2903E3A
:10151F002175F0601226DEE5827003F582227821B4
:10152F00E2FE7F007822E27C004207EC4206781F41
:10153F00E2FC08E2FDEEC4CFC4540F6FCF540FCFBF
:10154F006FCFFE74FFC39FFFE49EFE78AFEFF2EE06
:10155F0008F2900098C005C0041232917870740A96
:10156F00F2E408F2122593E5828583F0D004D005CA
:10157F002472FE740635F0FF8C828D83EEF0EFA39C
:10158F00F075820122AF827823E2FD08E2FE8D82A0
:10159F008E83E0FBA3E0FC4B601D8B0B8C0CC3E533
:1015AF000B9472E50C9406400A747C950B74159598
:1015BF000C500475820022750B10750C37850B0DBE
:1015CF00850C0E850D82850E83E493FA7003021647
:1015DF007AEA5F700302166C781F74C5F2743E08C6
:1015EF00F28A82C007C006C005C004C0031214D619
:1015FF00E582D003D004D005D006D0077003F58262
:10160F0022C007903EC5E0FAA3E0FFC3EB9AEC9F20
:10161F00D0075030850D82850E83E493FA781BED49
:10162F00F2EE08F28A82C007C006C005C004C003EC
:10163F001213B2E582D003D004D005D006D00770C4
:10164F0003F58222850B82850C83A3E49325E02486
:10165F00E5F582E4343FF583EBF0ECA3F07402255B
:10166F000BF50BE4350CF50C0215CC75820122AF8E
:10167F00827E107D378E038D048B828C83E493FAE8
:10168F006040EFB5022F7825E2F53408E2F5358E8C
:10169F00828D83A3E49325E024E5F582E4343FF5BE
:1016AF0083E0FDA3E0FE853482853583EDF0EEA364
:1016BF00F07582012274022BFBE43CFC8B068C0537
:1016CF0080B77582002290E670E043E001F0538806
:1016DF00FE22A982E3FE7F0009E37C004207EC4271
:1016EF0006EEC4CFC4540F6FCF540FCF6FCFFE7819
:1016FF00AFEFF2EE08F29001031232917870740A94
:10170F00F2E408F2022593AE82AF8378AFEEF2EFE8
:10171F0008F290000A12329178707403F274010883
:10172F00F2122593AE82E583C454F0CEC4CE6ECEB2
:10173F0054F0CE6EFF7827E2F9EFF309EEF322AF04
:10174F00827D167E378D038E048B828C83E493FA11
:10175F006059EFB502488D828E83A3E493FA786BBC
:10176F00742AF2786AE4F2786C7402F28A82122494
:10177F00E1E5827003F582227828E2F50F08E2F5A1
:10178F001075822A1216E1858211858312850F82C8
:10179F00851083E511F0E512A3F075820122740222
:1017AF002BFBE43CFC8B058C06809E75820022AFE0
:1017BF00827830E4F27831F27832740FF27833F4C1
:1017CF00F278347403F27835E4F2782CE2F582087B
:1017DF00E2F583E0FDA3E0FE8D038E04C3747C9BD2
:1017EF0074159C4023C007782EE2FB08E2FC8B8225
:1017FF008C83E0FAA3E0FF8A138F14C3747C9513D4
:10180F0074159514D007500475820022ED4E700C9C
:10181F00747CB513077415B51402803778277430AC
:10182F00F28D828E83C007C004C003121716D00337
:10183F00D0048B828C83E0FBA3E0FC78277432F218
:10184F008B828C83121716D00778357414F2783583
:10185F0074D4F27D167E378D828E83E493FC7003F1
:10186F00021955EC5F700302194B74012DFBE43E16
:10187F00FC8B828C83E493FA786E7430F2786D74FB
:10188F0003F2786F14F28A82C007C006C005C00445
:10189F00C003122539E582D003D004D005D006D07D
:1018AF00077003F582228B828C83E493FA786E742F
:1018BF0032F2786D7404F2786F03F28A82C007C037
:1018CF0006C005C004C003122539E582D003D00439
:1018DF00D005D006D0077003F582228B828C83E46B
:1018EF0093FA786E7434F2786D7401F2786FF28A2D
:1018FF0082C007C006C005C004C003122539E582A7
:10190F00D003D004D005D006D0077003F582228B08
:10191F00828C83E493FB786E7435F2786D7402F2E7
:10192F00786F14F28B82C007C006C005122539E507
:10193F0082D005D006D0077003F5822274022DFDE8
:10194F00E43EFE02186675820122AF827D167E3755
:10195F008D038E048B828C83E493FA7003021A5EDC
:10196F00EFB502028003021A5074012DF515E43E03
:10197F00F516851582851683E493FD786B743CF21A
:10198F00786A7402F2786C14F28D821224E1E58287
:10199F007003F58222783CE270217836E2F58208F6
:1019AF00E2F583E4F0A3F07838E2F58208E2F583FC
:1019BF00747CF07415A3F07582012285158285164B
:1019CF0083E493FD786B743AF2786A7403F2786C5F
:1019DF0014F28D821224E1E5827003F582227836AB
:1019EF00E2F51708E2F51875823A1216E1AA82AEEF
:1019FF0083851782851883EAF0EEA3F0851582851B
:101A0F001683E493FE786B743AF2786A7404F27872
:101A1F006C03F28E821224E1E5827003F582227844
:101A2F0038E2F51708E2F51875823A1216E1AA8224
:101A3F00AE83851782851883EAF0EEA3F0758201D5
:101A4F002274022BFBE43CFC8B058C060219637598
:101A5F00820022A280B39202E433F58222AE82AFDB
:101A6F0083E4F07C167D378C028D038A828B83E4AE
:101A7F00937003021BACC002C00374012CF519E470
:101A8F003DF51A851982851A83E493FB786B743EB2
:101A9F00F2786A7401F2786CF28B82C007C006C0CC
:101AAF0005C004C003C0021224E1E582D002D003B6
:101ABF00D004D005D006D007D003D0027003F58232
:101ACF0022783EE27003021BA2C004C005783FE4F7
:101ADF00F28E828F83E0FD8A828B83E49342058EA0
:101AEF00828F83EDF0851982851A83E493FD786BDD
:101AFF00743FF2786A7402F2786C14F28D82C00728
:101B0F00C006C005C0041224E1E582D004D005D080
:101B1F0006D007D005D0047003F58222783DE2602D
:101B2F003A851982851A83E493FB786B743EF278B9
:101B3F006A7401F2786CF28B82C007C006C005C0D0
:101B4F00041224E1E582D004D005D006D00770033B
:101B5F00F58222783FE24404F28006783FE254FB9C
:101B6F00F28C828D83A3E493FB786E743FF2786DD1
:101B7F007402F2786F14F28B82C007C006C005C0E2
:101B8F0004122539E582D004D005D006D0077003A2
:101B9F00F5822274022CFCE43DFD021A7675820157
:101BAF0022AF82786E7440F2786D7412F2786FE41F
:101BBF00F28F82C007122539E582D0077003F582B4
:101BCF0022784074FFF2786E7440F2786D74D2F21E
:101BDF00786F7401F28F82122539E5827003F582D6
:101BEF0022758201227E1C7F378E048F058C828D99
:101BFF0083E49360378E828F83A3E493FCA3E493F3
:101C0F00FD8C828D83E4F08E828F83A3A3A393F543
:101C1F0082C007C006121BB0E582D006D007700342
:101C2F00F5822274042EFEE43FFF80BD75820122EF
:101C3F00E582F904F8E2FF7E007D008D258E248F6A
:101C4F00238E22E3FAE4FBFFE523420378B1EAF2A5
:101C5F00EB08F2EE08F2EF08F2900005E4F5F0124F
:101C6F0032B3AC82AD83AEF0C313FFEE13FEED13B0
:101C7F00FDEC13FCEFC313EE13ED13FDEC13F58224
:101C8F008D8322AE82AF83EE2EF582EF33F583E59F
:101C9F00822582F582E58333F58378707405F2E44B
:101CAF0008F2122593AE82AF837841E2F9EEF30981
:101CBF00EFF322AF827D1C7E378D038E048B828CD7
:101CCF0083E493FA605CEFB5024B8D828E83A3A3FE
:101CDF00A3E493FA786B7444F2786A7488F2786CA0
:101CEF007402F28A821224E1E5827003F58222786F
:101CFF0042E2F52608E2F527758244121C3F8582E1
:101D0F0028858329852682852783E528F0E529A361
:101D1F00F07582012274042BFBE43CFC8B058C06CE
:101D2F00809B75820022AF82784AE4F2784BF2787A
:101D3F004C74F8F2784D747FF2784E74FFF2784657
:101D4F00E2F58208E2F583E0FDA3E0FE8D038E0449
:101D5F00C3747C9B74159C401DC0077848E2FB0838
:101D6F00E2FC8B828C83E0FAA3E0FFC3747C9A744D
:101D7F00159FD007500475820022ED4E601E7841EA
:101D8F00744AF28D828E83C007C004C003121C9266
:101D9F00D003D004D007784EE254FEF28B828C83AE
:101DAF00E0FDA3E0FE8D038E04BB7C05BC15028015
:101DBF00167841744CF28D828E83C007121C92D01C
:101DCF0007784EE254FDF27D1C7E378D828E83E4C0
:101DDF0093FC7003021ECDEC5F7003021EC37403ED
:101DEF002DFBE43EFC8B828C83E493FA786E744A6D
:101DFF00F2786D7458F2786F7402F28A82C007C05D
:101E0F0006C005C004C003122539E582D003D004F3
:101E1F00D005D006D0077003F582228B828C83E425
:101E2F0093FA786E744CF2786D7457F2786F74027F
:101E3F00F28A82C007C006C005C004C0031225394C
:101E4F00E582D003D004D005D006D0077003F58209
:101E5F00228B828C83E493FA786E744EF2786D74D1
:101E6F00D2F2786F7401F28A82C007C006C005C033
:101E7F0004C003122539E582D003D004D005D00663
:101E8F00D0077003F582228B828C83E493FB786EEC
:101E9F00744EF2786D7403F2786FE4F28B82C007A0
:101EAF00C006C005122539E582D005D006D00770CF
:101EBF0003F5822274042DFDE43EFE021DDA7582C5
:101ECF000122AF827D1C7E378D038E048B828C8323
:101EDF00E493FA7003021FAFEFB502028003021FF3
:101EEF00A174032DF52AE43EF52B852A82852B83D9
:101EFF00E493FD786B7453F2786A7458F2786C74CB
:101F0F0002F28D821224E1E5827003F58222784F6E
:101F1F00E2F52C08E2F52D758253121C3FAA82AE12
:101F2F0083852C82852D83EAF0EEA3F0852A8285A6
:101F3F002B83E493FE786B7453F2786A7457F278BC
:101F4F006C7402F28E821224E1E5827003F5822214
:101F5F007853E2FEBEF8197854E2FEBE7F12785134
:101F6F00E2F58208E2F583747CF07415A3F0801E0D
:101F7F007851E2F52C08E2F52D758253121C3FAA19
:101F8F0082AE83852C82852D83EAF0EEA3F07582D5
:101F9F00012274042BFBE43CFC8B058C06021EDB38
:101FAF0075820022AF83E5827855F2EF08F27855FB
:101FBF00E2F58208E2F583E4F07C1C7D378C028D1C
:101FCF00038A828B83E493700302205AC002C003FA
:101FDF008C828D83A3A3A3E493FB786B7457F27861
:101FEF006A7480F2786C23F28B82C005C004C00340
:101FFF00C0021224E1E582D002D003D004D005D074
:10200F0003D0027003F582227857E2540F603278C2
:10201F0055E2F58208E2F583E0FF8A828B83E49331
:10202F0042077855E2F58208E2F583EFF08C828D56
:10203F0083A3E493FEA3E493FF8E828F837857E20A
:10204F00F074042CFCE43DFD021FCC75820122AE1E
:10205F0082AF83E4F07C1C7D378C828D83E493FB0D
:10206F006055C00374012CF534E43DF53585348299
:10207F00853583E493FAA3E493FB8A828B83E05440
:10208F000F7004D0038027D0038E828F83E042032A
:10209F008E828F83EBF07858E2601385348285351A
:1020AF0083E493FAA3E493FB8A828B83E4F07404B2
:1020BF002CFCE43DFD80A222AF827D1C7E378D82F9
:1020CF008E83E493FC70030221E7EC5F700302211F
:1020DF00DD74032DFBE43EFC8B828C83E493FA7852
:1020EF006B7459F2786A7458F2786C7402F28A82BF
:1020FF00C007C006C005C004C0031224E1E582D0AA
:10210F0003D004D005D006D0077003F582228B824E
:10211F008C83E493FA786B745BF2786A7457F27875
:10212F006C7402F28A82C007C006C005C004C003E7
:10213F001224E1E582D003D004D005D006D0077079
:10214F0003F582228B828C83E493F582C007C0064D
:10215F00C005C004C003121BB0E582D003D004D069
:10216F0005D006D0077003F582228B828C83E4930F
:10217F00FA786E7459F2786D7458F2786F7402F2BF
:10218F008A82C007C006C005C004C003122539E506
:10219F0082D003D004D005D006D0077003F5822279
:1021AF008B828C83E493FB786E745BF2786D74573B
:1021BF00F2786F7402F28B82C007C006C005122539
:1021CF0039E582D005D006D0077003F5822274045A
:1021DF002DFDE43EFE0220CD75820122AF827E00EE
:1021EF008F05BD01028005BF020880047E2080029A
:1021FF007E21EE7003F58222EE2EFE785DE24EF523
:10220F008212261FE5827003F5822275820122AFAA
:10221F0082785DE4F28F821221EBE5826038787369
:10222F007401F2E408F2903E5E75F060122658E5F4
:10223F0082602378737401F2E408F2903E5F75F0C8
:10224F0060122658E582600E122637E5827003F57C
:10225F0082227582012212263775820022AF827880
:10226F005DE4F28F82C0071221EBE582D007604553
:10227F0078737401F2E408F2903E6075F0601226F4
:10228F0058E5826030785D7401F28F821221EBE5A0
:10229F008260227861E2FD08E2FE7F0078787401A7
:1022AF00F2E408F28D828E838FF01226DEE58260D3
:1022BF00047582012212263775820022AF82785E62
:1022CF007401F27864795FE2F38F82C00712221EE5
:1022DF00E582D0077003F582227863E2F4F2785E2C
:1022EF007403F27863795FE2F38F8212221EE58224
:1022FF007003F5822275820122AF8278607401F239
:10230F0078677961E2F308E209F38F82C00712223E
:10231F006CE582D0077003F5822278607403F2783F
:10232F00657961E2F308E209F38F8212226CE5828C
:10233F007003F582227865E2FE08E2FF8E828F83BA
:10234F00E0F48E828F83F07582012212326C90E658
:10235F000B7403F012326C90E6017480F012326C41
:10236F0090E6047480F012326C90E609E4F01232B9
:10237F006C90E6027498F012326C90E60374FEF0E3
:10238F0012326C90E670E043E080F012326C90E60F
:10239F0018E053E0FEF012326C90E619E053E0FEC5
:1023AF00F012326C90E61AE053E0FEF012326C90AD
:1023BF00E61BE053E0FEF022E582FF60067E007D23
:1023CF000080047E027D8012326C90E6047480F0EF
:1023DF0012326C90E61274A04EF012326C90E6132B
:1023EF0074204DF012326C90E61474E04EF01232FD
:1023FF006C90E61574604DF0EF60047E0580027EF0
:10240F000F7869EEF28F8212242212326C90E6045A
:10241F00E4F022AF827869E2FE30E04312326C9032
:10242F00E618E4F012326C90E604E043E002F0129A
:10243F00326C90E6497482F012326C90E6497482E5
:10244F00F0EF601212326C90E6497482F012326C27
:10245F0090E6497482F012326C90E6187410F0EE28
:10246F0030E12E12326C90E619E4F012326C90E6E5
:10247F0004E043E004F012326C90E6497484F012E9
:10248F00326C90E6497484F012326C90E619741035
:10249F00F0EE30E21C12326C90E61AE4F012326C5D
:1024AF0090E604E043E006F012326C90E61A7404F2
:1024BF00F0EE30E31C12326C90E61BE4F012326C3B
:1024CF0090E604E043E008F012326C90E61B7404CF
:1024DF00F022E5822582FFF58212261FE5826043F6
:1024EF0078737401F2E408F2903E6A75F060122678
:1024FF0058E582602E74014FF58212261FE5826027
:10250F0022786BE2FD7E007F60786C7978E2F3E4ED
:10251F0009F38D828E838FF01226DEE582600475BB
:10252F0082012212263775820022E5822582F582EA
:10253F0012261FE582604678737401F2E408F29068
:10254F003E6D75F060122658E5826031786FE2605B
:10255F001E786EE2FD7E007F60786F7973E2F3E4A0
:10256F0009F38D828E838FF0122658E582600E124A
:10257F002637E5827003F5822275820122122637F3
:10258F0075820022AE82AF837C007D007B10EF232B
:10259F005401FAEE2EFEEF33FFEC2CFCED33FDEA87
:1025AF0060034304017870C3E2F5F0EC95F008E2A4
:1025BF00F5F0ED95F040117870D3E29CF4B3FCB3D5
:1025CF0008E29DF4FD430601DBC48E828F8322C097
:1025DF0007C006C000AF8290E678E020E00E787268
:1025EF00E260F47872E4F2758200801D90E678E084
:1025FF0030E2057582008011EF600B90E678E00302
:10260F005401F5828003758201D000D006D00722D5
:10261F00C007AF8290E6787480F090E679EFF0759E
:10262F0082011225DED00722C00790E678E030E263
:10263F0005758200801090E6787440F090E678E09F
:10264F0020E6F9758201D00722C007C006C004C07A
:10265F0003C002C000AFF0AE83E5827875F2EE08DA
:10266F00F2EF08F27873E2F5F008E245F0700575C5
:10267F008201804E7B007C007873E2B5030708E28D
:10268F00B50402802A7875E22BFA08E23CFE08E2D4
:10269F00FF8A828E838FF012356790E679F075820C
:1026AF00011225DEE58260070BBB00CC0C80C978D8
:1026BF0073E2B5030808E2B50403D38001C3E43322
:1026CF00F582D000D002D003D004D006D00722C0AC
:1026DF0007C006C005C004C003C002C001C000AFE0
:1026EF00F0AE83E582787AF2EE08F2EF08F27878AE
:1026FF00E2F5F008E245F0700675820102282678AF
:10270F0078E2FB08E2FCBB0109BC000690E6787496
:10271F0020F090E679E07B007C00787DE4F208F20F
:10272F00787D7978E2F5F0E3B5F00C08E2F5F00981
:10273F00E3B5F0030228007582001225DEE58270F2
:10274F0003022813787DE2FD08E2FE74022DFDE4FA
:10275F003EFE7878E2B5050708E2B50602800280F2
:10276F000690E6787420F0787DE2FD08E2FE0DBD5C
:10277F0000010E7878E2B5050708E2B5060280027F
:10278F00803575AF03759AE6759B7890E67B74403C
:10279F00F0E0ACE0787A797DE3C5F0E225F0FD0951
:1027AF00E3C5F008E235F0FE08E2FF8D828E838FDD
:1027BF00F0EC1232758025787A797DE3C5F0E22549
:1027CF00F0FD09E3C5F008E235F0FE08E2FF90E600
:1027DF0079E0FA8D828E838FF0123275787DE22444
:1027EF0001F208E23400F2787DE2FB08E2FC0227F6
:1027FF002F90E678E030E205758200801A90E67837
:10280F00E020E6F97878E2B5030808E2B50403D3CF
:10281F008001C3E433F582D000D001D002D003D0C1
:10282F0004D005D006D00722AA82AB83787FE2FCC2
:10283F0008E2FD7881E2FE08E2FFEE60010FEF6033
:10284F001775AF078A9B8B9A8C9E8D9D90E67CE0C7
:10285F0090E67BF0DEF6DFF422C007C006C001C0B1
:10286F0000AF82788AE260127884E2FE788BEEF213
:10287F007883E2FE788CEEF280087883E2FE788B24
:10288F00EEF2EF2FFFF58212261FE582604C788A59
:10289F00E2FE0E7873EEF2E408F2903E8B75F06074
:1028AF00122658E582603374014FF58212261FE518
:1028BF0082602778887978E2F308E209F37885E275
:1028CF00F58208E2F58308E2F5F01226DEE5827064
:1028DF0004F582800B7582018006122637758200FF
:1028EF00D000D001D006D00722C007C006C005C057
:1028FF0004C003C002C001C000AF827897E4F208A1
:10290F00F2EF2FFFF58212261FE5827003022AA134
:10291F007895E2F5F005F07B017C008006EB2BFB50
:10292F00EC33FCD5F0F778977992C3E3F5F0E295A5
:10293F00F009E3F5F008E295F04003022AA178943C
:10294F00E26012788EE2FA7899EAF2788DE2FA78FC
:10295F009AEAF28008788DE2FA7899EAF27894E2AE
:10296F00FA0A7873EAF2E408F2903E9975F0601271
:10297F002658E5827003022AA1C007788DE2F582FE
:10298F0008E2F5838B028C0778BDEAF2EF08F2C0FC
:10299F0007C004C003C002C001C0001233F8AD82EB
:1029AF00AE83D000D001D002D003D004D007EAC349
:1029BF009DFAEF9EFF789BEAF2EF08F278927997F3
:1029CF00E3F5F0C3E295F0FE09E3F5F008E295F0C8
:1029DF00FF789BC3E2F5F0EE95F008E2F5F0EF9586
:1029EF00F0D007502078927997E3F5F0C3E295F095
:1029FF00C0E009E3F5F008E295F0C0E0789CD0E084
:102A0F00F218D0E0F2788F7997E3C5F0E225F0FA6B
:102A1F0009E3C5F008E235F0FD08E2FE789B797313
:102A2F00E2F308E209F38A828D838EF0122658E5CD
:102A3F0082605F122637E5827004F58280737E0014
:102A4F007896E2600B7896C3E2F5F0EE95F0500CB5
:102A5F008F8212261FE58270030E80E47896E2B50E
:102A6F000605758200804A788D799BE3C5F0E225D3
:102A7F00F0F209E3C5F008E235F0F27897799BE3BD
:102A8F00C5F0E225F0F209E3C5F008E235F0F202F5
:102A9F00293512263778977992E2F5F0E3B5F00CE5
:102AAF0008E2F5F009E3B5F003D38001C3E433F591
:102ABF0082D000D001D002D003D004D005D006D0F0
:102ACF00072232AFF0AE83E58278A0F2EE08F2EF84
:102ADF0008F2789EE2F53408E2F535789EE2F5F0DB
:102AEF0008E245F0602A78A0E2FA08E2FB08E2FC6F
:102AFF00789DE2FFAD34AE358A828B838CF0EF1276
:102B0F003275A3AA82AB831DBDFF011EED4E70E887
:102B1F0078A0E2F58208E2F58308E2F5F022AF82B1
:102B2F0078A4E4F278A5F2D2E890E668E043E008F2
:102B3F00F090E65CE043E001F090E65D7401F0D2C6
:102B4F00AF90E680E020E10890E680E043E002F0FD
:102B5F00EF600E90E680E043E008F090000A123537
:102B6F003C90E680E053E0F7F022AF82BF00028096
:102B7F0037BF01028036BF02028039BF040280389E
:102B8F00BF06028037BF08028036BF80028019BFA0
:102B9F008102801CBF8202801BBF8402801ABF8605
:102BAF00028019BF881E801890E6A02290E6A1220D
:102BBF0090E6A22290E6A32290E6A42290E6A52218
:102BCF0090E6A62290000022C021C0E0C0F0C08293
:102BDF00C083C007C006C005C004C003C002C00147
:102BEF00C000C0D075D000C08675860090E6B8E0F2
:102BFF00FFE4BF800104FE601B90E6B9E0FDBD0657
:102C0F001390E6BAE0FCA3E0F5827800ECF2120232
:102C1F002D022E55EF702A90E6B9E0FDBD092290E6
:102C2F00E6BAE0F582120453E582600990E6A074DB
:102C3F0080F0022E5590E6A07401F07481F0022E00
:102C4F0055EE600E90E6B9E0FDBD08061234920213
:102C5F002E558F05BD013290E6B9E0FDBD0B2A90D0
:102C6F00E6BCE0FD90E6BA7807E0F28D821204AC84
:102C7F00E582600990E6A07480F0022E5590E6A0E0
:102C8F007401F07481F0022E55E4BF810104FD60E0
:102C9F001490E6B9E0FCBC0A0C90E6BCE0F5821299
:102CAF00054F022E55EF703790E6B9E0FCBC032FAD
:102CBF0090E6BAE0FBA3E0FCBB0110BC000D78A4CA
:102CCF007401F290E6A003F0022E55BB0205BC0082
:102CDF00028003022E5590E6A07480F0022E55EE6E
:102CEF00603590E6B9E0702F78A3E2FE78A4E22574
:102CFF00E0FC420690E740EEF090E741E4F090E60A
:102D0F00B504F090E68AE4F090E68B7402F090E65A
:102D1F00A07480F0022E55ED602890E6B9E0702285
:102D2F0090E740E4F090E741F090E6B504F090E6CC
:102D3F008AE4F090E68B7402F090E6A07480F002C3
:102D4F002E55BF02028003022DFF90E6B9E0FEBEB2
:102D5F0003028008BE01028003022DFF90E6BAE055
:102D6F00FDA3E0FE4D6003022E5590E6BCE0F58218
:102D7F00122B79AD82AE83ED4E7003022E5590E685
:102D8F00B9E0FCBC03188D828E83E0FC4304018DF7
:102D9F00828E83ECF090E6A07480F0022E5590E6C0
:102DAF00BCE0F582C006C005123480E582D005D0A4
:102DBF00067003022E558D828E83E0FC5304FE8D28
:102DCF00828E83ECF090E6BCE0FDA3E08D0453040B
:102DDF000F530580E423CDC423541F6DCD541FCD55
:102DEF006DCDFE90E683ED4CF0E043E020F0805691
:102DFF00BF824D90E6B9E0704790E6BCE0F58212D5
:102E0F002B79AE82AF838E048F05EE4F60388C82A4
:102E1F008D83E05401FCB40100B39203E433FF90BF
:102E2F00E740F090E741E4F090E6B504F090E68AD1
:102E3F00E4F090E68B7402F090E6A07480F08006C8
:102E4F0090E6B81204435391EF90E65D7401F0D011
:102E5F0086D0D0D000D001D002D003D004D005D07E
:102E6F0006D007D083D082D0F0D0E0D0210200ACC2
:102E7F00AE82AF8378A6E2B4012C78A7E270278EDA
:102E8F00828F83E493FCA3E493FD787FECF2ED084B
:102E9F00F28C828D83E4937881F2E408F290E00063
:102EAF001228370230F278A6E2B4063B78A7E27018
:102EBF00368E828F83A3A3E493FCA3E493FD4C701F
:102ECF000A90E6A07401F07481F022787FECF2EDA5
:102EDF0008F28C828D83E4937881F2E408F290E01B
:102EEF00001228370230F278A6E2B4020280030201
:102EFF00300D8E828F83A3A3A3A3E493FD78A7C382
:102F0F00E29D400302300D8E828F83A3A3A3A3A360
:102F1F00E493FCA3E493FD78A7E275F002A42CF5EB
:102F2F0082ED35F0F583E493FCA3E493FD74092C53
:102F3F00FFE43DFE787FECF2ED08F28C828D83E4A6
:102F4F00937881F2E408F290E000C007C006C00554
:102F5F00C004122837D004D005D006D0078C828D3C
:102F6F0083E4932400F52EE434E0F52F8F028E03D3
:102F7F00852E30852F318A328B338532828533838C
:102F8F00E493FCA3E493FD787FECF2ED08F28C82DE
:102F9F008D83E4937881F2E408F285308285318362
:102FAF00C003C002122837D002D003853282853386
:102FBF0083E493FCA3E493FD8C828D83E493252E0D
:102FCF00F52EE4352FF52F74022AFAE43BFB8A82A3
:102FDF008B83E493FCA3E4934C709590E002E0FCA8
:102FEF00A3E04C60030230F2E52EC39400FCE52F02
:102FFF0094E0FD90E002ECF0EDA3F00230F278A641
:10300F00E2B4030474018001E4FD602278A7E2704A
:10301F001D787F7428F2743708F2903728E493787C
:10302F0081F2E408F290E0001228370230F2ED70DE
:10303F00030230E878A7E2FC7D0024FFFAED34FFAD
:10304F00FB74072EF582E43FF583C006C007E493B7
:10305F00FF7E00C3EA9FEB64808EF063F08095F0F3
:10306F00D007D006507374082EF582E43FF583E441
:10307F0093FEA3E493FF1CBCFF011DEC2CFCED336E
:10308F00FDEC2EF582ED3FF583E493FEA3E493FF71
:10309F0090E0007402F090E00104F074012401FC50
:1030AF00E434E0FD8E828F83E493FB60360EBE0026
:1030BF00010F8C828D83EBF074012CFAE43DFB8AB7
:1030CF00828B83E4F0042AFCE43BFD90E000E0FBFC
:1030DF000B0B90E000EBF080CB90E6A07401F07446
:1030EF0081F0227E007FE090E6B57401F090E6B3A8
:1030FF00EFF090E6B4EEF090E6A07480F022AE828E
:10310F00AF83A3A3A3A3A3E493FCA3E493FD74044D
:10311F002EFEE43FFF78AAE4F28E828F83E493FAC7
:10312F0078AAC3E29A400122C006C00778AAE275C6
:10313F00F002A42CF582ED35F0F583E493FAA3E4C5
:10314F0093FF78AB74092AF2E43F08F27534008AD2
:10315F00828F83A3A3A3A3A3E493FF78A5E2B5076C
:10316F00028007D007D006023260D007D00678ABB6
:10317F00E2F53508E2F536C004C00585358285369F
:10318F0083E493FAA3E493FD8A828D83A3E493F5FA
:10319F00377404B537028006D005D004804AD005B5
:1031AF00D004853582853683E493F538A3E493F50F
:1031BF0039853882853983A3A3E493FA78A8E2B5D9
:1031CF000214853882853983A3A3A3E493FA78A9DF
:1031DF00E2B50202800678ADE4F2800578AD7401A5
:1031EF00F278ADE2F534804C7405B53747E53460BD
:1031FF0043C004C005853582853683E493FAA3E482
:10320F0093FD8A828D83A3A3E493FD740F5DFC531A
:10321F000580E423CDC423541F6DCD541FCD6DCD38
:10322F0030E40244E090E683ED4CF0E043E020F020
:10323F00D005D00474022535F535E43536F53685DD
:10324F003582853683E493FAA3E4934A600302310F
:10325F008678AAE22401F2023128323232000000CD
:10326F0000000000002220F71130F6138883A88297
:10327F0020F509F6A8837583002280FEF280F5F011
:10328F002232AA83AB828BF0903EAFE0A4F8A9F074
:10329F008AF0E0A429F98BF0A3E0A429F5838882B2
:1032AF0022223232AF82AE83ADF0FC78B5EFF2EE70
:1032BF0008F2ED08F2EC08F278B5E2FF78B3E28F8E
:1032CF00F0A4FFADF078BBEFF208EDF278B5E2FFB6
:1032DF0078B1E28FF0A4FFADF078B9EFF208EDF21C
:1032EF0078BCE2FF78B8E2FE78B1E28EF0A42FFF4F
:1032FF0078BCF278B7E2FE78B2E28EF0A42F78BCF9
:10330F00F278BBE2FE08E2FF78B7E2FD78B1E28D1A
:10331F00F0A4ABF02EFEEB3FFF78BBEEF208EFF21E
:10332F0078B6E2FD78B2E28DF0A4ABF02EFEEB3F63
:10333F00FF78BBEEF208EFF278B6E2FF78B3E28FD8
:10334F00F0A478B8F278B6E2FF78B1E28FF0A4FF7C
:10335F00ADF078B6EFF208EDF278B5E2FF78B4E2AF
:10336F008FF0A478B4F278B5E2FF78B2E28FF0A4D0
:10337F00FFADF078B2EFF208EDF278B1E4F278B584
:10338F00F278B9E2F53408E2F53508E2F53608E2ED
:10339F00F53778B5E2FA08E2FB08E2FE08E2FFEA49
:1033AF002534F534EB3535F535EE3536F536EF3565
:1033BF0037F53778B9E534F208E535F208E536F236
:1033CF0008E537F278B1E2FC08E2FD08E2FE08E218
:1033DF00FFEC2534FCED3535FDEE3536FEEF353798
:1033EF008C828D838EF0223232AE82AF837D007C51
:1033FF000078BEE2235401703578BDE225E0F20873
:10340F00E233F278BDC3E2F5F0EE95F008E2F5F0A5
:10341F00EF95F0501478BDE2F5F008E2C313C5F054
:10342F001318F2C5F008F280050C8C0580C378BD27
:10343F00C3E2F5F0EE95F008E2F5F0EF95F0400EEF
:10344F0078BDD3E29EF4B3FEB308E29FF4FF78BDDC
:10345F00E2F5F008E2C313C5F01318F2C5F008F255
:10346F008D041DEC70C88E828F832232323232323D
:10347F003290E6A07480F0758201223232323232FD
:10348F0032323290E74078A5E2F090E6B57401F061
:10349F0090E68AE4F090E68B04F090E6A003F02229
:1034AF0032323232E583700BE58224FA400122B4C6
:1034BF00001122E5826003D5E0FD0075E0FED583A3
:1034CF00F674F9D5E0FD22C007C006C001C000AEFA
:1034DF0082AF83EE2EF8EF33F9EE28FEEF39FF902F
:1034EF00E600E0F8794C20E416C3EF13CE13CEFFBD
:1034FF00795AE820E309C3EF13CE13CEFF7963E5C2
:10350F008124FAF8E926C313C313F9C3EE99F582A0
:10351F00EF9400F583D000D001D006D007500122E0
:10352F000234B37411C0E01234D6158122C007C023
:10353F0006AE82AF837411C0E0EE4F600D1EBEFF6A
:10354F00011F9003E81234D680EF1581D006D00703
:10355F00223232323232323220F71430F61488836C
:10356F00A88220F507E6A88375830022E280F7E49E
:10357F009322E022323232323232323232758200CC
:10358F00221201000200000040B720B19D0000018F
:10359F000203020A060002000000080000090400EE
:1035AF000000FFFFFF000904000101FFFFFF0009FA
:1035BF0004010000FFFFFF000904010101FFFFFFED
:1035CF00000904020000FFFFFF000904020101FFD0
:1035DF00FFFF000904030000FFFFFF0009040301C0
:1035EF0001FFFFFF000705020200020007050402AA
:1035FF00000200070586020002000705880200028C
:10360F00000902000004010080FAAC35B535F4352D
:10361F00BE35C735FB35D035D9350236E235EB35FA
:10362F00093600000902000002020080FAAC35B52D
:10363F0035F435BE35C7350236000010363336BB8C
:10364F0036D236FC369035A235024A36034E361244
:10365F00034D00530046005400310030003000C0CD
:10366F00002800000000010400010000000000001D
:10367F0000000157494E5553420000000000000062
:10368F000000000000000000000A0000000001051B
:10369F000000003939393939393939393939393936
:1036AF0039393900416E6F746865720077686974D3
:1036BF0065717561726B2072657365617263680005
:1036CF00000000476C6173676F7720496E746572F5
:1036DF0066616365204578706C6F7265722028672C
:1036EF006974203461326133633665290058582D6F
:1036FF00585858585858585858585858585858583B
:10370F000001000201000001540255000001C73EF4
:0D371F004002C83E41000000000403090400
:00000001FF
