:060000000201CF020EB95F
:03000B000232932B
:0300130002326C4A
:03001B000232B4FA
:030023000235653E
:03002B00020F0EB3
:030033000233F99C
:03003B0002356625
:03004300020100B7
:03004B00022AD4B2
:03005300020100A7
:03005B0002326D01
:0300630002326EF8
:100068000000E2FBEAF2802C0000E0FBEAF08024CA
:10007800E6B50202EBF62200E2B50202EBF222003C
:10008800E0B50202EBF02230F6E0A88220F5D3EAD0
:10009800C6F582228B822230F6E6A88220F5D98026
:1000A800CF020F47C000A88118C0D0B6001B18B6F1
:1000B80068004015B68F005010C0E0E65407B4063B
:0E00C800005004E654F8F6D0E0D0D0D000325C
:03010000022BDAF5
:030104000235675A
:030108000234813D
:03010C0002356356
:030110000235694C
:0301140002358D24
:0301180002347E30
:03011C000201B825
:03012000020F3596
:03012400020F388F
:030128000234920C
:03012C0002358C0D
:03013000020F3B80
:03013400020F3E79
:03013800020F4172
:03013C00020F446B
:0301400002348FF7
:030144000201B8FD
:03014800023586F7
:03014C00023587F2
:03015000023588ED
:03015400023589E8
:0301580002358AE3
:03015C0002358BDE
:03016000023568FD
:030164000201B8DD
:030168000201B8D9
:03016C000201B8D5
:03017000023491C5
:03017400023493BF
:030178000234B29C
:03017C000234B496
:03018000023494B2
:030184000234B38F
:030188000234B589
:03018C00023564D5
:030190000233FA3D
:0301940002347FB3
:03019800023482AC
:03019C0002348E9C
:0301A00002347DA9
:0301A400023480A2
:0301A80002348D91
:0301AC000234908A
:0301B0000232B563
:0301B40002358E83
:0101B8003214
:1001CF0075813912358FE58260030200A97900E944
:1001DF004400601B7A0090372F78C975923EE493E4
:1001EF00F2A308B800020592D9F4DAF27592FFE48F
:1001FF0078FFF6D8FD78BFE84400600A7900759261
:10020F003EE4F309D8FC780AE84400600C790190C9
:10021F003EBFE4F0A3D8FCD9FAC2000200A9AF8216
:10022F00BF033B7800E2B4EE35787F7461F2743629
:10023F0008F2903661E4937881F2E408F290E000DE
:10024F0012283A7D007EE090E6B57401F090E6B397
:10025F00EEF090E6B4EDF090E6A07480F02278A670
:10026F00EFF2780079A7E2F3903657022E82788565
:10027F007401F2E408F2746008F27883E4F208F291
:10028F00788804F2E408F2788A04F2758251122811
:10029F006BE58260407801E2B4FF0280387801E2BA
:1002AF00B4C201227801E2B4C02B788574C0F27415
:1002BF003F08F2E408F27883740CF2E408F27888CD
:1002CF007440F2E408F2788A04F275825112286BB6
:1002DF00E582600122903FC074F9F0787F74A5F237
:1002EF00743608F278817410F2E408F2903FC1126C
:1002FF00283A903FD1E4F0A3F0A3F0A3F022AF820D
:10030F001FC2D575F002EF30E704B2D5F404A43064
:10031F00D50AF42401C5F0F43400C5F02451F58258
:10032F00743635F0F583E493FEA3E4938E82F58360
:10033F0022903FC0E0FFBFF9028014903FC0E0FF62
:10034F007E0043060490359FEFF0EEA3F0801490EB
:10035F00359B74B4F07404A3F090359D7413F0744E
:10036F0086A3F0903FE9E060219035A1E493F582F8
:10037F0012030D787F742924C0F2E4343F08F27819
:10038F00817416F2E408F212283A903FFFE030E051
:10039F001E9035A2E493F58212030D787F74B6F2A6
:1003AF00743608F278817407F2E408F212283A9052
:1003BF0035A3E493F58212030DAE82AF83903FC055
:1003CF00E0C4540F24408E828F83F074012EFCE41E
:1003DF003FFD903FC0E0FB740F5B24308C828D8318
:1003EF00F08E828F83A3A3A3787F740124C0F2E4DD
:1003FF00343F08F278817410F2E408F202283A20B0
:10040F00000C7802E254056003D2B522C2B522AFC8
:10041F00827802E24FF202040EAF827802E25F604E
:10042F000FEFF4FF7802E25FF212040E75820122E1
:10043F007582002230010A90E6A07401F07481F0F9
:10044F0022D20122AF82BF00028026BF01028005A7
:10045F00BF021A800C758200C0071223CAD0078012
:10046F0010758201C0071223CAD00780047582005D
:10047F002278A5EFF27803E4F27804F27805F278A7
:10048F0006F27819F275820F1212E078A874FFF253
:10049F0078A9F290365712311075820122AF827807
:1004AF00A5E2B40102800878A5E2B4022C8013788B
:1004BF0008E4F28FF005F004800225E0D5F0FBFE92
:1004CF00801B78087401F2EF2FF5F005F0740180AE
:1004DF000225E0D5F0FBFE8004758200227819E436
:1004EF00F28E82C007C0061212E0E582D006D00756
:1004FF007003F582227869EEF27808E2F582C00780
:10050F00C006122425D006D0077807E2B40115786B
:10051F0019EEF2758200C0071212E0E582D0077063
:10052F0003F58222EF2403F87907E3F278A8EFF2BC
:10053F00780779A9E2F390365712311075820122AC
:10054F00E5822403F9E390E740F090E6B57401F0FB
:10055F0090E68AE4F090E68B04F090E6A003F02298
:10056F0090E6B8E0FF235401F508BFC0028008BF32
:10057F0040028003020EADE508701190E6B9E0FF6E
:10058F00BFB009C20190E6A07480F02290E6B9E0F6
:10059F00FFE4BFA90104FE7008BF10028003020729
:1005AF004A7F0090E6BA780BE0F2A3E008F290E6FB
:1005BF00BE780DE0F2A3E008F2EE60057F5102066F
:1005CF005190E6BCE0FDA3E0FEC374039DE49E40A2
:1005DF0071ED2D9005E67380068008800A800C7FF0
:1005EF0051805F7F52805B7F538057780BE2FD080D
:1005FF00E2FEC3E49D74109E4048C005C006780D0E
:10060F00E2FA08E2FEC3E49A74109ED006D00540C9
:10061F0031C005C006780B790DE3C5F0E225F0FA7D
:10062F0009E3C5F008E235F0FEC3E49A74109ED0DA
:10063F0006D005400D7F5174702EFE780BEDF2EE53
:10064F0008F2C201EF7003020EAD780DE2F5F0086B
:10065F00E245F0700122780DE2FA08E2FDC3EA9458
:10066F0040ED940040027A40E508604D90E6A0E02E
:10067F0020E1F978857440F274E708F2E408F27823
:10068F0088EAF2E408F2780B7983E2F308E209F3DF
:10069F00788A7401F28F8212286BE5827003020E42
:1006AF00AD90E6B57401F090E68AE4F090E68BEA3F
:1006BF00F090E6A07480F0805490E6B57401F0904D
:1006CF00E68AE4F090E68BF090E6A0E020E1F9787E
:1006DF008F7440F274E708F2E408F27892EAF2E4D9
:1006EF0008F2780B798DE2F308E209F3789474013C
:1006FF00F278957406F2789674FFF28F821228FBC7
:10070F00E5827003020EAD90E6A07480F0780DE2E2
:10071F00FE08E2FD7C00EEC39AFEED9CFD780DEE27
:10072F00F2ED08F2780BE2FB08E2FEEA2BFAEC3E60
:10073F00FC780BEAF2EC08F2020659BF13028003B1
:10074F000207D590E6BAE0FE90E6BEE0FCA3E0FD1E
:10075F00C2018E82C005C00412124FE582D004D0B0
:10076F00057003020EADE508603590E6A0E020E1CC
:10077F00F98C067817EEF290E740C00612127EE56C
:10078F0082D0067003020EAD90E6B57401F090E6CC
:10079F008AE4F090E68BEEF090E6A07480F0229061
:1007AF00E6B57401F090E68AE4F090E68BF090E6FF
:1007BF00A0E020E1F97818ECF290E7401212AF9028
:1007CF00E6A07480F022E508604BBF124890E6BEA9
:1007DF00E0FDA3E0FEBD013DBE003AC20190E6A0E0
:1007EF00E020E1F9121122E58260027402FE780224
:1007FF00E2FDEE420590E740EDF090E6B57401F0B2
:10080F0090E68AE4F090E68B04F090E6A003F07592
:10081F008201020428E5086003020902BF11028069
:10082F000302090290E6BCE0FDA3E0FE4D6023C089
:10083F00077809E2FB08E2FC0BBB00010C8D028E6E
:10084F0007EAB50306EFB504028005D007020902D7
:10085F00D0078E0790E6BEE0FBA3E0FCC201ED4F90
:10086F007027789DE4F2789E7410F2E408F2903FBE
:10087F00D5F5F0C007C005C004C003122AD5121168
:10088F0037D003D004D005D007EB4C60588B028CC7
:10089F0006C3EA9440EE940040027A4090E6B574A5
:1008AF0001F090E68AE4F090E68BF090E6A0E0206D
:1008BF00E1F97815EAF290E740C007C005C004C01F
:1008CF0003C0021211B0D002D003D004D005D0075C
:1008DF008B098C0A7E00E509C39AFAE50A9EFE8A07
:1008EF00038E0480A490E6A07480F07809EDF2EFF7
:1008FF0008F222BF1802800302099A90E6BEE0FDBB
:10090F00A3E0FEBD1005BE0002800302099AC201DA
:10091F00E508603990E6A0E020E1F9787F741524AE
:10092F00C0F2E4343F08F278817410F2E408F290D8
:10093F00E74012283A90E6B57401F090E68AE4F0A9
:10094F0090E68B7410F090E6A07480F022121204DF
:10095F00E5827003020EAD90E6B57401F090E68A61
:10096F00E4F090E68BF090E6A0E020E1F9787F7458
:10097F0040F274E708F278817410F2E408F2903FC5
:10098F00D512283A90E6A07480F022BF140280039B
:10099F00020A2A90E6BEE0FDA3E0FEBD0205BE00FE
:1009AF00028002807690E6BCE0FEC201E50860346A
:1009BF0090E6A0E020E1F9781F7440F274E708F2A6
:1009CF008E821214D9E5827003020EAD90E6B574D3
:1009DF0001F090E68AE4F090E68B7402F090E6A0C6
:1009EF007480F02290E6B57401F090E68AE4F090FE
:1009FF00E68B7402F090E6A07480F090E6A0E02001
:100A0F00E1F9781B7440F274E708F28E821213B585
:100A1F00E582700675820102041E22E5086069BF37
:100A2F00156690E6BEE0FDA3E0FEBD025BBE00587A
:100A3F0090E6BCE0FEC20190E6A0E020E1F9903F15
:100A4F00C0E0FDBD3200401278427440F274E708F6
:100A5F00F28E82121CC5AD82801078287440F27419
:100A6F00E708F28E82121751AD82ED7003020EADC0
:100A7F0090E6B57401F090E68AE4F090E68B74028C
:100A8F00F090E6A07480F022BF16028003020B9252
:100A9F0090E6BEE0FDA3E0FEBD0405BE00028003AC
:100AAF00020B9290E6BCE0FEC201E508606990E699
:100ABF00A0E020E1F9903FC0E0FDBD3200401E787C
:100ACF004F7440F274E708F2785174022440F2E454
:100ADF0034E708F28E82121ED4AD82801C783674F1
:100AEF0040F274E708F2783874022440F2E434E7F5
:100AFF0008F28E8212195CAD82ED7003020EAD907A
:100B0F00E6B57401F090E68AE4F090E68B7404F099
:100B1F0090E6A07480F02290E6B57401F090E68A1A
:100B2F00E4F090E68B7404F090E6A07480F090E609
:100B3F00A0E020E1F9903FC0E0FDBD3200401E78FB
:100B4F00467440F274E708F2784874022440F2E4E5
:100B5F0034E708F28E82121D38AD82801C782C7417
:100B6F0040F274E708F2782E74022440F2E434E77E
:100B7F0008F28E821217C1AD82ED700675820102E6
:100B8F00041E22E5086065BF176290E6BEE0FDA374
:100B9F00E0FEBD0157BE0054C2017E0190E6A0E009
:100BAF0020E1F9903FC0E0FDBD320040117858744C
:100BBF0001F290E740C006122061D006800D783D0B
:100BCF007401F290E740121A6FAE82EE7003020EBC
:100BDF00AD90E6B57401F090E68AE4F090E68B04F0
:100BEF00F090E6A003F0758204020428E508702750
:100BFF00BF192490E6BEE0FDA3E04D701A90E6BA4F
:100C0F00E0FDA3E04D24FFE433F582C20112135837
:100C1F0090E6A07480F022BF1A028003020CF190BC
:100C2F00E6BEE0FDA3E0FEBD0205BE0002800302AA
:100C3F000CF190E6BCE0FEC201E508603490E6A03E
:100C4F00E020E1F978257440F274E708F28E821201
:100C5F001681E5827003020EAD90E6B57401F09037
:100C6F00E68AE4F090E68B7402F090E6A07480F0D0
:100C7F002290E6B57401F090E68AE4F090E68B746A
:100C8F0002F090E6A07480F090E6A0E020E1F97801
:100C9F00237440F274E708F28E82121597E5827082
:100CAF000675820102041E788F74E5F2743F08F214
:100CBF00E408F2788D7431F2E408F278927404F259
:100CCF00E408F2789404F278957408F2789674FF39
:100CDF00F27582511228FBE58270067582010204BB
:100CEF001E22BF1B028003020DAA90E6BEE0FDA3E9
:100CFF00E0FEBD0205BE00028003020DAA90E6BC15
:100D0F00E0FEC201E508604D90E6A0E020E1F99019
:100D1F003FC0E0FDBD30005003020EAD786574405A
:100D2F00F274E708F2786774012440F2E434E708BC
:100D3F00F28E8212230BE5827003020EAD90E6B5A0
:100D4F007401F090E68AE4F090E68B7402F090E67E
:100D5F00A07480F02290E6B57401F090E68AE4F07A
:100D6F0090E68B7402F090E6A07480F090E6A0E01D
:100D7F0020E1F9903FC0E0FDBD3000401790E74003
:100D8F007863E0F290E7417864E0F28E821222CE2F
:100D9F00E582700675820102041E22E5087029BFE4
:100DAF001C2690E6BEE0FDA3E04D701C90E6BCE073
:100DBF00FEC201D20053B0C353060FEE2E25E04200
:100DCF00B090E6A07480F022E5086036BF0F339034
:100DDF00E6BEE0FDA3E0FEBD0128BE0025C20190E6
:100DEF00E6A0E020E1F990E7407404F090E6B574D6
:100DFF0001F090E68AE4F090E68B04F090E6A00311
:100E0F00F022E508604ABFC04790E6BCE0FDA3E0D2
:100E1F00FEBD043CBE0039C201787F7473F2743694
:100E2F0008F29036737881E493F2A3E49308F2907A
:100E3F00E00012283A7D007EE090E6B57401F09054
:100E4F00E6B3EEF090E6B4EDF090E6A07480F022F9
:100E5F00E508604ABFC04790E6BCE0FEA3E0FFBED6
:100E6F00053CBF0039C201787F749BF2743608F2DB
:100E7F0090369B7881E493F2A3E49308F290E0001C
:100E8F0012283A7E007FE090E6B57401F090E6B349
:100E9F00EFF090E6B4EEF090E6A07480F022C2017D
:100EAF0090E6A07401F07481F022C2A832903EC087
:100EBF00E4F0A3F075820412041E903FC0E0FFBF60
:100ECF0032004008903EBF121FB6800A783DE4F210
:100EDF00903EBF121A6F903EBFE0FF781B74C0F2B6
:100EEF00743E08F28F821213B5903FC0E0FFBF32FD
:100EFF00004009903EBFE0F5821220CAD2A82220FE
:100F0F000002C2B4C2CAC2CF32C0E0C082C08320C6
:100F1F000002D2B4D2CA5391EF90E65F74F3F0D0CF
:100F2F0083D082D0E032020F18020F18020F18027E
:100F3F000F18020F18020F1890E6007412F090E6C7
:100F4F007A7401F012027D12034012134C903FC0CD
:100F5F00E0FFBF3200400F121BF7E582700B758266
:100F6F000112041E80031216D812111C12235D12D7
:100F7F00326F90E611E4F012326F90E610E4F04316
:100F8F00B534D2B253B0CF75C801D2AD90E65EE0A2
:100F9F0043E0F3F0D2A8903FD1E0FCA3E0FDA3E043
:100FAF00FEA3E0FFEC4D4E4F70030210D7903FD1E0
:100FBF00780FE0F2A3E008F2A3E008F2A3E008F252
:100FCF007D527813E4F208F2D2B4C005121137D073
:100FDF0005780FE2F5F008E242F008E242F008E28D
:100FEF0045F070030210B57C80780FC3E29480083F
:100FFF00E2940008E2940008E294005004780FE2B3
:10100F00FC78857400F274E008F2E408F27888EC5A
:10101F00F2E408F278137983E2F308E209F3788AAD
:10102F007401F28D8212286BE582700875820112AD
:10103F00041E80727815ECF290E000C005C0041217
:10104F0011B0D004D0058C027B007E007F00780F9A
:10105F00E2C39AF208E29BF208E29EF208E29FF2E4
:10106F008C037813E2FA08E2FFEB2AFAEE3FFF78DF
:10107F0013EAF2EF08F27813E2F5F008E245F060B8
:10108F0003020FE08D03EB04FDBD54028003020F3A
:10109F00E07D517813E2FA08E22470FB7813EAF24C
:1010AF00EB08F2020FE0780FE2F5F008E242F008E9
:1010BF00E242F008E245F0700D121204E58270066C
:1010CF0075820112041EC2B4758201122B303001D9
:1010DF000312056F20A803120EBC2000F190E687C3
:1010EF00E0702690E684E0FFC313FF24FC40DFEF9F
:1010FF002F901104738006800C80068008D2B28076
:10110F00CDC2B280C9B2B280C5D2B280C143B508D8
:10111F00021122308309200002D2B37582012220EE
:10112F000002C2B375820022903FC0E0FFBF1002E1
:10113F008019BF20028014BF3002801EBF31028091
:10114F0019BF32028014BF333A800F43B502C2B1C8
:10115F00900001123535D2B18029903EC3E4F0A33F
:10116F00F0781B74C3F2743E08F27582031213B544
:10117F009000FA12353F43B202C28190000112353E
:10118F0035D28112326F90E601E053E0FCF053B29A
:10119F00F743B31CD294C2939004B01235350211A9
:1011AF002275AF0385829B85839A90E67B7815E243
:1011BF00F8E0A2E7C2949292D294A2E6C2949292DD
:1011CF00D294A2E5C2949292D294A2E4C294929243
:1011DF00D294A2E3C2949292D294A2E2C294929237
:1011EF00D294A2E1C2949292D294A2E0C29492922B
:1011FF00D294D8BD227431C29400D294D5E0F85362
:10120F00B3E3903FC0E0FFBF10028019BF20028000
:10121F0014BF30028019BF31028014BF3202800F19
:10122F00BF3314800A90E601E043E023F08008907A
:10123F00E601E043E063F0903EC2740FF00211222A
:10124F00E5827816F2758210122622E582601978EF
:10125F00737401F2E408F2903E1675F06012265B8B
:10126F00E58260047582012212263A75820022AE51
:10127F0082AF83758211122622E582601C7D007871
:10128F00177978E2F3E409F38E828F838DF01226BB
:10129F00E1E58260047582012212263A75820022EE
:1012AF00AE82AF837D0078187973E2F3E409F38E91
:1012BF00828F838DF012265BE582600E12263AE54F
:1012CF00827003F582227582012212263A758200FE
:1012DF0022AF82C007121122E582D00770047582F7
:1012EF000122EF6025903EC2E04FF075820112128D
:1012FF004FE5827003F5822278187401F2903EC296
:10130F001212AFE5827003F582227819E2602A7813
:10131F0019E2F4FF903EC2E05FF075820112124FA6
:10132F00E5827003F5822278187401F2903EC212A2
:10133F0012AFE5827003F5822275820122C2B0C21C
:10134F00B6D2B743B5C1C2B722E5826003C2B72296
:10135F00D2B722AF827E008F05BD0102800ABF0285
:10136F00028017BD031F8016903FC0E0FFBF330000
:10137F0050047E0C800F7E0E800B7E0D8007781A36
:10138F00E270027E48EE7003F58222EE2EFE781A8E
:10139F00E24EF582122622E582700712263A7582F6
:1013AF00002275820122AF827E00781BE2F582084F
:1013BF00E2F583E0FCA3E0FDEF30E0027E01EF30C9
:1013CF00E103430640EF30E013903FE5E0FAA3E07E
:1013DF00FBC3EA9CEB9D500475820022EF30E113B2
:1013EF00903FE7E0FAA3E0FBC3EA9CEB9D50047546
:1013FF00820022EC4D700DEEF452B0781DE4F278BD
:10140F001EF280798C028D03C3EA9472EB9406402E
:10141F0008747C9A74159B500475820022C006EAEA
:10142F00248EFAEB34F9FB78AFEAF2E2F5F0EBC475
:10143F00C5F0C4540F65F0C5F0540FC5F065F0F258
:10144F00C5F008F290010DC007C006C005C0041218
:10145F003294AA82AB83D004D005D006D007EBC458
:10146F00CAC4540F6ACA540FCA6ACAFB74E0C39A3B
:10147F00FA740F9B781DF2781EEAF2D006781AE400
:10148F00F28F82C006C005C004121362E582D00439
:10149F00D005D0067003F5822278737402F2E40847
:1014AF00F2903E1D75F06012265BE58270071226E2
:1014BF003A7582002212263AE5827003F58222ECF9
:1014CF004D6003EE42B075820122AF82BF010280F0
:1014DF0005BF020A80047E0180087E408004758269
:1014EF000022EE55B07011781FE2F58208E2F58305
:1014FF00E4F0A3F075820122781A7401F28F821240
:10150F001362E5827003F5822278787402F2E408A0
:10151F00F2903E2175F0601226E1E5827003F582AC
:10152F00227821E2FE7F007822E27C004207EC4223
:10153F0006781FE2FC08E2FDEEC4CFC4540F6FCF54
:10154F00540FCF6FCFFE74FFC39FFFE49EFE78AFA3
:10155F00EFF2EE08F2900098C005C00412329478B2
:10156F0070740AF2E408F2122596E5828583F0D0B2
:10157F0004D0052472FE740635F0FF8C828D83EE45
:10158F00F0EFA3F075820122AF827823E2FD08E22B
:10159F00FE8D828E83E0FBA3E0FC4B601D8B0B8CDA
:1015AF000CC3E50B9472E50C9406400A747C950B02
:1015BF007415950C500475820022750B13750C373A
:1015CF00850B0D850C0E850D82850E83E493FA70C5
:1015DF000302167DEA5F700302166F781F74C5F25F
:1015EF00743E08F28A82C007C006C005C004C0035B
:1015FF001214D9E582D003D004D005D006D00770DD
:10160F0003F58222C007903EC5E0FAA3E0FFC3EBCB
:10161F009AEC9FD0075030850D82850E83E493FAA4
:10162F00781BEDF2EE08F28A82C007C006C005C033
:10163F0004C0031213B5E582D003D004D005D00641
:10164F00D0077003F58222850B82850C83A3E49368
:10165F0025E024E5F582E4343FF583EBF0ECA3F0CD
:10166F007402250BF50BE4350CF50C0215CF7582C2
:10167F000122AF827E137D378E038D048B828C8384
:10168F00E493FA6040EFB5022F7825E2F53408E2D3
:10169F00F5358E828D83A3E49325E024E5F582E46E
:1016AF00343FF583E0FDA3E0FE853482853583ED7D
:1016BF00F0EEA3F07582012274022BFBE43CFC8B4D
:1016CF00068C0580B77582002290E670E043E0013A
:1016DF00F05388FE22A982E3FE7F0009E37C0042DB
:1016EF0007EC4206EEC4CFC4540F6FCF540FCF6F29
:1016FF00CFFE78AFEFF2EE08F2900103123294783A
:10170F0070740AF2E408F2022596AE82AF8378AFC6
:10171F00EEF2EF08F290000A12329478707403F22E
:10172F00740108F2122596AE82E583C454F0CEC43C
:10173F00CE6ECE54F0CE6EFF7827E2F9EFF309EEBE
:10174F00F322AF827D197E378D038E048B828C83BB
:10175F00E493FA6059EFB502488D828E83A3E49328
:10176F00FA786B742AF2786AE4F2786C7402F28A6F
:10177F00821224E4E5827003F582227828E2F50FC5
:10178F0008E2F51075822A1216E4858211858312FC
:10179F00850F82851083E511F0E512A3F0758201A4
:1017AF002274022BFBE43CFC8B058C06809E758219
:1017BF000022AF827830E4F27831F27832740FF28F
:1017CF007833F4F278347403F27835E4F2782CE25B
:1017DF00F58208E2F583E0FDA3E0FE8D038E04C3DE
:1017EF00747C9B74159C4023C007782EE2FB08E2A3
:1017FF00FC8B828C83E0FAA3E0FF8A138F14C374EF
:10180F007C951374159514D007500475820022ED42
:10181F004E700C747CB513077415B51402803778AD
:10182F00277430F28D828E83C007C004C003121755
:10183F0019D003D0048B828C83E0FBA3E0FC7827C4
:10184F007432F28B828C83121719D0077835741487
:10185F00F2783574D4F27D197E378D828E83E493BE
:10186F00FC7003021958EC5F700302194E74012DBE
:10187F00FBE43EFC8B828C83E493FA786E7430F237
:10188F00786D7403F2786F14F28A82C007C006C0B5
:10189F0005C004C00312253CE582D003D004D00557
:1018AF00D006D0077003F582228B828C83E493FAE3
:1018BF00786E7432F2786D7404F2786F03F28A8264
:1018CF00C007C006C005C004C00312253CE582D086
:1018DF0003D004D005D006D0077003F582228B8287
:1018EF008C83E493FA786E7434F2786D7401F27825
:1018FF006FF28A82C007C006C005C004C00312255C
:10190F003CE582D003D004D005D006D0077003F594
:10191F0082228B828C83E493FB786E7435F2786D20
:10192F007402F2786F14F28B82C007C006C00512E2
:10193F00253CE582D005D006D0077003F5822274CE
:10194F00022DFDE43EFE02186975820122AF827DF1
:10195F00197E378D038E048B828C83E493FA700388
:10196F00021A61EFB502028003021A5374012DF5BA
:10197F0015E43EF516851582851683E493FD786B85
:10198F00743CF2786A7402F2786C14F28D8212242D
:10199F00E4E5827003F58222783CE270217836E22A
:1019AF00F58208E2F583E4F0A3F07838E2F58208D7
:1019BF00E2F583747CF07415A3F07582012285150E
:1019CF0082851683E493FD786B743AF2786A740318
:1019DF00F2786C14F28D821224E4E5827003F582A2
:1019EF00227836E2F51708E2F51875823A1216E4F6
:1019FF00AA82AE83851782851883EAF0EEA3F0855D
:101A0F001582851683E493FE786B743AF2786A74C4
:101A1F0004F2786C03F28E821224E4E5827003F5EF
:101A2F0082227838E2F51708E2F51875823A121615
:101A3F00E4AA82AE83851782851883EAF0EEA3F0BD
:101A4F007582012274022BFBE43CFC8B058C060291
:101A5F00196675820022A280B39202E433F58222C6
:101A6F00AE82AF83E4F07C197D378C028D038A82BE
:101A7F008B83E4937003021BAFC002C00374012C6D
:101A8F00F519E43DF51A851982851A83E493FB78DD
:101A9F006B743EF2786A7401F2786CF28B82C00735
:101AAF00C006C005C004C003C0021224E4E582D002
:101ABF0002D003D004D005D006D007D003D00270D7
:101ACF0003F58222783EE27003021BA5C004C00515
:101ADF00783FE4F28E828F83E0FD8A828B83E493DA
:101AEF0042058E828F83EDF0851982851A83E493E8
:101AFF00FD786B743FF2786A7402F2786C14F28D91
:101B0F0082C007C006C005C0041224E4E582D004D9
:101B1F00D005D006D007D005D0047003F582227807
:101B2F003DE2603A851982851A83E493FB786B74E2
:101B3F003EF2786A7401F2786CF28B82C007C006AD
:101B4F00C005C0041224E4E582D004D005D006D02D
:101B5F00077003F58222783FE24404F28006783F53
:101B6F00E254FBF28C828D83A3E493FB786E743F77
:101B7F00F2786D7402F2786F14F28B82C007C00690
:101B8F00C005C00412253CE582D004D005D006D094
:101B9F00077003F5822274022CFCE43DFD021A79D2
:101BAF0075820122AF82786E7440F2786D7412F2F2
:101BBF00786FE4F28F82C00712253CE582D0077060
:101BCF0003F58222784074FFF2786E7440F2786DDC
:101BDF0074D2F2786F7401F28F8212253CE5827015
:101BEF0003F58222758201227E1F7F378E048F05B7
:101BFF008C828D83E49360378E828F83A3E493FC72
:101C0F00A3E493FD8C828D83E4F08E828F83A3A354
:101C1F00A393F582C007C006121BB3E582D006D08E
:101C2F00077003F5822274042EFEE43FFF80BD751A
:101C3F00820122E582F904F8E2FF7E007D008D2506
:101C4F008E248F238E22E3FAE4FBFFE523420378F1
:101C5F00B1EAF2EB08F2EE08F2EF08F2900005E4B9
:101C6F00F5F01232B6AC82AD83AEF0C313FFEE13B4
:101C7F00FEED13FDEC13FCEFC313EE13ED13FDECB0
:101C8F0013F5828D8322AE82AF83EE2EF582EF3372
:101C9F00F583E5822582F582E58333F583787074C9
:101CAF0005F2E408F2122596AE82AF837841E2F98D
:101CBF00EEF309EFF322AF827D1F7E378D038E0483
:101CCF008B828C83E493FA605CEFB5024B8D828E2E
:101CDF0083A3A3A3E493FA786B7444F2786A7488AD
:101CEF00F2786C7402F28A821224E4E5827003F5B2
:101CFF0082227842E2F52608E2F527758244121C0B
:101D0F0042858228858329852682852783E528F0C9
:101D1F00E529A3F07582012274042BFBE43CFC8BB4
:101D2F00058C06809B75820022AF82784AE4F27898
:101D3F004BF2784C74F8F2784D747FF2784E74FF52
:101D4F00F27846E2F58208E2F583E0FDA3E0FE8D2E
:101D5F00038E04C3747C9B74159C401DC007784888
:101D6F00E2FB08E2FC8B828C83E0FAA3E0FFC374F2
:101D7F007C9A74159FD007500475820022ED4E6037
:101D8F001E7841744AF28D828E83C007C004C0034F
:101D9F00121C95D003D004D007784EE254FEF28B7C
:101DAF00828C83E0FDA3E0FE8D038E04BB7C05BC1B
:101DBF00150280167841744CF28D828E83C0071203
:101DCF001C95D007784EE254FDF27D1F7E378D8231
:101DDF008E83E493FC7003021ED0EC5F7003021E2F
:101DEF00C674032DFBE43EFC8B828C83E493FA785C
:101DFF006E744AF2786D7458F2786F7402F28A82B8
:101E0F00C007C006C005C004C00312253CE582D040
:101E1F0003D004D005D006D0077003F582228B8241
:101E2F008C83E493FA786E744CF2786D7457F27871
:101E3F006F7402F28A82C007C006C005C004C003D7
:101E4F0012253CE582D003D004D005D006D0077010
:101E5F0003F582228B828C83E493FA786E744EF2B0
:101E6F00786D74D2F2786F7401F28A82C007C0065F
:101E7F00C005C004C00312253CE582D003D004D0B6
:101E8F0005D006D0077003F582228B828C83E493F2
:101E9F00FB786E744EF2786D7403F2786FE4F28B08
:101EAF0082C007C006C00512253CE582D005D006CA
:101EBF00D0077003F5822274042DFDE43EFE021D4F
:101ECF00DD75820122AF827D1F7E378D038E048BDD
:101EDF00828C83E493FA7003021FB2EFB502028083
:101EEF0003021FA474032DF52AE43EF52B852A82E5
:101EFF00852B83E493FD786B7453F2786A7458F2F0
:101F0F00786C7402F28D821224E4E5827003F582FC
:101F1F0022784FE2F52C08E2F52D758253121C4200
:101F2F00AA82AE83852C82852D83EAF0EEA3F085FD
:101F3F002A82852B83E493FE786B7453F2786A744C
:101F4F0057F2786C7402F28E821224E4E5827003E9
:101F5F00F582227853E2FEBEF8197854E2FEBE7F76
:101F6F00127851E2F58208E2F583747CF07415A3C0
:101F7F00F0801E7851E2F52C08E2F52D7582531290
:101F8F001C42AA82AE83852C82852D83EAF0EEA3B4
:101F9F00F07582012274042BFBE43CFC8B058C064C
:101FAF00021EDE75820022AF83E5827855F2EF08BC
:101FBF00F27855E2F58208E2F583E4F07C1F7D3775
:101FCF008C028D038A828B83E493700302205DC0A1
:101FDF0002C0038C828D83A3A3A3E493FB786B745D
:101FEF0057F2786A7480F2786C23F28B82C005C046
:101FFF0004C003C0021224E4E582D002D003D0044F
:10200F00D005D003D0027003F582227857E2540F27
:10201F0060327855E2F58208E2F583E0FF8A828B21
:10202F0083E49342077855E2F58208E2F583EFF0F7
:10203F008C828D83A3E493FEA3E493FF8E828F8320
:10204F007857E2F074042CFCE43DFD021FCF75823B
:10205F000122AE82AF83E4F07C1F7D378C828D83AB
:10206F00E493FB6055C00374012CF534E43DF53562
:10207F00853482853583E493FAA3E493FB8A828BBC
:10208F0083E0540F7004D0038027D0038E828F8398
:10209F00E042038E828F83EBF07858E26013853431
:1020AF0082853583E493FAA3E493FB8A828B83E4DE
:1020BF00F074042CFCE43DFD80A222AF827D1F7ED4
:1020CF00378D828E83E493FC70030221EAEC5F70FC
:1020DF00030221E074032DFBE43EFC8B828C83E42E
:1020EF0093FA786B7459F2786A7458F2786C7402B8
:1020FF00F28A82C007C006C005C004C0031224E4E0
:10210F00E582D003D004D005D006D0077003F58246
:10211F00228B828C83E493FA786B745BF2786A7407
:10212F0057F2786C7402F28A82C007C006C005C0ED
:10213F0004C0031224E4E582D003D004D005D006F6
:10214F00D0077003F582228B828C83E493F582C0D3
:10215F0007C006C005C004C003121BB3E582D0033D
:10216F00D004D005D006D0077003F582228B828C65
:10217F0083E493FA786E7459F2786D7458F2786F2D
:10218F007402F28A82C007C006C005C004C00312E1
:10219F00253CE582D003D004D005D006D0077003CC
:1021AF00F582228B828C83E493FB786E745BF278DA
:1021BF006D7457F2786F7402F28B82C007C006C03D
:1021CF000512253CE582D005D006D0077003F582B5
:1021DF002274042DFDE43EFE0220D075820122AF51
:1021EF00827E008F05BD01028005BF020880047E3C
:1021FF002080027E21EE7003F58222EE2EFE785DA6
:10220F00E24EF582122622E5827003F58222758254
:10221F000122AF82785DE4F28F821221EEE58260B7
:10222F003878737401F2E408F2903E5E75F0601234
:10223F00265BE582602378737401F2E408F2903E26
:10224F005F75F06012265BE582600E12263AE5821A
:10225F007003F582227582012212263A75820022BE
:10226F00AF82785DE4F28F82C0071221EEE582D053
:10227F0007604578737401F2E408F2903E6075F0E0
:10228F006012265BE5826030785D7401F28F8212F6
:10229F0021EEE58260227861E2FD08E2FE7F0078A0
:1022AF00787401F2E408F28D828E838FF01226E1AA
:1022BF00E58260047582012212263A75820022AFF0
:1022CF0082785E7401F27864795FE2F38F82C007DF
:1022DF00122221E582D0077003F582227863E2F49F
:1022EF00F2785E7403F27863795FE2F38F821222E1
:1022FF0021E5827003F5822275820122AF82786018
:10230F007401F278677961E2F308E209F38F82C012
:10231F000712226FE582D0077003F582227860746E
:10232F0003F278657961E2F308E209F38F821222F2
:10233F006FE5827003F582227865E2FE08E2FF8E78
:10234F00828F83E0F48E828F83F0758201221232A6
:10235F006F90E60B7403F012326F90E6017480F009
:10236F0012326F90E6047480F012326F90E609E437
:10237F00F012326F90E6027498F012326F90E6030B
:10238F0074FEF012326F90E670E043E080F012328C
:10239F006F90E618E053E0FEF012326F90E619E00E
:1023AF0053E0FEF012326F90E61AE053E0FEF012A7
:1023BF00326F90E61BE053E0FEF022E582FF6006ED
:1023CF007E007D0080047E027D8012326F90E604D5
:1023DF007480F012326F90E61274A04EF012326FCA
:1023EF0090E61374204DF012326F90E61474E04EA5
:1023FF00F012326F90E61574604DF0EF60047E05B9
:10240F0080027E0F7869EEF28F8212242512326FCE
:10241F0090E604E4F022AF827869E2FE30E04312E6
:10242F00326F90E618E4F012326F90E604E043E06A
:10243F0002F012326F90E6497482F012326F90E61A
:10244F00497482F0EF601212326F90E6497482F095
:10245F0012326F90E6497482F012326F90E6187460
:10246F0010F0EE30E12E12326F90E619E4F01232D6
:10247F006F90E604E043E004F012326F90E6497487
:10248F0084F012326F90E6497484F012326F90E646
:10249F00197410F0EE30E21C12326F90E61AE4F06D
:1024AF0012326F90E604E043E006F012326F90E6CE
:1024BF001A7404F0EE30E31C12326F90E61BE4F056
:1024CF0012326F90E604E043E008F012326F90E6AC
:1024DF001B7404F022E5822582FFF582122622E585
:1024EF0082604378737401F2E408F2903E6A75F0EB
:1024FF006012265BE582602E74014FF58212262250
:10250F00E5826022786BE2FD7E007F60786C7978DF
:10251F00E2F3E409F38D828E838FF01226E1E582D8
:10252F0060047582012212263A75820022E5822507
:10253F0082F582122622E582604678737401F2E4F6
:10254F0008F2903E6D75F06012265BE5826031787F
:10255F006FE2601E786EE2FD7E007F60786F7973A8
:10256F00E2F3E409F38D828E838FF012265BE5820E
:10257F00600E12263AE5827003F5822275820122DF
:10258F0012263A75820022AE82AF837C007D007BDB
:10259F0010EF235401FAEE2EFEEF33FFEC2CFCED7F
:1025AF0033FDEA60034304017870C3E2F5F0EC9564
:1025BF00F008E2F5F0ED95F040117870D3E29CF45D
:1025CF00B3FCB308E29DF4FD430601DBC48E828F9A
:1025DF008322C007C006C000AF8290E678E020E0FB
:1025EF000E7872E260F47872E4F2758200801D90CA
:1025FF00E678E030E2057582008011EF600B90E61F
:10260F0078E0035401F5828003758201D000D00673
:10261F00D00722C007AF8290E6787480F090E679F9
:10262F00EFF07582011225E1D00722C00790E678FE
:10263F00E030E205758200801090E6787440F090EB
:10264F00E678E020E6F9758201D00722C007C006C0
:10265F00C004C003C002C000AFF0AE83E58278753E
:10266F00F2EE08F2EF08F27873E2F5F008E245F0C7
:10267F007005758201804E7B007C007873E2B50394
:10268F000708E2B50402802A7875E22BFA08E23CCB
:10269F00FE08E2FF8A828E838FF012356A90E67908
:1026AF00F07582011225E1E58260070BBB00CC0CAF
:1026BF0080C97873E2B5030808E2B50403D380013B
:1026CF00C3E433F582D000D002D003D004D006D0BB
:1026DF000722C007C006C005C004C003C002C00166
:1026EF00C000AFF0AE83E582787AF2EE08F2EF0821
:1026FF00F27878E2F5F008E245F070067582010293
:10270F0028297878E2FB08E2FCBB0109BC0006909F
:10271F00E6787420F090E679E07B007C00787DE429
:10272F00F208F2787D7978E2F5F0E3B5F00C08E283
:10273F00F5F009E3B5F0030228037582001225E1D5
:10274F00E5827003022816787DE2FD08E2FE74022E
:10275F002DFDE43EFE7878E2B5050708E2B50602E6
:10276F008002800690E6787420F0787DE2FD08E222
:10277F00FE0DBD00010E7878E2B5050708E2B5063B
:10278F00028002803575AF03759AE6759B7890E6E7
:10279F007B7440F0E0ACE0787A797DE3C5F0E22518
:1027AF00F0FD09E3C5F008E235F0FE08E2FF8D8287
:1027BF008E838FF0EC1232788025787A797DE3C59D
:1027CF00F0E225F0FD09E3C5F008E235F0FE08E27E
:1027DF00FF90E679E0FA8D828E838FF0123278784F
:1027EF007DE22401F208E23400F2787DE2FB08E298
:1027FF00FC02273290E678E030E205758200801AFD
:10280F0090E678E020E6F97878E2B5030808E2B5BB
:10281F000403D38001C3E433F582D000D001D0028A
:10282F00D003D004D005D006D00722AA82AB83787C
:10283F007FE2FC08E2FD7881E2FE08E2FFEE600134
:10284F000FEF601775AF078A9B8B9A8C9E8D9D90AB
:10285F00E67CE090E67BF0DEF6DFF422C007C006F0
:10286F00C001C000AF82788AE260127884E2FE78FD
:10287F008BEEF27883E2FE788CEEF280087883E2BA
:10288F00FE788BEEF2EF2FFFF582122622E58260A3
:10289F004C788AE2FE0E7873EEF2E408F2903E8BEB
:1028AF0075F06012265BE582603374014FF582127A
:1028BF002622E582602778887978E2F308E209F327
:1028CF007885E2F58208E2F58308E2F5F01226E159
:1028DF00E5827004F582800B758201800612263A1C
:1028EF00758200D000D001D006D00722C007C006E5
:1028FF00C005C004C003C002C001C000AF827897FA
:10290F00E4F208F2EF2FFFF582122622E582700320
:10291F00022AA47895E2F5F005F07B017C00800691
:10292F00EB2BFBEC33FCD5F0F778977992C3E3F5FB
:10293F00F0E295F009E3F5F008E295F04003022A82
:10294F00A47894E26012788EE2FA7899EAF2788DA0
:10295F00E2FA789AEAF28008788DE2FA7899EAF248
:10296F007894E2FA0A7873EAF2E408F2903E9975E5
:10297F00F06012265BE5827003022AA4C007788DEF
:10298F00E2F58208E2F5838B028C0778BDEAF2EF5D
:10299F0008F2C007C004C003C002C001C000123358
:1029AF00FBAD82AE83D000D001D002D003D004D0D3
:1029BF0007EAC39DFAEF9EFF789BEAF2EF08F278E1
:1029CF00927997E3F5F0C3E295F0FE09E3F5F0088D
:1029DF00E295F0FF789BC3E2F5F0EE95F008E2F593
:1029EF00F0EF95F0D007502078927997E3F5F0C388
:1029FF00E295F0C0E009E3F5F008E295F0C0E07869
:102A0F009CD0E0F218D0E0F2788F7997E3C5F0E22E
:102A1F0025F0FA09E3C5F008E235F0FD08E2FE788B
:102A2F009B7973E2F308E209F38A828D838EF012A9
:102A3F00265BE582605F12263AE5827004F582809C
:102A4F00737E007896E2600B7896C3E2F5F0EE9510
:102A5F00F0500C8F82122622E58270030E80E478EC
:102A6F0096E2B50605758200804A788D799BE3C59D
:102A7F00F0E225F0F209E3C5F008E235F0F27897BD
:102A8F00799BE3C5F0E225F0F209E3C5F008E235E2
:102A9F00F0F202293812263A78977992E2F5F0E3AC
:102AAF00B5F00C08E2F5F009E3B5F003D38001C3EC
:102ABF00E433F582D000D001D002D003D004D0058A
:102ACF00D006D0072232AFF0AE83E58278A0F2EEC7
:102ADF0008F2EF08F2789EE2F53408E2F535789EB9
:102AEF00E2F5F008E245F0602A78A0E2FA08E2FB8E
:102AFF0008E2FC789DE2FFAD34AE358A828B838C81
:102B0F00F0EF123278A3AA82AB831DBDFF011EED39
:102B1F004E70E878A0E2F58208E2F58308E2F5F05E
:102B2F0022AF8278A4E4F278A5F2D2E890E668E0CA
:102B3F0043E008F090E65CE043E001F090E65D745E
:102B4F0001F0D2AF90E680E020E10890E680E0430C
:102B5F00E002F0EF600E90E680E043E008F09000B6
:102B6F000A12353F90E680E053E0F7F022AF82BFC4
:102B7F0000028037BF01028036BF02028039BF04D6
:102B8F00028038BF06028037BF08028036BF80023E
:102B9F008019BF8102801CBF8202801BBF8402800C
:102BAF001ABF86028019BF881E801890E6A0229057
:102BBF00E6A12290E6A22290E6A32290E6A422901C
:102BCF00E6A52290E6A62290000022C021C0E0C018
:102BDF00F0C082C083C007C006C005C004C003C0D8
:102BEF0002C001C000C0D075D000C08675860090AD
:102BFF00E6B8E0FFE4BF800104FE601B90E6B9E099
:102C0F00FDBD061390E6BAE0FCA3E0F5827800EC78
:102C1F00F212022D022E58EF702A90E6B9E0FDBD98
:102C2F00092290E6BAE0F582120453E5826009901A
:102C3F00E6A07480F0022E5890E6A07401F0748123
:102C4F00F0022E58EE600E90E6B9E0FDBD080612B8
:102C5F003495022E588F05BD013290E6B9E0FDBDC7
:102C6F000B2A90E6BCE0FD90E6BA7807E0F28D8281
:102C7F001204ACE582600990E6A07480F0022E5831
:102C8F0090E6A07401F07481F0022E58E4BF810128
:102C9F0004FD601490E6B9E0FCBC0A0C90E6BCE0C1
:102CAF00F58212054F022E58EF703790E6B9E0FC0F
:102CBF00BC032F90E6BAE0FBA3E0FCBB0110BC0005
:102CCF000D78A47401F290E6A003F0022E58BB0217
:102CDF0005BC00028003022E5890E6A07480F0021B
:102CEF002E58EE603590E6B9E0702F78A3E2FE78AB
:102CFF00A4E225E0FC420690E740EEF090E741E4C5
:102D0F00F090E6B504F090E68AE4F090E68B74025A
:102D1F00F090E6A07480F0022E58ED602890E6B98E
:102D2F00E0702290E740E4F090E741F090E6B504C0
:102D3F00F090E68AE4F090E68B7402F090E6A074CF
:102D4F0080F0022E58BF02028003022E0290E6B9D5
:102D5F00E0FEBE03028008BE01028003022E029035
:102D6F00E6BAE0FDA3E0FE4D6003022E5890E6BCEC
:102D7F00E0F582122B7CAD82AE83ED4E7003022EF6
:102D8F005890E6B9E0FCBC03188D828E83E0FC43BB
:102D9F0004018D828E83ECF090E6A07480F0022EF9
:102DAF005890E6BCE0F582C006C005123483E58278
:102DBF00D005D0067003022E588D828E83E0FC530F
:102DCF0004FE8D828E83ECF090E6BCE0FDA3E08DD7
:102DDF000453040F530580E423CDC423541F6DCD3A
:102DEF00541FCD6DCDFE90E683ED4CF0E043E02017
:102DFF00F08056BF824D90E6B9E0704790E6BCE098
:102E0F00F582122B7CAE82AF838E048F05EE4F605E
:102E1F00388C828D83E05401FCB40100B39203E43B
:102E2F0033FF90E740F090E741E4F090E6B504F00F
:102E3F0090E68AE4F090E68B7402F090E6A074803E
:102E4F00F0800690E6B81204435391EF90E65D745C
:102E5F0001F0D086D0D0D000D001D002D003D00462
:102E6F00D005D006D007D083D082D0F0D0E0D021CB
:102E7F000200ACAE82AF8378A6E2B4012C78A7E251
:102E8F0070278E828F83E493FCA3E493FD787FEC0D
:102E9F00F2ED08F28C828D83E4937881F2E408F2EC
:102EAF0090E00012283A0230F578A6E2B4063B789B
:102EBF00A7E270368E828F83A3A3E493FCA3E493DF
:102ECF00FD4C700A90E6A07401F07481F022787FB7
:102EDF00ECF2ED08F28C828D83E4937881F2E408B2
:102EEF00F290E00012283A0230F578A6E2B402021E
:102EFF0080030230108E828F83A3A3A3A3E493FDDC
:102F0F0078A7C3E29D40030230108E828F83A3A364
:102F1F00A3A3A3E493FCA3E493FD78A7E275F002C7
:102F2F00A42CF582ED35F0F583E493FCA3E493FD37
:102F3F0074092CFFE43DFE787FECF2ED08F28C82F1
:102F4F008D83E4937881F2E408F290E000C007C02B
:102F5F0006C005C00412283AD004D005D006D00709
:102F6F008C828D83E4932400F52EE434E0F52F8FCB
:102F7F00028E03852E30852F318A328B3385328234
:102F8F00853383E493FCA3E493FD787FECF2ED08A3
:102F9F00F28C828D83E4937881F2E408F28530829B
:102FAF00853183C003C00212283AD002D003853284
:102FBF0082853383E493FCA3E493FD8C828D83E4B9
:102FCF0093252EF52EE4352FF52F74022AFAE43BC4
:102FDF00FB8A828B83E493FCA3E4934C709590E07F
:102FEF0002E0FCA3E04C60030230F5E52EC3940031
:102FFF00FCE52F94E0FD90E002ECF0EDA3F0023041
:10300F00F578A6E2B4030474018001E4FD60227830
:10301F00A7E2701D787F742BF2743708F290372B6C
:10302F00E4937881F2E408F290E00012283A02303B
:10303F00F5ED70030230EB78A7E2FC7D0024FFFA78
:10304F00ED34FFFB74072EF582E43FF583C006C015
:10305F0007E493FF7E00C3EA9FEB64808EF063F07A
:10306F008095F0D007D006507374082EF582E43F98
:10307F00F583E493FEA3E493FF1CBCFF011DEC2C2E
:10308F00FCED33FDEC2EF582ED3FF583E493FEA3CB
:10309F00E493FF90E0007402F090E00104F07401FB
:1030AF002401FCE434E0FD8E828F83E493FB6036D1
:1030BF000EBE00010F8C828D83EBF074012CFAE4AD
:1030CF003DFB8A828B83E4F0042AFCE43BFD90E015
:1030DF0000E0FB0B0B90E000EBF080CB90E6A074D0
:1030EF0001F07481F0227E007FE090E6B57401F06C
:1030FF0090E6B3EFF090E6B4EEF090E6A07480F0B7
:10310F0022AE82AF83A3A3A3A3A3E493FCA3E49370
:10311F00FD74042EFEE43FFF78AAE4F28E828F83C3
:10312F00E493FA78AAC3E29A400122C006C0077856
:10313F00AAE275F002A42CF582ED35F0F583E49345
:10314F00FAA3E493FF78AB74092AF2E43F08F2750F
:10315F0034008A828F83A3A3A3A3A3E493FF78A54C
:10316F00E2B507028007D007D006023263D007D03E
:10317F000678ABE2F53508E2F536C004C0058535B3
:10318F0082853683E493FAA3E493FD8A828D83A329
:10319F00E493F5377404B537028006D005D0048068
:1031AF004AD005D004853582853683E493F538A35C
:1031BF00E493F539853882853983A3A3E493FA78AC
:1031CF00A8E2B50214853882853983A3A3A3E493BB
:1031DF00FA78A9E2B50202800678ADE4F2800578AC
:1031EF00AD7401F278ADE2F534804C7405B5374714
:1031FF00E5346043C004C005853582853683E4938A
:10320F00FAA3E493FD8A828D83A3A3E493FD740F45
:10321F005DFC530580E423CDC423541F6DCD541F93
:10322F00CD6DCD30E40244E090E683ED4CF0E04309
:10323F00E020F0D005D00474022535F535E435369D
:10324F00F536853582853683E493FAA3E4934A6095
:10325F000302318978AAE22401F202312B32323291
:10326F0000000000000000002220F71130F6138844
:10327F0083A88220F509F6A8837583002280FEF2C9
:10328F0080F5F02232AA83AB828BF0903EAFE0A4A0
:10329F00F8A9F08AF0E0A429F98BF0A3E0A429F5AE
:1032AF0083888222223232AF82AE83ADF0FC78B5B2
:1032BF00EFF2EE08F2ED08F2EC08F278B5E2FF78E3
:1032CF00B3E28FF0A4FFADF078BBEFF208EDF27828
:1032DF00B5E2FF78B1E28FF0A4FFADF078B9EFF26D
:1032EF0008EDF278BCE2FF78B8E2FE78B1E28EF03A
:1032FF00A42FFF78BCF278B7E2FE78B2E28EF0A48A
:10330F002F78BCF278BBE2FE08E2FF78B7E2FD78D7
:10331F00B1E28DF0A4ABF02EFEEB3FFF78BBEEF2E7
:10332F0008EFF278B6E2FD78B2E28DF0A4ABF02EA2
:10333F00FEEB3FFF78BBEEF208EFF278B6E2FF78D4
:10334F00B3E28FF0A478B8F278B6E2FF78B1E28FEB
:10335F00F0A4FFADF078B6EFF208EDF278B5E2FF2A
:10336F0078B4E28FF0A478B4F278B5E2FF78B2E2E5
:10337F008FF0A4FFADF078B2EFF208EDF278B1E480
:10338F00F278B5F278B9E2F53408E2F53508E2F5EE
:10339F003608E2F53778B5E2FA08E2FB08E2FE08F4
:1033AF00E2FFEA2534F534EB3535F535EE3536F5F4
:1033BF0036EF3537F53778B9E534F208E535F208E9
:1033CF00E536F208E537F278B1E2FC08E2FD08E2F3
:1033DF00FE08E2FFEC2534FCED3535FDEE3536FE0B
:1033EF00EF35378C828D838EF0223232AE82AF83EF
:1033FF007D007C0078BEE2235401703578BDE22554
:10340F00E0F208E233F278BDC3E2F5F0EE95F00892
:10341F00E2F5F0EF95F0501478BDE2F5F008E2C355
:10342F0013C5F01318F2C5F008F280050C8C058057
:10343F00C378BDC3E2F5F0EE95F008E2F5F0EF9535
:10344F00F0400E78BDD3E29EF4B3FEB308E29FF4D2
:10345F00FF78BDE2F5F008E2C313C5F01318F2C50B
:10346F00F008F28D041DEC70C88E828F83223232E9
:10347F003232323290E6A07480F0758201223232FD
:10348F0032323232323290E74078A5E2F090E6B530
:10349F007401F090E68AE4F090E68B04F090E6A0D9
:1034AF0003F02232323232E583700BE58224FA4088
:1034BF000122B4001122E5826003D5E0FD0075E022
:1034CF00FED583F674F9D5E0FD22C007C006C00112
:1034DF00C000AE82AF83EE2EF8EF33F9EE28FEEF89
:1034EF0039FF90E600E0F8794C20E416C3EF13CED5
:1034FF0013CEFF795AE820E309C3EF13CE13CEFFA3
:10350F007963E58124FAF8E926C313C313F9C3EEEF
:10351F0099F582EF9400F583D000D001D006D00743
:10352F005001220234B67411C0E01234D915812231
:10353F00C007C006AE82AF837411C0E0EE4F600DBE
:10354F001EBEFF011F9003E81234D980EF1581D002
:10355F0006D007223232323232323220F71430F6AE
:10356F00148883A88220F507E6A88375830022E2DA
:10357F0080F7E49322E02232323232323232323268
:10358F00758200221201000200000040B720B19D99
:10359F000000010203020A060002000000080000FA
:1035AF000904000000FFFFFF000904000101FFFFF5
:1035BF00FF000904010000FFFFFF000904010101E2
:1035CF00FFFFFF000904020000FFFFFF00090402D4
:1035DF000101FFFFFF000904030000FFFFFF0009C7
:1035EF0004030101FFFFFF000705020200020007AD
:1035FF000504020002000705860200020007058885
:10360F00020002000902000004010080FAAF35B881
:10361F0035F735C135CA35FE35D335DC350536E5D9
:10362F0035EE350C3600000902000002020080FA68
:10363F00AF35B835F735C135CA3505360000133605
:10364F003636BE36D536FF369335A535024D3603A1
:10365F00513612034D005300460054003100300024
:10366F003000C0002800000000010400010000002D
:10367F0000000000000157494E5553420000000062
:10368F000000000000000000000000000A00000021
:10369F0000010500000039393939393939393939DB
:1036AF0039393939393900416E6F7468657200776D
:1036BF0068697465717561726B207265736561728B
:1036CF00636800000000476C6173676F7720496E75
:1036DF0074657266616365204578706C6F72657290
:1036EF0020286769742064393335656537322900BE
:1036FF0058582D5858585858585858585858585866
:10370F0058585800010002010000015402550000F2
:10371F0001C73E4002C83E410000000004030904F7
:00000001FF
