:060000000201CF020FD443
:03000B000235407B
:030013000235199A
:03001B000235614A
:030023000238128E
:03002B0002102997
:030033000236A6EC
:03003B0002381375
:03004300020100B7
:03004B00022CABD9
:03005300020100A7
:03005B0002351A51
:0300630002351B48
:100068000000E2FBEAF2802C0000E0FBEAF08024CA
:10007800E6B50202EBF62200E2B50202EBF222003C
:10008800E0B50202EBF02230F6E0A88220F5D3EAD0
:10009800C6F582228B822230F6E6A88220F5D98026
:1000A800CF021062C000A88118C0D0B6001B18B6D5
:1000B80068004015B68F005010C0E0E65407B4063B
:0E00C800005004E654F8F6D0E0D0D0D000325C
:03010000022DB11C
:03010400023814AA
:0301080002372E8D
:03010C00023810A6
:030110000238169C
:0301140002383A74
:0301180002372B80
:03011C000201B825
:030120000210507A
:0301240002105373
:0301280002373F5C
:03012C000238395D
:0301300002105664
:030134000210595D
:0301380002105C56
:03013C0002105F4F
:0301400002373C47
:030144000201B8FD
:0301480002383347
:03014C0002383442
:030150000238353D
:0301540002383638
:0301580002383733
:03015C000238382E
:030160000238154D
:030164000201B8DD
:030168000201B8D9
:03016C000201B8D5
:0301700002373E15
:030174000237400F
:0301780002375FEC
:03017C00023761E6
:0301800002374102
:03018400023760DF
:03018800023762D9
:03018C0002381125
:030190000236A78D
:0301940002372C03
:0301980002372FFC
:03019C0002373BEC
:0301A00002372AF9
:0301A40002372DF2
:0301A80002373AE1
:0301AC0002373DDA
:0301B000023562B3
:0301B40002383BD3
:0101B8003214
:1001CF0075813D12383CE58260030200A97900E990
:1001DF004400601B7A00903A1678D275923EE493F1
:1001EF00F2A308B800020592D9F4DAF27592FFE48F
:1001FF0078FFF6D8FD78C8E84400600A7900759258
:10020F003EE4F309D8FC780AE84400600C790190C9
:10021F003EC8E4F0A3D8FCD9FAC2000200A9AF820D
:10022F00BF033B7800E2B4EE3578877429F2743956
:10023F0008F2903929E4937889F2E408F290E0000B
:10024F00122A117D007EE090E6B57401F090E6B3BE
:10025F00EEF090E6B4EDF090E6A07480F02278AE68
:10026F00EFF2780079AFE2F390391C023034788DD9
:10027F007401F2E408F2746008F2788BE4F208F289
:10028F00789004F2E408F2789204F2758251122AFF
:10029F0042E58260407801E2B4FF0280387801E2E3
:1002AF00B4C201227801E2B4C02B788D74C0F2740D
:1002BF003F08F2E408F2788B740CF2E408F27890BD
:1002CF007440F2E408F2789204F2758251122A42D5
:1002DF00E582600122903FC074F9F07887748CF248
:1002EF00743908F278897410F2E408F2903FC11261
:1002FF002A11903FD1E4F0A3F0A3F0A3F022AF8234
:10030F001FC2D575F002EF30E704B2D5F404A43064
:10031F00D50AF42401C5F0F43400C5F024FEF582AB
:10032F00743835F0F583E493FEA3E4938E82F5835E
:10033F0022903FC0E0FFBFF9028014903FC0E0FF62
:10034F007E0043060690384CEFF0EEA3F080149039
:10035F00384874B4F07404A3F090384A7413F074EE
:10036F0086A3F0903FE9E0602190384EE493F58248
:10037F0012030D7887742924C0F2E4343F08F27811
:10038F00897416F2E408F2122A11903FFFE030E070
:10039F001E90384FE493F58212030D7887749DF207
:1003AF00743908F278897407F2E408F2122A11906E
:1003BF003850E493F58212030DAE82AF83903FC0A5
:1003CF00E0C4540F24408E828F83F074012EFCE41E
:1003DF003FFD903FC0E0FB740F5B24308C828D8318
:1003EF00F08E828F83A3A3A37887740124C0F2E4D5
:1003FF00343F08F278897410F2E408F2022A1120CF
:10040F00000C7802E254056003D2B522C2B522AFC8
:10041F00827802E24FF202040EAF827802E25F604E
:10042F000FEFF4FF7802E25FF212040E75820122E1
:10043F007582002230010A90E6A07401F07481F0F9
:10044F0022D20122AF82BF00028026BF01028005A7
:10045F00BF021A800C758200C0071225A1D0078039
:10046F0010758201C0071225A1D007800475820084
:10047F002278ADEFF27803E4F27804F27805F2789F
:10048F0006F27819F275820F1213FB78B174FFF22E
:10049F0078B2F290391C1233BD75820122AF827887
:1004AF00ADE2B40102800878ADE2B4022C8013787B
:1004BF0008E4F28FF005F004800225E0D5F0FBFE92
:1004CF00801B78087401F2EF2FF5F005F0740180AE
:1004DF000225E0D5F0FBFE8004758200227819E436
:1004EF00F28E82C007C0061213FBE582D006D0073A
:1004FF007003F582227871EEF27808E2F582C00778
:10050F00C0061225FCD006D0077807E2B401157893
:10051F0019EEF2758200C0071213FBE582D0077047
:10052F0003F58222EF2403F87907E3F278B1EFF2B3
:10053F00780779B2E2F390391C1233BD758201222C
:10054F00E5822403F9E390E740F090E6B57401F0FB
:10055F0090E68AE4F090E68B04F090E6A003F02298
:10056F0090E6B8E0FF235401F508BFC0028008BF32
:10057F0040028003020FC8E508701190E6B9E0FF52
:10058F00BFB009C20190E6A07480F02290E6B9E0F6
:10059F00FFE4BFA90104FE7008BF10028003020729
:1005AF004A7F0090E6BA780BE0F2A3E008F290E6FB
:1005BF00BE780DE0F2A3E008F2EE60057F5102066F
:1005CF005190E6BCE0FDA3E0FEC374039DE49E40A2
:1005DF0071ED2D9005E67380068008800A800C7FF0
:1005EF0051805F7F52805B7F538057780BE2FD080D
:1005FF00E2FEC3E49D74109E4048C005C006780D0E
:10060F00E2FA08E2FEC3E49A74109ED006D00540C9
:10061F0031C005C006780B790DE3C5F0E225F0FA7D
:10062F0009E3C5F008E235F0FEC3E49A74109ED0DA
:10063F0006D005400D7F5174702EFE780BEDF2EE53
:10064F0008F2C201EF7003020FC8780DE2F5F0084F
:10065F00E245F0700122780DE2FA08E2FDC3EA9458
:10066F0040ED940040027A40E508604D90E6A0E02E
:10067F0020E1F9788D7440F274E708F2E408F2781B
:10068F0090EAF2E408F2780B798BE2F308E209F3CF
:10069F0078927401F28F82122A42E5827003020F60
:1006AF00C890E6B57401F090E68AE4F090E68BEA24
:1006BF00F090E6A07480F0805490E6B57401F0904D
:1006CF00E68AE4F090E68BF090E6A0E020E1F9787E
:1006DF00977440F274E708F2E408F2789AEAF2E4C9
:1006EF0008F2780B7995E2F308E209F3789C74012C
:1006FF00F2789D7406F2789E74FFF28F82122AD2DE
:10070F00E5827003020FC890E6A07480F0780DE2C6
:10071F00FE08E2FD7C00EEC39AFEED9CFD780DEE27
:10072F00F2ED08F2780BE2FB08E2FEEA2BFAEC3E60
:10073F00FC780BEAF2EC08F2020659BF13028003B1
:10074F000207D590E6BAE0FE90E6BEE0FCA3E0FD1E
:10075F00C2018E82C005C00412136AE582D004D094
:10076F00057003020FC8E508603590E6A0E020E1B0
:10077F00F98C067817EEF290E740C006121399E550
:10078F0082D0067003020FC890E6B57401F090E6B0
:10079F008AE4F090E68BEEF090E6A07480F0229061
:1007AF00E6B57401F090E68AE4F090E68BF090E6FF
:1007BF00A0E020E1F97818ECF290E7401213CA900C
:1007CF00E6A07480F022E508604BBF124890E6BEA9
:1007DF00E0FDA3E0FEBD013DBE003AC20190E6A0E0
:1007EF00E020E1F912123DE58260027402FE780208
:1007FF00E2FDEE420590E740EDF090E6B57401F0B2
:10080F0090E68AE4F090E68B04F090E6A003F07592
:10081F008201020428E5086003020902BF11028069
:10082F000302090290E6BCE0FDA3E0FE4D6023C089
:10083F00077809E2FB08E2FC0BBB00010C8D028E6E
:10084F0007EAB50306EFB504028005D007020902D7
:10085F00D0078E0790E6BEE0FBA3E0FCC201ED4F90
:10086F00702778A5E4F278A67410F2E408F2903FAE
:10087F00D5F5F0C007C005C004C003122CAC12128E
:10088F0052D003D004D005D007EB4C60588B028CAC
:10089F0006C3EA9440EE940040027A4090E6B574A5
:1008AF0001F090E68AE4F090E68BF090E6A0E0206D
:1008BF00E1F97815EAF290E740C007C005C004C01F
:1008CF0003C0021212CBD002D003D004D005D00740
:1008DF008B098C0A7E00E509C39AFAE50A9EFE8A07
:1008EF00038E0480A490E6A07480F07809EDF2EFF7
:1008FF0008F222BF1802800302099A90E6BEE0FDBB
:10090F00A3E0FEBD1005BE0002800302099AC201DA
:10091F00E508603990E6A0E020E1F97887741524A6
:10092F00C0F2E4343F08F278897410F2E408F290D0
:10093F00E740122A1190E6B57401F090E68AE4F0D0
:10094F0090E68B7410F090E6A07480F02212131FC3
:10095F00E5827003020FC890E6B57401F090E68A45
:10096F00E4F090E68BF090E6A0E020E1F978877450
:10097F0040F274E708F278897410F2E408F2903FBD
:10098F00D5122A1190E6A07480F022BF14028003C2
:10099F00020A2490E6BEE0FDA3E0FEBD0277BE0092
:1009AF007490E6BCE0FEC201E508603490E6A0E07A
:1009BF0020E1F9781F7440F274E708F28E82121565
:1009CF00F4E5827003020FC890E6B57401F090E66B
:1009DF008AE4F090E68B7402F090E6A07480F02227
:1009EF0090E6B57401F090E68AE4F090E68BF09013
:1009FF00E6A0E020E1F9781B7440F274E708F28E6C
:100A0F00821214D0E582700675820112041E90E6E0
:100A1F00A07480F022E5086069BF156690E6BEE01D
:100A2F00FDA3E0FEBD025BBE005890E6BCE0FEC237
:100A3F000190E6A0E020E1F9903FC0E0FDBD32005B
:100A4F00401278447440F274E708F28E82121E0846
:100A5F00AD82801078287440F274E708F28E82120B
:100A6F00186CAD82ED7003020FC890E6B57401F0FB
:100A7F0090E68AE4F090E68B7402F090E6A0748022
:100A8F00F022E508605BBF1E5890E6BEE0FDA3E0D4
:100A9F00FEBD024DBE004A90E6BCE0FEC20190E6EC
:100AAF00A0E020E1F9903FC0E0FDBD320040127898
:100ABF00487440F274E708F28E82121E7BAE828079
:100ACF00027E00EE7003020FC890E6B57401F0903D
:100ADF00E68AE4F090E68B7402F090E6A07480F062
:100AEF0022BF16028003020BE990E6BEE0FDA3E0F1
:100AFF00FEBD0405BE00028003020BE990E6BCE0D8
:100B0F00FEC201E508606990E6A0E020E1F9903FA0
:100B1F00C0E0FDBD3200401E78557440F274E70806
:100B2F00F2785774022440F2E434E708F28E82120E
:100B3F00208FAD82801C78367440F274E708F2780B
:100B4F003874022440F2E434E708F28E82121A77E6
:100B5F00AD82ED7003020FC890E6B57401F090E618
:100B6F008AE4F090E68B7404F090E6A07480F02293
:100B7F0090E6B57401F090E68AE4F090E68BF09081
:100B8F00E6A0E020E1F9903FC0E0FDBD3200401E3D
:100B9F00784C7440F274E708F2784E74022440F2F5
:100BAF00E434E708F28E82121EF3AD82801C782C9B
:100BBF007440F274E708F2782E74022440F2E434A1
:100BCF00E708F28E821218DCAD82ED700675820195
:100BDF0012041E90E6A07480F022E5086065BF172E
:100BEF006290E6BEE0FDA3E0FEBD0157BE0054C219
:100BFF00017E0190E6A0E020E1F9903FC0E0FDBD4D
:100C0F0032004011785E7401F290E740C006122264
:100C1F001CD006800D783D7401F290E740121B8ABC
:100C2F00AE82EE7003020FC890E6B57401F090E645
:100C3F008AE4F090E68B04F090E6A003F07582044E
:100C4F00020428E5087027BF192490E6BEE0FDA333
:100C5F00E04D701A90E6BAE0FDA3E04D24FFE433B7
:100C6F00F582C20112147390E6A07480F022BF1AAD
:100C7F00028003020D4890E6BEE0FDA3E0FEBD0238
:100C8F0005BE00028003020D4890E6BCE0FEC201E3
:100C9F00E508603490E6A0E020E1F978257440F291
:100CAF0074E708F28E8212179CE5827003020FC858
:100CBF0090E6B57401F090E68AE4F090E68B74024A
:100CCF00F090E6A07480F02290E6B57401F090E603
:100CDF008AE4F090E68BF090E6A0E020E1F978232B
:100CEF007440F274E708F28E821216B2E582700831
:100CFF0075820112041E803A789774E5F2743F08EA
:100D0F00F2E408F278957431F2E408F2789A7404F8
:100D1F00F2E408F2789C04F2789D7408F2789E74DD
:100D2F00FFF2758251122AD2E58270067582011286
:100D3F00041E90E6A07480F022BF1B028003020DF8
:100D4F00FF90E6BEE0FDA3E0FEBD0205BE000280FF
:100D5F0003020DFF90E6BCE0FEC201E508604D9076
:100D6F00E6A0E020E1F9903FC0E0FDBD3000500368
:100D7F00020FC8786B7440F274E708F2786D740153
:100D8F002440F2E434E708F28E821224C6E5827022
:100D9F0003020FC890E6B57401F090E68AE4F09074
:100DAF00E68B7402F090E6A07480F02290E6B574A2
:100DBF0001F090E68AE4F090E68BF090E6A0E02058
:100DCF00E1F9903FC0E0FDBD3000401790E740785B
:100DDF0069E0F290E741786AE0F28E82122489E5A9
:100DEF0082700675820112041E90E6A07480F022B4
:100DFF00E5087029BF1C2690E6BEE0FDA3E04D700C
:100E0F001C90E6BCE0FEC201D20053B0C353060FE4
:100E1F00EE2E25E042B090E6A07480F022E5086047
:100E2F0057BF1D5490E6BEE0FDA3E0FEBD0149BED5
:100E3F00004690E6BCE0FEC20190E6A0E020E1F99A
:100E4F00903FC0E0FDBD30005003020FC8786F74B3
:100E5F0040F274E708F28E82122518E582700302C1
:100E6F000FC890E6B57401F090E68AE4F090E68B37
:100E7F0004F090E6A003F022E5086036BF0F339030
:100E8F00E6BEE0FDA3E0FEBD0128BE0025C2019035
:100E9F00E6A0E020E1F990E7407406F090E6B57423
:100EAF0001F090E68AE4F090E68B04F090E6A00360
:100EBF00F022E508604ABFC04790E6BCE0FDA3E022
:100ECF00FEBD043CBE0039C2017887743BF2743911
:100EDF0008F290393B7889E493F2A3E49308F290F7
:100EEF00E000122A117D007EE090E6B57401F090CB
:100EFF00E6B3EEF090E6B4EDF090E6A07480F02249
:100F0F00E508604ABFC04790E6BCE0FDA3E0FEBD28
:100F1F00053CBE0039C20178877463F2743908F258
:100F2F009039637889E493F2A3E49308F290E00098
:100F3F00122A117D007EE090E6B57401F090E6B3C1
:100F4F00EEF090E6B4EDF090E6A07480F022E508A4
:100F5F006067BFD06490E6BCE0FEA3E0FFBE02591D
:100F6F00BF005690E6BAE0FEA3E0FFBE014BBF0004
:100F7F0048C2017887746DF2743908F290396DE4C4
:100F8F00937889F2E408F290E000122A117E007F34
:100F9F00E090396DE493FD7C0090E6B5E4F090E6C7
:100FAF008AECF090E68BEDF090E6B3EFF090E6B4BC
:100FBF00EEF090E6A07480F022C20190E6A07401DA
:100FCF00F07481F022C2A832903EC9E4F0A3F0750C
:100FDF00820412041E903FC0E0FFBF320040089011
:100FEF003EC8122171800A783DE4F2903EC8121B70
:100FFF008A903EC8E0FF781B74C9F2743E08F28FE6
:10100F00821214D0903FC0E0FFBF32004009903EE3
:10101F00C8E0F582122285D2A822200002C2B4C2F3
:10102F00CAC2CF32C0E0C082C083200002D2B4D285
:10103F00CA5391EF90E65F74F3F0D083D082D0E083
:10104F003202103302103302103302103302103306
:10105F0002103390E6007412F090E67A7401F012E9
:10106F00027D120340121467903FC0E0FFBF3200B1
:10107F00400F121D3AE582700B75820112041E801B
:10108F00031217F312123712253412351C90E61182
:10109F00E4F012351C90E610E4F043B534D2B253AD
:1010AF00B0CF75C801D2AD90E65EE043E0F3F0D269
:1010BF00A8903FD1E0FCA3E0FDA3E0FEA3E0FFEC8E
:1010CF004D4E4F70030211F2903FD1780FE0F2A313
:1010DF00E008F2A3E008F2A3E008F27D527813E4EF
:1010EF00F208F2D2B4C005121252D005780FE2F511
:1010FF00F008E242F008E242F008E245F070030225
:10110F0011D07C80780FC3E2948008E2940008E24B
:10111F00940008E294005004780FE2FC788D74007C
:10112F00F274E008F2E408F27890ECF2E408F27856
:10113F0013798BE2F308E209F378927401F28D824E
:10114F00122A42E582700875820112041E8072789D
:10115F0015ECF290E000C005C0041212CBD004D001
:10116F00058C027B007E007F00780FE2C39AF208A5
:10117F00E29BF208E29EF208E29FF28C037813E200
:10118F00FA08E2FFEB2AFAEE3FFF7813EAF2EF08D4
:10119F00F27813E2F5F008E245F060030210FB8DE0
:1011AF0003EB04FDBD540280030210FB7D51781345
:1011BF00E2FA08E22470FB7813EAF2EB08F202106D
:1011CF00FB780FE2F5F008E242F008E242F008E2A5
:1011DF0045F0700D12131FE582700675820112041F
:1011EF001EC2B4758201122D0730010312056F2044
:1011FF00A803120FD72000F190E687E0702690E643
:10120F0084E0FFC313FF24FC40DFEF2F90121F7306
:10121F008006800C80068008D2B280CDC2B280C911
:10122F00B2B280C5D2B280C143B50802123D30833D
:10123F0009200002D2B375820122200002C2B375C9
:10124F00820022903FC0E0FFBF10028019BF200232
:10125F008014BF3002801EBF31028019BF3202805E
:10126F0014BF333A800F43B502C2B1900001123759
:10127F00E2D2B18029903ECCE4F0A3F0781B74CC7D
:10128F00F2743E08F27582031214D09000FA1237EE
:10129F00EC43B202C2819000011237E2D2811235C3
:1012AF001C90E601E053E0FCF053B2F743B31CD2BD
:1012BF0094C2939004B01237E202123D75AF0385CA
:1012CF00829B85839A90E67B7815E2F8E0A2E7C2CD
:1012DF00949292D294A2E6C2949292D294A2E5C230
:1012EF00949292D294A2E4C2949292D294A2E3C224
:1012FF00949292D294A2E2C2949292D294A2E1C218
:10130F00949292D294A2E0C2949292D294D8BD2297
:10131F007431C29400D294D5E0F853B3E3903FC038
:10132F00E0FFBF10028019BF20028014BF3002807F
:10133F0019BF31028014BF3202800FBF3314800AED
:10134F0090E601E043E023F0800890E601E043E0FF
:10135F0063F0903ECB740FF002123DE5827816F2E7
:10136F007582101227F9E5826019787B7401F2E417
:10137F0008F2903E1675F060122832E5826004750F
:10138F0082012212281175820022AE82AF837582EC
:10139F00111227F9E582601C7D0078177980E2F33E
:1013AF00E409F38E828F838DF01228B8E5826004F2
:1013BF007582012212281175820022AE82AF837DC1
:1013CF00007818797BE2F3E409F38E828F838DF036
:1013DF00122832E582600E122811E5827003F58221
:1013EF00227582012212281175820022AF82C00756
:1013FF0012123DE582D007700475820122EF60253D
:10140F00903ECBE04FF075820112136AE5827003B4
:10141F00F5822278187401F2903ECB1213CAE5823E
:10142F007003F582227819E2602A7819E2F4FF90AE
:10143F003ECBE05FF075820112136AE5827003F50F
:10144F00822278187401F2903ECB1213CAE5827093
:10145F0003F5822275820122C2B0C2B6D2B743B55C
:10146F00C1C2B722E5826003C2B722D2B722AF82D0
:10147F007E008F05BD0102800ABF02028017BD03E7
:10148F001F8016903FC0E0FFBF330050047E0C80DA
:10149F000F7E0E800B7E0D8007781AE270027E4859
:1014AF00EE7003F58222EE2EFE781AE24EF58212CE
:1014BF0027F9E582700712281175820022758201C3
:1014CF0022AF827E00781BE2F58208E2F583E0FC12
:1014DF00A3E0FDEF30E0027E01EF30E10343064071
:1014EF00EF30E013903FE5E0FAA3E0FBC3EA9CEB9B
:1014FF009D500475820022EF30E113903FE7E0FA30
:10150F00A3E0FBC3EA9CEB9D500475820022EC4DD7
:10151F00700DEEF452B0781DE4F2781EF280798CE3
:10152F00028D03C3EA9472EB94064008747C9A749C
:10153F00159B500475820022C006EA248EFAEB3404
:10154F00F9FB78B8EAF2E2F5F0EBC4C5F0C4540F3A
:10155F0065F0C5F0540FC5F065F0F2C5F008F290D4
:10156F00010DC007C006C005C004123541AA82ABE9
:10157F0083D004D005D006D007EBC4CAC4540F6A79
:10158F00CA540FCA6ACAFB74E0C39AFA740F9B78E5
:10159F001DF2781EEAF2D006781AE4F28F82C006A6
:1015AF00C005C00412147DE582D004D005D00670AA
:1015BF0003F58222787B7402F2E408F2903E1D75E7
:1015CF00F060122832E5827007122811758200220E
:1015DF00122811E5827003F58222EC4D6003EE4272
:1015EF00B075820122AF82BF01028005BF020A805F
:1015FF00047E0180087E40800475820022EE55B083
:10160F007011781FE2F58208E2F583E4F0A3F0751C
:10161F00820122781A7401F28F8212147DE5827092
:10162F0003F5822278807402F2E408F2903E21756D
:10163F00F0601228B8E5827003F582227821E2FE6D
:10164F007F007822E27C004207EC4206781FE2FC22
:10165F0008E2FDEEC4CFC4540F6FCF540FCF6FCF3E
:10166F00FE74FFC39FFFE49EFE78B8EFF2EE08F220
:10167F00900098C005C0041235417878740AF2E4DE
:10168F0008F212276DE5828583F0D004D00524720D
:10169F00FE740635F0FF8C828D83EEF0EFA3F075AC
:1016AF00820122AF827823E2FD08E2FE8D828E83D3
:1016BF00E0FBA3E0FC4B601D8B0B8C0CC3E50B9484
:1016CF0072E50C9406400A747C950B7415950C50BA
:1016DF000475820022750BFA750C39850B0D850C7C
:1016EF000E850D82850E83E493FA7003021798EA34
:1016FF005F700302178A781F74CEF2743E08F28A65
:10170F0082C007C006C005C004C0031215F4E582ED
:10171F00D003D004D005D006D0077003F58222C0C5
:10172F0007903ECEE0FAA3E0FFC3EB9AEC9FD00701
:10173F005030850D82850E83E493FA781BEDF2EE1F
:10174F0008F28A82C007C006C005C004C003121485
:10175F00D0E582D003D004D005D006D0077003F5B2
:10176F008222850B82850C83A3E49325E024E5F583
:10177F0082E4343FF583EBF0ECA3F07402250BF514
:10178F000BE4350CF50C0216EA75820122AF827E4E
:10179F00FA7D398E038D048B828C83E493FA60403B
:1017AF00EFB5022F7825E2F53808E2F5398E828DF4
:1017BF0083A3E49325E024E5F582E4343FF583E049
:1017CF00FDA3E0FE853882853983EDF0EEA3F07539
:1017DF0082012274022BFBE43CFC8B068C0580B744
:1017EF007582002290E670E043E001F05388FE22FC
:1017FF00A982E3FE7F0009E37C004207EC4206EE7C
:10180F00C4CFC4540F6FCF540FCF6FCFFE78B8EF44
:10181F00F2EE08F29001031235417878740AF2E47F
:10182F0008F202276DAE82AF8378B8EEF2EF08F2BE
:10183F0090000A12354178787403F2740108F2129D
:10184F00276DAE82E583C454F0CEC4CE6ECE54F075
:10185F00CE6EFF7827E2F9EFF309EEF322AF827D28
:10186F00007E3A8D038E048B828C83E493FA605949
:10187F00EFB502488D828E83A3E493FA7873742AAE
:10188F00F27872E4F278747402F28A821226BBE55F
:10189F00827003F582227828E2F50F08E2F51075C1
:1018AF00822A1217FF858211858312850F82851078
:1018BF0083E511F0E512A3F07582012274022BFB70
:1018CF00E43CFC8B058C06809E75820022AF8278EB
:1018DF0030E4F27831F27832740FF27833F4F27830
:1018EF00347403F27835E4F2782CE2F58208E2F5ED
:1018FF0083E0FDA3E0FE8D038E04C3747C9B7415FF
:10190F009C4023C007782EE2FB08E2FC8B828C837D
:10191F00E0FAA3E0FF8A138F14C3747C9513741538
:10192F009514D007500475820022ED4E700C747C14
:10193F00B513077415B51402803778277430F28DFC
:10194F00828E83C007C004C003121834D003D004A2
:10195F008B828C83E0FBA3E0FC78277432F28B82BE
:10196F008C83121834D00778357414F2783574D408
:10197F00F27D007E3A8D828E83E493FC7003021A0F
:10198F0073EC5F7003021A6974012DFBE43EFC8B4C
:10199F00828C83E493FA78767430F278757403F25C
:1019AF00787714F28A82C007C006C005C004C0034E
:1019BF00122713E582D003D004D005D006D00770CC
:1019CF0003F582228B828C83E493FA78767432F259
:1019DF0078757404F2787703F28A82C007C006C064
:1019EF0005C004C003122713E582D003D004D0052D
:1019FF00D006D0077003F582228B828C83E493FA92
:101A0F0078767434F278757401F27877F28A82C03E
:101A1F0007C006C005C004C003122713E582D00318
:101A2F00D004D005D006D0077003F582228B828CAC
:101A3F0083E493FB78767435F278757402F27877D5
:101A4F0014F28B82C007C006C005122713E582D09F
:101A5F0005D006D0077003F5822274022DFDE43EF7
:101A6F00FE02198475820122AF827D007E3A8D03BA
:101A7F008E048B828C83E493FA7003021B7CEFB588
:101A8F0002028003021B6E74012DF515E43EF5165C
:101A9F00851582851683E493FD7873743CF2787212
:101AAF007402F2787414F28D821226BBE5827003F1
:101ABF00F58222783CE270217836E2F58208E2F571
:101ACF0083E4F0A3F07838E2F58208E2F583747CC2
:101ADF00F07415A3F075820122851582851683E4B3
:101AEF0093FD7873743AF278727403F2787414F287
:101AFF008D821226BBE5827003F582227836E2F5DD
:101B0F001708E2F51875823A1217FFAA82AE83857D
:101B1F001782851883EAF0EEA3F085158285168368
:101B2F00E493FE7873743AF278727404F278740363
:101B3F00F28E821226BBE5827003F582227838E29C
:101B4F00F51708E2F51875823A1217FFAA82AE83CD
:101B5F00851782851883EAF0EEA3F075820122744F
:101B6F00022BFBE43CFC8B058C06021A817582006C
:101B7F0022A280B39202E433F58222AE82AF83E4D5
:101B8F00F07C007D3A8C028D038A828B83E4937004
:101B9F0003021CCAC002C00374012CF519E43DF501
:101BAF001A851982851A83E493FB7873743EF27851
:101BBF00727401F27874F28B82C007C006C005C040
:101BCF0004C003C0021226BBE582D002D003D004AA
:101BDF00D005D006D007D003D0027003F58222784B
:101BEF003EE27003021CC0C004C005783FE4F28ED1
:101BFF00828F83E0FD8A828B83E49342058E828FEE
:101C0F0083EDF0851982851A83E493FD7873743F11
:101C1F00F278727402F2787414F28D82C007C006E3
:101C2F00C005C0041226BBE582D004D005D006D073
:101C3F0007D005D0047003F58222783DE2603A8523
:101C4F001982851A83E493FB7873743EF278727469
:101C5F0001F27874F28B82C007C006C005C004126F
:101C6F0026BBE582D004D005D006D0077003F582DD
:101C7F0022783FE24404F28006783FE254FBF28C74
:101C8F00828D83A3E493FB7876743FF278757402A8
:101C9F00F2787714F28B82C007C006C005C0041219
:101CAF002713E582D004D005D006D0077003F58244
:101CBF002274022CFCE43DFD021B9475820122AFBD
:101CCF008278767440F278757412F27877E4F28F36
:101CDF0082C007122713E582D0077003F58222789E
:101CEF004074FFF278767440F2787574D2F2787798
:101CFF007401F28F82C007122713E582D007700399
:101D0F00F582227841E4F278427408F2787574D43F
:101D1F00F278767441F278777402F28F8212271379
:101D2F00E5827003F58222758201227E067F3A8E4C
:101D3F00048F058C828D83E49360378E828F83A30B
:101D4F00E493FCA3E493FD8C828D83E4F08E828F69
:101D5F0083A3A3A393F582C007C006121CCEE5820E
:101D6F00D006D0077003F5822274042EFEE43FFFE5
:101D7F0080BD75820122E582F904F8E2FF7E007DC5
:101D8F00008D258E248F238E22E3FAE4FBFFE523BB
:101D9F00420378BAEAF2EB08F2EE08F2EF08F2909B
:101DAF000005E4F5F0123563AC82AD83AEF0C313DA
:101DBF00FFEE13FEED13FDEC13FCEFC313EE13ED6B
:101DCF0013FDEC13F5828D8322AE82AF83EE2EF5D9
:101DDF0082EF33F583E5822582F582E58333F58340
:101DEF0078787405F2E408F212276DAE82AF83782B
:101DFF0043E2F9EEF309EFF322AF827D067E3A8DCF
:101E0F00038E048B828C83E493FA605CEFB5024BF4
:101E1F008D828E83A3A3A3E493FA78737446F2782A
:101E2F00727488F278747402F28A821226BBE58289
:101E3F007003F582227844E2F52608E2F5277582D1
:101E4F0046121D85858228858329852682852783CD
:101E5F00E528F0E529A3F07582012274042BFBE439
:101E6F003CFC8B058C06809B75820022AF827D0621
:101E7F007E3A8D038E048B828C83E493FA6061EF3C
:101E8F00B502508D828E83A3A3A3E493FA78737463
:101E9F004AF278727489F278747402F28A82122686
:101EAF00BBE5827003F582227848E2F58208E2F5FD
:101EBF0083784BE2F52A852A2B752A00784AE2F5BA
:101ECF002C752D00E52B422DE52CF0E52DA3F0759B
:101EDF0082012274042BFBE43CFC8B058C0680965C
:101EEF0075820022AF827850E4F27851F278527402
:101EFF00F8F27853747FF2785474FFF2784CE2F56D
:101F0F008208E2F583E0FDA3E0FE8D038E04C37427
:101F1F007C9B74159C401DC007784EE2FB08E2FCC9
:101F2F008B828C83E0FAA3E0FFC3747C9A74159FB5
:101F3F00D007500475820022ED4E601E7843745016
:101F4F00F28D828E83C007C004C003121DD8D00348
:101F5F00D004D0077854E254FEF28B828C83E0FDDC
:101F6F00A3E0FE8D038E04BB7C05BC1502801678A2
:101F7F00437452F28D828E83C007121DD8D007781A
:101F8F0054E254FDF27D067E3A8D828E83E493FCFB
:101F9F00700302208BEC5F700302208174032DFB12
:101FAF00E43EFC8B828C83E493FA78767450F2785B
:101FBF00757458F278777402F28A82C007C006C02F
:101FCF0005C004C003122713E582D003D004D00547
:101FDF00D006D0077003F582228B828C83E493FAAC
:101FEF0078767452F278757457F278777402F28AB1
:101FFF0082C007C006C005C004C003122713E582C4
:10200F00D003D004D005D006D0077003F582228B01
:10201F00828C83E493FA78767454F2787574D2F2E2
:10202F0078777401F28A82C007C006C005C004C069
:10203F0003122713E582D003D004D005D006D007B2
:10204F007003F582228B828C83E493FB7876745431
:10205F00F278757403F27877E4F28B82C007C006CA
:10206F00C005122713E582D005D006D0077003F5FF
:10207F00822274042DFDE43EFE021F987582012218
:10208F00AF827D067E3A8D038E048B828C83E49320
:10209F00FA700302216DEFB50202800302215F7413
:1020AF00032DF52EE43EF52F852E82852F83E493A5
:1020BF00FD78737459F278727458F278747402F26E
:1020CF008D821226BBE5827003F582227855E2F5E8
:1020DF003008E2F531758259121D85AA82AE8385CB
:1020EF003082853183EAF0EEA3F0852E82852F832F
:1020FF00E493FE78737459F278727457F2787474AB
:10210F0002F28E821226BBE5827003F58222785985
:10211F00E2FEBEF819785AE2FEBE7F127857E2F55A
:10212F008208E2F583747CF07415A3F0801E785753
:10213F00E2F53008E2F531758259121D85AA82AE9B
:10214F0083853082853183EAF0EEA3F07582012218
:10215F0074042BFBE43CFC8B058C060220997582E2
:10216F000022AF83E582785BF2EF08F2785BE2F54D
:10217F008208E2F583E4F07C067D3A8C028D038AB7
:10218F00828B83E4937003022218C002C0038C82F7
:10219F008D83A3A3A3E493FB7873745DF2787274B9
:1021AF0080F2787423F28B82C005C004C003C00292
:1021BF001226BBE582D002D003D004D005D003D0C5
:1021CF00027003F58222785DE2540F6032785BE291
:1021DF00F58208E2F583E0FF8A828B83E49342075E
:1021EF00785BE2F58208E2F583EFF08C828D83A3B2
:1021FF00E493FEA3E493FF8E828F83785DE2F07405
:10220F00042CFCE43DFD02218A75820122AE82AFCF
:10221F0083E4F07C067D3A8C828D83E493FB6055DA
:10222F00C00374012CF538E43DF5398538828539C2
:10223F0083E493FAA3E493FB8A828B83E0540F70B9
:10224F0004D0038027D0038E828F83E042038E82D7
:10225F008F83EBF0785EE26013853882853983E4F3
:10226F0093FAA3E493FB8A828B83E4F074042CFC2F
:10227F00E43DFD80A222AF827D067E3A8D828E8361
:10228F00E493FC70030223A5EC5F700302239B749D
:10229F00032DFBE43EFC8B828C83E493FA787374FA
:1022AF005FF278727458F278747402F28A82C007FF
:1022BF00C006C005C004C0031226BBE582D003D000
:1022CF0004D005D006D0077003F582228B828C8351
:1022DF00E493FA78737461F278727457F2787474C5
:1022EF0002F28A82C007C006C005C004C0031226CE
:1022FF00BBE582D003D004D005D006D0077003F51C
:10230F0082228B828C83E493F582C007C006C005BE
:10231F00C004C003121CCEE582D003D004D005D078
:10232F0006D0077003F582228B828C83E493FA78B0
:10233F0076745FF278757458F278777402F28A8245
:10234F00C007C006C005C004C003122713E582D022
:10235F0003D004D005D006D0077003F582228B82FC
:10236F008C83E493FB78767461F278757457F27806
:10237F00777402F28B82C007C006C005122713E5DF
:10238F0082D005D006D0077003F5822274042DFD8C
:10239F00E43EFE02228B75820122AF827E008F0502
:1023AF00BD01028005BF020880047E2080027E21CD
:1023BF00EE7003F58222EE2EFE7863E24EF5821266
:1023CF0027F9E5827003F5822275820122AF8278A8
:1023DF0063E4F28F821223A9E5826038787B74015F
:1023EF00F2E408F2903E6475F060122832E58260E4
:1023FF0023787B7401F2E408F2903E6575F0601269
:10240F002832E582600E122811E5827003F58222D0
:10241F007582012212281175820022AF827863E43F
:10242F00F28F82C0071223A9E582D0076045787B1F
:10243F007401F2E408F2903E6675F060122832E5FE
:10244F0082603078637401F28F821223A9E5826073
:10245F00227867E2FD08E2FE7F0078807401F2E4E3
:10246F0008F28D828E838FF01228B8E58260047592
:10247F0082012212281175820022AF8278647401C2
:10248F00F2786A7965E2F38F82C0071223DCE58266
:10249F00D0077003F582227869E2F4F2786474034E
:1024AF00F278697965E2F38F821223DCE58270039B
:1024BF00F5822275820122AF8278667401F2786DFF
:1024CF007967E2F308E209F38F82C00712242AE545
:1024DF0082D0077003F5822278667403F2786B79E5
:1024EF0067E2F308E209F38F8212242AE582700370
:1024FF00F58222786BE2FE08E2FF8E828F83E0F492
:10250F008E828F83F0758201227866E4F2786F797C
:10251F0067E2F308E209F312242AE5827003F582D9
:10252F00227582012212351C90E60B7403F01235CE
:10253F001C90E6017480F012351C90E6047480F054
:10254F0012351C90E609E4F012351C90E6027498DF
:10255F00F012351C90E60374FEF012351C90E670F5
:10256F00E043E080F012351C90E618E053E0FEF0F7
:10257F0012351C90E619E053E0FEF012351C90E680
:10258F001AE053E0FEF012351C90E61BE053E0FE1C
:10259F00F022E582FF60067E007D0080047E027DD2
:1025AF008012351C90E6047480F012351C90E612F0
:1025BF0074A04EF012351C90E61374204DF01235B6
:1025CF001C90E61474E04EF012351C90E615746002
:1025DF004DF0EF60047E0580027E0F7871EEF28F72
:1025EF00821225FC12351C90E604E4F022AF8278AB
:1025FF0071E2FE30E04312351C90E618E4F012351C
:10260F001C90E604E043E002F012351C90E649749A
:10261F0082F012351C90E6497482F0EF6012123589
:10262F001C90E6497482F012351C90E6497482F0D2
:10263F0012351C90E6187410F0EE30E12E12351C96
:10264F0090E619E4F012351C90E604E043E004F044
:10265F0012351C90E6497484F012351C90E64974CB
:10266F0084F012351C90E6197410F0EE30E21C1253
:10267F00351C90E61AE4F012351C90E604E043E0B6
:10268F0006F012351C90E61A7404F0EE30E31C12BB
:10269F00351C90E61BE4F012351C90E604E043E095
:1026AF0008F012351C90E61B7404F022E582258297
:1026BF00FFF5821227F9E5826043787B7401F2E41B
:1026CF0008F2903E7275F060122832E582602E7427
:1026DF00014FF5821227F9E58260227873E2FD7EC1
:1026EF00007F6078747980E2F3E409F38D828E8342
:1026FF008FF01228B8E5826004758201221228112A
:10270F0075820022E5822582F5821227F9E5826023
:10271F0046787B7401F2E408F2903E7575F0601212
:10272F002832E58260317877E2601E7876E2FD7EAE
:10273F00007F607877797BE2F3E409F38D828E83F3
:10274F008FF0122832E582600E122811E582700395
:10275F00F582227582012212281175820022AE8223
:10276F00AF837C007D007B10EF235401FAEE2EFE29
:10277F00EF33FFEC2CFCED33FDEA600343040178EB
:10278F0078C3E2F5F0EC95F008E2F5F0ED95F04046
:10279F00117878D3E29CF4B3FCB308E29DF4FD43C7
:1027AF000601DBC48E828F8322C007C006C000AF34
:1027BF008290E678E020E00E787AE260F4787AE4AE
:1027CF00F2758200801D90E678E030E20575820098
:1027DF008011EF600B90E678E0035401F5828003DF
:1027EF00758201D000D006D00722C007AF8290E6D5
:1027FF00787480F090E679EFF07582011227B8D0E7
:10280F000722C00790E678E030E20575820080105D
:10281F0090E6787440F090E678E020E6F975820152
:10282F00D00722C007C006C004C003C002C000AF5B
:10283F00F0AE83E582787DF2EE08F2EF08F2787B56
:10284F00E2F5F008E245F07005758201804E7B00DD
:10285F007C00787BE2B5030708E2B50402802A7892
:10286F007DE22BFA08E23CFE08E2FF8A828E838F1C
:10287F00F012381790E679F07582011227B8E582C9
:10288F0060070BBB00CC0C80C9787BE2B50308084E
:10289F00E2B50403D38001C3E433F582D000D00244
:1028AF00D003D004D006D00722C007C006C005C091
:1028BF0004C003C002C001C000AFF0AE83E5827850
:1028CF0082F2EE08F2EF08F27880E2F5F008E245C6
:1028DF00F07006758201022A007880E2FB08E2FCA4
:1028EF00BB0109BC000690E6787420F090E679E011
:1028FF007B007C007885E4F208F278857980E2F538
:10290F00F0E3B5F00C08E2F5F009E3B5F0030229A6
:10291F00DA7582001227B8E58270030229ED7885F7
:10292F00E2FD08E2FE74022DFDE43EFE7880E2B582
:10293F00050708E2B506028002800690E67874204B
:10294F00F07885E2FD08E2FE0DBD00010E7880E211
:10295F00B5050708E2B506028002803575AF03752D
:10296F009AE6759B7890E67B7440F0E0ACE0788255
:10297F007985E3C5F0E225F0FD09E3C5F008E235FE
:10298F00F0FE08E2FF8D828E838FF0EC12352580EA
:10299F002578827985E3C5F0E225F0FD09E3C5F0DE
:1029AF0008E235F0FE08E2FF90E679E0FA8D828EBC
:1029BF00838FF01235257885E22401F208E2340086
:1029CF00F27885E2FB08E2FC02290990E678E03014
:1029DF00E205758200801A90E678E020E6F97880AB
:1029EF00E2B5030808E2B50403D38001C3E433F56D
:1029FF0082D000D001D002D003D004D005D006D0B1
:102A0F000722AA82AB837887E2FC08E2FD7889E28D
:102A1F00FE08E2FFEE60010FEF601775AF078A9BAC
:102A2F008B9A8C9E8D9D90E67CE090E67BF0DEF697
:102A3F00DFF422C007C006C001C000AF827892E267
:102A4F006012788CE2FE7893EEF2788BE2FE789447
:102A5F00EEF28008788BE2FE7893EEF2EF2FFFF51F
:102A6F00821227F9E582604C7892E2FE0E787BEEB7
:102A7F00F2E408F2903E9375F060122832E582601E
:102A8F003374014FF5821227F9E582602778907928
:102A9F0080E2F308E209F3788DE2F58208E2F5832C
:102AAF0008E2F5F01228B8E5827004F582800B7504
:102ABF0082018006122811758200D000D001D00645
:102ACF00D00722C007C006C005C004C003C002C0A3
:102ADF0001C000AF82789FE4F208F2EF2FFFF5827A
:102AEF001227F9E5827003022C7B789DE2F5F00541
:102AFF00F07B017C008006EB2BFBEC33FCD5F0F771
:102B0F00789F799AC3E3F5F0E295F009E3F5F008C1
:102B1F00E295F04003022C7B789CE260127896E2FB
:102B2F00FA78A1EAF27895E2FA78A2EAF2800878C8
:102B3F0095E2FA78A1EAF2789CE2FA0A787BEAF257
:102B4F00E408F2903EA175F060122832E58270031E
:102B5F00022C7BC0077895E2F58208E2F5838B02A1
:102B6F008C0778C6EAF2EF08F2C007C004C003C0B2
:102B7F0002C001C0001236A8AD82AE83D000D001D2
:102B8F00D002D003D004D007EAC39DFAEF9EFF789E
:102B9F00A3EAF2EF08F2789A799FE3F5F0C3E29592
:102BAF00F0FE09E3F5F008E295F0FF78A3C3E2F534
:102BBF00F0EE95F008E2F5F0EF95F0D007502078A1
:102BCF009A799FE3F5F0C3E295F0C0E009E3F5F0E1
:102BDF0008E295F0C0E078A4D0E0F218D0E0F278E7
:102BEF0097799FE3C5F0E225F0FA09E3C5F008E213
:102BFF0035F0FD08E2FE78A3797BE2F308E209F3F2
:102C0F008A828D838EF0122832E582605F1228113E
:102C1F00E5827004F58280737E00789EE2600B7807
:102C2F009EC3E2F5F0EE95F0500C8F821227F9E576
:102C3F008270030E80E4789EE2B5060575820080EF
:102C4F004A789579A3E3C5F0E225F0F209E3C5F0E0
:102C5F0008E235F0F2789F79A3E3C5F0E225F0F2B0
:102C6F0009E3C5F008E235F0F2022B0F12281178B4
:102C7F009F799AE2F5F0E3B5F00C08E2F5F009E37D
:102C8F00B5F003D38001C3E433F582D000D001D077
:102C9F0002D003D004D005D006D0072232AFF0AE59
:102CAF0083E58278A8F2EE08F2EF08F278A6E2F553
:102CBF003808E2F53978A6E2F5F008E245F0602A27
:102CCF0078A8E2FA08E2FB08E2FC78A5E2FFAD384B
:102CDF00AE398A828B838CF0EF123525A3AA82AB93
:102CEF00831DBDFF011EED4E70E878A8E2F5820846
:102CFF00E2F58308E2F5F022AF8278ACE4F278AD2A
:102D0F00F2D2E890E668E043E008F090E65CE0433A
:102D1F00E001F090E65D7401F0D2AF90E680E02024
:102D2F00E10890E680E043E002F0EF600E90E6806D
:102D3F00E043E008F090000A1237EC90E680E05391
:102D4F00E0F7F022AF82BF00028037BF010280366A
:102D5F00BF02028039BF04028038BF06028037BF2E
:102D6F0008028036BF80028019BF8102801CBF829B
:102D7F0002801BBF8402801ABF86028019BF881E83
:102D8F00801890E6A02290E6A12290E6A22290E67B
:102D9F00A32290E6A42290E6A52290E6A622900018
:102DAF000022C021C0E0C0F0C082C083C007C006AF
:102DBF00C005C004C003C002C001C000C0D075D0A0
:102DCF0000C08675860090E6B8E0FF90E6B9E0FE99
:102DDF00E4BF800104FD6016BE061390E6BAE0FB67
:102DEF00A3E0F5827800EBF212022D02300AEF70A9
:102DFF0025BE092290E6BAE0F582120453E58260FF
:102E0F000990E6A07480F002300A90E6A07401F0F9
:102E1F007481F002300AED6009BE080612374202D3
:102E2F00300A8F04BC012DBE0B2A90E6BCE0FC904B
:102E3F00E6BA7807E0F28C821204ACE58260099062
:102E4F00E6A07480F002300A90E6A07401F074815D
:102E5F00F002300AE4BF810104FC600FBE0A0C903F
:102E6F00E6BCE0F58212054F02300AEF7032BE0366
:102E7F002F90E6BAE0FAA3E0FBBA0110BB000D7881
:102E8F00AC7401F290E6A003F002300ABA0205BB5F
:102E9F000002800302300A90E6A07480F002300A2C
:102EAF00ED6032EE702F78ABE2FD78ACE225E0FBFF
:102EBF00420590E740EDF090E741E4F090E6B5046D
:102ECF00F090E68AE4F090E68B7402F090E6A0743E
:102EDF0080F002300AEC6025EE702290E740E4F0BB
:102EEF0090E741F090E6B504F090E68AE4F090E6C2
:102EFF008B7402F090E6A07480F002300ABF0202D9
:102F0F008003022FB7E4BE030104FD7008BE010267
:102F1F008003022FB790E6BAE0FBA3E0FC4B6003FF
:102F2F0002300A90E6BCE0F582C005122D53AB8249
:102F3F00AC83D005EB4C700302300AED60188B8226
:102F4F008C83E0FD4305018B828C83EDF090E6A02E
:102F5F007480F002300A90E6BCE0F582C004C00332
:102F6F00123730E582D003D004700302300A8B820F
:102F7F008C83E0FD5305FE8B828C83EDF090E6BCD5
:102F8F00E0FCA3E08C0353030F530480E423CCC471
:102F9F0023541F6CCC541FCC6CCCFD90E683EC4BB0
:102FAF00F0E043E020F08053BF824AEE704790E696
:102FBF00BCE0F582122D53AE82AF838E048F05EEE7
:102FCF004F60388C828D83E05401FCB40100B392C2
:102FDF0003E433FF90E740F090E741E4F090E6B56B
:102FEF0004F090E68AE4F090E68B7402F090E6A08D
:102FFF007480F0800690E6B81204435391EF90E688
:10300F005D7401F0D086D0D0D000D001D002D003B3
:10301F00D004D005D006D007D083D082D0F0D0E036
:10302F00D0210200ACAE82AF8378AEE2B4012C782F
:10303F00AFE270278E828F83E493FCA3E493FD7835
:10304F0087ECF2ED08F28C828D83E4937889F2E4B9
:10305F0008F290E000122A110233A278AEE2B40611
:10306F003B78AFE270368E828F83A3A3E493FCA3E9
:10307F00E493FD4C700A90E6A07401F07481F02285
:10308F007887ECF2ED08F28C828D83E4937889F2E5
:10309F00E408F290E000122A110233A278AEE2B4F3
:1030AF00020280030231C28E828F83A3A3A3A3E403
:1030BF0093FD78AFC3E29D40030231C28E828F83AE
:1030CF00A3A3A3A3A3E493FCA3E493FD78AFE275BA
:1030DF00F002A42CF582ED35F0F583E493FCA3E424
:1030EF0093FD74092CFFE43DFE7887ECF2ED08F2B6
:1030FF008C828D83E4937889F2E408F290E000C02B
:10310F0007C006C005C004122A11D004D005D0068E
:10311F00D0078C828D83E4932400F532E434E0F5FC
:10312F00338F028E038532348533358A368B37855C
:10313F003682853783E493FCA3E493FD7887ECF222
:10314F00ED08F28C828D83E4937889F2E408F2859E
:10315F003482853583C003C002122A11D002D003F6
:10316F00853682853783E493FCA3E493FD8C828DAF
:10317F0083E4932532F532E43533F53374022AFABA
:10318F00E43BFB8A828B83E493FCA3E4934C70951E
:10319F0090E002E0FCA3E04C60030233A2E532C3EF
:1031AF009400FCE53394E0FD90E002ECF0EDA3F029
:1031BF000233A278AEE2B4030474018001E4FD602F
:1031CF002278AFE2701D78877412F2743A08F29089
:1031DF003A12E4937889F2E408F290E000122A118F
:1031EF000233A2ED70030232AE78AFE2FC7D002411
:1031FF00FFFAED34FFFB74072EF582E43FF583C031
:10320F0006C007E493FF7E00C3EA9FEB64808EF055
:10321F0063F08095F0D007D00640030232AE7408F9
:10322F002EF582E43FF583E493FAA3E493FB1CBCF1
:10323F00FF011DEC2CFCED33FDEC2AF582ED3BF587
:10324F0083E493FCA3E493FD90E0007402F090E01C
:10325F000104F074012401F534E434E0F5358C8277
:10326F008D83E493F53670030233A2AB360CBC00AA
:10327F00010D853482853583EBF074012534FAE432
:10328F003535FB8A828B83E4F0042AF534E43BF571
:10329F003590E000E0FB0B0B90E000EBF080BF7887
:1032AF00AEE2B40F02800302339878AFE2600302FC
:1032BF00339890E0007405F090E001740FF0740AF9
:1032CF002EF536E43FF537853682853783E49390C4
:1032DF00E004F090E000E02400FAE434E0FB740B2B
:1032EF002EF582E43FF583E493FEA3E493FF78B0D9
:1032FF00E4F2853682853783E493FC78B0C3E29C91
:10330F0050528A348B357887EEF2EF08F28E328F77
:10331F0033853282853383E4937889F2E408F2852A
:10332F003482853583C007C006C003C002122A113C
:10333F00D002D003D006D007853282853383E49341
:10334F002AFAE43BFB74022EFEE43FFF78B0E2243E
:10335F0001F2809EEAC39400FAEB94E0FB90E00246
:10336F00EAF0EBA3F07E007FE090E6B5E4F090E6A4
:10337F008AEBF090E68BEAF090E6B3EFF090E6B4CC
:10338F00EEF090E6A07480F02290E6A07401F07445
:10339F0081F0227E007FE090E6B57401F090E6B3F5
:1033AF00EFF090E6B4EEF090E6A07480F022AE82DB
:1033BF00AF83A3A3A3A3A3E493FCA3E493FD74049B
:1033CF002EFEE43FFF78B3E4F28E828F83E493FA0C
:1033DF0078B3C3E29A400122C006C00778B3E27502
:1033EF00F002A42CF582ED35F0F583E493FAA3E413
:1033FF0093FF78B474092AF2E43F08F27538008A13
:10340F00828F83A3A3A3A3A3E493FF78ADE2B507B1
:10341F00028007D007D006023510D007D00678B447
:10342F00E2F53908E2F53AC004C005853982853ADC
:10343F0083E493FAA3E493FD8A828D83A3E493F547
:10344F003B7404B53B028006D005D004804AD005FA
:10345F00D004853982853A83E493F53CA3E493F550
:10346F003D853C82853D83A3A3E493FA78B1E2B511
:10347F000214853C82853D83A3A3A3E493FA78B21B
:10348F00E2B50202800678B6E4F2800578B67401E0
:10349F00F278B6E2F538804C7405B53B47E53860F5
:1034AF0043C004C005853982853A83E493FAA3E4C7
:1034BF0093FD8A828D83A3A3E493FD740F5DFC5368
:1034CF000580E423CDC423541F6DCD541FCD6DCD86
:1034DF0030E40244E090E683ED4CF0E043E020F06E
:1034EF00D005D00474022539F539E4353AF53A851B
:1034FF003982853A83E493FAA3E4934A6003023452
:10350F003678B3E22401F20233D8323232000000AF
:10351F0000000000002220F71130F6138883A882E4
:10352F0020F509F6A8837583002280FEF280F5F05E
:10353F002232AA83AB828BF0903EB8E0A4F8A9F0B8
:10354F008AF0E0A429F98BF0A3E0A429F5838882FF
:10355F0022223232AF82AE83ADF0FC78BEEFF2EEB4
:10356F0008F2ED08F2EC08F278BEE2FF78BCE28FC9
:10357F00F0A4FFADF078C4EFF208EDF278BEE2FFF1
:10358F0078BAE28FF0A4FFADF078C2EFF208EDF257
:10359F0078C5E2FF78C1E2FE78BAE28EF0A42FFF81
:1035AF0078C5F278C0E2FE78BBE28EF0A42F78C522
:1035BF00F278C4E2FE08E2FF78C0E2FD78BAE28D4D
:1035CF00F0A4ABF02EFEEB3FFF78C4EEF208EFF263
:1035DF0078BFE2FD78BBE28DF0A4ABF02EFEEB3F9F
:1035EF00FF78C4EEF208EFF278BFE2FF78BCE28F0B
:1035FF00F0A478C1F278BFE2FF78BAE28FF0A4FFAF
:10360F00ADF078BFEFF208EDF278BEE2FF78BDE2E1
:10361F008FF0A478BDF278BEE2FF78BBE28FF0A402
:10362F00FFADF078BBEFF208EDF278BAE4F278BEB6
:10363F00F278C2E2F53808E2F53908E2F53A08E225
:10364F00F53B78BEE2FA08E2FB08E2FE08E2FFEA89
:10365F002538F538EB3539F539EE353AF53AEF359A
:10366F003BF53B78C2E538F208E539F208E53AF266
:10367F0008E53BF278BAE2FC08E2FD08E2FE08E258
:10368F00FFEC2538FCED3539FDEE353AFEEF353BD5
:10369F008C828D838EF0223232AE82AF837D007C9E
:1036AF000078C7E2235401703578C6E225E0F208AE
:1036BF00E233F278C6C3E2F5F0EE95F008E2F5F0EA
:1036CF00EF95F0501478C6E2F5F008E2C313C5F099
:1036DF001318F2C5F008F280050C8C0580C378C66C
:1036EF00C3E2F5F0EE95F008E2F5F0EF95F0400E3D
:1036FF0078C6D3E29EF4B3FEB308E29FF4FF78C618
:10370F00E2F5F008E2C313C5F01318F2C5F008F2A2
:10371F008D041DEC70C88E828F832232323232328A
:10372F003290E6A07480F07582012232323232324A
:10373F0032323290E74078ADE2F090E6B57401F0A6
:10374F0090E68AE4F090E68B04F090E6A003F02276
:10375F0032323232E583700BE58224FA400122B413
:10376F00001122E5826003D5E0FD0075E0FED583F0
:10377F00F674F9D5E0FD22C007C006C001C000AE47
:10378F0082AF83EE2EF8EF33F9EE28FEEF39FF907C
:10379F00E600E0F8794C20E416C3EF13CE13CEFF0A
:1037AF00795AE820E309C3EF13CE13CEFF7963E50F
:1037BF008124FAF8E926C313C313F9C3EE99F582EE
:1037CF00EF9400F583D000D001D006D0075001222E
:1037DF000237637411C0E0123786158122C007C00B
:1037EF0006AE82AF837411C0E0EE4F600D1EBEFFB8
:1037FF00011F9003E812378680EF1581D006D0079E
:10380F00223232323232323220F71430F6148883B9
:10381F00A88220F507E6A88375830022E280F7E4EB
:10382F009322E02232323232323232323275820019
:10383F00221201100200000040B720B19D000001CC
:10384F000203020A0600020000000800000904003B
:10385F000000FFFFFF000904000101FFFFFF000947
:10386F0004010000FFFFFF000904010101FFFFFF3A
:10387F00000904020000FFFFFF000904020101FF1D
:10388F00FFFF000904030000FFFFFF00090403010D
:10389F0001FFFFFF000705020200020007050402F7
:1038AF0000020007058602000200070588020002D9
:1038BF00000902000004010080FA5C386538A43862
:1038CF006E387738AB3880388938B23892389B38B1
:1038DF00B93800000902000002020080FA5C386566
:1038EF0038A4386E387738B2380000C038E338A5BE
:1038FF0039BC39E6391810050038B60834A909A0C3
:10390F00478BFDA0768815B6650001D0014038526F
:10391F003802FA3803FE3801043912034D00530000
:10392F0046005400310030003000C0002800000075
:10393F0000010400010000000000000000015749D1
:10394F004E55534200000000000000000000000030
:10395F00000000000A0000000001050000001E0327
:10396F00017765627573622E676C6173676F772D70
:10397F00656D6265646465642E6F726700393939ED
:10398F003939393939393939393939393900416E94
:10399F006F74686572007768697465717561726BB1
:1039AF0020726573656172636800000000476C6187
:1039BF0073676F7720496E74657266616365204522
:1039CF0078706C6F7265722028676974203134309B
:1039DF003837613936290058582D58585858585883
:1039EF005858585858585858585800010002010054
:1039FF000001540255000001D03E4002D13E41006B
:073A0F00000000040309049C
:00000001FF
