:06000000020069020E720D
:03000B0002322B93
:03001300023204B2
:03001B0002324C62
:030023000235079C
:03002B00020EC7FB
:0300330002339AFB
:03003B0002350883
:03004300020100B7
:03004B00022A6422
:03005300020100A7
:03005B0002320569
:0300630002320660
:0500C200C2000200660F
:03006600020F0086
:2001C000AF82BF033B7800E2B4EE35787F7403F2743608F2903603E4937881F2E408F29023
:2001E000E0001227AB7D007EE090E6B57401F090E6B3EEF090E6B4EDF090E6A07480F022A6
:2002000078A6EFF2780079A7E2F39035F9022E1678857401F2E408F2746008F27883E4F28D
:2002200008F2788804F2E408F2788A04F27582511227DCE58260407801E2B4FF0280387854
:2002400001E2B4C201227801E2B4C02B788574C0F2743F08F2E408F27883740CF2E408F22F
:2002600078887440F2E408F2788A04F27582511227DCE582600122903FC074F9F0787F7464
:2002800047F2743608F278817410F2E408F2903FC11227AB903FD1E4F0A3F0A3F0A3F02271
:2002A000AF821FC2D575F002EF30E704B2D5F404A430D50AF42401C5F0F43400C5F024F3F2
:2002C000F582743535F0F583E493FEA3E4938E82F583227E357F35903FC0E0FDBDF902801D
:2002E0001C740C2EFCE43FFD903FC0E0FB7A004302048C828D83EBF0EAA3F0802074082E2B
:20030000F582E43FF58374B4F07404A3F0740A2EF582E43FF5837413F07486A3F0903FE92E
:20032000E0601E903543E493F5821202A0787F74E9F2743F08F278817416F2E408F2122736
:20034000AB903FFFE030E01E903544E493F5821202A0787F7458F2743608F278817407F2AC
:20036000E408F21227AB903545E493F5821202A0AE82AF83903FC0E0C4540F24408E828F14
:2003800083F074012EFCE43FFD903FC0E0FB740F5B24308C828D83F074032EFEE43FFF8E2E
:2003A000828F83787F74C1F2743F08F278817410F2E408F20227AB20000C7802E25405607C
:2003C00003D2B522C2B522AF827802E24FF20203B7AF827802E25F600FEFF4FF7802E25F56
:2003E000F21203B7758201227582002230010A90E6A07401F07481F022D20122AF82BF006A
:20040000028026BF01028005BF021A800C758200C00712233DD0078010758201C0071223FB
:200420003DD00780047582002278A5EFF27803E4F27804F278A814F278A9F29035F9123015
:20044000A675820122AF8278A5E2B40102800878A5E2B4023180157806E4F28F068EF00586
:20046000F004800225E0D5F0FBFE801E78067401F28F05ED2DFD8DF005F07401800225E0A7
:20048000D5F0FBFE8004758200227819E4F28E82C007C00612129BE582D006D0077003F5C2
:2004A00082227869EEF27806E2F582C007C00612239CD006D0077805E2B401157819EEF25B
:2004C000758200C00712129BE582D0077003F58222EF2403F87905E3F278A8EFF2780579FD
:2004E000A9E2F39035F91230A675820122E5822403F9E390E740F090E6B57401F090E68A1D
:20050000E4F090E68B04F090E6A003F02290E6B8E0FF235401F508BFC0028008BF400280DB
:2005200003020E66E508701190E6B9E0FFBFB009C20190E6A07480F02290E6B9E0FFE4BFBE
:20054000A90104FE7008BF100280030206F77F0090E6BA7809E0F2A3E008F290E6BE780BEE
:20056000E0F2A3E008F27D00EE60057F510205F990E6BCE0FAA3E0FEC374039AE49E4079F0
:20058000EA2A900586738006800A800E80127F517D0680657F527D08805F7F537D088059EC
:2005A0007809E2FA08E2FEC3E49A74109E404AC002C006780BE2FA08E2FEC3E49A74109ED7
:2005C000D006D0024033C002C0067809790BE3C5F0E225F0FA09E3C5F008E235F0FEC3E495
:2005E0009A74109ED006D002400F7F517D0674702EFE7809EAF2EE08F2C201EF7003020E6B
:2006000066780BE2F5F008E245F0700122780BE2FA08E2FEC3EA9440EE940040047A407EB2
:2006200000E508604D90E6A0E020E1F978857440F274E708F2E408F27888EAF2E408F27828
:20064000097983E2F308E209F3788A7401F28F821227DCE5827003020E6690E6B57401F06B
:2006600090E68AE4F090E68BEAF090E6A07480F0805390E6B57401F090E68AE4F090E68B99
:20068000F090E6A07480F090E6A0E020E1F9788F7440F274E708F2E408F27892EAF2E408CE
:2006A000F27809798DE2F308E209F378947401F27895EDF2789674FFF28F82122879E58209
:2006C0007003020E66C0057E00780BE2FC08E2FDECC39AFCED9EFD780BECF2ED08F2780910
:2006E000E2FB08E2FCEA2BFAEE3CFE7809EAF2EE08F2D005020601BF13028003020781906C
:20070000E6BAE0FE90E6BEE0FCA3E0FDC2018E82C005C00412120AE582D004D005700302BC
:200720000E66E508603590E6A0E020E1F98C067817EEF290E740C006121239E582D006704B
:2007400003020E6690E6B57401F090E68AE4F090E68BEEF090E6A07480F02290E6B5740121
:20076000F090E68AE4F090E68BF090E6A07480F090E6A0E020E1F97818ECF290E7400212A1
:200780006AE5086052BF124F90E6BEE0FDA3E0FEBD0144BE0041C20190E6A0E020E1F912D8
:2007A00010DDE58260067D027E0080047D007E007802E2FCED420490E740ECF090E6B57446
:2007C00001F090E68AE4F090E68B04F090E6A003F07582010203D1E50860030208BFBF119F
:2007E0000280030208BF90E6BCE0FDA3E0FE4D6023C0077807E2FB08E2FC0BBB00010C8DE2
:20080000028E07EAB50306EFB504028005D0070208BFD0078D078E0390E6BE780DE0F2A3A0
:20082000E008F2C201EF4B7020789DE4F2789E7410F2E408F2903FD575F000C007C0031257
:200840002A651210F2D003D007780DE2F5F008E245F06063780DE2FA08E2FEC3EA9440EE65
:20086000940050048A0580047D407E0090E6B57401F090E68AE4F090E68BF090E6A07480E3
:20088000F090E6A0E020E1F97815EDF290E740C007C005C00312116BD003D005D0077E007B
:2008A000780DE2FA08E2FCEAC39DFAEC9EFC780DEAF2EC08F280927807EFF2EB08F222BFA8
:2008C0001802800302095290E6BEE0FDA3E0FEBD1005BE000280028079C201E508603690A9
:2008E000E6A0E020E1F9787F74D5F2743F08F278817410F2E408F290E7401227AB90E6B5A6
:200900007401F090E68AE4F090E68B7410F090E6A07480F0221211BFE5827003020E66904B
:20092000E6B57401F090E68AE4F090E68BF090E6A07480F090E6A0E020E1F9787F7440F26B
:2009400074E708F278817410F2E408F2903FD50227ABBF140280030209E290E6BEE0FDA384
:20096000E0FEBD0205BE00028002807690E6BCE0FEC201E508603490E6A0E020E1F9781FC2
:200980007440F274E708F28E8212148AE5827003020E6690E6B57401F090E68AE4F090E672
:2009A0008B7402F090E6A07480F02290E6B57401F090E68AE4F090E68B7402F090E6A074D5
:2009C00080F090E6A0E020E1F9781B7440F274E708F28E82121361E58270067582010203B9
:2009E000C722E5086069BF156690E6BEE0FDA3E0FEBD025BBE005890E6BCE0FEC20190E613
:200A0000A0E020E1F9903FC0E0FDBD3200401278447440F274E708F28E82121C5FAD8280AC
:200A20001078287440F274E708F28E821216FDAD82ED7003020E6690E6B57401F090E68A41
:200A4000E4F090E68B7402F090E6A07480F022BF16028003020B4A90E6BEE0FDA3E0FEBD3F
:200A60000405BE00028003020B4A90E6BCE0FEC201E508606990E6A0E020E1F9903FC0E0EB
:200A8000FDBD3200401E78517440F274E708F2785374022440F2E434E708F28E82121E6E0A
:200AA000AD82801C78367440F274E708F2783874022440F2E434E708F28E82121908AD82DB
:200AC000ED7003020E6690E6B57401F090E68AE4F090E68B7404F090E6A07480F02290E6E1
:200AE000B57401F090E68AE4F090E68B7404F090E6A07480F090E6A0E020E1F9903FC0E046
:200B0000FDBD3200401E78487440F274E708F2784A74022440F2E434E708F28E82121CD239
:200B2000AD82801C782C7440F274E708F2782E74022440F2E434E708F28E8212176DAD820B
:200B4000ED70067582010203C722E5086064BF176190E6BEE0FDA3E0FEBD0156BE0053C2EB
:200B60000175090190E6A0E020E1F9903FC0E0FEBE3200400D78587401F290E740121FD26A
:200B8000800E783D7401F290E740121A1B858209E5097003020E6690E6B57401F090E68A36
:200BA000E4F090E68B04F090E6A003F07582040203D1E5087028BF192590E6BEE0FDA3E07C
:200BC000FE4D701A90E6BAE0FDA3E04D24FFE433F582C20112130490E6A07480F022BF1AD1
:200BE000028003020CA990E6BEE0FDA3E0FEBD0205BE00028003020CA990E6BCE0FEC20196
:200C0000E508603490E6A0E020E1F978257440F274E708F28E8212162DE5827003020E6616
:200C200090E6B57401F090E68AE4F090E68B7402F090E6A07480F02290E6B57401F090E6C7
:200C40008AE4F090E68B7402F090E6A07480F090E6A0E020E1F978237440F274E708F28EC1
:200C600082121548E58270067582010203C7788F74E5F2743F08F2E408F2788D7431F2E485
:200C800008F278927404F2E408F2789404F278957408F2789674FFF2758251122879E582B6
:200CA00070067582010203C722BF1B028003020D6290E6BEE0FDA3E0FEBD0205BE00028072
:200CC00003020D6290E6BCE0FEC201E508604D90E6A0E020E1F9903FC0E0FDBD3000500397
:200CE000020E6678657440F274E708F2786774012440F2E434E708F28E8212227EE582706A
:200D000003020E6690E6B57401F090E68AE4F090E68B7402F090E6A07480F02290E6B574D4
:200D200001F090E68AE4F090E68B7402F090E6A07480F090E6A0E020E1F9903FC0E0FDBD74
:200D40003000401790E7407863E0F290E7417864E0F28E82122241E58270067582010203E3
:200D6000C722E508702ABF1C2790E6BEE0FDA3E0FE4D701C90E6BCE0FEC201D20053B0C32B
:200D800053060FEE2E25E042B090E6A07480F022E5086036BF0F3390E6BEE0FDA3E0FEBDE9
:200DA0000128BE0025C20190E6A0E020E1F990E7407404F090E6B57401F090E68AE4F09061
:200DC000E68B04F090E6A003F022E508604ABFC04790E6BCE0FDA3E0FEBD043CBE0039C2E0
:200DE00001787F7415F2743608F29036157881E493F2A3E49308F290E0001227AB7D007E3C
:200E0000E090E6B57401F090E6B3EEF090E6B4EDF090E6A07480F022E508604ABFC047904B
:200E2000E6BCE0FEA3E0FFBE053CBF0039C201787F743DF2743608F290363D7881E493F253
:200E4000A3E49308F290E0001227AB7E007FE090E6B57401F090E6B3EFF090E6B4EEF0901D
:200E6000E6A07480F022C20190E6A07401F07481F022C2A832903EC0E4F0A3F07582041203
:200E800003C7903FC0E0FFBF32004008903EBF121F50800A783DE4F2903EBF121A1B903E1C
:200EA000BFE0FF781B74C0F2743E08F28F82121361903FC0E0FFBF32004009903EBFE0F58E
:200EC0008212203DD2A822200002C2B4C2CAC2CF32C0E0C082C083200002D2B4D2CA539151
:200EE000EF90E65F74F3F0D083D082D0E032020ED1020ED1020ED1020ED1020ED1020ED10A
:200F000090E6007412F090E67A7401F01202101202D31212F8903FC0E0FFBF3200400F12A9
:200F20001B88E582700B7582011203C780031216841210D71222D012320790E611E4F01274
:200F4000320790E610E4F043B534D2B253B0CF75C801D2AD90E65EE043E0F3F0D2A8903FBC
:200F6000D1E0FCA3E0FDA3E0FEA3E0FFEC4D4E4F7003021092903FD1780FE0F2A3E008F2DE
:200F8000A3E008F2A3E008F27D527813E4F208F2D2B4C0051210F2D005780FE2F5F008E2C1
:200FA00042F008E242F008E245F070030210707C80780FC3E2948008E2940008E29400088F
:200FC000E294005004780FE2FC78857400F274E008F2E408F27888ECF2E408F27813798310
:200FE000E2F308E209F3788A7401F28D821227DCE58270087582011203C780747815ECF297
:2010000090E000C005C00412116BD004D0058C027B007E007F00780FE2C39AF208E29BF26B
:2010200008E29EF208E29FF28C037F007813E2FA08E2FEEB2AFAEF3EFE7813EAF2EE08F2D5
:201040007813E2F5F008E245F06003020F998D03EB04FDBD54028003020F997D517813E21B
:20106000FA08E22470FB7813EAF2EB08F2020F99780FE2F5F008E242F008E242F008E24552
:20108000F0700D1211BFE58270067582011203C7C2B4758201122AC030010312050D20A8C6
:2010A00003120E752000F190E687E0702690E684E0FFC313FF24FC40DFEF2F9010BF7380B7
:1710C00006800C80068008D2B280CDC2B280C9B2B280C5D2B280C17D
:203535001201000200000040B720B19D0000010203020A06000200000008000009040000CD
:2035550000FFFFFF000904000101FFFFFF000904010000FFFFFF000904010101FFFFFF0035
:203575000904020000FFFFFF000904020101FFFFFF000904030000FFFFFF000904030101FD
:20359500FFFFFF0007050202000200070504020002000705860200020007058802000200C5
:2035B5000902000004010080FA51355A35993563356C35A03575357E35A73587359035AE13
:2035D5003500000902000002020080FA51355A35993563356C35A7350000B535D835603693
:2035F5007736A1363535473502EF3503F33512034D00530046005400310030003000C0005B
:2036150028000000000104000100000000000000000157494E55534200000000000000008E
:2036350000000000000000000A000000000105000000393939393939393939393939393947
:20365500393900416E6F74686572007768697465717561726B207265736561726368000060
:203675000000476C6173676F7720496E74657266616365204578706C6F7265722028676927
:2036950074206238623130303134290058582D585858585858585858585858585858580009
:2010D70043B5080210DD308309200002D2B375820122200002C2B375820022903FC0E0FF6F
:2010F700BF10028019BF20028014BF3002801EBF31028019BF32028014BF333A800F43B5A6
:2011170002C2B19000011234D7D2B18029903EC3E4F0A3F0781B74C3F2743E08F27582030F
:201137001213619000FA1234E143B202C2819000011234D7D28112320790E601E053E0FC55
:20115700F053B2F743B31CD294C2939004B01234D70210DD75AF0385829B85839A90E67B13
:201177007815E2F8E0A2E7C2949292D294A2E6C2949292D294A2E5C2949292D294A2E4C291
:20119700949292D294A2E3C2949292D294A2E2C2949292D294A2E1C2949292D294A2E0C2AA
:2011B700949292D294D8BD227431C29400D294D5E0F853B3E3903FC0E0FFBF10028019BFB5
:2011D70020028014BF30028019BF31028014BF3202800FBF3314800A90E601E043E023F093
:2011F700800890E601E043E063F0903EC2740FF00210DDE5827816F2758210122597E5826E
:20121700601978737401F2E408F2903E1675F0601225CBE5826004758201221225AF7582A1
:201237000022AE82AF83758211122597E582601C7D0078177978E2F3E409F38E828F838DF9
:20125700F0122652E5826004758201221225AF75820022AE82AF837D0078187973E2F3E405
:2012770009F38E828F838DF01225CBE582600E1225AFE5827003F58222758201221225AF8C
:2012970075820022E582FF6025903EC2E04FF075820112120AE5827003F5822278187401E6
:2012B700F2903EC212126AE5827003F582227819E2602A7819E2F4FF903EC2E05FF075827B
:2012D7000112120AE5827003F5822278187401F2903EC212126AE5827003F58222758201D5
:0112F70022D4
:2012F800C2B0C2B6D2B743B5C1C2B722E5826003C2B722D2B722AF827E008F05BD0102807C
:201318000ABF02028017BD031F8016903FC0E0FFBF330050047E0C800F7E0E800B7E0D80ED
:2013380007781AE270027E48EE7003F58222EE2EFE781AE24EF582122597E58270071225B2
:20135800AF7582002275820122AF827E00781BE2F58208E2F583E0FCA3E0FDEF30E0027EBB
:2013780001EF30E103430640EF30E013903FE5E0FAA3E0FBC3EA9CEB9D500475820022EF7D
:2013980030E113903FE7E0FAA3E0FBC3EA9CEB9D500475820022EC4D700FEEF4FB52B078B6
:2013B8001DE4F2781EF202143D8C028D03C3EA9472EB94064008747C9A74159B50047582B0
:2013D8000022C006EA248EFAEB34F9FB78AFEAF2E2F5F0EBC4C5F0C4540F65F0C5F0540FA2
:2013F800C5F065F0F2C5F008F290010DC007C006C005C00412322CAA82AB83D004D005D033
:2014180006D007EBC4CAC4540F6ACA540FCA6ACAFB74E0C39AFA740F9BFBFE781DEEF278F8
:201438001EEAF2D006781AE4F28F82C006C005C00412130EE582D004D005D0067003F582F9
:201458002278737402F2E408F2903E1D75F0601225CBE58270071225AF758200221225AFAC
:20147800E5827003F58222EC4D6003EE42B075820122AF82BF01028005BF020A80047E0105
:2014980080087E40800475820022EE55B07011781FE2F58208E2F583E4F0A3F0758201220A
:2014B800781A7401F28F8212130EE5827003F5822278787402F2E408F2903E2175F0601268
:2014D8002652E5827003F582227821E2FE7F007822E27C004207EC4206781FE2FC08E2FD40
:2014F800EEC4CFC4540F6FCF540FCF6FCFFE74FFC39FFFE49EFE78AFEFF2EE08F290009814
:20151800C005C00412322C7870740AF2E408F212250EE5828583F0D004D0052472FE740629
:2015380035F0FF8C828D83EEF0EFA3F075820122AF827823E2FD08E2FE8D828E83E0FBA3A6
:20155800E0FC4B601D8B0A8C0BC3E50A9472E50B9406400A747C950A7415950B5004758214
:201578000022750AB5750B36850A82850B83E493FA7003021629EA5F700302161B781F7404
:20159800C5F2743E08F28A82C007C006C005C004C00312148AE582D003D004D005D006D0B2
:2015B800077003F58222C007903EC5E0FAA3E0FFC3EB9AEC9FD0075030850A82850B83E418
:2015D80093FA781BEDF2EE08F28A82C007C006C005C004C003121361E582D003D004D005BE
:2015F800D006D0077003F58222850A82850B83A3E49325E0FA24E5F582E4343FF583EBF0B3
:20161800ECA3F07402250AF50AE4350BF50B02158075820122AF827EB57D368E038D048BF6
:20163800828C83E493FA6040EFB5022F7825E2F51A08E2F51B8E828D83A3E49325E024E54B
:20165800F582E4343FF583E0FDA3E0FE851A82851B83EDF0EEA3F07582012274022BFBE492
:0C1678003CFC8B068C0580B775820022BC
:0636B5000100020100000B
:2016840090E670E043E001F05388FE22A982E3FE7F0009E37C004207EC4206EEC4CFC45468
:2016A4000F6FCF540FCF6FCFFE78AFEFF2EE08F290010312322C7870740AF2E408F202251A
:2016C4000EAE82AF8378AFEEF2EF08F290000A12322C78707403F2740108F212250EAE8267
:2016E400E583C454F0CEC4CE6ECE54F0CE6EFF7827E2F9EFF309EEF322AF827DBB7E368D49
:20170400038E048B828C83E493FA6059EFB502488D828E83A3E493FA786B742AF2786AE48F
:20172400F2786C7402F28A8212245BE5827003F582227828E2F50C08E2F50D75822A12169F
:201744009085820E85830F850C82850D83E50EF0E50FA3F07582012274022BFBE43CFC8BDA
:20176400058C06809E75820022AF827830E4F27831F27832740FF27833F4F278347403F288
:201784007835E4F2782CE2F58208E2F583E0FDA3E0FE8D038E04C3747C9B74159C4023C04D
:2017A40007782EE2FB08E2FC8B828C83E0FAA3E0FF8A108F11C3747C951074159511D007A5
:2017C400500475820022ED4E700C747CB510077415B51102803778277430F28D828E83C008
:2017E40007C004C0031216C5D003D0048B828C83E0FBA3E0FC78277432F28B828C831216D2
:20180400C5D00778357414F2783574D4F27DBB7E368D828E83E493FC7003021904EC5F704E
:20182400030218FA74012DFBE43EFC8B828C83E493FA786E7430F2786D7403F2786F14F28E
:201844008A82C007C006C005C004C0031224B3E582D003D004D005D006D0077003F582221A
:201864008B828C83E493FA786E7432F2786D7404F2786F03F28A82C007C006C005C004C04C
:20188400031224B3E582D003D004D005D006D0077003F582228B828C83E493FA786E7434A1
:2018A400F2786D7401F2786FF28A82C007C006C005C004C0031224B3E582D003D004D0055C
:2018C400D006D0077003F582228B828C83E493FB786E7435F2786D7402F2786F14F28B82F5
:2018E400C007C006C0051224B3E582D005D006D0077003F5822274022DFDE43EFE021815C5
:2019040075820122AF827DBB7E368D038E048B828C83E493FA7003021A0DEFB50202800316
:201924000219FF74012DF512E43EF513851282851383E493FD786B743CF2786A7402F278C7
:201944006C14F28D8212245BE5827003F58222783CE270217836E2F58208E2F583E4F0A3F7
:20196400F07838E2F58208E2F583747CF07415A3F075820122851282851383E493FD786B67
:20198400743AF2786A7403F2786C14F28D8212245BE5827003F582227836E2F51408E2F5E3
:2019A4001575823A121690AA82AE83851482851583EAF0EEA3F0851282851383E493FE7814
:2019C4006B743AF2786A7404F2786C03F28E8212245BE5827003F582227838E2F51408E23A
:2019E400F51575823A121690AA82AE83851482851583EAF0EEA3F07582012274022BFBE466
:201A04003CFC8B058C0602191275820022A280B39202E433F58222AF83E582783EF2EF08D1
:201A2400F2783EE2F58208E2F583E4F07CBB7D368C828D83E4937003021B4074012CFAE49D
:201A44003DFB8A828B83E493FF786B7440F2786A7401F2786CF28F82C005C004C003C002F3
:201A640012245BE582D002D003D004D0057003F582227840E27003021B367841E4F2783E6B
:201A8400E2F58208E2F583E0FF8C828D83E4934207783EE2F58208E2F583EFF08A828B8360
:201AA400E493FF786B7441F2786A7402F2786C14F28F82C005C004C003C00212245BE582D7
:201AC400D002D003D004D0057003F58222783DE260308A828B83E493FA786B7440F2786A8B
:201AE4007401F2786CF28A82C005C00412245BE582D004D0057003F582227841E24404F28E
:201B040080067841E254FBF28C828D83A3E493FF786E7441F2786D7402F2786F14F28F8250
:201B2400C005C0041224B3E582D004D0057003F5822274022CFCE43DFD021A3475820122ED
:0636BB000154025500005D
:201B4400AF82786E7442F2786D7412F2786FE4F28F82C0071224B3E582D0077003F582229D
:201B6400784274FFF2786E7442F2786D74D2F2786F7401F28F821224B3E5827003F58222DC
:201B8400758201227EC17F368E828F83E49360378E828F83A3E493FCA3E493FD8C828D8396
:201BA400E4F08E828F83A3A3A393F582C007C006121B44E582D006D0077003F582227404A2
:201BC4002EFEE43FFF80C175820122E582F904F8E2FF7E007D008D258E248F238E22E3FA7D
:201BE400E4FBFEFFE5224202E5234203E5244206E525420778B1EAF2EB08F2EE08F2EF0800
:201C0400F2900005E4F5F012324EAC82AD83AEF0C313FFEE13FEED13FDEC13FCEFC313EE63
:201C240013ED13FDEC13F5828D8322AE82AF83EE2EF582EF33F583E5822582F582E5833339
:201C4400F58378707405F2E408F212250EAE82AF837843E2F9EEF309EFF322AF827DC17EBF
:201C6400368D038E048B828C83E493FA605CEFB5024B8D828E83A3A3A3E493FA786B7446B7
:201C8400F2786A7488F2786C7402F28A8212245BE5827003F582227844E2F52608E2F52763
:201CA400758246121BCF858228858329852682852783E528F0E529A3F07582012274042BD0
:201CC400FBE43CFC8B058C06809B75820022AF82784CE4F2784DF2784E74F8F2784F747F33
:201CE400F2785074FFF27848E2F58208E2F583E0FDA3E0FE8D038E04C3747C9B74159C4013
:201D04001DC007784AE2FB08E2FC8B828C83E0FAA3E0FFC3747C9A74159FD0075004758247
:201D24000022ED4E601E7843744CF28D828E83C007C004C003121C2FD003D004D007785046
:201D4400E254FEF28B828C83E0FDA3E0FE8D038E04BB7C05BC150280167843744EF28D829A
:201D64008E83C007121C2FD0077850E254FDF27DC17E368D828E83E493FC7003021E6AECF8
:201D84005F7003021E6074032DFBE43EFC8B828C83E493FA786E744CF2786D7458F2786F81
:201DA4007402F28A82C007C006C005C004C0031224B3E582D003D004D005D006D0077003E6
:201DC400F582228B828C83E493FA786E744EF2786D7457F2786F7402F28A82C007C006C0F5
:201DE40005C004C0031224B3E582D003D004D005D006D0077003F582228B828C83E493FA41
:201E0400786E7450F2786D74D2F2786F7401F28A82C007C006C005C004C0031224B3E58282
:201E2400D003D004D005D006D0077003F582228B828C83E493FB786E7450F2786D7403F2F1
:201E4400786FE4F28B82C007C006C0051224B3E582D005D006D0077003F5822274042DFDE2
:201E6400E43EFE021D7775820122AF827DC17E368D038E048B828C83E493FA7003021F4CDC
:201E8400EFB502028003021F3E74032DF52AE43EF52B852A82852B83E493FD786B7455F239
:201EA400786A7458F2786C7402F28D8212245BE5827003F582227851E2F52C08E2F52D75D2
:201EC4008255121BCFAA82AE83852C82852D83EAF0EEA3F0852A82852B83E493FE786B74DB
:201EE40055F2786A7457F2786C7402F28E8212245BE5827003F582227855E2FEBEF81978A4
:201F040056E2FEBE7F127853E2F58208E2F583747CF07415A3F0801E7853E2F52C08E2F56B
:201F24002D758255121BCFAA82AE83852C82852D83EAF0EEA3F07582012274042BFBE43C30
:201F4400FC8B058C06021E7875820022AE82AF83E4F07CC17D368C828D83E493606C8C8219
:201F64008D83A3A3A3E493FB786B7457F2786A7480F2786C23F28B82C007C006C005C0046E
:201F840012245BE582D004D005D006D0077003F582227857E2540F60288E828F83E0FB8CBE
:201FA400828D83E49342038E828F83EBF08C828D83A3E493FAA3E493FB8A828B837857E2C0
:201FC400F074042CFCE43DFD808C75820122AE82AF83E4F07CC17D368C828D83E493FB6013
:201FE40057C00374012CF51AE43DF51B851A82851B83E493FAA3E493FB8A828B83E0FA54D0
:202004000F7004D0038028D0038E828F83E0FA42038E828F83EBF07858E26013851A8285E2
:202024001B83E493FAA3E493FB8A828B83E4F074042CFCE43DFD80A022AF827DC17E368DDA
:20204400828E83E493FC700302215DEC5F700302215374032DFBE43EFC8B828C83E493FA05
:20206400786B7459F2786A7458F2786C7402F28A82C007C006C005C004C00312245BE582F1
:20208400D003D004D005D006D0077003F582228B828C83E493FA786B745BF2786A7457F237
:2020A400786C7402F28A82C007C006C005C004C00312245BE582D003D004D005D006D007CA
:2020C4007003F582228B828C83E493F582C007C006C005C004C003121B44E582D003D0048E
:2020E400D005D006D0077003F582228B828C83E493FA786E7459F2786D7458F2786F74021C
:20210400F28A82C007C006C005C004C0031224B3E582D003D004D005D006D0077003F58281
:20212400228B828C83E493FB786E745BF2786D7457F2786F7402F28B82C007C006C00512E2
:1D21440024B3E582D005D006D0077003F5822274042DFDE43EFE0220437582012271
:0C36C10001C73E4002C83E41000000006E
:20216100AF827E008F05BD01028005BF020880047E2080027E21EE7003F58222EE2EFE783E
:202181005DE24EF582122597E5827003F5822275820122AF82785DE4F28F82122161E582F7
:2021A100603878737401F2E408F2903E5E75F0601225CBE582602378737401F2E408F290B9
:2021C1003E5F75F0601225CBE582600E1225AFE5827003F58222758201221225AF75820075
:2021E10022AF82785DE4F28F82C007122161E582D007604578737401F2E408F2903E6075BE
:20220100F0601225CBE5826030785D7401F28F82122161E58260227861E2FD08E2FE7F008B
:2022210078787401F2E408F28D828E838FF0122652E5826004758201221225AF758200225B
:20224100AF82785E7401F27864795FE2F38F82C007122194E582D0077003F582227863E2E0
:20226100F4F2785E7403F27863795FE2F38F82122194E5827003F5822275820122AF8278A2
:20228100607401F278677961E2F308E209F38F82C0071221E2E582D0077003F582227860F3
:2022A1007403F278657961E2F308E209F38F821221E2E5827003F582227865E2FE08E2FF03
:0F22C1008E828F83E0F48E828F83F075820122EC
:2022D00012320790E60B7403F012320790E6017480F012320790E6047480F012320790E6AB
:2022F00009E4F012320790E6027498F012320790E60374FEF012320790E670E043E080F068
:2023100012320790E618E053E0FEF012320790E619E053E0FEF012320790E61AE053E0FE0C
:20233000F012320790E61BE053E0FEF022E582FF60067E007D0080047E027D8012320790FB
:20235000E6047480F012320790E61274A04EF012320790E61374204DF012320790E614748C
:20237000E04EF012320790E61574604DF0EF60067D057E0080047D0F7E007869EDF28F8294
:2023900012239C12320790E604E4F022AF827869E2FE30E04312320790E618E4F012320764
:2023B00090E604E043E002F012320790E6497482F012320790E6497482F0EF601212320712
:2023D00090E6497482F012320790E6497482F012320790E6187410F0EE30E12E1232079003
:2023F000E619E4F012320790E604E043E004F012320790E6497484F012320790E64974844A
:20241000F012320790E6197410F0EE30E21C12320790E61AE4F012320790E604E043E006D5
:20243000F012320790E61A7404F0EE30E31C12320790E61BE4F012320790E604E043E008BC
:0B245000F012320790E61B7404F0222B
:20245B00E5822582FFF582122597E582604378737401F2E408F2903E6A75F0601225CBE5F1
:20247B0082602E74014FF582122597E5826022786BE2FD7E007F60786C7978E2F3E409F396
:20249B008D828E838FF0122652E5826004758201221225AF75820022E582FF25E0F5821220
:2024BB002597E582604678737401F2E408F2903E6D75F0601225CBE5826031786FE2601EC7
:2024DB00786EE2FD7E007F60786F7973E2F3E409F38D828E838FF01225CBE582600E12258A
:1324FB00AFE5827003F58222758201221225AF7582002293
:20250E00AE82AF837C007D007B10EF235401FAEE2EFEEF33FFEC2CFCED33FDEA6003430466
:20252E00017870C3E2F5F0EC95F008E2F5F0ED95F040117870D3E29CF4B3FCB308E29DF40D
:0B254E00FD430601DBC48E828F832258
:20255900C007C000AF8290E678E020E00E7872E260F47872E4F2758200801E90E678E0305B
:20257900E2057582008012EF600C90E678E0FF035401F5828003758201D000D00722C007D0
:20259900AF8290E6787480F090E679EFF0758201122559D0072290E678E030E204758200F5
:2025B9002290E6787440F090E678E020E6F975820122C007C006C004C003C002C000AFF032
:2025D900AE83E5827875F2EE08F2EF08F27873E2F5F008E245F07005758201804F7B007C96
:2025F900007873E2B5030708E2B50402802B7875E22BFA08E23CFE08E2FF8A828E838FF049
:2026190012350CFA90E679F0758201122559E58260070BBB00CB0C80C87873E2B5030808A5
:20263900E2B50403D38001C3E433F582D000D002D003D004D006D00722C007C006C005C014
:2026590004C003C002C001C000AFF0AE83E582787AF2EE08F2EF08F27878E2F5F008E24585
:20267900F0700675820102279A7878E2FB08E2FCBB0109BC000690E6787420F090E679E0A5
:202699007B007C00787DE4F208F2787D7978E2F5F0E3B5F00C08E2F5F009E3B5F003022798
:2026B90074758200122559E5827003022787787DE2FD08E2FE74022DFDE43EFE7878E2B579
:2026D900050708E2B506028002800690E6787420F0787DE2FD08E2FE0DBD00010E7878E24D
:2026F900B5050708E2B506028002803575AF03759AE6759B7890E67B7440F0E0ACE0787A8B
:20271900797DE3C5F0E225F0FD09E3C5F008E235F0FE08E2FF8D828E838FF0EC1232108028
:2027390025787A797DE3C5F0E225F0FD09E3C5F008E235F0FE08E2FF90E679E0FA8D828EEA
:20275900838FF0123210787DE22401F208E23400F2787DE2FB08E2FC0226A390E678E0308B
:20277900E205758200801A90E678E020E6F97878E2B5030808E2B50403D38001C3E433F5A0
:1227990082D000D001D002D003D004D005D006D00722EE
:2027AB00AA82AB83787FE2FC08E2FD7881E2FE08E2FFEE60010FEF601775AF078A9B8B9AFD
:1127CB008C9E8D9D90E67CE090E67BF0DEF6DFF4222D
:2027DC00C007C006C005C001C000AF82788AE260127884E2FE788BEEF27883E2FE788CEEF7
:2027FC00F280087883E2FE788BEEF2EF2FFFF582122597E5826055788AE2FDE23395E0FE9E
:20281C000DBD00010E7873EDF2EE08F2903E8B75F0601225CBE582603374014FF582122585
:20283C0097E582602778887978E2F308E209F37885E2F58208E2F58308E2F5F0122652E555
:20285C00827004F582800B75820180061225AF758200D000D001D005D006D00722C007C03D
:20287C0006C005C004C003C002C001C000AF827897E4F208F2EF2FFFF582122597E582705E
:20289C0003022A347895E2FC8CF005F07B017C008006EB2BFBEC33FCD5F0F778977992C31A
:2028BC00E3F5F0E295F009E3F5F008E295F04003022A347894E26012788EE2FA7899EAF2BB
:2028DC00788DE2FA789AEAF28008788DE2FA7899EAF2C003C0047894E2FAE23395E0FC0AB8
:2028FC00BA00010C7873EAF2EC08F2903E9975F0601225CBE582D004D0037003022A34C079
:20291C0007788DE2F58208E2F5838B028C0778BDEAF2EF08F2C007C004C003C002C001C029
:20293C000012339CAD82AE83D000D001D002D003D004D007EAC39DFAEF9EFF789BEAF2EF9B
:20295C0008F278927997E3F5F0C3E295F0FE09E3F5F008E295F0FF789BC3E2F5F0EE95F008
:20297C0008E2F5F0EF95F0D007502078927997E3F5F0C3E295F0C0E009E3F5F008E295F0C5
:20299C00C0E0789CD0E0F218D0E0F2788F7997E3C5F0E225F0FA09E3C5F008E235F0FD08B6
:2029BC00E2FE789B7973E2F308E209F38A828D838EF01225CBE582605F1225AFE5827004DE
:2029DC00F58280737E007896E2600B7896C3E2F5F0EE95F0500C8F82122597E58270030E6A
:2029FC0080E47896E2B50605758200804A788D799BE3C5F0E225F0F209E3C5F008E235F09C
:202A1C00F27897799BE3C5F0E225F0F209E3C5F008E235F0F20228B71225AF78977992E29F
:202A3C00F5F0E3B5F00C08E2F5F009E3B5F003D38001C3E433F582D000D001D002D003D0E3
:082A5C0004D005D006D00722CA
:06009800E478FFF6D8FD3C
:012A6400323F
:202A6500AFF0AE83E58278A0F2EE08F2EF08F2789EE2F51A08E2F51B789EE2F5F008E24532
:202A8500F0602A78A0E2FA08E2FB08E2FC789DE2FFAD1AAE1B8A828B838CF0EF123210A3F6
:1B2AA500AA82AB831DBDFF011EED4E70E878A0E2F58208E2F58308E2F5F0226D
:202AC000AF8278A4E4F278A5F2D2E890E668E043E008F090E65CE043E001F090E65D740123
:202AE000F0D2AF90E680E020E10890E680E043E002F0EF600E90E680E043E008F090000AB3
:202B00001234E190E680E053E0F7F022AF82BF00028037BF01028036BF02028039BF04021A
:202B20008038BF06028037BF08028036BF80028019BF8102801CBF8202801BBF8402801A6B
:202B4000BF86028019BF881E801890E6A02290E6A12290E6A22290E6A32290E6A42290E600
:202B6000A52290E6A62290000022C021C0E0C0F0C082C083C007C006C005C004C003C0024D
:202B8000C001C000C0D075D000C08675860090E6B8E0FFE4BF800104FE601B90E6B9E0FDE4
:202BA000BD061390E6BAE0FCA3E0F5827800ECF21201C0022DEEEF702A90E6B9E0FDBD0998
:202BC0002290E6BAE0F5821203FCE582600990E6A07480F0022DEE90E6A07401F07481F0F4
:202BE000022DEEEE600E90E6B9E0FDBD0806123437022DEE8F05BD013290E6B9E0FDBD0B93
:202C00002A90E6BCE0FD90E6BA7805E0F28D82120445E582600990E6A07480F0022DEE901B
:202C2000E6A07401F07481F0022DEEE4BF810104FD601490E6B9E0FCBC0A0C90E6BCE0F529
:202C4000821204ED022DEEEF703790E6B9E0FCBC032F90E6BAE0FBA3E0FCBB0110BC000D24
:202C600078A47401F290E6A003F0022DEEBB0205BC00028003022DEE90E6A07480F0022D62
:202C8000EEEE603590E6B9E0702F78A3E2FE78A4E225E0FC420690E740EEF090E741E4F0B2
:202CA00090E6B504F090E68AE4F090E68B7402F090E6A07480F0022DEEED602890E6B9E01F
:202CC000702290E740E4F090E741F090E6B504F090E68AE4F090E68B7402F090E6A07480CB
:202CE000F0022DEEBF02028003022D9390E6B9E0FEBE03028008BE01028003022D9390E6EB
:202D0000BAE0FDA3E0FE4D6003022DEE90E6BCE0F582122B0CAD82AE83ED4E7003022DEED1
:202D200090E6B9E0FCBC03188D828E83E0FC4304018D828E83ECF090E6A07480F0022DEE5A
:202D400090E6BCE0F582C006C005123425E582D005D0067003022DEE8D828E83E0FC5304FF
:202D6000FE8D828E83ECF090E6BCE0FDA3E08D0453040F530580E4C423CDC423541F6DCDCC
:202D8000541FCD6DCDFE90E683ED4CF0E043E020F0805BBF825290E6B9E0704C90E6BCE03B
:202DA000F582122B0CAE82AF838E048F05EE4F603D8C828D83E0FC5304017F00EC4FB40130
:202DC00000B39203E433FF90E740F090E741E4F090E6B504F090E68AE4F090E68B7402F008
:202DE00090E6A07480F0800690E6B81203EC5391EF90E65D7401F0D086D0D0D000D001D0B2
:202E000002D003D004D005D006D007D083D082D0F0D0E0D02132AE82AF8378A6E2B4012C0C
:202E200078A7E270278E828F83E493FCA3E493FD787FECF2ED08F28C828D83E4937881F212
:202E4000E408F290E0001227AB02308B78A6E2B4063F78A7E2703A8E828F83A3A3E493FC04
:202E6000A3E493FD4C700A90E6A07401F07481F0228C028D03787FEAF2EB08F28C828D83FF
:202E8000E4937881F2E408F290E0001227AB02308B78A6E2B402028003022FA68E828F83AD
:202EA000A3A3A3A3E493FD78A7C3E29D4003022FA68E828F83A3A3A3A3A3E493FCA3E493B9
:202EC000FD78A7E275F002A42CF582ED35F0F583E493FCA3E493FD74092CFFE43DFE8C02DD
:202EE0008D03787FEAF2EB08F28C828D83E4937881F2E408F290E000C007C006C005C004A6
:202F00001227ABD004D005D006D0078C828D83E493FC2400F516E434E0F5178F028E03850C
:202F200016188517198A828B83E493FCA3E493FD787FECF2ED08F28C828D83E4937881F2CE
:202F4000E408F2851882851983C003C0021227ABD002D0038A828B83E493FCA3E493FD8C15
:202F6000828D83E4932516F516E43517F51774022AFAE43BFB8A828B83E493FCA3E4934C1F
:202F8000709D90E002E0FCA3E0FD4C600302308BE516C39400FCE51794E0FD90E002ECF0E1
:202FA000EDA3F002308B78A6E2B4030474018001E4FD602278A7E2701D787F74CDF274365E
:202FC00008F29036CDE4937881F2E408F290E0001227AB02308BED700302308178A7E2FC03
:202FE0007D0024FFFAED34FFFB74072EF582E43FF583C006C007E493FF7E00C3EA9FEB6445
:20300000808EF063F08095F0D007D006507374082EF582E43FF583E493FEA3E493FF1CBCC8
:20302000FF011DEC2CFCED33FDEC2EF582ED3FF583E493FEA3E493FF90E0007402F090E039
:203040000104F074012401FCE434E0FD8E828F83E493FB60360EBE00010F8C828D83EBF0F1
:2030600074012CFAE43DFB8A828B83E4F0042AFCE43BFD90E000E0FB0B0B90E000EBF08039
:20308000CB90E6A07401F07481F0227E007FE090E6B57401F090E6B3EFF090E6B4EEF090D6
:2030A000E6A07480F022AE82AF83A3A3A3A3A3E493FCA3E493FD74042EFEE43FFF78AAE49D
:2030C000F28E828F83E493FA78AAC3E29A400122C006C00778AAE275F002A42CF582ED3546
:2030E000F0F583E493FAA3E493FF78AB74092AF2E43F08F2751A008A828F83A3A3A3A3A329
:20310000E493FF78A5E2B507028007D007D0060231FBD007D00678ABE2F51B08E2F51CC09D
:2031200004C005851B82851C83E493FAA3E493FD8A828D83A3E493F51D7404B51D028006DE
:20314000D005D004804AD005D004851B82851C83E493F51EA3E493F51F851E82851F83A366
:20316000A3E493FA78A8E2B50214851E82851F83A3A3A3E493FA78A9E2B50202800678AD61
:20318000E4F2800578AD7401F278ADE2F51A804D7405B51D48E51A6044C004C005851B8284
:2031A000851C83E493FAA3E493FD8A828D83A3A3E493FD740F5DFC530580E423CDC42354CA
:2031C0001F6DCD541FCD6DCD30E40244E0FA90E683ED4CF0E043E020F0D005D0047402256F
:2031E0001BF51BE4351CF51C851B82851C83E493FAA3E493FB4A600302311F78AAE224016A
:04320000F20230C1E5
:0436CD0004030904E5
:013204003297
:200076007900E94400601B7A009036D178C975923EE493F2A308B800020592D9F4DAF2753F
:0200960092FFD7
:013205003296
:013206003295
:03010000022B6A65
:03010400023509B8
:030108000234239B
:03010C00023505B4
:0301100002350BAA
:0301140002352F82
:030118000234208E
:03011C000201B825
:03012000020EEEDE
:03012400020EF1D7
:030128000234346A
:03012C0002352E6B
:03013000020EF4C8
:03013400020EF7C1
:03013800020EFABA
:03013C00020EFDB3
:0301400002343155
:030144000201B8FD
:0301480002352855
:03014C0002352950
:0301500002352A4B
:0301540002352B46
:0301580002352C41
:03015C0002352D3C
:0301600002350A5B
:030164000201B8DD
:030168000201B8D9
:03016C000201B8D5
:0301700002343323
:030174000234351D
:03017800023454FA
:03017C00023456F4
:0301800002343610
:03018400023455ED
:03018800023457E7
:03018C0002350633
:0301900002339B9C
:0301940002342111
:030198000234240A
:03019C00023430FA
:0301A00002341F07
:0301A40002342200
:0301A80002342FEF
:0301AC00023432E8
:0301B00002324DCB
:0301B400023534DD
:0101B8003214
:093207000000000000000000229C
:1B32100020F71130F6138883A88220F509F6A8837583002280FEF280F5F022BD
:01322B003270
:20322C00AA83AB828BF0903EAFE0A4F8A9F08AF0E0A429F98BF0A3E0A429F583888222226A
:01324C00324F
:01324D00324E
:20324E00AF82AE83ADF0FC78B5EFF2EE08F2ED08F2EC08F278B5E2FF78B3E28FF0A4FFADB8
:20326E00F078BBEFF208EDF278B5E2FF78B1E28FF0A4FFADF078B9EFF208EDF278BCE2FF6F
:20328E0078B8E2FE78B1E28EF0A42FFF78BCF278B7E2FE78B2E28EF0A42F78BCF278BBE2E8
:2032AE00FE08E2FF78B7E2FD78B1E28DF0A4ABF02EFEEB3FFF78BBEEF208EFF278B6E2FDE6
:2032CE0078B2E28DF0A4ABF02EFEEB3FFF78BBEEF208EFF278B6E2FF78B3E28FF0A478B858
:2032EE00F278B6E2FF78B1E28FF0A4FFADF078B6EFF208EDF278B5E2FF78B4E28FF0A47848
:20330E00B4F278B5E2FF78B2E28FF0A4FFADF078B2EFF208EDF278B1E4F278B5F278B9E2FD
:20332E00F51A08E2F51B08E2F51C08E2F51D78B5E2FA08E2FB08E2FE08E2FFEA251AF51A88
:20334E00EB351BF51BEE351CF51CEF351DF51D78B9E51AF208E51BF208E51CF208E51DF25E
:20336E0078B9E208E208E208E278B1E2FC08E2FD08E2FE08E2FFEC251AFCED351BFDEE352B
:0C338E001CFEEF351D8C828D838EF0221A
:01339A003200
:01339B0032FF
:20339C00AE82AF837D007C0078BEE2235401FB703578BDE225E0F208E233F278BDC3E2F59A
:2033BC00F0EE95F008E2F5F0EF95F0501478BDE2F5F008E2C313C5F01318F2C5F008F2802A
:2033DC00050C8C0580C278BDC3E2F5F0EE95F008E2F5F0EF95F0400E78BDD3E29EF4B3FEFD
:2033FC00B308E29FF4FF78BDE2F5F008E2C313C5F01318F2C5F008F28D041DEC70C88E8263
:03341C008F832279
:01341F00327A
:20009E0078BFE84400600A790075923EE4F309D8FC780AE84400600C7901903EBFE4F0A36B
:0400BE00D8FCD9FA97
:013420003279
:013421003278
:013422003277
:013423003276
:013424003275
:0A34250090E6A07480F07582012289
:01342F00326A
:013430003269
:013431003268
:013432003267
:013433003266
:013434003265
:013435003264
:013436003263
:1D34370090E74078A5E2F090E6B57401F090E68AE4F090E68B04F090E6A003F0224E
:013454003245
:013455003244
:013456003243
:013457003242
:20345800E583700BE58224FA400122B4001122E5826003D5E0FD0075E0FED583F674F9D543
:20347800E0FD22C007C006C001C000AE82AF83EE2EF8EF33F9EE28FEEF39FF90E600E0F80D
:20349800794C20E416C3EF13CE13CEFF795AE820E309C3EF13CE13CEFF7963E58124FAF830
:2034B800E926C313C313F9C3EE99F582EF9400F583D000D001D006D00750012202345874C1
:2034D80011C0E012347B158122C007C006AE82AF837411C0E0EE4F600D1EBEFF011F90035E
:0D34F800E812347B80EF1581D006D007224A
:013505003293
:013506003292
:013507003291
:013508003290
:01350900328F
:01350A00328E
:01350B00328D
:0D00690075812D123530E5826003020066BE
:1C350C0020F71430F6148883A88220F507E6A88375830022E280F7E49322E022CE
:013528003270
:01352900326F
:01352A00326E
:01352B00326D
:01352C00326C
:01352D00326B
:01352E00326A
:01352F003269
:04353000758200227E
:013534003264
:00000001FF
