:060000000201D102069F7F
:03000B00022E3191
:03001300022E13A7
:03001B00022E7042
:03002300022FD8D1
:03002B000206A525
:03003300022EE0BA
:03003B00022FD9B8
:03004300020100B7
:03004B00022691F9
:03005300020100A7
:03005B00022E145E
:03006300022E1555
:100068000000E2FBEAF2802C0000E0FBEAF08024CA
:10007800E6B50202EBF62200E2B50202EBF222003C
:10008800E0B50202EBF02230F6E0A88220F5D3EAD0
:10009800C6F582228B822230F6E6A88220F5D98026
:1000A800CF0206E4C000A88118C0D0B6001B18B65D
:1000B80068004015B68F005010C0E0E65407B4063B
:1000C800005004E654F8F6D0E0D0D0D00032E47303
:0301000002273B98
:03010400022FDAED
:03010800022EE6DE
:03010C00022FD6E9
:03011000022FDCDF
:03011400022FFFB8
:03011800022EE3D1
:03011C000201B825
:030120000206CC08
:030124000206CF01
:030128000206D2FA
:03012C000206D5F3
:030130000206D8EC
:030134000206DBE5
:030138000206DEDE
:03013C000206E1D7
:03014000022F0487
:030144000201B8FD
:03014800022FF98A
:03014C00022FFA85
:03015000022FFB80
:03015400022FFC7B
:03015800022FFD76
:03015C00022FFE71
:03016000022FDB90
:030164000201B8DD
:030168000201B8D9
:03016C000201B8D5
:03017000022F0655
:03017400022F0750
:03017800022F252E
:03017C00022F2728
:03018000022F0843
:03018400022F2621
:03018800022F281B
:03018C00022FD768
:03019000022EE15B
:03019400022EE454
:03019800022EE74D
:03019C00022F032C
:0301A000022EE24A
:0301A400022EE543
:0301A800022EF232
:0301AC00022F051A
:0301B000022E71AB
:0301B40002300016
:0101B8003214
:1001D100758174123001E58260030200A97972E928
:1001E1004402601B7A03903222780F75923DE493AA
:1001F100F2A308B800020592D9F4DAF27592FFE48D
:1002010078FFF6D8FD7800E84400600A790075921D
:100211003DE4F309D8FC780FE84400600C790190C3
:100221003D00E4F0A3D8FCD9FA785A7601785B76E0
:1002310002785C7604785D7608C200C20478637641
:100241000E7864760D78657654786676557867769B
:100251004C7868764D7869764E786A764F786B7609
:1002610020786C7621786D7620786E7621786F769D
:10027100207870762178717601787276407873767D
:1002810002787476800200A9AF82BF033674EEB59E
:100291000831755139755231903139E493F55375FF
:1002A100540090E0001226017D007EE090E6B574D6
:1002B10001F090E6B3EEF090E6B4EDF090E6A074B4
:1002C10080F0228F4A85084B90312C0229B7753175
:1002D1000075323DE4F52FF530753301F534F53510
:1002E1007582511221E1E5826065903D00E0FFBF1A
:1002F100FF02805BBFC2028022BFC01F7531C07583
:10030100323F752F0C7530007533407534007535EB
:10031100007582511221E1E5826034903FFFE020B7
:10032100E12C75510C755200903FD1122E4F903F28
:10033100E5E0FEA3E0FF903FE1EEF0EFA3F0903F98
:10034100E7E0FEA3E0FF903FE3EEF0EFA3F02290A1
:100351003FC074F9F075519C755231755310755445
:1003610000903FC1122601903FD1E4F0A3F0A3F029
:10037100A3F022AF828F057E00740C2DFDE43EFEBA
:100381008D2F8E30EF24C0F531E4343FF5328509ED
:10039100337534007535017582510221E1903FC0FA
:1003A100E0FFBFF9028014903FC0E0FF7E004306EA
:1003B10007903011EFF0EEA3F0801490300D74B47B
:1003C100F07404A3F090300F7413F07486A3F090CE
:1003D1003FE9E06022903106E493FEA3E493FF8EAF
:1003E100828F83742924C0F551E4343FF55275534B
:1003F10016755400122601903FFFE030E01D903148
:1004010008E493FEA3E493FF8E828F837551AD754B
:10041100523175530775540012260190310AE49345
:10042100FEA3E493FF903FC0E0C4540F24408E82AA
:100431008F83F074012EFCE43FFD903FC0E0FB741C
:100441000F5B24308C828D83F08E828F83A3A3A3D4
:10045100740124C0F551E4343FF5527553107554BD
:1004610000022601AE82AF83E0FD235401F50ABDEF
:10047100C0028008BD400280030205A0E50A605069
:100481008E828F83A3E0FDBDC0468E828F83A3A39E
:10049100A3A3E0FCA3E0FDBC0436BD003375514BC2
:1004A10075523190314BE493F553A3E493F5549095
:1004B100E0001226017C007DE090E6B57401F09029
:1004C100E6B3EDF090E6B4ECF090E6A07480F02293
:1004D100E50A60508E828F83A3E0FDBDC0468E8207
:1004E1008F83A3A3A3A3E0FCA3E0FDBC0536BD005D
:1004F10033755173755231903173E493F553A3E41D
:1005010093F55490E0001226017C007DE090E6B561
:100511007401F090E6B3EDF090E6B4ECF090E6A053
:100521007480F022E50A60778E828F83A3E0FDBD9F
:10053100D06D8E828F83A3A3A3A3E0FCA3E0FDBCB7
:10054100025DBD005A8E828F83A3A3E0FEA3E0FF6C
:10055100BE014CBF0049903FFFE030E24275517D42
:1005610075523190317DE493F55375540090E0005C
:100571001226017E007FE090317DE493FD7C0090A6
:10058100E6B5E4F090E68AECF090E68BEDF090E6CB
:10059100B3EFF090E6B4EEF090E6A07480F0229014
:1005A100E6A07401F07481F022AF82C007120F70CF
:1005B100120C77D0078F497F00BF05005009EF2447
:1005C1005EF876000F80F275820122E582FF7009E4
:1005D100C007120F70D0078013850B108F82C007E0
:1005E100120B3DE582D0077003F582228F51850BF6
:1005F1005290312CC007122D00D007EF245EF8A6CF
:100601000B75820122E582245EF9870790E740EFAE
:10061100F090E6B57401F090E68AE4F090E68B0480
:10062100F090E6A003F02275B20275800075B5FF67
:1006310075B00075B31C75900090E601E4F0D288A6
:10064100D2A82275C801D2AD90E65E74FFF0229067
:10065100E782E024FF9200903FC0E0FFBF400050DE
:10066100047F3C80027F34EFF452B030000F90E7FA
:1006710083E025E025E0FEEF5E42B0801DD2B2901E
:100681003FC0E0FFBF40005003208304C20180024D
:10069100D201A201E43324FF92B37582002220002B
:1006A10002D2B532200002C2B4C2CAC2CF32C0E007
:1006B100C082C083200002D2B4D2CA5391EF90E627
:1006C1005F74FFF0D083D082D0E0320206AF020621
:1006D100AF0206AF0206AF0206AF0206AF0206AFD7
:1006E1000206AF90E60B7403F090E6007412F090EE
:1006F100E67A7401F01202CF12039E120628120646
:100701004412175A120A07903FC0E0FFBF40004051
:1007110006C2B3D2B2D2B3903FD1E0FCA3E0FDA3B5
:10072100E0FEA3E0FFEC4D4E4F6010120DD5E582C7
:10073100B401009202E43324FF92B57582011226BE
:1007410092785E8607BF0103120F90785F8607BF1C
:1007510003004003120C8D208006121F0A120F3372
:100761002000DE90E687E0702690E684E0FFC31368
:10077100FF24FC401CEF2F90077C738006800C80C7
:10078100068008D2B2800AC2B28006B2B28002D21A
:10079100B2903FC0E0FFBF400050A6A28392B38059
:1007A100A0E58224FF9210903FC0E0FFBF300050CF
:1007B1000CA210B39211E43324FF92B122B210A221
:1007C10010E43324FF928122C2B0C2B69000FA1223
:1007D1002FB27582011207A2900001122FA8758213
:1007E100001207A2C293D2949004B0022FA875827E
:1007F100011207A2E1F790E60174E2F0758200129E
:1008010007A290E6C2E4F07402F0227F00BF31003B
:100811005007C294D2940F80F422AF82E4F50CF514
:100821000DF50EF50FC203012A90E6047480F00164
:100831003290E6F574FFF0013A90E60174C0F001E0
:100841004290E61274A2F0014A90E618E4F00151D8
:1008510090E6047402F0015990E6497482F0016156
:1008610090E6497482F0016990E604E4F0EF6006D5
:100871007582010207A2903FC0E0FFBF4000500314
:100881000207C90207EF75AF0385829B85839AAA88
:1008910051AB52EA60010BEB604890E67BE0A2E7C6
:1008A100C2949292D294A2E6C2949292D294A2E578
:1008B100C2949292D294A2E4C2949292D294A2E36C
:1008C100C2949292D294A2E2C2949292D294A2E160
:1008D100C2949292D294A2E0C2949292D294DABD3E
:1008E100DBBB22AF82E5AA20E06F90E690E0FE7DBF
:1008F1000090E691E07C004205EC4206EF70148D19
:10090100518E5290F000C006C005120887D005D064
:10091100068027850C38850D39850E3A850F3B8D6C
:100921003C8E3D753E0190F000C006C005122313B8
:10093100E582D005D0067002D203213D90E64974CC
:1009410082F0E4FFFCED250CF50CEE350DF50DEF15
:10095100350EF50EEC350FF50F22AF82E5AA30E02A
:10096100012290E690E0FE7D0090E691E0FB7C00A4
:100971004205EC4206EF7022217B90E6D0EEF02199
:100981008290E6D1EDF0218975BB00218E90E64978
:100991007402F0E5BB20E72E80F9850C51850D52DC
:1009A100850E53850F548D558E5690F000C006C0AC
:1009B100051223E8E582D005D0067002D20321C1D9
:1009C10090E6497482F0E4FFFCED250CF50CEE3560
:1009D1000DF50DEF350EF50EEC350FF50F22758285
:1009E100001207A221E790E6F574FFF021EF903F96
:1009F100C0E0FFBF3000500790E60174A3F02290E1
:100A0100E60174E3F022410990E60174C0F041115E
:100A110090E6047480F0411990E612E4F0412090D0
:100A2100E613E4F0412790E614E4F0412E90E61538
:100A3100E4F0413590E618E4F0413C90E619E4F029
:100A4100414390E61AE4F0414A90E61BE4F041513B
:100A510090E609E4F0415890E6027498F041609004
:100A6100E60374FEF0416890E6707480F041709086
:100A7100E6D27401F090E420F090E42804F090E4D0
:100A810030E4F090E421743FF090E4297407F09091
:100A9100E4317402F0419890E604E4F022AF82E57B
:100AA100517004758201227403B5510280057404EA
:100AB100B55124BF01028003020B397860E6700A48
:100AC1007861E670057862E66004C2058002D205AD
:100AD100A205E433F5822230045E7402B5511CBFD5
:100AE100010B7860E6B40100E433F58222BF0348CC
:100AF1007862E6B40100E433F582227401B551381D
:100B0100BF0213785F8606BE0203D38001C392053C
:100B1100B3E433F58222BF041378618606BE020373
:100B2100D38001C39205B3E433F58222BF01028071
:100B310003BF03047582012275820022AF828510F2
:100B410051C007120A9EE582D0077003F58222BFC9
:100B5100013D785F86067403B5100280057404B503
:100B6100101EC204903D0F740FF07404B51003D32E
:100B71008001C39206E433F58212081B75820122BB
:100B8100BE03028003BE04071209DF758201228FB2
:100B9100061EEF2FFF300424EE245AF98705903DFD
:100BA1000FE04DF0751408903D10C007C0061211FA
:100BB10001E582D006D0077003F582227D20740200
:100BC100B510047DA080077401B510027DA2EE303E
:100BD100E10343054061D890E6047480F061E0EEE2
:100BE1002412F582E434E6F583EDF0ED30E77C6123
:100BF100F2EE2418F582E434E6F583E4F081009006
:100C0100E604EFF0ED20E637810B74804FFC90E6AF
:100C110049F0811590E649ECF0ED20E11181204386
:100C2100078090E649EFF0812A90E649EFF08131A3
:100C3100EE2418F582E434E6F5837410F0800F8118
:100C410042EE2418F582E434E6F5837404F0EE24D0
:100C51005AF9E7F4FF903D0FE05FF0751408903DFD
:100C610010121101E5827003F58222816E90E60473
:100C7100E4F075820122903D0F740FF03004097584
:100C81001408903D1002110175820122785F8607D8
:100C9100E4BF040104FF903FC0E0FEBE40005005E8
:100CA1008F820208E48F8202095B785F8607BF03A7
:100CB1000280047582FF223004047582FF2290E7CE
:100CC100C2E50CF0E50DA3F0E50EA3F0E50FA3F0EE
:100CD10090E782E0FCA3E0FDA3E0FEA3E0FFC3E513
:100CE1000C9CE50D9DE50E9EE50F9F50047582015C
:100CF1002230832A903FC0E0FFBF4000500312081A
:100D01000C74022480F551E434E7F55275530C75E7
:100D11005400903FD1122601D204758200227582BF
:100D2100FF2290E782E0FCA3E0FDA3E0FEA3E0FF49
:100D3100EC4D4E4F700D75510CF552903FD1122E66
:100D41004F805E90E7C2E50CF0E50DA3F0E50EA340
:100D5100F0E50FA3F0785F8607BF04028004758277
:100D6100FF223003047582FF2290E782E0FCA3E0BA
:100D7100FDA3E0FEA3E0FFC3E50C9CE50D9DE50EA0
:100D81009EE50F9F50047582012274022480F55163
:100D9100E434E7F55275530C755400903FD1122697
:100DA1000175090C758211120374E5827004758254
:100DB100FF2275820022300417741124C0F551E41A
:100DC100343FF55275530C75540090E7C212260159
:100DD10075820022903FC0E0FFBF4000506E1207B5
:100DE100C9903FD1E0FCA3E0FDA3E0FEA3E0FFC377
:100DF100E50C9CE50D9DE50E9EE50F9F504BE50D25
:100E0100A2E3E433B40100B39207E43324FF92B4C4
:100E1100850C38850D39850E3A850F3B753C00757B
:100E21003D02753E0090E00012231375510075528A
:100E31000290E0001208877402250DF50DE4350ECD
:100E4100F50EE4350FF50F809812080C1209DFA298
:100E5100839204E433F58222858211758210122473
:100E610050E582601775400175410090001175F0E1
:100E710040122489E582600475820122122468757A
:100E810082002274FF251240047582FF22E512249C
:100E9100DE50047582FF2290E782E024FD40047554
:100EA10082FF2290E782E0F582120E59E5827004FA
:100EB1007582FF22AE127F001EBEFF011F8E408F82
:100EC1004190E78375F000122489E582600F1224B6
:100ED10068E58270047582FF2275820022122468FF
:100EE1007582FF2290E783E024DF50047582FF22A0
:100EF10090E783E0F51390E782E0F582120E59E561
:100F01008270047582FF22758211122450E582607D
:100F11001A90E783E0F54275430090E7C275F0004F
:100F21001224FFE582600475820022122468758212
:100F3100FF2220040122751408903D16121101E5CB
:100F410082700122903D06E0FFFD7E00EDF4FDEE92
:100F5100F4FE903D01E0FCFA7B00EA5205EB5206FB
:100F6100ED4E600AEC4207903D06EFF0D20822E117
:100F71007290E61074A0F0E17A90E61174A0F0E1AD
:100F81008290E68DE4F0E18990E6A27402F022E518
:100F9100BA30E20122100802801490E7C0E4F09018
:100FA100E7C17402F012107B75130502106FE5BAE8
:100FB10030E1012290E68DE0FFBF020050030210F4
:100FC1005690E780E0700302105675512475520067
:100FD10090E7C0122E4F90E68DE024FEF5127513B6
:100FE100007E1C7F3D8E048F058C828D83A3A3A37D
:100FF100E0FAA3E0FB4A605D8C828D83E0FB90E721
:1010010081E0FAEBB50202800D74052CFCE43DFD94
:101011008C068D0780D38E828F83A3E0FDBDFF02F6
:101021008004EDB5122F8E828F83A3A3E0FDBDFF57
:101031000280028D138E828F83A3A3A3E0FEA3E01F
:10104100FFC0078E828F831200D6AE82D00790E751
:10105100C1EEF0800990E7C174FFF075130090E7CD
:1010610080E0FF90E7C0F0016A90E68DE4F0017145
:10107100AF1390E68F74022FF02275510275523D25
:1010810075530575540090E7C2122601758200223E
:101091007551007F00BF0400502BEF2402FDE434A2
:1010A1003DFEEF2482F582E434E7F583E0F4FC8D24
:1010B100828E83E052048D828E83ECF0EC600375A6
:1010C10051010F80D0200006E5517002C2B5903D5C
:1010D10006E0FF90E786E0F45207903D06EFF075D9
:1010E10082002290E782E0FEA3E0FF8E518F5275CD
:1010F100532075540090E7C2122601758200222206
:10110100AE82AF837D01751500751611E5142514A6
:10111100F514ED70030212C18E018F0274022EFECE
:10112100E43FFF89828A83E0F9A3E0F8891770031D
:101131000212C1B80104891480D8B802188E018F37
:101141000274022EFEE43FFF89828A83E0F515A333
:10115100E0F51680BD8E018F0274022EFEE43FFF82
:1011610089828A83E0F518A3E0F51988045304F015
:10117100BC202A851482122450E582601375400137
:1011810075410090001775F040122489E5827004C2
:10119100C2098002D209A209E433FD800CE820E0F3
:1011A10008851482122450AD82E820E00302123730
:1011B100ED600D74014514F582122450E58270042E
:1011C100C2098002D209A2095022AA18AB197C00D7
:1011D100E830E10479028002790189427543008A8D
:1011E100828B838CF01224FFE5827004C209800295
:1011F100D209A209E433FDA918AA1989828A83E0D8
:10120100FBA3E0FCC007C006C005C002C00112126A
:10121100148009C015C0168B828C8322AB82AC83EB
:10122100D001D002D005D006D00789828A83EBF0A5
:10123100ECA3F00212B8A918AA1989828A83E0FBEB
:10124100A3E0FCC007C006C005C002C001C0001277
:1012510012558009C015C0168B828C8322AB82ACDB
:1012610083D000D001D002D005D006D00789828A70
:1012710083EBF0ECA3F0ED6022A918AA197C00E839
:1012810030E1047B0280027B018B40754100898241
:101291008A838CF0122489E5827004C2098002D20B
:1012A10009A2095007122468E5827004C20980026C
:1012B100D209A209E433FD75150075161102111347
:1012C100ED70031224688D822290E783E0903DA3A4
:1012D100F090E782E0F514903DA3121101E58270D0
:1012E100047582FF227582002290E783E0903DA978
:1012F100F090E782E0F514903DA9121101E58270AA
:10130100047582FF2275820022AE82AF83EE248EA5
:10131100FEEF34F98E51C4C551C4540F6551C55106
:10132100540FC5516551C551F55290010D122E3220
:10133100AE82E583C4CEC4540F6ECE540FCE6ECEB2
:10134100FF74E0C39EFE740F9FFF8E828F83022E77
:10135100F3122EF3AE82E583C4CEC4540F6ECE5485
:101361000FCE6ECEFF74FFC39EFEE49FFF8E518FA2
:1013710052900098122E3275510A7552001223ECC8
:10138100E5828583F02472FE740635F08E82F58342
:1013910022E5822463F98714903DB1021101E582AF
:1013A1002463F98714903DBB021101122EF3AE8222
:1013B100E583C4CEC4540F6ECE540FCE6ECEFF8ED5
:1013C100518F52900103122E3275510A755200024B
:1013D10023ECAE82AF838E518F5290000A122E32CF
:1013E1007551037552011223ECAE82E583C454F0AA
:1013F100CEC4CE6ECE54F0CE6EFF8E828F83022E7F
:10140100F3E5822465F98714903DC50211017582C7
:101411000022903D08E4F0A3F0903D0AF0A3F0759E
:10142100820122E5822465F98714903DCB021101E6
:10143100AE82AF838E518F52755300755400900068
:1014410005E4F5F0122E72AC82AD83AEF0C313FF4A
:10145100EE13FEED13FDEC13FCEFC313EE13ED13CE
:10146100FDEC13F5828D8322AE82AF83E4FDFCEEA9
:101471002EFEEF33FFED33FDEC33FCEE2EFEEF33AA
:10148100FFED33FDEC33FC755105E4F552F553F5F1
:10149100548E828F838DF0EC02262CE5822467F92D
:1014A1008714903DDA021101E5822467F987078FDD
:1014B10014903DECC007121101E582D0077003F5CD
:1014C1008222903D07E043E003F0903D08E0F5F013
:1014D100A3E045F06008903D07E053E0FEF0903D49
:1014E1000AE0F5F0A3E045F06008903D07E053E025
:1014F100FDF08F14903DF2021101E5822467F98716
:1015010014903E0C121101E5827003F58222903D88
:1015110007E0FF30E007903D08E4F0A3F0EF30E191
:1015210007903D0AE4F0A3F075820122E582246769
:10153100F987078F14903DECC007121101E582D0A5
:10154100077003F58222903D07E043E004F0903DEF
:1015510008E0F5F0A3E045F06008903D07E053E0B6
:10156100FBF08F14903E22021101E5822467F98776
:1015710014903E30121101E5827003F58222903DF4
:1015810007E030E207903D08E4F0A3F07582012204
:10159100E5822467F98714903E3A021101E582241D
:1015A10067F98714903E44021101E5822467F987A7
:1015B10014903E4A121101E5827003F58222903D9A
:1015C10007E053E007F075820122E5822467F9877D
:1015D100078F14903DECC007121101E582D007700E
:1015E10003F58222903D07E043E0FBF08F14903E2B
:1015F10050021101AE82AF83743AC39EFE74169FEE
:101601008E82C40354F8C582C403C5826582C58233
:1016110054F8C5826582F5837551357552001223E0
:10162100ECAE82E5835403A2E0CE13CE13A2E0CE4A
:1016310013CE13CE8E82F58322AE82AF838E51EF0D
:10164100A2E7C55133C55133A2E7C55133C5513363
:10165100C5515403F552900035122E32AE82E58306
:10166100C423CEC423541F6ECE541FCE6ECEFF743E
:101671003AC39EFE74169F8E82F58322E58270091D
:10168100751448903E6C02110175820122AF82905F
:101691003D0EEFF0751448903E8E021101AF82901D
:1016A1003D0EEFF0751448903E9C021101E5822435
:1016B1006BF98714903EAA021101E582246BF98728
:1016C10014903EB4021101E582246BF98714903E17
:1016D100BE021101C000750008E58275F00033C536
:1016E100F013C5F0D8F885F082D00022AF828F06C2
:1016F100530601EFC3136E60067DD67E3E80047DE6
:10170100C47E3EEF246DF987148D828E8302110110
:10171100AF828F06530601EFC3136E60067DFA7E1A
:101721003E80047DE87E3EEF246DF987148D828E24
:1017310083021101E582FF30E0067D127E3F8004C5
:101741007D0C7E3FEF246DF987148D828E8302110B
:10175100017582012275820022C2B0C2B6903FC0DB
:10176100E0FFBF4015C2B1C2B775235E75243F903B
:101771003D0CE4F07428A3F08022903FC0E0FFBF4D
:101781003200401275233B75243F903D0C7455F097
:10179100740DA3F0800675231875243F903FC0E0B7
:1017A100FFBF330050047863760C903FC0E0FFBF69
:1017B1004000500878677640786876417F00BF0422
:1017C10000400122852382852483E0FEEF245AF91B
:1017D100E75E700302185D852382852483A3A3A39A
:1017E100A3A3E0FDA3E0FEC007C006C0051217F3E6
:1017F1008007C005C0068F8222D005D006D00774AD
:101801000B2523F582E43524F583E0FDA3E0FEC03A
:1018110007C006C00512181B8007C005C0068F82CD
:1018210022D005D006D007903D0AE4F0A3F0903D08
:1018310008F0A3F0741D2523F582E43524F583E037
:10184100FDA3E0FEC007C006C0051218508007C006
:1018510005C0068F8222D005D006D0070F0217BF20
:10186100AE82AF83EE4F6030852382852483A3E06F
:10187100FCA3E0FDC3EE9CEF9D920A4017852382F5
:10188100852483A3A3A3E0FCA3E0FDC3EC9EED9F0D
:10189100920A5004C20A8002D20AA20AE433F582F3
:1018A1002290E782E0FF852382852483E07D00F496
:1018B100FEEDF4FD7C00EF5206EC5205EE4D6004A6
:1018C1007582FF227F00BF0400506690E782E0FE30
:1018D100EF245AF9E75E6056EF2FFE2483F582E488
:1018E10034E7F583E0FCA3E0FD8C828D83C007C063
:1018F10006C005C004121861E582D004D005D006E7
:10190100D00770047582FF22EE24E1F582E4343FB2
:10191100F583E0F525A3E0F526AA25AE26E52545C4
:1019210026600BC3EA9CEE9D50047582FF220F8056
:10193100957F00BF0400507590E782E0FEEF245AC6
:10194100F9E75E6065EF2F2483F582E434E7F583E0
:10195100E0FDA3E0FE4D7008EF2471F9E7F452B009
:10196100903D08EDF0EEA3F0852382852483A3A3A7
:10197100A3A3A3A3A3E0FBA3E0FCC007C006C0058B
:10198100C0041219888007C003C0048F8222AB8271
:10199100D004D005D006D007EB70047582FF22ED8C
:1019A1004E6007EF2471F9E742B00F80867582001F
:1019B10022852382852483E090E7C2F07F00BF0463
:1019C10000507590E7C2E0FEEF245AF9E75E6065CA
:1019D100EF2471F9E755B0604D852382852483A3F7
:1019E100A3A3A3A3A3A3A3A3E0FDA3E0FEC007C0F9
:1019F100061219F78007C005C0068F8222AD82D07A
:101A010006D007ED70047582FF22EF2F24C3FEE498
:101A110034E7FD903D08E0FBA3E0FC8E828D83EB73
:101A2100F0ECA3F0800FEF2F24C3F582E434E7F547
:101A310083E4F0A3F00F80867582002290E782E0B4
:101A4100FF852382852483E07D00F4FEEDF4FD7C97
:101A510000EF5206EC5205EE4D60047582FF227FC5
:101A610000BF0400503390E782E0FEEF245AF9E70B
:101A71005E6023EF2F2483F582E434E7F583E0FDF4
:101A8100A3E0FE8D828E83C007121861E582D00724
:101A910070047582FF220F80C87F00BF04004003DD
:101AA100021B7E90E782E0FEEF245AF9E75E7003A5
:101AB100021B7AEF2FFE2483F582E434E7F583E0FD
:101AC100FCA3E0FD852382852483A3A3A3A3A3A371
:101AD100A3A3A3E0FAA3E0FBC007C006C005C004AE
:101AE100C003121AE88007C002C0038F8222AA82B3
:101AF100D003D004D005D006D007EA70047582FF68
:101B010022903D08E0FAA3E0FBC3EC9AED9B504321
:101B1100903D08ECF0EDA3F0852382852483A3A3F7
:101B2100A3A3A3A3A3E0FAA3E0FBC007C006C005DB
:101B3100C004C003121B3A8007C002C0038F822277
:101B4100AA82D003D004D005D006D007EA7004756C
:101B510082FF22EE24E1F582E4343FF583ECF0EDDF
:101B6100A3F074212EF582750902C007120374E5F2
:101B710082D00770047582FF220F021A9C758200C1
:101B810022852382852483E090E7C2F07F00BF0491
:101B910000503290E7C2E0FEEF245AF9E75E60227E
:101BA100EF2FFE24C3FCE434E7FDEE24E1F582E4EB
:101BB100343FF583E0FBA3E0FE8C828D83EBF0EEF6
:101BC100A3F00F80C97582002290E782E0FF852390
:101BD10082852483E07D00F4FEEDF4FD7C00EF526C
:101BE10006EC5205EE4D60047582FF227F00BF04B2
:101BF10000506090E782E0FEEF245AF9E75E605002
:101C0100EF2F25E0FE2483F582E434E7F583E0FC41
:101C1100A3E0FDEE2483FEE434E7FB8E828B83A3F5
:101C2100A3E0FBA3E0FE8C828D83C007C006C00346
:101C3100121861E582D003D006D007600F8B828E27
:101C410083C007121861E582D00770047582FF22F4
:101C51000F809B7F00BF0400507390E782E0FEEF8E
:101C6100245AF9E75E6063EF2F25E0FE2483F582B5
:101C7100E434E7F583E0FCA3E0FD903D08ECF0EDF2
:101C8100A3F0EE2483FEE434E7FD8E828D83A3A3CB
:101C9100E0FDA3E0FE903D0AEDF0EEA3F0740D250A
:101CA10023F582E43524F583E0FDA3E0FEC007C0FF
:101CB10006121CB78007C005C0068F8222AD82D0F4
:101CC10006D007ED70047582FF220F8088758200AF
:101CD10022852382852483E090E7C2F07F00BF0440
:101CE10000507B90E7C2E0FEEF245AF9E75E606A9C
:101CF100740F2523F582E43524F583E0FDA3E0FE8E
:101D0100C007C006121D0A8007C005C0068F8222C7
:101D1100AD82D006D007ED70047582FF22EF2F252A
:101D2100E0FE24C3FCE434E7FD903D08E0FAA3E0C3
:101D3100FB8C828D83EAF0EBA3F0EE24C3FEE43446
:101D4100E7FD74022EFEE43DFD903D0AE0FBA3E0B9
:101D5100FC8E828D83EBF0ECA3F00F021CDF758209
:101D610000227F00BF0400505590E782E0FEEF247F
:101D71005AF9E75E6045EF2F2483F582E434E7F5F5
:101D810083E0FDA3E0FE903D08EDF0EEA3F07411B9
:101D91002523F582E43524F583E0FDA3E0FEC007A9
:101DA100C006121DA88007C005C0068F8222AD8221
:101DB100D006D007ED70047582FF220F80A67582D0
:101DC1000022852382852483E090E7C2F07F00BF53
:101DD1000400505790E7C2E0FEEF245AF9E75E6035
:101DE1004774132523F582E43524F583E0FDA3E050
:101DF100FEC007C006121DFB8007C005C0068F820A
:101E010022AD82D006D007ED70047582FF22EF2F3C
:101E110024C3FEE434E7FD903D08E0FBA3E0FC8E23
:101E2100828D83EBF0ECA3F00F80A47582002285F4
:101E31002382852483E090E7C2F07F00BF04005035
:101E41005790E7C2E0FEEF245AF9E75E6047741548
:101E51002523F582E43524F583E0FDA3E0FEC007E8
:101E6100C006121E688007C005C0068F8222AD829F
:101E7100D006D007ED70047582FF22EF2F24C3FE38
:101E8100E434E7FD903D08E0FBA3E0FC8E828D8306
:101E9100EBF0ECA3F00F80A47582002285238285EC
:101EA1002483E090E7C2F07F00BF0400505790E721
:101EB100C2E0FEEF245AF9E75E604774172523F567
:101EC10082E43524F583E0FDA3E0FEC007C00612DD
:101ED1001ED58007C005C0068F8222AD82D006D0F4
:101EE10007ED70047582FF22EF2F24C3FEE434E76F
:101EF100FD903D08E0FBA3E0FC8E828D83EBF0ECCE
:101F0100A3F00F80A4758200227F00BF040040016E
:101F110022852382852483E0FEEF245AF9E75E605F
:101F21007874192523F582E43524F583E0FDA3E0D7
:101F3100FEC007C006121F3B8007C005C0068F8286
:101F410022AD82D006D007ED604F903D07E0FEE064
:101F51006047EF2471F9E7F452B0EF2402FCE43456
:101F61003DFD8C828D83E042068C828D83EEF07480
:101F71001B2523F582E43524F583E0FDA3E0FEC0B3
:101F810007C006C005121F8B8007C005C0068F82DF
:101F910022D005D006D007D2080F021F0C90E7828D
:101FA100E0FF852382852483E07D00F4FEEDF4FDCE
:101FB1007C00EF5206EC5205EE4D60047582FF2263
:101FC10075270074FC252750030220C690E782E0A4
:101FD100FEE527245AF9E75E70030220C1E52725B3
:101FE10027FE2483FCE434E7FD8C828D83A3E0F596
:101FF10028EE2483F582E434E7F583E0FE5528F5E5
:1020010029EE4528F52A741F2523F582E43524F5A8
:1020110083E0FAA3E0FBC00312201E8008C002C0C7
:102021000385278222AA82D003EA70047582FF22E7
:10203100903D08E0FAA3E0FBAC297E00EC5AF52BB9
:10204100EE5BF52CAD297F00EDF4FDEFF4FFAA283E
:102051007B00ED5AF52DEF5BF52EAA2BAB2CE52D70
:102061004202903D08EAF0EBA3F0903D0AE0FAA3AA
:10207100E0FBEA5204EB5206AA2A7B00EAF4FAEBEF
:10208100F4FBEA5205EB5207EC4205EE4207903DA4
:102091000AEDF0EFA3F0741D2523F582E43524F554
:1020A10083E0FEA3E0FFC0071220AE8008C006C097
:1020B1000785278222AE82D007EE70047582FF2247
:1020C1000527021FC475820022852382852483E0AF
:1020D10090E7C2F07F00BF0400400302216990E74E
:1020E100C2E0FEEF245AF9E75E6079903D0AE4F020
:1020F100A3F0EF2471F9E755B0602D741F2523F586
:1021010082E43524F583E0FDA3E0FEC007C006129A
:1021110021158007C005C0068F8222AD82D006D06E
:1021210007ED70047582FF22EF2FFE24C3FCE43417
:10213100E7FD0CBC00010D903D0AE0F4FB903D0869
:10214100E052038C828D83EBF0EE24C3FEE434E78E
:10215100FD903D0AE0F4FC903D08E0F452048E82CB
:102161008D83ECF00F0220D77582002285238285B2
:102171002483E090E7C2F07F00BF0400505E90E747
:10218100C2E0FEEF245AF9E75E604E903D08E4F0AC
:10219100A3F0EF2471F9E755B0602D74212523F5E3
:1021A10082E43524F583E0FDA3E0FEC007C00612FA
:1021B10021B58007C005C0068F8222AD82D006D02E
:1021C10007ED70047582FF22EF24C3FDE434E7FEBE
:1021D100903D08E08D828E83F00F809D75820022F4
:1021E100AF82AE308E36AE2F8E37EF2FFFF58212D3
:1021F1002450E582700302228175400275410090EE
:10220100003675F040122489E5827003022281E5CF
:10221100356041AC31AD327E008533408534418C2F
:10222100828D838EF0122489E5826054122468E540
:10223100827003F582227E00BE800050138F8212CD
:102241002450E5826007122468758201220E80E81D
:102251007582002274014FF582122450E5826020BC
:10226100AD31AE327F008533428534438D828E831A
:102271008FF01224FFE5827003F58222758201221C
:102281001224687582002274FE251240047582FFB3
:1022910022E51224FEFF24DF50047582FF2290E71D
:1022A10082E0F52FA3E0F53074042480F531E434A5
:1022B100E7F5328F3375340075350175825112217E
:1022C100E1E58270047582FF227582002290E78425
:1022D100E024DF50047582FF2290E784E0F513903B
:1022E100E782E0F52FA3E0F530740224C0F531E474
:1022F10034E7F53290E784E0F53375340075350045
:102301007582511221E1E58270047582FF22758286
:102311000022AE82AF83AC38AD39A83AA93B7A002E
:102321007B00B8000BB90008BA0005BB0002801C95
:10233100B8010BB90008BA0005BB00028012B8024F
:1023410023B90020BA001DBB001A80087B528018F7
:102351007B5380147B518C018D0274702AFA89049D
:102361008A05800475820022E53C453D60758C013B
:102371008D0243013F09B900010AE9C39CF9EA9DB5
:10238100FAC3E53C99E53D9A4004E53E7004A93C59
:10239100AA3D8C2F8D308E318F3289338A34853E20
:1023A100358B82C007C006C005C004C003C002C08F
:1023B100011221E1E582D001D002D003D004D00581
:1023C100D006D0077003F58222E92CFCEA3DFDE935
:1023D1002EFEEA3FFFE53CC399F53CE53D9AF53D0C
:1023E10002236975820122758200227A10E4FBFCC6
:1023F100E58225E0F582E58333F583EB33FBEC33AE
:10240100FCEB9551F5F0EC95524006FCABF04382A4
:1024110001DADD22C007C006AF8290E678E020E055
:102421000CE53F60F5753F00758200801D90E678F0
:10243100E030E2057582008011EF600B90E678E0F4
:10244100035401F5828003758201D006D00722C0B2
:1024510007AF8290E6787480F090E679EFF07582AC
:1024610001122415D00722C00790E678E030E2057A
:10247100758200801090E6787440F090E678E02054
:10248100E6F9758201D00722C007C006C005C00465
:10249100C003C002C001C000AD82AE83AFF0E54011
:1024A1004541700575820180447B007C00EBB5409D
:1024B10006ECB541028026EB2DF8EC3EF98F02883F
:1024C1008289838AF0122FDD90E679F075820112FC
:1024D1002415E58260070BBB00D30C80D0EBB5401F
:1024E10007ECB54103D38001C3E433F582D000D0BA
:1024F10001D002D003D004D005D006D00722C007F6
:10250100C006C005C004C003C002C001C00085826E
:102511004485834585F046E5424543700675820151
:102521000225F0AB42AC43BB0109BC000690E67842
:102531007420F090E679E07B007C0079007A00E974
:10254100B54207EAB543030225CD75820012241571
:10255100E58270030225E089008A07740228F8E405
:102561003FFFE8B5420AEFB5430690E6787420F0E4
:1025710089068A070EBE00010FEEB5422CEFB54366
:102581002875AF03759AE6759B7890E67B7440F0E9
:10259100E0AFE0E92544F8EA3545FDAE4688828D95
:1025A100838EF0EF122E168017E92544FDEA35459A
:1025B100FEAF4690E679E08D828E838FF0122E1663
:1025C10009B900010A89038A0402254090E678E0EE
:1025D10030E205758200801790E678E020E6F9EB9D
:1025E100B54207ECB54303D38001C3E433F582D090
:1025F10000D001D002D003D004D005D006D00722EC
:10260100AA82AB83AC51AD52AE53AF54EE60010F11
:10261100EF601775AF078A9B8B9A8C9E8D9D90E614
:102621007CE090E67BF0DEF6DFF422FB7A20E4FC2E
:10263100FDFEFFE5822582F582E58333F583E5F032
:1026410033F5F0EB33FB4017DAE98042E58225826E
:10265100F582E58333F583E5F033F5F0EB33FBECFD
:1026610033FCED33FDEE33FEEF33FFEC9551ED9589
:1026710052EE9553EF95544013EC9551FCED955264
:10268100FDEE9553FEEF9554FF438201DABEEB2236
:1026910032AF82754800754900D2E890E668E043A0
:1026A100E008F090E65CE043E001F090E65D740143
:1026B100F0D2AF90E680E020E10890E680E043E0D0
:1026C10002F0EF600E90E680E043E008F090000A2F
:1026D100122FB290E680E053E0F7F022AF82BF0004
:1026E100028037BF01028036BF02028039BF040277
:1026F1008038BF06028037BF08028036BF80028063
:1027010019BF8102801CBF8202801BBF8402801A14
:10271100BF86028019BF881E801890E6A02290E62D
:10272100A12290E6A22290E6A32290E6A42290E6BE
:10273100A52290E6A62290000022C022C0E0C0F0AF
:10274100C082C083C007C006C005C004C003C00268
:10275100C001C000C0D075D000C08675860090E66B
:10276100B8E0FF90E6B9E0FEE4BF800104FD60142B
:10277100BE061190E6BAE0FBA3E0F5828B081202D7
:102781008902298DEF7025BE092290E6BAE0F58213
:102791001205AAE582600990E6A07480F002298DF5
:1027A10090E6A07401F07481F002298DED6009BEFC
:1027B1000806122F0902298D8F04BC012CBE0B299A
:1027C10090E6BCE0FC90E6BAE0F50B8C821205CCF9
:1027D100E582600990E6A07480F002298D90E6A060
:1027E1007401F07481F002298DE4BF810104FC6061
:1027F1000FBE0A0C90E6BCE0F58212060602298D96
:10280100EF7031BE032E90E6BAE0FAA3E0FBBA0105
:102811000FBB000C75480190E6A07480F002298D71
:10282100BA0205BB0002800302298D90E6A07480E4
:10283100F002298DED602FEE702CAD47E54825E0C3
:10284100FB420590E740EDF090E741E4F090E6B5FA
:1028510004F090E68AE4F090E68B7402F090E6A032
:102861007480F002298DEC6025EE702290E740E43F
:10287100F090E741F090E6B504F090E68AE4F0903C
:10288100E68B7402F090E6A07480F002298DBF02FD
:1028910002800302293AE4BE030104FD7008BE016F
:1028A10002800302293A90E6BAE0FBA3E0FC4B6008
:1028B1000302298D90E6BCE0F582C0051226DDAB4E
:1028C10082AC83D005EB4C700302298DED60188B2F
:1028D100828C83E0FD4305018B828C83EDF090E6D1
:1028E100A07480F002298D90E6BCE0F582C004C09E
:1028F10003122EE8E582D003D004700302298D8BE8
:10290100828C83E0FD5305FE8B828C83EDF090E693
:10291100BCE0FCA3E08C0353030F530480E423CCFD
:10292100C423541F6CCC541FCC6CCCFD90E683ECBB
:102931004BF0E043E020F08053BF824AEE704790B5
:10294100E6BCE0F5821226DDAE82AF838E048F05F0
:10295100EE4F60388C828D83E05401FCB40100B3EA
:10296100920BE433FF90E740F090E741E4F090E60A
:10297100B504F090E68AE4F090E68B7402F090E6FC
:10298100A07480F0800690E6B81204655391EF9030
:10299100E65D7401F0D086D0D0D000D001D002D055
:1029A10003D004D005D006D007D083D082D0F0D098
:1029B100E0D0220200ACAE82AF837401B54A27E5B4
:1029C1004B70238E828F83E493FCA3E493FD8C519F
:1029D1008D528C828D83E493F55375540090E00001
:1029E100122601022CE57406B54A36E54B70328E8B
:1029F100828F83A3A3E493FCA3E493FD4C700A901C
:102A0100E6A07401F07481F0228C518D528C828D7C
:102A110083E493F55375540090E000122601022CD3
:102A2100E57402B54A028003022B288E828F83A3AC
:102A3100A3A3A3E493FDC3E54B9D4003022B288E82
:102A4100828F83A3A3A3A3A3E493FCA3E493FDE553
:102A51004B75F002A42CF582ED35F0F583E493FC7F
:102A6100A3E493FD74092CFAE43DFB8C518D528C47
:102A7100828D83E493F55375540090E000C005C046
:102A810004C003C002122601D002D003D004D00535
:102A91008C828D83E4932400FCE434E0FD8C4D8D25
:102AA1004E8A4F8B50854F82855083E493F8A3E47F
:102AB10093F98851895288828983E493F553755437
:102AC10000854D82854E83C005C004C003C002123B
:102AD1002601D002D003D004D005854F82855083D2
:102AE100E493F8A3E493F988828983E4932CFCE4CA
:102AF1003DFD74022AFAE43BFB8A828B83E493F85E
:102B0100A3E49348709790E002E0FAA3E04A6003DF
:102B1100022CE5ECC39400FCED94E0FD90E002ECA6
:102B2100F0EDA3F0022CE57403B54A0474018001B1
:102B3100E4FD601DE54B701975511E7552329032DE
:102B41001EE493F55375540090E000122601022C07
:102B5100E5ED7003022BF7AC4B7D00EC24FFFAEDA1
:102B610034FFFB74072EF582E43FF583E493F87993
:102B710000C3EA98EB648089F063F08095F05076A9
:102B810074082EF582E43FF583E493FAA3E493FB02
:102B91001CBCFF011DEC2CFCED33FDEC2AF582ED94
:102BA1003BF583E493FCA3E493FD90E0007402F011
:102BB10090E00104F074012401FAE434E0FB8C821A
:102BC1008D83E493F97003022CE50CBC00010D8A9E
:102BD100828B83E9F074012AF8E43BF988828983C6
:102BE100E4F00428FAE439FB90E000E0F9090990E7
:102BF100E000E9F080C8740FB54A028003022CDBC3
:102C0100E54B6003022CDB90E0007405F090E001DD
:102C1100740FF0740A2EFCE43FFD8C828D83E493E3
:102C210090E004F090E000E02400FAE434E0FB746A
:102C31000B2EF582E43FF583E493FEA3E493FF7545
:102C41004C008C828D83E493F8C3E54C985056C0B8
:102C510004C0058A4F8B508E518F528E048F058C84
:102C6100828D83E493F553755400854F828550839B
:102C7100C007C006C005C004C003C002122601D0AF
:102C810002D003D004D005D006D0078C828D83E416
:102C9100932AFAE43BFB74022EFEE43FFF054CD07D
:102CA10005D004809DEAC39400FAEB94E0FB90E028
:102CB10002EAF0EBA3F07E007FE090E6B5E4F0904D
:102CC100E68AEBF090E68BEAF090E6B3EFF090E65F
:102CD100B4EEF090E6A07480F02290E6A07401F0CA
:102CE1007481F0227E007FE090E6B57401F090E6F9
:102CF100B3EFF090E6B4EEF090E6A07480F022AE6F
:102D010082AF83A3A3A3A3A3E493FCA3E493FD74E1
:102D1100042EFEE43FFF7553008E828F83E493FA05
:102D2100C3E5539A400122E55375F002A42CF582C4
:102D3100ED35F0F583E493F554A3E493F555740967
:102D41002554F8E43555FA75570085548285558325
:102D5100A3A3A3A3A3E493B549028003022E0E8883
:102D61000189828A83E493F8A3E493FB88828B83AD
:102D7100A3E493FBBB043789828A83E493F558A3C8
:102D8100E493F559855882855983A3A3E493B551FA
:102D910010855882855983A3A3A3E493B552028079
:102DA1000575560080037556018556578048BB0549
:102DB10045E5576041C004C00589828A83E493F8E0
:102DC100A3E493FB88828B83A3A3E493FB740F5B3F
:102DD100F8530380E423CBC423541F6BCB541FCB84
:102DE1006BCB30E40244E090E683EB48F0E043E053
:102DF10020F0D005D004740229F9E43AFA89828AD4
:102E010083E493F8A3E493486003022D620553021F
:102E11002D1A32323220F71130F6138883A882201E
:102E2100F509F6A8837583002280FEF280F5F02271
:102E310032E5828551F0A4C582C0F08552F0A4D05C
:102E4100F025F0C5838551F0A42583F58322AA825C
:102E5100AB83AC51AD52EC60010DED601175AF0368
:102E61008A9B8B9A90E67B7400F0DCFDDDFB2232BD
:102E710032AAF0FBE5828551F0A4FCADF0E5838533
:102E810051F0A42DFDE435F0FEE5828552F0A42D2C
:102E9100FDE5F03EFEE433FFEA8551F0A42EFEE5A8
:102EA100F03FFFE5838552F0A42EFEE5F03FFFE5FC
:102EB100828553F0A42EFEE5F03FFFEB8551F0A48F
:102EC1002FFFEA8552F0A42FFFE5838553F0A42F4D
:102ED100FFE5828554F0A42F8EF08D838C822232FF
:102EE1003232323232323290E6A07480F075820191
:102EF1002232C582C583C58222C582C5F0C583C57C
:102F0100F02232323232323290E740E549F090E637
:102F1100B57401F090E68AE4F090E68B04F090E657
:102F2100A003F02232323232E583700BE58224FABB
:102F3100400122B4001122E5826003D5E0FD007555
:102F4100E0FED583F674F9D5E0FD22C007C006C0C6
:102F510001C000AE82AF83EE2EF8EF33F9EE28FE0A
:102F6100EF39FF90E600E0F8794C20E416C3EF1347
:102F7100CE13CEFF795AE820E309C3EF13CE13CE67
:102F8100FF7963E58124FAF8E926C313C313F9C372
:102F9100EE99F582EF9400F583D000D001D006D0F0
:102FA10007500122022F297411C0E0122F4C158104
:102FB10022C007C006AE82AF837411C0E0EE4F603D
:102FC1000D1EBEFF011F9003E8122F4C80EF1581EB
:102FD100D006D007223232323232323220F7143068
:102FE100F6148883A88220F507E6A883758300225A
:102FF100E280F7E49322E02232323232323232324C
:103001007582002212011002FFFFFF40B720B19D1F
:103011000000010203010A0600020000000800008E
:103021000904000000FFFFFF000904000102FFFF87
:10303100FF000904010000FFFFFF00090401010175
:10304100FFFFFF040904010201FFFFFF050904015D
:103051000301FFFFFF060904010401FFFFFF070948
:1030610004020000FFFFFF000904020101FFFFFF4E
:10307100040904030000FFFFFF000904030101FF2D
:10308100FFFF040904030201FFFFFF050904040017
:1030910000FFFFFF000904040101FFFFFF04070512
:1030A1000102000200070581020002000705020279
:1030B1000002000705040200020007058602000263
:1030C10000070588020002000902000005010080D6
:1030D100FA21302A309F30A63033303C30AD3045B4
:1030E10030AD304E30AD305730AD3060306930B436
:1030F1003072307B30BB308430BB308D309630C283
:10310100300000C930B531CC31FC311032133216E8
:10311100321A321810050038B60834A909A0478BB5
:10312100FDA0768815B6650001D001053017300184
:10313100043107063101143112034D0053004600DA
:103141005400310030003000C000280000000001B0
:1031510004000100000000000000000157494E5525
:1031610053420000000000000000000000000000C9
:1031710000000A0000000001050000001E030177A5
:1031810065627573622E676C6173676F772D656D0C
:103191006265646465642E6F726700393939393943
:1031A100393939393939393939393900416E6F7419
:1031B100686572007768697465717561726B2072F8
:1031C1006573656172636800000000476C61736735
:1031D1006F7720496E74657266616365204578700A
:1031E1006C6F7265723B206769742064333236619B
:1031F100333837300000000000000058582D58586F
:1032010058585858585858585858585858580032BB
:103211005800345800434647004E564D00040309F8
:10322100040F01200F3D00000221013D0000300983
:1032310000A218310009B2193209003D1A33000900
:10324100821B341100CA1B350011D21C36090063E0
:103251001D370009C31D380009301E3900099D1EA4
:103261003A09009E1F3B0009CA203C00056D212040
:103271000C00AB0C210C04230D22000CB70D28FF10
:1032810000840E2902FFE50E10FF0088221103FFC2
:10329100CE22A000057B10A105009110F002005084
:1032A10006F10400CA12F20202EA12010220E4103D
:1032B1000000000000002284E700000023C2E700B4
:1032C1000000FF00020A130012083D000000025234
:1032D100130013083D00000220AF3D00000002ACC6
:1032E100130023083D00001203FB10270010D53DF9
:1032F100D4220C3DD220D73D4A22D83D0000D22114
:10330100073D00000002691457220A3D00026914BA
:103311005822083DD220073D0010D63D0000D221A1
:10332100073D0002311457230A3D0002311458238E
:10333100083D00004A22083DD220073D0010D63D3D
:103341000000D221073D4A23083D0000000231144C
:103351008823083D00008C23083D00008021073DA3
:1033610000004A23083D0010D53DD4220C3D4A22DD
:10337100083DD220073D00000101B61D00120020CA
:10338100B03D2622663E0020B03DE322683ED222B7
:103391006A3ED6226A3EDA226A3EDE226A3E000098
:1033A10000200E3D0002F5152122083D00000020FD
:1033B1000E3D00023A162123083D00000120083D80
:1033C10003200A3D00000121083D03210A3D0000C0
:1033D1000021083D00000002D5160220083D000230
:1033E100D51606200A3D00000002D5160320083D2F
:1033F1000002D51607200A3D00000002D516022161
:10340100083D0002D51606210A3D00000002D5162E
:103411000321083D0002D51607210A3D00000021C5
:10342100083D00000121083D00000372067C155291
:103431001792139F1302140F1413145617561724BF
:1034410014561752175617AE16BB16C81603720636
:103451007C15521792139F139C14A914FB142D155C
:103461006B1591159E15AB15CB15AE16BB16C8166F
:103471000F84037C157D168E169E169C14A914FBD1
:10348100142D156B1591159E15AB15CB15ED161158
:03349100173517D5
:00000001FF
