:060000000201D102069F7F
:03000B00022E1AA8
:03001300022DFCBF
:03001B00022E5959
:03002300022FC1E8
:03002B000206A525
:03003300022EC9D1
:03003B00022FC2CF
:03004300020100B7
:03004B0002267A10
:03005300020100A7
:03005B00022DFD76
:03006300022DFE6D
:200068000000E2FBEAF2802C0000E0FBEAF08024E6B50202EBF62200E2B50202EBF222007E
:20008800E0B50202EBF02230F6E0A88220F5D3EAC6F582228B822230F6E6A88220F5D9808E
:0100A800CF88
:12022A00785D7601785E7602785F760478607608C200BF
:030286000200A9CA
:0300A9000206E468
:20028900AF82BF033674EEB50831755422755531903122E493F55675570090E0001225EAF4
:2002A9007D007EE090E6B57401F090E6B3EEF090E6B4EDF090E6A07480F0228F4D85084EE9
:2002C9009031150229A075340075353DE4F532F533753601F537F5387582511221C2E58208
:2002E9006065903D00E0FFBFFF02805BBFC2028022BFC01F7534C075353F75320C75330079
:200309007536407537007538007582511221C2E5826034903FFFE020E12C75540C755500DE
:20032900903FD1122E38903FE5E0FEA3E0FF903FE1EEF0EFA3F0903FE7E0FEA3E0FF903F93
:20034900E3EEF0EFA3F022903FC074F9F0755485755531755610755700903FC11225EA9012
:200369003FD1E4F0A3F0A3F0A3F022AF828F057E00740C2DFDE43EFE8D328E33EF24C0F560
:2003890034E4343FF5358509367537007538017582510221C2903FC0E0FFBFF90280149008
:2003A9003FC0E0FF7E00430607902FFAEFF0EEA3F08014902FF674B4F07404A3F0902FF84C
:2003C9007413F07486A3F0903FE9E060229030EFE493FEA3E493FF8E828F83742924C0F521
:2003E90054E4343FF5557556167557001225EA903FFFE030E01D9030F1E493FEA3E493FF17
:200409008E828F837554967555317556077557001225EA9030F3E493FEA3E493FF903FC0C8
:20042900E0C4540F24408E828F83F074012EFCE43FFD903FC0E0FB740F5B24308C828D83BD
:20044900F08E828F83A3A3A3740124C0F554E4343FF5557556107557000225EAAE82AF833B
:20046900E0FD235401F50ABDC0028008BD400280030205A0E50A60508E828F83A3E0FDBDF1
:20048900C0468E828F83A3A3A3A3E0FCA3E0FDBC0436BD0033755434755531903134E493F9
:2004A900F556A3E493F55790E0001225EA7C007DE090E6B57401F090E6B3EDF090E6B4EC6C
:2004C900F090E6A07480F022E50A60508E828F83A3E0FDBDC0468E828F83A3A3A3A3E0FC79
:2004E900A3E0FDBC0536BD003375545C75553190315CE493F556A3E493F55790E000122580
:20050900EA7C007DE090E6B57401F090E6B3EDF090E6B4ECF090E6A07480F022E50A607791
:200529008E828F83A3E0FDBDD06D8E828F83A3A3A3A3E0FCA3E0FDBC025DBD005A8E828F3B
:2005490083A3A3E0FEA3E0FFBE014CBF0049903FFFE030E242755466755531903166E4938C
:20056900F55675570090E0001225EA7E007FE0903166E493FD7C0090E6B5E4F090E68AECEB
:20058900F090E68BEDF090E6B3EFF090E6B4EEF090E6A07480F02290E6A07401F07481F0F8
:2005A90022AF82C007120F70120C77D0078F4C7F00BF05005009EF2461F876000F80F275CC
:2005C900820122E582FF7009C007120F70D0078013850B108F82C007120B3DE582D007704C
:2005E90003F582228F54850B55903115C007122CE9D007EF2461F8A60B75820122E5822431
:2006090061F9870790E740EFF090E6B57401F090E68AE4F090E68B04F090E6A003F022755A
:20062900B20275800075B5FF75B00075B31C75900090E601E4F0D288D2A82275C801D2AD73
:2006490090E65E74FFF02290E782E024FF9200903FC0E0FFBF400050047F3C80027F34EF0A
:20066900F452B030000F90E783E025E025E0FEEF5E42B0801DD2B2903FC0E0FFBF4000503D
:2006890003208304C2018002D201A201E43324FF92B375820022200002D2B532200002C295
:2006A900B4C2CAC2CF32C0E0C082C083200002D2B4D2CA5391EF90E65F74FFF0D083D08215
:2006C900D0E0320206AF0206AF0206AF0206AF0206AF0206AF0206AF0206AF90E60B74037F
:2006E900F090E6007412F090E67A7401F01202CF12039E120628120644121731120A079081
:200709003FC0E0FFBF40004006C2B3D2B2D2B3903FD1E0FCA3E0FDA3E0FEA3E0FFEC4D4EA9
:200729004F6010120DD5E582B401009202E43324FF92B575820112267B78618607BF0103F8
:20074900120F9078628607BF03004003120C8D208006121EE1120F332000DE90E687E07072
:200769002690E684E0FFC313FF24FC401CEF2F90077C738006800C80068008D2B2800AC28C
:19078900B28006B2B28002D2B2903FC0E0FFBF400050A6A28392B380A0C8
:202FEE0012011002FFFFFF40B720B19D0000010203010A060002000000080000090400000E
:20300E0000FFFFFF000904000102FFFFFF000904010000FFFFFF000904010101FFFFFF047C
:20302E000904010201FFFFFF050904010301FFFFFF060904010401FFFFFF07090402000034
:20304E00FFFFFF000904020101FFFFFF040904030000FFFFFF000904030101FFFFFF04092A
:20306E0004030201FFFFFF050904040000FFFFFF000904040101FFFFFF0407050102000203
:20308E00000705810200020007050202000200070504020002000705860200020007058841
:2030AE00020002000902000005010080FA0A30133088308F301C30253096302E30963037BD
:2030CE0030963040309630493052309D305B306430A4306D30A43076307F30AB300000B2A8
:2030EE00309E31B531E431F831FB31FE3102321810050038B60834A909A0478BFDA07688FA
:20310E0015B6650001D001EE2F003001ED3007EF3001FD3012034D00530046005400310060
:20312E0030003000C00028000000000104000100000000000000000157494E55534200005A
:20314E0000000000000000000000000000000A0000000001050000001E0301776562757309
:20316E00622E676C6173676F772D656D6265646465642E6F726700393939393939393939EF
:20318E003939393939393900416E6F74686572007768697465717561726B2072657365614C
:2031AE0072636800000000476C6173676F7720496E74657266616365204578706C6F726540
:2031CE00723B206769742037313764386363642E64697274790058582D58585858585858AC
:1831EE0058585858585858585800325800345800434647004E564D00DA
:02023C00C204FA
:2007A200E58224FF9210903FC0E0FFBF3000500CA210B39211E43324FF92B122B210A21037
:2007C200E43324FF928122C2B0C2B69000FA122F9B7582011207A2900001122F917582004B
:2007E2001207A2C293D2949004B0022F917582011207A2E1F790E60174E2F0758200120723
:20080200A290E6C2E4F07402F0227F00BF31005007C294D2940F80F422AF82E4F50CF50D61
:20082200F50EF50FC203012A90E6047480F0013290E6F574FFF0013A90E60174C0F0014247
:2008420090E61274A2F0014A90E618E4F0015190E6047402F0015990E6497482F001619038
:20086200E6497482F0016990E604E4F0EF60067582010207A2903FC0E0FFBF4000500302EF
:2008820007C90207EF75AF0385829B85839AAA54AB55EA60010BEB604890E67BE0A2E7C220
:2008A200949292D294A2E6C2949292D294A2E5C2949292D294A2E4C2949292D294A2E3C29C
:2008C200949292D294A2E2C2949292D294A2E1C2949292D294A2E0C2949292D294DABDDB5D
:2008E200BB22AF82E5AA20E06F90E690E0FE7D0090E691E07C004205EC4206EF70148D5457
:200902008E5590F000C006C005120887D005D0068027850C3B850D3C850E3D850F3E8D3FEC
:200922008E4075410190F000C006C0051222FCE582D005D0067002D203213D90E649748289
:20094200F0E4FFFCED250CF50CEE350DF50DEF350EF50EEC350FF50F22AF82E5AA30E00119
:200962002290E690E0FE7D0090E691E0FB7C004205EC4206EF7022217B90E6D0EEF0218235
:2009820090E6D1EDF0218975BB00218E90E6497402F0E5BB20E72E80F9850C54850D5585E4
:2009A2000E56850F578D588E5990F000C006C0051223D1E582D005D0067002D20321C1903E
:2009C200E6497482F0E4FFFCED250CF50CEE350DF50DEF350EF50EEC350FF50F227582004E
:2009E2001207A221E790E6F574FFF021EF903FC0E0FFBF3000500790E60174A3F02290E68A
:200A02000174E3F022410990E60174C0F0411190E6047480F0411990E612E4F0412090E648
:200A220013E4F0412790E614E4F0412E90E615E4F0413590E618E4F0413C90E619E4F04140
:200A42004390E61AE4F0414A90E61BE4F0415190E609E4F0415890E6027498F0416090E6F4
:200A62000374FEF0416890E6707480F0417090E6D27401F090E420F090E42804F090E43086
:200A8200E4F090E421743FF090E4297407F090E4317402F0419890E604E4F022AF82E55482
:200AA2007004758201227403B5540280057404B55424BF01028003020B397863E6700A78BC
:200AC20064E670057865E66004C2058002D205A205E433F5822230045E7402B5541CBF01CA
:200AE2000B7863E6B40100E433F58222BF03487865E6B40100E433F582227401B55438BF1C
:200B0200021378628606BE0203D38001C39205B3E433F58222BF041378648606BE0203D3B0
:200B22008001C39205B3E433F58222BF01028003BF03047582012275820022AF828510541D
:200B4200C007120A9EE582D0077003F58222BF013D786286067403B5100280057404B51065
:200B62001EC204903D0F740FF07404B51003D38001C39206E433F58212081B75820122BEB6
:200B820003028003BE04071209DF758201228F061EEF2FFF300424EE245DF98705903D0FF6
:200BA200E04DF0751408903D10C007C0061210FEE582D006D0077003F582227D207402B513
:200BC20010047DA080077401B510027DA2EE30E10343054061D890E6047480F061E0EE248C
:200BE20012F582E434E6F583EDF0ED30E77C61F2EE2418F582E434E6F583E4F0810090E662
:200C020004EFF0ED20E637810B74804FFC90E649F0811590E649ECF0ED20E1118120430730
:200C22008090E649EFF0812A90E649EFF08131EE2418F582E434E6F5837410F0800F8142BC
:200C4200EE2418F582E434E6F5837404F0EE245DF9E7F4FF903D0FE05FF0751408903D1058
:200C62001210FEE5827003F58222816E90E604E4F075820122903D0F740FF0300409751473
:200C820008903D100210FE7582012278628607E4BF040104FF903FC0E0FEBE400050058FE2
:200CA200820208E48F8202095B78628607BF030280047582FF223004047582FF2290E7C2FB
:200CC200E50CF0E50DA3F0E50EA3F0E50FA3F090E782E0FCA3E0FDA3E0FEA3E0FFC3E50C93
:200CE2009CE50D9DE50E9EE50F9F50047582012230832A903FC0E0FFBF4000500312080C72
:200D020074022480F554E434E7F55575560C755700903FD11225EAD204758200227582FFDC
:200D22002290E782E0FCA3E0FDA3E0FEA3E0FFEC4D4E4F700D75540CF555903FD1122E38AD
:200D4200805E90E7C2E50CF0E50DA3F0E50EA3F0E50FA3F078628607BF040280047582FF61
:200D6200223003047582FF2290E782E0FCA3E0FDA3E0FEA3E0FFC3E50C9CE50D9DE50E9E38
:200D8200E50F9F50047582012274022480F554E434E7F55575560C755700903FD11225EA40
:200DA20075090C758211120374E58270047582FF2275820022300417741124C0F554E434F5
:200DC2003FF55575560C75570090E7C21225EA75820022903FC0E0FFBF4000506E1207C965
:200DE200903FD1E0FCA3E0FDA3E0FEA3E0FFC3E50C9CE50D9DE50E9EE50F9F504BE50DA2C0
:200E0200E3E433B40100B39207E43324FF92B4850C3B850D3C850E3D850F3E753F007540B0
:200E22000275410090E0001222FC75540075550290E0001208877402250DF50DE4350EF5EC
:200E42000EE4350FF50F809812080C1209DFA2839204E433F5822285821175821012243925
:200E6200E582601775430175440090001175F040122472E5826004758201221224517582CF
:200E8200002274FF251240047582FF22E51224DE50047582FF2290E782E024FD400475828E
:200EA200FF2290E782E0F582120E59E58270047582FF22AE127F001EBEFF011F8E438F4475
:200EC20090E78375F000122472E582600F122451E58270047582FF227582002212245175A4
:200EE20082FF2290E783E024DF50047582FF2290E783E0F51390E782E0F582120E59E582F2
:200F020070047582FF22758211122439E582601A90E783E0F54575460090E7C275F000126C
:200F220024E8E5826004758200221224517582FF2220040122751408903D161210FEE582DE
:200F4200700122903D06E0FFFD7E00EDF4FDEEF4FE903D01E0FCFA7B00EA5205EB5206ED81
:0E0F62004E600AEC4207903D06EFF0D20822E6
:0D320A000F01200F3D00000221013D0000DA
:200F7000E17290E61074A0F0E17A90E61174A0F0E18290E68DE4F0E18990E6A27402F0225A
:200F9000E5BA30E20122100802801490E7C0E4F090E7C17402F012107875130502106CE58C
:200FB000BA30E1012290E68DE0FFBF0200500302105690E780E0700302105675542475556C
:200FD0000090E7C0122E3890E68DE024FEF5127513007E1C7F3D8E048F058C828D83A3A3DE
:200FF000A3E0FAA3E0FB4A605D8C828D83E0FB90E781E0FAEBB50202800D74052CFCE43D21
:20101000FD8C068D0780D38E828F83A3E0FDBDFF028004EDB5122F8E828F83A3A3E0FDBD81
:20103000FF0280028D138E828F83A3A3A3E0FEA3E0FFC0078E828F831200D6AE82D00790AA
:20105000E7C1EEF0800690E7C174FFF090E780E0FF90E7C0F0016790E68DE4F0016EAF136C
:2010700090E68F74022FF02275540275553D75560575570090E7C21225EA758200227554FA
:20109000007F00BF0400502BEF2402FDE4343DFEEF2482F582E434E7F583E0F4FC8D828E2E
:2010B00083E052048D828E83ECF0EC60037554010F80D0200006E5547002C2B5903D06E0F8
:2010D000FF90E786E0F45207903D06EFF07582002290E782E0FEA3E0FF8E548F5575562002
:0D10F00075570090E7C21225EA75820022B4
:2032170030090079183100098919320900141A330009591B341100A11B350011A91C36098D
:20323700003A1D3700099A1D380009071E390009741E3A0900751F3B00099B203C00054E8A
:2032570021200C00AB0C210C04230D22000CB70D28FF00840E2902FFE50E10FF006922117F
:2032770003FFB722A000057810A105008E10F002005006F10400C712F20202E712010220C3
:07329700E11000000000003F
:2010FD0022AE82AF837D017515FD751610E5142514F514ED70030212BE8E018F0274022E7E
:20111D00FEE43FFF89828A83E0F9A3E0F8891770030212BEB80104891480D8B802188E012E
:20113D008F0274022EFEE43FFF89828A83E0F515A3E0F51680BD8E018F0274022EFEE43F8B
:20115D00FF89828A83E0F518A3E0F51988045304F0BC202A851482122439E58260137543E8
:20117D000175440090001775F040122472E5827004C2098002D209A209E433FD800CE8204E
:20119D00E008851482122439AD82E820E003021234ED600D74014514F582122439E5827079
:2011BD0004C2098002D209A2095022AA18AB197C00E830E1047902800279018945754600CA
:2011DD008A828B838CF01224E8E5827004C2098002D209A209E433FDA918AA1989828A83E0
:2011FD00E0FBA3E0FCC007C006C005C002C0011212118009C015C0168B828C8322AB82AC23
:20121D0083D001D002D005D006D00789828A83EBF0ECA3F00212B5A918AA1989828A83E052
:20123D00FBA3E0FCC007C006C005C002C001C0001212528009C015C0168B828C8322AB826D
:20125D00AC83D000D001D002D005D006D00789828A83EBF0ECA3F0ED6022A918AA197C006C
:20127D00E830E1047B0280027B018B4375440089828A838CF0122472E5827004C2098002EE
:20129D00D209A2095007122451E5827004C2098002D209A209E433FD7515FD7516100211D6
:2012BD0010ED70031224518D822290E783E0903DA3F090E782E0F514903DA31210FEE582D6
:2012DD0070047582FF227582002290E783E0903DA9F090E782E0F514903DA91210FEE5822D
:0A12FD0070047582FF227582002242
:0C329E00002284E700000023C2E70000CB
:20023E007866760E7867760D7868765478697655786A764C786B764D786C764E786D764FEA
:20025E00786E7620786F762178707620787176217872762078737621787476017875764080
:08027E0078767602787776802D
:20130700AE82AF83EE248EFEEF34F98E54C4C554C4540F6554C554540FC5546554C554F5AF
:201327005590010D122E1BAE82E583C4CEC4540F6ECE540FCE6ECEFF74E0C39EFE740F9F8A
:20134700FF8E828F83022EDC122EDCAE82E583C4CEC4540F6ECE540FCE6ECEFF74FFC39E70
:20136700FEE49FFF8E548F55900098122E1B75540A7555001223D5E5828583F02472FE748F
:201387000635F08E82F58322E5822466F98714903DB10210FEE5822466F98714903DBB024F
:2013A70010FE122EDCAE82E583C4CEC4540F6ECE540FCE6ECEFF8E548F55900103122E1B4E
:2013C70075540A7555000223D5AE82AF838E548F5590000A122E1B7554037555011223D5B1
:2013E700AE82E583C454F0CEC4CE6ECE54F0CE6EFF8E828F83022EDCE5822468F9871490E6
:201407003DC50210FE75820022903D08E4F0A3F0903D0AF0A3F075820122E5822468F98777
:2014270014903DCB0210FEAE82AF838E548F55755600755700900005E4F5F0122E5BAC8203
:20144700AD83AEF0C313FFEE13FEED13FDEC13FCEFC313EE13ED13FDEC13F5828D8322AED2
:2014670082AF83E4FDFCEE2EFEEF33FFED33FDEC33FCEE2EFEEF33FFED33FDEC33FC755425
:2014870005E4F555F556F5578E828F838DF0EC022615E582246AF98714903DD70210FEE591
:2014A70082246AF987078F14903DE5C0071210FEE582D0077003F58222903D07E043E0032E
:2014C700F0903D08E0F5F0A3E045F06008903D07E053E0FEF0903D0AE0F5F0A3E045F060D2
:2014E70008903D07E053E0FDF08F14903DEB0210FEE582246AF98714903E051210FEE582BB
:201507007003F58222903D07E0FF30E007903D08E4F0A3F0EF30E107903D0AE4F0A3F075F8
:20152700820122E582246AF987078F14903DE5C0071210FEE582D0077003F58222903D0729
:20154700E043E004F0903D08E0F5F0A3E045F06008903D07E053E0FBF08F14903E1B021063
:20156700FEE582246AF98714903E291210FEE5827003F58222903D07E030E207903D08E4CD
:20158700F0A3F075820122E582246AF98714903E330210FEE582246AF98714903E3D021067
:2015A700FEE582246AF98714903E431210FEE5827003F58222903D07E053E007F075820123
:2015C70022E582246AF987078F14903DE5C0071210FEE582D0077003F58222903D07E043E9
:2015E700E0FBF08F14903E490210FEAE82AF83743AC39EFE74169F8E82C40354F8C582C489
:2016070003C5826582C58254F8C5826582F5837554357555001223D5AE82E5835403A2E016
:20162700CE13CE13A2E0CE13CE13CE8E82F58322AE82AF838E54EFA2E7C55433C55433A22F
:20164700E7C55433C55433C5545403F555900035122E1BAE82E583C423CEC423541F6ECE47
:20166700541FCE6ECEFF743AC39EFE74169F8E82F58322E5827009751448903E650210FE13
:2016870075820122AF82903D0EEFF0751448903E870210FEAF82903D0EEFF0751448903E7E
:2016A700950210FEE582246EF98714903EA30210FEE582246EF98714903EAD0210FEE582F1
:2016C700246EF98714903EB70210FEE582FF30E0067DC77E3E80047DBD7E3EEF2470F9874F
:2016E700148D828E830210FEE582FF30E0067DDB7E3E80047DD17E3EEF2470F987148D825B
:201707008E830210FEE582FF30E0067DEB7E3E80047DE57E3EEF2470F987148D828E830226
:2017270010FE7582012275820022C2B0C2B6903FC0E0FFBF4015C2B1C2B775233775243F62
:20174700903D0CE4F07428A3F08022903FC0E0FFBF3200401275231475243F903D0C74552D
:20176700F0740DA3F080067523F175243E903FC0E0FFBF330050047866760C903FC0E0FFF6
:20178700BF40005008786A7640786B76417F00BF0400400122852382852483E0FEEF245D70
:2017A700F9E75E7003021834852382852483A3A3A3A3A3E0FDA3E0FEC007C006C0051217C5
:2017C700CA8007C005C0068F8222D005D006D007740B2523F582E43524F583E0FDA3E0FE20
:2017E700C007C006C0051217F28007C005C0068F8222D005D006D007903D0AE4F0A3F090E0
:201807003D08F0A3F0741D2523F582E43524F583E0FDA3E0FEC007C006C00512182780076C
:20182700C005C0068F8222D005D006D0070F021796AE82AF83EE4F6030852382852483A37B
:20184700E0FCA3E0FDC3EE9CEF9D920A4017852382852483A3A3A3E0FCA3E0FDC3EC9EED84
:201867009F920A5004C20A8002D20AA20AE433F5822290E782E0FF852382852483E07D00C1
:20188700F4FEEDF4FD7C00EF5206EC5205EE4D60047582FF227F00BF0400506690E782E0E3
:2018A700FEEF245DF9E75E6056EF2FFE2483F582E434E7F583E0FCA3E0FD8C828D83C007CD
:2018C700C006C005C004121838E582D004D005D006D00770047582FF22EE24E1F582E43485
:2018E7003FF583E0F525A3E0F526AA25AE26E5254526600BC3EA9CEE9D50047582FF220FC0
:2019070080957F00BF0400507590E782E0FEEF245DF9E75E6065EF2F2483F582E434E7F52A
:2019270083E0FDA3E0FE4D7008EF2474F9E7F452B0903D08EDF0EEA3F0852382852483A371
:20194700A3A3A3A3A3A3E0FBA3E0FCC007C006C005C00412195F8007C003C0048F8222ABC8
:2019670082D004D005D006D007EB70047582FF22ED4E6007EF2474F9E742B00F808675820A
:201987000022852382852483E090E7C2F07F00BF0400507590E7C2E0FEEF245DF9E75E6093
:2019A70065EF2474F9E755B0604D852382852483A3A3A3A3A3A3A3A3A3E0FDA3E0FEC0076C
:2019C700C0061219CE8007C005C0068F8222AD82D006D007ED70047582FF22EF2F24C3FEA4
:2019E700E434E7FD903D08E0FBA3E0FC8E828D83EBF0ECA3F0800FEF2F24C3F582E434E731
:201A0700F583E4F0A3F00F80867582002290E782E0FF852382852483E07D00F4FEEDF4FD57
:201A27007C00EF5206EC5205EE4D60047582FF227F00BF0400503390E782E0FEEF245DF9DD
:201A4700E75E6023EF2F2483F582E434E7F583E0FDA3E0FE8D828E83C007121838E582D026
:201A67000770047582FF220F80C87F00BF04004003021B5590E782E0FEEF245DF9E75E7089
:201A870003021B51EF2FFE2483F582E434E7F583E0FCA3E0FD852382852483A3A3A3A3A33C
:201AA700A3A3A3A3E0FAA3E0FBC007C006C005C004C003121ABF8007C002C0038F8222AA8E
:201AC70082D003D004D005D006D007EA70047582FF22903D08E0FAA3E0FBC3EC9AED9B5090
:201AE70043903D08ECF0EDA3F0852382852483A3A3A3A3A3A3A3E0FAA3E0FBC007C006C0FB
:201B070005C004C003121B118007C002C0038F8222AA82D003D004D005D006D007EA700402
:201B27007582FF22EE24E1F582E4343FF583ECF0EDA3F074212EF582750902C007120374E7
:201B4700E582D00770047582FF220F021A7375820022852382852483E090E7C2F07F00BF60
:201B67000400503290E7C2E0FEEF245DF9E75E6022EF2FFE24C3FCE434E7FDEE24E1F5822C
:201B8700E4343FF583E0FBA3E0FE8C828D83EBF0EEA3F00F80C97582002290E782E0FF85CB
:201BA7002382852483E07D00F4FEEDF4FD7C00EF5206EC5205EE4D60047582FF227F00BF25
:201BC7000400506090E782E0FEEF245DF9E75E6050EF2F25E0FE2483F582E434E7F583E07F
:201BE700FCA3E0FDEE2483FEE434E7FB8E828B83A3A3E0FBA3E0FE8C828D83C007C006C0AA
:201C070003121838E582D003D006D007600F8B828E83C007121838E582D00770047582FF13
:201C2700220F809B7F00BF0400507390E782E0FEEF245DF9E75E6063EF2F25E0FE2483F547
:201C470082E434E7F583E0FCA3E0FD903D08ECF0EDA3F0EE2483FEE434E7FD8E828D83A3A5
:201C6700A3E0FDA3E0FE903D0AEDF0EEA3F0740D2523F582E43524F583E0FDA3E0FEC0070D
:201C8700C006121C8E8007C005C0068F8222AD82D006D007ED70047582FF220F8088758213
:201CA7000022852382852483E090E7C2F07F00BF0400507B90E7C2E0FEEF245DF9E75E606A
:201CC7006A740F2523F582E43524F583E0FDA3E0FEC007C006121CE18007C005C0068F827F
:201CE70022AD82D006D007ED70047582FF22EF2F25E0FE24C3FCE434E7FD903D08E0FAA314
:201D0700E0FB8C828D83EAF0EBA3F0EE24C3FEE434E7FD74022EFEE43DFD903D0AE0FBA387
:201D2700E0FC8E828D83EBF0ECA3F00F021CB6758200227F00BF0400505590E782E0FEEF9D
:201D4700245DF9E75E6045EF2F2483F582E434E7F583E0FDA3E0FE903D08EDF0EEA3F07460
:201D6700112523F582E43524F583E0FDA3E0FEC007C006121D7F8007C005C0068F8222AD4C
:201D870082D006D007ED70047582FF220F80A675820022852382852483E090E7C2F07F0068
:201DA700BF0400505790E7C2E0FEEF245DF9E75E604774132523F582E43524F583E0FDA3CB
:201DC700E0FEC007C006121DD28007C005C0068F8222AD82D006D007ED70047582FF22EF07
:201DE7002F24C3FEE434E7FD903D08E0FBA3E0FC8E828D83EBF0ECA3F00F80A475820022D7
:201E0700852382852483E090E7C2F07F00BF0400505790E7C2E0FEEF245DF9E75E60477493
:201E2700152523F582E43524F583E0FDA3E0FEC007C006121E3F8007C005C0068F8222ADC6
:201E470082D006D007ED70047582FF22EF2F24C3FEE434E7FD903D08E0FBA3E0FC8E828D08
:201E670083EBF0ECA3F00F80A475820022852382852483E090E7C2F07F00BF04005057905A
:201E8700E7C2E0FEEF245DF9E75E604774172523F582E43524F583E0FDA3E0FEC007C00675
:201EA700121EAC8007C005C0068F8222AD82D006D007ED70047582FF22EF2F24C3FEE4348A
:201EC700E7FD903D08E0FBA3E0FC8E828D83EBF0ECA3F00F80A4758200227F00BF040040A0
:201EE7000122852382852483E0FEEF245DF9E75E607874192523F582E43524F583E0FDA37D
:201F0700E0FEC007C006121F128007C005C0068F8222AD82D006D007ED604F903D07E0FE9D
:201F2700E06047EF2474F9E7F452B0EF2402FCE4343DFD8C828D83E042068C828D83EEF011
:201F4700741B2523F582E43524F583E0FDA3E0FEC007C006C005121F628007C005C0068F93
:201F67008222D005D006D007D2080F021EE390E782E0FF852382852483E07D00F4FEEDF4EA
:201F8700FD7C00EF5206EC5205EE4D60047582FF2275270074FC2527500302209790E78223
:201FA700E0FEE527245DF9E75E7003022092E5272527FE2483FCE434E7FD8C828D83A3E0B4
:201FC700F528EE2483F582E434E7F583E0FE5528F529EE4528F52A741F2523F582E43524D8
:201FE700F583E0FAA3E0FBC003121FF58008C002C00385278222AA82D003EA70047582FF71
:2020070022903D08E0FAA3E0FBAC297E00EC5AF52BEE5BF52CAD297F00EDF4FDEFF4FFAA88
:20202700287B00ED5AF52DEF5BF52EAA2BAB2CE52D4202903D08EAF0EBA3F0903D0AE0FA40
:20204700A3E0FBEA5204EB5206AA2A7B00EA5205EB5207EC4205EE4207903D0AEDF0EFA3F4
:20206700F0741D2523F582E43524F583E0FEA3E0FFC00712207F8008C006C0078527822227
:20208700AE82D007EE70047582FF220527021F9B75820022852382852483E090E7C2F075E3
:2020A7002F0074FC252F500302214A90E7C2E0FEE52F245DF9E75E7003022145903D0AE4E6
:2020C700F0A3F0E52F2474F9E755B0602A741F2523F582E43524F583E0FDA3E0FEC006121E
:2020E70020EB8008C005C006852F8222AD82D006ED70047582FF22E52F252FFE24C3FCE4B8
:2021070034E7FD0CBC00010D903D0AE0F530A3E0F531903D08E0FBA3E0AA30EB52028C82EB
:202127008D83EAF0EE24C3FEE434E7FF903D08E0F4FD903D0AE052058E828F83EDF0052FF6
:202147000220A975820022852382852483E090E7C2F07F00BF0400505E90E7C2E0FEEF241B
:202167005DF9E75E604E903D08E4F0A3F0EF2474F9E755B0602D74212523F582E43524F554
:2021870083E0FDA3E0FEC007C0061221968007C005C0068F8222AD82D006D007ED7004750A
:1B21A70082FF22EF24C3FDE434E7FE903D08E08D828E83F00F809D75820022A0
:2032AA0000FF000207130012083D000000024F130013083D00000220AF3D00000002A9130A
:2032CA000023083D000012030010D53DD4220C3DD220B03D0000D221073D00000002661474
:2032EA0057220A3D000266145822083DD220073D0010D63D0000D221073D00022E1457237B
:20330A000A3D00022E145823083D00004A22083DD220073D0010D63D0000D221073D4A23AA
:20332A00083D000000022E148823083D00008C23083D00008021073D00004A23083D00106F
:20334A00D53DD4220C3D4A22083DD220073D00000101B61D00120020B03D26225F3E002032
:20336A00B03DE322613ED222633ED622633EDA22633EDE22633E000000200E3D0002F215D2
:20338A002122083D000000200E3D000237162123083D00000120083D03200A3D0000012166
:2033AA00083D03210A3D00000021083D00000220083D06200A3D00000320083D07200A3D43
:2033CA0000000221083D06210A3D00000321083D07210A3D00000021083D00000121083D68
:2033EA0000000372067C1529178F139C13FF130C1410142D172D1721142D1729172D17ABA0
:20340A0016B816C5160372067C1529178F139C139914A614F8142A1568158E159B15A81507
:20342A00C815AB16B816C5160F84037C157A168B169B169914A614F8142A1568158E159BC5
:0B344A0015A815C815D216EF160C17B8
:2021C200AF82AE338E39AE328E3AEF2FFFF582122439E58270030222627543027544009016
:2021E200003975F040122472E5827003022262E5386041AC34AD357E008536438537448C6F
:20220200828D838EF0122472E5826054122451E5827003F582227E00BE800050138F8212AD
:202222002439E5826007122451758201220E80E87582002274014FF582122439E5826020B0
:20224200AD34AE357F008536458537468D828E838FF01224E8E5827003F5822275820122ED
:202262001224517582002274FE251240047582FF22E51224DD50047582FF2290E782E0F585
:2022820032A3E0F53374042480F534E434E7F535AE127F00EE24FEFEEF34FFFF8E368F37F9
:2022A2007538017582511221C2E58270047582FF227582002290E784E024DF50047582FFFD
:2022C2002290E784E0F51390E782E0F532A3E0F533740224C0F534E434E7F53590E784E0C5
:2022E200F5367537007538007582511221C2E58270047582FF2275820022AE82AF83AC3BC6
:20230200AD3CA83DA93E7A007B00B8000BB90008BA0005BB0002801CB8010BB90008BA0036
:2023220005BB00028012B80223B90020BA001DBB001A80087B5280187B5380147B518C013D
:202342008D0274702AFA89048A05800475820022E53F454060758C018D0243013F09B9004C
:20236200010AE9C39CF9EA9DFAC3E53F99E5409A4004E5417004A93FAA408C328D338E345F
:202382008F3589368A378541388B82C007C006C005C004C003C002C0011221C2E582D00163
:2023A200D002D003D004D005D006D0077003F58222E92CFCEA3DFDE92EFEEA3FFFE53FC3BB
:1323C20099F53FE5409AF54002235275820122758200229D
:2023D5007A10E4FBFCE58225E0F582E58333F583EB33FBEC33FCEB9554F5F0EC9555400684
:0923F500FCABF0438201DADD22A9
:2023FE00C007C006AF8290E678E020E00CE54260F5754200758200801D90E678E030E2057B
:20241E007582008011EF600B90E678E0035401F5828003758201D006D00722C007AF82904D
:20243E00E6787480F090E679EFF07582011223FED00722C00790E678E030E2057582008027
:20245E001090E6787440F090E678E020E6F9758201D00722C007C006C005C004C003C00263
:20247E00C001C000AD82AE83AFF0E5434544700575820180447B007C00EBB54306ECB54417
:20249E00028026EB2DF8EC3EF98F02888289838AF0122FC690E679F07582011223FEE582AA
:2024BE0060070BBB00D30C80D0EBB54307ECB54403D38001C3E433F582D000D001D002D0E8
:2024DE0003D004D005D006D00722C007C006C005C004C003C002C001C000858247858348A9
:2024FE0085F049E545454670067582010225D9AB45AC46BB0109BC000690E6787420F09072
:20251E00E679E07B007C0079007A00E9B54507EAB546030225B67582001223FEE5827003C1
:20253E000225C989008A07740228F8E43FFFE8B5450AEFB5460690E6787420F089068A074D
:20255E000EBE00010FEEB5452CEFB5462875AF03759AE6759B7890E67B7440F0E0AFE0E9CA
:20257E002547F8EA3548FDAE4988828D838EF0EF122DFF8017E92547FDEA3548FEAF4990E3
:20259E00E679E08D828E838FF0122DFF09B900010A89038A0402252990E678E030E2057570
:2025BE008200801790E678E020E6F9EBB54507ECB54603D38001C3E433F582D000D001D02B
:0C25DE0002D003D004D005D006D00722A4
:2025EA00AA82AB83AC54AD55AE56AF57EE60010FEF601775AF078A9B8B9A8C9E8D9D90E668
:0B260A007CE090E67BF0DEF6DFF422BF
:20261500FB7A20E4FCFDFEFFE5822582F582E58333F583E5F033F5F0EB33FB4017DAE980FE
:2026350042E5822582F582E58333F583E5F033F5F0EB33FBEC33FCED33FDEE33FEEF33FF2D
:20265500EC9554ED9555EE9556EF95574013EC9554FCED9555FDEE9556FEEF9557FF438297
:0526750001DABEEB22BA
:06020000E478FFF6D8FDD2
:01267A00322D
:20267B00AF82754B00754C00D2E890E668E043E008F090E65CE043E001F090E65D7401F0FC
:20269B00D2AF90E680E020E10890E680E043E002F0EF600E90E680E043E008F090000A12DA
:2026BB002F9B90E680E053E0F7F022AF82BF00028037BF01028036BF02028039BF04028041
:2026DB0038BF06028037BF08028036BF80028019BF8102801CBF8202801BBF8402801ABF76
:2026FB0086028019BF881E801890E6A02290E6A12290E6A22290E6A32290E6A42290E6A564
:20271B002290E6A62290000022C022C0E0C0F0C082C083C007C006C005C004C003C002C07A
:20273B0001C000C0D075D000C08675860090E6B8E0FF90E6B9E0FEE4BF800104FD6014BE36
:20275B00061190E6BAE0FBA3E0F5828B08120289022976EF7025BE092290E6BAE0F582126B
:20277B0005AAE582600990E6A07480F002297690E6A07401F07481F0022976ED6009BE0807
:20279B0006122EF20229768F04BC012CBE0B2990E6BCE0FC90E6BAE0F50B8C821205CCE5E3
:2027BB0082600990E6A07480F002297690E6A07401F07481F0022976E4BF810104FC600FE3
:2027DB00BE0A0C90E6BCE0F582120606022976EF7031BE032E90E6BAE0FAA3E0FBBA010FF1
:2027FB00BB000C754B0190E6A07480F0022976BA0205BB0002800302297690E6A07480F0FF
:20281B00022976ED602FEE702CAD4AE54B25E0FB420590E740EDF090E741E4F090E6B50439
:20283B00F090E68AE4F090E68B7402F090E6A07480F0022976EC6025EE702290E740E4F03B
:20285B0090E741F090E6B504F090E68AE4F090E68B7402F090E6A07480F0022976BF0202FD
:20287B008003022923E4BE030104FD7008BE0102800302292390E6BAE0FBA3E0FC4B600383
:20289B0002297690E6BCE0F582C0051226C6AB82AC83D005EB4C7003022976ED60188B8242
:2028BB008C83E0FD4305018B828C83EDF090E6A07480F002297690E6BCE0F582C004C00324
:2028DB00122ED1E582D003D00470030229768B828C83E0FD5305FE8B828C83EDF090E6BC30
:2028FB00E0FCA3E08C0353030F530480E423CCC423541F6CCC541FCC6CCCFD90E683EC4B8A
:20291B00F0E043E020F08053BF824AEE704790E6BCE0F5821226C6AE82AF838E048F05EE99
:20293B004F60388C828D83E05401FCB40100B3920BE433FF90E740F090E741E4F090E6B5CD
:20295B0004F090E68AE4F090E68B7402F090E6A07480F0800690E6B81204655391EF90E6BB
:20297B005D7401F0D086D0D0D000D001D002D003D004D005D006D007D083D082D0F0D0E0D3
:20299B00D0220200ACAE82AF837401B54D27E54E70238E828F83E493FCA3E493FD8C548D9D
:2029BB00558C828D83E493F55675570090E0001225EA022CCE7406B54D36E54E70328E82D7
:2029DB008F83A3A3E493FCA3E493FD4C700A90E6A07401F07481F0228C548D558C828D83D2
:2029FB00E493F55675570090E0001225EA022CCE7402B54D028003022B118E828F83A3A3FE
:202A1B00A3A3E493FDC3E54E9D4003022B118E828F83A3A3A3A3A3E493FCA3E493FDE54EBF
:202A3B0075F002A42CF582ED35F0F583E493FCA3E493FD74092CFAE43DFB8C548D558C822A
:202A5B008D83E493F55675570090E000C005C004C003C0021225EAD002D003D004D0058C44
:202A7B00828D83E4932400FCE434E0FD8C508D518A528B53855282855383E493F8A3E4936C
:202A9B00F98854895588828983E493F556755700855082855183C005C004C003C0021225CF
:202ABB00EAD002D003D004D005855282855383E493F8A3E493F988828983E4932CFCE43DB7
:202ADB00FD74022AFAE43BFB8A828B83E493F8A3E49348709790E002E0FAA3E04A600302BA
:202AFB002CCEECC39400FCED94E0FD90E002ECF0EDA3F0022CCE7403B54D0474018001E403
:202B1B00FD601DE54E7019755406755532903206E493F55675570090E0001225EA022CCEB6
:202B3B00ED7003022BE0AC4E7D00EC24FFFAED34FFFB74072EF582E43FF583E493F87900CF
:202B5B00C3EA98EB648089F063F08095F0507674082EF582E43FF583E493FAA3E493FB1C51
:202B7B00BCFF011DEC2CFCED33FDEC2AF582ED3BF583E493FCA3E493FD90E0007402F09013
:202B9B00E00104F074012401FAE434E0FB8C828D83E493F97003022CCE0CBC00010D8A82DF
:202BBB008B83E9F074012AF8E43BF988828983E4F00428FAE439FB90E000E0F9090990E071
:202BDB0000E9F080C8740FB54D028003022CC4E54E6003022CC490E0007405F090E0017477
:202BFB000FF0740A2EFCE43FFD8C828D83E49390E004F090E000E02400FAE434E0FB740B1A
:202C1B002EF582E43FF583E493FEA3E493FF754F008C828D83E493F8C3E54F985056C00481
:202C3B00C0058A528B538E548F558E048F058C828D83E493F556755700855282855383C0EE
:202C5B0007C006C005C004C003C0021225EAD002D003D004D005D006D0078C828D83E493CD
:202C7B002AFAE43BFB74022EFEE43FFF054FD005D004809DEAC39400FAEB94E0FB90E00216
:202C9B00EAF0EBA3F07E007FE090E6B5E4F090E68AEBF090E68BEAF090E6B3EFF090E6B4FD
:202CBB00EEF090E6A07480F02290E6A07401F07481F0227E007FE090E6B57401F090E6B3E7
:202CDB00EFF090E6B4EEF090E6A07480F022AE82AF83A3A3A3A3A3E493FCA3E493FD740443
:202CFB002EFEE43FFF7556008E828F83E493FAC3E5569A400122E55675F002A42CF582ED3C
:202D1B0035F0F583E493F557A3E493F55874092557F8E43558FA755A00855782855883A345
:202D3B00A3A3A3A3E493B54C028003022DF7880189828A83E493F8A3E493FB88828B83A3E9
:202D5B00E493FBBB043789828A83E493F55BA3E493F55C855B82855C83A3A3E493B554100A
:202D7B00855B82855C83A3A3A3E493B555028005755900800375590185595A8048BB05455C
:202D9B00E55A6041C004C00589828A83E493F8A3E493FB88828B83A3A3E493FB740F5BF86D
:202DBB00530380E423CBC423541F6BCB541FCB6BCB30E40244E090E683EB48F0E043E020D3
:202DDB00F0D005D004740229F9E43AFA89828A83E493F8A3E493486003022D4B0556022D3F
:012DFB0003D4
:0432060004030904B0
:012DFC0032A4
:2001DE00794BE94402601B7A0390320A780F75923DE493F2A308B800020592D9F4DAF2750C
:0201FE0092FF6E
:2000AC00C000A88118C0D0B6001B18B668004015B68F005010C0E0E65407B406005004E6CD
:0A00CC0054F8F6D0E0D0D0D0003296
:012DFD0032A3
:012DFE0032A2
:03010000022724AF
:03010400022FC304
:03010800022ECFF5
:03010C00022FBF00
:03011000022FC5F6
:03011400022FE8CF
:03011800022ECCE8
:03011C000201B825
:030120000206CC08
:030124000206CF01
:030128000206D2FA
:03012C000206D5F3
:030130000206D8EC
:030134000206DBE5
:030138000206DEDE
:03013C000206E1D7
:03014000022EED9F
:030144000201B8FD
:03014800022FE2A1
:03014C00022FE39C
:03015000022FE497
:03015400022FE592
:03015800022FE68D
:03015C00022FE788
:03016000022FC4A7
:030164000201B8DD
:030168000201B8D9
:03016C000201B8D5
:03017000022EEF6D
:03017400022EF068
:03017800022F0E45
:03017C00022F103F
:03018000022EF15B
:03018400022F0F38
:03018800022F1132
:03018C00022FC07F
:03019000022ECA72
:03019400022ECD6B
:03019800022ED064
:03019C00022EEC44
:0301A000022ECB61
:0301A400022ECE5A
:0301A800022EDB49
:0301AC00022EEE32
:0301B000022E5AC2
:0301B400022FE92E
:0101B8003214
:1B2DFF0020F71130F6138883A88220F509F6A8837583002280FEF280F5F022D3
:012E1A003285
:1D2E1B00E5828554F0A4C582C0F08555F0A4D0F025F0C5838554F0A42583F5832295
:202E3800AA82AB83AC54AD55EC60010DED601175AF038A9B8B9A90E67B7400F0DCFDDDFBEF
:012E58002257
:012E59003246
:012E5A003245
:202E5B00AAF0FBE5828554F0A4FCADF0E5838554F0A42DFDE435F0FEE5828555F0A42DFD50
:202E7B00E5F03EFEE433FFEA8554F0A42EFEE5F03FFFE5838555F0A42EFEE5F03FFFE582FE
:202E9B008556F0A42EFEE5F03FFFEB8554F0A42FFFEA8555F0A42FFFE5838556F0A42FFF58
:0E2EBB00E5828557F0A42F8EF08D838C822245
:012EC90032D6
:012ECA0032D5
:012ECB0032D4
:200206007800E84400600A790075923DE4F309D8FC780FE84400600C7901903D00E4F0A37C
:04022600D8FCD9FA2D
:012ECC0032D3
:012ECD0032D2
:012ECE0032D1
:012ECF0032D0
:012ED00032CF
:0A2ED10090E6A07480F075820122E3
:012EDB0032C4
:102EDC00C582C583C58222C582C5F0C583C5F022D3
:012EEC0032B3
:012EED0032B2
:012EEE0032B1
:012EEF0032B0
:012EF00032AF
:012EF10032AE
:1C2EF20090E740E54CF090E6B57401F090E68AE4F090E68B04F090E6A003F02268
:012F0E003290
:012F0F00328F
:012F1000328E
:012F1100328D
:202F1200E583700BE58224FA400122B4001122E5826003D5E0FD0075E0FED583F674F9D58E
:202F3200E0FD22C007C006C001C000AE82AF83EE2EF8EF33F9EE28FEEF39FF90E600E0F858
:202F5200794C20E416C3EF13CE13CEFF795AE820E309C3EF13CE13CEFF7963E58124FAF87B
:202F7200E926C313C313F9C3EE99F582EF9400F583D000D001D006D007500122022F127457
:202F920011C0E0122F35158122C007C006AE82AF837411C0E0EE4F600D1EBEFF011F9003F4
:0D2FB200E8122F3580EF1581D006D00722E0
:012FBF0032DF
:012FC00032DE
:0200D600E473D1
:012FC10032DD
:012FC20032DC
:012FC30032DB
:012FC40032DA
:012FC50032D9
:0D01D100758177122FEAE58260030200A914
:1C2FC60020F71430F6148883A88220F507E6A88375830022E280F7E49322E0221A
:012FE20032BC
:012FE30032BB
:012FE40032BA
:012FE50032B9
:012FE60032B8
:012FE70032B7
:012FE80032B6
:012FE90032B5
:042FEA0075820022CA
:00000001FF
