:060000000201D102072EEF
:03000B00022F9928
:03001300022F7B3E
:03001B00022FD8D9
:0300230002314067
:03002B0002073495
:0300330002304850
:03003B000231414E
:03004300020100B7
:03004B000227F990
:03005300020100A7
:03005B00022F7CF5
:03006300022F7DEC
:200068000000E2FBEAF2802C0000E0FBEAF08024E6B50202EBF62200E2B50202EBF222007E
:20008800E0B50202EBF02230F6E0A88220F5D3EAC6F582228B822230F6E6A88220F5D9808E
:0100A800CF88
:12022A0078757601787676027877760478787608C2005F
:030315000200A93A
:0300A900020773D8
:20031800AF82BF033674EEB50831756CA1756D329032A1E493F56E756F0090E00012276983
:200338007D007EE090E6B57401F090E6B3EEF090E6B4EDF090E6A07480F0228F6585086629
:20035800903294022B1F75540075553EE4F552F553755601F557F558758251122341E58215
:200378006065903E00E0FFBFFF02805BBFC2028022BFC01F7554C075553F75520C75530068
:20039800755640755700755800758251122341E5826034903FFFE020E12C756C0C756D003E
:2003B800903FD1122FB7903FE5E0FEA3E0FF903FE1EEF0EFA3F0903FE7E0FEA3E0FF903F84
:2003D800E3EEF0EFA3F022903FC074F9F0756C04756D33756E10756F00903FC11227699021
:2003F8003FD1E4F0A3F0A3F0A3F022AF828F057E00740C2DFDE43EFE8D528E53EF24C0F591
:2004180054E4343FF555850956755700755801758251022341903FC0E0FFBFF90280149057
:200438003FC0E0FF7E00430607903179EFF0EEA3F0801490317574B4F07404A3F090317739
:200458007413F07486A3F0903FE9E0602290326EE493FEA3E493FF8E828F83742924C0F510
:200478006CE4343FF56D756E16756F00122769903FFFE030E01D903270E493FEA3E493FF25
:200498008E828F83756C15756D33756E07756F00122769903272E493FEA3E493FF903FC056
:2004B800E0C4540F24408E828F83F074012EFCE43FFD903FC0E0FB740F5B24308C828D832E
:2004D800F08E828F83A3A3A3740124C0F56CE4343FF56D756E10756F00022769AE82AF83CB
:2004F800E0FD235401F50ABDC0028008BD4002800302062FE50A60508E828F83A3E0FDBDD2
:20051800C0468E828F83A3A3A3A3E0FCA3E0FDBC0436BD0033756CB3756D329032B3E49339
:20053800F56EA3E493F56F90E0001227697C007DE090E6B57401F090E6B3EDF090E6B4EC2B
:20055800F090E6A07480F022E50A60508E828F83A3E0FDBDC0468E828F83A3A3A3A3E0FCE9
:20057800A3E0FDBC0536BD0033756CDB756D329032DBE493F56EA3E493F56F90E00012278E
:20059800697C007DE090E6B57401F090E6B3EDF090E6B4ECF090E6A07480F022E50A607783
:2005B8008E828F83A3E0FDBDD06D8E828F83A3A3A3A3E0FCA3E0FDBC025DBD005A8E828FAC
:2005D80083A3A3E0FEA3E0FFBE014CBF0049903FFFE030E242756CE5756D329032E5E493CD
:2005F800F56E756F0090E0001227697E007FE09032E5E493FD7C0090E6B5E4F090E68AEC2B
:20061800F090E68BEDF090E6B3EFF090E6B4EEF090E6A07480F02290E6A07401F07481F068
:2006380022AF82C00712109C120D4CD0078F647F00BF05005009EF2479F876000F80F27509
:20065800820122E582FF7009C00712109CD0078013850B0C8F82C007120C09E582D00770C6
:2006780003F582228F6C850B6D903294C007122E68D007EF2479F8A60B75820122E5822458
:2006980079F9870790E740EFF090E6B57401F090E68AE4F090E68B04F090E6A003F02275B3
:2006B800B20275800075B5FF75B00075B31C75900090E601E4F0D288D2A82275C801D2ADE4
:2006D80090E65E74FFF02290E782E024FF9200903FC0E0FFBF400050047F3C80027F34EF7B
:2006F800F452B030000F90E783E025E025E0FEEF5E42B0801DD2B2903FC0E0FFBF400050AE
:2007180003208304C2018002D201A201E43324FF92B375820022200002D2B532200002C205
:20073800B4C2CAC2CF32C0E0C082C083200002D2B4D2CA5391EF90E65F74FFF0D083D08285
:20075800D0E03202073E02073E02073E02073E02073E02073E02073E02073E90E60B74036F
:20077800F090E6007412F090E67A7401F012035E12042D1206B71206D31216A1120AD39078
:200798003FC0E0FFBF40004006C2B3D2B2D2B3903FD1E0FCA3E0FDA3E0FEA3E0FFEC4D4E1A
:2007B8004F6010120EE6E582B401009202E43324FF92B57582011227FA78798607BF0103BF
:2007D8001210BC787A8607BF03004003120D65208006121E5112105C2000DE90E687E0702B
:2007F8002690E684E0FFC313FF24FC401CEF2F90080B738006800C80068008D2B2800AC26D
:19081800B28006B2B28002D2B2903FC0E0FFBF400050A6A28392B380A038
:20316D0012011002FFFFFF40B720B19D0000010203010A060002000000080000090400008D
:20318D0000FFFFFF000904000102FFFFFF000904010000FFFFFF000904010101FFFFFF04FC
:2031AD000904010201FFFFFF050904010301FFFFFF060904010401FFFFFF070904020000B4
:2031CD00FFFFFF000904020101FFFFFF040904030000FFFFFF000904030101FFFFFF0409AA
:2031ED0004030201FFFFFF050904040000FFFFFF000904040101FFFFFF0407050102000283
:20320D000007058102000200070502020002000705040200020007058602000200070588C0
:20322D00020002000902000005010080FA8931923107320E329B31A4311532AD311532B639
:20324D00311532BF311532C831D1311C32DA31E3312332EC312332F531FE312A32000031A1
:20326D00321D333433633377337A337D3381331810050038B60834A909A0478BFDA07688F1
:20328D0015B6650001D0016D317F31016C32076E32017C3212034D0053004600540031005C
:2032AD0030003000C00028000000000104000100000000000000000157494E5553420000DA
:2032CD0000000000000000000000000000000A0000000001050000001E0301776562757389
:2032ED00622E676C6173676F772D656D6265646465642E6F7267003939393939393939396F
:20330D003939393939393900416E6F74686572007768697465717561726B207265736561CB
:20332D0072636800000000476C6173676F7720496E74657266616365204578706C6F7265BF
:20334D00723B206769742064656631633432390000000000000058582D5858585858585888
:18336D0058585858585858585800325800345800434647004E564D0059
:12023C00787E7601787F76027880760478817608C20425
:20083100E58224FF9210903FC0E0FFBF3000500CA210B39211E43324FF92B122B210A210A7
:20085100E43324FF928122C2B0C2B69000FA12311A75820112083190000112311075820029
:20087100120831C293D2949004B0023110758201120831018690E60174E2F0758200120842
:200891003190E6F1E4F0E5BB30E7FB90E6F1E4F0E5BB30E7FB227F00BF31005007C294D22C
:2008B100940F80F422AF82903E01E4F0A3F0A3F0A3F0C20301C790E6047480F001CF90E630
:2008D100F574FFF001D790E60174C0F001DF90E61274A2F001E790E618E4F001EE90E6041B
:2008F1007402F001F690E6497482F001FE90E6497482F0210690E604E4F0EF60067582017F
:20091100020831903FC0E0FFBF4000500302085802087E75AF0385829B85839AAA6CAB6D48
:20093100EA60010BEB604890E67BE0A2E7C2949292D294A2E6C2949292D294A2E5C29492AC
:2009510092D294A2E4C2949292D294A2E3C2949292D294A2E2C2949292D294A2E1C29492F4
:2009710092D294A2E0C2949292D294DABDDBBB22AF82E5AA30E0012290E690E0FE7D0090D9
:20099100E691E07C004205EC4206EF70148D6C8E6D90F000C006C005120924D005D006801C
:2009B1002D903E01E0F55BA3E0F55CA3E0F55DA3E0F55E8D5F8E6075610190F000C006C0C4
:2009D1000512247BE582D005D0067002D20321E190E6497482F0903E01E0FAA3E0FBA3E0A6
:2009F100FCA3E0FF8D008E017D007E00903E01E82AF0E93BA3F0ED3CA3F0EE3FA3F022AF7C
:200A110082E5AA30E0012290E690E0FE7D0090E691E0FB7C004205EC4206EF7022413090C5
:200A3100E6497402F0413890E6D0EEF0413F90E6D1EDF0414675BB00E5BB20E73480F99034
:200A51003E01E0F56CA3E0F56DA3E0F56EA3E0F56F8D708E7190F000C006C005122550E5E0
:200A710082D005D0067002D203417C90E6497482F0903E01E0FAA3E0FBA3E0FCA3E0FF8DDA
:200A9100008E017D007E00903E01E82AF0E93BA3F0ED3CA3F0EE3FA3F02275820012083153
:200AB10041B390E6F574FFF041BB903FC0E0FFBF3000500790E60174A3F02290E60174E345
:200AD100F02241D590E60174C0F041DD90E6047480F041E590E612E4F041EC90E613E4F0BA
:200AF10041F390E614E4F041FA90E615E4F0610190E618E4F0610890E619E4F0610F90E643
:200B11001AE4F0611690E61BE4F0611D90E609E4F0612490E6027498F0612C90E60374FEB8
:200B3100F0613490E6707480F0613C90E6D27401F090E420F090E42804F090E430E4F090EF
:200B5100E421743FF090E4297407F090E4317402F0616490E604E4F022AF82E56C70047529
:200B71008201227403B56C0280057404B56C24BF01028003020C05787BE6700A787CE670EE
:200B910005787DE66004C2058002D205A205E433F5822230045E7402B56C1CBF010B787B86
:200BB100E6B40100E433F58222BF0348787DE6B40100E433F582227401B56C38BF02137875
:200BD1007A8606BE0203D38001C39205B3E433F58222BF0413787C8606BE0203D38001C3FA
:200BF1009205B3E433F58222BF01028003BF03047582012275820022AF82850C6CC00712A5
:200C11000B6AE582D0077003F58222BF013D787A86067403B50C0280057404B50C1EC204AD
:200C3100903E13740FF07404B50C03D38001C39206E433F5821208B675820122BE030280A9
:200C510003BE0407120AAB758201228F061EEF2FFF300427EE247EF98705903E13E04DF098
:200C7100753C0890338575F080C007C006122133E582D006D0077003F582227D207402B5A2
:200C91000C047DA080077401B50C027DA2EE30E10343054081A790E6047480F081AFEE24E6
:200CB10012F582E434E6F583EDF0ED20E703020D4181C4EE2418F582E434E6F583E4F0814F
:200CD100D290E604EFF0ED20E63781DD74804FFC90E649F081E790E649ECF0ED20E11181DF
:200CF100F243078090E649EFF081FC90E649EFF0A103EE2418F582E434E6F5837410F080BF
:200D11000FA114EE2418F582E434E6F5837404F0EE247EF9E7F4FF903E13E05FF0753C0853
:200D310090338575F080122133E5827003F58222A14390E604E4F075820122903E13740FEC
:200D5100F030040C753C0890338575F08002213375820122787A8607E4BF040104FF903F03
:200D7100C0E0FEBE400050058F820209818F82020A10787A8607BF030280047582FF223098
:200D910004047582FF22903E01E0FCA3E0FDA3E0FEA3E0FF90E7C2ECF0EDA3F0EEA3F0EFEF
:200DB100A3F090E782E0F50DA3E0F50EA3E0F50FA3E0F510903E01E0FAA3E0FBA3E0FEA3D4
:200DD100E0FFC3EA950DEB950EEE950FEF951050047582012230832A903FC0E0FFBF400068
:200DF10050031208A774022480F56CE434E7F56D756E0C756F00903FD1122769D204758210
:200E110000227582FF2290E782E0FCA3E0FDA3E0FEA3E0FFEC4D4E4F700E756C0CF56D90FC
:200E31003FD1122FB7020EB3903E01E0FCA3E0FDA3E0FEA3E0FF90E7C2ECF0EDA3F0EEA382
:200E5100F0EFA3F0787A8607BF040280047582FF223003047582FF2290E782E0F511A3E07E
:200E7100F512A3E0F513A3E0F514903E01E0FAA3E0FBA3E0FEA3E0FFC3EA9511EB9512EE46
:200E91009513EF951450047582012274022480F56CE434E7F56D756E0C756F00903FD11232
:200EB100276975090C758211120403E58270047582FF2275820022300417741124C0F56CC5
:200ED100E4343FF56D756E0C756F0090E7C212276975820022903FC0E0FFBF4000400302CF
:200EF1000F76120858903FD1E0FCA3E0FDA3E0FEA3E0FF903E01E0F8A3E0F9A3E0FAA3E0C8
:200F1100FBC3E89CE99DEA9EEB9F5056E9A2E3E433B40100B39207E43324FF92B4885B89CE
:200F31005C8A5D8B5E755F0075600275610090E00012247B756C00756D0290E0001209245E
:200F5100903E01E0FCA3E0FDA3E0FEA3E0FF903E01ECF074022DA3F0E43EA3F0E43FA3F006
:200F710080831208A7120AABA2839204E433F582228582157582101225B8E58260177519EC
:200F910001751A0090001575F0401225F1E5826004758201221225D07582002274FF25168B
:200FB10040047582FF22E51624DE50047582FF2290E782E024FD40047582FF2290E782E02C
:200FD100F582120F82E58270047582FF22AE167F001EBEFF011F8E198F1A90E78375F00006
:200FF1001225F1E582600F1225D0E58270047582FF22758200221225D07582FF2290E783B6
:20101100E024DF50047582FF2290E783E0F51790E782E0F582120F82E58270047582FF22A4
:201031007582111225B8E582601A90E783E0F51B751C0090E7C275F000122667E582600444
:20105100758200221225D07582FF2220040122753C0890338B75F080122133E582700122B4
:20107100903E0AE0FFFD7E00EDF4FDEEF4FE903E05E0FCFA7B00EA5205EB5206ED4E600A22
:0B109100EC4207903E0AEFF0D208226C
:0C3385000120133E00000221053E000064
:0134C3000FF9
:10024E0078827601788376027884760478857608CB
:20109C00019E90E61074A0F001A690E61174A0F001AE90E68DE4F001B590E6A27402F022FD
:2010BC00E5BA30E20122100802801490E7C0E4F090E7C17402F01211A4751705021198E501
:2010DC00BA30E1012290E68DE0FFBF0200500302118290E780E07003021182756C24756DB5
:2010FC000090E7C0122FB790E68DE024FEF5167517007E147F3E8E048F058C828D83A3A330
:20111C00A3E0FAA3E0FB4A605D8C828D83E0FB90E781E0FAEBB50202800D74052CFCE43DF3
:20113C00FD8C068D0780D38E828F83A3E0FDBDFF028004EDB5162F8E828F83A3A3E0FDBD50
:20115C00FF0280028D178E828F83A3A3A3E0FEA3E0FFC0078E828F831200D6AE82D0079079
:20117C00E7C1EEF0800690E7C174FFF090E780E0FF90E7C0F0219390E68DE4F0219AAF17A3
:20119C0090E68F74022FF022756C06756D3E756E05756F0090E7C212276975820022756CCF
:2011BC00007F00BF0400502BEF2406FDE4343EFEEF2482F582E434E7F583E0F4FC8D828EFC
:2011DC0083E052048D828E83ECF0EC6003756C010F80D0200006E56C7002C2B5903E0AE096
:2011FC00FF90E786E0F45207903E0AEFF07582002290E782E0FEA3E0FF8E6C8F6D756E2088
:0D121C00756F0090E7C212276975820022ED
:2034C400300900E917310009F9183209008419330009C91A341100111B350011191C360942
:2034E40000AA1C3700090A1D380009771D390009E41D3A0900E51E3B00090B203C0005BECF
:2035040020200C00830D210C04170E22000CC80E28FF00AD0F2902FF0E1010FF00E823111B
:2035240003FF3624A00005A411A10500BA11F00200DF06F10400FF22F20202202301022017
:073544000D12000000000061
:20025E007523007524027E717F128E258F2675270075281375290C752A3EE4F52BF52C78F5
:20027E00867601788776027888760478897608788A760E788B760D788C7654788D765578D1
:20029E008E764C788F764D7890764E7891764F78927620789376217894762078957621788C
:1702BE00967620789776217898760178997640789A7602789B768076
:20122900AE82AF83EE248EFEEF34F98E6CC4C56CC4540F656CC56C540FC56C656CC56CF5E6
:201249006D90010D122F9AAE82E583C4CEC4540F6ECE540FCE6ECEFF74E0C39EFE740F9FD1
:20126900FF8E828F8302305B12305BAE82E583C4CEC4540F6ECE540FCE6ECEFF74FFC39E4D
:20128900FEE49FFF8E6C8F6D900098122F9A756C0A756D00122554E5828583F02472FE740D
:2012A9000635F08E82F58322E582248AF9873C90339175F080022133E582248AF9873C908F
:2012C900002375F04002213312305BAE82E583C4CEC4540F6ECE540FCE6ECEFF8E6C8F6D5B
:2012E900900103122F9A756C0A756D00022554AE82AF838E6C8F6D90000A122F9A756C037D
:20130900756D01122554AE82E583C454F0CEC4CE6ECE54F0CE6EFF8E828F8302305BE58285
:20132900248CF9873C90339B75F08002213375820022903E0CE4F0A3F0903E0EF0A3F07571
:20134900820122E582248CF9873C9033A175F080022133AE82AF838E6C8F6D756E00756F4E
:2013690000900005E4F5F0122FDAAC82AD83AEF0C313FFEE13FEED13FDEC13FCEFC313EE70
:2013890013ED13FDEC13F5828D8322AE82AF83E4FDFCEE2EFEEF33FFED33FDEC33FCEE2EBE
:2013A900FEEF33FFED33FDEC33FC756C05E4F56DF56EF56F8E828F838DF0EC022794E5822B
:2013C900248EF9873C9033AB75F080022133E582248EF987078F3C9033B975F080C0071248
:2013E9002133E582D0077003F58222903E0BE043E003F0903E0CE0F5F0A3E045F060089028
:201409003E0BE053E0FEF0903E0EE0F5F0A3E045F06008903E0BE053E0FDF08F3C9033BF92
:2014290075F080022133E582248EF9873C9033D975F080122133E5827003F58222903E0B60
:20144900E0FF30E007903E0CE4F0A3F0EF30E107903E0EE4F0A3F075820122E582248EF9D6
:2014690087078F3C9033B975F080C007122133E582D0077003F58222903E0BE043E004F062
:20148900903E0CE0F5F0A3E045F06008903E0BE053E0FBF08F3C9033EF75F080022133E510
:2014A90082248EF9873C9033FD75F080122133E5827003F58222903E0BE030E207903E0C09
:2014C900E4F0A3F075820122E582248EF9873C90340775F080022133E582248EF9873C9042
:2014E900341175F080022133E582248EF9873C90341775F080122133E5827003F582229065
:201509003E0BE053E007F075820122E582248EF987078F3C9033B975F080C007122133E577
:2015290082D0077003F58222903E0BE043E0FBF08F3C90341D75F080022133AE82AF8374B9
:201549003AC39EFE74169F8E82C40354F8C582C403C5826582C58254F8C5826582F58375B3
:201569006C35756D00122554AE82E5835403A2E0CE13CE13A2E0CE13CE13CE8E82F5832265
:20158900AE82AF838E6CEFA2E7C56C33C56C33A2E7C56C33C56C33C56C5403F56D900035A6
:2015A900122F9AAE82E583C423CEC423541F6ECE541FCE6ECEFF743AC39EFE74169F8E82A2
:2015C900F58322E582700C753C4890343375F08002213375820122AF82903E12EFF0753C9F
:2015E9004890345575F080022133AF82903E12EFF0753C4890346375F080022133E5822470
:2016090092F9873C90347175F080022133E5822492F9873C90347B75F080022133E5822425
:2016290092F9873C90348575F080022133E582FF30E0067D957E3480047D8B7E347C80EF66
:201649002494F9873C8D828E838CF0022133E582FF30E0067DA97E3480047D9F7E347C8079
:20166900EF2494F9873C8D828E838CF0022133E582FF30E0067DB97E3480047DB37E347CC6
:2016890080EF2494F9873C8D828E838CF00221337582012275820022C2B0C2B6903FC0E0E0
:2016A900FFBF4015C2B1C2B7752DEB752E3E903E10E4F07428A3F08022903FC0E0FFBF32D2
:2016C900004012752DC8752E3E903E107455F0740DA3F08006752DA5752E3E903FC0E0FF9D
:2016E900BF33005004788A760C903FC0E0FFBF40005008788E7640788F76417F00BF040096
:20170900400122852D82852E83E0FEEF2486F9E75E70030217A4852D82852E83A3A3A3A318
:20172900A3E0FDA3E0FEC007C006C00512173A8007C005C0068F8222D005D006D007740BA4
:20174900252DF582E4352EF583E0FDA3E0FEC007C006C0051217628007C005C0068F822278
:20176900D005D006D007903E0EE4F0A3F0903E0CF0A3F0741D252DF582E4352EF583E0FD48
:20178900A3E0FEC007C006C0051217978007C005C0068F8222D005D006D0070F021706AE0A
:2017A90082AF83EE4F6030852D82852E83A3E0FCA3E0FDC3EE9CEF9D92094017852D8285B2
:2017C9002E83A3A3A3E0FCA3E0FDC3EC9EED9F92095004C2098002D209A209E433F58222BF
:2017E90090E782E0FF852D82852E83E07D00F4FEEDF4FD7C00EF5206EC5205EE4D60047557
:2018090082FF227F00BF0400506690E782E0FEEF2486F9E75E6056EF2FFE2483F582E4346E
:20182900E7F583E0FCA3E0FD8C828D83C007C006C005C0041217A8E582D004D005D006D029
:201849000770047582FF22EE24E1F582E4343FF583E0F52FA3E0F530AA2FAE30E52F4530C7
:20186900600BC3EA9CEE9D50047582FF220F80957F00BF0400507590E782E0FEEF2486F920
:20188900E75E6065EF2F2483F582E434E7F583E0FDA3E0FE4D7008EF2498F9E7F452B0904E
:2018A9003E0CEDF0EEA3F0852D82852E83A3A3A3A3A3A3A3E0FBA3E0FCC007C006C005C02C
:2018C900041218CF8007C003C0048F8222AB82D004D005D006D007EB70047582FF22ED4E8C
:2018E9006007EF2498F9E742B00F808675820022852D82852E83E090E7C2F07F00BF040018
:20190900507590E7C2E0FEEF2486F9E75E6065EF2498F9E755B0604D852D82852E83A3A359
:20192900A3A3A3A3A3A3A3E0FDA3E0FEC007C00612193E8007C005C0068F8222AD82D0068B
:20194900D007ED70047582FF22EF2F24C3FEE434E7FD903E0CE0FBA3E0FC8E828D83EBF000
:20196900ECA3F0800FEF2F24C3F582E434E7F583E4F0A3F00F80867582002290E782E0FFF0
:20198900852D82852E83E07D00F4FEEDF4FD7C00EF5206EC5205EE4D60047582FF227F006B
:2019A900BF0400503390E782E0FEEF2486F9E75E6023EF2F2483F582E434E7F583E0FDA374
:2019C900E0FE8D828E83C0071217A8E582D00770047582FF220F80C87F00BF0400400302C0
:2019E9001AC590E782E0FEEF2486F9E75E7003021AC1EF2FFE2483F582E434E7F583E0FC74
:201A0900A3E0FD852D82852E83A3A3A3A3A3A3A3A3A3E0FAA3E0FBC007C006C005C004C0EA
:201A290003121A2F8007C002C0038F8222AA82D003D004D005D006D007EA70047582FF2235
:201A4900903E0CE0FAA3E0FBC3EC9AED9B5043903E0CECF0EDA3F0852D82852E83A3A3A35E
:201A6900A3A3A3A3E0FAA3E0FBC007C006C005C004C003121A818007C002C0038F8222AA0A
:201A890082D003D004D005D006D007EA70047582FF22EE24E1F582E4343FF583ECF0EDA377
:201AA900F074212EF582750902C007120403E582D00770047582FF220F0219E375820022A3
:201AC900852D82852E83E090E7C2F07F00BF0400503290E7C2E0FEEF2486F9E75E6022EF67
:201AE9002FFE24C3FCE434E7FDEE24E1F582E4343FF583E0FBA3E0FE8C828D83EBF0EEA3B2
:201B0900F00F80C97582002290E782E0FF852D82852E83E07D00F4FEEDF4FD7C00EF520629
:201B2900EC5205EE4D60047582FF227F00BF0400506090E782E0FEEF2486F9E75E6050EF63
:201B49002F25E0FE2483F582E434E7F583E0FCA3E0FDEE2483FEE434E7FB8E828B83A3A368
:201B6900E0FBA3E0FE8C828D83C007C006C0031217A8E582D003D006D007600F8B828E834D
:201B8900C0071217A8E582D00770047582FF220F809B7F00BF0400507390E782E0FEEF24C1
:201BA90086F9E75E6063EF2F25E0FE2483F582E434E7F583E0FCA3E0FD903E0CECF0EDA33D
:201BC900F0EE2483FEE434E7FD8E828D83A3A3E0FDA3E0FE903E0EEDF0EEA3F0740D252DAC
:201BE900F582E4352EF583E0FDA3E0FEC007C006121BFE8007C005C0068F8222AD82D00646
:201C0900D007ED70047582FF220F808875820022852D82852E83E090E7C2F07F00BF040086
:201C2900507B90E7C2E0FEEF2486F9E75E606A740F252DF582E4352EF583E0FDA3E0FEC0EF
:201C490007C006121C518007C005C0068F8222AD82D006D007ED70047582FF22EF2F25E072
:201C6900FE24C3FCE434E7FD903E0CE0FAA3E0FB8C828D83EAF0EBA3F0EE24C3FEE434E704
:201C8900FD74022EFEE43DFD903E0EE0FBA3E0FC8E828D83EBF0ECA3F00F021C2675820084
:201CA900227F00BF0400505590E782E0FEEF2486F9E75E6045EF2F2483F582E434E7F5830C
:201CC900E0FDA3E0FE903E0CEDF0EEA3F07411252DF582E4352EF583E0FDA3E0FEC007C073
:201CE90006121CEF8007C005C0068F8222AD82D006D007ED70047582FF220F80A6758200F2
:201D090022852D82852E83E090E7C2F07F00BF0400505790E7C2E0FEEF2486F9E75E6047A7
:201D29007413252DF582E4352EF583E0FDA3E0FEC007C006121D428007C005C0068F8222EA
:201D4900AD82D006D007ED70047582FF22EF2F24C3FEE434E7FD903E0CE0FBA3E0FC8E82E2
:201D69008D83EBF0ECA3F00F80A475820022852D82852E83E090E7C2F07F00BF0400505748
:201D890090E7C2E0FEEF2486F9E75E60477415252DF582E4352EF583E0FDA3E0FEC007C0AF
:201DA90006121DAF8007C005C0068F8222AD82D006D007ED70047582FF22EF2F24C3FEE4B5
:201DC90034E7FD903E0CE0FBA3E0FC8E828D83EBF0ECA3F00F80A475820022852D82852E01
:201DE90083E090E7C2F07F00BF0400505790E7C2E0FEEF2486F9E75E60477417252DF5827C
:201E0900E4352EF583E0FDA3E0FEC007C006121E1C8007C005C0068F8222AD82D006D007A2
:201E2900ED70047582FF22EF2F24C3FEE434E7FD903E0CE0FBA3E0FC8E828D83EBF0ECA363
:201E4900F00F80A4758200227F00BF0400400122852D82852E83E0FEEF2486F9E75E6078A1
:201E69007419252DF582E4352EF583E0FDA3E0FEC007C006121E828007C005C0068F822262
:201E8900AD82D006D007ED604F903E0BE0FEE06047EF2498F9E7F452B0EF2406FCE4343E97
:201EA900FD8C828D83E042068C828D83EEF0741B252DF582E4352EF583E0FDA3E0FEC0079E
:201EC900C006C005121ED28007C005C0068F8222D005D006D007D2080F021E5390E782E070
:201EE900FF852D82852E83E07D00F4FEEDF4FD7C00EF5206EC5205EE4D60047582FF227511
:201F0900310074FC2531500302200790E782E0FEE5312486F9E75E7003022002E53125316D
:201F2900FE2483FCE434E7FD8C828D83A3E0F532EE2483F582E434E7F583E0FE5532F53323
:201F4900EE4532F534741F252DF582E4352EF583E0FAA3E0FBC003121F658008C002C00311
:201F690085318222AA82D003EA70047582FF22903E0CE0FAA3E0FBAC337E00EC5AF535EE9C
:201F89005BF536AD337F00EDF4FDEFF4FFAA327B00ED5AF537EF5BF538AA35AB36E5374234
:201FA90002903E0CEAF0EBA3F0903E0EE0FAA3E0FBEA5204EB5206AA347B00EA5205EB5256
:201FC90007EC4205EE4207903E0EEDF0EFA3F0741D252DF582E4352EF583E0FEA3E0FFC013
:201FE90007121FEF8008C006C00785318222AE82D007EE70047582FF220531021F0B758268
:202009000022852D82852E83E090E7C2F075390074FC253950030220BA90E7C2E0FEE53942
:202029002486F9E75E70030220B5903E0EE4F0A3F0E5392498F9E755B0602A741F252DF5FF
:2020490082E4352EF583E0FDA3E0FEC00612205B8008C005C00685398222AD82D006ED70AE
:20206900047582FF22E5392539FE24C3FCE434E7FD0CBC00010D903E0EE0F53AA3E0F53B6E
:20208900903E0CE0FBA3E0AA3AEB52028C828D83EAF0EE24C3FEE434E7FF903E0CE0F4FD68
:2020A900903E0EE052058E828F83EDF0053902201975820022852D82852E83E090E7C2F000
:2020C9007F00BF0400505E90E7C2E0FEEF2486F9E75E604E903E0CE4F0A3F0EF2498F9E79F
:2020E90055B0602D7421252DF582E4352EF583E0FDA3E0FEC007C0061221068007C005C0F8
:20210900068F8222AD82D006D007ED70047582FF22EF24C3FDE434E7FE903E0CE08D828E01
:0921290083F00F809D75820022F5
:203391000002291200120C3E000002209B3E00000002D11200230C3E000000109D3ED42255
:2033B100103ED2209C3E0000D2210B3E00000002941357220E3E0002941358220C3ED220D9
:2033D1000B3E00109E3E0000D2210B3E00025C1357230E3E00025C1358230C3E00004A2292
:2033F1000C3ED2200B3E00109E3E0000D2210B3E4A230C3E000000025C1388230C3E0000F2
:203411008C230C3E000080210B3E00004A230C3E00109D3ED422103E4A220C3ED2200B3EE1
:20343100000000209C3E26229F3E00209C3EE322A13ED222A33ED622A33EDA22A33EDE22F3
:20345100A33E00000020123E0002441521220C3E00000020123E0002891521230C3E000084
:2034710001200C3E03200E3E000001210C3E03210E3E000000210C3E000002200C3E062088
:203491000E3E000003200C3E07200E3E000002210C3E06210E3E000003210C3E07210E3E2D
:0E34B100000000210C3E000001210C3E000036
:20354B0000FF12030101B61D00120372067C159916B112C112271337133B139D169D164C90
:20356B00139D1699169D160616161626160372067C159916B112C112C713D7132F146414C4
:20358B00A814D114E114F11414150616161626160F84037C15CC15E015F315C713D7132FE0
:1335AB00146414A814D114E114F114141536165716781676
:2002D5007546007547227548847549E7E4F54AF54BF54C754D23754EC2754FE7F550F55146
:1002F500789C7601789D7602789E7604789F7608BC
:202132002285823D85833E85F03F7C01754032754121E53C253CF53CEC70030222F6A83DE1
:20215200A93E7402253DF53DE4353EF53E88828983E0FAA3E0F98A4270030222F6B901046F
:202172008A3C80D4B9021CA83DAA3E7402253DF53DE4353EF53E88828A83E0F540A3E0F557
:202192004180B5A83DAA3E7402253DF53DE4353EF53E88828A83E0F543A3E0F5448900538F
:2021B20000F0B8202A853C821225B8E5826013751901751A0090004275F0401225F1E582EB
:2021D2007004C20A8002D20AA20AE433FC800CE920E008853C821225B8AC82E920E00302C5
:2021F2002274EC600D7401453CF5821225B8E5827004C20A8002D20AA20A5025A843AA4483
:202212007B00E930E105754502800375450185451B751C0088828A838BF0122667E58270BA
:2022320004C20A8002D20AA20AE433FCAA43AB448A828B83E0F8A3E0FFC004C003C00212F4
:2022520022568009C040C04188828F8322AE82AF83D002D003D0048A828B83EEF0EFA3F0D7
:202272008079AA43AB448A828B83E0FEA3E0FFC004C003C002C00112228E8009C040C041A7
:202292008E828F8322AE82AF83D001D002D003D0048A828B83EEF0EFA3F0EC6022AA43ABBC
:2022B200447F00E930E1047E0280027E018E19751A008A828B838FF01225F1E5827004C236
:2022D2000A8002D20AA20A50071225D0E5827004C20A8002D20AA20AE433FC754032754119
:2022F2002102214AEC70031225D08C822290E783E0F54690E782E0F53C90004675F04012FC
:202312002133E58270047582FF227582002290E783E0F54C90E782E0F53C90004C75F040A5
:0F233200122133E58270047582FF22758200222A
:1003050078A0760178A1760278A2760478A376089B
:20234100AF82AE538E59AE528E5AEF2FFFF5821225B8E58270030223E1751902751A009069
:20236100005975F0401225F1E58270030223E1E5586041AC54AD557E0085561985571A8C82
:20238100828D838EF01225F1E58260541225D0E5827003F582227E00BE800050138F82122D
:2023A10025B8E58260071225D0758201220E80E87582002274014FF5821225B8E5826020B0
:2023C100AD54AE557F0085561B85571C8D828E838FF0122667E5827003F5822275820122C0
:2023E1001225D07582002274FE251640047582FF22E51624DD50047582FF2290E782E0F57D
:2024010052A3E0F55374042480F554E434E7F555AE167F00EE24FEFEEF34FFFF8E568F57B4
:20242100755801758251122341E58270047582FF227582002290E784E024DF50047582FFDB
:202441002290E784E0F51790E782E0F552A3E0F553740224C0F554E434E7F55590E784E0C0
:20246100F556755700755800758251122341E58270047582FF2275820022AE82AF83AC5B44
:20248100AD5CA85DA95E7A007B00B8000BB90008BA0005BB0002801CB8010BB90008BA0056
:2024A10005BB00028012B80223B90020BA001DBB001A80087B5280187B5380147B518C01BD
:2024C1008D0274702AFA89048A05800475820022E55F456060758C018D0243013F09B9008C
:2024E100010AE9C39CF9EA9DFAC3E55F99E5609A4004E5617004A95FAA608C528D538E54DF
:202501008F5589568A578561588B82C007C006C005C004C003C002C001122341E582D001C1
:20252100D002D003D004D005D006D0077003F58222E92CFCEA3DFDE92EFEEA3FFFE55FC31A
:1325410099F55FE5609AF5600224D175820122758200223C
:202554007A10E4FBFCE58225E0F582E58333F583EB33FBEC33FCEB956CF5F0EC956D4006D3
:09257400FCABF0438201DADD2228
:20257D00C007C006AF8290E678E020E00CE51860F5751800758200801D90E678E030E2054E
:20259D007582008011EF600B90E678E0035401F5828003758201D006D00722C007AF8290CD
:2025BD00E6787480F090E679EFF075820112257DD00722C00790E678E030E2057582008026
:2025DD001090E6787440F090E678E020E6F9758201D00722C007C006C005C004C003C002E3
:2025FD00C001C000AD82AE83AFF0E519451A700575820180447B007C00EBB51906ECB51A3F
:20261D00028026EB2DF8EC3EF98F02888289838AF012314590E679F075820112257DE58227
:20263D0060070BBB00D30C80D0EBB51907ECB51A03D38001C3E433F582D000D001D002D0BB
:20265D0003D004D005D006D00722C007C006C005C004C003C002C001C00085821D85831E7C
:20267D0085F01FE51B451C7006758201022758AB1BAC1CBB0109BC000690E6787420F09042
:20269D00E679E07B007C0079007A00E9B51B07EAB51C0302273575820012257DE582700393
:2026BD0002274889008A07740228F8E43FFFE8B51B0AEFB51C0690E6787420F089068A07A0
:2026DD000EBE00010FEEB51B2CEFB51C2875AF03759AE6759B7890E67B7440F0E0AFE0E99E
:2026FD00251DF8EA351EFDAE1F88828D838EF0EF122F7E8017E9251DFDEA351EFEAF1F90DE
:20271D00E679E08D828E838FF0122F7E09B900010A89038A040226A890E678E030E20575EE
:20273D008200801790E678E020E6F9EBB51B07ECB51C03D38001C3E433F582D000D001D0FE
:0C275D0002D003D004D005D006D0072223
:20276900AA82AB83AC6CAD6DAE6EAF6FEE60010FEF601775AF078A9B8B9A8C9E8D9D90E687
:0B2789007CE090E67BF0DEF6DFF4223F
:20279400FB7A20E4FCFDFEFFE5822582F582E58333F583E5F033F5F0EB33FB4017DAE9807E
:2027B40042E5822582F582E58333F583E5F033F5F0EB33FBEC33FCED33FDEE33FEEF33FFAD
:2027D400EC956CED956DEE956EEF956F4013EC956CFCED956DFDEE956EFEEF956FFF438257
:0527F40001DABEEB223A
:06020000E478FFF6D8FDD2
:0127F90032AD
:2027FA00AF82756300756400D2E890E668E043E008F090E65CE043E001F090E65D7401F04C
:20281A00D2AF90E680E020E10890E680E043E002F0EF600E90E680E043E008F090000A1259
:20283A00311A90E680E053E0F7F022AF82BF00028037BF01028036BF02028039BF0402803F
:20285A0038BF06028037BF08028036BF80028019BF8102801CBF8202801BBF8402801ABFF5
:20287A0086028019BF881E801890E6A02290E6A12290E6A22290E6A32290E6A42290E6A5E3
:20289A002290E6A62290000022C022C0E0C0F0C082C083C007C006C005C004C003C002C0FA
:2028BA0001C000C0D075D000C08675860090E6B8E0FF90E6B9E0FEE4BF800104FD6014BEB6
:2028DA00061190E6BAE0FBA3E0F5828B08120318022AF5EF7025BE092290E6BAE0F58212DB
:2028FA000639E582600990E6A07480F0022AF590E6A07401F07481F0022AF5ED6009BE08F7
:20291A0006123071022AF58F04BC012CBE0B2990E6BCE0FC90E6BAE0F50B8C8212065BE5D1
:20293A0082600990E6A07480F0022AF590E6A07401F07481F0022AF5E4BF810104FC600F62
:20295A00BE0A0C90E6BCE0F582120695022AF5EF7031BE032E90E6BAE0FAA3E0FBBA010F61
:20297A00BB000C75630190E6A07480F0022AF5BA0205BB00028003022AF590E6A07480F066
:20299A00022AF5ED602FEE702CAD62E56325E0FB420590E740EDF090E741E4F090E6B50409
:2029BA00F090E68AE4F090E68B7402F090E6A07480F0022AF5EC6025EE702290E740E4F03B
:2029DA0090E741F090E6B504F090E68AE4F090E68B7402F090E6A07480F0022AF5BF0202FD
:2029FA008003022AA2E4BE030104FD7008BE01028003022AA290E6BAE0FBA3E0FC4B600303
:202A1A00022AF590E6BCE0F582C005122845AB82AC83D005EB4C7003022AF5ED60188B8240
:202A3A008C83E0FD4305018B828C83EDF090E6A07480F0022AF590E6BCE0F582C004C00323
:202A5A00123050E582D003D0047003022AF58B828C83E0FD5305FE8B828C83EDF090E6BCAE
:202A7A00E0FCA3E08C0353030F530480E423CCC423541F6CCC541FCC6CCCFD90E683EC4B09
:202A9A00F0E043E020F08053BF824AEE704790E6BCE0F582122845AE82AF838E048F05EE98
:202ABA004F60388C828D83E05401FCB40100B3920BE433FF90E740F090E741E4F090E6B54D
:202ADA0004F090E68AE4F090E68B7402F090E6A07480F0800690E6B81204F45391EF90E6AC
:202AFA005D7401F0D086D0D0D000D001D002D003D004D005D006D007D083D082D0F0D0E053
:202B1A00D0220200ACAE82AF837401B56527E56670238E828F83E493FCA3E493FD8C6C8DD4
:202B3A006D8C828D83E493F56E756F0090E000122769022E4D7406B56536E56670328E82DC
:202B5A008F83A3A3E493FCA3E493FD4C700A90E6A07401F07481F0228C6C8D6D8C828D8321
:202B7A00E493F56E756F0090E000122769022E4D7402B565028003022C908E828F83A3A3B3
:202B9A00A3A3E493FDC3E5669D4003022C908E828F83A3A3A3A3A3E493FCA3E493FDE5668F
:202BBA0075F002A42CF582ED35F0F583E493FCA3E493FD74092CFAE43DFB8C6C8D6D8C827A
:202BDA008D83E493F56E756F0090E000C005C004C003C002122769D002D003D004D0058C13
:202BFA00828D83E4932400FCE434E0FD8C688D698A6A8B6B856A82856B83E493F8A3E4935C
:202C1A00F9886C896D88828983E493F56E756F00856882856983C005C004C003C0021227BC
:202C3A0069D002D003D004D005856A82856B83E493F8A3E493F988828983E4932CFCE43D87
:202C5A00FD74022AFAE43BFB8A828B83E493F8A3E49348709790E002E0FAA3E04A60030239
:202C7A002E4DECC39400FCED94E0FD90E002ECF0EDA3F0022E4D7403B5650474018001E468
:202C9A00FD601DE5667019756CBF756D349034BFE493F56E756F0090E000122769022E4D46
:202CBA00ED7003022D5FAC667D00EC24FFFAED34FFFB74072EF582E43FF583E493F87900B6
:202CDA00C3EA98EB648089F063F08095F0507674082EF582E43FF583E493FAA3E493FB1CD1
:202CFA00BCFF011DEC2CFCED33FDEC2AF582ED3BF583E493FCA3E493FD90E0007402F09093
:202D1A00E00104F074012401FAE434E0FB8C828D83E493F97003022E4D0CBC00010D8A82DD
:202D3A008B83E9F074012AF8E43BF988828983E4F00428FAE439FB90E000E0F9090990E0F0
:202D5A0000E9F080C8740FB565028003022E43E5666003022E4390E0007405F090E00174C4
:202D7A000FF0740A2EFCE43FFD8C828D83E49390E004F090E000E02400FAE434E0FB740B99
:202D9A002EF582E43FF583E493FEA3E493FF7567008C828D83E493F8C3E567985056C004D1
:202DBA00C0058A6A8B6B8E6C8F6D8E048F058C828D83E493F56E756F00856A82856B83C0AE
:202DDA0007C006C005C004C003C002122769D002D003D004D005D006D0078C828D83E493CC
:202DFA002AFAE43BFB74022EFEE43FFF0567D005D004809DEAC39400FAEB94E0FB90E0027E
:202E1A00EAF0EBA3F07E007FE090E6B5E4F090E68AEBF090E68BEAF090E6B3EFF090E6B47C
:202E3A00EEF090E6A07480F02290E6A07401F07481F0227E007FE090E6B57401F090E6B366
:202E5A00EFF090E6B4EEF090E6A07480F022AE82AF83A3A3A3A3A3E493FCA3E493FD7404C2
:202E7A002EFEE43FFF756E008E828F83E493FAC3E56E9A400122E56E75F002A42CF582ED73
:202E9A0035F0F583E493F56FA3E493F5707409256FF8E43570FA757200856F82857083A31D
:202EBA00A3A3A3A3E493B564028003022F76880189828A83E493F8A3E493FB88828B83A3D0
:202EDA00E493FBBB043789828A83E493F573A3E493F574857382857483A3A3E493B56C1012
:202EFA00857382857483A3A3A3E493B56D02800575710080037571018571728048BB054534
:202F1A00E5726041C004C00589828A83E493F8A3E493FB88828B83A3A3E493FB740F5BF8D4
:202F3A00530380E423CBC423541F6BCB541FCB6BCB30E40244E090E683EB48F0E043E02052
:202F5A00F0D005D004740229F9E43AFA89828A83E493F8A3E493486003022ECA056E022E25
:012F7A0082D4
:0434BF0004030904F5
:012F7B003223
:2001DE0079FBE94400601B7A019034C3781375923EE493F2A308B800020592D9F4DAF275A0
:0201FE0092FF6E
:2000AC00C000A88118C0D0B6001B18B668004015B68F005010C0E0E65407B406005004E6CD
:0A00CC0054F8F6D0E0D0D0D0003296
:012F7C003222
:012F7D003221
:030100000228A32F
:0301040002314283
:0301080002304E74
:03010C0002313E7F
:0301100002314475
:030114000231674E
:0301180002304B67
:03011C000201B825
:0301200002075B78
:0301240002075E71
:030128000207616A
:03012C0002076463
:030130000207675C
:0301340002076A55
:0301380002076D4E
:03013C0002077047
:0301400002306C1E
:030144000201B8FD
:0301480002316120
:03014C000231621B
:0301500002316316
:0301540002316411
:030158000231650C
:03015C0002316607
:0301600002314326
:030164000201B8DD
:030168000201B8D9
:03016C000201B8D5
:0301700002306EEC
:0301740002306FE7
:0301780002308DC5
:03017C0002308FBF
:03018000023070DA
:0301840002308EB8
:03018800023090B2
:03018C0002313FFE
:03019000023049F1
:0301940002304CEA
:0301980002304FE3
:03019C0002306BC3
:0301A00002304AE0
:0301A40002304DD9
:0301A80002305AC8
:0301AC0002306DB1
:0301B000022FD942
:0301B400023168AD
:0101B8003214
:1B2F7E0020F71130F6138883A88220F509F6A8837583002280FEF280F5F02252
:012F99003205
:1D2F9A00E582856CF0A4C582C0F0856DF0A4D0F025F0C583856CF0A42583F58322CD
:202FB700AA82AB83AC6CAD6DEC60010DED601175AF038A9B8B9A90E67B7400F0DCFDDDFB3F
:012FD70022D7
:012FD80032C6
:012FD90032C5
:202FDA00AAF0FBE582856CF0A4FCADF0E583856CF0A42DFDE435F0FEE582856DF0A42DFD88
:202FFA00E5F03EFEE433FFEA856CF0A42EFEE5F03FFFE583856DF0A42EFEE5F03FFFE5824E
:20301A00856EF0A42EFEE5F03FFFEB856CF0A42FFFEA856DF0A42FFFE583856EF0A42FFF77
:0E303A00E582856FF0A42F8EF08D838C8222AC
:013048003255
:013049003254
:01304A003253
:200206007800E84400600A790075923EE4F309D8FC7813E84400600C7901903E00E4F0A376
:04022600D8FCD9FA2D
:01304B003252
:01304C003251
:01304D003250
:01304E00324F
:01304F00324E
:0A30500090E6A07480F07582012262
:01305A003243
:10305B00C582C583C58222C582C5F0C583C5F02252
:01306B003232
:01306C003231
:01306D003230
:01306E00322F
:01306F00322E
:01307000322D
:1C30710090E740E564F090E6B57401F090E68AE4F090E68B04F090E6A003F022CF
:01308D003210
:01308E00320F
:01308F00320E
:01309000320D
:20309100E583700BE58224FA400122B4001122E5826003D5E0FD0075E0FED583F674F9D50E
:2030B100E0FD22C007C006C001C000AE82AF83EE2EF8EF33F9EE28FEEF39FF90E600E0F8D8
:2030D100794C20E416C3EF13CE13CEFF795AE820E309C3EF13CE13CEFF7963E58124FAF8FB
:2030F100E926C313C313F9C3EE99F582EF9400F583D000D001D006D0075001220230917457
:2031110011C0E01230B4158122C007C006AE82AF837411C0E0EE4F600D1EBEFF011F9003F3
:0D313100E81230B480EF1581D006D00722DF
:01313E00325E
:01313F00325D
:0200D600E473D1
:01314000325C
:01314100325B
:01314200325A
:013143003259
:013144003258
:0D01D1007581A3123169E58260030200A967
:1C31450020F71430F6148883A88220F507E6A88375830022E280F7E49322E02299
:01316100323B
:01316200323A
:013163003239
:013164003238
:013165003237
:013166003236
:013167003235
:013168003234
:043169007582002249
:00000001FF
